{
  "contractName": "Base",
  "abi": [
    {
      "inputs": [],
      "payable": false,
      "stateMutability": "nonpayable",
      "type": "constructor"
    },
    {
      "anonymous": false,
      "inputs": [
        {
          "indexed": true,
          "internalType": "address",
          "name": "previousOwner",
          "type": "address"
        },
        {
          "indexed": true,
          "internalType": "address",
          "name": "newOwner",
          "type": "address"
        }
      ],
      "name": "OwnershipTransferred",
      "type": "event"
    },
    {
      "constant": true,
      "inputs": [],
      "name": "isOwner",
      "outputs": [
        {
          "internalType": "bool",
          "name": "",
          "type": "bool"
        }
      ],
      "payable": false,
      "stateMutability": "view",
      "type": "function"
    },
    {
      "constant": true,
      "inputs": [],
      "name": "owner",
      "outputs": [
        {
          "internalType": "address",
          "name": "",
          "type": "address"
        }
      ],
      "payable": false,
      "stateMutability": "view",
      "type": "function"
    },
    {
      "constant": false,
      "inputs": [],
      "name": "renounceOwnership",
      "outputs": [],
      "payable": false,
      "stateMutability": "nonpayable",
      "type": "function"
    },
    {
      "constant": false,
      "inputs": [
        {
          "internalType": "address",
          "name": "newOwner",
          "type": "address"
        }
      ],
      "name": "transferOwnership",
      "outputs": [],
      "payable": false,
      "stateMutability": "nonpayable",
      "type": "function"
    },
    {
      "constant": true,
      "inputs": [
        {
          "internalType": "uint256",
          "name": "pokemonNumber",
          "type": "uint256"
        }
      ],
      "name": "getPokemonName",
      "outputs": [
        {
          "internalType": "string",
          "name": "",
          "type": "string"
        }
      ],
      "payable": false,
      "stateMutability": "view",
      "type": "function"
    },
    {
      "constant": true,
      "inputs": [
        {
          "internalType": "uint256",
          "name": "pokemonNumber",
          "type": "uint256"
        }
      ],
      "name": "getBasicPokemonInfo",
      "outputs": [
        {
          "internalType": "string",
          "name": "",
          "type": "string"
        },
        {
          "internalType": "string",
          "name": "",
          "type": "string"
        },
        {
          "internalType": "string",
          "name": "",
          "type": "string"
        },
        {
          "internalType": "bool",
          "name": "",
          "type": "bool"
        }
      ],
      "payable": false,
      "stateMutability": "view",
      "type": "function"
    }
  ],
  "bytecode": "0x60806040523480156200001157600080fd5b50336000806101000a81548173ffffffffffffffffffffffffffffffffffffffff021916908373ffffffffffffffffffffffffffffffffffffffff1602179055506000809054906101000a900473ffffffffffffffffffffffffffffffffffffffff1673ffffffffffffffffffffffffffffffffffffffff16600073ffffffffffffffffffffffffffffffffffffffff167f8be0079c531659141344cd1fd0a4f28419497f9722a3daafe3b4186f6b6457e060405160405180910390a3620000de6200010460201b60201c565b620000ee62001dee60201b60201c565b620000fe6200250c60201b60201c565b62003513565b60036040518060e001604052806040518060400160405280600981526020017f42756c62617361757200000000000000000000000000000000000000000000008152508152602001600181526020016040518060400160405280600581526020017f477261737300000000000000000000000000000000000000000000000000000081525081526020016040518060400160405280600681526020017f506f69736f6e0000000000000000000000000000000000000000000000000000815250815260200161024681526020016000151581526020016040518060c00160405280602d63ffffffff168152602001603163ffffffff168152602001603163ffffffff168152602001604163ffffffff168152602001604163ffffffff168152602001602d63ffffffff168152508152509080600181540180825580915050906001820390600052602060002090600702016000909192909190915060008201518160000190805190602001906200027d92919062003464565b50602082015181600101556040820151816002019080519060200190620002a692919062003464565b506060820151816003019080519060200190620002c592919062003464565b506080820151816004015560a08201518160050160006101000a81548160ff02191690831515021790555060c08201518160060160008201518160000160006101000a81548163ffffffff021916908363ffffffff16021790555060208201518160000160046101000a81548163ffffffff021916908363ffffffff16021790555060408201518160000160086101000a81548163ffffffff021916908363ffffffff160217905550606082015181600001600c6101000a81548163ffffffff021916908363ffffffff16021790555060808201518160000160106101000a81548163ffffffff021916908363ffffffff16021790555060a08201518160000160146101000a81548163ffffffff021916908363ffffffff160217905550505050505060036040518060e001604052806040518060400160405280600781526020017f49767973617572000000000000000000000000000000000000000000000000008152508152602001600281526020016040518060400160405280600581526020017f477261737300000000000000000000000000000000000000000000000000000081525081526020016040518060400160405280600681526020017f506f69736f6e000000000000000000000000000000000000000000000000000081525081526020016101ef81526020016000151581526020016040518060c00160405280603c63ffffffff168152602001603e63ffffffff168152602001603f63ffffffff168152602001605063ffffffff168152602001605063ffffffff168152602001603c63ffffffff168152508152509080600181540180825580915050906001820390600052602060002090600702016000909192909190915060008201518160000190805190602001906200056192919062003464565b506020820151816001015560408201518160020190805190602001906200058a92919062003464565b506060820151816003019080519060200190620005a992919062003464565b506080820151816004015560a08201518160050160006101000a81548160ff02191690831515021790555060c08201518160060160008201518160000160006101000a81548163ffffffff021916908363ffffffff16021790555060208201518160000160046101000a81548163ffffffff021916908363ffffffff16021790555060408201518160000160086101000a81548163ffffffff021916908363ffffffff160217905550606082015181600001600c6101000a81548163ffffffff021916908363ffffffff16021790555060808201518160000160106101000a81548163ffffffff021916908363ffffffff16021790555060a08201518160000160146101000a81548163ffffffff021916908363ffffffff160217905550505050505060036040518060e001604052806040518060400160405280600881526020017f56656e75736175720000000000000000000000000000000000000000000000008152508152602001600381526020016040518060400160405280600581526020017f477261737300000000000000000000000000000000000000000000000000000081525081526020016040518060400160405280600681526020017f506f69736f6e0000000000000000000000000000000000000000000000000000815250815260200161017781526020016000151581526020016040518060c00160405280605063ffffffff168152602001605263ffffffff168152602001605363ffffffff168152602001606463ffffffff168152602001606463ffffffff168152602001605063ffffffff168152508152509080600181540180825580915050906001820390600052602060002090600702016000909192909190915060008201518160000190805190602001906200084592919062003464565b506020820151816001015560408201518160020190805190602001906200086e92919062003464565b5060608201518160030190805190602001906200088d92919062003464565b506080820151816004015560a08201518160050160006101000a81548160ff02191690831515021790555060c08201518160060160008201518160000160006101000a81548163ffffffff021916908363ffffffff16021790555060208201518160000160046101000a81548163ffffffff021916908363ffffffff16021790555060408201518160000160086101000a81548163ffffffff021916908363ffffffff160217905550606082015181600001600c6101000a81548163ffffffff021916908363ffffffff16021790555060808201518160000160106101000a81548163ffffffff021916908363ffffffff16021790555060a08201518160000160146101000a81548163ffffffff021916908363ffffffff160217905550505050505060036040518060e001604052806040518060400160405280600a81526020017f436861726d616e646572000000000000000000000000000000000000000000008152508152602001600481526020016040518060400160405280600481526020017f466972650000000000000000000000000000000000000000000000000000000081525081526020016040518060400160405280600381526020017f6e616e0000000000000000000000000000000000000000000000000000000000815250815260200161024f81526020016000151581526020016040518060c00160405280602763ffffffff168152602001603463ffffffff168152602001602b63ffffffff168152602001603c63ffffffff168152602001603263ffffffff168152602001604163ffffffff1681525081525090806001815401808255809150509060018203906000526020600020906007020160009091929091909150600082015181600001908051906020019062000b2992919062003464565b5060208201518160010155604082015181600201908051906020019062000b5292919062003464565b50606082015181600301908051906020019062000b7192919062003464565b506080820151816004015560a08201518160050160006101000a81548160ff02191690831515021790555060c08201518160060160008201518160000160006101000a81548163ffffffff021916908363ffffffff16021790555060208201518160000160046101000a81548163ffffffff021916908363ffffffff16021790555060408201518160000160086101000a81548163ffffffff021916908363ffffffff160217905550606082015181600001600c6101000a81548163ffffffff021916908363ffffffff16021790555060808201518160000160106101000a81548163ffffffff021916908363ffffffff16021790555060a08201518160000160146101000a81548163ffffffff021916908363ffffffff160217905550505050505060036040518060e001604052806040518060400160405280600a81526020017f436861726d656c656f6e000000000000000000000000000000000000000000008152508152602001600581526020016040518060400160405280600481526020017f466972650000000000000000000000000000000000000000000000000000000081525081526020016040518060400160405280600381526020017f6e616e000000000000000000000000000000000000000000000000000000000081525081526020016101ef81526020016000151581526020016040518060c00160405280603a63ffffffff168152602001604063ffffffff168152602001603a63ffffffff168152602001605063ffffffff168152602001604163ffffffff168152602001605063ffffffff1681525081525090806001815401808255809150509060018203906000526020600020906007020160009091929091909150600082015181600001908051906020019062000e0d92919062003464565b5060208201518160010155604082015181600201908051906020019062000e3692919062003464565b50606082015181600301908051906020019062000e5592919062003464565b506080820151816004015560a08201518160050160006101000a81548160ff02191690831515021790555060c08201518160060160008201518160000160006101000a81548163ffffffff021916908363ffffffff16021790555060208201518160000160046101000a81548163ffffffff021916908363ffffffff16021790555060408201518160000160086101000a81548163ffffffff021916908363ffffffff160217905550606082015181600001600c6101000a81548163ffffffff021916908363ffffffff16021790555060808201518160000160106101000a81548163ffffffff021916908363ffffffff16021790555060a08201518160000160146101000a81548163ffffffff021916908363ffffffff160217905550505050505060036040518060e001604052806040518060400160405280600981526020017f43686172697a61726400000000000000000000000000000000000000000000008152508152602001600681526020016040518060400160405280600481526020017f466972650000000000000000000000000000000000000000000000000000000081525081526020016040518060400160405280600681526020017f466c79696e670000000000000000000000000000000000000000000000000000815250815260200161016e81526020016000151581526020016040518060c00160405280604e63ffffffff168152602001605463ffffffff168152602001604e63ffffffff168152602001606d63ffffffff168152602001605563ffffffff168152602001606463ffffffff16815250815250908060018154018082558091505090600182039060005260206000209060070201600090919290919091506000820151816000019080519060200190620010f192919062003464565b506020820151816001015560408201518160020190805190602001906200111a92919062003464565b5060608201518160030190805190602001906200113992919062003464565b506080820151816004015560a08201518160050160006101000a81548160ff02191690831515021790555060c08201518160060160008201518160000160006101000a81548163ffffffff021916908363ffffffff16021790555060208201518160000160046101000a81548163ffffffff021916908363ffffffff16021790555060408201518160000160086101000a81548163ffffffff021916908363ffffffff160217905550606082015181600001600c6101000a81548163ffffffff021916908363ffffffff16021790555060808201518160000160106101000a81548163ffffffff021916908363ffffffff16021790555060a08201518160000160146101000a81548163ffffffff021916908363ffffffff160217905550505050505060036040518060e001604052806040518060400160405280600881526020017f5371756972746c650000000000000000000000000000000000000000000000008152508152602001600781526020016040518060400160405280600581526020017f576174657200000000000000000000000000000000000000000000000000000081525081526020016040518060400160405280600381526020017f6e616e0000000000000000000000000000000000000000000000000000000000815250815260200161024a81526020016000151581526020016040518060c00160405280602c63ffffffff168152602001603063ffffffff168152602001604163ffffffff168152602001603263ffffffff168152602001604063ffffffff168152602001602b63ffffffff16815250815250908060018154018082558091505090600182039060005260206000209060070201600090919290919091506000820151816000019080519060200190620013d592919062003464565b50602082015181600101556040820151816002019080519060200190620013fe92919062003464565b5060608201518160030190805190602001906200141d92919062003464565b506080820151816004015560a08201518160050160006101000a81548160ff02191690831515021790555060c08201518160060160008201518160000160006101000a81548163ffffffff021916908363ffffffff16021790555060208201518160000160046101000a81548163ffffffff021916908363ffffffff16021790555060408201518160000160086101000a81548163ffffffff021916908363ffffffff160217905550606082015181600001600c6101000a81548163ffffffff021916908363ffffffff16021790555060808201518160000160106101000a81548163ffffffff021916908363ffffffff16021790555060a08201518160000160146101000a81548163ffffffff021916908363ffffffff160217905550505050505060036040518060e001604052806040518060400160405280600981526020017f576172746f72746c6500000000000000000000000000000000000000000000008152508152602001600881526020016040518060400160405280600581526020017f576174657200000000000000000000000000000000000000000000000000000081525081526020016040518060400160405280600381526020017f6e616e000000000000000000000000000000000000000000000000000000000081525081526020016101ef81526020016000151581526020016040518060c00160405280603b63ffffffff168152602001603f63ffffffff168152602001605063ffffffff168152602001604163ffffffff168152602001605063ffffffff168152602001603a63ffffffff16815250815250908060018154018082558091505090600182039060005260206000209060070201600090919290919091506000820151816000019080519060200190620016b992919062003464565b50602082015181600101556040820151816002019080519060200190620016e292919062003464565b5060608201518160030190805190602001906200170192919062003464565b506080820151816004015560a08201518160050160006101000a81548160ff02191690831515021790555060c08201518160060160008201518160000160006101000a81548163ffffffff021916908363ffffffff16021790555060208201518160000160046101000a81548163ffffffff021916908363ffffffff16021790555060408201518160000160086101000a81548163ffffffff021916908363ffffffff160217905550606082015181600001600c6101000a81548163ffffffff021916908363ffffffff16021790555060808201518160000160106101000a81548163ffffffff021916908363ffffffff16021790555060a08201518160000160146101000a81548163ffffffff021916908363ffffffff160217905550505050505060036040518060e001604052806040518060400160405280600981526020017f426c6173746f69736500000000000000000000000000000000000000000000008152508152602001600981526020016040518060400160405280600581526020017f576174657200000000000000000000000000000000000000000000000000000081525081526020016040518060400160405280600381526020017f6e616e0000000000000000000000000000000000000000000000000000000000815250815260200161017281526020016000151581526020016040518060c00160405280604f63ffffffff168152602001605363ffffffff168152602001606463ffffffff168152602001605563ffffffff168152602001606963ffffffff168152602001604e63ffffffff168152508152509080600181540180825580915050906001820390600052602060002090600702016000909192909190915060008201518160000190805190602001906200199d92919062003464565b50602082015181600101556040820151816002019080519060200190620019c692919062003464565b506060820151816003019080519060200190620019e592919062003464565b506080820151816004015560a08201518160050160006101000a81548160ff02191690831515021790555060c08201518160060160008201518160000160006101000a81548163ffffffff021916908363ffffffff16021790555060208201518160000160046101000a81548163ffffffff021916908363ffffffff16021790555060408201518160000160086101000a81548163ffffffff021916908363ffffffff160217905550606082015181600001600c6101000a81548163ffffffff021916908363ffffffff16021790555060808201518160000160106101000a81548163ffffffff021916908363ffffffff16021790555060a08201518160000160146101000a81548163ffffffff021916908363ffffffff160217905550505050505060036040518060e001604052806040518060400160405280600881526020017f43617465727069650000000000000000000000000000000000000000000000008152508152602001600a81526020016040518060400160405280600381526020017f427567000000000000000000000000000000000000000000000000000000000081525081526020016040518060400160405280600381526020017f6e616e000000000000000000000000000000000000000000000000000000000081525081526020016102c181526020016000151581526020016040518060c00160405280602d63ffffffff168152602001601e63ffffffff168152602001602363ffffffff168152602001601463ffffffff168152602001601463ffffffff168152602001602d63ffffffff1681525081525090806001815401808255809150509060018203906000526020600020906007020160009091929091909150600082015181600001908051906020019062001c8192919062003464565b5060208201518160010155604082015181600201908051906020019062001caa92919062003464565b50606082015181600301908051906020019062001cc992919062003464565b506080820151816004015560a08201518160050160006101000a81548160ff02191690831515021790555060c08201518160060160008201518160000160006101000a81548163ffffffff021916908363ffffffff16021790555060208201518160000160046101000a81548163ffffffff021916908363ffffffff16021790555060408201518160000160086101000a81548163ffffffff021916908363ffffffff160217905550606082015181600001600c6101000a81548163ffffffff021916908363ffffffff16021790555060808201518160000160106101000a81548163ffffffff021916908363ffffffff16021790555060a08201518160000160146101000a81548163ffffffff021916908363ffffffff1602179055505050505050565b600260016000600181526020019081526020016000208190555060036001600060028152602001908152602001600020819055506005600160006004815260200190815260200160002081905550600660016000600581526020019081526020016000208190555060086001600060078152602001908152602001600020819055506009600160006008815260200190815260200160002081905550600b60016000600a815260200190815260200160002081905550600c60016000600b815260200190815260200160002081905550600e60016000600d815260200190815260200160002081905550600f60016000600e81526020019081526020016000208190555060116001600060108152602001908152602001600020819055506012600160006011815260200190815260200160002081905550601460016000601381526020019081526020016000208190555060166001600060158152602001908152602001600020819055506018600160006017815260200190815260200160002081905550601a600160006019815260200190815260200160002081905550601c60016000601b815260200190815260200160002081905550601e60016000601d815260200190815260200160002081905550601f60016000601e81526020019081526020016000208190555060216001600060208152602001908152602001600020819055506022600160006021815260200190815260200160002081905550602460016000602381526020019081526020016000208190555060266001600060258152602001908152602001600020819055506028600160006027815260200190815260200160002081905550602a600160006029815260200190815260200160002081905550602c60016000602b815260200190815260200160002081905550602d60016000602c815260200190815260200160002081905550602f60016000602e81526020019081526020016000208190555060316001600060308152602001908152602001600020819055506033600160006032815260200190815260200160002081905550603560016000603481526020019081526020016000208190555060376001600060368152602001908152602001600020819055506039600160006038815260200190815260200160002081905550603b60016000603a815260200190815260200160002081905550603d60016000603c815260200190815260200160002081905550603e60016000603d815260200190815260200160002081905550604060016000603f815260200190815260200160002081905550604160016000604081526020019081526020016000208190555060436001600060428152602001908152602001600020819055506044600160006043815260200190815260200160002081905550604660016000604581526020019081526020016000208190555060476001600060468152602001908152602001600020819055506049600160006048815260200190815260200160002081905550604b60016000604a815260200190815260200160002081905550604c60016000604b815260200190815260200160002081905550604e60016000604d815260200190815260200160002081905550605060016000604f8152602001908152602001600020819055506052600160006051815260200190815260200160002081905550605560016000605481526020019081526020016000208190555060576001600060568152602001908152602001600020819055506059600160006058815260200190815260200160002081905550605b60016000605a815260200190815260200160002081905550605d60016000605c815260200190815260200160002081905550605e60016000605d81526020019081526020016000208190555060616001600060608152602001908152602001600020819055506063600160006062815260200190815260200160002081905550606560016000606481526020019081526020016000208190555060676001600060668152602001908152602001600020819055506069600160006068815260200190815260200160002081905550606e60016000606d815260200190815260200160002081905550607060016000606f81526020019081526020016000208190555060756001600060748152602001908152602001600020819055506077600160006076815260200190815260200160002081905550607960016000607881526020019081526020016000208190555060826001600060818152602001908152602001600020819055506086600160006085815260200190815260200160002081905550608b60016000608a815260200190815260200160002081905550608d60016000608c81526020019081526020016000208190555060946001600060938152602001908152602001600020819055506095600160006094815260200190815260200160002081905550565b600160026000600181526020019081526020016000208190555060016002600060028152602001908152602001600020819055506001600260006003815260200190815260200160002081905550600460026000600481526020019081526020016000208190555060046002600060058152602001908152602001600020819055506004600260006006815260200190815260200160002081905550600760026000600781526020019081526020016000208190555060076002600060088152602001908152602001600020819055506007600260006009815260200190815260200160002081905550600a60026000600a815260200190815260200160002081905550600a60026000600b815260200190815260200160002081905550600a60026000600c815260200190815260200160002081905550600d60026000600d815260200190815260200160002081905550600d60026000600e815260200190815260200160002081905550600d60026000600f8152602001908152602001600020819055506010600260006010815260200190815260200160002081905550601060026000601181526020019081526020016000208190555060106002600060128152602001908152602001600020819055506013600260006013815260200190815260200160002081905550601360026000601481526020019081526020016000208190555060156002600060158152602001908152602001600020819055506015600260006016815260200190815260200160002081905550601760026000601781526020019081526020016000208190555060176002600060188152602001908152602001600020819055506019600260006019815260200190815260200160002081905550601960026000601a815260200190815260200160002081905550601b60026000601b815260200190815260200160002081905550601b60026000601c815260200190815260200160002081905550601d60026000601d815260200190815260200160002081905550601d60026000601e815260200190815260200160002081905550601d60026000601f8152602001908152602001600020819055506020600260006020815260200190815260200160002081905550602060026000602181526020019081526020016000208190555060206002600060228152602001908152602001600020819055506023600260006023815260200190815260200160002081905550602360026000602481526020019081526020016000208190555060256002600060258152602001908152602001600020819055506025600260006026815260200190815260200160002081905550602760026000602781526020019081526020016000208190555060276002600060288152602001908152602001600020819055506029600260006029815260200190815260200160002081905550602960026000602a815260200190815260200160002081905550602b60026000602b815260200190815260200160002081905550602b60026000602c815260200190815260200160002081905550602b60026000602d815260200190815260200160002081905550602e60026000602e815260200190815260200160002081905550602e60026000602f8152602001908152602001600020819055506030600260006030815260200190815260200160002081905550603060026000603181526020019081526020016000208190555060326002600060328152602001908152602001600020819055506032600260006033815260200190815260200160002081905550603460026000603481526020019081526020016000208190555060346002600060358152602001908152602001600020819055506036600260006036815260200190815260200160002081905550603660026000603781526020019081526020016000208190555060386002600060388152602001908152602001600020819055506038600260006039815260200190815260200160002081905550603a60026000603a815260200190815260200160002081905550603a60026000603b815260200190815260200160002081905550603c60026000603c815260200190815260200160002081905550603c60026000603d815260200190815260200160002081905550603c60026000603e815260200190815260200160002081905550603f60026000603f815260200190815260200160002081905550603f600260006040815260200190815260200160002081905550603f60026000604181526020019081526020016000208190555060426002600060428152602001908152602001600020819055506042600260006043815260200190815260200160002081905550604260026000604481526020019081526020016000208190555060456002600060458152602001908152602001600020819055506045600260006046815260200190815260200160002081905550604560026000604781526020019081526020016000208190555060486002600060488152602001908152602001600020819055506048600260006049815260200190815260200160002081905550604a60026000604a815260200190815260200160002081905550604a60026000604b815260200190815260200160002081905550604a60026000604c815260200190815260200160002081905550604d60026000604d815260200190815260200160002081905550604d60026000604e815260200190815260200160002081905550604f60026000604f815260200190815260200160002081905550604f600260006050815260200190815260200160002081905550605160026000605181526020019081526020016000208190555060516002600060528152602001908152602001600020819055506053600260006053815260200190815260200160002081905550605460026000605481526020019081526020016000208190555060546002600060558152602001908152602001600020819055506056600260006056815260200190815260200160002081905550605660026000605781526020019081526020016000208190555060586002600060588152602001908152602001600020819055506058600260006059815260200190815260200160002081905550605a60026000605a815260200190815260200160002081905550605a60026000605b815260200190815260200160002081905550605c60026000605c815260200190815260200160002081905550605c60026000605d815260200190815260200160002081905550605c60026000605e815260200190815260200160002081905550605f60026000605f8152602001908152602001600020819055506060600260006060815260200190815260200160002081905550606060026000606181526020019081526020016000208190555060626002600060628152602001908152602001600020819055506062600260006063815260200190815260200160002081905550606460026000606481526020019081526020016000208190555060646002600060658152602001908152602001600020819055506066600260006066815260200190815260200160002081905550606660026000606781526020019081526020016000208190555060686002600060688152602001908152602001600020819055506068600260006069815260200190815260200160002081905550606a60026000606a815260200190815260200160002081905550606b60026000606b815260200190815260200160002081905550606c60026000606c815260200190815260200160002081905550606d60026000606d815260200190815260200160002081905550606d60026000606e815260200190815260200160002081905550606f60026000606f815260200190815260200160002081905550606f600260006070815260200190815260200160002081905550607160026000607181526020019081526020016000208190555060726002600060728152602001908152602001600020819055506073600260006073815260200190815260200160002081905550607460026000607481526020019081526020016000208190555060746002600060758152602001908152602001600020819055506076600260006076815260200190815260200160002081905550607660026000607781526020019081526020016000208190555060786002600060788152602001908152602001600020819055506078600260006079815260200190815260200160002081905550607a60026000607a815260200190815260200160002081905550607b60026000607b815260200190815260200160002081905550607c60026000607c815260200190815260200160002081905550607d60026000607d815260200190815260200160002081905550607e60026000607e815260200190815260200160002081905550607f60026000607f8152602001908152602001600020819055506080600260006080815260200190815260200160002081905550608160026000608181526020019081526020016000208190555060816002600060828152602001908152602001600020819055506083600260006083815260200190815260200160002081905550608460026000608481526020019081526020016000208190555060856002600060858152602001908152602001600020819055506085600260006086815260200190815260200160002081905550608760026000608781526020019081526020016000208190555060886002600060888152602001908152602001600020819055506089600260006089815260200190815260200160002081905550608a60026000608a815260200190815260200160002081905550608a60026000608b815260200190815260200160002081905550608c60026000608c815260200190815260200160002081905550608c60026000608d815260200190815260200160002081905550608e60026000608e815260200190815260200160002081905550608f60026000608f81526020019081526020016000208190555060906002600060908152602001908152602001600020819055506091600260006091815260200190815260200160002081905550609260026000609281526020019081526020016000208190555060936002600060938152602001908152602001600020819055506093600260006094815260200190815260200160002081905550609360026000609581526020019081526020016000208190555060966002600060968152602001908152602001600020819055506097600260006097815260200190815260200160002081905550565b828054600181600116156101000203166002900490600052602060002090601f016020900481019282601f10620034a757805160ff1916838001178555620034d8565b82800160010185558215620034d8579182015b82811115620034d7578251825591602001919060010190620034ba565b5b509050620034e79190620034eb565b5090565b6200351091905b808211156200350c576000816000905550600101620034f2565b5090565b90565b6108d980620035236000396000f3fe608060405234801561001057600080fd5b50600436106100625760003560e01c8063715018a61461006757806372f4295814610071578063835d75ab146101185780638da5cb5b146102a25780638f32d59b146102ec578063f2fde38b1461030e575b600080fd5b61006f610352565b005b61009d6004803603602081101561008757600080fd5b8101908080359060200190929190505050610422565b6040518080602001828103825283818151815260200191508051906020019080838360005b838110156100dd5780820151818401526020810190506100c2565b50505050905090810190601f16801561010a5780820380516001836020036101000a031916815260200191505b509250505060405180910390f35b6101446004803603602081101561012e57600080fd5b81019080803590602001909291905050506104e5565b6040518080602001806020018060200185151515158152602001848103845288818151815260200191508051906020019080838360005b8381101561019657808201518184015260208101905061017b565b50505050905090810190601f1680156101c35780820380516001836020036101000a031916815260200191505b50848103835287818151815260200191508051906020019080838360005b838110156101fc5780820151818401526020810190506101e1565b50505050905090810190601f1680156102295780820380516001836020036101000a031916815260200191505b50848103825286818151815260200191508051906020019080838360005b83811015610262578082015181840152602081019050610247565b50505050905090810190601f16801561028f5780820380516001836020036101000a031916815260200191505b5097505050505050505060405180910390f35b6102aa61070f565b604051808273ffffffffffffffffffffffffffffffffffffffff1673ffffffffffffffffffffffffffffffffffffffff16815260200191505060405180910390f35b6102f4610738565b604051808215151515815260200191505060405180910390f35b6103506004803603602081101561032457600080fd5b81019080803573ffffffffffffffffffffffffffffffffffffffff16906020019092919050505061078f565b005b61035a610738565b61036357600080fd5b600073ffffffffffffffffffffffffffffffffffffffff166000809054906101000a900473ffffffffffffffffffffffffffffffffffffffff1673ffffffffffffffffffffffffffffffffffffffff167f8be0079c531659141344cd1fd0a4f28419497f9722a3daafe3b4186f6b6457e060405160405180910390a360008060006101000a81548173ffffffffffffffffffffffffffffffffffffffff021916908373ffffffffffffffffffffffffffffffffffffffff160217905550565b60606003600183038154811061043457fe5b90600052602060002090600702016000018054600181600116156101000203166002900480601f0160208091040260200160405190810160405280929190818152602001828054600181600116156101000203166002900480156104d95780601f106104ae576101008083540402835291602001916104d9565b820191906000526020600020905b8154815290600101906020018083116104bc57829003601f168201915b50505050509050919050565b6060806060600080600360018703815481106104fd57fe5b906000526020600020906007020190508060000181600201826003018360050160009054906101000a900460ff16838054600181600116156101000203166002900480601f0160208091040260200160405190810160405280929190818152602001828054600181600116156101000203166002900480156105c05780601f10610595576101008083540402835291602001916105c0565b820191906000526020600020905b8154815290600101906020018083116105a357829003601f168201915b50505050509350828054600181600116156101000203166002900480601f01602080910402602001604051908101604052809291908181526020018280546001816001161561010002031660029004801561065c5780601f106106315761010080835404028352916020019161065c565b820191906000526020600020905b81548152906001019060200180831161063f57829003601f168201915b50505050509250818054600181600116156101000203166002900480601f0160208091040260200160405190810160405280929190818152602001828054600181600116156101000203166002900480156106f85780601f106106cd576101008083540402835291602001916106f8565b820191906000526020600020905b8154815290600101906020018083116106db57829003601f168201915b505050505091509450945094509450509193509193565b60008060009054906101000a900473ffffffffffffffffffffffffffffffffffffffff16905090565b60008060009054906101000a900473ffffffffffffffffffffffffffffffffffffffff1673ffffffffffffffffffffffffffffffffffffffff163373ffffffffffffffffffffffffffffffffffffffff1614905090565b610797610738565b6107a057600080fd5b6107a9816107ac565b50565b600073ffffffffffffffffffffffffffffffffffffffff168173ffffffffffffffffffffffffffffffffffffffff1614156107e657600080fd5b8073ffffffffffffffffffffffffffffffffffffffff166000809054906101000a900473ffffffffffffffffffffffffffffffffffffffff1673ffffffffffffffffffffffffffffffffffffffff167f8be0079c531659141344cd1fd0a4f28419497f9722a3daafe3b4186f6b6457e060405160405180910390a3806000806101000a81548173ffffffffffffffffffffffffffffffffffffffff021916908373ffffffffffffffffffffffffffffffffffffffff1602179055505056fea265627a7a72315820b2f2bff180b5dfb02ab4cd275a1e6365d1c94b10177ed8a0c472e2cf7fa1184e64736f6c63430005100032",
  "source": "pragma solidity >=0.5.0 <0.6.0;\n\nimport \"./Ownable.sol\";\n\ncontract Base is Ownable {\n\t\n\tstruct BaseStats {\n\t\tuint32 hp;\n\t\tuint32 attack;\n\t\tuint32 defense;\n\t\tuint32 specialAttack;\n\t\tuint32 specialDefense;\n\t\tuint32 speed;\n\t}\n\n\tstruct BasePokemon {\n\t\tstring name;\n\t\tuint number;\n\t\tstring type1;\n\t\tstring type2;\n\t\tuint catch_rate;\n\t\tbool legendary;\n\t\tBaseStats stats;\n\t}\n\n\tmapping (uint => uint) internal evolution;\n\tmapping (uint => uint) internal origin;\n\tBasePokemon[] basePokemons;\n\n    function getPokemonName(uint pokemonNumber) public view returns (string memory){\n        return basePokemons[pokemonNumber-1].name;\n    }\n\n    function getBasicPokemonInfo(uint pokemonNumber) public view returns (string memory, string memory, string memory, bool) {\n    \tBasePokemon storage basePokemon = basePokemons[pokemonNumber-1];\n    \treturn (basePokemon.name, basePokemon.type1, basePokemon.type2, basePokemon.legendary);\n    }\n\n\tconstructor() public {\n\t\t_addBasePokemons();\n\t\t_addEvolutions();\n\t\t_addOrigins();\n\t}\n\n\tfunction _addBasePokemons() private {\n\t\tbasePokemons.push(BasePokemon(\"Bulbasaur\", 1, \"Grass\", \"Poison\", 582, false, BaseStats(45, 49, 49, 65, 65, 45)));\n\t\tbasePokemons.push(BasePokemon(\"Ivysaur\", 2, \"Grass\", \"Poison\", 495, false, BaseStats(60, 62, 63, 80, 80, 60)));\n\t\tbasePokemons.push(BasePokemon(\"Venusaur\", 3, \"Grass\", \"Poison\", 375, false, BaseStats(80, 82, 83, 100, 100, 80)));\n\t\tbasePokemons.push(BasePokemon(\"Charmander\", 4, \"Fire\", \"nan\", 591, false, BaseStats(39, 52, 43, 60, 50, 65)));\n\t\tbasePokemons.push(BasePokemon(\"Charmeleon\", 5, \"Fire\", \"nan\", 495, false, BaseStats(58, 64, 58, 80, 65, 80)));\n\t\tbasePokemons.push(BasePokemon(\"Charizard\", 6, \"Fire\", \"Flying\", 366, false, BaseStats(78, 84, 78, 109, 85, 100)));\n\t\tbasePokemons.push(BasePokemon(\"Squirtle\", 7, \"Water\", \"nan\", 586, false, BaseStats(44, 48, 65, 50, 64, 43)));\n\t\tbasePokemons.push(BasePokemon(\"Wartortle\", 8, \"Water\", \"nan\", 495, false, BaseStats(59, 63, 80, 65, 80, 58)));\n\t\tbasePokemons.push(BasePokemon(\"Blastoise\", 9, \"Water\", \"nan\", 370, false, BaseStats(79, 83, 100, 85, 105, 78)));\n\t\tbasePokemons.push(BasePokemon(\"Caterpie\", 10, \"Bug\", \"nan\", 705, false, BaseStats(45, 30, 35, 20, 20, 45)));\n\t\t// basePokemons.push(BasePokemon(\"Metapod\", 11, \"Bug\", \"nan\", 695, false, BaseStats(50, 20, 55, 25, 25, 30)));\n\t\t// basePokemons.push(BasePokemon(\"Butterfree\", 12, \"Bug\", \"Flying\", 505, false, BaseStats(60, 45, 50, 90, 80, 70)));\n\t\t// basePokemons.push(BasePokemon(\"Weedle\", 13, \"Bug\", \"Poison\", 705, false, BaseStats(40, 35, 30, 20, 20, 50)));\n\t\t// basePokemons.push(BasePokemon(\"Kakuna\", 14, \"Bug\", \"Poison\", 695, false, BaseStats(45, 25, 50, 25, 25, 35)));\n\t\t// basePokemons.push(BasePokemon(\"Beedrill\", 15, \"Bug\", \"Poison\", 505, false, BaseStats(65, 90, 40, 45, 80, 75)));\n\t\t// basePokemons.push(BasePokemon(\"Pidgey\", 16, \"Normal\", \"Flying\", 649, false, BaseStats(40, 45, 40, 35, 35, 56)));\n\t\t// basePokemons.push(BasePokemon(\"Pidgeotto\", 17, \"Normal\", \"Flying\", 551, false, BaseStats(63, 60, 55, 50, 50, 71)));\n\t\t// basePokemons.push(BasePokemon(\"Pidgeot\", 18, \"Normal\", \"Flying\", 421, false, BaseStats(83, 80, 75, 70, 70, 101)));\n\t\t// basePokemons.push(BasePokemon(\"Rattata\", 19, \"Normal\", \"nan\", 647, false, BaseStats(30, 56, 35, 25, 35, 72)));\n\t\t// basePokemons.push(BasePokemon(\"Raticate\", 20, \"Normal\", \"nan\", 487, false, BaseStats(55, 81, 60, 50, 70, 97)));\n\t\t// basePokemons.push(BasePokemon(\"Spearow\", 21, \"Normal\", \"Flying\", 638, false, BaseStats(40, 60, 30, 31, 31, 70)));\n\t\t// basePokemons.push(BasePokemon(\"Fearow\", 22, \"Normal\", \"Flying\", 458, false, BaseStats(65, 90, 65, 61, 61, 100)));\n\t\t// basePokemons.push(BasePokemon(\"Ekans\", 23, \"Poison\", \"nan\", 612, false, BaseStats(35, 60, 44, 40, 54, 55)));\n\t\t// basePokemons.push(BasePokemon(\"Arbok\", 24, \"Poison\", \"nan\", 462, false, BaseStats(60, 85, 69, 65, 79, 80)));\n\t\t// basePokemons.push(BasePokemon(\"Pikachu\", 25, \"Electric\", \"nan\", 580, false, BaseStats(35, 55, 40, 50, 50, 90)));\n\t\t// basePokemons.push(BasePokemon(\"Raichu\", 26, \"Electric\", \"nan\", 415, false, BaseStats(60, 90, 55, 90, 80, 110)));\n\t\t// basePokemons.push(BasePokemon(\"Sandshrew\", 27, \"Ground\", \"nan\", 600, false, BaseStats(50, 75, 85, 20, 30, 40)));\n\t\t// basePokemons.push(BasePokemon(\"Sandslash\", 28, \"Ground\", \"nan\", 450, false, BaseStats(75, 100, 110, 45, 55, 65)));\n\t\t// basePokemons.push(BasePokemon(\"Nidoran\", 29, \"Poison\", \"nan\", 625, false, BaseStats(55, 47, 52, 40, 40, 41)));\n\t\t// basePokemons.push(BasePokemon(\"Nidorina\", 30, \"Poison\", \"nan\", 535, false, BaseStats(70, 62, 67, 55, 55, 56)));\n\t\t// basePokemons.push(BasePokemon(\"Nidoqueen\", 31, \"Poison\", \"Ground\", 395, false, BaseStats(90, 92, 87, 75, 85, 76)));\n\t\t// basePokemons.push(BasePokemon(\"Nidoran\", 32, \"Poison\", \"nan\", 627, false, BaseStats(46, 57, 40, 40, 40, 50)));\n\t\t// basePokemons.push(BasePokemon(\"Nidorino\", 33, \"Poison\", \"nan\", 535, false, BaseStats(61, 72, 57, 55, 55, 65)));\n\t\t// basePokemons.push(BasePokemon(\"Nidoking\", 34, \"Poison\", \"Ground\", 395, false, BaseStats(81, 102, 77, 85, 75, 85)));\n\t\t// basePokemons.push(BasePokemon(\"Clefairy\", 35, \"Fairy\", \"nan\", 577, false, BaseStats(70, 45, 48, 60, 65, 35)));\n\t\t// basePokemons.push(BasePokemon(\"Clefable\", 36, \"Fairy\", \"nan\", 417, false, BaseStats(95, 70, 73, 95, 90, 60)));\n\t\t// basePokemons.push(BasePokemon(\"Vulpix\", 37, \"Fire\", \"nan\", 601, false, BaseStats(38, 41, 40, 50, 65, 65)));\n\t\t// basePokemons.push(BasePokemon(\"Ninetales\", 38, \"Fire\", \"nan\", 395, false, BaseStats(73, 76, 75, 81, 100, 100)));\n\t\t// basePokemons.push(BasePokemon(\"Jigglypuff\", 39, \"Normal\", \"Fairy\", 630, false, BaseStats(115, 45, 20, 45, 25, 20)));\n\t\t// basePokemons.push(BasePokemon(\"Wigglytuff\", 40, \"Normal\", \"Fairy\", 465, false, BaseStats(140, 70, 45, 85, 50, 45)));\n\t\t// basePokemons.push(BasePokemon(\"Zubat\", 41, \"Poison\", \"Flying\", 655, false, BaseStats(40, 45, 35, 30, 40, 55)));\n\t\t// basePokemons.push(BasePokemon(\"Golbat\", 42, \"Poison\", \"Flying\", 445, false, BaseStats(75, 80, 70, 65, 75, 90)));\n\t\t// basePokemons.push(BasePokemon(\"Oddish\", 43, \"Grass\", \"Poison\", 580, false, BaseStats(45, 50, 55, 75, 65, 30)));\n\t\t// basePokemons.push(BasePokemon(\"Gloom\", 44, \"Grass\", \"Poison\", 505, false, BaseStats(60, 65, 70, 85, 75, 40)));\n\t\t// basePokemons.push(BasePokemon(\"Vileplume\", 45, \"Grass\", \"Poison\", 410, false, BaseStats(75, 80, 85, 110, 90, 50)));\n\t\t// basePokemons.push(BasePokemon(\"Paras\", 46, \"Bug\", \"Grass\", 615, false, BaseStats(35, 70, 55, 45, 55, 25)));\n\t\t// basePokemons.push(BasePokemon(\"Parasect\", 47, \"Bug\", \"Grass\", 495, false, BaseStats(60, 95, 80, 60, 80, 30)));\n\t\t// basePokemons.push(BasePokemon(\"Venonat\", 48, \"Bug\", \"Poison\", 595, false, BaseStats(60, 55, 50, 40, 55, 45)));\n\t\t// basePokemons.push(BasePokemon(\"Venomoth\", 49, \"Bug\", \"Poison\", 450, false, BaseStats(70, 65, 60, 90, 75, 90)));\n\t\t// basePokemons.push(BasePokemon(\"Diglett\", 50, \"Ground\", \"nan\", 635, false, BaseStats(10, 55, 25, 35, 45, 95)));\n\t\t// basePokemons.push(BasePokemon(\"Dugtrio\", 51, \"Ground\", \"nan\", 495, false, BaseStats(35, 80, 50, 50, 70, 120)));\n\t\t// basePokemons.push(BasePokemon(\"Meowth\", 52, \"Normal\", \"nan\", 610, false, BaseStats(40, 45, 35, 40, 40, 90)));\n\t\t// basePokemons.push(BasePokemon(\"Persian\", 53, \"Normal\", \"nan\", 460, false, BaseStats(65, 70, 60, 65, 65, 115)));\n\t\t// basePokemons.push(BasePokemon(\"Psyduck\", 54, \"Water\", \"nan\", 580, false, BaseStats(50, 52, 48, 65, 50, 55)));\n\t\t// basePokemons.push(BasePokemon(\"Golduck\", 55, \"Water\", \"nan\", 400, false, BaseStats(80, 82, 78, 95, 80, 85)));\n\t\t// basePokemons.push(BasePokemon(\"Mankey\", 56, \"Fighting\", \"nan\", 595, false, BaseStats(40, 80, 35, 35, 45, 70)));\n\t\t// basePokemons.push(BasePokemon(\"Primeape\", 57, \"Fighting\", \"nan\", 445, false, BaseStats(65, 105, 60, 60, 70, 95)));\n\t\t// basePokemons.push(BasePokemon(\"Growlithe\", 58, \"Fire\", \"nan\", 550, false, BaseStats(55, 70, 45, 70, 50, 60)));\n\t\t// basePokemons.push(BasePokemon(\"Arcanine\", 59, \"Fire\", \"nan\", 345, false, BaseStats(90, 110, 80, 100, 80, 95)));\n\t\t// basePokemons.push(BasePokemon(\"Poliwag\", 60, \"Water\", \"nan\", 600, false, BaseStats(40, 50, 40, 40, 40, 90)));\n\t\t// basePokemons.push(BasePokemon(\"Poliwhirl\", 61, \"Water\", \"nan\", 515, false, BaseStats(65, 65, 65, 50, 50, 90)));\n\t\t// basePokemons.push(BasePokemon(\"Poliwrath\", 62, \"Water\", \"Fighting\", 390, false, BaseStats(90, 95, 95, 70, 90, 70)));\n\t\t// basePokemons.push(BasePokemon(\"Abra\", 63, \"Psychic\", \"nan\", 590, false, BaseStats(25, 20, 15, 105, 55, 90)));\n\t\t// basePokemons.push(BasePokemon(\"Kadabra\", 64, \"Psychic\", \"nan\", 500, false, BaseStats(40, 35, 30, 120, 70, 105)));\n\t\t// basePokemons.push(BasePokemon(\"Alakazam\", 65, \"Psychic\", \"nan\", 400, false, BaseStats(55, 50, 45, 135, 95, 120)));\n\t\t// basePokemons.push(BasePokemon(\"Machop\", 66, \"Fighting\", \"nan\", 595, false, BaseStats(70, 80, 50, 35, 35, 35)));\n\t\t// basePokemons.push(BasePokemon(\"Machoke\", 67, \"Fighting\", \"nan\", 495, false, BaseStats(80, 100, 70, 50, 60, 45)));\n\t\t// basePokemons.push(BasePokemon(\"Machamp\", 68, \"Fighting\", \"nan\", 395, false, BaseStats(90, 130, 80, 65, 85, 55)));\n\t\t// basePokemons.push(BasePokemon(\"Bellsprout\", 69, \"Grass\", \"Poison\", 600, false, BaseStats(50, 75, 35, 70, 30, 40)));\n\t\t// basePokemons.push(BasePokemon(\"Weepinbell\", 70, \"Grass\", \"Poison\", 510, false, BaseStats(65, 90, 50, 85, 45, 55)));\n\t\t// basePokemons.push(BasePokemon(\"Victreebel\", 71, \"Grass\", \"Poison\", 410, false, BaseStats(80, 105, 65, 100, 70, 70)));\n\t\t// basePokemons.push(BasePokemon(\"Tentacool\", 72, \"Water\", \"Poison\", 565, false, BaseStats(40, 40, 35, 50, 100, 70)));\n\t\t// basePokemons.push(BasePokemon(\"Tentacruel\", 73, \"Water\", \"Poison\", 385, false, BaseStats(80, 70, 65, 80, 120, 100)));\n\t\t// basePokemons.push(BasePokemon(\"Geodude\", 74, \"Rock\", \"Ground\", 600, false, BaseStats(40, 80, 100, 30, 30, 20)));\n\t\t// basePokemons.push(BasePokemon(\"Graveler\", 75, \"Rock\", \"Ground\", 510, false, BaseStats(55, 95, 115, 45, 45, 35)));\n\t\t// basePokemons.push(BasePokemon(\"Golem\", 76, \"Rock\", \"Ground\", 405, false, BaseStats(80, 120, 130, 55, 65, 45)));\n\t\t// basePokemons.push(BasePokemon(\"Ponyta\", 77, \"Fire\", \"nan\", 490, false, BaseStats(50, 85, 55, 65, 65, 90)));\n\t\t// basePokemons.push(BasePokemon(\"Rapidash\", 78, \"Fire\", \"nan\", 400, false, BaseStats(65, 100, 70, 80, 80, 105)));\n\t\t// basePokemons.push(BasePokemon(\"Slowpoke\", 79, \"Water\", \"Psychic\", 585, false, BaseStats(90, 65, 65, 40, 40, 15)));\n\t\t// basePokemons.push(BasePokemon(\"Slowbro\", 80, \"Water\", \"Psychic\", 410, false, BaseStats(95, 75, 110, 100, 80, 30)));\n\t\t// basePokemons.push(BasePokemon(\"Magnemite\", 81, \"Electric\", \"Steel\", 575, false, BaseStats(25, 35, 70, 95, 55, 45)));\n\t\t// basePokemons.push(BasePokemon(\"Magneton\", 82, \"Electric\", \"Steel\", 435, false, BaseStats(50, 60, 95, 120, 70, 70)));\n\t\t// basePokemons.push(BasePokemon(\"Farfetch'd\", 83, \"Normal\", \"Flying\", 548, false, BaseStats(52, 65, 55, 58, 62, 60)));\n\t\t// basePokemons.push(BasePokemon(\"Doduo\", 84, \"Normal\", \"Flying\", 590, false, BaseStats(35, 85, 45, 35, 35, 75)));\n\t\t// basePokemons.push(BasePokemon(\"Dodrio\", 85, \"Normal\", \"Flying\", 440, false, BaseStats(60, 110, 70, 60, 60, 100)));\n\t\t// basePokemons.push(BasePokemon(\"Seel\", 86, \"Water\", \"nan\", 575, false, BaseStats(65, 45, 55, 45, 70, 45)));\n\t\t// basePokemons.push(BasePokemon(\"Dewgong\", 87, \"Water\", \"Ice\", 425, false, BaseStats(90, 70, 80, 70, 95, 70)));\n\t\t// basePokemons.push(BasePokemon(\"Grimer\", 88, \"Poison\", \"nan\", 575, false, BaseStats(80, 80, 50, 40, 50, 25)));\n\t\t// basePokemons.push(BasePokemon(\"Muk\", 89, \"Poison\", \"nan\", 400, false, BaseStats(105, 105, 75, 65, 100, 50)));\n\t\t// basePokemons.push(BasePokemon(\"Shellder\", 90, \"Water\", \"nan\", 595, false, BaseStats(30, 65, 100, 45, 25, 40)));\n\t\t// basePokemons.push(BasePokemon(\"Cloyster\", 91, \"Water\", \"Ice\", 375, false, BaseStats(50, 95, 180, 85, 45, 70)));\n\t\t// basePokemons.push(BasePokemon(\"Gastly\", 92, \"Ghost\", \"Poison\", 590, false, BaseStats(30, 35, 30, 100, 35, 80)));\n\t\t// basePokemons.push(BasePokemon(\"Haunter\", 93, \"Ghost\", \"Poison\", 495, false, BaseStats(45, 50, 45, 115, 55, 95)));\n\t\t// basePokemons.push(BasePokemon(\"Gengar\", 94, \"Ghost\", \"Poison\", 400, false, BaseStats(60, 65, 60, 130, 75, 110)));\n\t\t// basePokemons.push(BasePokemon(\"Onix\", 95, \"Rock\", \"Ground\", 515, false, BaseStats(35, 45, 160, 30, 45, 70)));\n\t\t// basePokemons.push(BasePokemon(\"Drowzee\", 96, \"Psychic\", \"nan\", 572, false, BaseStats(60, 48, 45, 43, 90, 42)));\n\t\t// basePokemons.push(BasePokemon(\"Hypno\", 97, \"Psychic\", \"nan\", 417, false, BaseStats(85, 73, 70, 73, 115, 67)));\n\t\t// basePokemons.push(BasePokemon(\"Krabby\", 98, \"Water\", \"nan\", 575, false, BaseStats(30, 105, 90, 25, 25, 50)));\n\t\t// basePokemons.push(BasePokemon(\"Kingler\", 99, \"Water\", \"nan\", 425, false, BaseStats(55, 130, 115, 50, 50, 75)));\n\t\t// basePokemons.push(BasePokemon(\"Voltorb\", 100, \"Electric\", \"nan\", 570, false, BaseStats(40, 30, 50, 55, 55, 100)));\n\t\t// basePokemons.push(BasePokemon(\"Electrode\", 101, \"Electric\", \"nan\", 420, false, BaseStats(60, 50, 70, 80, 80, 140)));\n\t\t// basePokemons.push(BasePokemon(\"Exeggcute\", 102, \"Grass\", \"Psychic\", 575, false, BaseStats(60, 40, 80, 60, 45, 40)));\n\t\t// basePokemons.push(BasePokemon(\"Exeggutor\", 103, \"Grass\", \"Psychic\", 380, false, BaseStats(95, 95, 85, 125, 65, 55)));\n\t\t// basePokemons.push(BasePokemon(\"Cubone\", 104, \"Ground\", \"nan\", 580, false, BaseStats(50, 50, 95, 40, 50, 35)));\n\t\t// basePokemons.push(BasePokemon(\"Marowak\", 105, \"Ground\", \"nan\", 475, false, BaseStats(60, 80, 110, 50, 80, 45)));\n\t\t// basePokemons.push(BasePokemon(\"Hitmonlee\", 106, \"Fighting\", \"nan\", 445, false, BaseStats(50, 120, 53, 35, 110, 87)));\n\t\t// basePokemons.push(BasePokemon(\"Hitmonchan\", 107, \"Fighting\", \"nan\", 445, false, BaseStats(50, 105, 79, 35, 110, 76)));\n\t\t// basePokemons.push(BasePokemon(\"Lickitung\", 108, \"Normal\", \"nan\", 515, false, BaseStats(90, 55, 75, 60, 75, 30)));\n\t\t// basePokemons.push(BasePokemon(\"Koffing\", 109, \"Poison\", \"nan\", 560, false, BaseStats(40, 65, 95, 60, 45, 35)));\n\t\t// basePokemons.push(BasePokemon(\"Weezing\", 110, \"Poison\", \"nan\", 410, false, BaseStats(65, 90, 120, 85, 70, 60)));\n\t\t// basePokemons.push(BasePokemon(\"Rhyhorn\", 111, \"Ground\", \"Rock\", 555, false, BaseStats(80, 85, 95, 30, 30, 25)));\n\t\t// basePokemons.push(BasePokemon(\"Rhydon\", 112, \"Ground\", \"Rock\", 415, false, BaseStats(105, 130, 120, 45, 45, 40)));\n\t\t// basePokemons.push(BasePokemon(\"Chansey\", 113, \"Normal\", \"nan\", 450, false, BaseStats(250, 5, 5, 35, 105, 50)));\n\t\t// basePokemons.push(BasePokemon(\"Tangela\", 114, \"Grass\", \"nan\", 465, false, BaseStats(65, 55, 115, 100, 40, 60)));\n\t\t// basePokemons.push(BasePokemon(\"Kangaskhan\", 115, \"Normal\", \"nan\", 410, false, BaseStats(105, 95, 80, 40, 80, 90)));\n\t\t// basePokemons.push(BasePokemon(\"Horsea\", 116, \"Water\", \"nan\", 605, false, BaseStats(30, 40, 70, 70, 25, 60)));\n\t\t// basePokemons.push(BasePokemon(\"Seadra\", 117, \"Water\", \"nan\", 460, false, BaseStats(55, 65, 95, 95, 45, 85)));\n\t\t// basePokemons.push(BasePokemon(\"Goldeen\", 118, \"Water\", \"nan\", 580, false, BaseStats(45, 67, 60, 35, 50, 63)));\n\t\t// basePokemons.push(BasePokemon(\"Seaking\", 119, \"Water\", \"nan\", 450, false, BaseStats(80, 92, 65, 65, 80, 68)));\n\t\t// basePokemons.push(BasePokemon(\"Staryu\", 120, \"Water\", \"nan\", 560, false, BaseStats(30, 45, 55, 70, 55, 85)));\n\t\t// basePokemons.push(BasePokemon(\"Starmie\", 121, \"Water\", \"Psychic\", 380, false, BaseStats(60, 75, 85, 100, 85, 115)));\n\t\t// basePokemons.push(BasePokemon(\"Mr. Mime\", 122, \"Psychic\", \"Fairy\", 440, false, BaseStats(40, 45, 65, 100, 120, 90)));\n\t\t// basePokemons.push(BasePokemon(\"Scyther\", 123, \"Bug\", \"Flying\", 400, false, BaseStats(70, 110, 80, 55, 80, 105)));\n\t\t// basePokemons.push(BasePokemon(\"Jynx\", 124, \"Ice\", \"Psychic\", 445, false, BaseStats(65, 50, 35, 115, 95, 95)));\n\t\t// basePokemons.push(BasePokemon(\"Electabuzz\", 125, \"Electric\", \"nan\", 410, false, BaseStats(65, 83, 57, 95, 85, 105)));\n\t\t// basePokemons.push(BasePokemon(\"Magmar\", 126, \"Fire\", \"nan\", 405, false, BaseStats(65, 95, 57, 100, 85, 93)));\n\t\t// basePokemons.push(BasePokemon(\"Pinsir\", 127, \"Bug\", \"nan\", 400, false, BaseStats(65, 125, 100, 55, 70, 85)));\n\t\t// basePokemons.push(BasePokemon(\"Tauros\", 128, \"Normal\", \"nan\", 410, false, BaseStats(75, 100, 95, 40, 70, 110)));\n\t\t// basePokemons.push(BasePokemon(\"Magikarp\", 129, \"Water\", \"nan\", 700, false, BaseStats(20, 10, 55, 15, 20, 80)));\n\t\t// basePokemons.push(BasePokemon(\"Gyarados\", 130, \"Water\", \"Flying\", 360, false, BaseStats(95, 125, 79, 60, 100, 81)));\n\t\t// basePokemons.push(BasePokemon(\"Lapras\", 131, \"Water\", \"Ice\", 365, false, BaseStats(130, 85, 80, 85, 95, 60)));\n\t\t// basePokemons.push(BasePokemon(\"Ditto\", 132, \"Normal\", \"nan\", 612, false, BaseStats(48, 48, 48, 48, 48, 48)));\n\t\t// basePokemons.push(BasePokemon(\"Eevee\", 133, \"Normal\", \"nan\", 575, false, BaseStats(55, 55, 50, 45, 65, 55)));\n\t\t// basePokemons.push(BasePokemon(\"Vaporeon\", 134, \"Water\", \"nan\", 375, false, BaseStats(130, 65, 60, 110, 95, 65)));\n\t\t// basePokemons.push(BasePokemon(\"Jolteon\", 135, \"Electric\", \"nan\", 375, false, BaseStats(65, 65, 60, 110, 95, 130)));\n\t\t// basePokemons.push(BasePokemon(\"Flareon\", 136, \"Fire\", \"nan\", 375, false, BaseStats(65, 130, 60, 95, 110, 65)));\n\t\t// basePokemons.push(BasePokemon(\"Porygon\", 137, \"Normal\", \"nan\", 505, false, BaseStats(65, 60, 70, 85, 75, 40)));\n\t\t// basePokemons.push(BasePokemon(\"Omanyte\", 138, \"Rock\", \"Water\", 545, false, BaseStats(35, 40, 100, 90, 55, 35)));\n\t\t// basePokemons.push(BasePokemon(\"Omastar\", 139, \"Rock\", \"Water\", 405, false, BaseStats(70, 60, 125, 115, 70, 55)));\n\t\t// basePokemons.push(BasePokemon(\"Kabuto\", 140, \"Rock\", \"Water\", 545, false, BaseStats(30, 80, 90, 55, 45, 55)));\n\t\t// basePokemons.push(BasePokemon(\"Kabutops\", 141, \"Rock\", \"Water\", 405, false, BaseStats(60, 115, 105, 65, 70, 80)));\n\t\t// basePokemons.push(BasePokemon(\"Aerodactyl\", 142, \"Rock\", \"Flying\", 385, false, BaseStats(80, 105, 65, 60, 75, 130)));\n\t\t// basePokemons.push(BasePokemon(\"Snorlax\", 143, \"Normal\", \"nan\", 360, false, BaseStats(160, 110, 65, 65, 110, 30)));\n\t\t// basePokemons.push(BasePokemon(\"Articuno\", 144, \"Ice\", \"Flying\", 320, true, BaseStats(90, 85, 100, 95, 125, 85)));\n\t\t// basePokemons.push(BasePokemon(\"Zapdos\", 145, \"Electric\", \"Flying\", 320, true, BaseStats(90, 90, 85, 125, 90, 100)));\n\t\t// basePokemons.push(BasePokemon(\"Moltres\", 146, \"Fire\", \"Flying\", 320, true, BaseStats(90, 100, 90, 125, 85, 90)));\n\t\t// basePokemons.push(BasePokemon(\"Dratini\", 147, \"Dragon\", \"nan\", 600, false, BaseStats(41, 64, 45, 50, 50, 50)));\n\t\t// basePokemons.push(BasePokemon(\"Dragonair\", 148, \"Dragon\", \"nan\", 480, false, BaseStats(61, 84, 65, 70, 70, 70)));\n\t\t// basePokemons.push(BasePokemon(\"Dragonite\", 149, \"Dragon\", \"Flying\", 300, false, BaseStats(91, 134, 95, 100, 100, 80)));\n\t\t// basePokemons.push(BasePokemon(\"Mewtwo\", 150, \"Psychic\", \"nan\", 220, true, BaseStats(106, 110, 90, 154, 90, 130)));\n\t\t// basePokemons.push(BasePokemon(\"Mew\", 151, \"Psychic\", \"nan\", 300, false, BaseStats(100, 100, 100, 100, 100, 100)));\n\t}\n\n\tfunction _addEvolutions() private {\n\t\tevolution[1] = 2;\n\t\tevolution[2] = 3;\n\t\tevolution[4] = 5;\n\t\tevolution[5] = 6;\n\t\tevolution[7] = 8;\n\t\tevolution[8] = 9;\n\t\tevolution[10] = 11;\n\t\tevolution[11] = 12;\n\t\tevolution[13] = 14;\n\t\tevolution[14] = 15;\n\t\tevolution[16] = 17;\n\t\tevolution[17] = 18;\n\t\tevolution[19] = 20;\n\t\tevolution[21] = 22;\n\t\tevolution[23] = 24;\n\t\tevolution[25] = 26;\n\t\tevolution[27] = 28;\n\t\tevolution[29] = 30;\n\t\tevolution[30] = 31;\n\t\tevolution[32] = 33;\n\t\tevolution[33] = 34;\n\t\tevolution[35] = 36;\n\t\tevolution[37] = 38;\n\t\tevolution[39] = 40;\n\t\tevolution[41] = 42;\n\t\tevolution[43] = 44;\n\t\tevolution[44] = 45;\n\t\tevolution[46] = 47;\n\t\tevolution[48] = 49;\n\t\tevolution[50] = 51;\n\t\tevolution[52] = 53;\n\t\tevolution[54] = 55;\n\t\tevolution[56] = 57;\n\t\tevolution[58] = 59;\n\t\tevolution[60] = 61;\n\t\tevolution[61] = 62;\n\t\tevolution[63] = 64;\n\t\tevolution[64] = 65;\n\t\tevolution[66] = 67;\n\t\tevolution[67] = 68;\n\t\tevolution[69] = 70;\n\t\tevolution[70] = 71;\n\t\tevolution[72] = 73;\n\t\tevolution[74] = 75;\n\t\tevolution[75] = 76;\n\t\tevolution[77] = 78;\n\t\tevolution[79] = 80;\n\t\tevolution[81] = 82;\n\t\tevolution[84] = 85;\n\t\tevolution[86] = 87;\n\t\tevolution[88] = 89;\n\t\tevolution[90] = 91;\n\t\tevolution[92] = 93;\n\t\tevolution[93] = 94;\n\t\tevolution[96] = 97;\n\t\tevolution[98] = 99;\n\t\tevolution[100] = 101;\n\t\tevolution[102] = 103;\n\t\tevolution[104] = 105;\n\t\tevolution[109] = 110;\n\t\tevolution[111] = 112;\n\t\tevolution[116] = 117;\n\t\tevolution[118] = 119;\n\t\tevolution[120] = 121;\n\t\tevolution[129] = 130;\n\t\tevolution[133] = 134;\n\t\tevolution[138] = 139;\n\t\tevolution[140] = 141;\n\t\tevolution[147] = 148;\n\t\tevolution[148] = 149;\n\t}\n\n\tfunction _addOrigins() private {\n\t\torigin[1] = 1;\n\t\torigin[2] = 1;\n\t\torigin[3] = 1;\n\t\torigin[4] = 4;\n\t\torigin[5] = 4;\n\t\torigin[6] = 4;\n\t\torigin[7] = 7;\n\t\torigin[8] = 7;\n\t\torigin[9] = 7;\n\t\torigin[10] = 10;\n\t\torigin[11] = 10;\n\t\torigin[12] = 10;\n\t\torigin[13] = 13;\n\t\torigin[14] = 13;\n\t\torigin[15] = 13;\n\t\torigin[16] = 16;\n\t\torigin[17] = 16;\n\t\torigin[18] = 16;\n\t\torigin[19] = 19;\n\t\torigin[20] = 19;\n\t\torigin[21] = 21;\n\t\torigin[22] = 21;\n\t\torigin[23] = 23;\n\t\torigin[24] = 23;\n\t\torigin[25] = 25;\n\t\torigin[26] = 25;\n\t\torigin[27] = 27;\n\t\torigin[28] = 27;\n\t\torigin[29] = 29;\n\t\torigin[30] = 29;\n\t\torigin[31] = 29;\n\t\torigin[32] = 32;\n\t\torigin[33] = 32;\n\t\torigin[34] = 32;\n\t\torigin[35] = 35;\n\t\torigin[36] = 35;\n\t\torigin[37] = 37;\n\t\torigin[38] = 37;\n\t\torigin[39] = 39;\n\t\torigin[40] = 39;\n\t\torigin[41] = 41;\n\t\torigin[42] = 41;\n\t\torigin[43] = 43;\n\t\torigin[44] = 43;\n\t\torigin[45] = 43;\n\t\torigin[46] = 46;\n\t\torigin[47] = 46;\n\t\torigin[48] = 48;\n\t\torigin[49] = 48;\n\t\torigin[50] = 50;\n\t\torigin[51] = 50;\n\t\torigin[52] = 52;\n\t\torigin[53] = 52;\n\t\torigin[54] = 54;\n\t\torigin[55] = 54;\n\t\torigin[56] = 56;\n\t\torigin[57] = 56;\n\t\torigin[58] = 58;\n\t\torigin[59] = 58;\n\t\torigin[60] = 60;\n\t\torigin[61] = 60;\n\t\torigin[62] = 60;\n\t\torigin[63] = 63;\n\t\torigin[64] = 63;\n\t\torigin[65] = 63;\n\t\torigin[66] = 66;\n\t\torigin[67] = 66;\n\t\torigin[68] = 66;\n\t\torigin[69] = 69;\n\t\torigin[70] = 69;\n\t\torigin[71] = 69;\n\t\torigin[72] = 72;\n\t\torigin[73] = 72;\n\t\torigin[74] = 74;\n\t\torigin[75] = 74;\n\t\torigin[76] = 74;\n\t\torigin[77] = 77;\n\t\torigin[78] = 77;\n\t\torigin[79] = 79;\n\t\torigin[80] = 79;\n\t\torigin[81] = 81;\n\t\torigin[82] = 81;\n\t\torigin[83] = 83;\n\t\torigin[84] = 84;\n\t\torigin[85] = 84;\n\t\torigin[86] = 86;\n\t\torigin[87] = 86;\n\t\torigin[88] = 88;\n\t\torigin[89] = 88;\n\t\torigin[90] = 90;\n\t\torigin[91] = 90;\n\t\torigin[92] = 92;\n\t\torigin[93] = 92;\n\t\torigin[94] = 92;\n\t\torigin[95] = 95;\n\t\torigin[96] = 96;\n\t\torigin[97] = 96;\n\t\torigin[98] = 98;\n\t\torigin[99] = 98;\n\t\torigin[100] = 100;\n\t\torigin[101] = 100;\n\t\torigin[102] = 102;\n\t\torigin[103] = 102;\n\t\torigin[104] = 104;\n\t\torigin[105] = 104;\n\t\torigin[106] = 106;\n\t\torigin[107] = 107;\n\t\torigin[108] = 108;\n\t\torigin[109] = 109;\n\t\torigin[110] = 109;\n\t\torigin[111] = 111;\n\t\torigin[112] = 111;\n\t\torigin[113] = 113;\n\t\torigin[114] = 114;\n\t\torigin[115] = 115;\n\t\torigin[116] = 116;\n\t\torigin[117] = 116;\n\t\torigin[118] = 118;\n\t\torigin[119] = 118;\n\t\torigin[120] = 120;\n\t\torigin[121] = 120;\n\t\torigin[122] = 122;\n\t\torigin[123] = 123;\n\t\torigin[124] = 124;\n\t\torigin[125] = 125;\n\t\torigin[126] = 126;\n\t\torigin[127] = 127;\n\t\torigin[128] = 128;\n\t\torigin[129] = 129;\n\t\torigin[130] = 129;\n\t\torigin[131] = 131;\n\t\torigin[132] = 132;\n\t\torigin[133] = 133;\n\t\torigin[134] = 133;\n\t\torigin[135] = 135;\n\t\torigin[136] = 136;\n\t\torigin[137] = 137;\n\t\torigin[138] = 138;\n\t\torigin[139] = 138;\n\t\torigin[140] = 140;\n\t\torigin[141] = 140;\n\t\torigin[142] = 142;\n\t\torigin[143] = 143;\n\t\torigin[144] = 144;\n\t\torigin[145] = 145;\n\t\torigin[146] = 146;\n\t\torigin[147] = 147;\n\t\torigin[148] = 147;\n\t\torigin[149] = 147;\n\t\torigin[150] = 150;\n\t\torigin[151] = 151;\n\t}\n\n\tfunction max(uint a, uint b) private pure returns (uint) {\n\t\treturn a > b ? a : b;\n\t}\n\n\n}",
  "sourcePath": "/Users/ztq/Dropbox/Computer Science/CO467/crypto-pokemons/contracts/Base.sol",
  "compiler": {
    "name": "solc",
    "version": "0.5.16+commit.9c3226ce.Emscripten.clang"
  },
  "schemaVersion": "3.0.23",
  "updatedAt": "2020-02-08T22:45:06.396Z",
  "devdoc": {
    "methods": {
      "isOwner()": {
        "return": "true if `msg.sender` is the owner of the contract."
      },
      "owner()": {
        "return": "the address of the owner."
      },
      "renounceOwnership()": {
        "details": "Allows the current owner to relinquish control of the contract."
      },
      "transferOwnership(address)": {
        "details": "Allows the current owner to transfer control of the contract to a newOwner.",
        "params": {
          "newOwner": "The address to transfer ownership to."
        }
      }
    }
  },
  "userdoc": {
    "methods": {
      "renounceOwnership()": {
        "notice": "Renouncing to ownership will leave the contract without an owner. It will not be possible to call the functions with the `onlyOwner` modifier anymore."
      }
    }
  }
}