{
  "contractName": "PokemonCardFactory",
  "abi": [
    {
      "anonymous": false,
      "inputs": [
        {
          "indexed": false,
          "internalType": "uint256",
          "name": "pokemonId",
          "type": "uint256"
        },
        {
          "indexed": false,
          "internalType": "string",
          "name": "name",
          "type": "string"
        },
        {
          "indexed": false,
          "internalType": "uint256",
          "name": "dna",
          "type": "uint256"
        }
      ],
      "name": "NewPokemon",
      "type": "event"
    },
    {
      "anonymous": false,
      "inputs": [
        {
          "indexed": true,
          "internalType": "address",
          "name": "previousOwner",
          "type": "address"
        },
        {
          "indexed": true,
          "internalType": "address",
          "name": "newOwner",
          "type": "address"
        }
      ],
      "name": "OwnershipTransferred",
      "type": "event"
    },
    {
      "constant": true,
      "inputs": [
        {
          "internalType": "uint256",
          "name": "pokemonNumber",
          "type": "uint256"
        }
      ],
      "name": "getBasicPokemonInfo",
      "outputs": [
        {
          "internalType": "string",
          "name": "",
          "type": "string"
        },
        {
          "internalType": "string",
          "name": "",
          "type": "string"
        },
        {
          "internalType": "string",
          "name": "",
          "type": "string"
        },
        {
          "internalType": "bool",
          "name": "",
          "type": "bool"
        }
      ],
      "payable": false,
      "stateMutability": "view",
      "type": "function"
    },
    {
      "constant": true,
      "inputs": [
        {
          "internalType": "uint256",
          "name": "pokemonNumber",
          "type": "uint256"
        }
      ],
      "name": "getPokemonName",
      "outputs": [
        {
          "internalType": "string",
          "name": "",
          "type": "string"
        }
      ],
      "payable": false,
      "stateMutability": "view",
      "type": "function"
    },
    {
      "constant": true,
      "inputs": [],
      "name": "isOwner",
      "outputs": [
        {
          "internalType": "bool",
          "name": "",
          "type": "bool"
        }
      ],
      "payable": false,
      "stateMutability": "view",
      "type": "function"
    },
    {
      "constant": true,
      "inputs": [],
      "name": "owner",
      "outputs": [
        {
          "internalType": "address",
          "name": "",
          "type": "address"
        }
      ],
      "payable": false,
      "stateMutability": "view",
      "type": "function"
    },
    {
      "constant": true,
      "inputs": [
        {
          "internalType": "uint256",
          "name": "",
          "type": "uint256"
        }
      ],
      "name": "pokemonToOwner",
      "outputs": [
        {
          "internalType": "address",
          "name": "",
          "type": "address"
        }
      ],
      "payable": false,
      "stateMutability": "view",
      "type": "function"
    },
    {
      "constant": false,
      "inputs": [],
      "name": "renounceOwnership",
      "outputs": [],
      "payable": false,
      "stateMutability": "nonpayable",
      "type": "function"
    },
    {
      "constant": false,
      "inputs": [
        {
          "internalType": "address",
          "name": "newOwner",
          "type": "address"
        }
      ],
      "name": "transferOwnership",
      "outputs": [],
      "payable": false,
      "stateMutability": "nonpayable",
      "type": "function"
    },
    {
      "constant": false,
      "inputs": [
        {
          "internalType": "string",
          "name": "_nickname",
          "type": "string"
        },
        {
          "internalType": "uint256",
          "name": "_pokemonNumber",
          "type": "uint256"
        }
      ],
      "name": "createStarterPokemon",
      "outputs": [],
      "payable": false,
      "stateMutability": "nonpayable",
      "type": "function"
    },
    {
      "constant": true,
      "inputs": [],
      "name": "isNewTrainer",
      "outputs": [
        {
          "internalType": "bool",
          "name": "",
          "type": "bool"
        }
      ],
      "payable": false,
      "stateMutability": "view",
      "type": "function"
    }
  ],
  "bytecode": "0x60806040526010600455600454600a0a60055562015180600655620d2f00600755336000806101000a81548173ffffffffffffffffffffffffffffffffffffffff021916908373ffffffffffffffffffffffffffffffffffffffff1602179055506000809054906101000a900473ffffffffffffffffffffffffffffffffffffffff1673ffffffffffffffffffffffffffffffffffffffff16600073ffffffffffffffffffffffffffffffffffffffff167f8be0079c531659141344cd1fd0a4f28419497f9722a3daafe3b4186f6b6457e060405160405180910390a3620000ec6200011260201b60201c565b620000fc62001dfc60201b60201c565b6200010c6200251a60201b60201c565b62003521565b60036040518060e001604052806040518060400160405280600981526020017f42756c62617361757200000000000000000000000000000000000000000000008152508152602001600181526020016040518060400160405280600581526020017f477261737300000000000000000000000000000000000000000000000000000081525081526020016040518060400160405280600681526020017f506f69736f6e0000000000000000000000000000000000000000000000000000815250815260200161024681526020016000151581526020016040518060c00160405280602d63ffffffff168152602001603163ffffffff168152602001603163ffffffff168152602001604163ffffffff168152602001604163ffffffff168152602001602d63ffffffff168152508152509080600181540180825580915050906001820390600052602060002090600702016000909192909190915060008201518160000190805190602001906200028b92919062003472565b50602082015181600101556040820151816002019080519060200190620002b492919062003472565b506060820151816003019080519060200190620002d392919062003472565b506080820151816004015560a08201518160050160006101000a81548160ff02191690831515021790555060c08201518160060160008201518160000160006101000a81548163ffffffff021916908363ffffffff16021790555060208201518160000160046101000a81548163ffffffff021916908363ffffffff16021790555060408201518160000160086101000a81548163ffffffff021916908363ffffffff160217905550606082015181600001600c6101000a81548163ffffffff021916908363ffffffff16021790555060808201518160000160106101000a81548163ffffffff021916908363ffffffff16021790555060a08201518160000160146101000a81548163ffffffff021916908363ffffffff160217905550505050505060036040518060e001604052806040518060400160405280600781526020017f49767973617572000000000000000000000000000000000000000000000000008152508152602001600281526020016040518060400160405280600581526020017f477261737300000000000000000000000000000000000000000000000000000081525081526020016040518060400160405280600681526020017f506f69736f6e000000000000000000000000000000000000000000000000000081525081526020016101ef81526020016000151581526020016040518060c00160405280603c63ffffffff168152602001603e63ffffffff168152602001603f63ffffffff168152602001605063ffffffff168152602001605063ffffffff168152602001603c63ffffffff168152508152509080600181540180825580915050906001820390600052602060002090600702016000909192909190915060008201518160000190805190602001906200056f92919062003472565b506020820151816001015560408201518160020190805190602001906200059892919062003472565b506060820151816003019080519060200190620005b792919062003472565b506080820151816004015560a08201518160050160006101000a81548160ff02191690831515021790555060c08201518160060160008201518160000160006101000a81548163ffffffff021916908363ffffffff16021790555060208201518160000160046101000a81548163ffffffff021916908363ffffffff16021790555060408201518160000160086101000a81548163ffffffff021916908363ffffffff160217905550606082015181600001600c6101000a81548163ffffffff021916908363ffffffff16021790555060808201518160000160106101000a81548163ffffffff021916908363ffffffff16021790555060a08201518160000160146101000a81548163ffffffff021916908363ffffffff160217905550505050505060036040518060e001604052806040518060400160405280600881526020017f56656e75736175720000000000000000000000000000000000000000000000008152508152602001600381526020016040518060400160405280600581526020017f477261737300000000000000000000000000000000000000000000000000000081525081526020016040518060400160405280600681526020017f506f69736f6e0000000000000000000000000000000000000000000000000000815250815260200161017781526020016000151581526020016040518060c00160405280605063ffffffff168152602001605263ffffffff168152602001605363ffffffff168152602001606463ffffffff168152602001606463ffffffff168152602001605063ffffffff168152508152509080600181540180825580915050906001820390600052602060002090600702016000909192909190915060008201518160000190805190602001906200085392919062003472565b506020820151816001015560408201518160020190805190602001906200087c92919062003472565b5060608201518160030190805190602001906200089b92919062003472565b506080820151816004015560a08201518160050160006101000a81548160ff02191690831515021790555060c08201518160060160008201518160000160006101000a81548163ffffffff021916908363ffffffff16021790555060208201518160000160046101000a81548163ffffffff021916908363ffffffff16021790555060408201518160000160086101000a81548163ffffffff021916908363ffffffff160217905550606082015181600001600c6101000a81548163ffffffff021916908363ffffffff16021790555060808201518160000160106101000a81548163ffffffff021916908363ffffffff16021790555060a08201518160000160146101000a81548163ffffffff021916908363ffffffff160217905550505050505060036040518060e001604052806040518060400160405280600a81526020017f436861726d616e646572000000000000000000000000000000000000000000008152508152602001600481526020016040518060400160405280600481526020017f466972650000000000000000000000000000000000000000000000000000000081525081526020016040518060400160405280600381526020017f6e616e0000000000000000000000000000000000000000000000000000000000815250815260200161024f81526020016000151581526020016040518060c00160405280602763ffffffff168152602001603463ffffffff168152602001602b63ffffffff168152602001603c63ffffffff168152602001603263ffffffff168152602001604163ffffffff1681525081525090806001815401808255809150509060018203906000526020600020906007020160009091929091909150600082015181600001908051906020019062000b3792919062003472565b5060208201518160010155604082015181600201908051906020019062000b6092919062003472565b50606082015181600301908051906020019062000b7f92919062003472565b506080820151816004015560a08201518160050160006101000a81548160ff02191690831515021790555060c08201518160060160008201518160000160006101000a81548163ffffffff021916908363ffffffff16021790555060208201518160000160046101000a81548163ffffffff021916908363ffffffff16021790555060408201518160000160086101000a81548163ffffffff021916908363ffffffff160217905550606082015181600001600c6101000a81548163ffffffff021916908363ffffffff16021790555060808201518160000160106101000a81548163ffffffff021916908363ffffffff16021790555060a08201518160000160146101000a81548163ffffffff021916908363ffffffff160217905550505050505060036040518060e001604052806040518060400160405280600a81526020017f436861726d656c656f6e000000000000000000000000000000000000000000008152508152602001600581526020016040518060400160405280600481526020017f466972650000000000000000000000000000000000000000000000000000000081525081526020016040518060400160405280600381526020017f6e616e000000000000000000000000000000000000000000000000000000000081525081526020016101ef81526020016000151581526020016040518060c00160405280603a63ffffffff168152602001604063ffffffff168152602001603a63ffffffff168152602001605063ffffffff168152602001604163ffffffff168152602001605063ffffffff1681525081525090806001815401808255809150509060018203906000526020600020906007020160009091929091909150600082015181600001908051906020019062000e1b92919062003472565b5060208201518160010155604082015181600201908051906020019062000e4492919062003472565b50606082015181600301908051906020019062000e6392919062003472565b506080820151816004015560a08201518160050160006101000a81548160ff02191690831515021790555060c08201518160060160008201518160000160006101000a81548163ffffffff021916908363ffffffff16021790555060208201518160000160046101000a81548163ffffffff021916908363ffffffff16021790555060408201518160000160086101000a81548163ffffffff021916908363ffffffff160217905550606082015181600001600c6101000a81548163ffffffff021916908363ffffffff16021790555060808201518160000160106101000a81548163ffffffff021916908363ffffffff16021790555060a08201518160000160146101000a81548163ffffffff021916908363ffffffff160217905550505050505060036040518060e001604052806040518060400160405280600981526020017f43686172697a61726400000000000000000000000000000000000000000000008152508152602001600681526020016040518060400160405280600481526020017f466972650000000000000000000000000000000000000000000000000000000081525081526020016040518060400160405280600681526020017f466c79696e670000000000000000000000000000000000000000000000000000815250815260200161016e81526020016000151581526020016040518060c00160405280604e63ffffffff168152602001605463ffffffff168152602001604e63ffffffff168152602001606d63ffffffff168152602001605563ffffffff168152602001606463ffffffff16815250815250908060018154018082558091505090600182039060005260206000209060070201600090919290919091506000820151816000019080519060200190620010ff92919062003472565b506020820151816001015560408201518160020190805190602001906200112892919062003472565b5060608201518160030190805190602001906200114792919062003472565b506080820151816004015560a08201518160050160006101000a81548160ff02191690831515021790555060c08201518160060160008201518160000160006101000a81548163ffffffff021916908363ffffffff16021790555060208201518160000160046101000a81548163ffffffff021916908363ffffffff16021790555060408201518160000160086101000a81548163ffffffff021916908363ffffffff160217905550606082015181600001600c6101000a81548163ffffffff021916908363ffffffff16021790555060808201518160000160106101000a81548163ffffffff021916908363ffffffff16021790555060a08201518160000160146101000a81548163ffffffff021916908363ffffffff160217905550505050505060036040518060e001604052806040518060400160405280600881526020017f5371756972746c650000000000000000000000000000000000000000000000008152508152602001600781526020016040518060400160405280600581526020017f576174657200000000000000000000000000000000000000000000000000000081525081526020016040518060400160405280600381526020017f6e616e0000000000000000000000000000000000000000000000000000000000815250815260200161024a81526020016000151581526020016040518060c00160405280602c63ffffffff168152602001603063ffffffff168152602001604163ffffffff168152602001603263ffffffff168152602001604063ffffffff168152602001602b63ffffffff16815250815250908060018154018082558091505090600182039060005260206000209060070201600090919290919091506000820151816000019080519060200190620013e392919062003472565b506020820151816001015560408201518160020190805190602001906200140c92919062003472565b5060608201518160030190805190602001906200142b92919062003472565b506080820151816004015560a08201518160050160006101000a81548160ff02191690831515021790555060c08201518160060160008201518160000160006101000a81548163ffffffff021916908363ffffffff16021790555060208201518160000160046101000a81548163ffffffff021916908363ffffffff16021790555060408201518160000160086101000a81548163ffffffff021916908363ffffffff160217905550606082015181600001600c6101000a81548163ffffffff021916908363ffffffff16021790555060808201518160000160106101000a81548163ffffffff021916908363ffffffff16021790555060a08201518160000160146101000a81548163ffffffff021916908363ffffffff160217905550505050505060036040518060e001604052806040518060400160405280600981526020017f576172746f72746c6500000000000000000000000000000000000000000000008152508152602001600881526020016040518060400160405280600581526020017f576174657200000000000000000000000000000000000000000000000000000081525081526020016040518060400160405280600381526020017f6e616e000000000000000000000000000000000000000000000000000000000081525081526020016101ef81526020016000151581526020016040518060c00160405280603b63ffffffff168152602001603f63ffffffff168152602001605063ffffffff168152602001604163ffffffff168152602001605063ffffffff168152602001603a63ffffffff16815250815250908060018154018082558091505090600182039060005260206000209060070201600090919290919091506000820151816000019080519060200190620016c792919062003472565b50602082015181600101556040820151816002019080519060200190620016f092919062003472565b5060608201518160030190805190602001906200170f92919062003472565b506080820151816004015560a08201518160050160006101000a81548160ff02191690831515021790555060c08201518160060160008201518160000160006101000a81548163ffffffff021916908363ffffffff16021790555060208201518160000160046101000a81548163ffffffff021916908363ffffffff16021790555060408201518160000160086101000a81548163ffffffff021916908363ffffffff160217905550606082015181600001600c6101000a81548163ffffffff021916908363ffffffff16021790555060808201518160000160106101000a81548163ffffffff021916908363ffffffff16021790555060a08201518160000160146101000a81548163ffffffff021916908363ffffffff160217905550505050505060036040518060e001604052806040518060400160405280600981526020017f426c6173746f69736500000000000000000000000000000000000000000000008152508152602001600981526020016040518060400160405280600581526020017f576174657200000000000000000000000000000000000000000000000000000081525081526020016040518060400160405280600381526020017f6e616e0000000000000000000000000000000000000000000000000000000000815250815260200161017281526020016000151581526020016040518060c00160405280604f63ffffffff168152602001605363ffffffff168152602001606463ffffffff168152602001605563ffffffff168152602001606963ffffffff168152602001604e63ffffffff16815250815250908060018154018082558091505090600182039060005260206000209060070201600090919290919091506000820151816000019080519060200190620019ab92919062003472565b50602082015181600101556040820151816002019080519060200190620019d492919062003472565b506060820151816003019080519060200190620019f392919062003472565b506080820151816004015560a08201518160050160006101000a81548160ff02191690831515021790555060c08201518160060160008201518160000160006101000a81548163ffffffff021916908363ffffffff16021790555060208201518160000160046101000a81548163ffffffff021916908363ffffffff16021790555060408201518160000160086101000a81548163ffffffff021916908363ffffffff160217905550606082015181600001600c6101000a81548163ffffffff021916908363ffffffff16021790555060808201518160000160106101000a81548163ffffffff021916908363ffffffff16021790555060a08201518160000160146101000a81548163ffffffff021916908363ffffffff160217905550505050505060036040518060e001604052806040518060400160405280600881526020017f43617465727069650000000000000000000000000000000000000000000000008152508152602001600a81526020016040518060400160405280600381526020017f427567000000000000000000000000000000000000000000000000000000000081525081526020016040518060400160405280600381526020017f6e616e000000000000000000000000000000000000000000000000000000000081525081526020016102c181526020016000151581526020016040518060c00160405280602d63ffffffff168152602001601e63ffffffff168152602001602363ffffffff168152602001601463ffffffff168152602001601463ffffffff168152602001602d63ffffffff1681525081525090806001815401808255809150509060018203906000526020600020906007020160009091929091909150600082015181600001908051906020019062001c8f92919062003472565b5060208201518160010155604082015181600201908051906020019062001cb892919062003472565b50606082015181600301908051906020019062001cd792919062003472565b506080820151816004015560a08201518160050160006101000a81548160ff02191690831515021790555060c08201518160060160008201518160000160006101000a81548163ffffffff021916908363ffffffff16021790555060208201518160000160046101000a81548163ffffffff021916908363ffffffff16021790555060408201518160000160086101000a81548163ffffffff021916908363ffffffff160217905550606082015181600001600c6101000a81548163ffffffff021916908363ffffffff16021790555060808201518160000160106101000a81548163ffffffff021916908363ffffffff16021790555060a08201518160000160146101000a81548163ffffffff021916908363ffffffff1602179055505050505050565b600260016000600181526020019081526020016000208190555060036001600060028152602001908152602001600020819055506005600160006004815260200190815260200160002081905550600660016000600581526020019081526020016000208190555060086001600060078152602001908152602001600020819055506009600160006008815260200190815260200160002081905550600b60016000600a815260200190815260200160002081905550600c60016000600b815260200190815260200160002081905550600e60016000600d815260200190815260200160002081905550600f60016000600e81526020019081526020016000208190555060116001600060108152602001908152602001600020819055506012600160006011815260200190815260200160002081905550601460016000601381526020019081526020016000208190555060166001600060158152602001908152602001600020819055506018600160006017815260200190815260200160002081905550601a600160006019815260200190815260200160002081905550601c60016000601b815260200190815260200160002081905550601e60016000601d815260200190815260200160002081905550601f60016000601e81526020019081526020016000208190555060216001600060208152602001908152602001600020819055506022600160006021815260200190815260200160002081905550602460016000602381526020019081526020016000208190555060266001600060258152602001908152602001600020819055506028600160006027815260200190815260200160002081905550602a600160006029815260200190815260200160002081905550602c60016000602b815260200190815260200160002081905550602d60016000602c815260200190815260200160002081905550602f60016000602e81526020019081526020016000208190555060316001600060308152602001908152602001600020819055506033600160006032815260200190815260200160002081905550603560016000603481526020019081526020016000208190555060376001600060368152602001908152602001600020819055506039600160006038815260200190815260200160002081905550603b60016000603a815260200190815260200160002081905550603d60016000603c815260200190815260200160002081905550603e60016000603d815260200190815260200160002081905550604060016000603f815260200190815260200160002081905550604160016000604081526020019081526020016000208190555060436001600060428152602001908152602001600020819055506044600160006043815260200190815260200160002081905550604660016000604581526020019081526020016000208190555060476001600060468152602001908152602001600020819055506049600160006048815260200190815260200160002081905550604b60016000604a815260200190815260200160002081905550604c60016000604b815260200190815260200160002081905550604e60016000604d815260200190815260200160002081905550605060016000604f8152602001908152602001600020819055506052600160006051815260200190815260200160002081905550605560016000605481526020019081526020016000208190555060576001600060568152602001908152602001600020819055506059600160006058815260200190815260200160002081905550605b60016000605a815260200190815260200160002081905550605d60016000605c815260200190815260200160002081905550605e60016000605d81526020019081526020016000208190555060616001600060608152602001908152602001600020819055506063600160006062815260200190815260200160002081905550606560016000606481526020019081526020016000208190555060676001600060668152602001908152602001600020819055506069600160006068815260200190815260200160002081905550606e60016000606d815260200190815260200160002081905550607060016000606f81526020019081526020016000208190555060756001600060748152602001908152602001600020819055506077600160006076815260200190815260200160002081905550607960016000607881526020019081526020016000208190555060826001600060818152602001908152602001600020819055506086600160006085815260200190815260200160002081905550608b60016000608a815260200190815260200160002081905550608d60016000608c81526020019081526020016000208190555060946001600060938152602001908152602001600020819055506095600160006094815260200190815260200160002081905550565b600160026000600181526020019081526020016000208190555060016002600060028152602001908152602001600020819055506001600260006003815260200190815260200160002081905550600460026000600481526020019081526020016000208190555060046002600060058152602001908152602001600020819055506004600260006006815260200190815260200160002081905550600760026000600781526020019081526020016000208190555060076002600060088152602001908152602001600020819055506007600260006009815260200190815260200160002081905550600a60026000600a815260200190815260200160002081905550600a60026000600b815260200190815260200160002081905550600a60026000600c815260200190815260200160002081905550600d60026000600d815260200190815260200160002081905550600d60026000600e815260200190815260200160002081905550600d60026000600f8152602001908152602001600020819055506010600260006010815260200190815260200160002081905550601060026000601181526020019081526020016000208190555060106002600060128152602001908152602001600020819055506013600260006013815260200190815260200160002081905550601360026000601481526020019081526020016000208190555060156002600060158152602001908152602001600020819055506015600260006016815260200190815260200160002081905550601760026000601781526020019081526020016000208190555060176002600060188152602001908152602001600020819055506019600260006019815260200190815260200160002081905550601960026000601a815260200190815260200160002081905550601b60026000601b815260200190815260200160002081905550601b60026000601c815260200190815260200160002081905550601d60026000601d815260200190815260200160002081905550601d60026000601e815260200190815260200160002081905550601d60026000601f8152602001908152602001600020819055506020600260006020815260200190815260200160002081905550602060026000602181526020019081526020016000208190555060206002600060228152602001908152602001600020819055506023600260006023815260200190815260200160002081905550602360026000602481526020019081526020016000208190555060256002600060258152602001908152602001600020819055506025600260006026815260200190815260200160002081905550602760026000602781526020019081526020016000208190555060276002600060288152602001908152602001600020819055506029600260006029815260200190815260200160002081905550602960026000602a815260200190815260200160002081905550602b60026000602b815260200190815260200160002081905550602b60026000602c815260200190815260200160002081905550602b60026000602d815260200190815260200160002081905550602e60026000602e815260200190815260200160002081905550602e60026000602f8152602001908152602001600020819055506030600260006030815260200190815260200160002081905550603060026000603181526020019081526020016000208190555060326002600060328152602001908152602001600020819055506032600260006033815260200190815260200160002081905550603460026000603481526020019081526020016000208190555060346002600060358152602001908152602001600020819055506036600260006036815260200190815260200160002081905550603660026000603781526020019081526020016000208190555060386002600060388152602001908152602001600020819055506038600260006039815260200190815260200160002081905550603a60026000603a815260200190815260200160002081905550603a60026000603b815260200190815260200160002081905550603c60026000603c815260200190815260200160002081905550603c60026000603d815260200190815260200160002081905550603c60026000603e815260200190815260200160002081905550603f60026000603f815260200190815260200160002081905550603f600260006040815260200190815260200160002081905550603f60026000604181526020019081526020016000208190555060426002600060428152602001908152602001600020819055506042600260006043815260200190815260200160002081905550604260026000604481526020019081526020016000208190555060456002600060458152602001908152602001600020819055506045600260006046815260200190815260200160002081905550604560026000604781526020019081526020016000208190555060486002600060488152602001908152602001600020819055506048600260006049815260200190815260200160002081905550604a60026000604a815260200190815260200160002081905550604a60026000604b815260200190815260200160002081905550604a60026000604c815260200190815260200160002081905550604d60026000604d815260200190815260200160002081905550604d60026000604e815260200190815260200160002081905550604f60026000604f815260200190815260200160002081905550604f600260006050815260200190815260200160002081905550605160026000605181526020019081526020016000208190555060516002600060528152602001908152602001600020819055506053600260006053815260200190815260200160002081905550605460026000605481526020019081526020016000208190555060546002600060558152602001908152602001600020819055506056600260006056815260200190815260200160002081905550605660026000605781526020019081526020016000208190555060586002600060588152602001908152602001600020819055506058600260006059815260200190815260200160002081905550605a60026000605a815260200190815260200160002081905550605a60026000605b815260200190815260200160002081905550605c60026000605c815260200190815260200160002081905550605c60026000605d815260200190815260200160002081905550605c60026000605e815260200190815260200160002081905550605f60026000605f8152602001908152602001600020819055506060600260006060815260200190815260200160002081905550606060026000606181526020019081526020016000208190555060626002600060628152602001908152602001600020819055506062600260006063815260200190815260200160002081905550606460026000606481526020019081526020016000208190555060646002600060658152602001908152602001600020819055506066600260006066815260200190815260200160002081905550606660026000606781526020019081526020016000208190555060686002600060688152602001908152602001600020819055506068600260006069815260200190815260200160002081905550606a60026000606a815260200190815260200160002081905550606b60026000606b815260200190815260200160002081905550606c60026000606c815260200190815260200160002081905550606d60026000606d815260200190815260200160002081905550606d60026000606e815260200190815260200160002081905550606f60026000606f815260200190815260200160002081905550606f600260006070815260200190815260200160002081905550607160026000607181526020019081526020016000208190555060726002600060728152602001908152602001600020819055506073600260006073815260200190815260200160002081905550607460026000607481526020019081526020016000208190555060746002600060758152602001908152602001600020819055506076600260006076815260200190815260200160002081905550607660026000607781526020019081526020016000208190555060786002600060788152602001908152602001600020819055506078600260006079815260200190815260200160002081905550607a60026000607a815260200190815260200160002081905550607b60026000607b815260200190815260200160002081905550607c60026000607c815260200190815260200160002081905550607d60026000607d815260200190815260200160002081905550607e60026000607e815260200190815260200160002081905550607f60026000607f8152602001908152602001600020819055506080600260006080815260200190815260200160002081905550608160026000608181526020019081526020016000208190555060816002600060828152602001908152602001600020819055506083600260006083815260200190815260200160002081905550608460026000608481526020019081526020016000208190555060856002600060858152602001908152602001600020819055506085600260006086815260200190815260200160002081905550608760026000608781526020019081526020016000208190555060886002600060888152602001908152602001600020819055506089600260006089815260200190815260200160002081905550608a60026000608a815260200190815260200160002081905550608a60026000608b815260200190815260200160002081905550608c60026000608c815260200190815260200160002081905550608c60026000608d815260200190815260200160002081905550608e60026000608e815260200190815260200160002081905550608f60026000608f81526020019081526020016000208190555060906002600060908152602001908152602001600020819055506091600260006091815260200190815260200160002081905550609260026000609281526020019081526020016000208190555060936002600060938152602001908152602001600020819055506093600260006094815260200190815260200160002081905550609360026000609581526020019081526020016000208190555060966002600060968152602001908152602001600020819055506097600260006097815260200190815260200160002081905550565b828054600181600116156101000203166002900490600052602060002090601f016020900481019282601f10620034b557805160ff1916838001178555620034e6565b82800160010185558215620034e6579182015b82811115620034e5578251825591602001919060010190620034c8565b5b509050620034f59190620034f9565b5090565b6200351e91905b808211156200351a57600081600090555060010162003500565b5090565b90565b61194080620035316000396000f3fe608060405234801561001057600080fd5b50600436106100935760003560e01c8063835d75ab11610066578063835d75ab146101d95780638da5cb5b146103635780638f32d59b146103ad578063bdfb5269146103cf578063f2fde38b1461049457610093565b80632d90c7a7146100985780632f7467b3146100ba578063715018a61461012857806372f4295814610132575b600080fd5b6100a06104d8565b604051808215151515815260200191505060405180910390f35b6100e6600480360360208110156100d057600080fd5b8101908080359060200190929190505050610521565b604051808273ffffffffffffffffffffffffffffffffffffffff1673ffffffffffffffffffffffffffffffffffffffff16815260200191505060405180910390f35b610130610554565b005b61015e6004803603602081101561014857600080fd5b8101908080359060200190929190505050610624565b6040518080602001828103825283818151815260200191508051906020019080838360005b8381101561019e578082015181840152602081019050610183565b50505050905090810190601f1680156101cb5780820380516001836020036101000a031916815260200191505b509250505060405180910390f35b610205600480360360208110156101ef57600080fd5b81019080803590602001909291905050506106e7565b6040518080602001806020018060200185151515158152602001848103845288818151815260200191508051906020019080838360005b8381101561025757808201518184015260208101905061023c565b50505050905090810190601f1680156102845780820380516001836020036101000a031916815260200191505b50848103835287818151815260200191508051906020019080838360005b838110156102bd5780820151818401526020810190506102a2565b50505050905090810190601f1680156102ea5780820380516001836020036101000a031916815260200191505b50848103825286818151815260200191508051906020019080838360005b83811015610323578082015181840152602081019050610308565b50505050905090810190601f1680156103505780820380516001836020036101000a031916815260200191505b5097505050505050505060405180910390f35b61036b610911565b604051808273ffffffffffffffffffffffffffffffffffffffff1673ffffffffffffffffffffffffffffffffffffffff16815260200191505060405180910390f35b6103b561093a565b604051808215151515815260200191505060405180910390f35b610492600480360360408110156103e557600080fd5b810190808035906020019064010000000081111561040257600080fd5b82018360208201111561041457600080fd5b8035906020019184600183028401116401000000008311171561043657600080fd5b91908080601f016020809104026020016040519081016040528093929190818152602001838380828437600081840152601f19601f82011690508083019250505050505050919291929080359060200190929190505050610991565b005b6104d6600480360360208110156104aa57600080fd5b81019080803573ffffffffffffffffffffffffffffffffffffffff169060200190929190505050610a21565b005b600080600a60003373ffffffffffffffffffffffffffffffffffffffff1673ffffffffffffffffffffffffffffffffffffffff1681526020019081526020016000205414905090565b60096020528060005260406000206000915054906101000a900473ffffffffffffffffffffffffffffffffffffffff1681565b61055c61093a565b61056557600080fd5b600073ffffffffffffffffffffffffffffffffffffffff166000809054906101000a900473ffffffffffffffffffffffffffffffffffffffff1673ffffffffffffffffffffffffffffffffffffffff167f8be0079c531659141344cd1fd0a4f28419497f9722a3daafe3b4186f6b6457e060405160405180910390a360008060006101000a81548173ffffffffffffffffffffffffffffffffffffffff021916908373ffffffffffffffffffffffffffffffffffffffff160217905550565b60606003600183038154811061063657fe5b90600052602060002090600702016000018054600181600116156101000203166002900480601f0160208091040260200160405190810160405280929190818152602001828054600181600116156101000203166002900480156106db5780601f106106b0576101008083540402835291602001916106db565b820191906000526020600020905b8154815290600101906020018083116106be57829003601f168201915b50505050509050919050565b6060806060600080600360018703815481106106ff57fe5b906000526020600020906007020190508060000181600201826003018360050160009054906101000a900460ff16838054600181600116156101000203166002900480601f0160208091040260200160405190810160405280929190818152602001828054600181600116156101000203166002900480156107c25780601f10610797576101008083540402835291602001916107c2565b820191906000526020600020905b8154815290600101906020018083116107a557829003601f168201915b50505050509350828054600181600116156101000203166002900480601f01602080910402602001604051908101604052809291908181526020018280546001816001161561010002031660029004801561085e5780601f106108335761010080835404028352916020019161085e565b820191906000526020600020905b81548152906001019060200180831161084157829003601f168201915b50505050509250818054600181600116156101000203166002900480601f0160208091040260200160405190810160405280929190818152602001828054600181600116156101000203166002900480156108fa5780601f106108cf576101008083540402835291602001916108fa565b820191906000526020600020905b8154815290600101906020018083116108dd57829003601f168201915b505050505091509450945094509450509193509193565b60008060009054906101000a900473ffffffffffffffffffffffffffffffffffffffff16905090565b60008060009054906101000a900473ffffffffffffffffffffffffffffffffffffffff1673ffffffffffffffffffffffffffffffffffffffff163373ffffffffffffffffffffffffffffffffffffffff1614905090565b6000600a60003373ffffffffffffffffffffffffffffffffffffffff1673ffffffffffffffffffffffffffffffffffffffff16815260200190815260200160002054146109dd57600080fd5b60008114806109ec5750600381145b806109f75750600681145b610a0057600080fd5b6000610a0b83610a3e565b9050610a1b838260008086610acc565b50505050565b610a2961093a565b610a3257600080fd5b610a3b81611569565b50565b600080826040516020018082805190602001908083835b60208310610a785780518252602082019150602081019050602083039250610a55565b6001836020036101000a0380198251168184511680821785525050505050509050019150506040516020818303038152906040528051906020012060001c90506005548181610ac357fe5b06915050919050565b600060606006604051908082528060200260200182016040528015610b005781602001602082028038833980820191505090505b5090506000869050600080600090505b6006811015610b6957600a8381610b2357fe5b06915081848281518110610b3357fe5b602002602001019063ffffffff16908163ffffffff1681525050600a82840381610b5957fe5b0492508080600101915050610b10565b50610b72611735565b60038681548110610b7f57fe5b90600052602060002090600702016040518060e0016040529081600082018054600181600116156101000203166002900480601f016020809104026020016040519081016040528092919081815260200182805460018160011615610100020316600290048015610c315780601f10610c0657610100808354040283529160200191610c31565b820191906000526020600020905b815481529060010190602001808311610c1457829003601f168201915b5050505050815260200160018201548152602001600282018054600181600116156101000203166002900480601f016020809104026020016040519081016040528092919081815260200182805460018160011615610100020316600290048015610cdd5780601f10610cb257610100808354040283529160200191610cdd565b820191906000526020600020905b815481529060010190602001808311610cc057829003601f168201915b50505050508152602001600382018054600181600116156101000203166002900480601f016020809104026020016040519081016040528092919081815260200182805460018160011615610100020316600290048015610d7f5780601f10610d5457610100808354040283529160200191610d7f565b820191906000526020600020905b815481529060010190602001808311610d6257829003601f168201915b50505050508152602001600482015481526020016005820160009054906101000a900460ff16151515158152602001600682016040518060c00160405290816000820160009054906101000a900463ffffffff1663ffffffff1663ffffffff1681526020016000820160049054906101000a900463ffffffff1663ffffffff1663ffffffff1681526020016000820160089054906101000a900463ffffffff1663ffffffff1663ffffffff16815260200160008201600c9054906101000a900463ffffffff1663ffffffff1663ffffffff1681526020016000820160109054906101000a900463ffffffff1663ffffffff1663ffffffff1681526020016000820160149054906101000a900463ffffffff1663ffffffff1663ffffffff1681525050815250509050610edc84600081518110610eb757fe5b60200260200101518260c001516000015163ffffffff1661166190919063ffffffff16565b8160c001516000019063ffffffff16908163ffffffff1681525050610f2c84600181518110610f0757fe5b60200260200101518260c001516020015163ffffffff1661166190919063ffffffff16565b8160c001516020019063ffffffff16908163ffffffff1681525050610f7c84600281518110610f5757fe5b60200260200101518260c001516040015163ffffffff1661166190919063ffffffff16565b8160c001516040019063ffffffff16908163ffffffff1681525050610fcc84600381518110610fa757fe5b60200260200101518260c001516060015163ffffffff1661166190919063ffffffff16565b8160c001516060019063ffffffff16908163ffffffff168152505061101c84600481518110610ff757fe5b60200260200101518260c001516080015163ffffffff1661166190919063ffffffff16565b8160c001516080019063ffffffff16908163ffffffff168152505061106c8460058151811061104757fe5b60200260200101518260c0015160a0015163ffffffff1661166190919063ffffffff16565b8160c0015160a0019063ffffffff16908163ffffffff168152505061108f61177a565b604051806101e001604052808c8152602001836000015181526020018360400151815260200183606001518152602001600163ffffffff168152602001600654420163ffffffff168152602001600754420163ffffffff1681526020016110f58d611689565b151581526020018b81526020018a815260200189815260200160008152602001836020015181526020018360a00151151581526020018360c001518152509050600060016008839080600181540180825580915050906001820390600052602060002090600c020160009091929091909150600082015181600001908051906020019061118392919061180c565b5060208201518160010190805190602001906111a092919061180c565b5060408201518160020190805190602001906111bd92919061180c565b5060608201518160030190805190602001906111da92919061180c565b5060808201518160040160006101000a81548163ffffffff021916908363ffffffff16021790555060a08201518160040160046101000a81548163ffffffff021916908363ffffffff16021790555060c08201518160040160086101000a81548163ffffffff021916908363ffffffff16021790555060e082015181600401600c6101000a81548160ff021916908315150217905550610100820151816005015561012082015181600601556101408201518160070155610160820151816008015561018082015181600901556101a082015181600a0160006101000a81548160ff0219169083151502179055506101c082015181600b0160008201518160000160006101000a81548163ffffffff021916908363ffffffff16021790555060208201518160000160046101000a81548163ffffffff021916908363ffffffff16021790555060408201518160000160086101000a81548163ffffffff021916908363ffffffff160217905550606082015181600001600c6101000a81548163ffffffff021916908363ffffffff16021790555060808201518160000160106101000a81548163ffffffff021916908363ffffffff16021790555060a08201518160000160146101000a81548163ffffffff021916908363ffffffff16021790555050505050039050336009600083815260200190815260200160002060006101000a81548173ffffffffffffffffffffffffffffffffffffffff021916908373ffffffffffffffffffffffffffffffffffffffff1602179055506114686001600a60003373ffffffffffffffffffffffffffffffffffffffff1673ffffffffffffffffffffffffffffffffffffffff1681526020019081526020016000205461171990919063ffffffff16565b600a60003373ffffffffffffffffffffffffffffffffffffffff1673ffffffffffffffffffffffffffffffffffffffff168152602001908152602001600020819055507fb2ddd0094c7d8b02387161898cbaa1bbcb4cee4731fdeceb76548071724adcd2818d8d6040518084815260200180602001838152602001828103825284818151815260200191508051906020019080838360005b8381101561151b578082015181840152602081019050611500565b50505050905090810190601f1680156115485780820380516001836020036101000a031916815260200191505b5094505050505060405180910390a180965050505050505095945050505050565b600073ffffffffffffffffffffffffffffffffffffffff168173ffffffffffffffffffffffffffffffffffffffff1614156115a357600080fd5b8073ffffffffffffffffffffffffffffffffffffffff166000809054906101000a900473ffffffffffffffffffffffffffffffffffffffff1673ffffffffffffffffffffffffffffffffffffffff167f8be0079c531659141344cd1fd0a4f28419497f9722a3daafe3b4186f6b6457e060405160405180910390a3806000806101000a81548173ffffffffffffffffffffffffffffffffffffffff021916908373ffffffffffffffffffffffffffffffffffffffff16021790555050565b60008082840190508363ffffffff168163ffffffff16101561167f57fe5b8091505092915050565b600080826040516020018082805190602001908083835b602083106116c357805182526020820191506020810190506020830392506116a0565b6001836020036101000a0380198251168184511680821785525050505050509050019150506040516020818303038152906040528051906020012060001c905060006002828161170f57fe5b0614915050919050565b60008082840190508381101561172b57fe5b8091505092915050565b6040518060e00160405280606081526020016000815260200160608152602001606081526020016000815260200160001515815260200161177461188c565b81525090565b604051806101e0016040528060608152602001606081526020016060815260200160608152602001600063ffffffff168152602001600063ffffffff168152602001600063ffffffff168152602001600015158152602001600081526020016000815260200160008152602001600081526020016000815260200160001515815260200161180661188c565b81525090565b828054600181600116156101000203166002900490600052602060002090601f016020900481019282601f1061184d57805160ff191683800117855561187b565b8280016001018555821561187b579182015b8281111561187a57825182559160200191906001019061185f565b5b50905061188891906118e6565b5090565b6040518060c00160405280600063ffffffff168152602001600063ffffffff168152602001600063ffffffff168152602001600063ffffffff168152602001600063ffffffff168152602001600063ffffffff1681525090565b61190891905b808211156119045760008160009055506001016118ec565b5090565b9056fea265627a7a7231582067c4e8b5337fc9780c7b7151b3f0b00fe1ee64f76805c0ba6d0ddcb527e2155664736f6c63430005100032",
  "source": "pragma solidity >=0.5.0 <0.6.0;\n\nimport \"./SafeMath.sol\";\nimport \"./Base.sol\";\n\ncontract PokemonCardFactory is Base {\n\tusing SafeMath for uint256;\n\tusing SafeMath32 for uint32;\n\tusing SafeMath16 for uint16;\n\n\tevent NewPokemon(uint pokemonId, string name, uint dna);\n\n\tuint dnaDigits = 16;\n\tuint dnaModulus = 10 ** dnaDigits;\n\tuint battleCooldownTime = 1 days;\n\tuint breedingCooldownTime = 10 days;\n\n\tstruct Pokemon {\n\t\tstring nickname;\n\t\tstring name;\n\t\tstring type1;\n\t\tstring type2;\n\t\tuint32 level;\n\t\tuint32 battleReadyTime;\n\t\tuint32 breedingReadyTime;\n\t\tbool gender;\n\t\tuint dna;\n\t\tuint fatherId;\n\t\tuint motherId;\n\t\tuint breedingWithId;\n\t\tuint pokemonNumber;\n\t\tbool legendary;\n\t\tBaseStats baseStats;\n\t}\n\n\tPokemon[] pokemons;\n\n\tmapping (uint => address) public pokemonToOwner;\n\tmapping (address => uint) ownerPokemonCount;\n\n\tfunction _generateRandomGender(string memory _str) private pure returns (bool) {\n\t\tuint rand = uint(keccak256(abi.encodePacked(_str)));\n\t\treturn (rand % 2 == 0);\n\t}\n\n\tfunction _generateRandomDna(string memory _str) private view returns (uint) {\n\t\tuint rand = uint(keccak256(abi.encodePacked(_str)));\n\t\treturn rand % dnaModulus;\n\t}\n\n\tfunction _createPokemon(string memory _name, uint _dna, uint _fatherId, uint _motherId, uint _pokemonNumber) internal returns (uint) {\n\t\tuint32[] memory variant = new uint32[](6);\n\t\tuint clone = _dna;\n\t\tuint temp;\n\t\tfor (uint index = 0; index < 6; index++) {\n\t\t\ttemp = clone % 10;\n\t\t\tvariant[index] = uint32(temp);\n\t\t\tclone = (clone - temp) / 10;\n\t\t}\n\n\t\tBasePokemon memory basePokemon = basePokemons[_pokemonNumber];\n\t\tbasePokemon.stats.hp = basePokemon.stats.hp.add(variant[0]);\n\t\tbasePokemon.stats.attack = basePokemon.stats.attack.add(variant[1]);\n\t\tbasePokemon.stats.defense = basePokemon.stats.defense.add(variant[2]);\n\t\tbasePokemon.stats.specialAttack = basePokemon.stats.specialAttack.add(variant[3]);\n\t\tbasePokemon.stats.specialDefense = basePokemon.stats.specialDefense.add(variant[4]);\n\t\tbasePokemon.stats.speed = basePokemon.stats.speed.add(variant[5]);\n\n\t\tPokemon memory _pokemon = Pokemon({\n\t\t\tnickname: _name,\n\t\t\tname: basePokemon.name,\n\t\t\ttype1: basePokemon.type1,\n\t\t\ttype2: basePokemon.type2,\n\t\t\tpokemonNumber: basePokemon.number,\n\t\t\tlegendary: basePokemon.legendary,\n\t\t\tlevel: 1,\n\t\t\tbattleReadyTime: uint32(now + battleCooldownTime),\n\t\t\tbreedingReadyTime: uint32(now + breedingCooldownTime),\n\t\t\tgender: _generateRandomGender(_name),\n\t\t\tdna: _dna,\n\t\t\tfatherId: _fatherId,\n\t\t\tmotherId: _motherId,\n\t\t\tbreedingWithId: 0,\n\t\t\tbaseStats: basePokemon.stats\n\t\t\t});\n\n\t\tuint id = pokemons.push(_pokemon) - 1;\n\t\tpokemonToOwner[id] = msg.sender;\n\t\townerPokemonCount[msg.sender] = ownerPokemonCount[msg.sender].add(1);\n\t\temit NewPokemon(id, _name, _dna);\n\t\treturn id;\n\t}\n\n\tfunction createStarterPokemon(string memory _nickname, uint _pokemonNumber) public {\n\t\trequire(ownerPokemonCount[msg.sender] == 0);\n\t\trequire(_pokemonNumber == 0 || _pokemonNumber == 3 || _pokemonNumber == 6);\n\t\tuint randDna = _generateRandomDna(_nickname);\n\t\t_createPokemon(_nickname, randDna, 0, 0, _pokemonNumber);\n\t}\n\n\tfunction _breedPokemon(string memory _nickname, uint _fatherId, uint _motherId) internal {\n\t\tPokemon storage _mother = pokemons[_motherId];\n\t\tuint _pokemonNumber = _mother.pokemonNumber;\n\t\tuint _originPokemonNumber = origin[_pokemonNumber];\n\t\tuint randDna = _generateRandomDna(_nickname);\n\t\t_createPokemon(_nickname, randDna, _fatherId, _motherId, _originPokemonNumber);\n\t}\n\n\tmodifier ownerOfPokemon(uint _pokemonId) {\n\t\trequire(msg.sender == pokemonToOwner[_pokemonId]);\n\t\t_;\n\t}\n\n\tfunction isNewTrainer() public view returns (bool) {\n\t\treturn (ownerPokemonCount[msg.sender] == 0);\n\t}\n}",
  "sourcePath": "/Users/ztq/Dropbox/Computer Science/CO467/crypto-pokemons/contracts/PokemonCardFactory.sol",
  "compiler": {
    "name": "solc",
    "version": "0.5.16+commit.9c3226ce.Emscripten.clang"
  },
  "schemaVersion": "3.0.23",
  "updatedAt": "2020-02-08T23:13:49.065Z",
  "networkType": "ethereum",
  "devdoc": {
    "methods": {
      "isOwner()": {
        "return": "true if `msg.sender` is the owner of the contract."
      },
      "owner()": {
        "return": "the address of the owner."
      },
      "renounceOwnership()": {
        "details": "Allows the current owner to relinquish control of the contract."
      },
      "transferOwnership(address)": {
        "details": "Allows the current owner to transfer control of the contract to a newOwner.",
        "params": {
          "newOwner": "The address to transfer ownership to."
        }
      }
    }
  },
  "userdoc": {
    "methods": {
      "renounceOwnership()": {
        "notice": "Renouncing to ownership will leave the contract without an owner. It will not be possible to call the functions with the `onlyOwner` modifier anymore."
      }
    }
  }
}