{
  "contractName": "PokemonCardFactory",
  "abi": [
    {
      "inputs": [],
      "payable": false,
      "stateMutability": "nonpayable",
      "type": "constructor"
    },
    {
      "anonymous": false,
      "inputs": [
        {
          "indexed": false,
          "internalType": "uint256",
          "name": "pokemonId",
          "type": "uint256"
        },
        {
          "indexed": false,
          "internalType": "string",
          "name": "name",
          "type": "string"
        },
        {
          "indexed": false,
          "internalType": "uint256",
          "name": "dna",
          "type": "uint256"
        }
      ],
      "name": "NewPokemon",
      "type": "event"
    },
    {
      "anonymous": false,
      "inputs": [
        {
          "indexed": true,
          "internalType": "address",
          "name": "previousOwner",
          "type": "address"
        },
        {
          "indexed": true,
          "internalType": "address",
          "name": "newOwner",
          "type": "address"
        }
      ],
      "name": "OwnershipTransferred",
      "type": "event"
    },
    {
      "constant": true,
      "inputs": [
        {
          "internalType": "uint256",
          "name": "pokemonNumber",
          "type": "uint256"
        }
      ],
      "name": "getBasicPokemonInfo",
      "outputs": [
        {
          "internalType": "string",
          "name": "",
          "type": "string"
        },
        {
          "internalType": "string",
          "name": "",
          "type": "string"
        },
        {
          "internalType": "string",
          "name": "",
          "type": "string"
        },
        {
          "internalType": "bool",
          "name": "",
          "type": "bool"
        }
      ],
      "payable": false,
      "stateMutability": "view",
      "type": "function"
    },
    {
      "constant": true,
      "inputs": [
        {
          "internalType": "uint256",
          "name": "pokemonNumber",
          "type": "uint256"
        }
      ],
      "name": "getPokemonName",
      "outputs": [
        {
          "internalType": "string",
          "name": "",
          "type": "string"
        }
      ],
      "payable": false,
      "stateMutability": "view",
      "type": "function"
    },
    {
      "constant": true,
      "inputs": [],
      "name": "isOwner",
      "outputs": [
        {
          "internalType": "bool",
          "name": "",
          "type": "bool"
        }
      ],
      "payable": false,
      "stateMutability": "view",
      "type": "function"
    },
    {
      "constant": true,
      "inputs": [],
      "name": "owner",
      "outputs": [
        {
          "internalType": "address",
          "name": "",
          "type": "address"
        }
      ],
      "payable": false,
      "stateMutability": "view",
      "type": "function"
    },
    {
      "constant": true,
      "inputs": [
        {
          "internalType": "uint256",
          "name": "",
          "type": "uint256"
        }
      ],
      "name": "pokemonToOwner",
      "outputs": [
        {
          "internalType": "address payable",
          "name": "",
          "type": "address"
        }
      ],
      "payable": false,
      "stateMutability": "view",
      "type": "function"
    },
    {
      "constant": false,
      "inputs": [],
      "name": "renounceOwnership",
      "outputs": [],
      "payable": false,
      "stateMutability": "nonpayable",
      "type": "function"
    },
    {
      "constant": false,
      "inputs": [
        {
          "internalType": "address",
          "name": "newOwner",
          "type": "address"
        }
      ],
      "name": "transferOwnership",
      "outputs": [],
      "payable": false,
      "stateMutability": "nonpayable",
      "type": "function"
    },
    {
      "constant": false,
      "inputs": [
        {
          "internalType": "string",
          "name": "_nickname",
          "type": "string"
        },
        {
          "internalType": "uint256",
          "name": "_pokemonNumber",
          "type": "uint256"
        }
      ],
      "name": "createStarterPokemon",
      "outputs": [
        {
          "internalType": "uint256",
          "name": "",
          "type": "uint256"
        }
      ],
      "payable": false,
      "stateMutability": "nonpayable",
      "type": "function"
    },
    {
      "constant": true,
      "inputs": [],
      "name": "isNewTrainer",
      "outputs": [
        {
          "internalType": "bool",
          "name": "",
          "type": "bool"
        }
      ],
      "payable": false,
      "stateMutability": "view",
      "type": "function"
    },
    {
      "constant": true,
      "inputs": [],
      "name": "returnNumberOfPokemons",
      "outputs": [
        {
          "internalType": "uint256",
          "name": "",
          "type": "uint256"
        }
      ],
      "payable": false,
      "stateMutability": "view",
      "type": "function"
    },
    {
      "constant": true,
      "inputs": [],
      "name": "returnTotalNumberOfPokemons",
      "outputs": [
        {
          "internalType": "uint256",
          "name": "",
          "type": "uint256"
        }
      ],
      "payable": false,
      "stateMutability": "view",
      "type": "function"
    },
    {
      "constant": true,
      "inputs": [],
      "name": "getPokemonCardsByOwner",
      "outputs": [
        {
          "internalType": "uint256[]",
          "name": "",
          "type": "uint256[]"
        }
      ],
      "payable": false,
      "stateMutability": "view",
      "type": "function"
    },
    {
      "constant": true,
      "inputs": [
        {
          "internalType": "uint256",
          "name": "_pokemonId",
          "type": "uint256"
        }
      ],
      "name": "getPokemonInfo",
      "outputs": [
        {
          "internalType": "string",
          "name": "",
          "type": "string"
        },
        {
          "internalType": "string",
          "name": "",
          "type": "string"
        },
        {
          "internalType": "string",
          "name": "",
          "type": "string"
        },
        {
          "internalType": "string",
          "name": "",
          "type": "string"
        },
        {
          "internalType": "uint32",
          "name": "",
          "type": "uint32"
        },
        {
          "internalType": "uint256",
          "name": "",
          "type": "uint256"
        },
        {
          "internalType": "bool",
          "name": "",
          "type": "bool"
        }
      ],
      "payable": false,
      "stateMutability": "view",
      "type": "function"
    },
    {
      "constant": true,
      "inputs": [
        {
          "internalType": "uint256",
          "name": "_pokemonId",
          "type": "uint256"
        }
      ],
      "name": "getPokemonBreedingDetails",
      "outputs": [
        {
          "internalType": "uint32",
          "name": "",
          "type": "uint32"
        },
        {
          "internalType": "bool",
          "name": "",
          "type": "bool"
        },
        {
          "internalType": "uint256",
          "name": "",
          "type": "uint256"
        },
        {
          "internalType": "uint256",
          "name": "",
          "type": "uint256"
        },
        {
          "internalType": "uint256",
          "name": "",
          "type": "uint256"
        }
      ],
      "payable": false,
      "stateMutability": "view",
      "type": "function"
    },
    {
      "constant": true,
      "inputs": [
        {
          "internalType": "uint256",
          "name": "_pokemonId",
          "type": "uint256"
        }
      ],
      "name": "getPokemonBattleDetails",
      "outputs": [
        {
          "internalType": "uint32",
          "name": "",
          "type": "uint32"
        }
      ],
      "payable": false,
      "stateMutability": "view",
      "type": "function"
    },
    {
      "constant": true,
      "inputs": [
        {
          "internalType": "uint256",
          "name": "_pokemonId",
          "type": "uint256"
        }
      ],
      "name": "getPokemonStats",
      "outputs": [
        {
          "internalType": "uint32",
          "name": "",
          "type": "uint32"
        },
        {
          "internalType": "uint32",
          "name": "",
          "type": "uint32"
        },
        {
          "internalType": "uint32",
          "name": "",
          "type": "uint32"
        },
        {
          "internalType": "uint32",
          "name": "",
          "type": "uint32"
        },
        {
          "internalType": "uint32",
          "name": "",
          "type": "uint32"
        },
        {
          "internalType": "uint32",
          "name": "",
          "type": "uint32"
        }
      ],
      "payable": false,
      "stateMutability": "view",
      "type": "function"
    }
  ],
  "bytecode": "0x60806040526010600455600454600a0a60055562015180600655620d2f006007553480156200002d57600080fd5b50336000806101000a81548173ffffffffffffffffffffffffffffffffffffffff021916908373ffffffffffffffffffffffffffffffffffffffff1602179055506000809054906101000a900473ffffffffffffffffffffffffffffffffffffffff1673ffffffffffffffffffffffffffffffffffffffff16600073ffffffffffffffffffffffffffffffffffffffff167f8be0079c531659141344cd1fd0a4f28419497f9722a3daafe3b4186f6b6457e060405160405180910390a3620001036200018d640100000000026401000000009004565b6200011c62001e77640100000000026401000000009004565b6200013562002595640100000000026401000000009004565b620001866040518060400160405280600781526020017f496e697469616c000000000000000000000000000000000000000000000000008152506000620034ed640100000000026401000000009004565b506200443d565b60036040518060e001604052806040518060400160405280600981526020017f42756c62617361757200000000000000000000000000000000000000000000008152508152602001600181526020016040518060400160405280600581526020017f477261737300000000000000000000000000000000000000000000000000000081525081526020016040518060400160405280600681526020017f506f69736f6e0000000000000000000000000000000000000000000000000000815250815260200161024681526020016000151581526020016040518060c00160405280602d63ffffffff168152602001603163ffffffff168152602001603163ffffffff168152602001604163ffffffff168152602001604163ffffffff168152602001602d63ffffffff168152508152509080600181540180825580915050906001820390600052602060002090600702016000909192909190915060008201518160000190805190602001906200030692919062004259565b506020820151816001015560408201518160020190805190602001906200032f92919062004259565b5060608201518160030190805190602001906200034e92919062004259565b506080820151816004015560a08201518160050160006101000a81548160ff02191690831515021790555060c08201518160060160008201518160000160006101000a81548163ffffffff021916908363ffffffff16021790555060208201518160000160046101000a81548163ffffffff021916908363ffffffff16021790555060408201518160000160086101000a81548163ffffffff021916908363ffffffff160217905550606082015181600001600c6101000a81548163ffffffff021916908363ffffffff16021790555060808201518160000160106101000a81548163ffffffff021916908363ffffffff16021790555060a08201518160000160146101000a81548163ffffffff021916908363ffffffff160217905550505050505060036040518060e001604052806040518060400160405280600781526020017f49767973617572000000000000000000000000000000000000000000000000008152508152602001600281526020016040518060400160405280600581526020017f477261737300000000000000000000000000000000000000000000000000000081525081526020016040518060400160405280600681526020017f506f69736f6e000000000000000000000000000000000000000000000000000081525081526020016101ef81526020016000151581526020016040518060c00160405280603c63ffffffff168152602001603e63ffffffff168152602001603f63ffffffff168152602001605063ffffffff168152602001605063ffffffff168152602001603c63ffffffff16815250815250908060018154018082558091505090600182039060005260206000209060070201600090919290919091506000820151816000019080519060200190620005ea92919062004259565b506020820151816001015560408201518160020190805190602001906200061392919062004259565b5060608201518160030190805190602001906200063292919062004259565b506080820151816004015560a08201518160050160006101000a81548160ff02191690831515021790555060c08201518160060160008201518160000160006101000a81548163ffffffff021916908363ffffffff16021790555060208201518160000160046101000a81548163ffffffff021916908363ffffffff16021790555060408201518160000160086101000a81548163ffffffff021916908363ffffffff160217905550606082015181600001600c6101000a81548163ffffffff021916908363ffffffff16021790555060808201518160000160106101000a81548163ffffffff021916908363ffffffff16021790555060a08201518160000160146101000a81548163ffffffff021916908363ffffffff160217905550505050505060036040518060e001604052806040518060400160405280600881526020017f56656e75736175720000000000000000000000000000000000000000000000008152508152602001600381526020016040518060400160405280600581526020017f477261737300000000000000000000000000000000000000000000000000000081525081526020016040518060400160405280600681526020017f506f69736f6e0000000000000000000000000000000000000000000000000000815250815260200161017781526020016000151581526020016040518060c00160405280605063ffffffff168152602001605263ffffffff168152602001605363ffffffff168152602001606463ffffffff168152602001606463ffffffff168152602001605063ffffffff16815250815250908060018154018082558091505090600182039060005260206000209060070201600090919290919091506000820151816000019080519060200190620008ce92919062004259565b50602082015181600101556040820151816002019080519060200190620008f792919062004259565b5060608201518160030190805190602001906200091692919062004259565b506080820151816004015560a08201518160050160006101000a81548160ff02191690831515021790555060c08201518160060160008201518160000160006101000a81548163ffffffff021916908363ffffffff16021790555060208201518160000160046101000a81548163ffffffff021916908363ffffffff16021790555060408201518160000160086101000a81548163ffffffff021916908363ffffffff160217905550606082015181600001600c6101000a81548163ffffffff021916908363ffffffff16021790555060808201518160000160106101000a81548163ffffffff021916908363ffffffff16021790555060a08201518160000160146101000a81548163ffffffff021916908363ffffffff160217905550505050505060036040518060e001604052806040518060400160405280600a81526020017f436861726d616e646572000000000000000000000000000000000000000000008152508152602001600481526020016040518060400160405280600481526020017f466972650000000000000000000000000000000000000000000000000000000081525081526020016040518060400160405280600381526020017f6e616e0000000000000000000000000000000000000000000000000000000000815250815260200161024f81526020016000151581526020016040518060c00160405280602763ffffffff168152602001603463ffffffff168152602001602b63ffffffff168152602001603c63ffffffff168152602001603263ffffffff168152602001604163ffffffff1681525081525090806001815401808255809150509060018203906000526020600020906007020160009091929091909150600082015181600001908051906020019062000bb292919062004259565b5060208201518160010155604082015181600201908051906020019062000bdb92919062004259565b50606082015181600301908051906020019062000bfa92919062004259565b506080820151816004015560a08201518160050160006101000a81548160ff02191690831515021790555060c08201518160060160008201518160000160006101000a81548163ffffffff021916908363ffffffff16021790555060208201518160000160046101000a81548163ffffffff021916908363ffffffff16021790555060408201518160000160086101000a81548163ffffffff021916908363ffffffff160217905550606082015181600001600c6101000a81548163ffffffff021916908363ffffffff16021790555060808201518160000160106101000a81548163ffffffff021916908363ffffffff16021790555060a08201518160000160146101000a81548163ffffffff021916908363ffffffff160217905550505050505060036040518060e001604052806040518060400160405280600a81526020017f436861726d656c656f6e000000000000000000000000000000000000000000008152508152602001600581526020016040518060400160405280600481526020017f466972650000000000000000000000000000000000000000000000000000000081525081526020016040518060400160405280600381526020017f6e616e000000000000000000000000000000000000000000000000000000000081525081526020016101ef81526020016000151581526020016040518060c00160405280603a63ffffffff168152602001604063ffffffff168152602001603a63ffffffff168152602001605063ffffffff168152602001604163ffffffff168152602001605063ffffffff1681525081525090806001815401808255809150509060018203906000526020600020906007020160009091929091909150600082015181600001908051906020019062000e9692919062004259565b5060208201518160010155604082015181600201908051906020019062000ebf92919062004259565b50606082015181600301908051906020019062000ede92919062004259565b506080820151816004015560a08201518160050160006101000a81548160ff02191690831515021790555060c08201518160060160008201518160000160006101000a81548163ffffffff021916908363ffffffff16021790555060208201518160000160046101000a81548163ffffffff021916908363ffffffff16021790555060408201518160000160086101000a81548163ffffffff021916908363ffffffff160217905550606082015181600001600c6101000a81548163ffffffff021916908363ffffffff16021790555060808201518160000160106101000a81548163ffffffff021916908363ffffffff16021790555060a08201518160000160146101000a81548163ffffffff021916908363ffffffff160217905550505050505060036040518060e001604052806040518060400160405280600981526020017f43686172697a61726400000000000000000000000000000000000000000000008152508152602001600681526020016040518060400160405280600481526020017f466972650000000000000000000000000000000000000000000000000000000081525081526020016040518060400160405280600681526020017f466c79696e670000000000000000000000000000000000000000000000000000815250815260200161016e81526020016000151581526020016040518060c00160405280604e63ffffffff168152602001605463ffffffff168152602001604e63ffffffff168152602001606d63ffffffff168152602001605563ffffffff168152602001606463ffffffff168152508152509080600181540180825580915050906001820390600052602060002090600702016000909192909190915060008201518160000190805190602001906200117a92919062004259565b50602082015181600101556040820151816002019080519060200190620011a392919062004259565b506060820151816003019080519060200190620011c292919062004259565b506080820151816004015560a08201518160050160006101000a81548160ff02191690831515021790555060c08201518160060160008201518160000160006101000a81548163ffffffff021916908363ffffffff16021790555060208201518160000160046101000a81548163ffffffff021916908363ffffffff16021790555060408201518160000160086101000a81548163ffffffff021916908363ffffffff160217905550606082015181600001600c6101000a81548163ffffffff021916908363ffffffff16021790555060808201518160000160106101000a81548163ffffffff021916908363ffffffff16021790555060a08201518160000160146101000a81548163ffffffff021916908363ffffffff160217905550505050505060036040518060e001604052806040518060400160405280600881526020017f5371756972746c650000000000000000000000000000000000000000000000008152508152602001600781526020016040518060400160405280600581526020017f576174657200000000000000000000000000000000000000000000000000000081525081526020016040518060400160405280600381526020017f6e616e0000000000000000000000000000000000000000000000000000000000815250815260200161024a81526020016000151581526020016040518060c00160405280602c63ffffffff168152602001603063ffffffff168152602001604163ffffffff168152602001603263ffffffff168152602001604063ffffffff168152602001602b63ffffffff168152508152509080600181540180825580915050906001820390600052602060002090600702016000909192909190915060008201518160000190805190602001906200145e92919062004259565b506020820151816001015560408201518160020190805190602001906200148792919062004259565b506060820151816003019080519060200190620014a692919062004259565b506080820151816004015560a08201518160050160006101000a81548160ff02191690831515021790555060c08201518160060160008201518160000160006101000a81548163ffffffff021916908363ffffffff16021790555060208201518160000160046101000a81548163ffffffff021916908363ffffffff16021790555060408201518160000160086101000a81548163ffffffff021916908363ffffffff160217905550606082015181600001600c6101000a81548163ffffffff021916908363ffffffff16021790555060808201518160000160106101000a81548163ffffffff021916908363ffffffff16021790555060a08201518160000160146101000a81548163ffffffff021916908363ffffffff160217905550505050505060036040518060e001604052806040518060400160405280600981526020017f576172746f72746c6500000000000000000000000000000000000000000000008152508152602001600881526020016040518060400160405280600581526020017f576174657200000000000000000000000000000000000000000000000000000081525081526020016040518060400160405280600381526020017f6e616e000000000000000000000000000000000000000000000000000000000081525081526020016101ef81526020016000151581526020016040518060c00160405280603b63ffffffff168152602001603f63ffffffff168152602001605063ffffffff168152602001604163ffffffff168152602001605063ffffffff168152602001603a63ffffffff168152508152509080600181540180825580915050906001820390600052602060002090600702016000909192909190915060008201518160000190805190602001906200174292919062004259565b506020820151816001015560408201518160020190805190602001906200176b92919062004259565b5060608201518160030190805190602001906200178a92919062004259565b506080820151816004015560a08201518160050160006101000a81548160ff02191690831515021790555060c08201518160060160008201518160000160006101000a81548163ffffffff021916908363ffffffff16021790555060208201518160000160046101000a81548163ffffffff021916908363ffffffff16021790555060408201518160000160086101000a81548163ffffffff021916908363ffffffff160217905550606082015181600001600c6101000a81548163ffffffff021916908363ffffffff16021790555060808201518160000160106101000a81548163ffffffff021916908363ffffffff16021790555060a08201518160000160146101000a81548163ffffffff021916908363ffffffff160217905550505050505060036040518060e001604052806040518060400160405280600981526020017f426c6173746f69736500000000000000000000000000000000000000000000008152508152602001600981526020016040518060400160405280600581526020017f576174657200000000000000000000000000000000000000000000000000000081525081526020016040518060400160405280600381526020017f6e616e0000000000000000000000000000000000000000000000000000000000815250815260200161017281526020016000151581526020016040518060c00160405280604f63ffffffff168152602001605363ffffffff168152602001606463ffffffff168152602001605563ffffffff168152602001606963ffffffff168152602001604e63ffffffff1681525081525090806001815401808255809150509060018203906000526020600020906007020160009091929091909150600082015181600001908051906020019062001a2692919062004259565b5060208201518160010155604082015181600201908051906020019062001a4f92919062004259565b50606082015181600301908051906020019062001a6e92919062004259565b506080820151816004015560a08201518160050160006101000a81548160ff02191690831515021790555060c08201518160060160008201518160000160006101000a81548163ffffffff021916908363ffffffff16021790555060208201518160000160046101000a81548163ffffffff021916908363ffffffff16021790555060408201518160000160086101000a81548163ffffffff021916908363ffffffff160217905550606082015181600001600c6101000a81548163ffffffff021916908363ffffffff16021790555060808201518160000160106101000a81548163ffffffff021916908363ffffffff16021790555060a08201518160000160146101000a81548163ffffffff021916908363ffffffff160217905550505050505060036040518060e001604052806040518060400160405280600881526020017f43617465727069650000000000000000000000000000000000000000000000008152508152602001600a81526020016040518060400160405280600381526020017f427567000000000000000000000000000000000000000000000000000000000081525081526020016040518060400160405280600381526020017f6e616e000000000000000000000000000000000000000000000000000000000081525081526020016102c181526020016000151581526020016040518060c00160405280602d63ffffffff168152602001601e63ffffffff168152602001602363ffffffff168152602001601463ffffffff168152602001601463ffffffff168152602001602d63ffffffff1681525081525090806001815401808255809150509060018203906000526020600020906007020160009091929091909150600082015181600001908051906020019062001d0a92919062004259565b5060208201518160010155604082015181600201908051906020019062001d3392919062004259565b50606082015181600301908051906020019062001d5292919062004259565b506080820151816004015560a08201518160050160006101000a81548160ff02191690831515021790555060c08201518160060160008201518160000160006101000a81548163ffffffff021916908363ffffffff16021790555060208201518160000160046101000a81548163ffffffff021916908363ffffffff16021790555060408201518160000160086101000a81548163ffffffff021916908363ffffffff160217905550606082015181600001600c6101000a81548163ffffffff021916908363ffffffff16021790555060808201518160000160106101000a81548163ffffffff021916908363ffffffff16021790555060a08201518160000160146101000a81548163ffffffff021916908363ffffffff1602179055505050505050565b600260016000600181526020019081526020016000208190555060036001600060028152602001908152602001600020819055506005600160006004815260200190815260200160002081905550600660016000600581526020019081526020016000208190555060086001600060078152602001908152602001600020819055506009600160006008815260200190815260200160002081905550600b60016000600a815260200190815260200160002081905550600c60016000600b815260200190815260200160002081905550600e60016000600d815260200190815260200160002081905550600f60016000600e81526020019081526020016000208190555060116001600060108152602001908152602001600020819055506012600160006011815260200190815260200160002081905550601460016000601381526020019081526020016000208190555060166001600060158152602001908152602001600020819055506018600160006017815260200190815260200160002081905550601a600160006019815260200190815260200160002081905550601c60016000601b815260200190815260200160002081905550601e60016000601d815260200190815260200160002081905550601f60016000601e81526020019081526020016000208190555060216001600060208152602001908152602001600020819055506022600160006021815260200190815260200160002081905550602460016000602381526020019081526020016000208190555060266001600060258152602001908152602001600020819055506028600160006027815260200190815260200160002081905550602a600160006029815260200190815260200160002081905550602c60016000602b815260200190815260200160002081905550602d60016000602c815260200190815260200160002081905550602f60016000602e81526020019081526020016000208190555060316001600060308152602001908152602001600020819055506033600160006032815260200190815260200160002081905550603560016000603481526020019081526020016000208190555060376001600060368152602001908152602001600020819055506039600160006038815260200190815260200160002081905550603b60016000603a815260200190815260200160002081905550603d60016000603c815260200190815260200160002081905550603e60016000603d815260200190815260200160002081905550604060016000603f815260200190815260200160002081905550604160016000604081526020019081526020016000208190555060436001600060428152602001908152602001600020819055506044600160006043815260200190815260200160002081905550604660016000604581526020019081526020016000208190555060476001600060468152602001908152602001600020819055506049600160006048815260200190815260200160002081905550604b60016000604a815260200190815260200160002081905550604c60016000604b815260200190815260200160002081905550604e60016000604d815260200190815260200160002081905550605060016000604f8152602001908152602001600020819055506052600160006051815260200190815260200160002081905550605560016000605481526020019081526020016000208190555060576001600060568152602001908152602001600020819055506059600160006058815260200190815260200160002081905550605b60016000605a815260200190815260200160002081905550605d60016000605c815260200190815260200160002081905550605e60016000605d81526020019081526020016000208190555060616001600060608152602001908152602001600020819055506063600160006062815260200190815260200160002081905550606560016000606481526020019081526020016000208190555060676001600060668152602001908152602001600020819055506069600160006068815260200190815260200160002081905550606e60016000606d815260200190815260200160002081905550607060016000606f81526020019081526020016000208190555060756001600060748152602001908152602001600020819055506077600160006076815260200190815260200160002081905550607960016000607881526020019081526020016000208190555060826001600060818152602001908152602001600020819055506086600160006085815260200190815260200160002081905550608b60016000608a815260200190815260200160002081905550608d60016000608c81526020019081526020016000208190555060946001600060938152602001908152602001600020819055506095600160006094815260200190815260200160002081905550565b600160026000600181526020019081526020016000208190555060016002600060028152602001908152602001600020819055506001600260006003815260200190815260200160002081905550600460026000600481526020019081526020016000208190555060046002600060058152602001908152602001600020819055506004600260006006815260200190815260200160002081905550600760026000600781526020019081526020016000208190555060076002600060088152602001908152602001600020819055506007600260006009815260200190815260200160002081905550600a60026000600a815260200190815260200160002081905550600a60026000600b815260200190815260200160002081905550600a60026000600c815260200190815260200160002081905550600d60026000600d815260200190815260200160002081905550600d60026000600e815260200190815260200160002081905550600d60026000600f8152602001908152602001600020819055506010600260006010815260200190815260200160002081905550601060026000601181526020019081526020016000208190555060106002600060128152602001908152602001600020819055506013600260006013815260200190815260200160002081905550601360026000601481526020019081526020016000208190555060156002600060158152602001908152602001600020819055506015600260006016815260200190815260200160002081905550601760026000601781526020019081526020016000208190555060176002600060188152602001908152602001600020819055506019600260006019815260200190815260200160002081905550601960026000601a815260200190815260200160002081905550601b60026000601b815260200190815260200160002081905550601b60026000601c815260200190815260200160002081905550601d60026000601d815260200190815260200160002081905550601d60026000601e815260200190815260200160002081905550601d60026000601f8152602001908152602001600020819055506020600260006020815260200190815260200160002081905550602060026000602181526020019081526020016000208190555060206002600060228152602001908152602001600020819055506023600260006023815260200190815260200160002081905550602360026000602481526020019081526020016000208190555060256002600060258152602001908152602001600020819055506025600260006026815260200190815260200160002081905550602760026000602781526020019081526020016000208190555060276002600060288152602001908152602001600020819055506029600260006029815260200190815260200160002081905550602960026000602a815260200190815260200160002081905550602b60026000602b815260200190815260200160002081905550602b60026000602c815260200190815260200160002081905550602b60026000602d815260200190815260200160002081905550602e60026000602e815260200190815260200160002081905550602e60026000602f8152602001908152602001600020819055506030600260006030815260200190815260200160002081905550603060026000603181526020019081526020016000208190555060326002600060328152602001908152602001600020819055506032600260006033815260200190815260200160002081905550603460026000603481526020019081526020016000208190555060346002600060358152602001908152602001600020819055506036600260006036815260200190815260200160002081905550603660026000603781526020019081526020016000208190555060386002600060388152602001908152602001600020819055506038600260006039815260200190815260200160002081905550603a60026000603a815260200190815260200160002081905550603a60026000603b815260200190815260200160002081905550603c60026000603c815260200190815260200160002081905550603c60026000603d815260200190815260200160002081905550603c60026000603e815260200190815260200160002081905550603f60026000603f815260200190815260200160002081905550603f600260006040815260200190815260200160002081905550603f60026000604181526020019081526020016000208190555060426002600060428152602001908152602001600020819055506042600260006043815260200190815260200160002081905550604260026000604481526020019081526020016000208190555060456002600060458152602001908152602001600020819055506045600260006046815260200190815260200160002081905550604560026000604781526020019081526020016000208190555060486002600060488152602001908152602001600020819055506048600260006049815260200190815260200160002081905550604a60026000604a815260200190815260200160002081905550604a60026000604b815260200190815260200160002081905550604a60026000604c815260200190815260200160002081905550604d60026000604d815260200190815260200160002081905550604d60026000604e815260200190815260200160002081905550604f60026000604f815260200190815260200160002081905550604f600260006050815260200190815260200160002081905550605160026000605181526020019081526020016000208190555060516002600060528152602001908152602001600020819055506053600260006053815260200190815260200160002081905550605460026000605481526020019081526020016000208190555060546002600060558152602001908152602001600020819055506056600260006056815260200190815260200160002081905550605660026000605781526020019081526020016000208190555060586002600060588152602001908152602001600020819055506058600260006059815260200190815260200160002081905550605a60026000605a815260200190815260200160002081905550605a60026000605b815260200190815260200160002081905550605c60026000605c815260200190815260200160002081905550605c60026000605d815260200190815260200160002081905550605c60026000605e815260200190815260200160002081905550605f60026000605f8152602001908152602001600020819055506060600260006060815260200190815260200160002081905550606060026000606181526020019081526020016000208190555060626002600060628152602001908152602001600020819055506062600260006063815260200190815260200160002081905550606460026000606481526020019081526020016000208190555060646002600060658152602001908152602001600020819055506066600260006066815260200190815260200160002081905550606660026000606781526020019081526020016000208190555060686002600060688152602001908152602001600020819055506068600260006069815260200190815260200160002081905550606a60026000606a815260200190815260200160002081905550606b60026000606b815260200190815260200160002081905550606c60026000606c815260200190815260200160002081905550606d60026000606d815260200190815260200160002081905550606d60026000606e815260200190815260200160002081905550606f60026000606f815260200190815260200160002081905550606f600260006070815260200190815260200160002081905550607160026000607181526020019081526020016000208190555060726002600060728152602001908152602001600020819055506073600260006073815260200190815260200160002081905550607460026000607481526020019081526020016000208190555060746002600060758152602001908152602001600020819055506076600260006076815260200190815260200160002081905550607660026000607781526020019081526020016000208190555060786002600060788152602001908152602001600020819055506078600260006079815260200190815260200160002081905550607a60026000607a815260200190815260200160002081905550607b60026000607b815260200190815260200160002081905550607c60026000607c815260200190815260200160002081905550607d60026000607d815260200190815260200160002081905550607e60026000607e815260200190815260200160002081905550607f60026000607f8152602001908152602001600020819055506080600260006080815260200190815260200160002081905550608160026000608181526020019081526020016000208190555060816002600060828152602001908152602001600020819055506083600260006083815260200190815260200160002081905550608460026000608481526020019081526020016000208190555060856002600060858152602001908152602001600020819055506085600260006086815260200190815260200160002081905550608760026000608781526020019081526020016000208190555060886002600060888152602001908152602001600020819055506089600260006089815260200190815260200160002081905550608a60026000608a815260200190815260200160002081905550608a60026000608b815260200190815260200160002081905550608c60026000608c815260200190815260200160002081905550608c60026000608d815260200190815260200160002081905550608e60026000608e815260200190815260200160002081905550608f60026000608f81526020019081526020016000208190555060906002600060908152602001908152602001600020819055506091600260006091815260200190815260200160002081905550609260026000609281526020019081526020016000208190555060936002600060938152602001908152602001600020819055506093600260006094815260200190815260200160002081905550609360026000609581526020019081526020016000208190555060966002600060968152602001908152602001600020819055506097600260006097815260200190815260200160002081905550565b600080600a60003373ffffffffffffffffffffffffffffffffffffffff1673ffffffffffffffffffffffffffffffffffffffff16815260200190815260200160002054146200353b57600080fd5b60008214806200354b5750600382145b80620035575750600682145b6200356157600080fd5b60006200357d84620035a7640100000000026401000000009004565b90506200359e84826000808762003639640100000000026401000000009004565b91505092915050565b600080826040516020018082805190602001908083835b60208310620035e35780518252602082019150602081019050602083039250620035be565b6001836020036101000a0380198251168184511680821785525050505050509050019150506040516020818303038152906040528051906020012060019004905060055481816200363057fe5b06915050919050565b6000606060066040519080825280602002602001820160405280156200366e5781602001602082028038833980820191505090505b5090506000869050600080600090505b6006811015620036dc57600a83816200369357fe5b06915081848281518110620036a457fe5b602002602001019063ffffffff16908163ffffffff1681525050600a82840381620036cb57fe5b04925080806001019150506200367e565b50620036e7620042e0565b60038681548110620036f557fe5b90600052602060002090600702016040518060e0016040529081600082018054600181600116156101000203166002900480601f016020809104026020016040519081016040528092919081815260200182805460018160011615610100020316600290048015620037ab5780601f106200377f57610100808354040283529160200191620037ab565b820191906000526020600020905b8154815290600101906020018083116200378d57829003601f168201915b5050505050815260200160018201548152602001600282018054600181600116156101000203166002900480601f0160208091040260200160405190810160405280929190818152602001828054600181600116156101000203166002900480156200385b5780601f106200382f576101008083540402835291602001916200385b565b820191906000526020600020905b8154815290600101906020018083116200383d57829003601f168201915b50505050508152602001600382018054600181600116156101000203166002900480601f016020809104026020016040519081016040528092919081815260200182805460018160011615610100020316600290048015620039015780601f10620038d55761010080835404028352916020019162003901565b820191906000526020600020905b815481529060010190602001808311620038e357829003601f168201915b50505050508152602001600482015481526020016005820160009054906101000a900460ff16151515158152602001600682016040518060c00160405290816000820160009054906101000a900463ffffffff1663ffffffff1663ffffffff1681526020016000820160049054906101000a900463ffffffff1663ffffffff1663ffffffff1681526020016000820160089054906101000a900463ffffffff1663ffffffff1663ffffffff16815260200160008201600c9054906101000a900463ffffffff1663ffffffff1663ffffffff1681526020016000820160109054906101000a900463ffffffff1663ffffffff1663ffffffff1681526020016000820160149054906101000a900463ffffffff1663ffffffff1663ffffffff168152505081525050905062003a6f8460008151811062003a3b57fe5b60200260200101518260c001516000015163ffffffff166200417f640100000000026200211c179091906401000000009004565b8160c001516000019063ffffffff16908163ffffffff168152505062003ad08460018151811062003a9c57fe5b60200260200101518260c001516020015163ffffffff166200417f640100000000026200211c179091906401000000009004565b8160c001516020019063ffffffff16908163ffffffff168152505062003b318460028151811062003afd57fe5b60200260200101518260c001516040015163ffffffff166200417f640100000000026200211c179091906401000000009004565b8160c001516040019063ffffffff16908163ffffffff168152505062003b928460038151811062003b5e57fe5b60200260200101518260c001516060015163ffffffff166200417f640100000000026200211c179091906401000000009004565b8160c001516060019063ffffffff16908163ffffffff168152505062003bf38460048151811062003bbf57fe5b60200260200101518260c001516080015163ffffffff166200417f640100000000026200211c179091906401000000009004565b8160c001516080019063ffffffff16908163ffffffff168152505062003c548460058151811062003c2057fe5b60200260200101518260c0015160a0015163ffffffff166200417f640100000000026200211c179091906401000000009004565b8160c0015160a0019063ffffffff16908163ffffffff168152505062003c7962004327565b604051806101e001604052808c8152602001836000015181526020018360400151815260200183606001518152602001600163ffffffff168152602001600654420163ffffffff168152602001600754420163ffffffff16815260200162003cf08d620041a8640100000000026401000000009004565b151581526020018b81526020018a815260200189815260200160008152602001836020015181526020018360a00151151581526020018360c001518152509050600060016008839080600181540180825580915050906001820390600052602060002090600c020160009091929091909150600082015181600001908051906020019062003d8092919062004259565b50602082015181600101908051906020019062003d9f92919062004259565b50604082015181600201908051906020019062003dbe92919062004259565b50606082015181600301908051906020019062003ddd92919062004259565b5060808201518160040160006101000a81548163ffffffff021916908363ffffffff16021790555060a08201518160040160046101000a81548163ffffffff021916908363ffffffff16021790555060c08201518160040160086101000a81548163ffffffff021916908363ffffffff16021790555060e082015181600401600c6101000a81548160ff021916908315150217905550610100820151816005015561012082015181600601556101408201518160070155610160820151816008015561018082015181600901556101a082015181600a0160006101000a81548160ff0219169083151502179055506101c082015181600b0160008201518160000160006101000a81548163ffffffff021916908363ffffffff16021790555060208201518160000160046101000a81548163ffffffff021916908363ffffffff16021790555060408201518160000160086101000a81548163ffffffff021916908363ffffffff160217905550606082015181600001600c6101000a81548163ffffffff021916908363ffffffff16021790555060808201518160000160106101000a81548163ffffffff021916908363ffffffff16021790555060a08201518160000160146101000a81548163ffffffff021916908363ffffffff16021790555050505050039050336009600083815260200190815260200160002060006101000a81548173ffffffffffffffffffffffffffffffffffffffff021916908373ffffffffffffffffffffffffffffffffffffffff1602179055506200407b6001600a60003373ffffffffffffffffffffffffffffffffffffffff1673ffffffffffffffffffffffffffffffffffffffff168152602001908152602001600020546200423c64010000000002620014dc179091906401000000009004565b600a60003373ffffffffffffffffffffffffffffffffffffffff1673ffffffffffffffffffffffffffffffffffffffff168152602001908152602001600020819055507fb2ddd0094c7d8b02387161898cbaa1bbcb4cee4731fdeceb76548071724adcd2818d8d6040518084815260200180602001838152602001828103825284818151815260200191508051906020019080838360005b838110156200413057808201518184015260208101905062004113565b50505050905090810190601f1680156200415e5780820380516001836020036101000a031916815260200191505b5094505050505060405180910390a180965050505050505095945050505050565b60008082840190508363ffffffff168163ffffffff1610156200419e57fe5b8091505092915050565b600080826040516020018082805190602001908083835b60208310620041e45780518252602082019150602081019050602083039250620041bf565b6001836020036101000a038019825116818451168082178552505050505050905001915050604051602081830303815290604052805190602001206001900490506000600282816200423257fe5b0614915050919050565b6000808284019050838110156200424f57fe5b8091505092915050565b828054600181600116156101000203166002900490600052602060002090601f016020900481019282601f106200429c57805160ff1916838001178555620042cd565b82800160010185558215620042cd579182015b82811115620042cc578251825591602001919060010190620042af565b5b509050620042dc9190620043bb565b5090565b6040518060e00160405280606081526020016000815260200160608152602001606081526020016000815260200160001515815260200162004321620043e3565b81525090565b604051806101e0016040528060608152602001606081526020016060815260200160608152602001600063ffffffff168152602001600063ffffffff168152602001600063ffffffff1681526020016000151581526020016000815260200160008152602001600081526020016000815260200160008152602001600015158152602001620043b5620043e3565b81525090565b620043e091905b80821115620043dc576000816000905550600101620043c2565b5090565b90565b6040518060c00160405280600063ffffffff168152602001600063ffffffff168152602001600063ffffffff168152602001600063ffffffff168152602001600063ffffffff168152602001600063ffffffff1681525090565b6123e0806200444d6000396000f3fe608060405234801561001057600080fd5b506004361061011d576000357c01000000000000000000000000000000000000000000000000000000009004806372f42958116100b45780638f32d59b116100835780638f32d59b1461079e578063bdfb5269146107c0578063c8e0d77414610899578063f2fde38b146109465761011d565b806372f42958146104c4578063835d75ab1461056b57806387f1fbf3146106f55780638da5cb5b146107545761011d565b806342945e48116100f057806342945e481461041057806351067f001461042e5780636dd25f6a1461044c578063715018a6146104ba5761011d565b80630dc2f10a1461012257806325540917146103325780632d90c7a7146103805780632f7467b3146103a2575b600080fd5b61014e6004803603602081101561013857600080fd5b810190808035906020019092919050505061098a565b60405180806020018060200180602001806020018863ffffffff1663ffffffff1681526020018781526020018615151515815260200185810385528c818151815260200191508051906020019080838360005b838110156101bc5780820151818401526020810190506101a1565b50505050905090810190601f1680156101e95780820380516001836020036101000a031916815260200191505b5085810384528b818151815260200191508051906020019080838360005b83811015610222578082015181840152602081019050610207565b50505050905090810190601f16801561024f5780820380516001836020036101000a031916815260200191505b5085810383528a818151815260200191508051906020019080838360005b8381101561028857808201518184015260208101905061026d565b50505050905090810190601f1680156102b55780820380516001836020036101000a031916815260200191505b50858103825289818151815260200191508051906020019080838360005b838110156102ee5780820151818401526020810190506102d3565b50505050905090810190601f16801561031b5780820380516001836020036101000a031916815260200191505b509b50505050505050505050505060405180910390f35b61035e6004803603602081101561034857600080fd5b8101908080359060200190929190505050610c79565b604051808263ffffffff1663ffffffff16815260200191505060405180910390f35b610388610cb6565b604051808215151515815260200191505060405180910390f35b6103ce600480360360208110156103b857600080fd5b8101908080359060200190929190505050610cff565b604051808273ffffffffffffffffffffffffffffffffffffffff1673ffffffffffffffffffffffffffffffffffffffff16815260200191505060405180910390f35b610418610d32565b6040518082815260200191505060405180910390f35b610436610d3f565b6040518082815260200191505060405180910390f35b6104786004803603602081101561046257600080fd5b8101908080359060200190929190505050610d86565b604051808663ffffffff1663ffffffff168152602001851515151581526020018481526020018381526020018281526020019550505050505060405180910390f35b6104c2610df6565b005b6104f0600480360360208110156104da57600080fd5b8101908080359060200190929190505050610ec6565b6040518080602001828103825283818151815260200191508051906020019080838360005b83811015610530578082015181840152602081019050610515565b50505050905090810190601f16801561055d5780820380516001836020036101000a031916815260200191505b509250505060405180910390f35b6105976004803603602081101561058157600080fd5b8101908080359060200190929190505050610f89565b6040518080602001806020018060200185151515158152602001848103845288818151815260200191508051906020019080838360005b838110156105e95780820151818401526020810190506105ce565b50505050905090810190601f1680156106165780820380516001836020036101000a031916815260200191505b50848103835287818151815260200191508051906020019080838360005b8381101561064f578082015181840152602081019050610634565b50505050905090810190601f16801561067c5780820380516001836020036101000a031916815260200191505b50848103825286818151815260200191508051906020019080838360005b838110156106b557808201518184015260208101905061069a565b50505050905090810190601f1680156106e25780820380516001836020036101000a031916815260200191505b5097505050505050505060405180910390f35b6106fd6111b3565b6040518080602001828103825283818151815260200191508051906020019060200280838360005b83811015610740578082015181840152602081019050610725565b505050509050019250505060405180910390f35b61075c6112ec565b604051808273ffffffffffffffffffffffffffffffffffffffff1673ffffffffffffffffffffffffffffffffffffffff16815260200191505060405180910390f35b6107a6611315565b604051808215151515815260200191505060405180910390f35b610883600480360360408110156107d657600080fd5b81019080803590602001906401000000008111156107f357600080fd5b82018360208201111561080557600080fd5b8035906020019184600183028401116401000000008311171561082757600080fd5b91908080601f016020809104026020016040519081016040528093929190818152602001838380828437600081840152601f19601f8201169050808301925050505050505091929192908035906020019092919050505061136c565b6040518082815260200191505060405180910390f35b6108c5600480360360208110156108af57600080fd5b8101908080359060200190929190505050611400565b604051808763ffffffff1663ffffffff1681526020018663ffffffff1663ffffffff1681526020018563ffffffff1663ffffffff1681526020018463ffffffff1663ffffffff1681526020018363ffffffff1663ffffffff1681526020018263ffffffff1663ffffffff168152602001965050505050505060405180910390f35b6109886004803603602081101561095c57600080fd5b81019080803573ffffffffffffffffffffffffffffffffffffffff1690602001909291905050506114bf565b005b606080606080600080600080600889815481106109a357fe5b90600052602060002090600c02019050806000018160010182600201836003018460040160009054906101000a900463ffffffff16856009015486600a0160009054906101000a900460ff16868054600181600116156101000203166002900480601f016020809104026020016040519081016040528092919081815260200182805460018160011615610100020316600290048015610a845780601f10610a5957610100808354040283529160200191610a84565b820191906000526020600020905b815481529060010190602001808311610a6757829003601f168201915b50505050509650858054600181600116156101000203166002900480601f016020809104026020016040519081016040528092919081815260200182805460018160011615610100020316600290048015610b205780601f10610af557610100808354040283529160200191610b20565b820191906000526020600020905b815481529060010190602001808311610b0357829003601f168201915b50505050509550848054600181600116156101000203166002900480601f016020809104026020016040519081016040528092919081815260200182805460018160011615610100020316600290048015610bbc5780601f10610b9157610100808354040283529160200191610bbc565b820191906000526020600020905b815481529060010190602001808311610b9f57829003601f168201915b50505050509450838054600181600116156101000203166002900480601f016020809104026020016040519081016040528092919081815260200182805460018160011615610100020316600290048015610c585780601f10610c2d57610100808354040283529160200191610c58565b820191906000526020600020905b815481529060010190602001808311610c3b57829003601f168201915b50505050509350975097509750975097509750975050919395979092949650565b60008060088381548110610c8957fe5b90600052602060002090600c020190508060040160049054906101000a900463ffffffff16915050919050565b600080600a60003373ffffffffffffffffffffffffffffffffffffffff1673ffffffffffffffffffffffffffffffffffffffff1681526020019081526020016000205414905090565b60096020528060005260406000206000915054906101000a900473ffffffffffffffffffffffffffffffffffffffff1681565b6000600880549050905090565b6000600a60003373ffffffffffffffffffffffffffffffffffffffff1673ffffffffffffffffffffffffffffffffffffffff16815260200190815260200160002054905090565b60008060008060008060088781548110610d9c57fe5b90600052602060002090600c020190508060040160089054906101000a900463ffffffff1681600401600c9054906101000a900460ff16826006015483600701548460080154955095509550955095505091939590929450565b610dfe611315565b610e0757600080fd5b600073ffffffffffffffffffffffffffffffffffffffff166000809054906101000a900473ffffffffffffffffffffffffffffffffffffffff1673ffffffffffffffffffffffffffffffffffffffff167f8be0079c531659141344cd1fd0a4f28419497f9722a3daafe3b4186f6b6457e060405160405180910390a360008060006101000a81548173ffffffffffffffffffffffffffffffffffffffff021916908373ffffffffffffffffffffffffffffffffffffffff160217905550565b606060036001830381548110610ed857fe5b90600052602060002090600702016000018054600181600116156101000203166002900480601f016020809104026020016040519081016040528092919081815260200182805460018160011615610100020316600290048015610f7d5780601f10610f5257610100808354040283529160200191610f7d565b820191906000526020600020905b815481529060010190602001808311610f6057829003601f168201915b50505050509050919050565b606080606060008060036001870381548110610fa157fe5b906000526020600020906007020190508060000181600201826003018360050160009054906101000a900460ff16838054600181600116156101000203166002900480601f0160208091040260200160405190810160405280929190818152602001828054600181600116156101000203166002900480156110645780601f1061103957610100808354040283529160200191611064565b820191906000526020600020905b81548152906001019060200180831161104757829003601f168201915b50505050509350828054600181600116156101000203166002900480601f0160208091040260200160405190810160405280929190818152602001828054600181600116156101000203166002900480156111005780601f106110d557610100808354040283529160200191611100565b820191906000526020600020905b8154815290600101906020018083116110e357829003601f168201915b50505050509250818054600181600116156101000203166002900480601f01602080910402602001604051908101604052809291908181526020018280546001816001161561010002031660029004801561119c5780601f106111715761010080835404028352916020019161119c565b820191906000526020600020905b81548152906001019060200180831161117f57829003601f168201915b505050505091509450945094509450509193509193565b606080600a60003373ffffffffffffffffffffffffffffffffffffffff1673ffffffffffffffffffffffffffffffffffffffff168152602001908152602001600020546040519080825280602002602001820160405280156112245781602001602082028038833980820191505090505b509050600080905060008090505b6008805490508110156112e3573373ffffffffffffffffffffffffffffffffffffffff166009600083815260200190815260200160002060009054906101000a900473ffffffffffffffffffffffffffffffffffffffff1673ffffffffffffffffffffffffffffffffffffffff1614156112d657808383815181106112b357fe5b6020026020010181815250506112d36001836114dc90919063ffffffff16565b91505b8080600101915050611232565b50819250505090565b60008060009054906101000a900473ffffffffffffffffffffffffffffffffffffffff16905090565b60008060009054906101000a900473ffffffffffffffffffffffffffffffffffffffff1673ffffffffffffffffffffffffffffffffffffffff163373ffffffffffffffffffffffffffffffffffffffff1614905090565b600080600a60003373ffffffffffffffffffffffffffffffffffffffff1673ffffffffffffffffffffffffffffffffffffffff16815260200190815260200160002054146113b957600080fd5b60008214806113c85750600382145b806113d35750600682145b6113dc57600080fd5b60006113e7846114f8565b90506113f7848260008087611587565b91505092915050565b60008060008060008060006008888154811061141857fe5b90600052602060002090600c0201600b0190508060000160009054906101000a900463ffffffff168160000160049054906101000a900463ffffffff168260000160089054906101000a900463ffffffff1683600001600c9054906101000a900463ffffffff168460000160109054906101000a900463ffffffff168560000160149054906101000a900463ffffffff169650965096509650965096505091939550919395565b6114c7611315565b6114d057600080fd5b6114d981612024565b50565b6000808284019050838110156114ee57fe5b8091505092915050565b600080826040516020018082805190602001908083835b60208310611532578051825260208201915060208101905060208303925061150f565b6001836020036101000a03801982511681845116808217855250505050505090500191505060405160208183030381529060405280519060200120600190049050600554818161157e57fe5b06915050919050565b6000606060066040519080825280602002602001820160405280156115bb5781602001602082028038833980820191505090505b5090506000869050600080600090505b600681101561162457600a83816115de57fe5b069150818482815181106115ee57fe5b602002602001019063ffffffff16908163ffffffff1681525050600a8284038161161457fe5b04925080806001019150506115cb565b5061162d6121d5565b6003868154811061163a57fe5b90600052602060002090600702016040518060e0016040529081600082018054600181600116156101000203166002900480601f0160208091040260200160405190810160405280929190818152602001828054600181600116156101000203166002900480156116ec5780601f106116c1576101008083540402835291602001916116ec565b820191906000526020600020905b8154815290600101906020018083116116cf57829003601f168201915b5050505050815260200160018201548152602001600282018054600181600116156101000203166002900480601f0160208091040260200160405190810160405280929190818152602001828054600181600116156101000203166002900480156117985780601f1061176d57610100808354040283529160200191611798565b820191906000526020600020905b81548152906001019060200180831161177b57829003601f168201915b50505050508152602001600382018054600181600116156101000203166002900480601f01602080910402602001604051908101604052809291908181526020018280546001816001161561010002031660029004801561183a5780601f1061180f5761010080835404028352916020019161183a565b820191906000526020600020905b81548152906001019060200180831161181d57829003601f168201915b50505050508152602001600482015481526020016005820160009054906101000a900460ff16151515158152602001600682016040518060c00160405290816000820160009054906101000a900463ffffffff1663ffffffff1663ffffffff1681526020016000820160049054906101000a900463ffffffff1663ffffffff1663ffffffff1681526020016000820160089054906101000a900463ffffffff1663ffffffff1663ffffffff16815260200160008201600c9054906101000a900463ffffffff1663ffffffff1663ffffffff1681526020016000820160109054906101000a900463ffffffff1663ffffffff1663ffffffff1681526020016000820160149054906101000a900463ffffffff1663ffffffff1663ffffffff16815250508152505090506119978460008151811061197257fe5b60200260200101518260c001516000015163ffffffff1661211c90919063ffffffff16565b8160c001516000019063ffffffff16908163ffffffff16815250506119e7846001815181106119c257fe5b60200260200101518260c001516020015163ffffffff1661211c90919063ffffffff16565b8160c001516020019063ffffffff16908163ffffffff1681525050611a3784600281518110611a1257fe5b60200260200101518260c001516040015163ffffffff1661211c90919063ffffffff16565b8160c001516040019063ffffffff16908163ffffffff1681525050611a8784600381518110611a6257fe5b60200260200101518260c001516060015163ffffffff1661211c90919063ffffffff16565b8160c001516060019063ffffffff16908163ffffffff1681525050611ad784600481518110611ab257fe5b60200260200101518260c001516080015163ffffffff1661211c90919063ffffffff16565b8160c001516080019063ffffffff16908163ffffffff1681525050611b2784600581518110611b0257fe5b60200260200101518260c0015160a0015163ffffffff1661211c90919063ffffffff16565b8160c0015160a0019063ffffffff16908163ffffffff1681525050611b4a61221a565b604051806101e001604052808c8152602001836000015181526020018360400151815260200183606001518152602001600163ffffffff168152602001600654420163ffffffff168152602001600754420163ffffffff168152602001611bb08d612144565b151581526020018b81526020018a815260200189815260200160008152602001836020015181526020018360a00151151581526020018360c001518152509050600060016008839080600181540180825580915050906001820390600052602060002090600c0201600090919290919091506000820151816000019080519060200190611c3e9291906122ac565b506020820151816001019080519060200190611c5b9291906122ac565b506040820151816002019080519060200190611c789291906122ac565b506060820151816003019080519060200190611c959291906122ac565b5060808201518160040160006101000a81548163ffffffff021916908363ffffffff16021790555060a08201518160040160046101000a81548163ffffffff021916908363ffffffff16021790555060c08201518160040160086101000a81548163ffffffff021916908363ffffffff16021790555060e082015181600401600c6101000a81548160ff021916908315150217905550610100820151816005015561012082015181600601556101408201518160070155610160820151816008015561018082015181600901556101a082015181600a0160006101000a81548160ff0219169083151502179055506101c082015181600b0160008201518160000160006101000a81548163ffffffff021916908363ffffffff16021790555060208201518160000160046101000a81548163ffffffff021916908363ffffffff16021790555060408201518160000160086101000a81548163ffffffff021916908363ffffffff160217905550606082015181600001600c6101000a81548163ffffffff021916908363ffffffff16021790555060808201518160000160106101000a81548163ffffffff021916908363ffffffff16021790555060a08201518160000160146101000a81548163ffffffff021916908363ffffffff16021790555050505050039050336009600083815260200190815260200160002060006101000a81548173ffffffffffffffffffffffffffffffffffffffff021916908373ffffffffffffffffffffffffffffffffffffffff160217905550611f236001600a60003373ffffffffffffffffffffffffffffffffffffffff1673ffffffffffffffffffffffffffffffffffffffff168152602001908152602001600020546114dc90919063ffffffff16565b600a60003373ffffffffffffffffffffffffffffffffffffffff1673ffffffffffffffffffffffffffffffffffffffff168152602001908152602001600020819055507fb2ddd0094c7d8b02387161898cbaa1bbcb4cee4731fdeceb76548071724adcd2818d8d6040518084815260200180602001838152602001828103825284818151815260200191508051906020019080838360005b83811015611fd6578082015181840152602081019050611fbb565b50505050905090810190601f1680156120035780820380516001836020036101000a031916815260200191505b5094505050505060405180910390a180965050505050505095945050505050565b600073ffffffffffffffffffffffffffffffffffffffff168173ffffffffffffffffffffffffffffffffffffffff16141561205e57600080fd5b8073ffffffffffffffffffffffffffffffffffffffff166000809054906101000a900473ffffffffffffffffffffffffffffffffffffffff1673ffffffffffffffffffffffffffffffffffffffff167f8be0079c531659141344cd1fd0a4f28419497f9722a3daafe3b4186f6b6457e060405160405180910390a3806000806101000a81548173ffffffffffffffffffffffffffffffffffffffff021916908373ffffffffffffffffffffffffffffffffffffffff16021790555050565b60008082840190508363ffffffff168163ffffffff16101561213a57fe5b8091505092915050565b600080826040516020018082805190602001908083835b6020831061217e578051825260208201915060208101905060208303925061215b565b6001836020036101000a038019825116818451168082178552505050505050905001915050604051602081830303815290604052805190602001206001900490506000600282816121cb57fe5b0614915050919050565b6040518060e00160405280606081526020016000815260200160608152602001606081526020016000815260200160001515815260200161221461232c565b81525090565b604051806101e0016040528060608152602001606081526020016060815260200160608152602001600063ffffffff168152602001600063ffffffff168152602001600063ffffffff16815260200160001515815260200160008152602001600081526020016000815260200160008152602001600081526020016000151581526020016122a661232c565b81525090565b828054600181600116156101000203166002900490600052602060002090601f016020900481019282601f106122ed57805160ff191683800117855561231b565b8280016001018555821561231b579182015b8281111561231a5782518255916020019190600101906122ff565b5b5090506123289190612386565b5090565b6040518060c00160405280600063ffffffff168152602001600063ffffffff168152602001600063ffffffff168152602001600063ffffffff168152602001600063ffffffff168152602001600063ffffffff1681525090565b6123a891905b808211156123a457600081600090555060010161238c565b5090565b9056fea265627a7a72315820bd032198313d709dd396ab73daae7cf647382b6b680486fd6c87c60fcbeba41764736f6c63430005100032",
  "source": "pragma solidity >=0.5.0 <0.6.0;\n\nimport \"./SafeMath.sol\";\nimport \"./Base.sol\";\n\ncontract PokemonCardFactory is Base {\n\tusing SafeMath for uint256;\n\tusing SafeMath32 for uint32;\n\tusing SafeMath16 for uint16;\n\n\tevent NewPokemon(uint pokemonId, string name, uint dna);\n\n\tuint dnaDigits = 16;\n\tuint dnaModulus = 10 ** dnaDigits;\n\tuint battleCooldownTime = 1 days;\n\tuint breedingCooldownTime = 10 days;\n\n\tstruct Pokemon {\n\t\tstring nickname;\n\t\tstring name;\n\t\tstring type1;\n\t\tstring type2;\n\t\tuint32 level;\n\t\tuint32 battleReadyTime;\n\t\tuint32 breedingReadyTime;\n\t\tbool gender;\n\t\tuint dna;\n\t\tuint fatherId;\n\t\tuint motherId;\n\t\tuint breedingWithId;\n\t\tuint pokemonNumber;\n\t\tbool legendary;\n\t\tBaseStats baseStats;\n\t}\n\n\tPokemon[] pokemons;\n\n\tmapping (uint => address payable) public pokemonToOwner;\n\tmapping (address => uint) ownerPokemonCount;\n\n\tconstructor() public {\n\t\tcreateStarterPokemon(\"Initial\", 0);\n\t}\n\n\tfunction _generateRandomGender(string memory _str) private pure returns (bool) {\n\t\tuint rand = uint(keccak256(abi.encodePacked(_str)));\n\t\treturn (rand % 2 == 0);\n\t}\n\n\tfunction _generateRandomDna(string memory _str) private view returns (uint) {\n\t\tuint rand = uint(keccak256(abi.encodePacked(_str)));\n\t\treturn rand % dnaModulus;\n\t}\n\n\tfunction _createPokemon(string memory _name, uint _dna, uint _fatherId, uint _motherId, uint _pokemonNumber) internal returns (uint) {\n\t\tuint32[] memory variant = new uint32[](6);\n\t\tuint clone = _dna;\n\t\tuint temp;\n\t\tfor (uint index = 0; index < 6; index++) {\n\t\t\ttemp = clone % 10;\n\t\t\tvariant[index] = uint32(temp);\n\t\t\tclone = (clone - temp) / 10;\n\t\t}\n\n\t\tBasePokemon memory basePokemon = basePokemons[_pokemonNumber];\n\t\tbasePokemon.stats.hp = basePokemon.stats.hp.add(variant[0]);\n\t\tbasePokemon.stats.attack = basePokemon.stats.attack.add(variant[1]);\n\t\tbasePokemon.stats.defense = basePokemon.stats.defense.add(variant[2]);\n\t\tbasePokemon.stats.specialAttack = basePokemon.stats.specialAttack.add(variant[3]);\n\t\tbasePokemon.stats.specialDefense = basePokemon.stats.specialDefense.add(variant[4]);\n\t\tbasePokemon.stats.speed = basePokemon.stats.speed.add(variant[5]);\n\n\t\tPokemon memory _pokemon = Pokemon({\n\t\t\tnickname: _name,\n\t\t\tname: basePokemon.name,\n\t\t\ttype1: basePokemon.type1,\n\t\t\ttype2: basePokemon.type2,\n\t\t\tpokemonNumber: basePokemon.number,\n\t\t\tlegendary: basePokemon.legendary,\n\t\t\tlevel: 1,\n\t\t\tbattleReadyTime: uint32(now + battleCooldownTime),\n\t\t\tbreedingReadyTime: uint32(now + breedingCooldownTime),\n\t\t\tgender: _generateRandomGender(_name),\n\t\t\tdna: _dna,\n\t\t\tfatherId: _fatherId,\n\t\t\tmotherId: _motherId,\n\t\t\tbreedingWithId: 0,\n\t\t\tbaseStats: basePokemon.stats\n\t\t\t});\n\n\t\tuint id = pokemons.push(_pokemon) - 1;\n\t\tpokemonToOwner[id] = msg.sender;\n\t\townerPokemonCount[msg.sender] = ownerPokemonCount[msg.sender].add(1);\n\t\temit NewPokemon(id, _name, _dna);\n\t\treturn id;\n\t}\n\n\tfunction createStarterPokemon(string memory _nickname, uint _pokemonNumber) public returns (uint){\n\t\trequire(ownerPokemonCount[msg.sender] == 0);\n\t\trequire(_pokemonNumber == 0 || _pokemonNumber == 3 || _pokemonNumber == 6);\n\t\tuint randDna = _generateRandomDna(_nickname);\n\t\treturn _createPokemon(_nickname, randDna, 0, 0, _pokemonNumber);\n\t}\n\n\tfunction _breedPokemon(string memory _nickname, uint _fatherId, uint _motherId) internal {\n\t\tPokemon storage _mother = pokemons[_motherId];\n\t\tuint _pokemonNumber = _mother.pokemonNumber;\n\t\tuint _originPokemonNumber = origin[_pokemonNumber];\n\t\tuint randDna = _generateRandomDna(_nickname);\n\t\t_createPokemon(_nickname, randDna, _fatherId, _motherId, _originPokemonNumber);\n\t}\n\n\tmodifier ownerOfPokemon(uint _pokemonId) {\n\t\trequire(msg.sender == pokemonToOwner[_pokemonId]);\n\t\t_;\n\t}\n\n\tfunction isNewTrainer() public view returns (bool) {\n\t\treturn (ownerPokemonCount[msg.sender] == 0);\n\t}\n\n\tfunction returnNumberOfPokemons() external view returns (uint) {\n\t\treturn ownerPokemonCount[msg.sender];\n\t}\n\n\tfunction returnTotalNumberOfPokemons() external view returns (uint) {\n\t\treturn pokemons.length;\n\t}\n\n\tfunction getPokemonCardsByOwner() external view returns (uint[] memory) {\n\t\tuint[] memory result = new uint[](ownerPokemonCount[msg.sender]);\n\t\tuint counter = 0;\n\t\tfor (uint i = 0; i < pokemons.length; i++) {\n\t\t\tif (pokemonToOwner[i] == msg.sender) {\n\t\t\t\tresult[counter] = i;\n\t\t\t\tcounter = counter.add(1);\n\t\t\t}\n\t\t}\n\t\treturn result;\n\t}\n\n\tfunction getPokemonInfo(uint _pokemonId) external view returns (\n\t\tstring memory,\n\t\tstring memory,\n\t\tstring memory,\n\t\tstring memory,\n\t\tuint32,\n\t\tuint,\n\t\tbool\n\t\t) {\n\n\t\tPokemon storage _pokemon = pokemons[_pokemonId];\n\n\t\treturn (_pokemon.nickname, _pokemon.name, _pokemon.type1, _pokemon.type2, _pokemon.level,\n\t\t \t_pokemon.pokemonNumber, _pokemon.legendary);\n\t}\n\n\tfunction getPokemonBreedingDetails(uint _pokemonId) external view returns (\n\t\tuint32,\n\t\tbool,\n\t\tuint,\n\t\tuint,\n\t\tuint\n\t\t) {\n\t\tPokemon storage _pokemon = pokemons[_pokemonId];\n\n\t\treturn (_pokemon.breedingReadyTime, _pokemon.gender, _pokemon.fatherId, _pokemon.motherId, _pokemon.breedingWithId);\n\t}\n\n\tfunction getPokemonBattleDetails(uint _pokemonId) external view returns (uint32) {\n\t\tPokemon storage _pokemon = pokemons[_pokemonId];\n\t\treturn _pokemon.battleReadyTime;\n\t}\n\n\tfunction getPokemonStats(uint _pokemonId) external view returns (\n\t\tuint32,\n\t\tuint32,\n\t\tuint32,\n\t\tuint32,\n\t\tuint32,\n\t\tuint32\n\t\t) {\n\t\tBaseStats storage stats = pokemons[_pokemonId].baseStats;\n\n\t\treturn (stats.hp, stats.attack, stats.defense, stats.specialAttack, stats.specialDefense, stats.speed);\n\t}\n}",
  "sourcePath": "/Users/ztq/Dropbox/Computer Science/CO467/crypto-pokemons/contracts/PokemonCardFactory.sol",
  "compiler": {
    "name": "solc",
    "version": "0.5.16+commit.9c3226ce.Emscripten.clang"
  },
  "schemaVersion": "3.0.23",
  "updatedAt": "2020-02-10T16:15:18.850Z",
  "devdoc": {
    "methods": {
      "isOwner()": {
        "return": "true if `msg.sender` is the owner of the contract."
      },
      "owner()": {
        "return": "the address of the owner."
      },
      "renounceOwnership()": {
        "details": "Allows the current owner to relinquish control of the contract."
      },
      "transferOwnership(address)": {
        "details": "Allows the current owner to transfer control of the contract to a newOwner.",
        "params": {
          "newOwner": "The address to transfer ownership to."
        }
      }
    }
  },
  "userdoc": {
    "methods": {
      "renounceOwnership()": {
        "notice": "Renouncing to ownership will leave the contract without an owner. It will not be possible to call the functions with the `onlyOwner` modifier anymore."
      }
    }
  }
}