{
  "contractName": "PokemonCardOwnership",
  "abi": [
    {
      "anonymous": false,
      "inputs": [
        {
          "indexed": true,
          "internalType": "address",
          "name": "_owner",
          "type": "address"
        },
        {
          "indexed": true,
          "internalType": "address",
          "name": "_approved",
          "type": "address"
        },
        {
          "indexed": true,
          "internalType": "uint256",
          "name": "_tokenId",
          "type": "uint256"
        }
      ],
      "name": "Approval",
      "type": "event"
    },
    {
      "anonymous": false,
      "inputs": [
        {
          "indexed": false,
          "internalType": "uint256",
          "name": "pokemonId",
          "type": "uint256"
        },
        {
          "indexed": false,
          "internalType": "string",
          "name": "name",
          "type": "string"
        },
        {
          "indexed": false,
          "internalType": "uint256",
          "name": "dna",
          "type": "uint256"
        }
      ],
      "name": "NewPokemon",
      "type": "event"
    },
    {
      "anonymous": false,
      "inputs": [
        {
          "indexed": true,
          "internalType": "address",
          "name": "previousOwner",
          "type": "address"
        },
        {
          "indexed": true,
          "internalType": "address",
          "name": "newOwner",
          "type": "address"
        }
      ],
      "name": "OwnershipTransferred",
      "type": "event"
    },
    {
      "anonymous": false,
      "inputs": [
        {
          "indexed": false,
          "internalType": "uint256",
          "name": "_pokemonId",
          "type": "uint256"
        }
      ],
      "name": "PokemonEvolve",
      "type": "event"
    },
    {
      "anonymous": false,
      "inputs": [
        {
          "indexed": false,
          "internalType": "uint256",
          "name": "_pokemonId",
          "type": "uint256"
        },
        {
          "indexed": false,
          "internalType": "uint256",
          "name": "newLevel",
          "type": "uint256"
        }
      ],
      "name": "PokemonLevelUp",
      "type": "event"
    },
    {
      "anonymous": false,
      "inputs": [
        {
          "indexed": false,
          "internalType": "address",
          "name": "owner",
          "type": "address"
        },
        {
          "indexed": false,
          "internalType": "uint256",
          "name": "motherId",
          "type": "uint256"
        },
        {
          "indexed": false,
          "internalType": "uint256",
          "name": "fatherId",
          "type": "uint256"
        }
      ],
      "name": "Pregnant",
      "type": "event"
    },
    {
      "anonymous": false,
      "inputs": [
        {
          "indexed": true,
          "internalType": "address",
          "name": "_from",
          "type": "address"
        },
        {
          "indexed": true,
          "internalType": "address",
          "name": "_to",
          "type": "address"
        },
        {
          "indexed": true,
          "internalType": "uint256",
          "name": "_tokenId",
          "type": "uint256"
        }
      ],
      "name": "Transfer",
      "type": "event"
    },
    {
      "constant": false,
      "inputs": [
        {
          "internalType": "uint256",
          "name": "_pokemonId",
          "type": "uint256"
        },
        {
          "internalType": "uint256",
          "name": "_enemyPokemonId",
          "type": "uint256"
        }
      ],
      "name": "attack",
      "outputs": [],
      "payable": false,
      "stateMutability": "nonpayable",
      "type": "function"
    },
    {
      "constant": true,
      "inputs": [],
      "name": "birthFee",
      "outputs": [
        {
          "internalType": "uint256",
          "name": "",
          "type": "uint256"
        }
      ],
      "payable": false,
      "stateMutability": "view",
      "type": "function"
    },
    {
      "constant": false,
      "inputs": [
        {
          "internalType": "uint256",
          "name": "_motherId",
          "type": "uint256"
        },
        {
          "internalType": "uint256",
          "name": "_fatherId",
          "type": "uint256"
        }
      ],
      "name": "breedWith",
      "outputs": [],
      "payable": true,
      "stateMutability": "payable",
      "type": "function"
    },
    {
      "constant": true,
      "inputs": [
        {
          "internalType": "uint256",
          "name": "_motherId",
          "type": "uint256"
        },
        {
          "internalType": "uint256",
          "name": "_fatherId",
          "type": "uint256"
        }
      ],
      "name": "canBreedWith",
      "outputs": [
        {
          "internalType": "bool",
          "name": "",
          "type": "bool"
        }
      ],
      "payable": false,
      "stateMutability": "view",
      "type": "function"
    },
    {
      "constant": false,
      "inputs": [
        {
          "internalType": "uint256",
          "name": "_pokemonId",
          "type": "uint256"
        },
        {
          "internalType": "string",
          "name": "_newName",
          "type": "string"
        }
      ],
      "name": "changeName",
      "outputs": [],
      "payable": false,
      "stateMutability": "nonpayable",
      "type": "function"
    },
    {
      "constant": false,
      "inputs": [
        {
          "internalType": "string",
          "name": "_nickname",
          "type": "string"
        },
        {
          "internalType": "uint256",
          "name": "_pokemonNumber",
          "type": "uint256"
        }
      ],
      "name": "createStarterPokemon",
      "outputs": [
        {
          "internalType": "uint256",
          "name": "",
          "type": "uint256"
        }
      ],
      "payable": false,
      "stateMutability": "nonpayable",
      "type": "function"
    },
    {
      "constant": false,
      "inputs": [
        {
          "internalType": "uint256",
          "name": "_pokemonId",
          "type": "uint256"
        }
      ],
      "name": "evolve",
      "outputs": [],
      "payable": false,
      "stateMutability": "nonpayable",
      "type": "function"
    },
    {
      "constant": true,
      "inputs": [
        {
          "internalType": "uint256",
          "name": "pokemonNumber",
          "type": "uint256"
        }
      ],
      "name": "getBasicPokemonInfo",
      "outputs": [
        {
          "internalType": "string",
          "name": "",
          "type": "string"
        },
        {
          "internalType": "string",
          "name": "",
          "type": "string"
        },
        {
          "internalType": "string",
          "name": "",
          "type": "string"
        },
        {
          "internalType": "bool",
          "name": "",
          "type": "bool"
        }
      ],
      "payable": false,
      "stateMutability": "view",
      "type": "function"
    },
    {
      "constant": true,
      "inputs": [
        {
          "internalType": "uint256",
          "name": "_pokemonId",
          "type": "uint256"
        }
      ],
      "name": "getPokemonBattleDetails",
      "outputs": [
        {
          "internalType": "uint32",
          "name": "",
          "type": "uint32"
        }
      ],
      "payable": false,
      "stateMutability": "view",
      "type": "function"
    },
    {
      "constant": true,
      "inputs": [
        {
          "internalType": "uint256",
          "name": "_pokemonId",
          "type": "uint256"
        }
      ],
      "name": "getPokemonBreedingDetails",
      "outputs": [
        {
          "internalType": "uint32",
          "name": "",
          "type": "uint32"
        },
        {
          "internalType": "bool",
          "name": "",
          "type": "bool"
        },
        {
          "internalType": "uint256",
          "name": "",
          "type": "uint256"
        },
        {
          "internalType": "uint256",
          "name": "",
          "type": "uint256"
        },
        {
          "internalType": "uint256",
          "name": "",
          "type": "uint256"
        }
      ],
      "payable": false,
      "stateMutability": "view",
      "type": "function"
    },
    {
      "constant": true,
      "inputs": [
        {
          "internalType": "address",
          "name": "_owner",
          "type": "address"
        }
      ],
      "name": "getPokemonCardsByOwner",
      "outputs": [
        {
          "internalType": "uint256[]",
          "name": "",
          "type": "uint256[]"
        }
      ],
      "payable": false,
      "stateMutability": "view",
      "type": "function"
    },
    {
      "constant": true,
      "inputs": [],
      "name": "getPokemonCardsByOwner",
      "outputs": [
        {
          "internalType": "uint256[]",
          "name": "",
          "type": "uint256[]"
        }
      ],
      "payable": false,
      "stateMutability": "view",
      "type": "function"
    },
    {
      "constant": true,
      "inputs": [
        {
          "internalType": "uint256",
          "name": "_pokemonId",
          "type": "uint256"
        }
      ],
      "name": "getPokemonInfo",
      "outputs": [
        {
          "internalType": "string",
          "name": "",
          "type": "string"
        },
        {
          "internalType": "string",
          "name": "",
          "type": "string"
        },
        {
          "internalType": "string",
          "name": "",
          "type": "string"
        },
        {
          "internalType": "string",
          "name": "",
          "type": "string"
        },
        {
          "internalType": "uint32",
          "name": "",
          "type": "uint32"
        },
        {
          "internalType": "uint256",
          "name": "",
          "type": "uint256"
        },
        {
          "internalType": "bool",
          "name": "",
          "type": "bool"
        }
      ],
      "payable": false,
      "stateMutability": "view",
      "type": "function"
    },
    {
      "constant": true,
      "inputs": [
        {
          "internalType": "uint256",
          "name": "pokemonNumber",
          "type": "uint256"
        }
      ],
      "name": "getPokemonName",
      "outputs": [
        {
          "internalType": "string",
          "name": "",
          "type": "string"
        }
      ],
      "payable": false,
      "stateMutability": "view",
      "type": "function"
    },
    {
      "constant": true,
      "inputs": [
        {
          "internalType": "uint256",
          "name": "_pokemonId",
          "type": "uint256"
        }
      ],
      "name": "getPokemonStats",
      "outputs": [
        {
          "internalType": "uint32",
          "name": "",
          "type": "uint32"
        },
        {
          "internalType": "uint32",
          "name": "",
          "type": "uint32"
        },
        {
          "internalType": "uint32",
          "name": "",
          "type": "uint32"
        },
        {
          "internalType": "uint32",
          "name": "",
          "type": "uint32"
        },
        {
          "internalType": "uint32",
          "name": "",
          "type": "uint32"
        },
        {
          "internalType": "uint32",
          "name": "",
          "type": "uint32"
        }
      ],
      "payable": false,
      "stateMutability": "view",
      "type": "function"
    },
    {
      "constant": false,
      "inputs": [
        {
          "internalType": "uint256",
          "name": "_motherId",
          "type": "uint256"
        }
      ],
      "name": "giveBirth",
      "outputs": [],
      "payable": false,
      "stateMutability": "nonpayable",
      "type": "function"
    },
    {
      "constant": true,
      "inputs": [
        {
          "internalType": "uint256",
          "name": "_pokemonId",
          "type": "uint256"
        }
      ],
      "name": "isEvovalble",
      "outputs": [
        {
          "internalType": "bool",
          "name": "",
          "type": "bool"
        }
      ],
      "payable": false,
      "stateMutability": "view",
      "type": "function"
    },
    {
      "constant": true,
      "inputs": [],
      "name": "isNewTrainer",
      "outputs": [
        {
          "internalType": "bool",
          "name": "",
          "type": "bool"
        }
      ],
      "payable": false,
      "stateMutability": "view",
      "type": "function"
    },
    {
      "constant": true,
      "inputs": [],
      "name": "isOwner",
      "outputs": [
        {
          "internalType": "bool",
          "name": "",
          "type": "bool"
        }
      ],
      "payable": false,
      "stateMutability": "view",
      "type": "function"
    },
    {
      "constant": true,
      "inputs": [
        {
          "internalType": "uint256",
          "name": "_pokemonId",
          "type": "uint256"
        }
      ],
      "name": "isPregnant",
      "outputs": [
        {
          "internalType": "bool",
          "name": "",
          "type": "bool"
        }
      ],
      "payable": false,
      "stateMutability": "view",
      "type": "function"
    },
    {
      "constant": true,
      "inputs": [
        {
          "internalType": "uint256",
          "name": "_pokemonId",
          "type": "uint256"
        }
      ],
      "name": "isReadyToBreed",
      "outputs": [
        {
          "internalType": "bool",
          "name": "",
          "type": "bool"
        }
      ],
      "payable": false,
      "stateMutability": "view",
      "type": "function"
    },
    {
      "constant": false,
      "inputs": [
        {
          "internalType": "uint256",
          "name": "_pokemonId",
          "type": "uint256"
        }
      ],
      "name": "levelUp",
      "outputs": [],
      "payable": true,
      "stateMutability": "payable",
      "type": "function"
    },
    {
      "constant": true,
      "inputs": [],
      "name": "owner",
      "outputs": [
        {
          "internalType": "address",
          "name": "",
          "type": "address"
        }
      ],
      "payable": false,
      "stateMutability": "view",
      "type": "function"
    },
    {
      "constant": true,
      "inputs": [
        {
          "internalType": "uint256",
          "name": "",
          "type": "uint256"
        }
      ],
      "name": "pokemonToOwner",
      "outputs": [
        {
          "internalType": "address payable",
          "name": "",
          "type": "address"
        }
      ],
      "payable": false,
      "stateMutability": "view",
      "type": "function"
    },
    {
      "constant": false,
      "inputs": [],
      "name": "renounceOwnership",
      "outputs": [],
      "payable": false,
      "stateMutability": "nonpayable",
      "type": "function"
    },
    {
      "constant": true,
      "inputs": [],
      "name": "returnNumberOfPokemons",
      "outputs": [
        {
          "internalType": "uint256",
          "name": "",
          "type": "uint256"
        }
      ],
      "payable": false,
      "stateMutability": "view",
      "type": "function"
    },
    {
      "constant": true,
      "inputs": [],
      "name": "returnTotalNumberOfPokemons",
      "outputs": [
        {
          "internalType": "uint256",
          "name": "",
          "type": "uint256"
        }
      ],
      "payable": false,
      "stateMutability": "view",
      "type": "function"
    },
    {
      "constant": false,
      "inputs": [
        {
          "internalType": "uint256",
          "name": "fee",
          "type": "uint256"
        }
      ],
      "name": "setBirthFee",
      "outputs": [],
      "payable": false,
      "stateMutability": "nonpayable",
      "type": "function"
    },
    {
      "constant": false,
      "inputs": [
        {
          "internalType": "uint256",
          "name": "_fee",
          "type": "uint256"
        }
      ],
      "name": "setLevelUpFee",
      "outputs": [],
      "payable": false,
      "stateMutability": "nonpayable",
      "type": "function"
    },
    {
      "constant": false,
      "inputs": [
        {
          "internalType": "address",
          "name": "newOwner",
          "type": "address"
        }
      ],
      "name": "transferOwnership",
      "outputs": [],
      "payable": false,
      "stateMutability": "nonpayable",
      "type": "function"
    },
    {
      "constant": true,
      "inputs": [
        {
          "internalType": "address",
          "name": "_owner",
          "type": "address"
        }
      ],
      "name": "balanceOf",
      "outputs": [
        {
          "internalType": "uint256",
          "name": "",
          "type": "uint256"
        }
      ],
      "payable": false,
      "stateMutability": "view",
      "type": "function"
    },
    {
      "constant": true,
      "inputs": [
        {
          "internalType": "uint256",
          "name": "_tokenId",
          "type": "uint256"
        }
      ],
      "name": "ownerOf",
      "outputs": [
        {
          "internalType": "address",
          "name": "",
          "type": "address"
        }
      ],
      "payable": false,
      "stateMutability": "view",
      "type": "function"
    },
    {
      "constant": false,
      "inputs": [
        {
          "internalType": "address",
          "name": "_from",
          "type": "address"
        },
        {
          "internalType": "address",
          "name": "_to",
          "type": "address"
        },
        {
          "internalType": "uint256",
          "name": "_tokenId",
          "type": "uint256"
        }
      ],
      "name": "transferFrom",
      "outputs": [],
      "payable": true,
      "stateMutability": "payable",
      "type": "function"
    },
    {
      "constant": false,
      "inputs": [
        {
          "internalType": "address",
          "name": "_approved",
          "type": "address"
        },
        {
          "internalType": "uint256",
          "name": "_tokenId",
          "type": "uint256"
        }
      ],
      "name": "approve",
      "outputs": [],
      "payable": true,
      "stateMutability": "payable",
      "type": "function"
    }
  ],
  "bytecode": "0x60806040526010600455600454600a0a60055562015180600655620d2f006007556605543df729c000600b5566038d7ea4c68000600c55336000806101000a81548173ffffffffffffffffffffffffffffffffffffffff021916908373ffffffffffffffffffffffffffffffffffffffff1602179055506000809054906101000a900473ffffffffffffffffffffffffffffffffffffffff1673ffffffffffffffffffffffffffffffffffffffff16600073ffffffffffffffffffffffffffffffffffffffff167f8be0079c531659141344cd1fd0a4f28419497f9722a3daafe3b4186f6b6457e060405160405180910390a36200010b62000195640100000000026401000000009004565b6200012462001e7f640100000000026401000000009004565b6200013d6200259d640100000000026401000000009004565b6200018e6040518060400160405280600781526020017f496e697469616c000000000000000000000000000000000000000000000000008152506000620034f5640100000000026401000000009004565b5062004445565b60036040518060e001604052806040518060400160405280600981526020017f42756c62617361757200000000000000000000000000000000000000000000008152508152602001600181526020016040518060400160405280600581526020017f477261737300000000000000000000000000000000000000000000000000000081525081526020016040518060400160405280600681526020017f506f69736f6e0000000000000000000000000000000000000000000000000000815250815260200161024681526020016000151581526020016040518060c00160405280602d63ffffffff168152602001603163ffffffff168152602001603163ffffffff168152602001604163ffffffff168152602001604163ffffffff168152602001602d63ffffffff168152508152509080600181540180825580915050906001820390600052602060002090600702016000909192909190915060008201518160000190805190602001906200030e92919062004261565b506020820151816001015560408201518160020190805190602001906200033792919062004261565b5060608201518160030190805190602001906200035692919062004261565b506080820151816004015560a08201518160050160006101000a81548160ff02191690831515021790555060c08201518160060160008201518160000160006101000a81548163ffffffff021916908363ffffffff16021790555060208201518160000160046101000a81548163ffffffff021916908363ffffffff16021790555060408201518160000160086101000a81548163ffffffff021916908363ffffffff160217905550606082015181600001600c6101000a81548163ffffffff021916908363ffffffff16021790555060808201518160000160106101000a81548163ffffffff021916908363ffffffff16021790555060a08201518160000160146101000a81548163ffffffff021916908363ffffffff160217905550505050505060036040518060e001604052806040518060400160405280600781526020017f49767973617572000000000000000000000000000000000000000000000000008152508152602001600281526020016040518060400160405280600581526020017f477261737300000000000000000000000000000000000000000000000000000081525081526020016040518060400160405280600681526020017f506f69736f6e000000000000000000000000000000000000000000000000000081525081526020016101ef81526020016000151581526020016040518060c00160405280603c63ffffffff168152602001603e63ffffffff168152602001603f63ffffffff168152602001605063ffffffff168152602001605063ffffffff168152602001603c63ffffffff16815250815250908060018154018082558091505090600182039060005260206000209060070201600090919290919091506000820151816000019080519060200190620005f292919062004261565b506020820151816001015560408201518160020190805190602001906200061b92919062004261565b5060608201518160030190805190602001906200063a92919062004261565b506080820151816004015560a08201518160050160006101000a81548160ff02191690831515021790555060c08201518160060160008201518160000160006101000a81548163ffffffff021916908363ffffffff16021790555060208201518160000160046101000a81548163ffffffff021916908363ffffffff16021790555060408201518160000160086101000a81548163ffffffff021916908363ffffffff160217905550606082015181600001600c6101000a81548163ffffffff021916908363ffffffff16021790555060808201518160000160106101000a81548163ffffffff021916908363ffffffff16021790555060a08201518160000160146101000a81548163ffffffff021916908363ffffffff160217905550505050505060036040518060e001604052806040518060400160405280600881526020017f56656e75736175720000000000000000000000000000000000000000000000008152508152602001600381526020016040518060400160405280600581526020017f477261737300000000000000000000000000000000000000000000000000000081525081526020016040518060400160405280600681526020017f506f69736f6e0000000000000000000000000000000000000000000000000000815250815260200161017781526020016000151581526020016040518060c00160405280605063ffffffff168152602001605263ffffffff168152602001605363ffffffff168152602001606463ffffffff168152602001606463ffffffff168152602001605063ffffffff16815250815250908060018154018082558091505090600182039060005260206000209060070201600090919290919091506000820151816000019080519060200190620008d692919062004261565b50602082015181600101556040820151816002019080519060200190620008ff92919062004261565b5060608201518160030190805190602001906200091e92919062004261565b506080820151816004015560a08201518160050160006101000a81548160ff02191690831515021790555060c08201518160060160008201518160000160006101000a81548163ffffffff021916908363ffffffff16021790555060208201518160000160046101000a81548163ffffffff021916908363ffffffff16021790555060408201518160000160086101000a81548163ffffffff021916908363ffffffff160217905550606082015181600001600c6101000a81548163ffffffff021916908363ffffffff16021790555060808201518160000160106101000a81548163ffffffff021916908363ffffffff16021790555060a08201518160000160146101000a81548163ffffffff021916908363ffffffff160217905550505050505060036040518060e001604052806040518060400160405280600a81526020017f436861726d616e646572000000000000000000000000000000000000000000008152508152602001600481526020016040518060400160405280600481526020017f466972650000000000000000000000000000000000000000000000000000000081525081526020016040518060400160405280600381526020017f6e616e0000000000000000000000000000000000000000000000000000000000815250815260200161024f81526020016000151581526020016040518060c00160405280602763ffffffff168152602001603463ffffffff168152602001602b63ffffffff168152602001603c63ffffffff168152602001603263ffffffff168152602001604163ffffffff1681525081525090806001815401808255809150509060018203906000526020600020906007020160009091929091909150600082015181600001908051906020019062000bba92919062004261565b5060208201518160010155604082015181600201908051906020019062000be392919062004261565b50606082015181600301908051906020019062000c0292919062004261565b506080820151816004015560a08201518160050160006101000a81548160ff02191690831515021790555060c08201518160060160008201518160000160006101000a81548163ffffffff021916908363ffffffff16021790555060208201518160000160046101000a81548163ffffffff021916908363ffffffff16021790555060408201518160000160086101000a81548163ffffffff021916908363ffffffff160217905550606082015181600001600c6101000a81548163ffffffff021916908363ffffffff16021790555060808201518160000160106101000a81548163ffffffff021916908363ffffffff16021790555060a08201518160000160146101000a81548163ffffffff021916908363ffffffff160217905550505050505060036040518060e001604052806040518060400160405280600a81526020017f436861726d656c656f6e000000000000000000000000000000000000000000008152508152602001600581526020016040518060400160405280600481526020017f466972650000000000000000000000000000000000000000000000000000000081525081526020016040518060400160405280600381526020017f6e616e000000000000000000000000000000000000000000000000000000000081525081526020016101ef81526020016000151581526020016040518060c00160405280603a63ffffffff168152602001604063ffffffff168152602001603a63ffffffff168152602001605063ffffffff168152602001604163ffffffff168152602001605063ffffffff1681525081525090806001815401808255809150509060018203906000526020600020906007020160009091929091909150600082015181600001908051906020019062000e9e92919062004261565b5060208201518160010155604082015181600201908051906020019062000ec792919062004261565b50606082015181600301908051906020019062000ee692919062004261565b506080820151816004015560a08201518160050160006101000a81548160ff02191690831515021790555060c08201518160060160008201518160000160006101000a81548163ffffffff021916908363ffffffff16021790555060208201518160000160046101000a81548163ffffffff021916908363ffffffff16021790555060408201518160000160086101000a81548163ffffffff021916908363ffffffff160217905550606082015181600001600c6101000a81548163ffffffff021916908363ffffffff16021790555060808201518160000160106101000a81548163ffffffff021916908363ffffffff16021790555060a08201518160000160146101000a81548163ffffffff021916908363ffffffff160217905550505050505060036040518060e001604052806040518060400160405280600981526020017f43686172697a61726400000000000000000000000000000000000000000000008152508152602001600681526020016040518060400160405280600481526020017f466972650000000000000000000000000000000000000000000000000000000081525081526020016040518060400160405280600681526020017f466c79696e670000000000000000000000000000000000000000000000000000815250815260200161016e81526020016000151581526020016040518060c00160405280604e63ffffffff168152602001605463ffffffff168152602001604e63ffffffff168152602001606d63ffffffff168152602001605563ffffffff168152602001606463ffffffff168152508152509080600181540180825580915050906001820390600052602060002090600702016000909192909190915060008201518160000190805190602001906200118292919062004261565b50602082015181600101556040820151816002019080519060200190620011ab92919062004261565b506060820151816003019080519060200190620011ca92919062004261565b506080820151816004015560a08201518160050160006101000a81548160ff02191690831515021790555060c08201518160060160008201518160000160006101000a81548163ffffffff021916908363ffffffff16021790555060208201518160000160046101000a81548163ffffffff021916908363ffffffff16021790555060408201518160000160086101000a81548163ffffffff021916908363ffffffff160217905550606082015181600001600c6101000a81548163ffffffff021916908363ffffffff16021790555060808201518160000160106101000a81548163ffffffff021916908363ffffffff16021790555060a08201518160000160146101000a81548163ffffffff021916908363ffffffff160217905550505050505060036040518060e001604052806040518060400160405280600881526020017f5371756972746c650000000000000000000000000000000000000000000000008152508152602001600781526020016040518060400160405280600581526020017f576174657200000000000000000000000000000000000000000000000000000081525081526020016040518060400160405280600381526020017f6e616e0000000000000000000000000000000000000000000000000000000000815250815260200161024a81526020016000151581526020016040518060c00160405280602c63ffffffff168152602001603063ffffffff168152602001604163ffffffff168152602001603263ffffffff168152602001604063ffffffff168152602001602b63ffffffff168152508152509080600181540180825580915050906001820390600052602060002090600702016000909192909190915060008201518160000190805190602001906200146692919062004261565b506020820151816001015560408201518160020190805190602001906200148f92919062004261565b506060820151816003019080519060200190620014ae92919062004261565b506080820151816004015560a08201518160050160006101000a81548160ff02191690831515021790555060c08201518160060160008201518160000160006101000a81548163ffffffff021916908363ffffffff16021790555060208201518160000160046101000a81548163ffffffff021916908363ffffffff16021790555060408201518160000160086101000a81548163ffffffff021916908363ffffffff160217905550606082015181600001600c6101000a81548163ffffffff021916908363ffffffff16021790555060808201518160000160106101000a81548163ffffffff021916908363ffffffff16021790555060a08201518160000160146101000a81548163ffffffff021916908363ffffffff160217905550505050505060036040518060e001604052806040518060400160405280600981526020017f576172746f72746c6500000000000000000000000000000000000000000000008152508152602001600881526020016040518060400160405280600581526020017f576174657200000000000000000000000000000000000000000000000000000081525081526020016040518060400160405280600381526020017f6e616e000000000000000000000000000000000000000000000000000000000081525081526020016101ef81526020016000151581526020016040518060c00160405280603b63ffffffff168152602001603f63ffffffff168152602001605063ffffffff168152602001604163ffffffff168152602001605063ffffffff168152602001603a63ffffffff168152508152509080600181540180825580915050906001820390600052602060002090600702016000909192909190915060008201518160000190805190602001906200174a92919062004261565b506020820151816001015560408201518160020190805190602001906200177392919062004261565b5060608201518160030190805190602001906200179292919062004261565b506080820151816004015560a08201518160050160006101000a81548160ff02191690831515021790555060c08201518160060160008201518160000160006101000a81548163ffffffff021916908363ffffffff16021790555060208201518160000160046101000a81548163ffffffff021916908363ffffffff16021790555060408201518160000160086101000a81548163ffffffff021916908363ffffffff160217905550606082015181600001600c6101000a81548163ffffffff021916908363ffffffff16021790555060808201518160000160106101000a81548163ffffffff021916908363ffffffff16021790555060a08201518160000160146101000a81548163ffffffff021916908363ffffffff160217905550505050505060036040518060e001604052806040518060400160405280600981526020017f426c6173746f69736500000000000000000000000000000000000000000000008152508152602001600981526020016040518060400160405280600581526020017f576174657200000000000000000000000000000000000000000000000000000081525081526020016040518060400160405280600381526020017f6e616e0000000000000000000000000000000000000000000000000000000000815250815260200161017281526020016000151581526020016040518060c00160405280604f63ffffffff168152602001605363ffffffff168152602001606463ffffffff168152602001605563ffffffff168152602001606963ffffffff168152602001604e63ffffffff1681525081525090806001815401808255809150509060018203906000526020600020906007020160009091929091909150600082015181600001908051906020019062001a2e92919062004261565b5060208201518160010155604082015181600201908051906020019062001a5792919062004261565b50606082015181600301908051906020019062001a7692919062004261565b506080820151816004015560a08201518160050160006101000a81548160ff02191690831515021790555060c08201518160060160008201518160000160006101000a81548163ffffffff021916908363ffffffff16021790555060208201518160000160046101000a81548163ffffffff021916908363ffffffff16021790555060408201518160000160086101000a81548163ffffffff021916908363ffffffff160217905550606082015181600001600c6101000a81548163ffffffff021916908363ffffffff16021790555060808201518160000160106101000a81548163ffffffff021916908363ffffffff16021790555060a08201518160000160146101000a81548163ffffffff021916908363ffffffff160217905550505050505060036040518060e001604052806040518060400160405280600881526020017f43617465727069650000000000000000000000000000000000000000000000008152508152602001600a81526020016040518060400160405280600381526020017f427567000000000000000000000000000000000000000000000000000000000081525081526020016040518060400160405280600381526020017f6e616e000000000000000000000000000000000000000000000000000000000081525081526020016102c181526020016000151581526020016040518060c00160405280602d63ffffffff168152602001601e63ffffffff168152602001602363ffffffff168152602001601463ffffffff168152602001601463ffffffff168152602001602d63ffffffff1681525081525090806001815401808255809150509060018203906000526020600020906007020160009091929091909150600082015181600001908051906020019062001d1292919062004261565b5060208201518160010155604082015181600201908051906020019062001d3b92919062004261565b50606082015181600301908051906020019062001d5a92919062004261565b506080820151816004015560a08201518160050160006101000a81548160ff02191690831515021790555060c08201518160060160008201518160000160006101000a81548163ffffffff021916908363ffffffff16021790555060208201518160000160046101000a81548163ffffffff021916908363ffffffff16021790555060408201518160000160086101000a81548163ffffffff021916908363ffffffff160217905550606082015181600001600c6101000a81548163ffffffff021916908363ffffffff16021790555060808201518160000160106101000a81548163ffffffff021916908363ffffffff16021790555060a08201518160000160146101000a81548163ffffffff021916908363ffffffff1602179055505050505050565b600260016000600181526020019081526020016000208190555060036001600060028152602001908152602001600020819055506005600160006004815260200190815260200160002081905550600660016000600581526020019081526020016000208190555060086001600060078152602001908152602001600020819055506009600160006008815260200190815260200160002081905550600b60016000600a815260200190815260200160002081905550600c60016000600b815260200190815260200160002081905550600e60016000600d815260200190815260200160002081905550600f60016000600e81526020019081526020016000208190555060116001600060108152602001908152602001600020819055506012600160006011815260200190815260200160002081905550601460016000601381526020019081526020016000208190555060166001600060158152602001908152602001600020819055506018600160006017815260200190815260200160002081905550601a600160006019815260200190815260200160002081905550601c60016000601b815260200190815260200160002081905550601e60016000601d815260200190815260200160002081905550601f60016000601e81526020019081526020016000208190555060216001600060208152602001908152602001600020819055506022600160006021815260200190815260200160002081905550602460016000602381526020019081526020016000208190555060266001600060258152602001908152602001600020819055506028600160006027815260200190815260200160002081905550602a600160006029815260200190815260200160002081905550602c60016000602b815260200190815260200160002081905550602d60016000602c815260200190815260200160002081905550602f60016000602e81526020019081526020016000208190555060316001600060308152602001908152602001600020819055506033600160006032815260200190815260200160002081905550603560016000603481526020019081526020016000208190555060376001600060368152602001908152602001600020819055506039600160006038815260200190815260200160002081905550603b60016000603a815260200190815260200160002081905550603d60016000603c815260200190815260200160002081905550603e60016000603d815260200190815260200160002081905550604060016000603f815260200190815260200160002081905550604160016000604081526020019081526020016000208190555060436001600060428152602001908152602001600020819055506044600160006043815260200190815260200160002081905550604660016000604581526020019081526020016000208190555060476001600060468152602001908152602001600020819055506049600160006048815260200190815260200160002081905550604b60016000604a815260200190815260200160002081905550604c60016000604b815260200190815260200160002081905550604e60016000604d815260200190815260200160002081905550605060016000604f8152602001908152602001600020819055506052600160006051815260200190815260200160002081905550605560016000605481526020019081526020016000208190555060576001600060568152602001908152602001600020819055506059600160006058815260200190815260200160002081905550605b60016000605a815260200190815260200160002081905550605d60016000605c815260200190815260200160002081905550605e60016000605d81526020019081526020016000208190555060616001600060608152602001908152602001600020819055506063600160006062815260200190815260200160002081905550606560016000606481526020019081526020016000208190555060676001600060668152602001908152602001600020819055506069600160006068815260200190815260200160002081905550606e60016000606d815260200190815260200160002081905550607060016000606f81526020019081526020016000208190555060756001600060748152602001908152602001600020819055506077600160006076815260200190815260200160002081905550607960016000607881526020019081526020016000208190555060826001600060818152602001908152602001600020819055506086600160006085815260200190815260200160002081905550608b60016000608a815260200190815260200160002081905550608d60016000608c81526020019081526020016000208190555060946001600060938152602001908152602001600020819055506095600160006094815260200190815260200160002081905550565b600160026000600181526020019081526020016000208190555060016002600060028152602001908152602001600020819055506001600260006003815260200190815260200160002081905550600460026000600481526020019081526020016000208190555060046002600060058152602001908152602001600020819055506004600260006006815260200190815260200160002081905550600760026000600781526020019081526020016000208190555060076002600060088152602001908152602001600020819055506007600260006009815260200190815260200160002081905550600a60026000600a815260200190815260200160002081905550600a60026000600b815260200190815260200160002081905550600a60026000600c815260200190815260200160002081905550600d60026000600d815260200190815260200160002081905550600d60026000600e815260200190815260200160002081905550600d60026000600f8152602001908152602001600020819055506010600260006010815260200190815260200160002081905550601060026000601181526020019081526020016000208190555060106002600060128152602001908152602001600020819055506013600260006013815260200190815260200160002081905550601360026000601481526020019081526020016000208190555060156002600060158152602001908152602001600020819055506015600260006016815260200190815260200160002081905550601760026000601781526020019081526020016000208190555060176002600060188152602001908152602001600020819055506019600260006019815260200190815260200160002081905550601960026000601a815260200190815260200160002081905550601b60026000601b815260200190815260200160002081905550601b60026000601c815260200190815260200160002081905550601d60026000601d815260200190815260200160002081905550601d60026000601e815260200190815260200160002081905550601d60026000601f8152602001908152602001600020819055506020600260006020815260200190815260200160002081905550602060026000602181526020019081526020016000208190555060206002600060228152602001908152602001600020819055506023600260006023815260200190815260200160002081905550602360026000602481526020019081526020016000208190555060256002600060258152602001908152602001600020819055506025600260006026815260200190815260200160002081905550602760026000602781526020019081526020016000208190555060276002600060288152602001908152602001600020819055506029600260006029815260200190815260200160002081905550602960026000602a815260200190815260200160002081905550602b60026000602b815260200190815260200160002081905550602b60026000602c815260200190815260200160002081905550602b60026000602d815260200190815260200160002081905550602e60026000602e815260200190815260200160002081905550602e60026000602f8152602001908152602001600020819055506030600260006030815260200190815260200160002081905550603060026000603181526020019081526020016000208190555060326002600060328152602001908152602001600020819055506032600260006033815260200190815260200160002081905550603460026000603481526020019081526020016000208190555060346002600060358152602001908152602001600020819055506036600260006036815260200190815260200160002081905550603660026000603781526020019081526020016000208190555060386002600060388152602001908152602001600020819055506038600260006039815260200190815260200160002081905550603a60026000603a815260200190815260200160002081905550603a60026000603b815260200190815260200160002081905550603c60026000603c815260200190815260200160002081905550603c60026000603d815260200190815260200160002081905550603c60026000603e815260200190815260200160002081905550603f60026000603f815260200190815260200160002081905550603f600260006040815260200190815260200160002081905550603f60026000604181526020019081526020016000208190555060426002600060428152602001908152602001600020819055506042600260006043815260200190815260200160002081905550604260026000604481526020019081526020016000208190555060456002600060458152602001908152602001600020819055506045600260006046815260200190815260200160002081905550604560026000604781526020019081526020016000208190555060486002600060488152602001908152602001600020819055506048600260006049815260200190815260200160002081905550604a60026000604a815260200190815260200160002081905550604a60026000604b815260200190815260200160002081905550604a60026000604c815260200190815260200160002081905550604d60026000604d815260200190815260200160002081905550604d60026000604e815260200190815260200160002081905550604f60026000604f815260200190815260200160002081905550604f600260006050815260200190815260200160002081905550605160026000605181526020019081526020016000208190555060516002600060528152602001908152602001600020819055506053600260006053815260200190815260200160002081905550605460026000605481526020019081526020016000208190555060546002600060558152602001908152602001600020819055506056600260006056815260200190815260200160002081905550605660026000605781526020019081526020016000208190555060586002600060588152602001908152602001600020819055506058600260006059815260200190815260200160002081905550605a60026000605a815260200190815260200160002081905550605a60026000605b815260200190815260200160002081905550605c60026000605c815260200190815260200160002081905550605c60026000605d815260200190815260200160002081905550605c60026000605e815260200190815260200160002081905550605f60026000605f8152602001908152602001600020819055506060600260006060815260200190815260200160002081905550606060026000606181526020019081526020016000208190555060626002600060628152602001908152602001600020819055506062600260006063815260200190815260200160002081905550606460026000606481526020019081526020016000208190555060646002600060658152602001908152602001600020819055506066600260006066815260200190815260200160002081905550606660026000606781526020019081526020016000208190555060686002600060688152602001908152602001600020819055506068600260006069815260200190815260200160002081905550606a60026000606a815260200190815260200160002081905550606b60026000606b815260200190815260200160002081905550606c60026000606c815260200190815260200160002081905550606d60026000606d815260200190815260200160002081905550606d60026000606e815260200190815260200160002081905550606f60026000606f815260200190815260200160002081905550606f600260006070815260200190815260200160002081905550607160026000607181526020019081526020016000208190555060726002600060728152602001908152602001600020819055506073600260006073815260200190815260200160002081905550607460026000607481526020019081526020016000208190555060746002600060758152602001908152602001600020819055506076600260006076815260200190815260200160002081905550607660026000607781526020019081526020016000208190555060786002600060788152602001908152602001600020819055506078600260006079815260200190815260200160002081905550607a60026000607a815260200190815260200160002081905550607b60026000607b815260200190815260200160002081905550607c60026000607c815260200190815260200160002081905550607d60026000607d815260200190815260200160002081905550607e60026000607e815260200190815260200160002081905550607f60026000607f8152602001908152602001600020819055506080600260006080815260200190815260200160002081905550608160026000608181526020019081526020016000208190555060816002600060828152602001908152602001600020819055506083600260006083815260200190815260200160002081905550608460026000608481526020019081526020016000208190555060856002600060858152602001908152602001600020819055506085600260006086815260200190815260200160002081905550608760026000608781526020019081526020016000208190555060886002600060888152602001908152602001600020819055506089600260006089815260200190815260200160002081905550608a60026000608a815260200190815260200160002081905550608a60026000608b815260200190815260200160002081905550608c60026000608c815260200190815260200160002081905550608c60026000608d815260200190815260200160002081905550608e60026000608e815260200190815260200160002081905550608f60026000608f81526020019081526020016000208190555060906002600060908152602001908152602001600020819055506091600260006091815260200190815260200160002081905550609260026000609281526020019081526020016000208190555060936002600060938152602001908152602001600020819055506093600260006094815260200190815260200160002081905550609360026000609581526020019081526020016000208190555060966002600060968152602001908152602001600020819055506097600260006097815260200190815260200160002081905550565b600080600a60003373ffffffffffffffffffffffffffffffffffffffff1673ffffffffffffffffffffffffffffffffffffffff16815260200190815260200160002054146200354357600080fd5b6000821480620035535750600382145b806200355f5750600682145b6200356957600080fd5b60006200358584620035af640100000000026401000000009004565b9050620035a684826000808762003641640100000000026401000000009004565b91505092915050565b600080826040516020018082805190602001908083835b60208310620035eb5780518252602082019150602081019050602083039250620035c6565b6001836020036101000a0380198251168184511680821785525050505050509050019150506040516020818303038152906040528051906020012060019004905060055481816200363857fe5b06915050919050565b600060606006604051908082528060200260200182016040528015620036765781602001602082028038833980820191505090505b5090506000869050600080600090505b6006811015620036e457600a83816200369b57fe5b06915081848281518110620036ac57fe5b602002602001019063ffffffff16908163ffffffff1681525050600a82840381620036d357fe5b049250808060010191505062003686565b50620036ef620042e8565b60038681548110620036fd57fe5b90600052602060002090600702016040518060e0016040529081600082018054600181600116156101000203166002900480601f016020809104026020016040519081016040528092919081815260200182805460018160011615610100020316600290048015620037b35780601f106200378757610100808354040283529160200191620037b3565b820191906000526020600020905b8154815290600101906020018083116200379557829003601f168201915b5050505050815260200160018201548152602001600282018054600181600116156101000203166002900480601f016020809104026020016040519081016040528092919081815260200182805460018160011615610100020316600290048015620038635780601f10620038375761010080835404028352916020019162003863565b820191906000526020600020905b8154815290600101906020018083116200384557829003601f168201915b50505050508152602001600382018054600181600116156101000203166002900480601f016020809104026020016040519081016040528092919081815260200182805460018160011615610100020316600290048015620039095780601f10620038dd5761010080835404028352916020019162003909565b820191906000526020600020905b815481529060010190602001808311620038eb57829003601f168201915b50505050508152602001600482015481526020016005820160009054906101000a900460ff16151515158152602001600682016040518060c00160405290816000820160009054906101000a900463ffffffff1663ffffffff1663ffffffff1681526020016000820160049054906101000a900463ffffffff1663ffffffff1663ffffffff1681526020016000820160089054906101000a900463ffffffff1663ffffffff1663ffffffff16815260200160008201600c9054906101000a900463ffffffff1663ffffffff1663ffffffff1681526020016000820160109054906101000a900463ffffffff1663ffffffff1663ffffffff1681526020016000820160149054906101000a900463ffffffff1663ffffffff1663ffffffff168152505081525050905062003a778460008151811062003a4357fe5b60200260200101518260c001516000015163ffffffff16620041876401000000000262002b2e179091906401000000009004565b8160c001516000019063ffffffff16908163ffffffff168152505062003ad88460018151811062003aa457fe5b60200260200101518260c001516020015163ffffffff16620041876401000000000262002b2e179091906401000000009004565b8160c001516020019063ffffffff16908163ffffffff168152505062003b398460028151811062003b0557fe5b60200260200101518260c001516040015163ffffffff16620041876401000000000262002b2e179091906401000000009004565b8160c001516040019063ffffffff16908163ffffffff168152505062003b9a8460038151811062003b6657fe5b60200260200101518260c001516060015163ffffffff16620041876401000000000262002b2e179091906401000000009004565b8160c001516060019063ffffffff16908163ffffffff168152505062003bfb8460048151811062003bc757fe5b60200260200101518260c001516080015163ffffffff16620041876401000000000262002b2e179091906401000000009004565b8160c001516080019063ffffffff16908163ffffffff168152505062003c5c8460058151811062003c2857fe5b60200260200101518260c0015160a0015163ffffffff16620041876401000000000262002b2e179091906401000000009004565b8160c0015160a0019063ffffffff16908163ffffffff168152505062003c816200432f565b604051806101e001604052808c8152602001836000015181526020018360400151815260200183606001518152602001600163ffffffff168152602001600654420163ffffffff168152602001600754420163ffffffff16815260200162003cf88d620041b0640100000000026401000000009004565b151581526020018b81526020018a815260200189815260200160008152602001836020015181526020018360a00151151581526020018360c001518152509050600060016008839080600181540180825580915050906001820390600052602060002090600c020160009091929091909150600082015181600001908051906020019062003d8892919062004261565b50602082015181600101908051906020019062003da792919062004261565b50604082015181600201908051906020019062003dc692919062004261565b50606082015181600301908051906020019062003de592919062004261565b5060808201518160040160006101000a81548163ffffffff021916908363ffffffff16021790555060a08201518160040160046101000a81548163ffffffff021916908363ffffffff16021790555060c08201518160040160086101000a81548163ffffffff021916908363ffffffff16021790555060e082015181600401600c6101000a81548160ff021916908315150217905550610100820151816005015561012082015181600601556101408201518160070155610160820151816008015561018082015181600901556101a082015181600a0160006101000a81548160ff0219169083151502179055506101c082015181600b0160008201518160000160006101000a81548163ffffffff021916908363ffffffff16021790555060208201518160000160046101000a81548163ffffffff021916908363ffffffff16021790555060408201518160000160086101000a81548163ffffffff021916908363ffffffff160217905550606082015181600001600c6101000a81548163ffffffff021916908363ffffffff16021790555060808201518160000160106101000a81548163ffffffff021916908363ffffffff16021790555060a08201518160000160146101000a81548163ffffffff021916908363ffffffff16021790555050505050039050336009600083815260200190815260200160002060006101000a81548173ffffffffffffffffffffffffffffffffffffffff021916908373ffffffffffffffffffffffffffffffffffffffff160217905550620040836001600a60003373ffffffffffffffffffffffffffffffffffffffff1673ffffffffffffffffffffffffffffffffffffffff16815260200190815260200160002054620042446401000000000262002f52179091906401000000009004565b600a60003373ffffffffffffffffffffffffffffffffffffffff1673ffffffffffffffffffffffffffffffffffffffff168152602001908152602001600020819055507fb2ddd0094c7d8b02387161898cbaa1bbcb4cee4731fdeceb76548071724adcd2818d8d6040518084815260200180602001838152602001828103825284818151815260200191508051906020019080838360005b83811015620041385780820151818401526020810190506200411b565b50505050905090810190601f168015620041665780820380516001836020036101000a031916815260200191505b5094505050505060405180910390a180965050505050505095945050505050565b60008082840190508363ffffffff168163ffffffff161015620041a657fe5b8091505092915050565b600080826040516020018082805190602001908083835b60208310620041ec5780518252602082019150602081019050602083039250620041c7565b6001836020036101000a038019825116818451168082178552505050505050905001915050604051602081830303815290604052805190602001206001900490506000600282816200423a57fe5b0614915050919050565b6000808284019050838110156200425757fe5b8091505092915050565b828054600181600116156101000203166002900490600052602060002090601f016020900481019282601f10620042a457805160ff1916838001178555620042d5565b82800160010185558215620042d5579182015b82811115620042d4578251825591602001919060010190620042b7565b5b509050620042e49190620043c3565b5090565b6040518060e00160405280606081526020016000815260200160608152602001606081526020016000815260200160001515815260200162004329620043eb565b81525090565b604051806101e0016040528060608152602001606081526020016060815260200160608152602001600063ffffffff168152602001600063ffffffff168152602001600063ffffffff1681526020016000151581526020016000815260200160008152602001600081526020016000815260200160008152602001600015158152602001620043bd620043eb565b81525090565b620043e891905b80821115620043e4576000816000905550600101620043ca565b5090565b90565b6040518060c00160405280600063ffffffff168152602001600063ffffffff168152602001600063ffffffff168152602001600063ffffffff168152602001600063ffffffff168152602001600063ffffffff1681525090565b6140f480620044556000396000f3fe608060405260043610610216576000357c010000000000000000000000000000000000000000000000000000000090048063715018a61161012a578063bdfb5269116100bd578063d3e6f49f1161008c578063d3e6f49f14610fc6578063e1fa763814611019578063f119f5671461105e578063f2fde38b14611099578063f976b12d146110ea57610216565b8063bdfb526914610d5b578063c39cbef114610e41578063c8e0d77414610ed1578063ccf670f814610f8b57610216565b806388c2a0bf116100f957806388c2a0bf14610c5f5780638da5cb5b14610c9a5780638f32d59b14610cf1578063a11ed15714610d2057610216565b8063715018a61461099157806372f42958146109a8578063835d75ab14610a5c57806387f1fbf314610bf357610216565b806342945e48116101ad5780636352211e1161017c5780636352211e146107d35780636ae0fbde1461084e5780636dd25f6a146108795780637004fb84146108f457806370a082311461092c57610216565b806342945e481461067a57806346d22c70146106a55780634d33fbe71461070257806351067f00146107a857610216565b806323b872dd116101e957806323b872dd1461050757806325540917146105755780632d90c7a7146105d05780632f7467b3146105ff57610216565b8063095ea7b31461021b5780630ce90ec2146102695780630dc2f10a146102975780631940a936146104b4575b600080fd5b6102676004803603604081101561023157600080fd5b81019080803573ffffffffffffffffffffffffffffffffffffffff1690602001909291908035906020019092919050505061113d565b005b6102956004803603602081101561027f57600080fd5b810190808035906020019092919050505061125b565b005b3480156102a357600080fd5b506102d0600480360360208110156102ba57600080fd5b810190808035906020019092919050505061160d565b60405180806020018060200180602001806020018863ffffffff1663ffffffff1681526020018781526020018615151515815260200185810385528c818151815260200191508051906020019080838360005b8381101561033e578082015181840152602081019050610323565b50505050905090810190601f16801561036b5780820380516001836020036101000a031916815260200191505b5085810384528b818151815260200191508051906020019080838360005b838110156103a4578082015181840152602081019050610389565b50505050905090810190601f1680156103d15780820380516001836020036101000a031916815260200191505b5085810383528a818151815260200191508051906020019080838360005b8381101561040a5780820151818401526020810190506103ef565b50505050905090810190601f1680156104375780820380516001836020036101000a031916815260200191505b50858103825289818151815260200191508051906020019080838360005b83811015610470578082015181840152602081019050610455565b50505050905090810190601f16801561049d5780820380516001836020036101000a031916815260200191505b509b50505050505050505050505060405180910390f35b3480156104c057600080fd5b506104ed600480360360208110156104d757600080fd5b81019080803590602001909291905050506118fc565b604051808215151515815260200191505060405180910390f35b6105736004803603606081101561051d57600080fd5b81019080803573ffffffffffffffffffffffffffffffffffffffff169060200190929190803573ffffffffffffffffffffffffffffffffffffffff16906020019092919080359060200190929190505050611937565b005b34801561058157600080fd5b506105ae6004803603602081101561059857600080fd5b8101908080359060200190929190505050611a1b565b604051808263ffffffff1663ffffffff16815260200191505060405180910390f35b3480156105dc57600080fd5b506105e5611a58565b604051808215151515815260200191505060405180910390f35b34801561060b57600080fd5b506106386004803603602081101561062257600080fd5b8101908080359060200190929190505050611aa1565b604051808273ffffffffffffffffffffffffffffffffffffffff1673ffffffffffffffffffffffffffffffffffffffff16815260200191505060405180910390f35b34801561068657600080fd5b5061068f611ad4565b6040518082815260200191505060405180910390f35b3480156106b157600080fd5b506106e8600480360360408110156106c857600080fd5b810190808035906020019092919080359060200190929190505050611ae1565b604051808215151515815260200191505060405180910390f35b34801561070e57600080fd5b506107516004803603602081101561072557600080fd5b81019080803573ffffffffffffffffffffffffffffffffffffffff169060200190929190505050611b84565b6040518080602001828103825283818151815260200191508051906020019060200280838360005b83811015610794578082015181840152602081019050610779565b505050509050019250505060405180910390f35b3480156107b457600080fd5b506107bd611cbf565b6040518082815260200191505060405180910390f35b3480156107df57600080fd5b5061080c600480360360208110156107f657600080fd5b8101908080359060200190929190505050611d06565b604051808273ffffffffffffffffffffffffffffffffffffffff1673ffffffffffffffffffffffffffffffffffffffff16815260200191505060405180910390f35b34801561085a57600080fd5b50610863611d43565b6040518082815260200191505060405180910390f35b34801561088557600080fd5b506108b26004803603602081101561089c57600080fd5b8101908080359060200190929190505050611d49565b604051808663ffffffff1663ffffffff168152602001851515151581526020018481526020018381526020018281526020019550505050505060405180910390f35b61092a6004803603604081101561090a57600080fd5b810190808035906020019092919080359060200190929190505050611db9565b005b34801561093857600080fd5b5061097b6004803603602081101561094f57600080fd5b81019080803573ffffffffffffffffffffffffffffffffffffffff169060200190929190505050611de9565b6040518082815260200191505060405180910390f35b34801561099d57600080fd5b506109a6611e32565b005b3480156109b457600080fd5b506109e1600480360360208110156109cb57600080fd5b8101908080359060200190929190505050611f02565b6040518080602001828103825283818151815260200191508051906020019080838360005b83811015610a21578082015181840152602081019050610a06565b50505050905090810190601f168015610a4e5780820380516001836020036101000a031916815260200191505b509250505060405180910390f35b348015610a6857600080fd5b50610a9560048036036020811015610a7f57600080fd5b8101908080359060200190929190505050611fc5565b6040518080602001806020018060200185151515158152602001848103845288818151815260200191508051906020019080838360005b83811015610ae7578082015181840152602081019050610acc565b50505050905090810190601f168015610b145780820380516001836020036101000a031916815260200191505b50848103835287818151815260200191508051906020019080838360005b83811015610b4d578082015181840152602081019050610b32565b50505050905090810190601f168015610b7a5780820380516001836020036101000a031916815260200191505b50848103825286818151815260200191508051906020019080838360005b83811015610bb3578082015181840152602081019050610b98565b50505050905090810190601f168015610be05780820380516001836020036101000a031916815260200191505b5097505050505050505060405180910390f35b348015610bff57600080fd5b50610c086121ef565b6040518080602001828103825283818151815260200191508051906020019060200280838360005b83811015610c4b578082015181840152602081019050610c30565b505050509050019250505060405180910390f35b348015610c6b57600080fd5b50610c9860048036036020811015610c8257600080fd5b8101908080359060200190929190505050612328565b005b348015610ca657600080fd5b50610caf6123d0565b604051808273ffffffffffffffffffffffffffffffffffffffff1673ffffffffffffffffffffffffffffffffffffffff16815260200191505060405180910390f35b348015610cfd57600080fd5b50610d066123f9565b604051808215151515815260200191505060405180910390f35b348015610d2c57600080fd5b50610d5960048036036020811015610d4357600080fd5b8101908080359060200190929190505050612450565b005b348015610d6757600080fd5b50610e2b60048036036040811015610d7e57600080fd5b8101908080359060200190640100000000811115610d9b57600080fd5b820183602082011115610dad57600080fd5b80359060200191846001830284011164010000000083111715610dcf57600080fd5b91908080601f016020809104026020016040519081016040528093929190818152602001838380828437600081840152601f19601f8201169050808301925050505050505091929192908035906020019092919050505061246b565b6040518082815260200191505060405180910390f35b348015610e4d57600080fd5b50610ecf60048036036040811015610e6457600080fd5b810190808035906020019092919080359060200190640100000000811115610e8b57600080fd5b820183602082011115610e9d57600080fd5b80359060200191846001830284011164010000000083111715610ebf57600080fd5b90919293919293905050506124ff565b005b348015610edd57600080fd5b50610f0a60048036036020811015610ef457600080fd5b8101908080359060200190929190505050612578565b604051808763ffffffff1663ffffffff1681526020018663ffffffff1663ffffffff1681526020018563ffffffff1663ffffffff1681526020018463ffffffff1663ffffffff1681526020018363ffffffff1663ffffffff1681526020018263ffffffff1663ffffffff168152602001965050505050505060405180910390f35b348015610f9757600080fd5b50610fc460048036036020811015610fae57600080fd5b8101908080359060200190929190505050612637565b005b348015610fd257600080fd5b50610fff60048036036020811015610fe957600080fd5b8101908080359060200190929190505050612652565b604051808215151515815260200191505060405180910390f35b34801561102557600080fd5b5061105c6004803603604081101561103c57600080fd5b810190808035906020019092919080359060200190929190505050612693565b005b34801561106a57600080fd5b506110976004803603602081101561108157600080fd5b8101908080359060200190929190505050612704565b005b3480156110a557600080fd5b506110e8600480360360208110156110bc57600080fd5b81019080803573ffffffffffffffffffffffffffffffffffffffff169060200190929190505050612aa8565b005b3480156110f657600080fd5b506111236004803603602081101561110d57600080fd5b8101908080359060200190929190505050612ac5565b604051808215151515815260200191505060405180910390f35b806009600082815260200190815260200160002060009054906101000a900473ffffffffffffffffffffffffffffffffffffffff1673ffffffffffffffffffffffffffffffffffffffff163373ffffffffffffffffffffffffffffffffffffffff16146111a957600080fd5b82600e600084815260200190815260200160002060006101000a81548173ffffffffffffffffffffffffffffffffffffffff021916908373ffffffffffffffffffffffffffffffffffffffff160217905550818373ffffffffffffffffffffffffffffffffffffffff163373ffffffffffffffffffffffffffffffffffffffff167f8c5be1e5ebec7d5bd14f71427d1e84f3dd0314c0f7b2291e5b200ac8c7c3b92560405160405180910390a4505050565b806009600082815260200190815260200160002060009054906101000a900473ffffffffffffffffffffffffffffffffffffffff1673ffffffffffffffffffffffffffffffffffffffff163373ffffffffffffffffffffffffffffffffffffffff16146112c757600080fd5b600c5434146112d557600080fd5b34600d60003073ffffffffffffffffffffffffffffffffffffffff1673ffffffffffffffffffffffffffffffffffffffff1681526020019081526020016000206000828254019250508190555060006008838154811061133157fe5b90600052602060002090600c0201905061138960016008858154811061135357fe5b90600052602060002090600c020160040160009054906101000a900463ffffffff1663ffffffff16612b2e90919063ffffffff16565b8160040160006101000a81548163ffffffff021916908363ffffffff1602179055506113dc600582600b0160000160009054906101000a900463ffffffff1663ffffffff16612b2e90919063ffffffff16565b81600b0160000160006101000a81548163ffffffff021916908363ffffffff160217905550611432600282600b0160000160049054906101000a900463ffffffff1663ffffffff16612b2e90919063ffffffff16565b81600b0160000160046101000a81548163ffffffff021916908363ffffffff160217905550611488600282600b0160000160089054906101000a900463ffffffff1663ffffffff16612b2e90919063ffffffff16565b81600b0160000160086101000a81548163ffffffff021916908363ffffffff1602179055506114de600182600b01600001600c9054906101000a900463ffffffff1663ffffffff16612b2e90919063ffffffff16565b81600b01600001600c6101000a81548163ffffffff021916908363ffffffff160217905550611534600182600b0160000160109054906101000a900463ffffffff1663ffffffff16612b2e90919063ffffffff16565b81600b0160000160106101000a81548163ffffffff021916908363ffffffff16021790555061158a600282600b0160000160149054906101000a900463ffffffff1663ffffffff16612b2e90919063ffffffff16565b81600b0160000160146101000a81548163ffffffff021916908363ffffffff1602179055507f3d81d1ad835628fb7aaf501fe84126e79b4f4b0ca7664653bec4a6e968d27715838260040160009054906101000a900463ffffffff16604051808381526020018263ffffffff1681526020019250505060405180910390a1505050565b6060806060806000806000806008898154811061162657fe5b90600052602060002090600c02019050806000018160010182600201836003018460040160009054906101000a900463ffffffff16856009015486600a0160009054906101000a900460ff16868054600181600116156101000203166002900480601f0160208091040260200160405190810160405280929190818152602001828054600181600116156101000203166002900480156117075780601f106116dc57610100808354040283529160200191611707565b820191906000526020600020905b8154815290600101906020018083116116ea57829003601f168201915b50505050509650858054600181600116156101000203166002900480601f0160208091040260200160405190810160405280929190818152602001828054600181600116156101000203166002900480156117a35780601f10611778576101008083540402835291602001916117a3565b820191906000526020600020905b81548152906001019060200180831161178657829003601f168201915b50505050509550848054600181600116156101000203166002900480601f01602080910402602001604051908101604052809291908181526020018280546001816001161561010002031660029004801561183f5780601f106118145761010080835404028352916020019161183f565b820191906000526020600020905b81548152906001019060200180831161182257829003601f168201915b50505050509450838054600181600116156101000203166002900480601f0160208091040260200160405190810160405280929190818152602001828054600181600116156101000203166002900480156118db5780601f106118b0576101008083540402835291602001916118db565b820191906000526020600020905b8154815290600101906020018083116118be57829003601f168201915b50505050509350975097509750975097509750975050919395979092949650565b6000816000811161190c57600080fd5b60006008848154811061191b57fe5b90600052602060002090600c0201600801541415915050919050565b3373ffffffffffffffffffffffffffffffffffffffff166009600083815260200190815260200160002060009054906101000a900473ffffffffffffffffffffffffffffffffffffffff1673ffffffffffffffffffffffffffffffffffffffff161480611a0257503373ffffffffffffffffffffffffffffffffffffffff16600e600083815260200190815260200160002060009054906101000a900473ffffffffffffffffffffffffffffffffffffffff1673ffffffffffffffffffffffffffffffffffffffff16145b611a0b57600080fd5b611a16838383612b56565b505050565b60008060088381548110611a2b57fe5b90600052602060002090600c020190508060040160049054906101000a900463ffffffff16915050919050565b600080600a60003373ffffffffffffffffffffffffffffffffffffffff1673ffffffffffffffffffffffffffffffffffffffff1681526020019081526020016000205414905090565b60096020528060005260406000206000915054906101000a900473ffffffffffffffffffffffffffffffffffffffff1681565b6000600880549050905090565b6000808311611aef57600080fd5b60008211611afc57600080fd5b600060088481548110611b0b57fe5b90600052602060002090600c02019050600060088481548110611b2a57fe5b90600052602060002090600c02019050611b4682868387612da7565b8015611b585750611b578585612e74565b5b8015611b695750611b6885612652565b5b8015611b7a5750611b7984612652565b5b9250505092915050565b606080600a60008473ffffffffffffffffffffffffffffffffffffffff1673ffffffffffffffffffffffffffffffffffffffff16815260200190815260200160002054604051908082528060200260200182016040528015611bf55781602001602082028038833980820191505090505b509050600080905060008090505b600880549050811015611cb4578473ffffffffffffffffffffffffffffffffffffffff166009600083815260200190815260200160002060009054906101000a900473ffffffffffffffffffffffffffffffffffffffff1673ffffffffffffffffffffffffffffffffffffffff161415611ca75780838381518110611c8457fe5b602002602001018181525050611ca4600183612f5290919063ffffffff16565b91505b8080600101915050611c03565b508192505050919050565b6000600a60003373ffffffffffffffffffffffffffffffffffffffff1673ffffffffffffffffffffffffffffffffffffffff16815260200190815260200160002054905090565b60006009600083815260200190815260200160002060009054906101000a900473ffffffffffffffffffffffffffffffffffffffff169050919050565b600b5481565b60008060008060008060088781548110611d5f57fe5b90600052602060002090600c020190508060040160089054906101000a900463ffffffff1681600401600c9054906101000a900460ff16826006015483600701548460080154955095509550955095505091939590929450565b600b54341015611dc857600080fd5b611dd28282611ae1565b611ddb57600080fd5b611de58282612f6e565b5050565b6000600a60008373ffffffffffffffffffffffffffffffffffffffff1673ffffffffffffffffffffffffffffffffffffffff168152602001908152602001600020549050919050565b611e3a6123f9565b611e4357600080fd5b600073ffffffffffffffffffffffffffffffffffffffff166000809054906101000a900473ffffffffffffffffffffffffffffffffffffffff1673ffffffffffffffffffffffffffffffffffffffff167f8be0079c531659141344cd1fd0a4f28419497f9722a3daafe3b4186f6b6457e060405160405180910390a360008060006101000a81548173ffffffffffffffffffffffffffffffffffffffff021916908373ffffffffffffffffffffffffffffffffffffffff160217905550565b606060036001830381548110611f1457fe5b90600052602060002090600702016000018054600181600116156101000203166002900480601f016020809104026020016040519081016040528092919081815260200182805460018160011615610100020316600290048015611fb95780601f10611f8e57610100808354040283529160200191611fb9565b820191906000526020600020905b815481529060010190602001808311611f9c57829003601f168201915b50505050509050919050565b606080606060008060036001870381548110611fdd57fe5b906000526020600020906007020190508060000181600201826003018360050160009054906101000a900460ff16838054600181600116156101000203166002900480601f0160208091040260200160405190810160405280929190818152602001828054600181600116156101000203166002900480156120a05780601f10612075576101008083540402835291602001916120a0565b820191906000526020600020905b81548152906001019060200180831161208357829003601f168201915b50505050509350828054600181600116156101000203166002900480601f01602080910402602001604051908101604052809291908181526020018280546001816001161561010002031660029004801561213c5780601f106121115761010080835404028352916020019161213c565b820191906000526020600020905b81548152906001019060200180831161211f57829003601f168201915b50505050509250818054600181600116156101000203166002900480601f0160208091040260200160405190810160405280929190818152602001828054600181600116156101000203166002900480156121d85780601f106121ad576101008083540402835291602001916121d8565b820191906000526020600020905b8154815290600101906020018083116121bb57829003601f168201915b505050505091509450945094509450509193509193565b606080600a60003373ffffffffffffffffffffffffffffffffffffffff1673ffffffffffffffffffffffffffffffffffffffff168152602001908152602001600020546040519080825280602002602001820160405280156122605781602001602082028038833980820191505090505b509050600080905060008090505b60088054905081101561231f573373ffffffffffffffffffffffffffffffffffffffff166009600083815260200190815260200160002060009054906101000a900473ffffffffffffffffffffffffffffffffffffffff1673ffffffffffffffffffffffffffffffffffffffff16141561231257808383815181106122ef57fe5b60200260200101818152505061230f600183612f5290919063ffffffff16565b91505b808060010191505061226e565b50819250505090565b806000811161233657600080fd5b61233f826118fc565b61234857600080fd5b60006008838154811061235757fe5b90600052602060002090600c0201905061237081613040565b61237957600080fd5b6000816008015490506123c26040518060400160405280600681526020017f6e6f4e616d6500000000000000000000000000000000000000000000000000008152508286613067565b816008016000905550505050565b60008060009054906101000a900473ffffffffffffffffffffffffffffffffffffffff16905090565b60008060009054906101000a900473ffffffffffffffffffffffffffffffffffffffff1673ffffffffffffffffffffffffffffffffffffffff163373ffffffffffffffffffffffffffffffffffffffff1614905090565b6124586123f9565b61246157600080fd5b80600b8190555050565b600080600a60003373ffffffffffffffffffffffffffffffffffffffff1673ffffffffffffffffffffffffffffffffffffffff16815260200190815260200160002054146124b857600080fd5b60008214806124c75750600382145b806124d25750600682145b6124db57600080fd5b60006124e6846130cb565b90506124f684826000808761315a565b91505092915050565b600283816008828154811061251057fe5b90600052602060002090600c020160040160009054906101000a900463ffffffff1663ffffffff16101561254357600080fd5b83836008878154811061255257fe5b90600052602060002090600c02016001019190612570929190613de2565b505050505050565b60008060008060008060006008888154811061259057fe5b90600052602060002090600c0201600b0190508060000160009054906101000a900463ffffffff168160000160049054906101000a900463ffffffff168260000160089054906101000a900463ffffffff1683600001600c9054906101000a900463ffffffff168460000160109054906101000a900463ffffffff168560000160149054906101000a900463ffffffff169650965096509650965096505091939550919395565b61263f6123f9565b61264857600080fd5b80600c8190555050565b6000816000811161266257600080fd5b60006008848154811061267157fe5b90600052602060002090600c0201905061268a81613bf7565b92505050919050565b816009600082815260200190815260200160002060009054906101000a900473ffffffffffffffffffffffffffffffffffffffff1673ffffffffffffffffffffffffffffffffffffffff163373ffffffffffffffffffffffffffffffffffffffff16146126ff57600080fd5b505050565b806009600082815260200190815260200160002060009054906101000a900473ffffffffffffffffffffffffffffffffffffffff1673ffffffffffffffffffffffffffffffffffffffff163373ffffffffffffffffffffffffffffffffffffffff161461277057600080fd5b61277982612ac5565b61278257600080fd5b60006008838154811061279157fe5b90600052602060002090600c020190506127d2600c82600b0160000160009054906101000a900463ffffffff1663ffffffff16612b2e90919063ffffffff16565b81600b0160000160006101000a81548163ffffffff021916908363ffffffff160217905550612828600682600b0160000160049054906101000a900463ffffffff1663ffffffff16612b2e90919063ffffffff16565b81600b0160000160046101000a81548163ffffffff021916908363ffffffff16021790555061287e600682600b0160000160089054906101000a900463ffffffff1663ffffffff16612b2e90919063ffffffff16565b81600b0160000160086101000a81548163ffffffff021916908363ffffffff1602179055506128d4600682600b01600001600c9054906101000a900463ffffffff1663ffffffff16612b2e90919063ffffffff16565b81600b01600001600c6101000a81548163ffffffff021916908363ffffffff16021790555061292a600682600b0160000160109054906101000a900463ffffffff1663ffffffff16612b2e90919063ffffffff16565b81600b0160000160106101000a81548163ffffffff021916908363ffffffff160217905550612980600682600b0160000160149054906101000a900463ffffffff1663ffffffff16612b2e90919063ffffffff16565b81600b0160000160146101000a81548163ffffffff021916908363ffffffff160217905550600060016000836009015481526020019081526020016000205490506000600360018303815481106129d357fe5b90600052602060002090600702019050818160010154146129f357600080fd5b80600001836001019080546001816001161561010002031660029004612a1a929190613e62565b5081836009018190555080600201836002019080546001816001161561010002031660029004612a4b929190613e62565b5080600301836003019080546001816001161561010002031660029004612a73929190613e62565b508060050160009054906101000a900460ff1683600a0160006101000a81548160ff0219169083151502179055505050505050565b612ab06123f9565b612ab957600080fd5b612ac281613c18565b50565b60008060088381548110612ad557fe5b90600052602060002090600c020190506000816009015490506000600160008381526020019081526020016000205414158015612b25575080600160008381526020019081526020016000205414155b92505050919050565b60008082840190508363ffffffff168163ffffffff161015612b4c57fe5b8091505092915050565b600073ffffffffffffffffffffffffffffffffffffffff168273ffffffffffffffffffffffffffffffffffffffff161415612b9057600080fd5b3073ffffffffffffffffffffffffffffffffffffffff168273ffffffffffffffffffffffffffffffffffffffff161415612bc957600080fd5b612c1c6001600a60008573ffffffffffffffffffffffffffffffffffffffff1673ffffffffffffffffffffffffffffffffffffffff16815260200190815260200160002054612f5290919063ffffffff16565b600a60008473ffffffffffffffffffffffffffffffffffffffff1673ffffffffffffffffffffffffffffffffffffffff16815260200190815260200160002081905550612cb26001600a60008673ffffffffffffffffffffffffffffffffffffffff1673ffffffffffffffffffffffffffffffffffffffff16815260200190815260200160002054613d1090919063ffffffff16565b600a60008573ffffffffffffffffffffffffffffffffffffffff1673ffffffffffffffffffffffffffffffffffffffff16815260200190815260200160002081905550816009600083815260200190815260200160002060006101000a81548173ffffffffffffffffffffffffffffffffffffffff021916908373ffffffffffffffffffffffffffffffffffffffff160217905550808273ffffffffffffffffffffffffffffffffffffffff168473ffffffffffffffffffffffffffffffffffffffff167fddf252ad1be2c89b69c2b068fc378daa952ba7f163c4a11628f55a4df523b3ef60405160405180910390a4505050565b600081841415612dba5760009050612e6c565b84600401600c9054906101000a900460ff161580612de6575082600401600c9054906101000a900460ff165b15612df45760009050612e6c565b8185600601541480612e095750838360070154145b15612e175760009050612e6c565b600085600701541480612e2e575060008360070154145b15612e3c5760019050612e6c565b826006015485600601541480612e59575082600701548560070154145b15612e675760009050612e6c565b600190505b949350505050565b60006009600084815260200190815260200160002060009054906101000a900473ffffffffffffffffffffffffffffffffffffffff1673ffffffffffffffffffffffffffffffffffffffff163373ffffffffffffffffffffffffffffffffffffffff1614612ee157600080fd5b6009600083815260200190815260200160002060009054906101000a900473ffffffffffffffffffffffffffffffffffffffff1673ffffffffffffffffffffffffffffffffffffffff163373ffffffffffffffffffffffffffffffffffffffff1614612f4c57600080fd5b92915050565b600080828401905083811015612f6457fe5b8091505092915050565b600060088281548110612f7d57fe5b90600052602060002090600c02019050600060088481548110612f9c57fe5b90600052602060002090600c02019050828160080181905550612fbe82613d27565b612fc781613d27565b7f6b4808987a5cecdf67d54ca5dc20664fafca80ef7195097800c12549245ab20d338585604051808473ffffffffffffffffffffffffffffffffffffffff1673ffffffffffffffffffffffffffffffffffffffff168152602001838152602001828152602001935050505060405180910390a150505050565b6000428260040160089054906101000a900463ffffffff1663ffffffff1611159050919050565b60006008828154811061307657fe5b90600052602060002090600c0201905060008160090154905060006002600083815260200190815260200160002054905060006130b2876130cb565b90506130c1878288888661315a565b5050505050505050565b600080826040516020018082805190602001908083835b6020831061310557805182526020820191506020810190506020830392506130e2565b6001836020036101000a03801982511681845116808217855250505050505090500191505060405160208183030381529060405280519060200120600190049050600554818161315157fe5b06915050919050565b60006060600660405190808252806020026020018201604052801561318e5781602001602082028038833980820191505090505b5090506000869050600080600090505b60068110156131f757600a83816131b157fe5b069150818482815181106131c157fe5b602002602001019063ffffffff16908163ffffffff1681525050600a828403816131e757fe5b049250808060010191505061319e565b50613200613ee9565b6003868154811061320d57fe5b90600052602060002090600702016040518060e0016040529081600082018054600181600116156101000203166002900480601f0160208091040260200160405190810160405280929190818152602001828054600181600116156101000203166002900480156132bf5780601f10613294576101008083540402835291602001916132bf565b820191906000526020600020905b8154815290600101906020018083116132a257829003601f168201915b5050505050815260200160018201548152602001600282018054600181600116156101000203166002900480601f01602080910402602001604051908101604052809291908181526020018280546001816001161561010002031660029004801561336b5780601f106133405761010080835404028352916020019161336b565b820191906000526020600020905b81548152906001019060200180831161334e57829003601f168201915b50505050508152602001600382018054600181600116156101000203166002900480601f01602080910402602001604051908101604052809291908181526020018280546001816001161561010002031660029004801561340d5780601f106133e25761010080835404028352916020019161340d565b820191906000526020600020905b8154815290600101906020018083116133f057829003601f168201915b50505050508152602001600482015481526020016005820160009054906101000a900460ff16151515158152602001600682016040518060c00160405290816000820160009054906101000a900463ffffffff1663ffffffff1663ffffffff1681526020016000820160049054906101000a900463ffffffff1663ffffffff1663ffffffff1681526020016000820160089054906101000a900463ffffffff1663ffffffff1663ffffffff16815260200160008201600c9054906101000a900463ffffffff1663ffffffff1663ffffffff1681526020016000820160109054906101000a900463ffffffff1663ffffffff1663ffffffff1681526020016000820160149054906101000a900463ffffffff1663ffffffff1663ffffffff168152505081525050905061356a8460008151811061354557fe5b60200260200101518260c001516000015163ffffffff16612b2e90919063ffffffff16565b8160c001516000019063ffffffff16908163ffffffff16815250506135ba8460018151811061359557fe5b60200260200101518260c001516020015163ffffffff16612b2e90919063ffffffff16565b8160c001516020019063ffffffff16908163ffffffff168152505061360a846002815181106135e557fe5b60200260200101518260c001516040015163ffffffff16612b2e90919063ffffffff16565b8160c001516040019063ffffffff16908163ffffffff168152505061365a8460038151811061363557fe5b60200260200101518260c001516060015163ffffffff16612b2e90919063ffffffff16565b8160c001516060019063ffffffff16908163ffffffff16815250506136aa8460048151811061368557fe5b60200260200101518260c001516080015163ffffffff16612b2e90919063ffffffff16565b8160c001516080019063ffffffff16908163ffffffff16815250506136fa846005815181106136d557fe5b60200260200101518260c0015160a0015163ffffffff16612b2e90919063ffffffff16565b8160c0015160a0019063ffffffff16908163ffffffff168152505061371d613f2e565b604051806101e001604052808c8152602001836000015181526020018360400151815260200183606001518152602001600163ffffffff168152602001600654420163ffffffff168152602001600754420163ffffffff1681526020016137838d613d51565b151581526020018b81526020018a815260200189815260200160008152602001836020015181526020018360a00151151581526020018360c001518152509050600060016008839080600181540180825580915050906001820390600052602060002090600c0201600090919290919091506000820151816000019080519060200190613811929190613fc0565b50602082015181600101908051906020019061382e929190613fc0565b50604082015181600201908051906020019061384b929190613fc0565b506060820151816003019080519060200190613868929190613fc0565b5060808201518160040160006101000a81548163ffffffff021916908363ffffffff16021790555060a08201518160040160046101000a81548163ffffffff021916908363ffffffff16021790555060c08201518160040160086101000a81548163ffffffff021916908363ffffffff16021790555060e082015181600401600c6101000a81548160ff021916908315150217905550610100820151816005015561012082015181600601556101408201518160070155610160820151816008015561018082015181600901556101a082015181600a0160006101000a81548160ff0219169083151502179055506101c082015181600b0160008201518160000160006101000a81548163ffffffff021916908363ffffffff16021790555060208201518160000160046101000a81548163ffffffff021916908363ffffffff16021790555060408201518160000160086101000a81548163ffffffff021916908363ffffffff160217905550606082015181600001600c6101000a81548163ffffffff021916908363ffffffff16021790555060808201518160000160106101000a81548163ffffffff021916908363ffffffff16021790555060a08201518160000160146101000a81548163ffffffff021916908363ffffffff16021790555050505050039050336009600083815260200190815260200160002060006101000a81548173ffffffffffffffffffffffffffffffffffffffff021916908373ffffffffffffffffffffffffffffffffffffffff160217905550613af66001600a60003373ffffffffffffffffffffffffffffffffffffffff1673ffffffffffffffffffffffffffffffffffffffff16815260200190815260200160002054612f5290919063ffffffff16565b600a60003373ffffffffffffffffffffffffffffffffffffffff1673ffffffffffffffffffffffffffffffffffffffff168152602001908152602001600020819055507fb2ddd0094c7d8b02387161898cbaa1bbcb4cee4731fdeceb76548071724adcd2818d8d6040518084815260200180602001838152602001828103825284818151815260200191508051906020019080838360005b83811015613ba9578082015181840152602081019050613b8e565b50505050905090810190601f168015613bd65780820380516001836020036101000a031916815260200191505b5094505050505060405180910390a180965050505050505095945050505050565b6000808260080154148015613c115750613c1082613040565b5b9050919050565b600073ffffffffffffffffffffffffffffffffffffffff168173ffffffffffffffffffffffffffffffffffffffff161415613c5257600080fd5b8073ffffffffffffffffffffffffffffffffffffffff166000809054906101000a900473ffffffffffffffffffffffffffffffffffffffff1673ffffffffffffffffffffffffffffffffffffffff167f8be0079c531659141344cd1fd0a4f28419497f9722a3daafe3b4186f6b6457e060405160405180910390a3806000806101000a81548173ffffffffffffffffffffffffffffffffffffffff021916908373ffffffffffffffffffffffffffffffffffffffff16021790555050565b600082821115613d1c57fe5b818303905092915050565b60075442018160040160086101000a81548163ffffffff021916908363ffffffff16021790555050565b600080826040516020018082805190602001908083835b60208310613d8b5780518252602082019150602081019050602083039250613d68565b6001836020036101000a03801982511681845116808217855250505050505090500191505060405160208183030381529060405280519060200120600190049050600060028281613dd857fe5b0614915050919050565b828054600181600116156101000203166002900490600052602060002090601f016020900481019282601f10613e2357803560ff1916838001178555613e51565b82800160010185558215613e51579182015b82811115613e50578235825591602001919060010190613e35565b5b509050613e5e9190614040565b5090565b828054600181600116156101000203166002900490600052602060002090601f016020900481019282601f10613e9b5780548555613ed8565b82800160010185558215613ed857600052602060002091601f016020900482015b82811115613ed7578254825591600101919060010190613ebc565b5b509050613ee59190614040565b5090565b6040518060e001604052806060815260200160008152602001606081526020016060815260200160008152602001600015158152602001613f28614065565b81525090565b604051806101e0016040528060608152602001606081526020016060815260200160608152602001600063ffffffff168152602001600063ffffffff168152602001600063ffffffff1681526020016000151581526020016000815260200160008152602001600081526020016000815260200160008152602001600015158152602001613fba614065565b81525090565b828054600181600116156101000203166002900490600052602060002090601f016020900481019282601f1061400157805160ff191683800117855561402f565b8280016001018555821561402f579182015b8281111561402e578251825591602001919060010190614013565b5b50905061403c9190614040565b5090565b61406291905b8082111561405e576000816000905550600101614046565b5090565b90565b6040518060c00160405280600063ffffffff168152602001600063ffffffff168152602001600063ffffffff168152602001600063ffffffff168152602001600063ffffffff168152602001600063ffffffff168152509056fea265627a7a7231582064b25c990b0bc840596ab7b91859ec3459b43fe6f71006ba62dd465b7bec89d564736f6c63430005100032",
  "source": "pragma solidity >=0.5.0 <0.6.0;\n\nimport \"./PokemonCardAttack.sol\";\nimport \"./ERC721.sol\";\n\ncontract PokemonCardOwnership is PokemonCardAttack, ERC721 {\n\n\tmapping (uint => address) pokemonApprovals;\n\n\tfunction balanceOf(address _owner) external view returns (uint256) {\n\t\treturn ownerPokemonCount[_owner];\n\t}\n\n\tfunction ownerOf(uint _tokenId) external view returns (address) {\n\t\treturn pokemonToOwner[_tokenId];\n\t}\n\n\tfunction _transfer(address _from, address _to, uint256 _tokenId) internal {\n\t\trequire(_to != address(0));\n\t\trequire(_to != address(this));\n\t\townerPokemonCount[_to] = ownerPokemonCount[_to].add(1);\n\t\townerPokemonCount[_from] = ownerPokemonCount[_from].sub(1);\n\t\tpokemonToOwner[_tokenId] = address(uint160(_to));\n\t\temit Transfer(_from, _to, _tokenId);\n\t}\n\n\tfunction transferFrom(address _from, address _to, uint256 _tokenId) external payable {\n\t\trequire(pokemonToOwner[_tokenId] == msg.sender || pokemonApprovals[_tokenId] == msg.sender);\n\t\t_transfer(_from, _to, _tokenId);\n\t}\n\n\tfunction approve(address _approved, uint256 _tokenId) external payable ownerOfPokemon(_tokenId) {\n\t\tpokemonApprovals[_tokenId] = _approved;\n\t\temit Approval(msg.sender, _approved, _tokenId);\n\t}\n\n}",
  "sourcePath": "/Users/ztq/Dropbox/Computer Science/CO467/crypto-pokemons/contracts/PokemonCardOwnership.sol",
  "compiler": {
    "name": "solc",
    "version": "0.5.16+commit.9c3226ce.Emscripten.clang"
  },
  "schemaVersion": "3.0.23",
  "updatedAt": "2020-02-10T16:15:18.873Z",
  "devdoc": {
    "methods": {
      "isOwner()": {
        "return": "true if `msg.sender` is the owner of the contract."
      },
      "owner()": {
        "return": "the address of the owner."
      },
      "renounceOwnership()": {
        "details": "Allows the current owner to relinquish control of the contract."
      },
      "transferOwnership(address)": {
        "details": "Allows the current owner to transfer control of the contract to a newOwner.",
        "params": {
          "newOwner": "The address to transfer ownership to."
        }
      }
    }
  },
  "userdoc": {
    "methods": {
      "renounceOwnership()": {
        "notice": "Renouncing to ownership will leave the contract without an owner. It will not be possible to call the functions with the `onlyOwner` modifier anymore."
      }
    }
  }
}