{
  "contractName": "PokemonCardMarketplace",
  "abi": [
    {
      "anonymous": false,
      "inputs": [
        {
          "indexed": true,
          "internalType": "address",
          "name": "_owner",
          "type": "address"
        },
        {
          "indexed": true,
          "internalType": "address",
          "name": "_approved",
          "type": "address"
        },
        {
          "indexed": true,
          "internalType": "uint256",
          "name": "_tokenId",
          "type": "uint256"
        }
      ],
      "name": "Approval",
      "type": "event"
    },
    {
      "anonymous": false,
      "inputs": [
        {
          "indexed": false,
          "internalType": "uint256",
          "name": "itemId",
          "type": "uint256"
        },
        {
          "indexed": false,
          "internalType": "uint256",
          "name": "pokemonId",
          "type": "uint256"
        },
        {
          "indexed": false,
          "internalType": "address",
          "name": "seller",
          "type": "address"
        }
      ],
      "name": "NewItem",
      "type": "event"
    },
    {
      "anonymous": false,
      "inputs": [
        {
          "indexed": false,
          "internalType": "uint256",
          "name": "pokemonId",
          "type": "uint256"
        },
        {
          "indexed": false,
          "internalType": "string",
          "name": "name",
          "type": "string"
        },
        {
          "indexed": false,
          "internalType": "uint256",
          "name": "dna",
          "type": "uint256"
        }
      ],
      "name": "NewPokemon",
      "type": "event"
    },
    {
      "anonymous": false,
      "inputs": [
        {
          "indexed": true,
          "internalType": "address",
          "name": "previousOwner",
          "type": "address"
        },
        {
          "indexed": true,
          "internalType": "address",
          "name": "newOwner",
          "type": "address"
        }
      ],
      "name": "OwnershipTransferred",
      "type": "event"
    },
    {
      "anonymous": false,
      "inputs": [
        {
          "indexed": false,
          "internalType": "uint256",
          "name": "_pokemonId",
          "type": "uint256"
        }
      ],
      "name": "PokemonEvolve",
      "type": "event"
    },
    {
      "anonymous": false,
      "inputs": [
        {
          "indexed": false,
          "internalType": "uint256",
          "name": "_pokemonId",
          "type": "uint256"
        },
        {
          "indexed": false,
          "internalType": "uint256",
          "name": "newLevel",
          "type": "uint256"
        }
      ],
      "name": "PokemonLevelUp",
      "type": "event"
    },
    {
      "anonymous": false,
      "inputs": [
        {
          "indexed": false,
          "internalType": "address",
          "name": "owner",
          "type": "address"
        },
        {
          "indexed": false,
          "internalType": "uint256",
          "name": "motherId",
          "type": "uint256"
        },
        {
          "indexed": false,
          "internalType": "uint256",
          "name": "fatherId",
          "type": "uint256"
        }
      ],
      "name": "Pregnant",
      "type": "event"
    },
    {
      "anonymous": false,
      "inputs": [
        {
          "indexed": false,
          "internalType": "uint256",
          "name": "itemId",
          "type": "uint256"
        },
        {
          "indexed": false,
          "internalType": "address",
          "name": "seller",
          "type": "address"
        },
        {
          "indexed": false,
          "internalType": "uint256",
          "name": "newPrice",
          "type": "uint256"
        }
      ],
      "name": "PriceChange",
      "type": "event"
    },
    {
      "anonymous": false,
      "inputs": [
        {
          "indexed": false,
          "internalType": "uint256",
          "name": "itemId",
          "type": "uint256"
        },
        {
          "indexed": false,
          "internalType": "uint256",
          "name": "pokemonId",
          "type": "uint256"
        },
        {
          "indexed": false,
          "internalType": "address",
          "name": "buyer",
          "type": "address"
        }
      ],
      "name": "SoldPokemon",
      "type": "event"
    },
    {
      "anonymous": false,
      "inputs": [
        {
          "indexed": false,
          "internalType": "uint256",
          "name": "itemId",
          "type": "uint256"
        },
        {
          "indexed": false,
          "internalType": "address",
          "name": "seller",
          "type": "address"
        }
      ],
      "name": "TakenOffMarket",
      "type": "event"
    },
    {
      "anonymous": false,
      "inputs": [
        {
          "indexed": true,
          "internalType": "address",
          "name": "_from",
          "type": "address"
        },
        {
          "indexed": true,
          "internalType": "address",
          "name": "_to",
          "type": "address"
        },
        {
          "indexed": true,
          "internalType": "uint256",
          "name": "_tokenId",
          "type": "uint256"
        }
      ],
      "name": "Transfer",
      "type": "event"
    },
    {
      "constant": false,
      "inputs": [
        {
          "internalType": "address",
          "name": "_approved",
          "type": "address"
        },
        {
          "internalType": "uint256",
          "name": "_tokenId",
          "type": "uint256"
        }
      ],
      "name": "approve",
      "outputs": [],
      "payable": true,
      "stateMutability": "payable",
      "type": "function"
    },
    {
      "constant": false,
      "inputs": [
        {
          "internalType": "uint256",
          "name": "_pokemonId",
          "type": "uint256"
        },
        {
          "internalType": "uint256",
          "name": "_enemyPokemonId",
          "type": "uint256"
        }
      ],
      "name": "attack",
      "outputs": [],
      "payable": false,
      "stateMutability": "nonpayable",
      "type": "function"
    },
    {
      "constant": true,
      "inputs": [
        {
          "internalType": "address",
          "name": "_owner",
          "type": "address"
        }
      ],
      "name": "balanceOf",
      "outputs": [
        {
          "internalType": "uint256",
          "name": "",
          "type": "uint256"
        }
      ],
      "payable": false,
      "stateMutability": "view",
      "type": "function"
    },
    {
      "constant": true,
      "inputs": [],
      "name": "birthFee",
      "outputs": [
        {
          "internalType": "uint256",
          "name": "",
          "type": "uint256"
        }
      ],
      "payable": false,
      "stateMutability": "view",
      "type": "function"
    },
    {
      "constant": false,
      "inputs": [
        {
          "internalType": "uint256",
          "name": "_motherId",
          "type": "uint256"
        },
        {
          "internalType": "uint256",
          "name": "_fatherId",
          "type": "uint256"
        }
      ],
      "name": "breedWith",
      "outputs": [],
      "payable": true,
      "stateMutability": "payable",
      "type": "function"
    },
    {
      "constant": false,
      "inputs": [],
      "name": "buyRarePack",
      "outputs": [
        {
          "internalType": "uint256",
          "name": "",
          "type": "uint256"
        }
      ],
      "payable": true,
      "stateMutability": "payable",
      "type": "function"
    },
    {
      "constant": false,
      "inputs": [],
      "name": "buyStarterPack",
      "outputs": [
        {
          "internalType": "uint256",
          "name": "",
          "type": "uint256"
        }
      ],
      "payable": true,
      "stateMutability": "payable",
      "type": "function"
    },
    {
      "constant": true,
      "inputs": [
        {
          "internalType": "uint256",
          "name": "_motherId",
          "type": "uint256"
        },
        {
          "internalType": "uint256",
          "name": "_fatherId",
          "type": "uint256"
        }
      ],
      "name": "canBreedWith",
      "outputs": [
        {
          "internalType": "bool",
          "name": "",
          "type": "bool"
        }
      ],
      "payable": false,
      "stateMutability": "view",
      "type": "function"
    },
    {
      "constant": false,
      "inputs": [
        {
          "internalType": "uint256",
          "name": "_pokemonId",
          "type": "uint256"
        },
        {
          "internalType": "string",
          "name": "_newName",
          "type": "string"
        }
      ],
      "name": "changeName",
      "outputs": [],
      "payable": false,
      "stateMutability": "nonpayable",
      "type": "function"
    },
    {
      "constant": false,
      "inputs": [
        {
          "internalType": "string",
          "name": "_nickname",
          "type": "string"
        },
        {
          "internalType": "uint256",
          "name": "_pokemonNumber",
          "type": "uint256"
        }
      ],
      "name": "createStarterPokemon",
      "outputs": [
        {
          "internalType": "uint256",
          "name": "",
          "type": "uint256"
        }
      ],
      "payable": false,
      "stateMutability": "nonpayable",
      "type": "function"
    },
    {
      "constant": true,
      "inputs": [],
      "name": "creationFee",
      "outputs": [
        {
          "internalType": "uint256",
          "name": "",
          "type": "uint256"
        }
      ],
      "payable": false,
      "stateMutability": "view",
      "type": "function"
    },
    {
      "constant": false,
      "inputs": [
        {
          "internalType": "uint256",
          "name": "_pokemonId",
          "type": "uint256"
        }
      ],
      "name": "evolve",
      "outputs": [
        {
          "internalType": "string",
          "name": "",
          "type": "string"
        },
        {
          "internalType": "uint256",
          "name": "",
          "type": "uint256"
        },
        {
          "internalType": "uint32",
          "name": "",
          "type": "uint32"
        },
        {
          "internalType": "uint32",
          "name": "",
          "type": "uint32"
        },
        {
          "internalType": "uint32",
          "name": "",
          "type": "uint32"
        }
      ],
      "payable": false,
      "stateMutability": "nonpayable",
      "type": "function"
    },
    {
      "constant": true,
      "inputs": [
        {
          "internalType": "uint256",
          "name": "pokemonNumber",
          "type": "uint256"
        }
      ],
      "name": "getBasicPokemonInfo",
      "outputs": [
        {
          "internalType": "string",
          "name": "",
          "type": "string"
        },
        {
          "internalType": "string",
          "name": "",
          "type": "string"
        },
        {
          "internalType": "string",
          "name": "",
          "type": "string"
        },
        {
          "internalType": "bool",
          "name": "",
          "type": "bool"
        }
      ],
      "payable": false,
      "stateMutability": "view",
      "type": "function"
    },
    {
      "constant": true,
      "inputs": [
        {
          "internalType": "uint256",
          "name": "_pokemonId",
          "type": "uint256"
        }
      ],
      "name": "getBreedingTimeRemaining",
      "outputs": [
        {
          "internalType": "uint32",
          "name": "",
          "type": "uint32"
        }
      ],
      "payable": false,
      "stateMutability": "view",
      "type": "function"
    },
    {
      "constant": true,
      "inputs": [],
      "name": "getPendingWithdrawals",
      "outputs": [
        {
          "internalType": "uint256",
          "name": "",
          "type": "uint256"
        }
      ],
      "payable": false,
      "stateMutability": "view",
      "type": "function"
    },
    {
      "constant": true,
      "inputs": [
        {
          "internalType": "uint256",
          "name": "_pokemonId",
          "type": "uint256"
        }
      ],
      "name": "getPokemonBattleDetails",
      "outputs": [
        {
          "internalType": "uint32",
          "name": "",
          "type": "uint32"
        }
      ],
      "payable": false,
      "stateMutability": "view",
      "type": "function"
    },
    {
      "constant": true,
      "inputs": [
        {
          "internalType": "uint256",
          "name": "_pokemonId",
          "type": "uint256"
        }
      ],
      "name": "getPokemonBreedingDetails",
      "outputs": [
        {
          "internalType": "uint32",
          "name": "",
          "type": "uint32"
        },
        {
          "internalType": "bool",
          "name": "",
          "type": "bool"
        },
        {
          "internalType": "uint256",
          "name": "",
          "type": "uint256"
        },
        {
          "internalType": "uint256",
          "name": "",
          "type": "uint256"
        },
        {
          "internalType": "uint256",
          "name": "",
          "type": "uint256"
        }
      ],
      "payable": false,
      "stateMutability": "view",
      "type": "function"
    },
    {
      "constant": true,
      "inputs": [
        {
          "internalType": "address",
          "name": "_owner",
          "type": "address"
        }
      ],
      "name": "getPokemonCardsByOwner",
      "outputs": [
        {
          "internalType": "uint256[]",
          "name": "",
          "type": "uint256[]"
        }
      ],
      "payable": false,
      "stateMutability": "view",
      "type": "function"
    },
    {
      "constant": true,
      "inputs": [],
      "name": "getPokemonCardsByOwner",
      "outputs": [
        {
          "internalType": "uint256[]",
          "name": "",
          "type": "uint256[]"
        }
      ],
      "payable": false,
      "stateMutability": "view",
      "type": "function"
    },
    {
      "constant": true,
      "inputs": [
        {
          "internalType": "uint256",
          "name": "_pokemonId",
          "type": "uint256"
        }
      ],
      "name": "getPokemonInfo",
      "outputs": [
        {
          "internalType": "string",
          "name": "",
          "type": "string"
        },
        {
          "internalType": "string",
          "name": "",
          "type": "string"
        },
        {
          "internalType": "string",
          "name": "",
          "type": "string"
        },
        {
          "internalType": "string",
          "name": "",
          "type": "string"
        },
        {
          "internalType": "uint32",
          "name": "",
          "type": "uint32"
        },
        {
          "internalType": "uint256",
          "name": "",
          "type": "uint256"
        },
        {
          "internalType": "bool",
          "name": "",
          "type": "bool"
        }
      ],
      "payable": false,
      "stateMutability": "view",
      "type": "function"
    },
    {
      "constant": true,
      "inputs": [
        {
          "internalType": "uint256",
          "name": "pokemonNumber",
          "type": "uint256"
        }
      ],
      "name": "getPokemonName",
      "outputs": [
        {
          "internalType": "string",
          "name": "",
          "type": "string"
        }
      ],
      "payable": false,
      "stateMutability": "view",
      "type": "function"
    },
    {
      "constant": true,
      "inputs": [
        {
          "internalType": "uint256",
          "name": "_pokemonId",
          "type": "uint256"
        }
      ],
      "name": "getPokemonStats",
      "outputs": [
        {
          "internalType": "uint32",
          "name": "",
          "type": "uint32"
        },
        {
          "internalType": "uint32",
          "name": "",
          "type": "uint32"
        },
        {
          "internalType": "uint32",
          "name": "",
          "type": "uint32"
        },
        {
          "internalType": "uint32",
          "name": "",
          "type": "uint32"
        },
        {
          "internalType": "uint32",
          "name": "",
          "type": "uint32"
        },
        {
          "internalType": "uint32",
          "name": "",
          "type": "uint32"
        }
      ],
      "payable": false,
      "stateMutability": "view",
      "type": "function"
    },
    {
      "constant": false,
      "inputs": [
        {
          "internalType": "uint256",
          "name": "_motherId",
          "type": "uint256"
        }
      ],
      "name": "giveBirth",
      "outputs": [
        {
          "internalType": "uint256",
          "name": "",
          "type": "uint256"
        }
      ],
      "payable": false,
      "stateMutability": "nonpayable",
      "type": "function"
    },
    {
      "constant": true,
      "inputs": [
        {
          "internalType": "uint256",
          "name": "_pokemonId",
          "type": "uint256"
        }
      ],
      "name": "isEvovalble",
      "outputs": [
        {
          "internalType": "bool",
          "name": "",
          "type": "bool"
        }
      ],
      "payable": false,
      "stateMutability": "view",
      "type": "function"
    },
    {
      "constant": true,
      "inputs": [],
      "name": "isNewTrainer",
      "outputs": [
        {
          "internalType": "bool",
          "name": "",
          "type": "bool"
        }
      ],
      "payable": false,
      "stateMutability": "view",
      "type": "function"
    },
    {
      "constant": true,
      "inputs": [],
      "name": "isOwner",
      "outputs": [
        {
          "internalType": "bool",
          "name": "",
          "type": "bool"
        }
      ],
      "payable": false,
      "stateMutability": "view",
      "type": "function"
    },
    {
      "constant": true,
      "inputs": [
        {
          "internalType": "uint256",
          "name": "_pokemonId",
          "type": "uint256"
        }
      ],
      "name": "isPregnant",
      "outputs": [
        {
          "internalType": "bool",
          "name": "",
          "type": "bool"
        }
      ],
      "payable": false,
      "stateMutability": "view",
      "type": "function"
    },
    {
      "constant": true,
      "inputs": [
        {
          "internalType": "uint256",
          "name": "_pokemonId",
          "type": "uint256"
        }
      ],
      "name": "isReadyToBreed",
      "outputs": [
        {
          "internalType": "bool",
          "name": "",
          "type": "bool"
        }
      ],
      "payable": false,
      "stateMutability": "view",
      "type": "function"
    },
    {
      "constant": true,
      "inputs": [
        {
          "internalType": "uint256",
          "name": "_pokemonId",
          "type": "uint256"
        }
      ],
      "name": "isReadyToGiveBirth",
      "outputs": [
        {
          "internalType": "bool",
          "name": "",
          "type": "bool"
        }
      ],
      "payable": false,
      "stateMutability": "view",
      "type": "function"
    },
    {
      "constant": false,
      "inputs": [
        {
          "internalType": "uint256",
          "name": "_pokemonId",
          "type": "uint256"
        }
      ],
      "name": "levelUp",
      "outputs": [],
      "payable": true,
      "stateMutability": "payable",
      "type": "function"
    },
    {
      "constant": true,
      "inputs": [
        {
          "internalType": "uint256",
          "name": "",
          "type": "uint256"
        }
      ],
      "name": "market",
      "outputs": [
        {
          "internalType": "address",
          "name": "winner",
          "type": "address"
        },
        {
          "internalType": "address",
          "name": "seller",
          "type": "address"
        },
        {
          "internalType": "uint256",
          "name": "pokemonId",
          "type": "uint256"
        },
        {
          "internalType": "uint256",
          "name": "price",
          "type": "uint256"
        },
        {
          "internalType": "bool",
          "name": "ended",
          "type": "bool"
        }
      ],
      "payable": false,
      "stateMutability": "view",
      "type": "function"
    },
    {
      "constant": true,
      "inputs": [],
      "name": "owner",
      "outputs": [
        {
          "internalType": "address",
          "name": "",
          "type": "address"
        }
      ],
      "payable": false,
      "stateMutability": "view",
      "type": "function"
    },
    {
      "constant": true,
      "inputs": [
        {
          "internalType": "uint256",
          "name": "_tokenId",
          "type": "uint256"
        }
      ],
      "name": "ownerOf",
      "outputs": [
        {
          "internalType": "address",
          "name": "",
          "type": "address"
        }
      ],
      "payable": false,
      "stateMutability": "view",
      "type": "function"
    },
    {
      "constant": true,
      "inputs": [
        {
          "internalType": "uint256",
          "name": "",
          "type": "uint256"
        }
      ],
      "name": "pokemonToOwner",
      "outputs": [
        {
          "internalType": "address payable",
          "name": "",
          "type": "address"
        }
      ],
      "payable": false,
      "stateMutability": "view",
      "type": "function"
    },
    {
      "constant": false,
      "inputs": [],
      "name": "renounceOwnership",
      "outputs": [],
      "payable": false,
      "stateMutability": "nonpayable",
      "type": "function"
    },
    {
      "constant": true,
      "inputs": [],
      "name": "returnNumberOfPokemons",
      "outputs": [
        {
          "internalType": "uint256",
          "name": "",
          "type": "uint256"
        }
      ],
      "payable": false,
      "stateMutability": "view",
      "type": "function"
    },
    {
      "constant": true,
      "inputs": [],
      "name": "returnTotalNumberOfPokemons",
      "outputs": [
        {
          "internalType": "uint256",
          "name": "",
          "type": "uint256"
        }
      ],
      "payable": false,
      "stateMutability": "view",
      "type": "function"
    },
    {
      "constant": false,
      "inputs": [
        {
          "internalType": "uint256",
          "name": "fee",
          "type": "uint256"
        }
      ],
      "name": "setBirthFee",
      "outputs": [],
      "payable": false,
      "stateMutability": "nonpayable",
      "type": "function"
    },
    {
      "constant": false,
      "inputs": [
        {
          "internalType": "uint256",
          "name": "_fee",
          "type": "uint256"
        }
      ],
      "name": "setLevelUpFee",
      "outputs": [],
      "payable": false,
      "stateMutability": "nonpayable",
      "type": "function"
    },
    {
      "constant": false,
      "inputs": [
        {
          "internalType": "address",
          "name": "_from",
          "type": "address"
        },
        {
          "internalType": "address",
          "name": "_to",
          "type": "address"
        },
        {
          "internalType": "uint256",
          "name": "_tokenId",
          "type": "uint256"
        }
      ],
      "name": "transferFrom",
      "outputs": [],
      "payable": true,
      "stateMutability": "payable",
      "type": "function"
    },
    {
      "constant": false,
      "inputs": [
        {
          "internalType": "address",
          "name": "newOwner",
          "type": "address"
        }
      ],
      "name": "transferOwnership",
      "outputs": [],
      "payable": false,
      "stateMutability": "nonpayable",
      "type": "function"
    },
    {
      "constant": false,
      "inputs": [],
      "name": "withdraw",
      "outputs": [],
      "payable": false,
      "stateMutability": "nonpayable",
      "type": "function"
    },
    {
      "constant": true,
      "inputs": [
        {
          "internalType": "uint256",
          "name": "_pokemonId",
          "type": "uint256"
        }
      ],
      "name": "isSelling",
      "outputs": [
        {
          "internalType": "bool",
          "name": "",
          "type": "bool"
        }
      ],
      "payable": false,
      "stateMutability": "view",
      "type": "function"
    },
    {
      "constant": false,
      "inputs": [
        {
          "internalType": "uint256",
          "name": "_pokemonId",
          "type": "uint256"
        },
        {
          "internalType": "uint256",
          "name": "_price",
          "type": "uint256"
        }
      ],
      "name": "createItem",
      "outputs": [],
      "payable": true,
      "stateMutability": "payable",
      "type": "function"
    },
    {
      "constant": false,
      "inputs": [
        {
          "internalType": "uint256",
          "name": "_itemId",
          "type": "uint256"
        }
      ],
      "name": "buyItem",
      "outputs": [],
      "payable": true,
      "stateMutability": "payable",
      "type": "function"
    },
    {
      "constant": false,
      "inputs": [
        {
          "internalType": "uint256",
          "name": "_itemId",
          "type": "uint256"
        }
      ],
      "name": "takeOffMarket",
      "outputs": [],
      "payable": true,
      "stateMutability": "payable",
      "type": "function"
    },
    {
      "constant": false,
      "inputs": [
        {
          "internalType": "uint256",
          "name": "_pokemonId",
          "type": "uint256"
        }
      ],
      "name": "takeOffMarketWithPokemonId",
      "outputs": [],
      "payable": true,
      "stateMutability": "payable",
      "type": "function"
    },
    {
      "constant": true,
      "inputs": [],
      "name": "getMarketCount",
      "outputs": [
        {
          "internalType": "uint256",
          "name": "",
          "type": "uint256"
        }
      ],
      "payable": false,
      "stateMutability": "view",
      "type": "function"
    },
    {
      "constant": true,
      "inputs": [],
      "name": "getTotalMarketItems",
      "outputs": [
        {
          "internalType": "uint256",
          "name": "",
          "type": "uint256"
        }
      ],
      "payable": false,
      "stateMutability": "view",
      "type": "function"
    },
    {
      "constant": true,
      "inputs": [
        {
          "internalType": "uint256",
          "name": "itemId",
          "type": "uint256"
        }
      ],
      "name": "getPrice",
      "outputs": [
        {
          "internalType": "uint256",
          "name": "",
          "type": "uint256"
        }
      ],
      "payable": false,
      "stateMutability": "view",
      "type": "function"
    },
    {
      "constant": false,
      "inputs": [
        {
          "internalType": "uint256",
          "name": "_fee",
          "type": "uint256"
        }
      ],
      "name": "setCreationFee",
      "outputs": [],
      "payable": false,
      "stateMutability": "nonpayable",
      "type": "function"
    },
    {
      "constant": true,
      "inputs": [
        {
          "internalType": "uint256",
          "name": "_itemId",
          "type": "uint256"
        }
      ],
      "name": "getItemInfo",
      "outputs": [
        {
          "internalType": "address",
          "name": "",
          "type": "address"
        },
        {
          "internalType": "uint256",
          "name": "",
          "type": "uint256"
        },
        {
          "internalType": "uint256",
          "name": "",
          "type": "uint256"
        }
      ],
      "payable": false,
      "stateMutability": "view",
      "type": "function"
    },
    {
      "constant": true,
      "inputs": [
        {
          "internalType": "uint256",
          "name": "_itemId",
          "type": "uint256"
        }
      ],
      "name": "getItemAndPokemonInfo",
      "outputs": [
        {
          "internalType": "address",
          "name": "",
          "type": "address"
        },
        {
          "internalType": "uint256",
          "name": "",
          "type": "uint256"
        },
        {
          "internalType": "uint256",
          "name": "",
          "type": "uint256"
        },
        {
          "internalType": "uint256",
          "name": "",
          "type": "uint256"
        },
        {
          "internalType": "string",
          "name": "",
          "type": "string"
        },
        {
          "internalType": "string",
          "name": "",
          "type": "string"
        },
        {
          "internalType": "uint32",
          "name": "",
          "type": "uint32"
        },
        {
          "internalType": "uint32",
          "name": "",
          "type": "uint32"
        },
        {
          "internalType": "uint32",
          "name": "",
          "type": "uint32"
        },
        {
          "internalType": "uint32",
          "name": "",
          "type": "uint32"
        },
        {
          "internalType": "uint32",
          "name": "",
          "type": "uint32"
        },
        {
          "internalType": "uint32",
          "name": "",
          "type": "uint32"
        },
        {
          "internalType": "bool",
          "name": "",
          "type": "bool"
        }
      ],
      "payable": false,
      "stateMutability": "view",
      "type": "function"
    },
    {
      "constant": true,
      "inputs": [],
      "name": "getAllMarketplaceItems",
      "outputs": [
        {
          "internalType": "uint256[]",
          "name": "",
          "type": "uint256[]"
        }
      ],
      "payable": false,
      "stateMutability": "view",
      "type": "function"
    }
  ],
  "bytecode": "0x60806040526010600455600454600a0a6005556005600655600560075560006008556605543df729c000600c5566038d7ea4c68000600d556605543df729c000601455336000806101000a81548173ffffffffffffffffffffffffffffffffffffffff021916908373ffffffffffffffffffffffffffffffffffffffff1602179055506000809054906101000a900473ffffffffffffffffffffffffffffffffffffffff1673ffffffffffffffffffffffffffffffffffffffff16600073ffffffffffffffffffffffffffffffffffffffff167f8be0079c531659141344cd1fd0a4f28419497f9722a3daafe3b4186f6b6457e060405160405180910390a3630000011963000001aa640100000000026401000000009004565b6300000134630001b9b1640100000000026401000000009004565b630000014f630001c0cf640100000000026401000000009004565b63000001a26040518060400160405280600781526020017f496e697469616c000000000000000000000000000000000000000000000000008152506000630001d027640100000000026401000000009004565b50630001dfe2565b60036040518060e001604052806040518060400160405280600981526020017f42756c62617361757200000000000000000000000000000000000000000000008152508152602001600181526020016040518060400160405280600581526020017f477261737300000000000000000000000000000000000000000000000000000081525081526020016040518060400160405280600681526020017f506f69736f6e0000000000000000000000000000000000000000000000000000815250815260200161024681526020016000151581526020016040518060c00160405280602d63ffffffff168152602001603163ffffffff168152602001603163ffffffff168152602001604163ffffffff168152602001604163ffffffff168152602001602d63ffffffff168152508152509080600181540180825580915050906001820390600052602060002090600702016000909192909190915060008201518160000190805190602001906300000325929190630001ddf0565b506020820151816001015560408201518160020190805190602001906300000350929190630001ddf0565b5060608201518160030190805190602001906300000371929190630001ddf0565b506080820151816004015560a08201518160050160006101000a81548160ff02191690831515021790555060c08201518160060160008201518160000160006101000a81548163ffffffff021916908363ffffffff16021790555060208201518160000160046101000a81548163ffffffff021916908363ffffffff16021790555060408201518160000160086101000a81548163ffffffff021916908363ffffffff160217905550606082015181600001600c6101000a81548163ffffffff021916908363ffffffff16021790555060808201518160000160106101000a81548163ffffffff021916908363ffffffff16021790555060a08201518160000160146101000a81548163ffffffff021916908363ffffffff160217905550505050505060036040518060e001604052806040518060400160405280600781526020017f49767973617572000000000000000000000000000000000000000000000000008152508152602001600281526020016040518060400160405280600581526020017f477261737300000000000000000000000000000000000000000000000000000081525081526020016040518060400160405280600681526020017f506f69736f6e000000000000000000000000000000000000000000000000000081525081526020016101ef81526020016000151581526020016040518060c00160405280603c63ffffffff168152602001603e63ffffffff168152602001603f63ffffffff168152602001605063ffffffff168152602001605063ffffffff168152602001603c63ffffffff16815250815250908060018154018082558091505090600182039060005260206000209060070201600090919290919091506000820151816000019080519060200190630000060f929190630001ddf0565b50602082015181600101556040820151816002019080519060200190630000063a929190630001ddf0565b506060820151816003019080519060200190630000065b929190630001ddf0565b506080820151816004015560a08201518160050160006101000a81548160ff02191690831515021790555060c08201518160060160008201518160000160006101000a81548163ffffffff021916908363ffffffff16021790555060208201518160000160046101000a81548163ffffffff021916908363ffffffff16021790555060408201518160000160086101000a81548163ffffffff021916908363ffffffff160217905550606082015181600001600c6101000a81548163ffffffff021916908363ffffffff16021790555060808201518160000160106101000a81548163ffffffff021916908363ffffffff16021790555060a08201518160000160146101000a81548163ffffffff021916908363ffffffff160217905550505050505060036040518060e001604052806040518060400160405280600881526020017f56656e75736175720000000000000000000000000000000000000000000000008152508152602001600381526020016040518060400160405280600581526020017f477261737300000000000000000000000000000000000000000000000000000081525081526020016040518060400160405280600681526020017f506f69736f6e0000000000000000000000000000000000000000000000000000815250815260200161017781526020016000151581526020016040518060c00160405280605063ffffffff168152602001605263ffffffff168152602001605363ffffffff168152602001606463ffffffff168152602001606463ffffffff168152602001605063ffffffff1681525081525090806001815401808255809150509060018203906000526020600020906007020160009091929091909150600082015181600001908051906020019063000008f9929190630001ddf0565b506020820151816001015560408201518160020190805190602001906300000924929190630001ddf0565b5060608201518160030190805190602001906300000945929190630001ddf0565b506080820151816004015560a08201518160050160006101000a81548160ff02191690831515021790555060c08201518160060160008201518160000160006101000a81548163ffffffff021916908363ffffffff16021790555060208201518160000160046101000a81548163ffffffff021916908363ffffffff16021790555060408201518160000160086101000a81548163ffffffff021916908363ffffffff160217905550606082015181600001600c6101000a81548163ffffffff021916908363ffffffff16021790555060808201518160000160106101000a81548163ffffffff021916908363ffffffff16021790555060a08201518160000160146101000a81548163ffffffff021916908363ffffffff160217905550505050505060036040518060e001604052806040518060400160405280600a81526020017f436861726d616e646572000000000000000000000000000000000000000000008152508152602001600481526020016040518060400160405280600481526020017f466972650000000000000000000000000000000000000000000000000000000081525081526020016040518060400160405280600381526020017f6e616e0000000000000000000000000000000000000000000000000000000000815250815260200161024f81526020016000151581526020016040518060c00160405280602763ffffffff168152602001603463ffffffff168152602001602b63ffffffff168152602001603c63ffffffff168152602001603263ffffffff168152602001604163ffffffff168152508152509080600181540180825580915050906001820390600052602060002090600702016000909192909190915060008201518160000190805190602001906300000be3929190630001ddf0565b506020820151816001015560408201518160020190805190602001906300000c0e929190630001ddf0565b5060608201518160030190805190602001906300000c2f929190630001ddf0565b506080820151816004015560a08201518160050160006101000a81548160ff02191690831515021790555060c08201518160060160008201518160000160006101000a81548163ffffffff021916908363ffffffff16021790555060208201518160000160046101000a81548163ffffffff021916908363ffffffff16021790555060408201518160000160086101000a81548163ffffffff021916908363ffffffff160217905550606082015181600001600c6101000a81548163ffffffff021916908363ffffffff16021790555060808201518160000160106101000a81548163ffffffff021916908363ffffffff16021790555060a08201518160000160146101000a81548163ffffffff021916908363ffffffff160217905550505050505060036040518060e001604052806040518060400160405280600a81526020017f436861726d656c656f6e000000000000000000000000000000000000000000008152508152602001600581526020016040518060400160405280600481526020017f466972650000000000000000000000000000000000000000000000000000000081525081526020016040518060400160405280600381526020017f6e616e000000000000000000000000000000000000000000000000000000000081525081526020016101ef81526020016000151581526020016040518060c00160405280603a63ffffffff168152602001604063ffffffff168152602001603a63ffffffff168152602001605063ffffffff168152602001604163ffffffff168152602001605063ffffffff168152508152509080600181540180825580915050906001820390600052602060002090600702016000909192909190915060008201518160000190805190602001906300000ecd929190630001ddf0565b506020820151816001015560408201518160020190805190602001906300000ef8929190630001ddf0565b5060608201518160030190805190602001906300000f19929190630001ddf0565b506080820151816004015560a08201518160050160006101000a81548160ff02191690831515021790555060c08201518160060160008201518160000160006101000a81548163ffffffff021916908363ffffffff16021790555060208201518160000160046101000a81548163ffffffff021916908363ffffffff16021790555060408201518160000160086101000a81548163ffffffff021916908363ffffffff160217905550606082015181600001600c6101000a81548163ffffffff021916908363ffffffff16021790555060808201518160000160106101000a81548163ffffffff021916908363ffffffff16021790555060a08201518160000160146101000a81548163ffffffff021916908363ffffffff160217905550505050505060036040518060e001604052806040518060400160405280600981526020017f43686172697a61726400000000000000000000000000000000000000000000008152508152602001600681526020016040518060400160405280600481526020017f466972650000000000000000000000000000000000000000000000000000000081525081526020016040518060400160405280600681526020017f466c79696e670000000000000000000000000000000000000000000000000000815250815260200161016e81526020016000151581526020016040518060c00160405280604e63ffffffff168152602001605463ffffffff168152602001604e63ffffffff168152602001606d63ffffffff168152602001605563ffffffff168152602001606463ffffffff1681525081525090806001815401808255809150509060018203906000526020600020906007020160009091929091909150600082015181600001908051906020019063000011b7929190630001ddf0565b5060208201518160010155604082015181600201908051906020019063000011e2929190630001ddf0565b5060608201518160030190805190602001906300001203929190630001ddf0565b506080820151816004015560a08201518160050160006101000a81548160ff02191690831515021790555060c08201518160060160008201518160000160006101000a81548163ffffffff021916908363ffffffff16021790555060208201518160000160046101000a81548163ffffffff021916908363ffffffff16021790555060408201518160000160086101000a81548163ffffffff021916908363ffffffff160217905550606082015181600001600c6101000a81548163ffffffff021916908363ffffffff16021790555060808201518160000160106101000a81548163ffffffff021916908363ffffffff16021790555060a08201518160000160146101000a81548163ffffffff021916908363ffffffff160217905550505050505060036040518060e001604052806040518060400160405280600881526020017f5371756972746c650000000000000000000000000000000000000000000000008152508152602001600781526020016040518060400160405280600581526020017f576174657200000000000000000000000000000000000000000000000000000081525081526020016040518060400160405280600381526020017f6e616e0000000000000000000000000000000000000000000000000000000000815250815260200161024a81526020016000151581526020016040518060c00160405280602c63ffffffff168152602001603063ffffffff168152602001604163ffffffff168152602001603263ffffffff168152602001604063ffffffff168152602001602b63ffffffff1681525081525090806001815401808255809150509060018203906000526020600020906007020160009091929091909150600082015181600001908051906020019063000014a1929190630001ddf0565b5060208201518160010155604082015181600201908051906020019063000014cc929190630001ddf0565b50606082015181600301908051906020019063000014ed929190630001ddf0565b506080820151816004015560a08201518160050160006101000a81548160ff02191690831515021790555060c08201518160060160008201518160000160006101000a81548163ffffffff021916908363ffffffff16021790555060208201518160000160046101000a81548163ffffffff021916908363ffffffff16021790555060408201518160000160086101000a81548163ffffffff021916908363ffffffff160217905550606082015181600001600c6101000a81548163ffffffff021916908363ffffffff16021790555060808201518160000160106101000a81548163ffffffff021916908363ffffffff16021790555060a08201518160000160146101000a81548163ffffffff021916908363ffffffff160217905550505050505060036040518060e001604052806040518060400160405280600981526020017f576172746f72746c6500000000000000000000000000000000000000000000008152508152602001600881526020016040518060400160405280600581526020017f576174657200000000000000000000000000000000000000000000000000000081525081526020016040518060400160405280600381526020017f6e616e000000000000000000000000000000000000000000000000000000000081525081526020016101ef81526020016000151581526020016040518060c00160405280603b63ffffffff168152602001603f63ffffffff168152602001605063ffffffff168152602001604163ffffffff168152602001605063ffffffff168152602001603a63ffffffff16815250815250908060018154018082558091505090600182039060005260206000209060070201600090919290919091506000820151816000019080519060200190630000178b929190630001ddf0565b5060208201518160010155604082015181600201908051906020019063000017b6929190630001ddf0565b50606082015181600301908051906020019063000017d7929190630001ddf0565b506080820151816004015560a08201518160050160006101000a81548160ff02191690831515021790555060c08201518160060160008201518160000160006101000a81548163ffffffff021916908363ffffffff16021790555060208201518160000160046101000a81548163ffffffff021916908363ffffffff16021790555060408201518160000160086101000a81548163ffffffff021916908363ffffffff160217905550606082015181600001600c6101000a81548163ffffffff021916908363ffffffff16021790555060808201518160000160106101000a81548163ffffffff021916908363ffffffff16021790555060a08201518160000160146101000a81548163ffffffff021916908363ffffffff160217905550505050505060036040518060e001604052806040518060400160405280600981526020017f426c6173746f69736500000000000000000000000000000000000000000000008152508152602001600981526020016040518060400160405280600581526020017f576174657200000000000000000000000000000000000000000000000000000081525081526020016040518060400160405280600381526020017f6e616e0000000000000000000000000000000000000000000000000000000000815250815260200161017281526020016000151581526020016040518060c00160405280604f63ffffffff168152602001605363ffffffff168152602001606463ffffffff168152602001605563ffffffff168152602001606963ffffffff168152602001604e63ffffffff168152508152509080600181540180825580915050906001820390600052602060002090600702016000909192909190915060008201518160000190805190602001906300001a75929190630001ddf0565b506020820151816001015560408201518160020190805190602001906300001aa0929190630001ddf0565b5060608201518160030190805190602001906300001ac1929190630001ddf0565b506080820151816004015560a08201518160050160006101000a81548160ff02191690831515021790555060c08201518160060160008201518160000160006101000a81548163ffffffff021916908363ffffffff16021790555060208201518160000160046101000a81548163ffffffff021916908363ffffffff16021790555060408201518160000160086101000a81548163ffffffff021916908363ffffffff160217905550606082015181600001600c6101000a81548163ffffffff021916908363ffffffff16021790555060808201518160000160106101000a81548163ffffffff021916908363ffffffff16021790555060a08201518160000160146101000a81548163ffffffff021916908363ffffffff160217905550505050505060036040518060e001604052806040518060400160405280600881526020017f43617465727069650000000000000000000000000000000000000000000000008152508152602001600a81526020016040518060400160405280600381526020017f427567000000000000000000000000000000000000000000000000000000000081525081526020016040518060400160405280600381526020017f6e616e000000000000000000000000000000000000000000000000000000000081525081526020016102c181526020016000151581526020016040518060c00160405280602d63ffffffff168152602001601e63ffffffff168152602001602363ffffffff168152602001601463ffffffff168152602001601463ffffffff168152602001602d63ffffffff168152508152509080600181540180825580915050906001820390600052602060002090600702016000909192909190915060008201518160000190805190602001906300001d5f929190630001ddf0565b506020820151816001015560408201518160020190805190602001906300001d8a929190630001ddf0565b5060608201518160030190805190602001906300001dab929190630001ddf0565b506080820151816004015560a08201518160050160006101000a81548160ff02191690831515021790555060c08201518160060160008201518160000160006101000a81548163ffffffff021916908363ffffffff16021790555060208201518160000160046101000a81548163ffffffff021916908363ffffffff16021790555060408201518160000160086101000a81548163ffffffff021916908363ffffffff160217905550606082015181600001600c6101000a81548163ffffffff021916908363ffffffff16021790555060808201518160000160106101000a81548163ffffffff021916908363ffffffff16021790555060a08201518160000160146101000a81548163ffffffff021916908363ffffffff160217905550505050505060036040518060e001604052806040518060400160405280600781526020017f4d657461706f64000000000000000000000000000000000000000000000000008152508152602001600b81526020016040518060400160405280600381526020017f427567000000000000000000000000000000000000000000000000000000000081525081526020016040518060400160405280600381526020017f6e616e000000000000000000000000000000000000000000000000000000000081525081526020016102b781526020016000151581526020016040518060c00160405280603263ffffffff168152602001601463ffffffff168152602001603763ffffffff168152602001601963ffffffff168152602001601963ffffffff168152602001601e63ffffffff168152508152509080600181540180825580915050906001820390600052602060002090600702016000909192909190915060008201518160000190805190602001906300002049929190630001ddf0565b506020820151816001015560408201518160020190805190602001906300002074929190630001ddf0565b5060608201518160030190805190602001906300002095929190630001ddf0565b506080820151816004015560a08201518160050160006101000a81548160ff02191690831515021790555060c08201518160060160008201518160000160006101000a81548163ffffffff021916908363ffffffff16021790555060208201518160000160046101000a81548163ffffffff021916908363ffffffff16021790555060408201518160000160086101000a81548163ffffffff021916908363ffffffff160217905550606082015181600001600c6101000a81548163ffffffff021916908363ffffffff16021790555060808201518160000160106101000a81548163ffffffff021916908363ffffffff16021790555060a08201518160000160146101000a81548163ffffffff021916908363ffffffff160217905550505050505060036040518060e001604052806040518060400160405280600a81526020017f42757474657266726565000000000000000000000000000000000000000000008152508152602001600c81526020016040518060400160405280600381526020017f427567000000000000000000000000000000000000000000000000000000000081525081526020016040518060400160405280600681526020017f466c79696e67000000000000000000000000000000000000000000000000000081525081526020016101f981526020016000151581526020016040518060c00160405280603c63ffffffff168152602001602d63ffffffff168152602001603263ffffffff168152602001605a63ffffffff168152602001605063ffffffff168152602001604663ffffffff168152508152509080600181540180825580915050906001820390600052602060002090600702016000909192909190915060008201518160000190805190602001906300002333929190630001ddf0565b50602082015181600101556040820151816002019080519060200190630000235e929190630001ddf0565b506060820151816003019080519060200190630000237f929190630001ddf0565b506080820151816004015560a08201518160050160006101000a81548160ff02191690831515021790555060c08201518160060160008201518160000160006101000a81548163ffffffff021916908363ffffffff16021790555060208201518160000160046101000a81548163ffffffff021916908363ffffffff16021790555060408201518160000160086101000a81548163ffffffff021916908363ffffffff160217905550606082015181600001600c6101000a81548163ffffffff021916908363ffffffff16021790555060808201518160000160106101000a81548163ffffffff021916908363ffffffff16021790555060a08201518160000160146101000a81548163ffffffff021916908363ffffffff160217905550505050505060036040518060e001604052806040518060400160405280600681526020017f576565646c6500000000000000000000000000000000000000000000000000008152508152602001600d81526020016040518060400160405280600381526020017f427567000000000000000000000000000000000000000000000000000000000081525081526020016040518060400160405280600681526020017f506f69736f6e000000000000000000000000000000000000000000000000000081525081526020016102c181526020016000151581526020016040518060c00160405280602863ffffffff168152602001602363ffffffff168152602001601e63ffffffff168152602001601463ffffffff168152602001601463ffffffff168152602001603263ffffffff16815250815250908060018154018082558091505090600182039060005260206000209060070201600090919290919091506000820151816000019080519060200190630000261d929190630001ddf0565b506020820151816001015560408201518160020190805190602001906300002648929190630001ddf0565b5060608201518160030190805190602001906300002669929190630001ddf0565b506080820151816004015560a08201518160050160006101000a81548160ff02191690831515021790555060c08201518160060160008201518160000160006101000a81548163ffffffff021916908363ffffffff16021790555060208201518160000160046101000a81548163ffffffff021916908363ffffffff16021790555060408201518160000160086101000a81548163ffffffff021916908363ffffffff160217905550606082015181600001600c6101000a81548163ffffffff021916908363ffffffff16021790555060808201518160000160106101000a81548163ffffffff021916908363ffffffff16021790555060a08201518160000160146101000a81548163ffffffff021916908363ffffffff160217905550505050505060036040518060e001604052806040518060400160405280600681526020017f4b616b756e6100000000000000000000000000000000000000000000000000008152508152602001600e81526020016040518060400160405280600381526020017f427567000000000000000000000000000000000000000000000000000000000081525081526020016040518060400160405280600681526020017f506f69736f6e000000000000000000000000000000000000000000000000000081525081526020016102b781526020016000151581526020016040518060c00160405280602d63ffffffff168152602001601963ffffffff168152602001603263ffffffff168152602001601963ffffffff168152602001601963ffffffff168152602001602363ffffffff168152508152509080600181540180825580915050906001820390600052602060002090600702016000909192909190915060008201518160000190805190602001906300002907929190630001ddf0565b506020820151816001015560408201518160020190805190602001906300002932929190630001ddf0565b5060608201518160030190805190602001906300002953929190630001ddf0565b506080820151816004015560a08201518160050160006101000a81548160ff02191690831515021790555060c08201518160060160008201518160000160006101000a81548163ffffffff021916908363ffffffff16021790555060208201518160000160046101000a81548163ffffffff021916908363ffffffff16021790555060408201518160000160086101000a81548163ffffffff021916908363ffffffff160217905550606082015181600001600c6101000a81548163ffffffff021916908363ffffffff16021790555060808201518160000160106101000a81548163ffffffff021916908363ffffffff16021790555060a08201518160000160146101000a81548163ffffffff021916908363ffffffff160217905550505050505060036040518060e001604052806040518060400160405280600881526020017f4265656472696c6c0000000000000000000000000000000000000000000000008152508152602001600f81526020016040518060400160405280600381526020017f427567000000000000000000000000000000000000000000000000000000000081525081526020016040518060400160405280600681526020017f506f69736f6e000000000000000000000000000000000000000000000000000081525081526020016101f981526020016000151581526020016040518060c00160405280604163ffffffff168152602001605a63ffffffff168152602001602863ffffffff168152602001602d63ffffffff168152602001605063ffffffff168152602001604b63ffffffff168152508152509080600181540180825580915050906001820390600052602060002090600702016000909192909190915060008201518160000190805190602001906300002bf1929190630001ddf0565b506020820151816001015560408201518160020190805190602001906300002c1c929190630001ddf0565b5060608201518160030190805190602001906300002c3d929190630001ddf0565b506080820151816004015560a08201518160050160006101000a81548160ff02191690831515021790555060c08201518160060160008201518160000160006101000a81548163ffffffff021916908363ffffffff16021790555060208201518160000160046101000a81548163ffffffff021916908363ffffffff16021790555060408201518160000160086101000a81548163ffffffff021916908363ffffffff160217905550606082015181600001600c6101000a81548163ffffffff021916908363ffffffff16021790555060808201518160000160106101000a81548163ffffffff021916908363ffffffff16021790555060a08201518160000160146101000a81548163ffffffff021916908363ffffffff160217905550505050505060036040518060e001604052806040518060400160405280600681526020017f50696467657900000000000000000000000000000000000000000000000000008152508152602001601081526020016040518060400160405280600681526020017f4e6f726d616c000000000000000000000000000000000000000000000000000081525081526020016040518060400160405280600681526020017f466c79696e670000000000000000000000000000000000000000000000000000815250815260200161028981526020016000151581526020016040518060c00160405280602863ffffffff168152602001602d63ffffffff168152602001602863ffffffff168152602001602363ffffffff168152602001602363ffffffff168152602001603863ffffffff168152508152509080600181540180825580915050906001820390600052602060002090600702016000909192909190915060008201518160000190805190602001906300002edb929190630001ddf0565b506020820151816001015560408201518160020190805190602001906300002f06929190630001ddf0565b5060608201518160030190805190602001906300002f27929190630001ddf0565b506080820151816004015560a08201518160050160006101000a81548160ff02191690831515021790555060c08201518160060160008201518160000160006101000a81548163ffffffff021916908363ffffffff16021790555060208201518160000160046101000a81548163ffffffff021916908363ffffffff16021790555060408201518160000160086101000a81548163ffffffff021916908363ffffffff160217905550606082015181600001600c6101000a81548163ffffffff021916908363ffffffff16021790555060808201518160000160106101000a81548163ffffffff021916908363ffffffff16021790555060a08201518160000160146101000a81548163ffffffff021916908363ffffffff160217905550505050505060036040518060e001604052806040518060400160405280600981526020017f50696467656f74746f00000000000000000000000000000000000000000000008152508152602001601181526020016040518060400160405280600681526020017f4e6f726d616c000000000000000000000000000000000000000000000000000081525081526020016040518060400160405280600681526020017f466c79696e670000000000000000000000000000000000000000000000000000815250815260200161022781526020016000151581526020016040518060c00160405280603f63ffffffff168152602001603c63ffffffff168152602001603763ffffffff168152602001603263ffffffff168152602001603263ffffffff168152602001604763ffffffff1681525081525090806001815401808255809150509060018203906000526020600020906007020160009091929091909150600082015181600001908051906020019063000031c5929190630001ddf0565b5060208201518160010155604082015181600201908051906020019063000031f0929190630001ddf0565b5060608201518160030190805190602001906300003211929190630001ddf0565b506080820151816004015560a08201518160050160006101000a81548160ff02191690831515021790555060c08201518160060160008201518160000160006101000a81548163ffffffff021916908363ffffffff16021790555060208201518160000160046101000a81548163ffffffff021916908363ffffffff16021790555060408201518160000160086101000a81548163ffffffff021916908363ffffffff160217905550606082015181600001600c6101000a81548163ffffffff021916908363ffffffff16021790555060808201518160000160106101000a81548163ffffffff021916908363ffffffff16021790555060a08201518160000160146101000a81548163ffffffff021916908363ffffffff160217905550505050505060036040518060e001604052806040518060400160405280600781526020017f50696467656f74000000000000000000000000000000000000000000000000008152508152602001601281526020016040518060400160405280600681526020017f4e6f726d616c000000000000000000000000000000000000000000000000000081525081526020016040518060400160405280600681526020017f466c79696e67000000000000000000000000000000000000000000000000000081525081526020016101a581526020016000151581526020016040518060c00160405280605363ffffffff168152602001605063ffffffff168152602001604b63ffffffff168152602001604663ffffffff168152602001604663ffffffff168152602001606563ffffffff1681525081525090806001815401808255809150509060018203906000526020600020906007020160009091929091909150600082015181600001908051906020019063000034af929190630001ddf0565b5060208201518160010155604082015181600201908051906020019063000034da929190630001ddf0565b50606082015181600301908051906020019063000034fb929190630001ddf0565b506080820151816004015560a08201518160050160006101000a81548160ff02191690831515021790555060c08201518160060160008201518160000160006101000a81548163ffffffff021916908363ffffffff16021790555060208201518160000160046101000a81548163ffffffff021916908363ffffffff16021790555060408201518160000160086101000a81548163ffffffff021916908363ffffffff160217905550606082015181600001600c6101000a81548163ffffffff021916908363ffffffff16021790555060808201518160000160106101000a81548163ffffffff021916908363ffffffff16021790555060a08201518160000160146101000a81548163ffffffff021916908363ffffffff160217905550505050505060036040518060e001604052806040518060400160405280600781526020017f52617474617461000000000000000000000000000000000000000000000000008152508152602001601381526020016040518060400160405280600681526020017f4e6f726d616c000000000000000000000000000000000000000000000000000081525081526020016040518060400160405280600381526020017f6e616e0000000000000000000000000000000000000000000000000000000000815250815260200161028781526020016000151581526020016040518060c00160405280601e63ffffffff168152602001603863ffffffff168152602001602363ffffffff168152602001601963ffffffff168152602001602363ffffffff168152602001604863ffffffff168152508152509080600181540180825580915050906001820390600052602060002090600702016000909192909190915060008201518160000190805190602001906300003799929190630001ddf0565b5060208201518160010155604082015181600201908051906020019063000037c4929190630001ddf0565b50606082015181600301908051906020019063000037e5929190630001ddf0565b506080820151816004015560a08201518160050160006101000a81548160ff02191690831515021790555060c08201518160060160008201518160000160006101000a81548163ffffffff021916908363ffffffff16021790555060208201518160000160046101000a81548163ffffffff021916908363ffffffff16021790555060408201518160000160086101000a81548163ffffffff021916908363ffffffff160217905550606082015181600001600c6101000a81548163ffffffff021916908363ffffffff16021790555060808201518160000160106101000a81548163ffffffff021916908363ffffffff16021790555060a08201518160000160146101000a81548163ffffffff021916908363ffffffff160217905550505050505060036040518060e001604052806040518060400160405280600881526020017f52617469636174650000000000000000000000000000000000000000000000008152508152602001601481526020016040518060400160405280600681526020017f4e6f726d616c000000000000000000000000000000000000000000000000000081525081526020016040518060400160405280600381526020017f6e616e000000000000000000000000000000000000000000000000000000000081525081526020016101e781526020016000151581526020016040518060c00160405280603763ffffffff168152602001605163ffffffff168152602001603c63ffffffff168152602001603263ffffffff168152602001604663ffffffff168152602001606163ffffffff168152508152509080600181540180825580915050906001820390600052602060002090600702016000909192909190915060008201518160000190805190602001906300003a83929190630001ddf0565b506020820151816001015560408201518160020190805190602001906300003aae929190630001ddf0565b5060608201518160030190805190602001906300003acf929190630001ddf0565b506080820151816004015560a08201518160050160006101000a81548160ff02191690831515021790555060c08201518160060160008201518160000160006101000a81548163ffffffff021916908363ffffffff16021790555060208201518160000160046101000a81548163ffffffff021916908363ffffffff16021790555060408201518160000160086101000a81548163ffffffff021916908363ffffffff160217905550606082015181600001600c6101000a81548163ffffffff021916908363ffffffff16021790555060808201518160000160106101000a81548163ffffffff021916908363ffffffff16021790555060a08201518160000160146101000a81548163ffffffff021916908363ffffffff160217905550505050505060036040518060e001604052806040518060400160405280600781526020017f53706561726f77000000000000000000000000000000000000000000000000008152508152602001601581526020016040518060400160405280600681526020017f4e6f726d616c000000000000000000000000000000000000000000000000000081525081526020016040518060400160405280600681526020017f466c79696e670000000000000000000000000000000000000000000000000000815250815260200161027e81526020016000151581526020016040518060c00160405280602863ffffffff168152602001603c63ffffffff168152602001601e63ffffffff168152602001601f63ffffffff168152602001601f63ffffffff168152602001604663ffffffff168152508152509080600181540180825580915050906001820390600052602060002090600702016000909192909190915060008201518160000190805190602001906300003d6d929190630001ddf0565b506020820151816001015560408201518160020190805190602001906300003d98929190630001ddf0565b5060608201518160030190805190602001906300003db9929190630001ddf0565b506080820151816004015560a08201518160050160006101000a81548160ff02191690831515021790555060c08201518160060160008201518160000160006101000a81548163ffffffff021916908363ffffffff16021790555060208201518160000160046101000a81548163ffffffff021916908363ffffffff16021790555060408201518160000160086101000a81548163ffffffff021916908363ffffffff160217905550606082015181600001600c6101000a81548163ffffffff021916908363ffffffff16021790555060808201518160000160106101000a81548163ffffffff021916908363ffffffff16021790555060a08201518160000160146101000a81548163ffffffff021916908363ffffffff160217905550505050505060036040518060e001604052806040518060400160405280600681526020017f466561726f7700000000000000000000000000000000000000000000000000008152508152602001601681526020016040518060400160405280600681526020017f4e6f726d616c000000000000000000000000000000000000000000000000000081525081526020016040518060400160405280600681526020017f466c79696e67000000000000000000000000000000000000000000000000000081525081526020016101ca81526020016000151581526020016040518060c00160405280604163ffffffff168152602001605a63ffffffff168152602001604163ffffffff168152602001603d63ffffffff168152602001603d63ffffffff168152602001606463ffffffff168152508152509080600181540180825580915050906001820390600052602060002090600702016000909192909190915060008201518160000190805190602001906300004057929190630001ddf0565b506020820151816001015560408201518160020190805190602001906300004082929190630001ddf0565b50606082015181600301908051906020019063000040a3929190630001ddf0565b506080820151816004015560a08201518160050160006101000a81548160ff02191690831515021790555060c08201518160060160008201518160000160006101000a81548163ffffffff021916908363ffffffff16021790555060208201518160000160046101000a81548163ffffffff021916908363ffffffff16021790555060408201518160000160086101000a81548163ffffffff021916908363ffffffff160217905550606082015181600001600c6101000a81548163ffffffff021916908363ffffffff16021790555060808201518160000160106101000a81548163ffffffff021916908363ffffffff16021790555060a08201518160000160146101000a81548163ffffffff021916908363ffffffff160217905550505050505060036040518060e001604052806040518060400160405280600581526020017f456b616e730000000000000000000000000000000000000000000000000000008152508152602001601781526020016040518060400160405280600681526020017f506f69736f6e000000000000000000000000000000000000000000000000000081525081526020016040518060400160405280600381526020017f6e616e0000000000000000000000000000000000000000000000000000000000815250815260200161026481526020016000151581526020016040518060c00160405280602363ffffffff168152602001603c63ffffffff168152602001602c63ffffffff168152602001602863ffffffff168152602001603663ffffffff168152602001603763ffffffff168152508152509080600181540180825580915050906001820390600052602060002090600702016000909192909190915060008201518160000190805190602001906300004341929190630001ddf0565b50602082015181600101556040820151816002019080519060200190630000436c929190630001ddf0565b506060820151816003019080519060200190630000438d929190630001ddf0565b506080820151816004015560a08201518160050160006101000a81548160ff02191690831515021790555060c08201518160060160008201518160000160006101000a81548163ffffffff021916908363ffffffff16021790555060208201518160000160046101000a81548163ffffffff021916908363ffffffff16021790555060408201518160000160086101000a81548163ffffffff021916908363ffffffff160217905550606082015181600001600c6101000a81548163ffffffff021916908363ffffffff16021790555060808201518160000160106101000a81548163ffffffff021916908363ffffffff16021790555060a08201518160000160146101000a81548163ffffffff021916908363ffffffff160217905550505050505060036040518060e001604052806040518060400160405280600581526020017f4172626f6b0000000000000000000000000000000000000000000000000000008152508152602001601881526020016040518060400160405280600681526020017f506f69736f6e000000000000000000000000000000000000000000000000000081525081526020016040518060400160405280600381526020017f6e616e000000000000000000000000000000000000000000000000000000000081525081526020016101ce81526020016000151581526020016040518060c00160405280603c63ffffffff168152602001605563ffffffff168152602001604563ffffffff168152602001604163ffffffff168152602001604f63ffffffff168152602001605063ffffffff16815250815250908060018154018082558091505090600182039060005260206000209060070201600090919290919091506000820151816000019080519060200190630000462b929190630001ddf0565b506020820151816001015560408201518160020190805190602001906300004656929190630001ddf0565b5060608201518160030190805190602001906300004677929190630001ddf0565b506080820151816004015560a08201518160050160006101000a81548160ff02191690831515021790555060c08201518160060160008201518160000160006101000a81548163ffffffff021916908363ffffffff16021790555060208201518160000160046101000a81548163ffffffff021916908363ffffffff16021790555060408201518160000160086101000a81548163ffffffff021916908363ffffffff160217905550606082015181600001600c6101000a81548163ffffffff021916908363ffffffff16021790555060808201518160000160106101000a81548163ffffffff021916908363ffffffff16021790555060a08201518160000160146101000a81548163ffffffff021916908363ffffffff160217905550505050505060036040518060e001604052806040518060400160405280600781526020017f50696b61636875000000000000000000000000000000000000000000000000008152508152602001601981526020016040518060400160405280600881526020017f456c65637472696300000000000000000000000000000000000000000000000081525081526020016040518060400160405280600381526020017f6e616e0000000000000000000000000000000000000000000000000000000000815250815260200161024481526020016000151581526020016040518060c00160405280602363ffffffff168152602001603763ffffffff168152602001602863ffffffff168152602001603263ffffffff168152602001603263ffffffff168152602001605a63ffffffff168152508152509080600181540180825580915050906001820390600052602060002090600702016000909192909190915060008201518160000190805190602001906300004915929190630001ddf0565b506020820151816001015560408201518160020190805190602001906300004940929190630001ddf0565b5060608201518160030190805190602001906300004961929190630001ddf0565b506080820151816004015560a08201518160050160006101000a81548160ff02191690831515021790555060c08201518160060160008201518160000160006101000a81548163ffffffff021916908363ffffffff16021790555060208201518160000160046101000a81548163ffffffff021916908363ffffffff16021790555060408201518160000160086101000a81548163ffffffff021916908363ffffffff160217905550606082015181600001600c6101000a81548163ffffffff021916908363ffffffff16021790555060808201518160000160106101000a81548163ffffffff021916908363ffffffff16021790555060a08201518160000160146101000a81548163ffffffff021916908363ffffffff160217905550505050505060036040518060e001604052806040518060400160405280600681526020017f52616963687500000000000000000000000000000000000000000000000000008152508152602001601a81526020016040518060400160405280600881526020017f456c65637472696300000000000000000000000000000000000000000000000081525081526020016040518060400160405280600381526020017f6e616e0000000000000000000000000000000000000000000000000000000000815250815260200161019f81526020016000151581526020016040518060c00160405280603c63ffffffff168152602001605a63ffffffff168152602001603763ffffffff168152602001605a63ffffffff168152602001605063ffffffff168152602001606e63ffffffff168152508152509080600181540180825580915050906001820390600052602060002090600702016000909192909190915060008201518160000190805190602001906300004bff929190630001ddf0565b506020820151816001015560408201518160020190805190602001906300004c2a929190630001ddf0565b5060608201518160030190805190602001906300004c4b929190630001ddf0565b506080820151816004015560a08201518160050160006101000a81548160ff02191690831515021790555060c08201518160060160008201518160000160006101000a81548163ffffffff021916908363ffffffff16021790555060208201518160000160046101000a81548163ffffffff021916908363ffffffff16021790555060408201518160000160086101000a81548163ffffffff021916908363ffffffff160217905550606082015181600001600c6101000a81548163ffffffff021916908363ffffffff16021790555060808201518160000160106101000a81548163ffffffff021916908363ffffffff16021790555060a08201518160000160146101000a81548163ffffffff021916908363ffffffff160217905550505050505060036040518060e001604052806040518060400160405280600981526020017f53616e64736872657700000000000000000000000000000000000000000000008152508152602001601b81526020016040518060400160405280600681526020017f47726f756e64000000000000000000000000000000000000000000000000000081525081526020016040518060400160405280600381526020017f6e616e0000000000000000000000000000000000000000000000000000000000815250815260200161025881526020016000151581526020016040518060c00160405280603263ffffffff168152602001604b63ffffffff168152602001605563ffffffff168152602001601463ffffffff168152602001601e63ffffffff168152602001602863ffffffff168152508152509080600181540180825580915050906001820390600052602060002090600702016000909192909190915060008201518160000190805190602001906300004ee9929190630001ddf0565b506020820151816001015560408201518160020190805190602001906300004f14929190630001ddf0565b5060608201518160030190805190602001906300004f35929190630001ddf0565b506080820151816004015560a08201518160050160006101000a81548160ff02191690831515021790555060c08201518160060160008201518160000160006101000a81548163ffffffff021916908363ffffffff16021790555060208201518160000160046101000a81548163ffffffff021916908363ffffffff16021790555060408201518160000160086101000a81548163ffffffff021916908363ffffffff160217905550606082015181600001600c6101000a81548163ffffffff021916908363ffffffff16021790555060808201518160000160106101000a81548163ffffffff021916908363ffffffff16021790555060a08201518160000160146101000a81548163ffffffff021916908363ffffffff160217905550505050505060036040518060e001604052806040518060400160405280600981526020017f53616e64736c61736800000000000000000000000000000000000000000000008152508152602001601c81526020016040518060400160405280600681526020017f47726f756e64000000000000000000000000000000000000000000000000000081525081526020016040518060400160405280600381526020017f6e616e000000000000000000000000000000000000000000000000000000000081525081526020016101c281526020016000151581526020016040518060c00160405280604b63ffffffff168152602001606463ffffffff168152602001606e63ffffffff168152602001602d63ffffffff168152602001603763ffffffff168152602001604163ffffffff1681525081525090806001815401808255809150509060018203906000526020600020906007020160009091929091909150600082015181600001908051906020019063000051d3929190630001ddf0565b5060208201518160010155604082015181600201908051906020019063000051fe929190630001ddf0565b506060820151816003019080519060200190630000521f929190630001ddf0565b506080820151816004015560a08201518160050160006101000a81548160ff02191690831515021790555060c08201518160060160008201518160000160006101000a81548163ffffffff021916908363ffffffff16021790555060208201518160000160046101000a81548163ffffffff021916908363ffffffff16021790555060408201518160000160086101000a81548163ffffffff021916908363ffffffff160217905550606082015181600001600c6101000a81548163ffffffff021916908363ffffffff16021790555060808201518160000160106101000a81548163ffffffff021916908363ffffffff16021790555060a08201518160000160146101000a81548163ffffffff021916908363ffffffff160217905550505050505060036040518060e001604052806040518060400160405280600a81526020017f4e69646f72616ee29980000000000000000000000000000000000000000000008152508152602001601d81526020016040518060400160405280600681526020017f506f69736f6e000000000000000000000000000000000000000000000000000081525081526020016040518060400160405280600381526020017f6e616e0000000000000000000000000000000000000000000000000000000000815250815260200161027181526020016000151581526020016040518060c00160405280603763ffffffff168152602001602f63ffffffff168152602001603463ffffffff168152602001602863ffffffff168152602001602863ffffffff168152602001602963ffffffff1681525081525090806001815401808255809150509060018203906000526020600020906007020160009091929091909150600082015181600001908051906020019063000054bd929190630001ddf0565b5060208201518160010155604082015181600201908051906020019063000054e8929190630001ddf0565b5060608201518160030190805190602001906300005509929190630001ddf0565b506080820151816004015560a08201518160050160006101000a81548160ff02191690831515021790555060c08201518160060160008201518160000160006101000a81548163ffffffff021916908363ffffffff16021790555060208201518160000160046101000a81548163ffffffff021916908363ffffffff16021790555060408201518160000160086101000a81548163ffffffff021916908363ffffffff160217905550606082015181600001600c6101000a81548163ffffffff021916908363ffffffff16021790555060808201518160000160106101000a81548163ffffffff021916908363ffffffff16021790555060a08201518160000160146101000a81548163ffffffff021916908363ffffffff160217905550505050505060036040518060e001604052806040518060400160405280600881526020017f4e69646f72696e610000000000000000000000000000000000000000000000008152508152602001601e81526020016040518060400160405280600681526020017f506f69736f6e000000000000000000000000000000000000000000000000000081525081526020016040518060400160405280600381526020017f6e616e0000000000000000000000000000000000000000000000000000000000815250815260200161021781526020016000151581526020016040518060c00160405280604663ffffffff168152602001603e63ffffffff168152602001604363ffffffff168152602001603763ffffffff168152602001603763ffffffff168152602001603863ffffffff1681525081525090806001815401808255809150509060018203906000526020600020906007020160009091929091909150600082015181600001908051906020019063000057a7929190630001ddf0565b5060208201518160010155604082015181600201908051906020019063000057d2929190630001ddf0565b50606082015181600301908051906020019063000057f3929190630001ddf0565b506080820151816004015560a08201518160050160006101000a81548160ff02191690831515021790555060c08201518160060160008201518160000160006101000a81548163ffffffff021916908363ffffffff16021790555060208201518160000160046101000a81548163ffffffff021916908363ffffffff16021790555060408201518160000160086101000a81548163ffffffff021916908363ffffffff160217905550606082015181600001600c6101000a81548163ffffffff021916908363ffffffff16021790555060808201518160000160106101000a81548163ffffffff021916908363ffffffff16021790555060a08201518160000160146101000a81548163ffffffff021916908363ffffffff160217905550505050505060036040518060e001604052806040518060400160405280600981526020017f4e69646f717565656e00000000000000000000000000000000000000000000008152508152602001601f81526020016040518060400160405280600681526020017f506f69736f6e000000000000000000000000000000000000000000000000000081525081526020016040518060400160405280600681526020017f47726f756e640000000000000000000000000000000000000000000000000000815250815260200161018b81526020016000151581526020016040518060c00160405280605a63ffffffff168152602001605c63ffffffff168152602001605763ffffffff168152602001604b63ffffffff168152602001605563ffffffff168152602001604c63ffffffff168152508152509080600181540180825580915050906001820390600052602060002090600702016000909192909190915060008201518160000190805190602001906300005a91929190630001ddf0565b506020820151816001015560408201518160020190805190602001906300005abc929190630001ddf0565b5060608201518160030190805190602001906300005add929190630001ddf0565b506080820151816004015560a08201518160050160006101000a81548160ff02191690831515021790555060c08201518160060160008201518160000160006101000a81548163ffffffff021916908363ffffffff16021790555060208201518160000160046101000a81548163ffffffff021916908363ffffffff16021790555060408201518160000160086101000a81548163ffffffff021916908363ffffffff160217905550606082015181600001600c6101000a81548163ffffffff021916908363ffffffff16021790555060808201518160000160106101000a81548163ffffffff021916908363ffffffff16021790555060a08201518160000160146101000a81548163ffffffff021916908363ffffffff160217905550505050505060036040518060e001604052806040518060400160405280600a81526020017f4e69646f72616ee29982000000000000000000000000000000000000000000008152508152602001602081526020016040518060400160405280600681526020017f506f69736f6e000000000000000000000000000000000000000000000000000081525081526020016040518060400160405280600381526020017f6e616e0000000000000000000000000000000000000000000000000000000000815250815260200161027381526020016000151581526020016040518060c00160405280602e63ffffffff168152602001603963ffffffff168152602001602863ffffffff168152602001602863ffffffff168152602001602863ffffffff168152602001603263ffffffff168152508152509080600181540180825580915050906001820390600052602060002090600702016000909192909190915060008201518160000190805190602001906300005d7b929190630001ddf0565b506020820151816001015560408201518160020190805190602001906300005da6929190630001ddf0565b5060608201518160030190805190602001906300005dc7929190630001ddf0565b506080820151816004015560a08201518160050160006101000a81548160ff02191690831515021790555060c08201518160060160008201518160000160006101000a81548163ffffffff021916908363ffffffff16021790555060208201518160000160046101000a81548163ffffffff021916908363ffffffff16021790555060408201518160000160086101000a81548163ffffffff021916908363ffffffff160217905550606082015181600001600c6101000a81548163ffffffff021916908363ffffffff16021790555060808201518160000160106101000a81548163ffffffff021916908363ffffffff16021790555060a08201518160000160146101000a81548163ffffffff021916908363ffffffff160217905550505050505060036040518060e001604052806040518060400160405280600881526020017f4e69646f72696e6f0000000000000000000000000000000000000000000000008152508152602001602181526020016040518060400160405280600681526020017f506f69736f6e000000000000000000000000000000000000000000000000000081525081526020016040518060400160405280600381526020017f6e616e0000000000000000000000000000000000000000000000000000000000815250815260200161021781526020016000151581526020016040518060c00160405280603d63ffffffff168152602001604863ffffffff168152602001603963ffffffff168152602001603763ffffffff168152602001603763ffffffff168152602001604163ffffffff168152508152509080600181540180825580915050906001820390600052602060002090600702016000909192909190915060008201518160000190805190602001906300006065929190630001ddf0565b506020820151816001015560408201518160020190805190602001906300006090929190630001ddf0565b50606082015181600301908051906020019063000060b1929190630001ddf0565b506080820151816004015560a08201518160050160006101000a81548160ff02191690831515021790555060c08201518160060160008201518160000160006101000a81548163ffffffff021916908363ffffffff16021790555060208201518160000160046101000a81548163ffffffff021916908363ffffffff16021790555060408201518160000160086101000a81548163ffffffff021916908363ffffffff160217905550606082015181600001600c6101000a81548163ffffffff021916908363ffffffff16021790555060808201518160000160106101000a81548163ffffffff021916908363ffffffff16021790555060a08201518160000160146101000a81548163ffffffff021916908363ffffffff160217905550505050505060036040518060e001604052806040518060400160405280600881526020017f4e69646f6b696e670000000000000000000000000000000000000000000000008152508152602001602281526020016040518060400160405280600681526020017f506f69736f6e000000000000000000000000000000000000000000000000000081525081526020016040518060400160405280600681526020017f47726f756e640000000000000000000000000000000000000000000000000000815250815260200161018b81526020016000151581526020016040518060c00160405280605163ffffffff168152602001606663ffffffff168152602001604d63ffffffff168152602001605563ffffffff168152602001604b63ffffffff168152602001605563ffffffff16815250815250908060018154018082558091505090600182039060005260206000209060070201600090919290919091506000820151816000019080519060200190630000634f929190630001ddf0565b50602082015181600101556040820151816002019080519060200190630000637a929190630001ddf0565b506060820151816003019080519060200190630000639b929190630001ddf0565b506080820151816004015560a08201518160050160006101000a81548160ff02191690831515021790555060c08201518160060160008201518160000160006101000a81548163ffffffff021916908363ffffffff16021790555060208201518160000160046101000a81548163ffffffff021916908363ffffffff16021790555060408201518160000160086101000a81548163ffffffff021916908363ffffffff160217905550606082015181600001600c6101000a81548163ffffffff021916908363ffffffff16021790555060808201518160000160106101000a81548163ffffffff021916908363ffffffff16021790555060a08201518160000160146101000a81548163ffffffff021916908363ffffffff160217905550505050505060036040518060e001604052806040518060400160405280600881526020017f436c6566616972790000000000000000000000000000000000000000000000008152508152602001602381526020016040518060400160405280600581526020017f466169727900000000000000000000000000000000000000000000000000000081525081526020016040518060400160405280600381526020017f6e616e0000000000000000000000000000000000000000000000000000000000815250815260200161024181526020016000151581526020016040518060c00160405280604663ffffffff168152602001602d63ffffffff168152602001603063ffffffff168152602001603c63ffffffff168152602001604163ffffffff168152602001602363ffffffff168152508152509080600181540180825580915050906001820390600052602060002090600702016000909192909190915060008201518160000190805190602001906300006639929190630001ddf0565b506020820151816001015560408201518160020190805190602001906300006664929190630001ddf0565b5060608201518160030190805190602001906300006685929190630001ddf0565b506080820151816004015560a08201518160050160006101000a81548160ff02191690831515021790555060c08201518160060160008201518160000160006101000a81548163ffffffff021916908363ffffffff16021790555060208201518160000160046101000a81548163ffffffff021916908363ffffffff16021790555060408201518160000160086101000a81548163ffffffff021916908363ffffffff160217905550606082015181600001600c6101000a81548163ffffffff021916908363ffffffff16021790555060808201518160000160106101000a81548163ffffffff021916908363ffffffff16021790555060a08201518160000160146101000a81548163ffffffff021916908363ffffffff160217905550505050505060036040518060e001604052806040518060400160405280600881526020017f436c656661626c650000000000000000000000000000000000000000000000008152508152602001602481526020016040518060400160405280600581526020017f466169727900000000000000000000000000000000000000000000000000000081525081526020016040518060400160405280600381526020017f6e616e000000000000000000000000000000000000000000000000000000000081525081526020016101a181526020016000151581526020016040518060c00160405280605f63ffffffff168152602001604663ffffffff168152602001604963ffffffff168152602001605f63ffffffff168152602001605a63ffffffff168152602001603c63ffffffff168152508152509080600181540180825580915050906001820390600052602060002090600702016000909192909190915060008201518160000190805190602001906300006923929190630001ddf0565b50602082015181600101556040820151816002019080519060200190630000694e929190630001ddf0565b506060820151816003019080519060200190630000696f929190630001ddf0565b506080820151816004015560a08201518160050160006101000a81548160ff02191690831515021790555060c08201518160060160008201518160000160006101000a81548163ffffffff021916908363ffffffff16021790555060208201518160000160046101000a81548163ffffffff021916908363ffffffff16021790555060408201518160000160086101000a81548163ffffffff021916908363ffffffff160217905550606082015181600001600c6101000a81548163ffffffff021916908363ffffffff16021790555060808201518160000160106101000a81548163ffffffff021916908363ffffffff16021790555060a08201518160000160146101000a81548163ffffffff021916908363ffffffff160217905550505050505060036040518060e001604052806040518060400160405280600681526020017f56756c70697800000000000000000000000000000000000000000000000000008152508152602001602581526020016040518060400160405280600481526020017f466972650000000000000000000000000000000000000000000000000000000081525081526020016040518060400160405280600381526020017f6e616e0000000000000000000000000000000000000000000000000000000000815250815260200161025981526020016000151581526020016040518060c00160405280602663ffffffff168152602001602963ffffffff168152602001602863ffffffff168152602001603263ffffffff168152602001604163ffffffff168152602001604163ffffffff168152508152509080600181540180825580915050906001820390600052602060002090600702016000909192909190915060008201518160000190805190602001906300006c0d929190630001ddf0565b506020820151816001015560408201518160020190805190602001906300006c38929190630001ddf0565b5060608201518160030190805190602001906300006c59929190630001ddf0565b506080820151816004015560a08201518160050160006101000a81548160ff02191690831515021790555060c08201518160060160008201518160000160006101000a81548163ffffffff021916908363ffffffff16021790555060208201518160000160046101000a81548163ffffffff021916908363ffffffff16021790555060408201518160000160086101000a81548163ffffffff021916908363ffffffff160217905550606082015181600001600c6101000a81548163ffffffff021916908363ffffffff16021790555060808201518160000160106101000a81548163ffffffff021916908363ffffffff16021790555060a08201518160000160146101000a81548163ffffffff021916908363ffffffff160217905550505050505060036040518060e001604052806040518060400160405280600981526020017f4e696e6574616c657300000000000000000000000000000000000000000000008152508152602001602681526020016040518060400160405280600481526020017f466972650000000000000000000000000000000000000000000000000000000081525081526020016040518060400160405280600381526020017f6e616e0000000000000000000000000000000000000000000000000000000000815250815260200161018b81526020016000151581526020016040518060c00160405280604963ffffffff168152602001604c63ffffffff168152602001604b63ffffffff168152602001605163ffffffff168152602001606463ffffffff168152602001606463ffffffff168152508152509080600181540180825580915050906001820390600052602060002090600702016000909192909190915060008201518160000190805190602001906300006ef7929190630001ddf0565b506020820151816001015560408201518160020190805190602001906300006f22929190630001ddf0565b5060608201518160030190805190602001906300006f43929190630001ddf0565b506080820151816004015560a08201518160050160006101000a81548160ff02191690831515021790555060c08201518160060160008201518160000160006101000a81548163ffffffff021916908363ffffffff16021790555060208201518160000160046101000a81548163ffffffff021916908363ffffffff16021790555060408201518160000160086101000a81548163ffffffff021916908363ffffffff160217905550606082015181600001600c6101000a81548163ffffffff021916908363ffffffff16021790555060808201518160000160106101000a81548163ffffffff021916908363ffffffff16021790555060a08201518160000160146101000a81548163ffffffff021916908363ffffffff160217905550505050505060036040518060e001604052806040518060400160405280600a81526020017f4a6967676c7970756666000000000000000000000000000000000000000000008152508152602001602781526020016040518060400160405280600681526020017f4e6f726d616c000000000000000000000000000000000000000000000000000081525081526020016040518060400160405280600581526020017f4661697279000000000000000000000000000000000000000000000000000000815250815260200161027681526020016000151581526020016040518060c00160405280607363ffffffff168152602001602d63ffffffff168152602001601463ffffffff168152602001602d63ffffffff168152602001601963ffffffff168152602001601463ffffffff1681525081525090806001815401808255809150509060018203906000526020600020906007020160009091929091909150600082015181600001908051906020019063000071e1929190630001ddf0565b50602082015181600101556040820151816002019080519060200190630000720c929190630001ddf0565b506060820151816003019080519060200190630000722d929190630001ddf0565b506080820151816004015560a08201518160050160006101000a81548160ff02191690831515021790555060c08201518160060160008201518160000160006101000a81548163ffffffff021916908363ffffffff16021790555060208201518160000160046101000a81548163ffffffff021916908363ffffffff16021790555060408201518160000160086101000a81548163ffffffff021916908363ffffffff160217905550606082015181600001600c6101000a81548163ffffffff021916908363ffffffff16021790555060808201518160000160106101000a81548163ffffffff021916908363ffffffff16021790555060a08201518160000160146101000a81548163ffffffff021916908363ffffffff160217905550505050505060036040518060e001604052806040518060400160405280600a81526020017f576967676c7974756666000000000000000000000000000000000000000000008152508152602001602881526020016040518060400160405280600681526020017f4e6f726d616c000000000000000000000000000000000000000000000000000081525081526020016040518060400160405280600581526020017f466169727900000000000000000000000000000000000000000000000000000081525081526020016101d181526020016000151581526020016040518060c00160405280608c63ffffffff168152602001604663ffffffff168152602001602d63ffffffff168152602001605563ffffffff168152602001603263ffffffff168152602001602d63ffffffff1681525081525090806001815401808255809150509060018203906000526020600020906007020160009091929091909150600082015181600001908051906020019063000074cb929190630001ddf0565b5060208201518160010155604082015181600201908051906020019063000074f6929190630001ddf0565b5060608201518160030190805190602001906300007517929190630001ddf0565b506080820151816004015560a08201518160050160006101000a81548160ff02191690831515021790555060c08201518160060160008201518160000160006101000a81548163ffffffff021916908363ffffffff16021790555060208201518160000160046101000a81548163ffffffff021916908363ffffffff16021790555060408201518160000160086101000a81548163ffffffff021916908363ffffffff160217905550606082015181600001600c6101000a81548163ffffffff021916908363ffffffff16021790555060808201518160000160106101000a81548163ffffffff021916908363ffffffff16021790555060a08201518160000160146101000a81548163ffffffff021916908363ffffffff160217905550505050505060036040518060e001604052806040518060400160405280600581526020017f5a756261740000000000000000000000000000000000000000000000000000008152508152602001602981526020016040518060400160405280600681526020017f506f69736f6e000000000000000000000000000000000000000000000000000081525081526020016040518060400160405280600681526020017f466c79696e670000000000000000000000000000000000000000000000000000815250815260200161028f81526020016000151581526020016040518060c00160405280602863ffffffff168152602001602d63ffffffff168152602001602363ffffffff168152602001601e63ffffffff168152602001602863ffffffff168152602001603763ffffffff1681525081525090806001815401808255809150509060018203906000526020600020906007020160009091929091909150600082015181600001908051906020019063000077b5929190630001ddf0565b5060208201518160010155604082015181600201908051906020019063000077e0929190630001ddf0565b5060608201518160030190805190602001906300007801929190630001ddf0565b506080820151816004015560a08201518160050160006101000a81548160ff02191690831515021790555060c08201518160060160008201518160000160006101000a81548163ffffffff021916908363ffffffff16021790555060208201518160000160046101000a81548163ffffffff021916908363ffffffff16021790555060408201518160000160086101000a81548163ffffffff021916908363ffffffff160217905550606082015181600001600c6101000a81548163ffffffff021916908363ffffffff16021790555060808201518160000160106101000a81548163ffffffff021916908363ffffffff16021790555060a08201518160000160146101000a81548163ffffffff021916908363ffffffff160217905550505050505060036040518060e001604052806040518060400160405280600681526020017f476f6c62617400000000000000000000000000000000000000000000000000008152508152602001602a81526020016040518060400160405280600681526020017f506f69736f6e000000000000000000000000000000000000000000000000000081525081526020016040518060400160405280600681526020017f466c79696e67000000000000000000000000000000000000000000000000000081525081526020016101bd81526020016000151581526020016040518060c00160405280604b63ffffffff168152602001605063ffffffff168152602001604663ffffffff168152602001604163ffffffff168152602001604b63ffffffff168152602001605a63ffffffff168152508152509080600181540180825580915050906001820390600052602060002090600702016000909192909190915060008201518160000190805190602001906300007a9f929190630001ddf0565b506020820151816001015560408201518160020190805190602001906300007aca929190630001ddf0565b5060608201518160030190805190602001906300007aeb929190630001ddf0565b506080820151816004015560a08201518160050160006101000a81548160ff02191690831515021790555060c08201518160060160008201518160000160006101000a81548163ffffffff021916908363ffffffff16021790555060208201518160000160046101000a81548163ffffffff021916908363ffffffff16021790555060408201518160000160086101000a81548163ffffffff021916908363ffffffff160217905550606082015181600001600c6101000a81548163ffffffff021916908363ffffffff16021790555060808201518160000160106101000a81548163ffffffff021916908363ffffffff16021790555060a08201518160000160146101000a81548163ffffffff021916908363ffffffff160217905550505050505060036040518060e001604052806040518060400160405280600681526020017f4f646469736800000000000000000000000000000000000000000000000000008152508152602001602b81526020016040518060400160405280600581526020017f477261737300000000000000000000000000000000000000000000000000000081525081526020016040518060400160405280600681526020017f506f69736f6e0000000000000000000000000000000000000000000000000000815250815260200161024481526020016000151581526020016040518060c00160405280602d63ffffffff168152602001603263ffffffff168152602001603763ffffffff168152602001604b63ffffffff168152602001604163ffffffff168152602001601e63ffffffff168152508152509080600181540180825580915050906001820390600052602060002090600702016000909192909190915060008201518160000190805190602001906300007d89929190630001ddf0565b506020820151816001015560408201518160020190805190602001906300007db4929190630001ddf0565b5060608201518160030190805190602001906300007dd5929190630001ddf0565b506080820151816004015560a08201518160050160006101000a81548160ff02191690831515021790555060c08201518160060160008201518160000160006101000a81548163ffffffff021916908363ffffffff16021790555060208201518160000160046101000a81548163ffffffff021916908363ffffffff16021790555060408201518160000160086101000a81548163ffffffff021916908363ffffffff160217905550606082015181600001600c6101000a81548163ffffffff021916908363ffffffff16021790555060808201518160000160106101000a81548163ffffffff021916908363ffffffff16021790555060a08201518160000160146101000a81548163ffffffff021916908363ffffffff160217905550505050505060036040518060e001604052806040518060400160405280600581526020017f476c6f6f6d0000000000000000000000000000000000000000000000000000008152508152602001602c81526020016040518060400160405280600581526020017f477261737300000000000000000000000000000000000000000000000000000081525081526020016040518060400160405280600681526020017f506f69736f6e000000000000000000000000000000000000000000000000000081525081526020016101f981526020016000151581526020016040518060c00160405280603c63ffffffff168152602001604163ffffffff168152602001604663ffffffff168152602001605563ffffffff168152602001604b63ffffffff168152602001602863ffffffff168152508152509080600181540180825580915050906001820390600052602060002090600702016000909192909190915060008201518160000190805190602001906300008073929190630001ddf0565b50602082015181600101556040820151816002019080519060200190630000809e929190630001ddf0565b50606082015181600301908051906020019063000080bf929190630001ddf0565b506080820151816004015560a08201518160050160006101000a81548160ff02191690831515021790555060c08201518160060160008201518160000160006101000a81548163ffffffff021916908363ffffffff16021790555060208201518160000160046101000a81548163ffffffff021916908363ffffffff16021790555060408201518160000160086101000a81548163ffffffff021916908363ffffffff160217905550606082015181600001600c6101000a81548163ffffffff021916908363ffffffff16021790555060808201518160000160106101000a81548163ffffffff021916908363ffffffff16021790555060a08201518160000160146101000a81548163ffffffff021916908363ffffffff160217905550505050505060036040518060e001604052806040518060400160405280600981526020017f56696c65706c756d6500000000000000000000000000000000000000000000008152508152602001602d81526020016040518060400160405280600581526020017f477261737300000000000000000000000000000000000000000000000000000081525081526020016040518060400160405280600681526020017f506f69736f6e0000000000000000000000000000000000000000000000000000815250815260200161019a81526020016000151581526020016040518060c00160405280604b63ffffffff168152602001605063ffffffff168152602001605563ffffffff168152602001606e63ffffffff168152602001605a63ffffffff168152602001603263ffffffff16815250815250908060018154018082558091505090600182039060005260206000209060070201600090919290919091506000820151816000019080519060200190630000835d929190630001ddf0565b506020820151816001015560408201518160020190805190602001906300008388929190630001ddf0565b50606082015181600301908051906020019063000083a9929190630001ddf0565b506080820151816004015560a08201518160050160006101000a81548160ff02191690831515021790555060c08201518160060160008201518160000160006101000a81548163ffffffff021916908363ffffffff16021790555060208201518160000160046101000a81548163ffffffff021916908363ffffffff16021790555060408201518160000160086101000a81548163ffffffff021916908363ffffffff160217905550606082015181600001600c6101000a81548163ffffffff021916908363ffffffff16021790555060808201518160000160106101000a81548163ffffffff021916908363ffffffff16021790555060a08201518160000160146101000a81548163ffffffff021916908363ffffffff160217905550505050505060036040518060e001604052806040518060400160405280600581526020017f50617261730000000000000000000000000000000000000000000000000000008152508152602001602e81526020016040518060400160405280600381526020017f427567000000000000000000000000000000000000000000000000000000000081525081526020016040518060400160405280600581526020017f4772617373000000000000000000000000000000000000000000000000000000815250815260200161026781526020016000151581526020016040518060c00160405280602363ffffffff168152602001604663ffffffff168152602001603763ffffffff168152602001602d63ffffffff168152602001603763ffffffff168152602001601963ffffffff168152508152509080600181540180825580915050906001820390600052602060002090600702016000909192909190915060008201518160000190805190602001906300008647929190630001ddf0565b506020820151816001015560408201518160020190805190602001906300008672929190630001ddf0565b5060608201518160030190805190602001906300008693929190630001ddf0565b506080820151816004015560a08201518160050160006101000a81548160ff02191690831515021790555060c08201518160060160008201518160000160006101000a81548163ffffffff021916908363ffffffff16021790555060208201518160000160046101000a81548163ffffffff021916908363ffffffff16021790555060408201518160000160086101000a81548163ffffffff021916908363ffffffff160217905550606082015181600001600c6101000a81548163ffffffff021916908363ffffffff16021790555060808201518160000160106101000a81548163ffffffff021916908363ffffffff16021790555060a08201518160000160146101000a81548163ffffffff021916908363ffffffff160217905550505050505060036040518060e001604052806040518060400160405280600881526020017f50617261736563740000000000000000000000000000000000000000000000008152508152602001602f81526020016040518060400160405280600381526020017f427567000000000000000000000000000000000000000000000000000000000081525081526020016040518060400160405280600581526020017f477261737300000000000000000000000000000000000000000000000000000081525081526020016101ef81526020016000151581526020016040518060c00160405280603c63ffffffff168152602001605f63ffffffff168152602001605063ffffffff168152602001603c63ffffffff168152602001605063ffffffff168152602001601e63ffffffff168152508152509080600181540180825580915050906001820390600052602060002090600702016000909192909190915060008201518160000190805190602001906300008931929190630001ddf0565b50602082015181600101556040820151816002019080519060200190630000895c929190630001ddf0565b506060820151816003019080519060200190630000897d929190630001ddf0565b506080820151816004015560a08201518160050160006101000a81548160ff02191690831515021790555060c08201518160060160008201518160000160006101000a81548163ffffffff021916908363ffffffff16021790555060208201518160000160046101000a81548163ffffffff021916908363ffffffff16021790555060408201518160000160086101000a81548163ffffffff021916908363ffffffff160217905550606082015181600001600c6101000a81548163ffffffff021916908363ffffffff16021790555060808201518160000160106101000a81548163ffffffff021916908363ffffffff16021790555060a08201518160000160146101000a81548163ffffffff021916908363ffffffff160217905550505050505060036040518060e001604052806040518060400160405280600781526020017f56656e6f6e6174000000000000000000000000000000000000000000000000008152508152602001603081526020016040518060400160405280600381526020017f427567000000000000000000000000000000000000000000000000000000000081525081526020016040518060400160405280600681526020017f506f69736f6e0000000000000000000000000000000000000000000000000000815250815260200161025381526020016000151581526020016040518060c00160405280603c63ffffffff168152602001603763ffffffff168152602001603263ffffffff168152602001602863ffffffff168152602001603763ffffffff168152602001602d63ffffffff168152508152509080600181540180825580915050906001820390600052602060002090600702016000909192909190915060008201518160000190805190602001906300008c1b929190630001ddf0565b506020820151816001015560408201518160020190805190602001906300008c46929190630001ddf0565b5060608201518160030190805190602001906300008c67929190630001ddf0565b506080820151816004015560a08201518160050160006101000a81548160ff02191690831515021790555060c08201518160060160008201518160000160006101000a81548163ffffffff021916908363ffffffff16021790555060208201518160000160046101000a81548163ffffffff021916908363ffffffff16021790555060408201518160000160086101000a81548163ffffffff021916908363ffffffff160217905550606082015181600001600c6101000a81548163ffffffff021916908363ffffffff16021790555060808201518160000160106101000a81548163ffffffff021916908363ffffffff16021790555060a08201518160000160146101000a81548163ffffffff021916908363ffffffff160217905550505050505060036040518060e001604052806040518060400160405280600881526020017f56656e6f6d6f74680000000000000000000000000000000000000000000000008152508152602001603181526020016040518060400160405280600381526020017f427567000000000000000000000000000000000000000000000000000000000081525081526020016040518060400160405280600681526020017f506f69736f6e000000000000000000000000000000000000000000000000000081525081526020016101c281526020016000151581526020016040518060c00160405280604663ffffffff168152602001604163ffffffff168152602001603c63ffffffff168152602001605a63ffffffff168152602001604b63ffffffff168152602001605a63ffffffff168152508152509080600181540180825580915050906001820390600052602060002090600702016000909192909190915060008201518160000190805190602001906300008f05929190630001ddf0565b506020820151816001015560408201518160020190805190602001906300008f30929190630001ddf0565b5060608201518160030190805190602001906300008f51929190630001ddf0565b506080820151816004015560a08201518160050160006101000a81548160ff02191690831515021790555060c08201518160060160008201518160000160006101000a81548163ffffffff021916908363ffffffff16021790555060208201518160000160046101000a81548163ffffffff021916908363ffffffff16021790555060408201518160000160086101000a81548163ffffffff021916908363ffffffff160217905550606082015181600001600c6101000a81548163ffffffff021916908363ffffffff16021790555060808201518160000160106101000a81548163ffffffff021916908363ffffffff16021790555060a08201518160000160146101000a81548163ffffffff021916908363ffffffff160217905550505050505060036040518060e001604052806040518060400160405280600781526020017f4469676c657474000000000000000000000000000000000000000000000000008152508152602001603281526020016040518060400160405280600681526020017f47726f756e64000000000000000000000000000000000000000000000000000081525081526020016040518060400160405280600381526020017f6e616e0000000000000000000000000000000000000000000000000000000000815250815260200161027b81526020016000151581526020016040518060c00160405280600a63ffffffff168152602001603763ffffffff168152602001601963ffffffff168152602001602363ffffffff168152602001602d63ffffffff168152602001605f63ffffffff1681525081525090806001815401808255809150509060018203906000526020600020906007020160009091929091909150600082015181600001908051906020019063000091ef929190630001ddf0565b50602082015181600101556040820151816002019080519060200190630000921a929190630001ddf0565b506060820151816003019080519060200190630000923b929190630001ddf0565b506080820151816004015560a08201518160050160006101000a81548160ff02191690831515021790555060c08201518160060160008201518160000160006101000a81548163ffffffff021916908363ffffffff16021790555060208201518160000160046101000a81548163ffffffff021916908363ffffffff16021790555060408201518160000160086101000a81548163ffffffff021916908363ffffffff160217905550606082015181600001600c6101000a81548163ffffffff021916908363ffffffff16021790555060808201518160000160106101000a81548163ffffffff021916908363ffffffff16021790555060a08201518160000160146101000a81548163ffffffff021916908363ffffffff160217905550505050505060036040518060e001604052806040518060400160405280600781526020017f4475677472696f000000000000000000000000000000000000000000000000008152508152602001603381526020016040518060400160405280600681526020017f47726f756e64000000000000000000000000000000000000000000000000000081525081526020016040518060400160405280600381526020017f6e616e000000000000000000000000000000000000000000000000000000000081525081526020016101ef81526020016000151581526020016040518060c00160405280602363ffffffff168152602001605063ffffffff168152602001603263ffffffff168152602001603263ffffffff168152602001604663ffffffff168152602001607863ffffffff1681525081525090806001815401808255809150509060018203906000526020600020906007020160009091929091909150600082015181600001908051906020019063000094d9929190630001ddf0565b506020820151816001015560408201518160020190805190602001906300009504929190630001ddf0565b5060608201518160030190805190602001906300009525929190630001ddf0565b506080820151816004015560a08201518160050160006101000a81548160ff02191690831515021790555060c08201518160060160008201518160000160006101000a81548163ffffffff021916908363ffffffff16021790555060208201518160000160046101000a81548163ffffffff021916908363ffffffff16021790555060408201518160000160086101000a81548163ffffffff021916908363ffffffff160217905550606082015181600001600c6101000a81548163ffffffff021916908363ffffffff16021790555060808201518160000160106101000a81548163ffffffff021916908363ffffffff16021790555060a08201518160000160146101000a81548163ffffffff021916908363ffffffff160217905550505050505060036040518060e001604052806040518060400160405280600681526020017f4d656f77746800000000000000000000000000000000000000000000000000008152508152602001603481526020016040518060400160405280600681526020017f4e6f726d616c000000000000000000000000000000000000000000000000000081525081526020016040518060400160405280600381526020017f6e616e0000000000000000000000000000000000000000000000000000000000815250815260200161026281526020016000151581526020016040518060c00160405280602863ffffffff168152602001602d63ffffffff168152602001602363ffffffff168152602001602863ffffffff168152602001602863ffffffff168152602001605a63ffffffff1681525081525090806001815401808255809150509060018203906000526020600020906007020160009091929091909150600082015181600001908051906020019063000097c3929190630001ddf0565b5060208201518160010155604082015181600201908051906020019063000097ee929190630001ddf0565b506060820151816003019080519060200190630000980f929190630001ddf0565b506080820151816004015560a08201518160050160006101000a81548160ff02191690831515021790555060c08201518160060160008201518160000160006101000a81548163ffffffff021916908363ffffffff16021790555060208201518160000160046101000a81548163ffffffff021916908363ffffffff16021790555060408201518160000160086101000a81548163ffffffff021916908363ffffffff160217905550606082015181600001600c6101000a81548163ffffffff021916908363ffffffff16021790555060808201518160000160106101000a81548163ffffffff021916908363ffffffff16021790555060a08201518160000160146101000a81548163ffffffff021916908363ffffffff160217905550505050505060036040518060e001604052806040518060400160405280600781526020017f5065727369616e000000000000000000000000000000000000000000000000008152508152602001603581526020016040518060400160405280600681526020017f4e6f726d616c000000000000000000000000000000000000000000000000000081525081526020016040518060400160405280600381526020017f6e616e000000000000000000000000000000000000000000000000000000000081525081526020016101cc81526020016000151581526020016040518060c00160405280604163ffffffff168152602001604663ffffffff168152602001603c63ffffffff168152602001604163ffffffff168152602001604163ffffffff168152602001607363ffffffff168152508152509080600181540180825580915050906001820390600052602060002090600702016000909192909190915060008201518160000190805190602001906300009aad929190630001ddf0565b506020820151816001015560408201518160020190805190602001906300009ad8929190630001ddf0565b5060608201518160030190805190602001906300009af9929190630001ddf0565b506080820151816004015560a08201518160050160006101000a81548160ff02191690831515021790555060c08201518160060160008201518160000160006101000a81548163ffffffff021916908363ffffffff16021790555060208201518160000160046101000a81548163ffffffff021916908363ffffffff16021790555060408201518160000160086101000a81548163ffffffff021916908363ffffffff160217905550606082015181600001600c6101000a81548163ffffffff021916908363ffffffff16021790555060808201518160000160106101000a81548163ffffffff021916908363ffffffff16021790555060a08201518160000160146101000a81548163ffffffff021916908363ffffffff160217905550505050505060036040518060e001604052806040518060400160405280600781526020017f5073796475636b000000000000000000000000000000000000000000000000008152508152602001603681526020016040518060400160405280600581526020017f576174657200000000000000000000000000000000000000000000000000000081525081526020016040518060400160405280600381526020017f6e616e0000000000000000000000000000000000000000000000000000000000815250815260200161024481526020016000151581526020016040518060c00160405280603263ffffffff168152602001603463ffffffff168152602001603063ffffffff168152602001604163ffffffff168152602001603263ffffffff168152602001603763ffffffff168152508152509080600181540180825580915050906001820390600052602060002090600702016000909192909190915060008201518160000190805190602001906300009d97929190630001ddf0565b506020820151816001015560408201518160020190805190602001906300009dc2929190630001ddf0565b5060608201518160030190805190602001906300009de3929190630001ddf0565b506080820151816004015560a08201518160050160006101000a81548160ff02191690831515021790555060c08201518160060160008201518160000160006101000a81548163ffffffff021916908363ffffffff16021790555060208201518160000160046101000a81548163ffffffff021916908363ffffffff16021790555060408201518160000160086101000a81548163ffffffff021916908363ffffffff160217905550606082015181600001600c6101000a81548163ffffffff021916908363ffffffff16021790555060808201518160000160106101000a81548163ffffffff021916908363ffffffff16021790555060a08201518160000160146101000a81548163ffffffff021916908363ffffffff160217905550505050505060036040518060e001604052806040518060400160405280600781526020017f476f6c6475636b000000000000000000000000000000000000000000000000008152508152602001603781526020016040518060400160405280600581526020017f576174657200000000000000000000000000000000000000000000000000000081525081526020016040518060400160405280600381526020017f6e616e0000000000000000000000000000000000000000000000000000000000815250815260200161019081526020016000151581526020016040518060c00160405280605063ffffffff168152602001605263ffffffff168152602001604e63ffffffff168152602001605f63ffffffff168152602001605063ffffffff168152602001605563ffffffff16815250815250908060018154018082558091505090600182039060005260206000209060070201600090919290919091506000820151816000019080519060200190630000a081929190630001ddf0565b50602082015181600101556040820151816002019080519060200190630000a0ac929190630001ddf0565b506060820151816003019080519060200190630000a0cd929190630001ddf0565b506080820151816004015560a08201518160050160006101000a81548160ff02191690831515021790555060c08201518160060160008201518160000160006101000a81548163ffffffff021916908363ffffffff16021790555060208201518160000160046101000a81548163ffffffff021916908363ffffffff16021790555060408201518160000160086101000a81548163ffffffff021916908363ffffffff160217905550606082015181600001600c6101000a81548163ffffffff021916908363ffffffff16021790555060808201518160000160106101000a81548163ffffffff021916908363ffffffff16021790555060a08201518160000160146101000a81548163ffffffff021916908363ffffffff160217905550505050505060036040518060e001604052806040518060400160405280600681526020017f4d616e6b657900000000000000000000000000000000000000000000000000008152508152602001603881526020016040518060400160405280600881526020017f4669676874696e6700000000000000000000000000000000000000000000000081525081526020016040518060400160405280600381526020017f6e616e0000000000000000000000000000000000000000000000000000000000815250815260200161025381526020016000151581526020016040518060c00160405280602863ffffffff168152602001605063ffffffff168152602001602363ffffffff168152602001602363ffffffff168152602001602d63ffffffff168152602001604663ffffffff16815250815250908060018154018082558091505090600182039060005260206000209060070201600090919290919091506000820151816000019080519060200190630000a36b929190630001ddf0565b50602082015181600101556040820151816002019080519060200190630000a396929190630001ddf0565b506060820151816003019080519060200190630000a3b7929190630001ddf0565b506080820151816004015560a08201518160050160006101000a81548160ff02191690831515021790555060c08201518160060160008201518160000160006101000a81548163ffffffff021916908363ffffffff16021790555060208201518160000160046101000a81548163ffffffff021916908363ffffffff16021790555060408201518160000160086101000a81548163ffffffff021916908363ffffffff160217905550606082015181600001600c6101000a81548163ffffffff021916908363ffffffff16021790555060808201518160000160106101000a81548163ffffffff021916908363ffffffff16021790555060a08201518160000160146101000a81548163ffffffff021916908363ffffffff160217905550505050505060036040518060e001604052806040518060400160405280600881526020017f5072696d656170650000000000000000000000000000000000000000000000008152508152602001603981526020016040518060400160405280600881526020017f4669676874696e6700000000000000000000000000000000000000000000000081525081526020016040518060400160405280600381526020017f6e616e000000000000000000000000000000000000000000000000000000000081525081526020016101bd81526020016000151581526020016040518060c00160405280604163ffffffff168152602001606963ffffffff168152602001603c63ffffffff168152602001603c63ffffffff168152602001604663ffffffff168152602001605f63ffffffff16815250815250908060018154018082558091505090600182039060005260206000209060070201600090919290919091506000820151816000019080519060200190630000a655929190630001ddf0565b50602082015181600101556040820151816002019080519060200190630000a680929190630001ddf0565b506060820151816003019080519060200190630000a6a1929190630001ddf0565b506080820151816004015560a08201518160050160006101000a81548160ff02191690831515021790555060c08201518160060160008201518160000160006101000a81548163ffffffff021916908363ffffffff16021790555060208201518160000160046101000a81548163ffffffff021916908363ffffffff16021790555060408201518160000160086101000a81548163ffffffff021916908363ffffffff160217905550606082015181600001600c6101000a81548163ffffffff021916908363ffffffff16021790555060808201518160000160106101000a81548163ffffffff021916908363ffffffff16021790555060a08201518160000160146101000a81548163ffffffff021916908363ffffffff160217905550505050505060036040518060e001604052806040518060400160405280600981526020017f47726f776c6974686500000000000000000000000000000000000000000000008152508152602001603a81526020016040518060400160405280600481526020017f466972650000000000000000000000000000000000000000000000000000000081525081526020016040518060400160405280600381526020017f6e616e0000000000000000000000000000000000000000000000000000000000815250815260200161022681526020016000151581526020016040518060c00160405280603763ffffffff168152602001604663ffffffff168152602001602d63ffffffff168152602001604663ffffffff168152602001603263ffffffff168152602001603c63ffffffff16815250815250908060018154018082558091505090600182039060005260206000209060070201600090919290919091506000820151816000019080519060200190630000a93f929190630001ddf0565b50602082015181600101556040820151816002019080519060200190630000a96a929190630001ddf0565b506060820151816003019080519060200190630000a98b929190630001ddf0565b506080820151816004015560a08201518160050160006101000a81548160ff02191690831515021790555060c08201518160060160008201518160000160006101000a81548163ffffffff021916908363ffffffff16021790555060208201518160000160046101000a81548163ffffffff021916908363ffffffff16021790555060408201518160000160086101000a81548163ffffffff021916908363ffffffff160217905550606082015181600001600c6101000a81548163ffffffff021916908363ffffffff16021790555060808201518160000160106101000a81548163ffffffff021916908363ffffffff16021790555060a08201518160000160146101000a81548163ffffffff021916908363ffffffff160217905550505050505060036040518060e001604052806040518060400160405280600881526020017f417263616e696e650000000000000000000000000000000000000000000000008152508152602001603b81526020016040518060400160405280600481526020017f466972650000000000000000000000000000000000000000000000000000000081525081526020016040518060400160405280600381526020017f6e616e0000000000000000000000000000000000000000000000000000000000815250815260200161015981526020016000151581526020016040518060c00160405280605a63ffffffff168152602001606e63ffffffff168152602001605063ffffffff168152602001606463ffffffff168152602001605063ffffffff168152602001605f63ffffffff16815250815250908060018154018082558091505090600182039060005260206000209060070201600090919290919091506000820151816000019080519060200190630000ac29929190630001ddf0565b50602082015181600101556040820151816002019080519060200190630000ac54929190630001ddf0565b506060820151816003019080519060200190630000ac75929190630001ddf0565b506080820151816004015560a08201518160050160006101000a81548160ff02191690831515021790555060c08201518160060160008201518160000160006101000a81548163ffffffff021916908363ffffffff16021790555060208201518160000160046101000a81548163ffffffff021916908363ffffffff16021790555060408201518160000160086101000a81548163ffffffff021916908363ffffffff160217905550606082015181600001600c6101000a81548163ffffffff021916908363ffffffff16021790555060808201518160000160106101000a81548163ffffffff021916908363ffffffff16021790555060a08201518160000160146101000a81548163ffffffff021916908363ffffffff160217905550505050505060036040518060e001604052806040518060400160405280600781526020017f506f6c69776167000000000000000000000000000000000000000000000000008152508152602001603c81526020016040518060400160405280600581526020017f576174657200000000000000000000000000000000000000000000000000000081525081526020016040518060400160405280600381526020017f6e616e0000000000000000000000000000000000000000000000000000000000815250815260200161025881526020016000151581526020016040518060c00160405280602863ffffffff168152602001603263ffffffff168152602001602863ffffffff168152602001602863ffffffff168152602001602863ffffffff168152602001605a63ffffffff16815250815250908060018154018082558091505090600182039060005260206000209060070201600090919290919091506000820151816000019080519060200190630000af13929190630001ddf0565b50602082015181600101556040820151816002019080519060200190630000af3e929190630001ddf0565b506060820151816003019080519060200190630000af5f929190630001ddf0565b506080820151816004015560a08201518160050160006101000a81548160ff02191690831515021790555060c08201518160060160008201518160000160006101000a81548163ffffffff021916908363ffffffff16021790555060208201518160000160046101000a81548163ffffffff021916908363ffffffff16021790555060408201518160000160086101000a81548163ffffffff021916908363ffffffff160217905550606082015181600001600c6101000a81548163ffffffff021916908363ffffffff16021790555060808201518160000160106101000a81548163ffffffff021916908363ffffffff16021790555060a08201518160000160146101000a81548163ffffffff021916908363ffffffff160217905550505050505060036040518060e001604052806040518060400160405280600981526020017f506f6c69776869726c00000000000000000000000000000000000000000000008152508152602001603d81526020016040518060400160405280600581526020017f576174657200000000000000000000000000000000000000000000000000000081525081526020016040518060400160405280600381526020017f6e616e0000000000000000000000000000000000000000000000000000000000815250815260200161020381526020016000151581526020016040518060c00160405280604163ffffffff168152602001604163ffffffff168152602001604163ffffffff168152602001603263ffffffff168152602001603263ffffffff168152602001605a63ffffffff16815250815250908060018154018082558091505090600182039060005260206000209060070201600090919290919091506000820151816000019080519060200190630000b1fd929190630001ddf0565b50602082015181600101556040820151816002019080519060200190630000b228929190630001ddf0565b506060820151816003019080519060200190630000b249929190630001ddf0565b506080820151816004015560a08201518160050160006101000a81548160ff02191690831515021790555060c08201518160060160008201518160000160006101000a81548163ffffffff021916908363ffffffff16021790555060208201518160000160046101000a81548163ffffffff021916908363ffffffff16021790555060408201518160000160086101000a81548163ffffffff021916908363ffffffff160217905550606082015181600001600c6101000a81548163ffffffff021916908363ffffffff16021790555060808201518160000160106101000a81548163ffffffff021916908363ffffffff16021790555060a08201518160000160146101000a81548163ffffffff021916908363ffffffff160217905550505050505060036040518060e001604052806040518060400160405280600981526020017f506f6c69777261746800000000000000000000000000000000000000000000008152508152602001603e81526020016040518060400160405280600581526020017f576174657200000000000000000000000000000000000000000000000000000081525081526020016040518060400160405280600881526020017f4669676874696e67000000000000000000000000000000000000000000000000815250815260200161018681526020016000151581526020016040518060c00160405280605a63ffffffff168152602001605f63ffffffff168152602001605f63ffffffff168152602001604663ffffffff168152602001605a63ffffffff168152602001604663ffffffff16815250815250908060018154018082558091505090600182039060005260206000209060070201600090919290919091506000820151816000019080519060200190630000b4e7929190630001ddf0565b50602082015181600101556040820151816002019080519060200190630000b512929190630001ddf0565b506060820151816003019080519060200190630000b533929190630001ddf0565b506080820151816004015560a08201518160050160006101000a81548160ff02191690831515021790555060c08201518160060160008201518160000160006101000a81548163ffffffff021916908363ffffffff16021790555060208201518160000160046101000a81548163ffffffff021916908363ffffffff16021790555060408201518160000160086101000a81548163ffffffff021916908363ffffffff160217905550606082015181600001600c6101000a81548163ffffffff021916908363ffffffff16021790555060808201518160000160106101000a81548163ffffffff021916908363ffffffff16021790555060a08201518160000160146101000a81548163ffffffff021916908363ffffffff160217905550505050505060036040518060e001604052806040518060400160405280600481526020017f41627261000000000000000000000000000000000000000000000000000000008152508152602001603f81526020016040518060400160405280600781526020017f507379636869630000000000000000000000000000000000000000000000000081525081526020016040518060400160405280600381526020017f6e616e0000000000000000000000000000000000000000000000000000000000815250815260200161024e81526020016000151581526020016040518060c00160405280601963ffffffff168152602001601463ffffffff168152602001600f63ffffffff168152602001606963ffffffff168152602001603763ffffffff168152602001605a63ffffffff16815250815250908060018154018082558091505090600182039060005260206000209060070201600090919290919091506000820151816000019080519060200190630000b7d1929190630001ddf0565b50602082015181600101556040820151816002019080519060200190630000b7fc929190630001ddf0565b506060820151816003019080519060200190630000b81d929190630001ddf0565b506080820151816004015560a08201518160050160006101000a81548160ff02191690831515021790555060c08201518160060160008201518160000160006101000a81548163ffffffff021916908363ffffffff16021790555060208201518160000160046101000a81548163ffffffff021916908363ffffffff16021790555060408201518160000160086101000a81548163ffffffff021916908363ffffffff160217905550606082015181600001600c6101000a81548163ffffffff021916908363ffffffff16021790555060808201518160000160106101000a81548163ffffffff021916908363ffffffff16021790555060a08201518160000160146101000a81548163ffffffff021916908363ffffffff160217905550505050505060036040518060e001604052806040518060400160405280600781526020017f4b616461627261000000000000000000000000000000000000000000000000008152508152602001604081526020016040518060400160405280600781526020017f507379636869630000000000000000000000000000000000000000000000000081525081526020016040518060400160405280600381526020017f6e616e000000000000000000000000000000000000000000000000000000000081525081526020016101f481526020016000151581526020016040518060c00160405280602863ffffffff168152602001602363ffffffff168152602001601e63ffffffff168152602001607863ffffffff168152602001604663ffffffff168152602001606963ffffffff16815250815250908060018154018082558091505090600182039060005260206000209060070201600090919290919091506000820151816000019080519060200190630000babb929190630001ddf0565b50602082015181600101556040820151816002019080519060200190630000bae6929190630001ddf0565b506060820151816003019080519060200190630000bb07929190630001ddf0565b506080820151816004015560a08201518160050160006101000a81548160ff02191690831515021790555060c08201518160060160008201518160000160006101000a81548163ffffffff021916908363ffffffff16021790555060208201518160000160046101000a81548163ffffffff021916908363ffffffff16021790555060408201518160000160086101000a81548163ffffffff021916908363ffffffff160217905550606082015181600001600c6101000a81548163ffffffff021916908363ffffffff16021790555060808201518160000160106101000a81548163ffffffff021916908363ffffffff16021790555060a08201518160000160146101000a81548163ffffffff021916908363ffffffff160217905550505050505060036040518060e001604052806040518060400160405280600881526020017f416c616b617a616d0000000000000000000000000000000000000000000000008152508152602001604181526020016040518060400160405280600781526020017f507379636869630000000000000000000000000000000000000000000000000081525081526020016040518060400160405280600381526020017f6e616e0000000000000000000000000000000000000000000000000000000000815250815260200161019081526020016000151581526020016040518060c00160405280603763ffffffff168152602001603263ffffffff168152602001602d63ffffffff168152602001608763ffffffff168152602001605f63ffffffff168152602001607863ffffffff16815250815250908060018154018082558091505090600182039060005260206000209060070201600090919290919091506000820151816000019080519060200190630000bda5929190630001ddf0565b50602082015181600101556040820151816002019080519060200190630000bdd0929190630001ddf0565b506060820151816003019080519060200190630000bdf1929190630001ddf0565b506080820151816004015560a08201518160050160006101000a81548160ff02191690831515021790555060c08201518160060160008201518160000160006101000a81548163ffffffff021916908363ffffffff16021790555060208201518160000160046101000a81548163ffffffff021916908363ffffffff16021790555060408201518160000160086101000a81548163ffffffff021916908363ffffffff160217905550606082015181600001600c6101000a81548163ffffffff021916908363ffffffff16021790555060808201518160000160106101000a81548163ffffffff021916908363ffffffff16021790555060a08201518160000160146101000a81548163ffffffff021916908363ffffffff160217905550505050505060036040518060e001604052806040518060400160405280600681526020017f4d6163686f7000000000000000000000000000000000000000000000000000008152508152602001604281526020016040518060400160405280600881526020017f4669676874696e6700000000000000000000000000000000000000000000000081525081526020016040518060400160405280600381526020017f6e616e0000000000000000000000000000000000000000000000000000000000815250815260200161025381526020016000151581526020016040518060c00160405280604663ffffffff168152602001605063ffffffff168152602001603263ffffffff168152602001602363ffffffff168152602001602363ffffffff168152602001602363ffffffff16815250815250908060018154018082558091505090600182039060005260206000209060070201600090919290919091506000820151816000019080519060200190630000c08f929190630001ddf0565b50602082015181600101556040820151816002019080519060200190630000c0ba929190630001ddf0565b506060820151816003019080519060200190630000c0db929190630001ddf0565b506080820151816004015560a08201518160050160006101000a81548160ff02191690831515021790555060c08201518160060160008201518160000160006101000a81548163ffffffff021916908363ffffffff16021790555060208201518160000160046101000a81548163ffffffff021916908363ffffffff16021790555060408201518160000160086101000a81548163ffffffff021916908363ffffffff160217905550606082015181600001600c6101000a81548163ffffffff021916908363ffffffff16021790555060808201518160000160106101000a81548163ffffffff021916908363ffffffff16021790555060a08201518160000160146101000a81548163ffffffff021916908363ffffffff160217905550505050505060036040518060e001604052806040518060400160405280600781526020017f4d6163686f6b65000000000000000000000000000000000000000000000000008152508152602001604381526020016040518060400160405280600881526020017f4669676874696e6700000000000000000000000000000000000000000000000081525081526020016040518060400160405280600381526020017f6e616e000000000000000000000000000000000000000000000000000000000081525081526020016101ef81526020016000151581526020016040518060c00160405280605063ffffffff168152602001606463ffffffff168152602001604663ffffffff168152602001603263ffffffff168152602001603c63ffffffff168152602001602d63ffffffff16815250815250908060018154018082558091505090600182039060005260206000209060070201600090919290919091506000820151816000019080519060200190630000c379929190630001ddf0565b50602082015181600101556040820151816002019080519060200190630000c3a4929190630001ddf0565b506060820151816003019080519060200190630000c3c5929190630001ddf0565b506080820151816004015560a08201518160050160006101000a81548160ff02191690831515021790555060c08201518160060160008201518160000160006101000a81548163ffffffff021916908363ffffffff16021790555060208201518160000160046101000a81548163ffffffff021916908363ffffffff16021790555060408201518160000160086101000a81548163ffffffff021916908363ffffffff160217905550606082015181600001600c6101000a81548163ffffffff021916908363ffffffff16021790555060808201518160000160106101000a81548163ffffffff021916908363ffffffff16021790555060a08201518160000160146101000a81548163ffffffff021916908363ffffffff160217905550505050505060036040518060e001604052806040518060400160405280600781526020017f4d616368616d70000000000000000000000000000000000000000000000000008152508152602001604481526020016040518060400160405280600881526020017f4669676874696e6700000000000000000000000000000000000000000000000081525081526020016040518060400160405280600381526020017f6e616e0000000000000000000000000000000000000000000000000000000000815250815260200161018b81526020016000151581526020016040518060c00160405280605a63ffffffff168152602001608263ffffffff168152602001605063ffffffff168152602001604163ffffffff168152602001605563ffffffff168152602001603763ffffffff16815250815250908060018154018082558091505090600182039060005260206000209060070201600090919290919091506000820151816000019080519060200190630000c663929190630001ddf0565b50602082015181600101556040820151816002019080519060200190630000c68e929190630001ddf0565b506060820151816003019080519060200190630000c6af929190630001ddf0565b506080820151816004015560a08201518160050160006101000a81548160ff02191690831515021790555060c08201518160060160008201518160000160006101000a81548163ffffffff021916908363ffffffff16021790555060208201518160000160046101000a81548163ffffffff021916908363ffffffff16021790555060408201518160000160086101000a81548163ffffffff021916908363ffffffff160217905550606082015181600001600c6101000a81548163ffffffff021916908363ffffffff16021790555060808201518160000160106101000a81548163ffffffff021916908363ffffffff16021790555060a08201518160000160146101000a81548163ffffffff021916908363ffffffff160217905550505050505060036040518060e001604052806040518060400160405280600a81526020017f42656c6c7370726f7574000000000000000000000000000000000000000000008152508152602001604581526020016040518060400160405280600581526020017f477261737300000000000000000000000000000000000000000000000000000081525081526020016040518060400160405280600681526020017f506f69736f6e0000000000000000000000000000000000000000000000000000815250815260200161025881526020016000151581526020016040518060c00160405280603263ffffffff168152602001604b63ffffffff168152602001602363ffffffff168152602001604663ffffffff168152602001601e63ffffffff168152602001602863ffffffff16815250815250908060018154018082558091505090600182039060005260206000209060070201600090919290919091506000820151816000019080519060200190630000c94d929190630001ddf0565b50602082015181600101556040820151816002019080519060200190630000c978929190630001ddf0565b506060820151816003019080519060200190630000c999929190630001ddf0565b506080820151816004015560a08201518160050160006101000a81548160ff02191690831515021790555060c08201518160060160008201518160000160006101000a81548163ffffffff021916908363ffffffff16021790555060208201518160000160046101000a81548163ffffffff021916908363ffffffff16021790555060408201518160000160086101000a81548163ffffffff021916908363ffffffff160217905550606082015181600001600c6101000a81548163ffffffff021916908363ffffffff16021790555060808201518160000160106101000a81548163ffffffff021916908363ffffffff16021790555060a08201518160000160146101000a81548163ffffffff021916908363ffffffff160217905550505050505060036040518060e001604052806040518060400160405280600a81526020017f57656570696e62656c6c000000000000000000000000000000000000000000008152508152602001604681526020016040518060400160405280600581526020017f477261737300000000000000000000000000000000000000000000000000000081525081526020016040518060400160405280600681526020017f506f69736f6e000000000000000000000000000000000000000000000000000081525081526020016101fe81526020016000151581526020016040518060c00160405280604163ffffffff168152602001605a63ffffffff168152602001603263ffffffff168152602001605563ffffffff168152602001602d63ffffffff168152602001603763ffffffff16815250815250908060018154018082558091505090600182039060005260206000209060070201600090919290919091506000820151816000019080519060200190630000cc37929190630001ddf0565b50602082015181600101556040820151816002019080519060200190630000cc62929190630001ddf0565b506060820151816003019080519060200190630000cc83929190630001ddf0565b506080820151816004015560a08201518160050160006101000a81548160ff02191690831515021790555060c08201518160060160008201518160000160006101000a81548163ffffffff021916908363ffffffff16021790555060208201518160000160046101000a81548163ffffffff021916908363ffffffff16021790555060408201518160000160086101000a81548163ffffffff021916908363ffffffff160217905550606082015181600001600c6101000a81548163ffffffff021916908363ffffffff16021790555060808201518160000160106101000a81548163ffffffff021916908363ffffffff16021790555060a08201518160000160146101000a81548163ffffffff021916908363ffffffff160217905550505050505060036040518060e001604052806040518060400160405280600a81526020017f5669637472656562656c000000000000000000000000000000000000000000008152508152602001604781526020016040518060400160405280600581526020017f477261737300000000000000000000000000000000000000000000000000000081525081526020016040518060400160405280600681526020017f506f69736f6e0000000000000000000000000000000000000000000000000000815250815260200161019a81526020016000151581526020016040518060c00160405280605063ffffffff168152602001606963ffffffff168152602001604163ffffffff168152602001606463ffffffff168152602001604663ffffffff168152602001604663ffffffff16815250815250908060018154018082558091505090600182039060005260206000209060070201600090919290919091506000820151816000019080519060200190630000cf21929190630001ddf0565b50602082015181600101556040820151816002019080519060200190630000cf4c929190630001ddf0565b506060820151816003019080519060200190630000cf6d929190630001ddf0565b506080820151816004015560a08201518160050160006101000a81548160ff02191690831515021790555060c08201518160060160008201518160000160006101000a81548163ffffffff021916908363ffffffff16021790555060208201518160000160046101000a81548163ffffffff021916908363ffffffff16021790555060408201518160000160086101000a81548163ffffffff021916908363ffffffff160217905550606082015181600001600c6101000a81548163ffffffff021916908363ffffffff16021790555060808201518160000160106101000a81548163ffffffff021916908363ffffffff16021790555060a08201518160000160146101000a81548163ffffffff021916908363ffffffff160217905550505050505060036040518060e001604052806040518060400160405280600981526020017f54656e7461636f6f6c00000000000000000000000000000000000000000000008152508152602001604881526020016040518060400160405280600581526020017f576174657200000000000000000000000000000000000000000000000000000081525081526020016040518060400160405280600681526020017f506f69736f6e0000000000000000000000000000000000000000000000000000815250815260200161023581526020016000151581526020016040518060c00160405280602863ffffffff168152602001602863ffffffff168152602001602363ffffffff168152602001603263ffffffff168152602001606463ffffffff168152602001604663ffffffff16815250815250908060018154018082558091505090600182039060005260206000209060070201600090919290919091506000820151816000019080519060200190630000d20b929190630001ddf0565b50602082015181600101556040820151816002019080519060200190630000d236929190630001ddf0565b506060820151816003019080519060200190630000d257929190630001ddf0565b506080820151816004015560a08201518160050160006101000a81548160ff02191690831515021790555060c08201518160060160008201518160000160006101000a81548163ffffffff021916908363ffffffff16021790555060208201518160000160046101000a81548163ffffffff021916908363ffffffff16021790555060408201518160000160086101000a81548163ffffffff021916908363ffffffff160217905550606082015181600001600c6101000a81548163ffffffff021916908363ffffffff16021790555060808201518160000160106101000a81548163ffffffff021916908363ffffffff16021790555060a08201518160000160146101000a81548163ffffffff021916908363ffffffff160217905550505050505060036040518060e001604052806040518060400160405280600a81526020017f54656e7461637275656c000000000000000000000000000000000000000000008152508152602001604981526020016040518060400160405280600581526020017f576174657200000000000000000000000000000000000000000000000000000081525081526020016040518060400160405280600681526020017f506f69736f6e0000000000000000000000000000000000000000000000000000815250815260200161018181526020016000151581526020016040518060c00160405280605063ffffffff168152602001604663ffffffff168152602001604163ffffffff168152602001605063ffffffff168152602001607863ffffffff168152602001606463ffffffff16815250815250908060018154018082558091505090600182039060005260206000209060070201600090919290919091506000820151816000019080519060200190630000d4f5929190630001ddf0565b50602082015181600101556040820151816002019080519060200190630000d520929190630001ddf0565b506060820151816003019080519060200190630000d541929190630001ddf0565b506080820151816004015560a08201518160050160006101000a81548160ff02191690831515021790555060c08201518160060160008201518160000160006101000a81548163ffffffff021916908363ffffffff16021790555060208201518160000160046101000a81548163ffffffff021916908363ffffffff16021790555060408201518160000160086101000a81548163ffffffff021916908363ffffffff160217905550606082015181600001600c6101000a81548163ffffffff021916908363ffffffff16021790555060808201518160000160106101000a81548163ffffffff021916908363ffffffff16021790555060a08201518160000160146101000a81548163ffffffff021916908363ffffffff160217905550505050505060036040518060e001604052806040518060400160405280600781526020017f47656f64756465000000000000000000000000000000000000000000000000008152508152602001604a81526020016040518060400160405280600481526020017f526f636b0000000000000000000000000000000000000000000000000000000081525081526020016040518060400160405280600681526020017f47726f756e640000000000000000000000000000000000000000000000000000815250815260200161025881526020016000151581526020016040518060c00160405280602863ffffffff168152602001605063ffffffff168152602001606463ffffffff168152602001601e63ffffffff168152602001601e63ffffffff168152602001601463ffffffff16815250815250908060018154018082558091505090600182039060005260206000209060070201600090919290919091506000820151816000019080519060200190630000d7df929190630001ddf0565b50602082015181600101556040820151816002019080519060200190630000d80a929190630001ddf0565b506060820151816003019080519060200190630000d82b929190630001ddf0565b506080820151816004015560a08201518160050160006101000a81548160ff02191690831515021790555060c08201518160060160008201518160000160006101000a81548163ffffffff021916908363ffffffff16021790555060208201518160000160046101000a81548163ffffffff021916908363ffffffff16021790555060408201518160000160086101000a81548163ffffffff021916908363ffffffff160217905550606082015181600001600c6101000a81548163ffffffff021916908363ffffffff16021790555060808201518160000160106101000a81548163ffffffff021916908363ffffffff16021790555060a08201518160000160146101000a81548163ffffffff021916908363ffffffff160217905550505050505060036040518060e001604052806040518060400160405280600881526020017f47726176656c65720000000000000000000000000000000000000000000000008152508152602001604b81526020016040518060400160405280600481526020017f526f636b0000000000000000000000000000000000000000000000000000000081525081526020016040518060400160405280600681526020017f47726f756e64000000000000000000000000000000000000000000000000000081525081526020016101fe81526020016000151581526020016040518060c00160405280603763ffffffff168152602001605f63ffffffff168152602001607363ffffffff168152602001602d63ffffffff168152602001602d63ffffffff168152602001602363ffffffff16815250815250908060018154018082558091505090600182039060005260206000209060070201600090919290919091506000820151816000019080519060200190630000dac9929190630001ddf0565b50602082015181600101556040820151816002019080519060200190630000daf4929190630001ddf0565b506060820151816003019080519060200190630000db15929190630001ddf0565b506080820151816004015560a08201518160050160006101000a81548160ff02191690831515021790555060c08201518160060160008201518160000160006101000a81548163ffffffff021916908363ffffffff16021790555060208201518160000160046101000a81548163ffffffff021916908363ffffffff16021790555060408201518160000160086101000a81548163ffffffff021916908363ffffffff160217905550606082015181600001600c6101000a81548163ffffffff021916908363ffffffff16021790555060808201518160000160106101000a81548163ffffffff021916908363ffffffff16021790555060a08201518160000160146101000a81548163ffffffff021916908363ffffffff160217905550505050505060036040518060e001604052806040518060400160405280600581526020017f476f6c656d0000000000000000000000000000000000000000000000000000008152508152602001604c81526020016040518060400160405280600481526020017f526f636b0000000000000000000000000000000000000000000000000000000081525081526020016040518060400160405280600681526020017f47726f756e640000000000000000000000000000000000000000000000000000815250815260200161019581526020016000151581526020016040518060c00160405280605063ffffffff168152602001607863ffffffff168152602001608263ffffffff168152602001603763ffffffff168152602001604163ffffffff168152602001602d63ffffffff16815250815250908060018154018082558091505090600182039060005260206000209060070201600090919290919091506000820151816000019080519060200190630000ddb3929190630001ddf0565b50602082015181600101556040820151816002019080519060200190630000ddde929190630001ddf0565b506060820151816003019080519060200190630000ddff929190630001ddf0565b506080820151816004015560a08201518160050160006101000a81548160ff02191690831515021790555060c08201518160060160008201518160000160006101000a81548163ffffffff021916908363ffffffff16021790555060208201518160000160046101000a81548163ffffffff021916908363ffffffff16021790555060408201518160000160086101000a81548163ffffffff021916908363ffffffff160217905550606082015181600001600c6101000a81548163ffffffff021916908363ffffffff16021790555060808201518160000160106101000a81548163ffffffff021916908363ffffffff16021790555060a08201518160000160146101000a81548163ffffffff021916908363ffffffff160217905550505050505060036040518060e001604052806040518060400160405280600681526020017f506f6e79746100000000000000000000000000000000000000000000000000008152508152602001604d81526020016040518060400160405280600481526020017f466972650000000000000000000000000000000000000000000000000000000081525081526020016040518060400160405280600381526020017f6e616e000000000000000000000000000000000000000000000000000000000081525081526020016101ea81526020016000151581526020016040518060c00160405280603263ffffffff168152602001605563ffffffff168152602001603763ffffffff168152602001604163ffffffff168152602001604163ffffffff168152602001605a63ffffffff16815250815250908060018154018082558091505090600182039060005260206000209060070201600090919290919091506000820151816000019080519060200190630000e09d929190630001ddf0565b50602082015181600101556040820151816002019080519060200190630000e0c8929190630001ddf0565b506060820151816003019080519060200190630000e0e9929190630001ddf0565b506080820151816004015560a08201518160050160006101000a81548160ff02191690831515021790555060c08201518160060160008201518160000160006101000a81548163ffffffff021916908363ffffffff16021790555060208201518160000160046101000a81548163ffffffff021916908363ffffffff16021790555060408201518160000160086101000a81548163ffffffff021916908363ffffffff160217905550606082015181600001600c6101000a81548163ffffffff021916908363ffffffff16021790555060808201518160000160106101000a81548163ffffffff021916908363ffffffff16021790555060a08201518160000160146101000a81548163ffffffff021916908363ffffffff160217905550505050505060036040518060e001604052806040518060400160405280600881526020017f52617069646173680000000000000000000000000000000000000000000000008152508152602001604e81526020016040518060400160405280600481526020017f466972650000000000000000000000000000000000000000000000000000000081525081526020016040518060400160405280600381526020017f6e616e0000000000000000000000000000000000000000000000000000000000815250815260200161019081526020016000151581526020016040518060c00160405280604163ffffffff168152602001606463ffffffff168152602001604663ffffffff168152602001605063ffffffff168152602001605063ffffffff168152602001606963ffffffff16815250815250908060018154018082558091505090600182039060005260206000209060070201600090919290919091506000820151816000019080519060200190630000e387929190630001ddf0565b50602082015181600101556040820151816002019080519060200190630000e3b2929190630001ddf0565b506060820151816003019080519060200190630000e3d3929190630001ddf0565b506080820151816004015560a08201518160050160006101000a81548160ff02191690831515021790555060c08201518160060160008201518160000160006101000a81548163ffffffff021916908363ffffffff16021790555060208201518160000160046101000a81548163ffffffff021916908363ffffffff16021790555060408201518160000160086101000a81548163ffffffff021916908363ffffffff160217905550606082015181600001600c6101000a81548163ffffffff021916908363ffffffff16021790555060808201518160000160106101000a81548163ffffffff021916908363ffffffff16021790555060a08201518160000160146101000a81548163ffffffff021916908363ffffffff160217905550505050505060036040518060e001604052806040518060400160405280600881526020017f536c6f77706f6b650000000000000000000000000000000000000000000000008152508152602001604f81526020016040518060400160405280600581526020017f576174657200000000000000000000000000000000000000000000000000000081525081526020016040518060400160405280600781526020017f5073796368696300000000000000000000000000000000000000000000000000815250815260200161024981526020016000151581526020016040518060c00160405280605a63ffffffff168152602001604163ffffffff168152602001604163ffffffff168152602001602863ffffffff168152602001602863ffffffff168152602001600f63ffffffff16815250815250908060018154018082558091505090600182039060005260206000209060070201600090919290919091506000820151816000019080519060200190630000e671929190630001ddf0565b50602082015181600101556040820151816002019080519060200190630000e69c929190630001ddf0565b506060820151816003019080519060200190630000e6bd929190630001ddf0565b506080820151816004015560a08201518160050160006101000a81548160ff02191690831515021790555060c08201518160060160008201518160000160006101000a81548163ffffffff021916908363ffffffff16021790555060208201518160000160046101000a81548163ffffffff021916908363ffffffff16021790555060408201518160000160086101000a81548163ffffffff021916908363ffffffff160217905550606082015181600001600c6101000a81548163ffffffff021916908363ffffffff16021790555060808201518160000160106101000a81548163ffffffff021916908363ffffffff16021790555060a08201518160000160146101000a81548163ffffffff021916908363ffffffff160217905550505050505060036040518060e001604052806040518060400160405280600781526020017f536c6f7762726f000000000000000000000000000000000000000000000000008152508152602001605081526020016040518060400160405280600581526020017f576174657200000000000000000000000000000000000000000000000000000081525081526020016040518060400160405280600781526020017f5073796368696300000000000000000000000000000000000000000000000000815250815260200161019a81526020016000151581526020016040518060c00160405280605f63ffffffff168152602001604b63ffffffff168152602001606e63ffffffff168152602001606463ffffffff168152602001605063ffffffff168152602001601e63ffffffff16815250815250908060018154018082558091505090600182039060005260206000209060070201600090919290919091506000820151816000019080519060200190630000e95b929190630001ddf0565b50602082015181600101556040820151816002019080519060200190630000e986929190630001ddf0565b506060820151816003019080519060200190630000e9a7929190630001ddf0565b506080820151816004015560a08201518160050160006101000a81548160ff02191690831515021790555060c08201518160060160008201518160000160006101000a81548163ffffffff021916908363ffffffff16021790555060208201518160000160046101000a81548163ffffffff021916908363ffffffff16021790555060408201518160000160086101000a81548163ffffffff021916908363ffffffff160217905550606082015181600001600c6101000a81548163ffffffff021916908363ffffffff16021790555060808201518160000160106101000a81548163ffffffff021916908363ffffffff16021790555060a08201518160000160146101000a81548163ffffffff021916908363ffffffff160217905550505050505060036040518060e001604052806040518060400160405280600981526020017f4d61676e656d69746500000000000000000000000000000000000000000000008152508152602001605181526020016040518060400160405280600881526020017f456c65637472696300000000000000000000000000000000000000000000000081525081526020016040518060400160405280600581526020017f537465656c000000000000000000000000000000000000000000000000000000815250815260200161023f81526020016000151581526020016040518060c00160405280601963ffffffff168152602001602363ffffffff168152602001604663ffffffff168152602001605f63ffffffff168152602001603763ffffffff168152602001602d63ffffffff16815250815250908060018154018082558091505090600182039060005260206000209060070201600090919290919091506000820151816000019080519060200190630000ec45929190630001ddf0565b50602082015181600101556040820151816002019080519060200190630000ec70929190630001ddf0565b506060820151816003019080519060200190630000ec91929190630001ddf0565b506080820151816004015560a08201518160050160006101000a81548160ff02191690831515021790555060c08201518160060160008201518160000160006101000a81548163ffffffff021916908363ffffffff16021790555060208201518160000160046101000a81548163ffffffff021916908363ffffffff16021790555060408201518160000160086101000a81548163ffffffff021916908363ffffffff160217905550606082015181600001600c6101000a81548163ffffffff021916908363ffffffff16021790555060808201518160000160106101000a81548163ffffffff021916908363ffffffff16021790555060a08201518160000160146101000a81548163ffffffff021916908363ffffffff160217905550505050505060036040518060e001604052806040518060400160405280600881526020017f4d61676e65746f6e0000000000000000000000000000000000000000000000008152508152602001605281526020016040518060400160405280600881526020017f456c65637472696300000000000000000000000000000000000000000000000081525081526020016040518060400160405280600581526020017f537465656c00000000000000000000000000000000000000000000000000000081525081526020016101b381526020016000151581526020016040518060c00160405280603263ffffffff168152602001603c63ffffffff168152602001605f63ffffffff168152602001607863ffffffff168152602001604663ffffffff168152602001604663ffffffff16815250815250908060018154018082558091505090600182039060005260206000209060070201600090919290919091506000820151816000019080519060200190630000ef2f929190630001ddf0565b50602082015181600101556040820151816002019080519060200190630000ef5a929190630001ddf0565b506060820151816003019080519060200190630000ef7b929190630001ddf0565b506080820151816004015560a08201518160050160006101000a81548160ff02191690831515021790555060c08201518160060160008201518160000160006101000a81548163ffffffff021916908363ffffffff16021790555060208201518160000160046101000a81548163ffffffff021916908363ffffffff16021790555060408201518160000160086101000a81548163ffffffff021916908363ffffffff160217905550606082015181600001600c6101000a81548163ffffffff021916908363ffffffff16021790555060808201518160000160106101000a81548163ffffffff021916908363ffffffff16021790555060a08201518160000160146101000a81548163ffffffff021916908363ffffffff160217905550505050505060036040518060e001604052806040518060400160405280600a81526020017f46617266657463682764000000000000000000000000000000000000000000008152508152602001605381526020016040518060400160405280600681526020017f4e6f726d616c000000000000000000000000000000000000000000000000000081525081526020016040518060400160405280600681526020017f466c79696e670000000000000000000000000000000000000000000000000000815250815260200161022481526020016000151581526020016040518060c00160405280603463ffffffff168152602001604163ffffffff168152602001603763ffffffff168152602001603a63ffffffff168152602001603e63ffffffff168152602001603c63ffffffff16815250815250908060018154018082558091505090600182039060005260206000209060070201600090919290919091506000820151816000019080519060200190630000f219929190630001ddf0565b50602082015181600101556040820151816002019080519060200190630000f244929190630001ddf0565b506060820151816003019080519060200190630000f265929190630001ddf0565b506080820151816004015560a08201518160050160006101000a81548160ff02191690831515021790555060c08201518160060160008201518160000160006101000a81548163ffffffff021916908363ffffffff16021790555060208201518160000160046101000a81548163ffffffff021916908363ffffffff16021790555060408201518160000160086101000a81548163ffffffff021916908363ffffffff160217905550606082015181600001600c6101000a81548163ffffffff021916908363ffffffff16021790555060808201518160000160106101000a81548163ffffffff021916908363ffffffff16021790555060a08201518160000160146101000a81548163ffffffff021916908363ffffffff160217905550505050505060036040518060e001604052806040518060400160405280600581526020017f446f64756f0000000000000000000000000000000000000000000000000000008152508152602001605481526020016040518060400160405280600681526020017f4e6f726d616c000000000000000000000000000000000000000000000000000081525081526020016040518060400160405280600681526020017f466c79696e670000000000000000000000000000000000000000000000000000815250815260200161024e81526020016000151581526020016040518060c00160405280602363ffffffff168152602001605563ffffffff168152602001602d63ffffffff168152602001602363ffffffff168152602001602363ffffffff168152602001604b63ffffffff16815250815250908060018154018082558091505090600182039060005260206000209060070201600090919290919091506000820151816000019080519060200190630000f503929190630001ddf0565b50602082015181600101556040820151816002019080519060200190630000f52e929190630001ddf0565b506060820151816003019080519060200190630000f54f929190630001ddf0565b506080820151816004015560a08201518160050160006101000a81548160ff02191690831515021790555060c08201518160060160008201518160000160006101000a81548163ffffffff021916908363ffffffff16021790555060208201518160000160046101000a81548163ffffffff021916908363ffffffff16021790555060408201518160000160086101000a81548163ffffffff021916908363ffffffff160217905550606082015181600001600c6101000a81548163ffffffff021916908363ffffffff16021790555060808201518160000160106101000a81548163ffffffff021916908363ffffffff16021790555060a08201518160000160146101000a81548163ffffffff021916908363ffffffff160217905550505050505060036040518060e001604052806040518060400160405280600681526020017f446f6472696f00000000000000000000000000000000000000000000000000008152508152602001605581526020016040518060400160405280600681526020017f4e6f726d616c000000000000000000000000000000000000000000000000000081525081526020016040518060400160405280600681526020017f466c79696e67000000000000000000000000000000000000000000000000000081525081526020016101b881526020016000151581526020016040518060c00160405280603c63ffffffff168152602001606e63ffffffff168152602001604663ffffffff168152602001603c63ffffffff168152602001603c63ffffffff168152602001606463ffffffff16815250815250908060018154018082558091505090600182039060005260206000209060070201600090919290919091506000820151816000019080519060200190630000f7ed929190630001ddf0565b50602082015181600101556040820151816002019080519060200190630000f818929190630001ddf0565b506060820151816003019080519060200190630000f839929190630001ddf0565b506080820151816004015560a08201518160050160006101000a81548160ff02191690831515021790555060c08201518160060160008201518160000160006101000a81548163ffffffff021916908363ffffffff16021790555060208201518160000160046101000a81548163ffffffff021916908363ffffffff16021790555060408201518160000160086101000a81548163ffffffff021916908363ffffffff160217905550606082015181600001600c6101000a81548163ffffffff021916908363ffffffff16021790555060808201518160000160106101000a81548163ffffffff021916908363ffffffff16021790555060a08201518160000160146101000a81548163ffffffff021916908363ffffffff160217905550505050505060036040518060e001604052806040518060400160405280600481526020017f5365656c000000000000000000000000000000000000000000000000000000008152508152602001605681526020016040518060400160405280600581526020017f576174657200000000000000000000000000000000000000000000000000000081525081526020016040518060400160405280600381526020017f6e616e0000000000000000000000000000000000000000000000000000000000815250815260200161023f81526020016000151581526020016040518060c00160405280604163ffffffff168152602001602d63ffffffff168152602001603763ffffffff168152602001602d63ffffffff168152602001604663ffffffff168152602001602d63ffffffff16815250815250908060018154018082558091505090600182039060005260206000209060070201600090919290919091506000820151816000019080519060200190630000fad7929190630001ddf0565b50602082015181600101556040820151816002019080519060200190630000fb02929190630001ddf0565b506060820151816003019080519060200190630000fb23929190630001ddf0565b506080820151816004015560a08201518160050160006101000a81548160ff02191690831515021790555060c08201518160060160008201518160000160006101000a81548163ffffffff021916908363ffffffff16021790555060208201518160000160046101000a81548163ffffffff021916908363ffffffff16021790555060408201518160000160086101000a81548163ffffffff021916908363ffffffff160217905550606082015181600001600c6101000a81548163ffffffff021916908363ffffffff16021790555060808201518160000160106101000a81548163ffffffff021916908363ffffffff16021790555060a08201518160000160146101000a81548163ffffffff021916908363ffffffff160217905550505050505060036040518060e001604052806040518060400160405280600781526020017f446577676f6e67000000000000000000000000000000000000000000000000008152508152602001605781526020016040518060400160405280600581526020017f576174657200000000000000000000000000000000000000000000000000000081525081526020016040518060400160405280600381526020017f496365000000000000000000000000000000000000000000000000000000000081525081526020016101a981526020016000151581526020016040518060c00160405280605a63ffffffff168152602001604663ffffffff168152602001605063ffffffff168152602001604663ffffffff168152602001605f63ffffffff168152602001604663ffffffff16815250815250908060018154018082558091505090600182039060005260206000209060070201600090919290919091506000820151816000019080519060200190630000fdc1929190630001ddf0565b50602082015181600101556040820151816002019080519060200190630000fdec929190630001ddf0565b506060820151816003019080519060200190630000fe0d929190630001ddf0565b506080820151816004015560a08201518160050160006101000a81548160ff02191690831515021790555060c08201518160060160008201518160000160006101000a81548163ffffffff021916908363ffffffff16021790555060208201518160000160046101000a81548163ffffffff021916908363ffffffff16021790555060408201518160000160086101000a81548163ffffffff021916908363ffffffff160217905550606082015181600001600c6101000a81548163ffffffff021916908363ffffffff16021790555060808201518160000160106101000a81548163ffffffff021916908363ffffffff16021790555060a08201518160000160146101000a81548163ffffffff021916908363ffffffff160217905550505050505060036040518060e001604052806040518060400160405280600681526020017f4772696d657200000000000000000000000000000000000000000000000000008152508152602001605881526020016040518060400160405280600681526020017f506f69736f6e000000000000000000000000000000000000000000000000000081525081526020016040518060400160405280600381526020017f6e616e0000000000000000000000000000000000000000000000000000000000815250815260200161023f81526020016000151581526020016040518060c00160405280605063ffffffff168152602001605063ffffffff168152602001603263ffffffff168152602001602863ffffffff168152602001603263ffffffff168152602001601963ffffffff1681525081525090806001815401808255809150509060018203906000526020600020906007020160009091929091909150600082015181600001908051906020019063000100ab929190630001ddf0565b5060208201518160010155604082015181600201908051906020019063000100d6929190630001ddf0565b50606082015181600301908051906020019063000100f7929190630001ddf0565b506080820151816004015560a08201518160050160006101000a81548160ff02191690831515021790555060c08201518160060160008201518160000160006101000a81548163ffffffff021916908363ffffffff16021790555060208201518160000160046101000a81548163ffffffff021916908363ffffffff16021790555060408201518160000160086101000a81548163ffffffff021916908363ffffffff160217905550606082015181600001600c6101000a81548163ffffffff021916908363ffffffff16021790555060808201518160000160106101000a81548163ffffffff021916908363ffffffff16021790555060a08201518160000160146101000a81548163ffffffff021916908363ffffffff160217905550505050505060036040518060e001604052806040518060400160405280600381526020017f4d756b00000000000000000000000000000000000000000000000000000000008152508152602001605981526020016040518060400160405280600681526020017f506f69736f6e000000000000000000000000000000000000000000000000000081525081526020016040518060400160405280600381526020017f6e616e0000000000000000000000000000000000000000000000000000000000815250815260200161019081526020016000151581526020016040518060c00160405280606963ffffffff168152602001606963ffffffff168152602001604b63ffffffff168152602001604163ffffffff168152602001606463ffffffff168152602001603263ffffffff168152508152509080600181540180825580915050906001820390600052602060002090600702016000909192909190915060008201518160000190805190602001906300010395929190630001ddf0565b5060208201518160010155604082015181600201908051906020019063000103c0929190630001ddf0565b50606082015181600301908051906020019063000103e1929190630001ddf0565b506080820151816004015560a08201518160050160006101000a81548160ff02191690831515021790555060c08201518160060160008201518160000160006101000a81548163ffffffff021916908363ffffffff16021790555060208201518160000160046101000a81548163ffffffff021916908363ffffffff16021790555060408201518160000160086101000a81548163ffffffff021916908363ffffffff160217905550606082015181600001600c6101000a81548163ffffffff021916908363ffffffff16021790555060808201518160000160106101000a81548163ffffffff021916908363ffffffff16021790555060a08201518160000160146101000a81548163ffffffff021916908363ffffffff160217905550505050505060036040518060e001604052806040518060400160405280600881526020017f5368656c6c6465720000000000000000000000000000000000000000000000008152508152602001605a81526020016040518060400160405280600581526020017f576174657200000000000000000000000000000000000000000000000000000081525081526020016040518060400160405280600381526020017f6e616e0000000000000000000000000000000000000000000000000000000000815250815260200161025381526020016000151581526020016040518060c00160405280601e63ffffffff168152602001604163ffffffff168152602001606463ffffffff168152602001602d63ffffffff168152602001601963ffffffff168152602001602863ffffffff16815250815250908060018154018082558091505090600182039060005260206000209060070201600090919290919091506000820151816000019080519060200190630001067f929190630001ddf0565b5060208201518160010155604082015181600201908051906020019063000106aa929190630001ddf0565b50606082015181600301908051906020019063000106cb929190630001ddf0565b506080820151816004015560a08201518160050160006101000a81548160ff02191690831515021790555060c08201518160060160008201518160000160006101000a81548163ffffffff021916908363ffffffff16021790555060208201518160000160046101000a81548163ffffffff021916908363ffffffff16021790555060408201518160000160086101000a81548163ffffffff021916908363ffffffff160217905550606082015181600001600c6101000a81548163ffffffff021916908363ffffffff16021790555060808201518160000160106101000a81548163ffffffff021916908363ffffffff16021790555060a08201518160000160146101000a81548163ffffffff021916908363ffffffff160217905550505050505060036040518060e001604052806040518060400160405280600881526020017f436c6f79737465720000000000000000000000000000000000000000000000008152508152602001605b81526020016040518060400160405280600581526020017f576174657200000000000000000000000000000000000000000000000000000081525081526020016040518060400160405280600381526020017f4963650000000000000000000000000000000000000000000000000000000000815250815260200161017781526020016000151581526020016040518060c00160405280603263ffffffff168152602001605f63ffffffff16815260200160b463ffffffff168152602001605563ffffffff168152602001602d63ffffffff168152602001604663ffffffff168152508152509080600181540180825580915050906001820390600052602060002090600702016000909192909190915060008201518160000190805190602001906300010969929190630001ddf0565b506020820151816001015560408201518160020190805190602001906300010994929190630001ddf0565b50606082015181600301908051906020019063000109b5929190630001ddf0565b506080820151816004015560a08201518160050160006101000a81548160ff02191690831515021790555060c08201518160060160008201518160000160006101000a81548163ffffffff021916908363ffffffff16021790555060208201518160000160046101000a81548163ffffffff021916908363ffffffff16021790555060408201518160000160086101000a81548163ffffffff021916908363ffffffff160217905550606082015181600001600c6101000a81548163ffffffff021916908363ffffffff16021790555060808201518160000160106101000a81548163ffffffff021916908363ffffffff16021790555060a08201518160000160146101000a81548163ffffffff021916908363ffffffff160217905550505050505060036040518060e001604052806040518060400160405280600681526020017f476173746c7900000000000000000000000000000000000000000000000000008152508152602001605c81526020016040518060400160405280600581526020017f47686f737400000000000000000000000000000000000000000000000000000081525081526020016040518060400160405280600681526020017f506f69736f6e0000000000000000000000000000000000000000000000000000815250815260200161024e81526020016000151581526020016040518060c00160405280601e63ffffffff168152602001602363ffffffff168152602001601e63ffffffff168152602001606463ffffffff168152602001602363ffffffff168152602001605063ffffffff168152508152509080600181540180825580915050906001820390600052602060002090600702016000909192909190915060008201518160000190805190602001906300010c53929190630001ddf0565b506020820151816001015560408201518160020190805190602001906300010c7e929190630001ddf0565b5060608201518160030190805190602001906300010c9f929190630001ddf0565b506080820151816004015560a08201518160050160006101000a81548160ff02191690831515021790555060c08201518160060160008201518160000160006101000a81548163ffffffff021916908363ffffffff16021790555060208201518160000160046101000a81548163ffffffff021916908363ffffffff16021790555060408201518160000160086101000a81548163ffffffff021916908363ffffffff160217905550606082015181600001600c6101000a81548163ffffffff021916908363ffffffff16021790555060808201518160000160106101000a81548163ffffffff021916908363ffffffff16021790555060a08201518160000160146101000a81548163ffffffff021916908363ffffffff160217905550505050505060036040518060e001604052806040518060400160405280600781526020017f4861756e746572000000000000000000000000000000000000000000000000008152508152602001605d81526020016040518060400160405280600581526020017f47686f737400000000000000000000000000000000000000000000000000000081525081526020016040518060400160405280600681526020017f506f69736f6e000000000000000000000000000000000000000000000000000081525081526020016101ef81526020016000151581526020016040518060c00160405280602d63ffffffff168152602001603263ffffffff168152602001602d63ffffffff168152602001607363ffffffff168152602001603763ffffffff168152602001605f63ffffffff168152508152509080600181540180825580915050906001820390600052602060002090600702016000909192909190915060008201518160000190805190602001906300010f3d929190630001ddf0565b506020820151816001015560408201518160020190805190602001906300010f68929190630001ddf0565b5060608201518160030190805190602001906300010f89929190630001ddf0565b506080820151816004015560a08201518160050160006101000a81548160ff02191690831515021790555060c08201518160060160008201518160000160006101000a81548163ffffffff021916908363ffffffff16021790555060208201518160000160046101000a81548163ffffffff021916908363ffffffff16021790555060408201518160000160086101000a81548163ffffffff021916908363ffffffff160217905550606082015181600001600c6101000a81548163ffffffff021916908363ffffffff16021790555060808201518160000160106101000a81548163ffffffff021916908363ffffffff16021790555060a08201518160000160146101000a81548163ffffffff021916908363ffffffff160217905550505050505060036040518060e001604052806040518060400160405280600681526020017f47656e67617200000000000000000000000000000000000000000000000000008152508152602001605e81526020016040518060400160405280600581526020017f47686f737400000000000000000000000000000000000000000000000000000081525081526020016040518060400160405280600681526020017f506f69736f6e0000000000000000000000000000000000000000000000000000815250815260200161019081526020016000151581526020016040518060c00160405280603c63ffffffff168152602001604163ffffffff168152602001603c63ffffffff168152602001608263ffffffff168152602001604b63ffffffff168152602001606e63ffffffff168152508152509080600181540180825580915050906001820390600052602060002090600702016000909192909190915060008201518160000190805190602001906300011227929190630001ddf0565b506020820151816001015560408201518160020190805190602001906300011252929190630001ddf0565b5060608201518160030190805190602001906300011273929190630001ddf0565b506080820151816004015560a08201518160050160006101000a81548160ff02191690831515021790555060c08201518160060160008201518160000160006101000a81548163ffffffff021916908363ffffffff16021790555060208201518160000160046101000a81548163ffffffff021916908363ffffffff16021790555060408201518160000160086101000a81548163ffffffff021916908363ffffffff160217905550606082015181600001600c6101000a81548163ffffffff021916908363ffffffff16021790555060808201518160000160106101000a81548163ffffffff021916908363ffffffff16021790555060a08201518160000160146101000a81548163ffffffff021916908363ffffffff160217905550505050505060036040518060e001604052806040518060400160405280600481526020017f4f6e6978000000000000000000000000000000000000000000000000000000008152508152602001605f81526020016040518060400160405280600481526020017f526f636b0000000000000000000000000000000000000000000000000000000081525081526020016040518060400160405280600681526020017f47726f756e640000000000000000000000000000000000000000000000000000815250815260200161020381526020016000151581526020016040518060c00160405280602363ffffffff168152602001602d63ffffffff16815260200160a063ffffffff168152602001601e63ffffffff168152602001602d63ffffffff168152602001604663ffffffff168152508152509080600181540180825580915050906001820390600052602060002090600702016000909192909190915060008201518160000190805190602001906300011511929190630001ddf0565b50602082015181600101556040820151816002019080519060200190630001153c929190630001ddf0565b506060820151816003019080519060200190630001155d929190630001ddf0565b506080820151816004015560a08201518160050160006101000a81548160ff02191690831515021790555060c08201518160060160008201518160000160006101000a81548163ffffffff021916908363ffffffff16021790555060208201518160000160046101000a81548163ffffffff021916908363ffffffff16021790555060408201518160000160086101000a81548163ffffffff021916908363ffffffff160217905550606082015181600001600c6101000a81548163ffffffff021916908363ffffffff16021790555060808201518160000160106101000a81548163ffffffff021916908363ffffffff16021790555060a08201518160000160146101000a81548163ffffffff021916908363ffffffff160217905550505050505060036040518060e001604052806040518060400160405280600781526020017f44726f777a6565000000000000000000000000000000000000000000000000008152508152602001606081526020016040518060400160405280600781526020017f507379636869630000000000000000000000000000000000000000000000000081525081526020016040518060400160405280600381526020017f6e616e0000000000000000000000000000000000000000000000000000000000815250815260200161023c81526020016000151581526020016040518060c00160405280603c63ffffffff168152602001603063ffffffff168152602001602d63ffffffff168152602001602b63ffffffff168152602001605a63ffffffff168152602001602a63ffffffff1681525081525090806001815401808255809150509060018203906000526020600020906007020160009091929091909150600082015181600001908051906020019063000117fb929190630001ddf0565b506020820151816001015560408201518160020190805190602001906300011826929190630001ddf0565b5060608201518160030190805190602001906300011847929190630001ddf0565b506080820151816004015560a08201518160050160006101000a81548160ff02191690831515021790555060c08201518160060160008201518160000160006101000a81548163ffffffff021916908363ffffffff16021790555060208201518160000160046101000a81548163ffffffff021916908363ffffffff16021790555060408201518160000160086101000a81548163ffffffff021916908363ffffffff160217905550606082015181600001600c6101000a81548163ffffffff021916908363ffffffff16021790555060808201518160000160106101000a81548163ffffffff021916908363ffffffff16021790555060a08201518160000160146101000a81548163ffffffff021916908363ffffffff160217905550505050505060036040518060e001604052806040518060400160405280600581526020017f4879706e6f0000000000000000000000000000000000000000000000000000008152508152602001606181526020016040518060400160405280600781526020017f507379636869630000000000000000000000000000000000000000000000000081525081526020016040518060400160405280600381526020017f6e616e000000000000000000000000000000000000000000000000000000000081525081526020016101a181526020016000151581526020016040518060c00160405280605563ffffffff168152602001604963ffffffff168152602001604663ffffffff168152602001604963ffffffff168152602001607363ffffffff168152602001604363ffffffff168152508152509080600181540180825580915050906001820390600052602060002090600702016000909192909190915060008201518160000190805190602001906300011ae5929190630001ddf0565b506020820151816001015560408201518160020190805190602001906300011b10929190630001ddf0565b5060608201518160030190805190602001906300011b31929190630001ddf0565b506080820151816004015560a08201518160050160006101000a81548160ff02191690831515021790555060c08201518160060160008201518160000160006101000a81548163ffffffff021916908363ffffffff16021790555060208201518160000160046101000a81548163ffffffff021916908363ffffffff16021790555060408201518160000160086101000a81548163ffffffff021916908363ffffffff160217905550606082015181600001600c6101000a81548163ffffffff021916908363ffffffff16021790555060808201518160000160106101000a81548163ffffffff021916908363ffffffff16021790555060a08201518160000160146101000a81548163ffffffff021916908363ffffffff160217905550505050505060036040518060e001604052806040518060400160405280600681526020017f4b726162627900000000000000000000000000000000000000000000000000008152508152602001606281526020016040518060400160405280600581526020017f576174657200000000000000000000000000000000000000000000000000000081525081526020016040518060400160405280600381526020017f6e616e0000000000000000000000000000000000000000000000000000000000815250815260200161023f81526020016000151581526020016040518060c00160405280601e63ffffffff168152602001606963ffffffff168152602001605a63ffffffff168152602001601963ffffffff168152602001601963ffffffff168152602001603263ffffffff168152508152509080600181540180825580915050906001820390600052602060002090600702016000909192909190915060008201518160000190805190602001906300011dcf929190630001ddf0565b506020820151816001015560408201518160020190805190602001906300011dfa929190630001ddf0565b5060608201518160030190805190602001906300011e1b929190630001ddf0565b506080820151816004015560a08201518160050160006101000a81548160ff02191690831515021790555060c08201518160060160008201518160000160006101000a81548163ffffffff021916908363ffffffff16021790555060208201518160000160046101000a81548163ffffffff021916908363ffffffff16021790555060408201518160000160086101000a81548163ffffffff021916908363ffffffff160217905550606082015181600001600c6101000a81548163ffffffff021916908363ffffffff16021790555060808201518160000160106101000a81548163ffffffff021916908363ffffffff16021790555060a08201518160000160146101000a81548163ffffffff021916908363ffffffff160217905550505050505060036040518060e001604052806040518060400160405280600781526020017f4b696e676c6572000000000000000000000000000000000000000000000000008152508152602001606381526020016040518060400160405280600581526020017f576174657200000000000000000000000000000000000000000000000000000081525081526020016040518060400160405280600381526020017f6e616e000000000000000000000000000000000000000000000000000000000081525081526020016101a981526020016000151581526020016040518060c00160405280603763ffffffff168152602001608263ffffffff168152602001607363ffffffff168152602001603263ffffffff168152602001603263ffffffff168152602001604b63ffffffff1681525081525090806001815401808255809150509060018203906000526020600020906007020160009091929091909150600082015181600001908051906020019063000120b9929190630001ddf0565b5060208201518160010155604082015181600201908051906020019063000120e4929190630001ddf0565b5060608201518160030190805190602001906300012105929190630001ddf0565b506080820151816004015560a08201518160050160006101000a81548160ff02191690831515021790555060c08201518160060160008201518160000160006101000a81548163ffffffff021916908363ffffffff16021790555060208201518160000160046101000a81548163ffffffff021916908363ffffffff16021790555060408201518160000160086101000a81548163ffffffff021916908363ffffffff160217905550606082015181600001600c6101000a81548163ffffffff021916908363ffffffff16021790555060808201518160000160106101000a81548163ffffffff021916908363ffffffff16021790555060a08201518160000160146101000a81548163ffffffff021916908363ffffffff160217905550505050505060036040518060e001604052806040518060400160405280600781526020017f566f6c746f7262000000000000000000000000000000000000000000000000008152508152602001606481526020016040518060400160405280600881526020017f456c65637472696300000000000000000000000000000000000000000000000081525081526020016040518060400160405280600381526020017f6e616e0000000000000000000000000000000000000000000000000000000000815250815260200161023a81526020016000151581526020016040518060c00160405280602863ffffffff168152602001601e63ffffffff168152602001603263ffffffff168152602001603763ffffffff168152602001603763ffffffff168152602001606463ffffffff1681525081525090806001815401808255809150509060018203906000526020600020906007020160009091929091909150600082015181600001908051906020019063000123a3929190630001ddf0565b5060208201518160010155604082015181600201908051906020019063000123ce929190630001ddf0565b50606082015181600301908051906020019063000123ef929190630001ddf0565b506080820151816004015560a08201518160050160006101000a81548160ff02191690831515021790555060c08201518160060160008201518160000160006101000a81548163ffffffff021916908363ffffffff16021790555060208201518160000160046101000a81548163ffffffff021916908363ffffffff16021790555060408201518160000160086101000a81548163ffffffff021916908363ffffffff160217905550606082015181600001600c6101000a81548163ffffffff021916908363ffffffff16021790555060808201518160000160106101000a81548163ffffffff021916908363ffffffff16021790555060a08201518160000160146101000a81548163ffffffff021916908363ffffffff160217905550505050505060036040518060e001604052806040518060400160405280600981526020017f456c656374726f646500000000000000000000000000000000000000000000008152508152602001606581526020016040518060400160405280600881526020017f456c65637472696300000000000000000000000000000000000000000000000081525081526020016040518060400160405280600381526020017f6e616e000000000000000000000000000000000000000000000000000000000081525081526020016101a481526020016000151581526020016040518060c00160405280603c63ffffffff168152602001603263ffffffff168152602001604663ffffffff168152602001605063ffffffff168152602001605063ffffffff168152602001608c63ffffffff16815250815250908060018154018082558091505090600182039060005260206000209060070201600090919290919091506000820151816000019080519060200190630001268d929190630001ddf0565b5060208201518160010155604082015181600201908051906020019063000126b8929190630001ddf0565b50606082015181600301908051906020019063000126d9929190630001ddf0565b506080820151816004015560a08201518160050160006101000a81548160ff02191690831515021790555060c08201518160060160008201518160000160006101000a81548163ffffffff021916908363ffffffff16021790555060208201518160000160046101000a81548163ffffffff021916908363ffffffff16021790555060408201518160000160086101000a81548163ffffffff021916908363ffffffff160217905550606082015181600001600c6101000a81548163ffffffff021916908363ffffffff16021790555060808201518160000160106101000a81548163ffffffff021916908363ffffffff16021790555060a08201518160000160146101000a81548163ffffffff021916908363ffffffff160217905550505050505060036040518060e001604052806040518060400160405280600981526020017f45786567676375746500000000000000000000000000000000000000000000008152508152602001606681526020016040518060400160405280600581526020017f477261737300000000000000000000000000000000000000000000000000000081525081526020016040518060400160405280600781526020017f5073796368696300000000000000000000000000000000000000000000000000815250815260200161023f81526020016000151581526020016040518060c00160405280603c63ffffffff168152602001602863ffffffff168152602001605063ffffffff168152602001603c63ffffffff168152602001602d63ffffffff168152602001602863ffffffff168152508152509080600181540180825580915050906001820390600052602060002090600702016000909192909190915060008201518160000190805190602001906300012977929190630001ddf0565b5060208201518160010155604082015181600201908051906020019063000129a2929190630001ddf0565b50606082015181600301908051906020019063000129c3929190630001ddf0565b506080820151816004015560a08201518160050160006101000a81548160ff02191690831515021790555060c08201518160060160008201518160000160006101000a81548163ffffffff021916908363ffffffff16021790555060208201518160000160046101000a81548163ffffffff021916908363ffffffff16021790555060408201518160000160086101000a81548163ffffffff021916908363ffffffff160217905550606082015181600001600c6101000a81548163ffffffff021916908363ffffffff16021790555060808201518160000160106101000a81548163ffffffff021916908363ffffffff16021790555060a08201518160000160146101000a81548163ffffffff021916908363ffffffff160217905550505050505060036040518060e001604052806040518060400160405280600981526020017f457865676775746f7200000000000000000000000000000000000000000000008152508152602001606781526020016040518060400160405280600581526020017f477261737300000000000000000000000000000000000000000000000000000081525081526020016040518060400160405280600781526020017f5073796368696300000000000000000000000000000000000000000000000000815250815260200161017c81526020016000151581526020016040518060c00160405280605f63ffffffff168152602001605f63ffffffff168152602001605563ffffffff168152602001607d63ffffffff168152602001604163ffffffff168152602001603763ffffffff168152508152509080600181540180825580915050906001820390600052602060002090600702016000909192909190915060008201518160000190805190602001906300012c61929190630001ddf0565b506020820151816001015560408201518160020190805190602001906300012c8c929190630001ddf0565b5060608201518160030190805190602001906300012cad929190630001ddf0565b506080820151816004015560a08201518160050160006101000a81548160ff02191690831515021790555060c08201518160060160008201518160000160006101000a81548163ffffffff021916908363ffffffff16021790555060208201518160000160046101000a81548163ffffffff021916908363ffffffff16021790555060408201518160000160086101000a81548163ffffffff021916908363ffffffff160217905550606082015181600001600c6101000a81548163ffffffff021916908363ffffffff16021790555060808201518160000160106101000a81548163ffffffff021916908363ffffffff16021790555060a08201518160000160146101000a81548163ffffffff021916908363ffffffff160217905550505050505060036040518060e001604052806040518060400160405280600681526020017f4375626f6e6500000000000000000000000000000000000000000000000000008152508152602001606881526020016040518060400160405280600681526020017f47726f756e64000000000000000000000000000000000000000000000000000081525081526020016040518060400160405280600381526020017f6e616e0000000000000000000000000000000000000000000000000000000000815250815260200161024481526020016000151581526020016040518060c00160405280603263ffffffff168152602001603263ffffffff168152602001605f63ffffffff168152602001602863ffffffff168152602001603263ffffffff168152602001602363ffffffff168152508152509080600181540180825580915050906001820390600052602060002090600702016000909192909190915060008201518160000190805190602001906300012f4b929190630001ddf0565b506020820151816001015560408201518160020190805190602001906300012f76929190630001ddf0565b5060608201518160030190805190602001906300012f97929190630001ddf0565b506080820151816004015560a08201518160050160006101000a81548160ff02191690831515021790555060c08201518160060160008201518160000160006101000a81548163ffffffff021916908363ffffffff16021790555060208201518160000160046101000a81548163ffffffff021916908363ffffffff16021790555060408201518160000160086101000a81548163ffffffff021916908363ffffffff160217905550606082015181600001600c6101000a81548163ffffffff021916908363ffffffff16021790555060808201518160000160106101000a81548163ffffffff021916908363ffffffff16021790555060a08201518160000160146101000a81548163ffffffff021916908363ffffffff160217905550505050505060036040518060e001604052806040518060400160405280600781526020017f4d61726f77616b000000000000000000000000000000000000000000000000008152508152602001606981526020016040518060400160405280600681526020017f47726f756e64000000000000000000000000000000000000000000000000000081525081526020016040518060400160405280600381526020017f6e616e000000000000000000000000000000000000000000000000000000000081525081526020016101db81526020016000151581526020016040518060c00160405280603c63ffffffff168152602001605063ffffffff168152602001606e63ffffffff168152602001603263ffffffff168152602001605063ffffffff168152602001602d63ffffffff168152508152509080600181540180825580915050906001820390600052602060002090600702016000909192909190915060008201518160000190805190602001906300013235929190630001ddf0565b506020820151816001015560408201518160020190805190602001906300013260929190630001ddf0565b5060608201518160030190805190602001906300013281929190630001ddf0565b506080820151816004015560a08201518160050160006101000a81548160ff02191690831515021790555060c08201518160060160008201518160000160006101000a81548163ffffffff021916908363ffffffff16021790555060208201518160000160046101000a81548163ffffffff021916908363ffffffff16021790555060408201518160000160086101000a81548163ffffffff021916908363ffffffff160217905550606082015181600001600c6101000a81548163ffffffff021916908363ffffffff16021790555060808201518160000160106101000a81548163ffffffff021916908363ffffffff16021790555060a08201518160000160146101000a81548163ffffffff021916908363ffffffff160217905550505050505060036040518060e001604052806040518060400160405280600981526020017f4869746d6f6e6c656500000000000000000000000000000000000000000000008152508152602001606a81526020016040518060400160405280600881526020017f4669676874696e6700000000000000000000000000000000000000000000000081525081526020016040518060400160405280600381526020017f6e616e000000000000000000000000000000000000000000000000000000000081525081526020016101bd81526020016000151581526020016040518060c00160405280603263ffffffff168152602001607863ffffffff168152602001603563ffffffff168152602001602363ffffffff168152602001606e63ffffffff168152602001605763ffffffff16815250815250908060018154018082558091505090600182039060005260206000209060070201600090919290919091506000820151816000019080519060200190630001351f929190630001ddf0565b50602082015181600101556040820151816002019080519060200190630001354a929190630001ddf0565b506060820151816003019080519060200190630001356b929190630001ddf0565b506080820151816004015560a08201518160050160006101000a81548160ff02191690831515021790555060c08201518160060160008201518160000160006101000a81548163ffffffff021916908363ffffffff16021790555060208201518160000160046101000a81548163ffffffff021916908363ffffffff16021790555060408201518160000160086101000a81548163ffffffff021916908363ffffffff160217905550606082015181600001600c6101000a81548163ffffffff021916908363ffffffff16021790555060808201518160000160106101000a81548163ffffffff021916908363ffffffff16021790555060a08201518160000160146101000a81548163ffffffff021916908363ffffffff160217905550505050505060036040518060e001604052806040518060400160405280600a81526020017f4869746d6f6e6368616e000000000000000000000000000000000000000000008152508152602001606b81526020016040518060400160405280600881526020017f4669676874696e6700000000000000000000000000000000000000000000000081525081526020016040518060400160405280600381526020017f6e616e000000000000000000000000000000000000000000000000000000000081525081526020016101bd81526020016000151581526020016040518060c00160405280603263ffffffff168152602001606963ffffffff168152602001604f63ffffffff168152602001602363ffffffff168152602001606e63ffffffff168152602001604c63ffffffff168152508152509080600181540180825580915050906001820390600052602060002090600702016000909192909190915060008201518160000190805190602001906300013809929190630001ddf0565b506020820151816001015560408201518160020190805190602001906300013834929190630001ddf0565b5060608201518160030190805190602001906300013855929190630001ddf0565b506080820151816004015560a08201518160050160006101000a81548160ff02191690831515021790555060c08201518160060160008201518160000160006101000a81548163ffffffff021916908363ffffffff16021790555060208201518160000160046101000a81548163ffffffff021916908363ffffffff16021790555060408201518160000160086101000a81548163ffffffff021916908363ffffffff160217905550606082015181600001600c6101000a81548163ffffffff021916908363ffffffff16021790555060808201518160000160106101000a81548163ffffffff021916908363ffffffff16021790555060a08201518160000160146101000a81548163ffffffff021916908363ffffffff160217905550505050505060036040518060e001604052806040518060400160405280600981526020017f4c69636b6974756e6700000000000000000000000000000000000000000000008152508152602001606c81526020016040518060400160405280600681526020017f4e6f726d616c000000000000000000000000000000000000000000000000000081525081526020016040518060400160405280600381526020017f6e616e0000000000000000000000000000000000000000000000000000000000815250815260200161020381526020016000151581526020016040518060c00160405280605a63ffffffff168152602001603763ffffffff168152602001604b63ffffffff168152602001603c63ffffffff168152602001604b63ffffffff168152602001601e63ffffffff168152508152509080600181540180825580915050906001820390600052602060002090600702016000909192909190915060008201518160000190805190602001906300013af3929190630001ddf0565b506020820151816001015560408201518160020190805190602001906300013b1e929190630001ddf0565b5060608201518160030190805190602001906300013b3f929190630001ddf0565b506080820151816004015560a08201518160050160006101000a81548160ff02191690831515021790555060c08201518160060160008201518160000160006101000a81548163ffffffff021916908363ffffffff16021790555060208201518160000160046101000a81548163ffffffff021916908363ffffffff16021790555060408201518160000160086101000a81548163ffffffff021916908363ffffffff160217905550606082015181600001600c6101000a81548163ffffffff021916908363ffffffff16021790555060808201518160000160106101000a81548163ffffffff021916908363ffffffff16021790555060a08201518160000160146101000a81548163ffffffff021916908363ffffffff160217905550505050505060036040518060e001604052806040518060400160405280600781526020017f4b6f6666696e67000000000000000000000000000000000000000000000000008152508152602001606d81526020016040518060400160405280600681526020017f506f69736f6e000000000000000000000000000000000000000000000000000081525081526020016040518060400160405280600381526020017f6e616e0000000000000000000000000000000000000000000000000000000000815250815260200161023081526020016000151581526020016040518060c00160405280602863ffffffff168152602001604163ffffffff168152602001605f63ffffffff168152602001603c63ffffffff168152602001602d63ffffffff168152602001602363ffffffff168152508152509080600181540180825580915050906001820390600052602060002090600702016000909192909190915060008201518160000190805190602001906300013ddd929190630001ddf0565b506020820151816001015560408201518160020190805190602001906300013e08929190630001ddf0565b5060608201518160030190805190602001906300013e29929190630001ddf0565b506080820151816004015560a08201518160050160006101000a81548160ff02191690831515021790555060c08201518160060160008201518160000160006101000a81548163ffffffff021916908363ffffffff16021790555060208201518160000160046101000a81548163ffffffff021916908363ffffffff16021790555060408201518160000160086101000a81548163ffffffff021916908363ffffffff160217905550606082015181600001600c6101000a81548163ffffffff021916908363ffffffff16021790555060808201518160000160106101000a81548163ffffffff021916908363ffffffff16021790555060a08201518160000160146101000a81548163ffffffff021916908363ffffffff160217905550505050505060036040518060e001604052806040518060400160405280600781526020017f5765657a696e67000000000000000000000000000000000000000000000000008152508152602001606e81526020016040518060400160405280600681526020017f506f69736f6e000000000000000000000000000000000000000000000000000081525081526020016040518060400160405280600381526020017f6e616e0000000000000000000000000000000000000000000000000000000000815250815260200161019a81526020016000151581526020016040518060c00160405280604163ffffffff168152602001605a63ffffffff168152602001607863ffffffff168152602001605563ffffffff168152602001604663ffffffff168152602001603c63ffffffff1681525081525090806001815401808255809150509060018203906000526020600020906007020160009091929091909150600082015181600001908051906020019063000140c7929190630001ddf0565b5060208201518160010155604082015181600201908051906020019063000140f2929190630001ddf0565b5060608201518160030190805190602001906300014113929190630001ddf0565b506080820151816004015560a08201518160050160006101000a81548160ff02191690831515021790555060c08201518160060160008201518160000160006101000a81548163ffffffff021916908363ffffffff16021790555060208201518160000160046101000a81548163ffffffff021916908363ffffffff16021790555060408201518160000160086101000a81548163ffffffff021916908363ffffffff160217905550606082015181600001600c6101000a81548163ffffffff021916908363ffffffff16021790555060808201518160000160106101000a81548163ffffffff021916908363ffffffff16021790555060a08201518160000160146101000a81548163ffffffff021916908363ffffffff160217905550505050505060036040518060e001604052806040518060400160405280600781526020017f526879686f726e000000000000000000000000000000000000000000000000008152508152602001606f81526020016040518060400160405280600681526020017f47726f756e64000000000000000000000000000000000000000000000000000081525081526020016040518060400160405280600481526020017f526f636b00000000000000000000000000000000000000000000000000000000815250815260200161022b81526020016000151581526020016040518060c00160405280605063ffffffff168152602001605563ffffffff168152602001605f63ffffffff168152602001601e63ffffffff168152602001601e63ffffffff168152602001601963ffffffff1681525081525090806001815401808255809150509060018203906000526020600020906007020160009091929091909150600082015181600001908051906020019063000143b1929190630001ddf0565b5060208201518160010155604082015181600201908051906020019063000143dc929190630001ddf0565b50606082015181600301908051906020019063000143fd929190630001ddf0565b506080820151816004015560a08201518160050160006101000a81548160ff02191690831515021790555060c08201518160060160008201518160000160006101000a81548163ffffffff021916908363ffffffff16021790555060208201518160000160046101000a81548163ffffffff021916908363ffffffff16021790555060408201518160000160086101000a81548163ffffffff021916908363ffffffff160217905550606082015181600001600c6101000a81548163ffffffff021916908363ffffffff16021790555060808201518160000160106101000a81548163ffffffff021916908363ffffffff16021790555060a08201518160000160146101000a81548163ffffffff021916908363ffffffff160217905550505050505060036040518060e001604052806040518060400160405280600681526020017f526879646f6e00000000000000000000000000000000000000000000000000008152508152602001607081526020016040518060400160405280600681526020017f47726f756e64000000000000000000000000000000000000000000000000000081525081526020016040518060400160405280600481526020017f526f636b00000000000000000000000000000000000000000000000000000000815250815260200161019f81526020016000151581526020016040518060c00160405280606963ffffffff168152602001608263ffffffff168152602001607863ffffffff168152602001602d63ffffffff168152602001602d63ffffffff168152602001602863ffffffff16815250815250908060018154018082558091505090600182039060005260206000209060070201600090919290919091506000820151816000019080519060200190630001469b929190630001ddf0565b5060208201518160010155604082015181600201908051906020019063000146c6929190630001ddf0565b50606082015181600301908051906020019063000146e7929190630001ddf0565b506080820151816004015560a08201518160050160006101000a81548160ff02191690831515021790555060c08201518160060160008201518160000160006101000a81548163ffffffff021916908363ffffffff16021790555060208201518160000160046101000a81548163ffffffff021916908363ffffffff16021790555060408201518160000160086101000a81548163ffffffff021916908363ffffffff160217905550606082015181600001600c6101000a81548163ffffffff021916908363ffffffff16021790555060808201518160000160106101000a81548163ffffffff021916908363ffffffff16021790555060a08201518160000160146101000a81548163ffffffff021916908363ffffffff160217905550505050505060036040518060e001604052806040518060400160405280600781526020017f4368616e736579000000000000000000000000000000000000000000000000008152508152602001607181526020016040518060400160405280600681526020017f4e6f726d616c000000000000000000000000000000000000000000000000000081525081526020016040518060400160405280600381526020017f6e616e000000000000000000000000000000000000000000000000000000000081525081526020016101c281526020016000151581526020016040518060c0016040528060fa63ffffffff168152602001600563ffffffff168152602001600563ffffffff168152602001602363ffffffff168152602001606963ffffffff168152602001603263ffffffff168152508152509080600181540180825580915050906001820390600052602060002090600702016000909192909190915060008201518160000190805190602001906300014985929190630001ddf0565b5060208201518160010155604082015181600201908051906020019063000149b0929190630001ddf0565b50606082015181600301908051906020019063000149d1929190630001ddf0565b506080820151816004015560a08201518160050160006101000a81548160ff02191690831515021790555060c08201518160060160008201518160000160006101000a81548163ffffffff021916908363ffffffff16021790555060208201518160000160046101000a81548163ffffffff021916908363ffffffff16021790555060408201518160000160086101000a81548163ffffffff021916908363ffffffff160217905550606082015181600001600c6101000a81548163ffffffff021916908363ffffffff16021790555060808201518160000160106101000a81548163ffffffff021916908363ffffffff16021790555060a08201518160000160146101000a81548163ffffffff021916908363ffffffff160217905550505050505060036040518060e001604052806040518060400160405280600781526020017f54616e67656c61000000000000000000000000000000000000000000000000008152508152602001607281526020016040518060400160405280600581526020017f477261737300000000000000000000000000000000000000000000000000000081525081526020016040518060400160405280600381526020017f6e616e000000000000000000000000000000000000000000000000000000000081525081526020016101d181526020016000151581526020016040518060c00160405280604163ffffffff168152602001603763ffffffff168152602001607363ffffffff168152602001606463ffffffff168152602001602863ffffffff168152602001603c63ffffffff168152508152509080600181540180825580915050906001820390600052602060002090600702016000909192909190915060008201518160000190805190602001906300014c6f929190630001ddf0565b506020820151816001015560408201518160020190805190602001906300014c9a929190630001ddf0565b5060608201518160030190805190602001906300014cbb929190630001ddf0565b506080820151816004015560a08201518160050160006101000a81548160ff02191690831515021790555060c08201518160060160008201518160000160006101000a81548163ffffffff021916908363ffffffff16021790555060208201518160000160046101000a81548163ffffffff021916908363ffffffff16021790555060408201518160000160086101000a81548163ffffffff021916908363ffffffff160217905550606082015181600001600c6101000a81548163ffffffff021916908363ffffffff16021790555060808201518160000160106101000a81548163ffffffff021916908363ffffffff16021790555060a08201518160000160146101000a81548163ffffffff021916908363ffffffff160217905550505050505060036040518060e001604052806040518060400160405280600a81526020017f4b616e6761736b68616e000000000000000000000000000000000000000000008152508152602001607381526020016040518060400160405280600681526020017f4e6f726d616c000000000000000000000000000000000000000000000000000081525081526020016040518060400160405280600381526020017f6e616e0000000000000000000000000000000000000000000000000000000000815250815260200161019a81526020016000151581526020016040518060c00160405280606963ffffffff168152602001605f63ffffffff168152602001605063ffffffff168152602001602863ffffffff168152602001605063ffffffff168152602001605a63ffffffff168152508152509080600181540180825580915050906001820390600052602060002090600702016000909192909190915060008201518160000190805190602001906300014f59929190630001ddf0565b506020820151816001015560408201518160020190805190602001906300014f84929190630001ddf0565b5060608201518160030190805190602001906300014fa5929190630001ddf0565b506080820151816004015560a08201518160050160006101000a81548160ff02191690831515021790555060c08201518160060160008201518160000160006101000a81548163ffffffff021916908363ffffffff16021790555060208201518160000160046101000a81548163ffffffff021916908363ffffffff16021790555060408201518160000160086101000a81548163ffffffff021916908363ffffffff160217905550606082015181600001600c6101000a81548163ffffffff021916908363ffffffff16021790555060808201518160000160106101000a81548163ffffffff021916908363ffffffff16021790555060a08201518160000160146101000a81548163ffffffff021916908363ffffffff160217905550505050505060036040518060e001604052806040518060400160405280600681526020017f486f7273656100000000000000000000000000000000000000000000000000008152508152602001607481526020016040518060400160405280600581526020017f576174657200000000000000000000000000000000000000000000000000000081525081526020016040518060400160405280600381526020017f6e616e0000000000000000000000000000000000000000000000000000000000815250815260200161025d81526020016000151581526020016040518060c00160405280601e63ffffffff168152602001602863ffffffff168152602001604663ffffffff168152602001604663ffffffff168152602001601963ffffffff168152602001603c63ffffffff168152508152509080600181540180825580915050906001820390600052602060002090600702016000909192909190915060008201518160000190805190602001906300015243929190630001ddf0565b50602082015181600101556040820151816002019080519060200190630001526e929190630001ddf0565b506060820151816003019080519060200190630001528f929190630001ddf0565b506080820151816004015560a08201518160050160006101000a81548160ff02191690831515021790555060c08201518160060160008201518160000160006101000a81548163ffffffff021916908363ffffffff16021790555060208201518160000160046101000a81548163ffffffff021916908363ffffffff16021790555060408201518160000160086101000a81548163ffffffff021916908363ffffffff160217905550606082015181600001600c6101000a81548163ffffffff021916908363ffffffff16021790555060808201518160000160106101000a81548163ffffffff021916908363ffffffff16021790555060a08201518160000160146101000a81548163ffffffff021916908363ffffffff160217905550505050505060036040518060e001604052806040518060400160405280600681526020017f53656164726100000000000000000000000000000000000000000000000000008152508152602001607581526020016040518060400160405280600581526020017f576174657200000000000000000000000000000000000000000000000000000081525081526020016040518060400160405280600381526020017f6e616e000000000000000000000000000000000000000000000000000000000081525081526020016101cc81526020016000151581526020016040518060c00160405280603763ffffffff168152602001604163ffffffff168152602001605f63ffffffff168152602001605f63ffffffff168152602001602d63ffffffff168152602001605563ffffffff16815250815250908060018154018082558091505090600182039060005260206000209060070201600090919290919091506000820151816000019080519060200190630001552d929190630001ddf0565b506020820151816001015560408201518160020190805190602001906300015558929190630001ddf0565b5060608201518160030190805190602001906300015579929190630001ddf0565b506080820151816004015560a08201518160050160006101000a81548160ff02191690831515021790555060c08201518160060160008201518160000160006101000a81548163ffffffff021916908363ffffffff16021790555060208201518160000160046101000a81548163ffffffff021916908363ffffffff16021790555060408201518160000160086101000a81548163ffffffff021916908363ffffffff160217905550606082015181600001600c6101000a81548163ffffffff021916908363ffffffff16021790555060808201518160000160106101000a81548163ffffffff021916908363ffffffff16021790555060a08201518160000160146101000a81548163ffffffff021916908363ffffffff160217905550505050505060036040518060e001604052806040518060400160405280600781526020017f476f6c6465656e000000000000000000000000000000000000000000000000008152508152602001607681526020016040518060400160405280600581526020017f576174657200000000000000000000000000000000000000000000000000000081525081526020016040518060400160405280600381526020017f6e616e0000000000000000000000000000000000000000000000000000000000815250815260200161024481526020016000151581526020016040518060c00160405280602d63ffffffff168152602001604363ffffffff168152602001603c63ffffffff168152602001602363ffffffff168152602001603263ffffffff168152602001603f63ffffffff168152508152509080600181540180825580915050906001820390600052602060002090600702016000909192909190915060008201518160000190805190602001906300015817929190630001ddf0565b506020820151816001015560408201518160020190805190602001906300015842929190630001ddf0565b5060608201518160030190805190602001906300015863929190630001ddf0565b506080820151816004015560a08201518160050160006101000a81548160ff02191690831515021790555060c08201518160060160008201518160000160006101000a81548163ffffffff021916908363ffffffff16021790555060208201518160000160046101000a81548163ffffffff021916908363ffffffff16021790555060408201518160000160086101000a81548163ffffffff021916908363ffffffff160217905550606082015181600001600c6101000a81548163ffffffff021916908363ffffffff16021790555060808201518160000160106101000a81548163ffffffff021916908363ffffffff16021790555060a08201518160000160146101000a81548163ffffffff021916908363ffffffff160217905550505050505060036040518060e001604052806040518060400160405280600781526020017f5365616b696e67000000000000000000000000000000000000000000000000008152508152602001607781526020016040518060400160405280600581526020017f576174657200000000000000000000000000000000000000000000000000000081525081526020016040518060400160405280600381526020017f6e616e000000000000000000000000000000000000000000000000000000000081525081526020016101c281526020016000151581526020016040518060c00160405280605063ffffffff168152602001605c63ffffffff168152602001604163ffffffff168152602001604163ffffffff168152602001605063ffffffff168152602001604463ffffffff168152508152509080600181540180825580915050906001820390600052602060002090600702016000909192909190915060008201518160000190805190602001906300015b01929190630001ddf0565b506020820151816001015560408201518160020190805190602001906300015b2c929190630001ddf0565b5060608201518160030190805190602001906300015b4d929190630001ddf0565b506080820151816004015560a08201518160050160006101000a81548160ff02191690831515021790555060c08201518160060160008201518160000160006101000a81548163ffffffff021916908363ffffffff16021790555060208201518160000160046101000a81548163ffffffff021916908363ffffffff16021790555060408201518160000160086101000a81548163ffffffff021916908363ffffffff160217905550606082015181600001600c6101000a81548163ffffffff021916908363ffffffff16021790555060808201518160000160106101000a81548163ffffffff021916908363ffffffff16021790555060a08201518160000160146101000a81548163ffffffff021916908363ffffffff160217905550505050505060036040518060e001604052806040518060400160405280600681526020017f53746172797500000000000000000000000000000000000000000000000000008152508152602001607881526020016040518060400160405280600581526020017f576174657200000000000000000000000000000000000000000000000000000081525081526020016040518060400160405280600381526020017f6e616e0000000000000000000000000000000000000000000000000000000000815250815260200161023081526020016000151581526020016040518060c00160405280601e63ffffffff168152602001602d63ffffffff168152602001603763ffffffff168152602001604663ffffffff168152602001603763ffffffff168152602001605563ffffffff168152508152509080600181540180825580915050906001820390600052602060002090600702016000909192909190915060008201518160000190805190602001906300015deb929190630001ddf0565b506020820151816001015560408201518160020190805190602001906300015e16929190630001ddf0565b5060608201518160030190805190602001906300015e37929190630001ddf0565b506080820151816004015560a08201518160050160006101000a81548160ff02191690831515021790555060c08201518160060160008201518160000160006101000a81548163ffffffff021916908363ffffffff16021790555060208201518160000160046101000a81548163ffffffff021916908363ffffffff16021790555060408201518160000160086101000a81548163ffffffff021916908363ffffffff160217905550606082015181600001600c6101000a81548163ffffffff021916908363ffffffff16021790555060808201518160000160106101000a81548163ffffffff021916908363ffffffff16021790555060a08201518160000160146101000a81548163ffffffff021916908363ffffffff160217905550505050505060036040518060e001604052806040518060400160405280600781526020017f537461726d6965000000000000000000000000000000000000000000000000008152508152602001607981526020016040518060400160405280600581526020017f576174657200000000000000000000000000000000000000000000000000000081525081526020016040518060400160405280600781526020017f5073796368696300000000000000000000000000000000000000000000000000815250815260200161017c81526020016000151581526020016040518060c00160405280603c63ffffffff168152602001604b63ffffffff168152602001605563ffffffff168152602001606463ffffffff168152602001605563ffffffff168152602001607363ffffffff1681525081525090806001815401808255809150509060018203906000526020600020906007020160009091929091909150600082015181600001908051906020019063000160d5929190630001ddf0565b506020820151816001015560408201518160020190805190602001906300016100929190630001ddf0565b5060608201518160030190805190602001906300016121929190630001ddf0565b506080820151816004015560a08201518160050160006101000a81548160ff02191690831515021790555060c08201518160060160008201518160000160006101000a81548163ffffffff021916908363ffffffff16021790555060208201518160000160046101000a81548163ffffffff021916908363ffffffff16021790555060408201518160000160086101000a81548163ffffffff021916908363ffffffff160217905550606082015181600001600c6101000a81548163ffffffff021916908363ffffffff16021790555060808201518160000160106101000a81548163ffffffff021916908363ffffffff16021790555060a08201518160000160146101000a81548163ffffffff021916908363ffffffff160217905550505050505060036040518060e001604052806040518060400160405280600881526020017f4d722e204d696d650000000000000000000000000000000000000000000000008152508152602001607a81526020016040518060400160405280600781526020017f507379636869630000000000000000000000000000000000000000000000000081525081526020016040518060400160405280600581526020017f466169727900000000000000000000000000000000000000000000000000000081525081526020016101b881526020016000151581526020016040518060c00160405280602863ffffffff168152602001602d63ffffffff168152602001604163ffffffff168152602001606463ffffffff168152602001607863ffffffff168152602001605a63ffffffff1681525081525090806001815401808255809150509060018203906000526020600020906007020160009091929091909150600082015181600001908051906020019063000163bf929190630001ddf0565b5060208201518160010155604082015181600201908051906020019063000163ea929190630001ddf0565b506060820151816003019080519060200190630001640b929190630001ddf0565b506080820151816004015560a08201518160050160006101000a81548160ff02191690831515021790555060c08201518160060160008201518160000160006101000a81548163ffffffff021916908363ffffffff16021790555060208201518160000160046101000a81548163ffffffff021916908363ffffffff16021790555060408201518160000160086101000a81548163ffffffff021916908363ffffffff160217905550606082015181600001600c6101000a81548163ffffffff021916908363ffffffff16021790555060808201518160000160106101000a81548163ffffffff021916908363ffffffff16021790555060a08201518160000160146101000a81548163ffffffff021916908363ffffffff160217905550505050505060036040518060e001604052806040518060400160405280600781526020017f53637974686572000000000000000000000000000000000000000000000000008152508152602001607b81526020016040518060400160405280600381526020017f427567000000000000000000000000000000000000000000000000000000000081525081526020016040518060400160405280600681526020017f466c79696e670000000000000000000000000000000000000000000000000000815250815260200161019081526020016000151581526020016040518060c00160405280604663ffffffff168152602001606e63ffffffff168152602001605063ffffffff168152602001603763ffffffff168152602001605063ffffffff168152602001606963ffffffff1681525081525090806001815401808255809150509060018203906000526020600020906007020160009091929091909150600082015181600001908051906020019063000166a9929190630001ddf0565b5060208201518160010155604082015181600201908051906020019063000166d4929190630001ddf0565b50606082015181600301908051906020019063000166f5929190630001ddf0565b506080820151816004015560a08201518160050160006101000a81548160ff02191690831515021790555060c08201518160060160008201518160000160006101000a81548163ffffffff021916908363ffffffff16021790555060208201518160000160046101000a81548163ffffffff021916908363ffffffff16021790555060408201518160000160086101000a81548163ffffffff021916908363ffffffff160217905550606082015181600001600c6101000a81548163ffffffff021916908363ffffffff16021790555060808201518160000160106101000a81548163ffffffff021916908363ffffffff16021790555060a08201518160000160146101000a81548163ffffffff021916908363ffffffff160217905550505050505060036040518060e001604052806040518060400160405280600481526020017f4a796e78000000000000000000000000000000000000000000000000000000008152508152602001607c81526020016040518060400160405280600381526020017f496365000000000000000000000000000000000000000000000000000000000081525081526020016040518060400160405280600781526020017f507379636869630000000000000000000000000000000000000000000000000081525081526020016101bd81526020016000151581526020016040518060c00160405280604163ffffffff168152602001603263ffffffff168152602001602363ffffffff168152602001607363ffffffff168152602001605f63ffffffff168152602001605f63ffffffff168152508152509080600181540180825580915050906001820390600052602060002090600702016000909192909190915060008201518160000190805190602001906300016993929190630001ddf0565b5060208201518160010155604082015181600201908051906020019063000169be929190630001ddf0565b50606082015181600301908051906020019063000169df929190630001ddf0565b506080820151816004015560a08201518160050160006101000a81548160ff02191690831515021790555060c08201518160060160008201518160000160006101000a81548163ffffffff021916908363ffffffff16021790555060208201518160000160046101000a81548163ffffffff021916908363ffffffff16021790555060408201518160000160086101000a81548163ffffffff021916908363ffffffff160217905550606082015181600001600c6101000a81548163ffffffff021916908363ffffffff16021790555060808201518160000160106101000a81548163ffffffff021916908363ffffffff16021790555060a08201518160000160146101000a81548163ffffffff021916908363ffffffff160217905550505050505060036040518060e001604052806040518060400160405280600a81526020017f456c6563746162757a7a000000000000000000000000000000000000000000008152508152602001607d81526020016040518060400160405280600881526020017f456c65637472696300000000000000000000000000000000000000000000000081525081526020016040518060400160405280600381526020017f6e616e0000000000000000000000000000000000000000000000000000000000815250815260200161019a81526020016000151581526020016040518060c00160405280604163ffffffff168152602001605363ffffffff168152602001603963ffffffff168152602001605f63ffffffff168152602001605563ffffffff168152602001606963ffffffff168152508152509080600181540180825580915050906001820390600052602060002090600702016000909192909190915060008201518160000190805190602001906300016c7d929190630001ddf0565b506020820151816001015560408201518160020190805190602001906300016ca8929190630001ddf0565b5060608201518160030190805190602001906300016cc9929190630001ddf0565b506080820151816004015560a08201518160050160006101000a81548160ff02191690831515021790555060c08201518160060160008201518160000160006101000a81548163ffffffff021916908363ffffffff16021790555060208201518160000160046101000a81548163ffffffff021916908363ffffffff16021790555060408201518160000160086101000a81548163ffffffff021916908363ffffffff160217905550606082015181600001600c6101000a81548163ffffffff021916908363ffffffff16021790555060808201518160000160106101000a81548163ffffffff021916908363ffffffff16021790555060a08201518160000160146101000a81548163ffffffff021916908363ffffffff160217905550505050505060036040518060e001604052806040518060400160405280600681526020017f4d61676d617200000000000000000000000000000000000000000000000000008152508152602001607e81526020016040518060400160405280600481526020017f466972650000000000000000000000000000000000000000000000000000000081525081526020016040518060400160405280600381526020017f6e616e0000000000000000000000000000000000000000000000000000000000815250815260200161019581526020016000151581526020016040518060c00160405280604163ffffffff168152602001605f63ffffffff168152602001603963ffffffff168152602001606463ffffffff168152602001605563ffffffff168152602001605d63ffffffff168152508152509080600181540180825580915050906001820390600052602060002090600702016000909192909190915060008201518160000190805190602001906300016f67929190630001ddf0565b506020820151816001015560408201518160020190805190602001906300016f92929190630001ddf0565b5060608201518160030190805190602001906300016fb3929190630001ddf0565b506080820151816004015560a08201518160050160006101000a81548160ff02191690831515021790555060c08201518160060160008201518160000160006101000a81548163ffffffff021916908363ffffffff16021790555060208201518160000160046101000a81548163ffffffff021916908363ffffffff16021790555060408201518160000160086101000a81548163ffffffff021916908363ffffffff160217905550606082015181600001600c6101000a81548163ffffffff021916908363ffffffff16021790555060808201518160000160106101000a81548163ffffffff021916908363ffffffff16021790555060a08201518160000160146101000a81548163ffffffff021916908363ffffffff160217905550505050505060036040518060e001604052806040518060400160405280600681526020017f50696e73697200000000000000000000000000000000000000000000000000008152508152602001607f81526020016040518060400160405280600381526020017f427567000000000000000000000000000000000000000000000000000000000081525081526020016040518060400160405280600381526020017f6e616e0000000000000000000000000000000000000000000000000000000000815250815260200161019081526020016000151581526020016040518060c00160405280604163ffffffff168152602001607d63ffffffff168152602001606463ffffffff168152602001603763ffffffff168152602001604663ffffffff168152602001605563ffffffff168152508152509080600181540180825580915050906001820390600052602060002090600702016000909192909190915060008201518160000190805190602001906300017251929190630001ddf0565b50602082015181600101556040820151816002019080519060200190630001727c929190630001ddf0565b506060820151816003019080519060200190630001729d929190630001ddf0565b506080820151816004015560a08201518160050160006101000a81548160ff02191690831515021790555060c08201518160060160008201518160000160006101000a81548163ffffffff021916908363ffffffff16021790555060208201518160000160046101000a81548163ffffffff021916908363ffffffff16021790555060408201518160000160086101000a81548163ffffffff021916908363ffffffff160217905550606082015181600001600c6101000a81548163ffffffff021916908363ffffffff16021790555060808201518160000160106101000a81548163ffffffff021916908363ffffffff16021790555060a08201518160000160146101000a81548163ffffffff021916908363ffffffff160217905550505050505060036040518060e001604052806040518060400160405280600681526020017f546175726f7300000000000000000000000000000000000000000000000000008152508152602001608081526020016040518060400160405280600681526020017f4e6f726d616c000000000000000000000000000000000000000000000000000081525081526020016040518060400160405280600381526020017f6e616e0000000000000000000000000000000000000000000000000000000000815250815260200161019a81526020016000151581526020016040518060c00160405280604b63ffffffff168152602001606463ffffffff168152602001605f63ffffffff168152602001602863ffffffff168152602001604663ffffffff168152602001606e63ffffffff16815250815250908060018154018082558091505090600182039060005260206000209060070201600090919290919091506000820151816000019080519060200190630001753b929190630001ddf0565b506020820151816001015560408201518160020190805190602001906300017566929190630001ddf0565b5060608201518160030190805190602001906300017587929190630001ddf0565b506080820151816004015560a08201518160050160006101000a81548160ff02191690831515021790555060c08201518160060160008201518160000160006101000a81548163ffffffff021916908363ffffffff16021790555060208201518160000160046101000a81548163ffffffff021916908363ffffffff16021790555060408201518160000160086101000a81548163ffffffff021916908363ffffffff160217905550606082015181600001600c6101000a81548163ffffffff021916908363ffffffff16021790555060808201518160000160106101000a81548163ffffffff021916908363ffffffff16021790555060a08201518160000160146101000a81548163ffffffff021916908363ffffffff160217905550505050505060036040518060e001604052806040518060400160405280600881526020017f4d6167696b6172700000000000000000000000000000000000000000000000008152508152602001608181526020016040518060400160405280600581526020017f576174657200000000000000000000000000000000000000000000000000000081525081526020016040518060400160405280600381526020017f6e616e000000000000000000000000000000000000000000000000000000000081525081526020016102bc81526020016000151581526020016040518060c00160405280601463ffffffff168152602001600a63ffffffff168152602001603763ffffffff168152602001600f63ffffffff168152602001601463ffffffff168152602001605063ffffffff168152508152509080600181540180825580915050906001820390600052602060002090600702016000909192909190915060008201518160000190805190602001906300017825929190630001ddf0565b506020820151816001015560408201518160020190805190602001906300017850929190630001ddf0565b5060608201518160030190805190602001906300017871929190630001ddf0565b506080820151816004015560a08201518160050160006101000a81548160ff02191690831515021790555060c08201518160060160008201518160000160006101000a81548163ffffffff021916908363ffffffff16021790555060208201518160000160046101000a81548163ffffffff021916908363ffffffff16021790555060408201518160000160086101000a81548163ffffffff021916908363ffffffff160217905550606082015181600001600c6101000a81548163ffffffff021916908363ffffffff16021790555060808201518160000160106101000a81548163ffffffff021916908363ffffffff16021790555060a08201518160000160146101000a81548163ffffffff021916908363ffffffff160217905550505050505060036040518060e001604052806040518060400160405280600881526020017f4779617261646f730000000000000000000000000000000000000000000000008152508152602001608281526020016040518060400160405280600581526020017f576174657200000000000000000000000000000000000000000000000000000081525081526020016040518060400160405280600681526020017f466c79696e670000000000000000000000000000000000000000000000000000815250815260200161016881526020016000151581526020016040518060c00160405280605f63ffffffff168152602001607d63ffffffff168152602001604f63ffffffff168152602001603c63ffffffff168152602001606463ffffffff168152602001605163ffffffff168152508152509080600181540180825580915050906001820390600052602060002090600702016000909192909190915060008201518160000190805190602001906300017b0f929190630001ddf0565b506020820151816001015560408201518160020190805190602001906300017b3a929190630001ddf0565b5060608201518160030190805190602001906300017b5b929190630001ddf0565b506080820151816004015560a08201518160050160006101000a81548160ff02191690831515021790555060c08201518160060160008201518160000160006101000a81548163ffffffff021916908363ffffffff16021790555060208201518160000160046101000a81548163ffffffff021916908363ffffffff16021790555060408201518160000160086101000a81548163ffffffff021916908363ffffffff160217905550606082015181600001600c6101000a81548163ffffffff021916908363ffffffff16021790555060808201518160000160106101000a81548163ffffffff021916908363ffffffff16021790555060a08201518160000160146101000a81548163ffffffff021916908363ffffffff160217905550505050505060036040518060e001604052806040518060400160405280600681526020017f4c617072617300000000000000000000000000000000000000000000000000008152508152602001608381526020016040518060400160405280600581526020017f576174657200000000000000000000000000000000000000000000000000000081525081526020016040518060400160405280600381526020017f4963650000000000000000000000000000000000000000000000000000000000815250815260200161016d81526020016000151581526020016040518060c00160405280608263ffffffff168152602001605563ffffffff168152602001605063ffffffff168152602001605563ffffffff168152602001605f63ffffffff168152602001603c63ffffffff168152508152509080600181540180825580915050906001820390600052602060002090600702016000909192909190915060008201518160000190805190602001906300017df9929190630001ddf0565b506020820151816001015560408201518160020190805190602001906300017e24929190630001ddf0565b5060608201518160030190805190602001906300017e45929190630001ddf0565b506080820151816004015560a08201518160050160006101000a81548160ff02191690831515021790555060c08201518160060160008201518160000160006101000a81548163ffffffff021916908363ffffffff16021790555060208201518160000160046101000a81548163ffffffff021916908363ffffffff16021790555060408201518160000160086101000a81548163ffffffff021916908363ffffffff160217905550606082015181600001600c6101000a81548163ffffffff021916908363ffffffff16021790555060808201518160000160106101000a81548163ffffffff021916908363ffffffff16021790555060a08201518160000160146101000a81548163ffffffff021916908363ffffffff160217905550505050505060036040518060e001604052806040518060400160405280600581526020017f446974746f0000000000000000000000000000000000000000000000000000008152508152602001608481526020016040518060400160405280600681526020017f4e6f726d616c000000000000000000000000000000000000000000000000000081525081526020016040518060400160405280600381526020017f6e616e0000000000000000000000000000000000000000000000000000000000815250815260200161026481526020016000151581526020016040518060c00160405280603063ffffffff168152602001603063ffffffff168152602001603063ffffffff168152602001603063ffffffff168152602001603063ffffffff168152602001603063ffffffff1681525081525090806001815401808255809150509060018203906000526020600020906007020160009091929091909150600082015181600001908051906020019063000180e3929190630001ddf0565b50602082015181600101556040820151816002019080519060200190630001810e929190630001ddf0565b506060820151816003019080519060200190630001812f929190630001ddf0565b506080820151816004015560a08201518160050160006101000a81548160ff02191690831515021790555060c08201518160060160008201518160000160006101000a81548163ffffffff021916908363ffffffff16021790555060208201518160000160046101000a81548163ffffffff021916908363ffffffff16021790555060408201518160000160086101000a81548163ffffffff021916908363ffffffff160217905550606082015181600001600c6101000a81548163ffffffff021916908363ffffffff16021790555060808201518160000160106101000a81548163ffffffff021916908363ffffffff16021790555060a08201518160000160146101000a81548163ffffffff021916908363ffffffff160217905550505050505060036040518060e001604052806040518060400160405280600581526020017f45657665650000000000000000000000000000000000000000000000000000008152508152602001608581526020016040518060400160405280600681526020017f4e6f726d616c000000000000000000000000000000000000000000000000000081525081526020016040518060400160405280600381526020017f6e616e0000000000000000000000000000000000000000000000000000000000815250815260200161023f81526020016000151581526020016040518060c00160405280603763ffffffff168152602001603763ffffffff168152602001603263ffffffff168152602001602d63ffffffff168152602001604163ffffffff168152602001603763ffffffff1681525081525090806001815401808255809150509060018203906000526020600020906007020160009091929091909150600082015181600001908051906020019063000183cd929190630001ddf0565b5060208201518160010155604082015181600201908051906020019063000183f8929190630001ddf0565b5060608201518160030190805190602001906300018419929190630001ddf0565b506080820151816004015560a08201518160050160006101000a81548160ff02191690831515021790555060c08201518160060160008201518160000160006101000a81548163ffffffff021916908363ffffffff16021790555060208201518160000160046101000a81548163ffffffff021916908363ffffffff16021790555060408201518160000160086101000a81548163ffffffff021916908363ffffffff160217905550606082015181600001600c6101000a81548163ffffffff021916908363ffffffff16021790555060808201518160000160106101000a81548163ffffffff021916908363ffffffff16021790555060a08201518160000160146101000a81548163ffffffff021916908363ffffffff160217905550505050505060036040518060e001604052806040518060400160405280600881526020017f5661706f72656f6e0000000000000000000000000000000000000000000000008152508152602001608681526020016040518060400160405280600581526020017f576174657200000000000000000000000000000000000000000000000000000081525081526020016040518060400160405280600381526020017f6e616e0000000000000000000000000000000000000000000000000000000000815250815260200161017781526020016000151581526020016040518060c00160405280608263ffffffff168152602001604163ffffffff168152602001603c63ffffffff168152602001606e63ffffffff168152602001605f63ffffffff168152602001604163ffffffff1681525081525090806001815401808255809150509060018203906000526020600020906007020160009091929091909150600082015181600001908051906020019063000186b7929190630001ddf0565b5060208201518160010155604082015181600201908051906020019063000186e2929190630001ddf0565b5060608201518160030190805190602001906300018703929190630001ddf0565b506080820151816004015560a08201518160050160006101000a81548160ff02191690831515021790555060c08201518160060160008201518160000160006101000a81548163ffffffff021916908363ffffffff16021790555060208201518160000160046101000a81548163ffffffff021916908363ffffffff16021790555060408201518160000160086101000a81548163ffffffff021916908363ffffffff160217905550606082015181600001600c6101000a81548163ffffffff021916908363ffffffff16021790555060808201518160000160106101000a81548163ffffffff021916908363ffffffff16021790555060a08201518160000160146101000a81548163ffffffff021916908363ffffffff160217905550505050505060036040518060e001604052806040518060400160405280600781526020017f4a6f6c74656f6e000000000000000000000000000000000000000000000000008152508152602001608781526020016040518060400160405280600881526020017f456c65637472696300000000000000000000000000000000000000000000000081525081526020016040518060400160405280600381526020017f6e616e0000000000000000000000000000000000000000000000000000000000815250815260200161017781526020016000151581526020016040518060c00160405280604163ffffffff168152602001604163ffffffff168152602001603c63ffffffff168152602001606e63ffffffff168152602001605f63ffffffff168152602001608263ffffffff1681525081525090806001815401808255809150509060018203906000526020600020906007020160009091929091909150600082015181600001908051906020019063000189a1929190630001ddf0565b5060208201518160010155604082015181600201908051906020019063000189cc929190630001ddf0565b50606082015181600301908051906020019063000189ed929190630001ddf0565b506080820151816004015560a08201518160050160006101000a81548160ff02191690831515021790555060c08201518160060160008201518160000160006101000a81548163ffffffff021916908363ffffffff16021790555060208201518160000160046101000a81548163ffffffff021916908363ffffffff16021790555060408201518160000160086101000a81548163ffffffff021916908363ffffffff160217905550606082015181600001600c6101000a81548163ffffffff021916908363ffffffff16021790555060808201518160000160106101000a81548163ffffffff021916908363ffffffff16021790555060a08201518160000160146101000a81548163ffffffff021916908363ffffffff160217905550505050505060036040518060e001604052806040518060400160405280600781526020017f466c6172656f6e000000000000000000000000000000000000000000000000008152508152602001608881526020016040518060400160405280600481526020017f466972650000000000000000000000000000000000000000000000000000000081525081526020016040518060400160405280600381526020017f6e616e0000000000000000000000000000000000000000000000000000000000815250815260200161017781526020016000151581526020016040518060c00160405280604163ffffffff168152602001608263ffffffff168152602001603c63ffffffff168152602001605f63ffffffff168152602001606e63ffffffff168152602001604163ffffffff168152508152509080600181540180825580915050906001820390600052602060002090600702016000909192909190915060008201518160000190805190602001906300018c8b929190630001ddf0565b506020820151816001015560408201518160020190805190602001906300018cb6929190630001ddf0565b5060608201518160030190805190602001906300018cd7929190630001ddf0565b506080820151816004015560a08201518160050160006101000a81548160ff02191690831515021790555060c08201518160060160008201518160000160006101000a81548163ffffffff021916908363ffffffff16021790555060208201518160000160046101000a81548163ffffffff021916908363ffffffff16021790555060408201518160000160086101000a81548163ffffffff021916908363ffffffff160217905550606082015181600001600c6101000a81548163ffffffff021916908363ffffffff16021790555060808201518160000160106101000a81548163ffffffff021916908363ffffffff16021790555060a08201518160000160146101000a81548163ffffffff021916908363ffffffff160217905550505050505060036040518060e001604052806040518060400160405280600781526020017f506f7279676f6e000000000000000000000000000000000000000000000000008152508152602001608981526020016040518060400160405280600681526020017f4e6f726d616c000000000000000000000000000000000000000000000000000081525081526020016040518060400160405280600381526020017f6e616e000000000000000000000000000000000000000000000000000000000081525081526020016101f981526020016000151581526020016040518060c00160405280604163ffffffff168152602001603c63ffffffff168152602001604663ffffffff168152602001605563ffffffff168152602001604b63ffffffff168152602001602863ffffffff168152508152509080600181540180825580915050906001820390600052602060002090600702016000909192909190915060008201518160000190805190602001906300018f75929190630001ddf0565b506020820151816001015560408201518160020190805190602001906300018fa0929190630001ddf0565b5060608201518160030190805190602001906300018fc1929190630001ddf0565b506080820151816004015560a08201518160050160006101000a81548160ff02191690831515021790555060c08201518160060160008201518160000160006101000a81548163ffffffff021916908363ffffffff16021790555060208201518160000160046101000a81548163ffffffff021916908363ffffffff16021790555060408201518160000160086101000a81548163ffffffff021916908363ffffffff160217905550606082015181600001600c6101000a81548163ffffffff021916908363ffffffff16021790555060808201518160000160106101000a81548163ffffffff021916908363ffffffff16021790555060a08201518160000160146101000a81548163ffffffff021916908363ffffffff160217905550505050505060036040518060e001604052806040518060400160405280600781526020017f4f6d616e797465000000000000000000000000000000000000000000000000008152508152602001608a81526020016040518060400160405280600481526020017f526f636b0000000000000000000000000000000000000000000000000000000081525081526020016040518060400160405280600581526020017f5761746572000000000000000000000000000000000000000000000000000000815250815260200161022181526020016000151581526020016040518060c00160405280602363ffffffff168152602001602863ffffffff168152602001606463ffffffff168152602001605a63ffffffff168152602001603763ffffffff168152602001602363ffffffff16815250815250908060018154018082558091505090600182039060005260206000209060070201600090919290919091506000820151816000019080519060200190630001925f929190630001ddf0565b50602082015181600101556040820151816002019080519060200190630001928a929190630001ddf0565b50606082015181600301908051906020019063000192ab929190630001ddf0565b506080820151816004015560a08201518160050160006101000a81548160ff02191690831515021790555060c08201518160060160008201518160000160006101000a81548163ffffffff021916908363ffffffff16021790555060208201518160000160046101000a81548163ffffffff021916908363ffffffff16021790555060408201518160000160086101000a81548163ffffffff021916908363ffffffff160217905550606082015181600001600c6101000a81548163ffffffff021916908363ffffffff16021790555060808201518160000160106101000a81548163ffffffff021916908363ffffffff16021790555060a08201518160000160146101000a81548163ffffffff021916908363ffffffff160217905550505050505060036040518060e001604052806040518060400160405280600781526020017f4f6d6173746172000000000000000000000000000000000000000000000000008152508152602001608b81526020016040518060400160405280600481526020017f526f636b0000000000000000000000000000000000000000000000000000000081525081526020016040518060400160405280600581526020017f5761746572000000000000000000000000000000000000000000000000000000815250815260200161019581526020016000151581526020016040518060c00160405280604663ffffffff168152602001603c63ffffffff168152602001607d63ffffffff168152602001607363ffffffff168152602001604663ffffffff168152602001603763ffffffff168152508152509080600181540180825580915050906001820390600052602060002090600702016000909192909190915060008201518160000190805190602001906300019549929190630001ddf0565b506020820151816001015560408201518160020190805190602001906300019574929190630001ddf0565b5060608201518160030190805190602001906300019595929190630001ddf0565b506080820151816004015560a08201518160050160006101000a81548160ff02191690831515021790555060c08201518160060160008201518160000160006101000a81548163ffffffff021916908363ffffffff16021790555060208201518160000160046101000a81548163ffffffff021916908363ffffffff16021790555060408201518160000160086101000a81548163ffffffff021916908363ffffffff160217905550606082015181600001600c6101000a81548163ffffffff021916908363ffffffff16021790555060808201518160000160106101000a81548163ffffffff021916908363ffffffff16021790555060a08201518160000160146101000a81548163ffffffff021916908363ffffffff160217905550505050505060036040518060e001604052806040518060400160405280600681526020017f4b616275746f00000000000000000000000000000000000000000000000000008152508152602001608c81526020016040518060400160405280600481526020017f526f636b0000000000000000000000000000000000000000000000000000000081525081526020016040518060400160405280600581526020017f5761746572000000000000000000000000000000000000000000000000000000815250815260200161022181526020016000151581526020016040518060c00160405280601e63ffffffff168152602001605063ffffffff168152602001605a63ffffffff168152602001603763ffffffff168152602001602d63ffffffff168152602001603763ffffffff168152508152509080600181540180825580915050906001820390600052602060002090600702016000909192909190915060008201518160000190805190602001906300019833929190630001ddf0565b50602082015181600101556040820151816002019080519060200190630001985e929190630001ddf0565b506060820151816003019080519060200190630001987f929190630001ddf0565b506080820151816004015560a08201518160050160006101000a81548160ff02191690831515021790555060c08201518160060160008201518160000160006101000a81548163ffffffff021916908363ffffffff16021790555060208201518160000160046101000a81548163ffffffff021916908363ffffffff16021790555060408201518160000160086101000a81548163ffffffff021916908363ffffffff160217905550606082015181600001600c6101000a81548163ffffffff021916908363ffffffff16021790555060808201518160000160106101000a81548163ffffffff021916908363ffffffff16021790555060a08201518160000160146101000a81548163ffffffff021916908363ffffffff160217905550505050505060036040518060e001604052806040518060400160405280600881526020017f4b616275746f70730000000000000000000000000000000000000000000000008152508152602001608d81526020016040518060400160405280600481526020017f526f636b0000000000000000000000000000000000000000000000000000000081525081526020016040518060400160405280600581526020017f5761746572000000000000000000000000000000000000000000000000000000815250815260200161019581526020016000151581526020016040518060c00160405280603c63ffffffff168152602001607363ffffffff168152602001606963ffffffff168152602001604163ffffffff168152602001604663ffffffff168152602001605063ffffffff168152508152509080600181540180825580915050906001820390600052602060002090600702016000909192909190915060008201518160000190805190602001906300019b1d929190630001ddf0565b506020820151816001015560408201518160020190805190602001906300019b48929190630001ddf0565b5060608201518160030190805190602001906300019b69929190630001ddf0565b506080820151816004015560a08201518160050160006101000a81548160ff02191690831515021790555060c08201518160060160008201518160000160006101000a81548163ffffffff021916908363ffffffff16021790555060208201518160000160046101000a81548163ffffffff021916908363ffffffff16021790555060408201518160000160086101000a81548163ffffffff021916908363ffffffff160217905550606082015181600001600c6101000a81548163ffffffff021916908363ffffffff16021790555060808201518160000160106101000a81548163ffffffff021916908363ffffffff16021790555060a08201518160000160146101000a81548163ffffffff021916908363ffffffff160217905550505050505060036040518060e001604052806040518060400160405280600a81526020017f4165726f64616374796c000000000000000000000000000000000000000000008152508152602001608e81526020016040518060400160405280600481526020017f526f636b0000000000000000000000000000000000000000000000000000000081525081526020016040518060400160405280600681526020017f466c79696e670000000000000000000000000000000000000000000000000000815250815260200161018181526020016000151581526020016040518060c00160405280605063ffffffff168152602001606963ffffffff168152602001604163ffffffff168152602001603c63ffffffff168152602001604b63ffffffff168152602001608263ffffffff168152508152509080600181540180825580915050906001820390600052602060002090600702016000909192909190915060008201518160000190805190602001906300019e07929190630001ddf0565b506020820151816001015560408201518160020190805190602001906300019e32929190630001ddf0565b5060608201518160030190805190602001906300019e53929190630001ddf0565b506080820151816004015560a08201518160050160006101000a81548160ff02191690831515021790555060c08201518160060160008201518160000160006101000a81548163ffffffff021916908363ffffffff16021790555060208201518160000160046101000a81548163ffffffff021916908363ffffffff16021790555060408201518160000160086101000a81548163ffffffff021916908363ffffffff160217905550606082015181600001600c6101000a81548163ffffffff021916908363ffffffff16021790555060808201518160000160106101000a81548163ffffffff021916908363ffffffff16021790555060a08201518160000160146101000a81548163ffffffff021916908363ffffffff160217905550505050505060036040518060e001604052806040518060400160405280600781526020017f536e6f726c6178000000000000000000000000000000000000000000000000008152508152602001608f81526020016040518060400160405280600681526020017f4e6f726d616c000000000000000000000000000000000000000000000000000081525081526020016040518060400160405280600381526020017f6e616e0000000000000000000000000000000000000000000000000000000000815250815260200161016881526020016000151581526020016040518060c0016040528060a063ffffffff168152602001606e63ffffffff168152602001604163ffffffff168152602001604163ffffffff168152602001606e63ffffffff168152602001601e63ffffffff16815250815250908060018154018082558091505090600182039060005260206000209060070201600090919290919091506000820151816000019080519060200190630001a0f1929190630001ddf0565b50602082015181600101556040820151816002019080519060200190630001a11c929190630001ddf0565b506060820151816003019080519060200190630001a13d929190630001ddf0565b506080820151816004015560a08201518160050160006101000a81548160ff02191690831515021790555060c08201518160060160008201518160000160006101000a81548163ffffffff021916908363ffffffff16021790555060208201518160000160046101000a81548163ffffffff021916908363ffffffff16021790555060408201518160000160086101000a81548163ffffffff021916908363ffffffff160217905550606082015181600001600c6101000a81548163ffffffff021916908363ffffffff16021790555060808201518160000160106101000a81548163ffffffff021916908363ffffffff16021790555060a08201518160000160146101000a81548163ffffffff021916908363ffffffff160217905550505050505060036040518060e001604052806040518060400160405280600881526020017f4172746963756e6f0000000000000000000000000000000000000000000000008152508152602001609081526020016040518060400160405280600381526020017f496365000000000000000000000000000000000000000000000000000000000081525081526020016040518060400160405280600681526020017f466c79696e670000000000000000000000000000000000000000000000000000815250815260200161014081526020016001151581526020016040518060c00160405280605a63ffffffff168152602001605563ffffffff168152602001606463ffffffff168152602001605f63ffffffff168152602001607d63ffffffff168152602001605563ffffffff16815250815250908060018154018082558091505090600182039060005260206000209060070201600090919290919091506000820151816000019080519060200190630001a3db929190630001ddf0565b50602082015181600101556040820151816002019080519060200190630001a406929190630001ddf0565b506060820151816003019080519060200190630001a427929190630001ddf0565b506080820151816004015560a08201518160050160006101000a81548160ff02191690831515021790555060c08201518160060160008201518160000160006101000a81548163ffffffff021916908363ffffffff16021790555060208201518160000160046101000a81548163ffffffff021916908363ffffffff16021790555060408201518160000160086101000a81548163ffffffff021916908363ffffffff160217905550606082015181600001600c6101000a81548163ffffffff021916908363ffffffff16021790555060808201518160000160106101000a81548163ffffffff021916908363ffffffff16021790555060a08201518160000160146101000a81548163ffffffff021916908363ffffffff160217905550505050505060036040518060e001604052806040518060400160405280600681526020017f5a6170646f7300000000000000000000000000000000000000000000000000008152508152602001609181526020016040518060400160405280600881526020017f456c65637472696300000000000000000000000000000000000000000000000081525081526020016040518060400160405280600681526020017f466c79696e670000000000000000000000000000000000000000000000000000815250815260200161014081526020016001151581526020016040518060c00160405280605a63ffffffff168152602001605a63ffffffff168152602001605563ffffffff168152602001607d63ffffffff168152602001605a63ffffffff168152602001606463ffffffff16815250815250908060018154018082558091505090600182039060005260206000209060070201600090919290919091506000820151816000019080519060200190630001a6c5929190630001ddf0565b50602082015181600101556040820151816002019080519060200190630001a6f0929190630001ddf0565b506060820151816003019080519060200190630001a711929190630001ddf0565b506080820151816004015560a08201518160050160006101000a81548160ff02191690831515021790555060c08201518160060160008201518160000160006101000a81548163ffffffff021916908363ffffffff16021790555060208201518160000160046101000a81548163ffffffff021916908363ffffffff16021790555060408201518160000160086101000a81548163ffffffff021916908363ffffffff160217905550606082015181600001600c6101000a81548163ffffffff021916908363ffffffff16021790555060808201518160000160106101000a81548163ffffffff021916908363ffffffff16021790555060a08201518160000160146101000a81548163ffffffff021916908363ffffffff160217905550505050505060036040518060e001604052806040518060400160405280600781526020017f4d6f6c74726573000000000000000000000000000000000000000000000000008152508152602001609281526020016040518060400160405280600481526020017f466972650000000000000000000000000000000000000000000000000000000081525081526020016040518060400160405280600681526020017f466c79696e670000000000000000000000000000000000000000000000000000815250815260200161014081526020016001151581526020016040518060c00160405280605a63ffffffff168152602001606463ffffffff168152602001605a63ffffffff168152602001607d63ffffffff168152602001605563ffffffff168152602001605a63ffffffff16815250815250908060018154018082558091505090600182039060005260206000209060070201600090919290919091506000820151816000019080519060200190630001a9af929190630001ddf0565b50602082015181600101556040820151816002019080519060200190630001a9da929190630001ddf0565b506060820151816003019080519060200190630001a9fb929190630001ddf0565b506080820151816004015560a08201518160050160006101000a81548160ff02191690831515021790555060c08201518160060160008201518160000160006101000a81548163ffffffff021916908363ffffffff16021790555060208201518160000160046101000a81548163ffffffff021916908363ffffffff16021790555060408201518160000160086101000a81548163ffffffff021916908363ffffffff160217905550606082015181600001600c6101000a81548163ffffffff021916908363ffffffff16021790555060808201518160000160106101000a81548163ffffffff021916908363ffffffff16021790555060a08201518160000160146101000a81548163ffffffff021916908363ffffffff160217905550505050505060036040518060e001604052806040518060400160405280600781526020017f44726174696e69000000000000000000000000000000000000000000000000008152508152602001609381526020016040518060400160405280600681526020017f447261676f6e000000000000000000000000000000000000000000000000000081525081526020016040518060400160405280600381526020017f6e616e0000000000000000000000000000000000000000000000000000000000815250815260200161025881526020016000151581526020016040518060c00160405280602963ffffffff168152602001604063ffffffff168152602001602d63ffffffff168152602001603263ffffffff168152602001603263ffffffff168152602001603263ffffffff16815250815250908060018154018082558091505090600182039060005260206000209060070201600090919290919091506000820151816000019080519060200190630001ac99929190630001ddf0565b50602082015181600101556040820151816002019080519060200190630001acc4929190630001ddf0565b506060820151816003019080519060200190630001ace5929190630001ddf0565b506080820151816004015560a08201518160050160006101000a81548160ff02191690831515021790555060c08201518160060160008201518160000160006101000a81548163ffffffff021916908363ffffffff16021790555060208201518160000160046101000a81548163ffffffff021916908363ffffffff16021790555060408201518160000160086101000a81548163ffffffff021916908363ffffffff160217905550606082015181600001600c6101000a81548163ffffffff021916908363ffffffff16021790555060808201518160000160106101000a81548163ffffffff021916908363ffffffff16021790555060a08201518160000160146101000a81548163ffffffff021916908363ffffffff160217905550505050505060036040518060e001604052806040518060400160405280600981526020017f447261676f6e61697200000000000000000000000000000000000000000000008152508152602001609481526020016040518060400160405280600681526020017f447261676f6e000000000000000000000000000000000000000000000000000081525081526020016040518060400160405280600381526020017f6e616e000000000000000000000000000000000000000000000000000000000081525081526020016101e081526020016000151581526020016040518060c00160405280603d63ffffffff168152602001605463ffffffff168152602001604163ffffffff168152602001604663ffffffff168152602001604663ffffffff168152602001604663ffffffff16815250815250908060018154018082558091505090600182039060005260206000209060070201600090919290919091506000820151816000019080519060200190630001af83929190630001ddf0565b50602082015181600101556040820151816002019080519060200190630001afae929190630001ddf0565b506060820151816003019080519060200190630001afcf929190630001ddf0565b506080820151816004015560a08201518160050160006101000a81548160ff02191690831515021790555060c08201518160060160008201518160000160006101000a81548163ffffffff021916908363ffffffff16021790555060208201518160000160046101000a81548163ffffffff021916908363ffffffff16021790555060408201518160000160086101000a81548163ffffffff021916908363ffffffff160217905550606082015181600001600c6101000a81548163ffffffff021916908363ffffffff16021790555060808201518160000160106101000a81548163ffffffff021916908363ffffffff16021790555060a08201518160000160146101000a81548163ffffffff021916908363ffffffff160217905550505050505060036040518060e001604052806040518060400160405280600981526020017f447261676f6e69746500000000000000000000000000000000000000000000008152508152602001609581526020016040518060400160405280600681526020017f447261676f6e000000000000000000000000000000000000000000000000000081525081526020016040518060400160405280600681526020017f466c79696e670000000000000000000000000000000000000000000000000000815250815260200161012c81526020016000151581526020016040518060c00160405280605b63ffffffff168152602001608663ffffffff168152602001605f63ffffffff168152602001606463ffffffff168152602001606463ffffffff168152602001605063ffffffff16815250815250908060018154018082558091505090600182039060005260206000209060070201600090919290919091506000820151816000019080519060200190630001b26d929190630001ddf0565b50602082015181600101556040820151816002019080519060200190630001b298929190630001ddf0565b506060820151816003019080519060200190630001b2b9929190630001ddf0565b506080820151816004015560a08201518160050160006101000a81548160ff02191690831515021790555060c08201518160060160008201518160000160006101000a81548163ffffffff021916908363ffffffff16021790555060208201518160000160046101000a81548163ffffffff021916908363ffffffff16021790555060408201518160000160086101000a81548163ffffffff021916908363ffffffff160217905550606082015181600001600c6101000a81548163ffffffff021916908363ffffffff16021790555060808201518160000160106101000a81548163ffffffff021916908363ffffffff16021790555060a08201518160000160146101000a81548163ffffffff021916908363ffffffff160217905550505050505060036040518060e001604052806040518060400160405280600681526020017f4d657774776f00000000000000000000000000000000000000000000000000008152508152602001609681526020016040518060400160405280600781526020017f507379636869630000000000000000000000000000000000000000000000000081525081526020016040518060400160405280600381526020017f6e616e0000000000000000000000000000000000000000000000000000000000815250815260200160dc81526020016001151581526020016040518060c00160405280606a63ffffffff168152602001606e63ffffffff168152602001605a63ffffffff168152602001609a63ffffffff168152602001605a63ffffffff168152602001608263ffffffff16815250815250908060018154018082558091505090600182039060005260206000209060070201600090919290919091506000820151816000019080519060200190630001b556929190630001ddf0565b50602082015181600101556040820151816002019080519060200190630001b581929190630001ddf0565b506060820151816003019080519060200190630001b5a2929190630001ddf0565b506080820151816004015560a08201518160050160006101000a81548160ff02191690831515021790555060c08201518160060160008201518160000160006101000a81548163ffffffff021916908363ffffffff16021790555060208201518160000160046101000a81548163ffffffff021916908363ffffffff16021790555060408201518160000160086101000a81548163ffffffff021916908363ffffffff160217905550606082015181600001600c6101000a81548163ffffffff021916908363ffffffff16021790555060808201518160000160106101000a81548163ffffffff021916908363ffffffff16021790555060a08201518160000160146101000a81548163ffffffff021916908363ffffffff160217905550505050505060036040518060e001604052806040518060400160405280600381526020017f4d657700000000000000000000000000000000000000000000000000000000008152508152602001609781526020016040518060400160405280600781526020017f507379636869630000000000000000000000000000000000000000000000000081525081526020016040518060400160405280600381526020017f6e616e0000000000000000000000000000000000000000000000000000000000815250815260200161012c81526020016000151581526020016040518060c00160405280606463ffffffff168152602001606463ffffffff168152602001606463ffffffff168152602001606463ffffffff168152602001606463ffffffff168152602001606463ffffffff16815250815250908060018154018082558091505090600182039060005260206000209060070201600090919290919091506000820151816000019080519060200190630001b840929190630001ddf0565b50602082015181600101556040820151816002019080519060200190630001b86b929190630001ddf0565b506060820151816003019080519060200190630001b88c929190630001ddf0565b506080820151816004015560a08201518160050160006101000a81548160ff02191690831515021790555060c08201518160060160008201518160000160006101000a81548163ffffffff021916908363ffffffff16021790555060208201518160000160046101000a81548163ffffffff021916908363ffffffff16021790555060408201518160000160086101000a81548163ffffffff021916908363ffffffff160217905550606082015181600001600c6101000a81548163ffffffff021916908363ffffffff16021790555060808201518160000160106101000a81548163ffffffff021916908363ffffffff16021790555060a08201518160000160146101000a81548163ffffffff021916908363ffffffff1602179055505050505050565b600260016000600181526020019081526020016000208190555060036001600060028152602001908152602001600020819055506005600160006004815260200190815260200160002081905550600660016000600581526020019081526020016000208190555060086001600060078152602001908152602001600020819055506009600160006008815260200190815260200160002081905550600b60016000600a815260200190815260200160002081905550600c60016000600b815260200190815260200160002081905550600e60016000600d815260200190815260200160002081905550600f60016000600e81526020019081526020016000208190555060116001600060108152602001908152602001600020819055506012600160006011815260200190815260200160002081905550601460016000601381526020019081526020016000208190555060166001600060158152602001908152602001600020819055506018600160006017815260200190815260200160002081905550601a600160006019815260200190815260200160002081905550601c60016000601b815260200190815260200160002081905550601e60016000601d815260200190815260200160002081905550601f60016000601e81526020019081526020016000208190555060216001600060208152602001908152602001600020819055506022600160006021815260200190815260200160002081905550602460016000602381526020019081526020016000208190555060266001600060258152602001908152602001600020819055506028600160006027815260200190815260200160002081905550602a600160006029815260200190815260200160002081905550602c60016000602b815260200190815260200160002081905550602d60016000602c815260200190815260200160002081905550602f60016000602e81526020019081526020016000208190555060316001600060308152602001908152602001600020819055506033600160006032815260200190815260200160002081905550603560016000603481526020019081526020016000208190555060376001600060368152602001908152602001600020819055506039600160006038815260200190815260200160002081905550603b60016000603a815260200190815260200160002081905550603d60016000603c815260200190815260200160002081905550603e60016000603d815260200190815260200160002081905550604060016000603f815260200190815260200160002081905550604160016000604081526020019081526020016000208190555060436001600060428152602001908152602001600020819055506044600160006043815260200190815260200160002081905550604660016000604581526020019081526020016000208190555060476001600060468152602001908152602001600020819055506049600160006048815260200190815260200160002081905550604b60016000604a815260200190815260200160002081905550604c60016000604b815260200190815260200160002081905550604e60016000604d815260200190815260200160002081905550605060016000604f8152602001908152602001600020819055506052600160006051815260200190815260200160002081905550605560016000605481526020019081526020016000208190555060576001600060568152602001908152602001600020819055506059600160006058815260200190815260200160002081905550605b60016000605a815260200190815260200160002081905550605d60016000605c815260200190815260200160002081905550605e60016000605d81526020019081526020016000208190555060616001600060608152602001908152602001600020819055506063600160006062815260200190815260200160002081905550606560016000606481526020019081526020016000208190555060676001600060668152602001908152602001600020819055506069600160006068815260200190815260200160002081905550606e60016000606d815260200190815260200160002081905550607060016000606f81526020019081526020016000208190555060756001600060748152602001908152602001600020819055506077600160006076815260200190815260200160002081905550607960016000607881526020019081526020016000208190555060826001600060818152602001908152602001600020819055506086600160006085815260200190815260200160002081905550608b60016000608a815260200190815260200160002081905550608d60016000608c81526020019081526020016000208190555060946001600060938152602001908152602001600020819055506095600160006094815260200190815260200160002081905550565b600160026000600181526020019081526020016000208190555060016002600060028152602001908152602001600020819055506001600260006003815260200190815260200160002081905550600460026000600481526020019081526020016000208190555060046002600060058152602001908152602001600020819055506004600260006006815260200190815260200160002081905550600760026000600781526020019081526020016000208190555060076002600060088152602001908152602001600020819055506007600260006009815260200190815260200160002081905550600a60026000600a815260200190815260200160002081905550600a60026000600b815260200190815260200160002081905550600a60026000600c815260200190815260200160002081905550600d60026000600d815260200190815260200160002081905550600d60026000600e815260200190815260200160002081905550600d60026000600f8152602001908152602001600020819055506010600260006010815260200190815260200160002081905550601060026000601181526020019081526020016000208190555060106002600060128152602001908152602001600020819055506013600260006013815260200190815260200160002081905550601360026000601481526020019081526020016000208190555060156002600060158152602001908152602001600020819055506015600260006016815260200190815260200160002081905550601760026000601781526020019081526020016000208190555060176002600060188152602001908152602001600020819055506019600260006019815260200190815260200160002081905550601960026000601a815260200190815260200160002081905550601b60026000601b815260200190815260200160002081905550601b60026000601c815260200190815260200160002081905550601d60026000601d815260200190815260200160002081905550601d60026000601e815260200190815260200160002081905550601d60026000601f8152602001908152602001600020819055506020600260006020815260200190815260200160002081905550602060026000602181526020019081526020016000208190555060206002600060228152602001908152602001600020819055506023600260006023815260200190815260200160002081905550602360026000602481526020019081526020016000208190555060256002600060258152602001908152602001600020819055506025600260006026815260200190815260200160002081905550602760026000602781526020019081526020016000208190555060276002600060288152602001908152602001600020819055506029600260006029815260200190815260200160002081905550602960026000602a815260200190815260200160002081905550602b60026000602b815260200190815260200160002081905550602b60026000602c815260200190815260200160002081905550602b60026000602d815260200190815260200160002081905550602e60026000602e815260200190815260200160002081905550602e60026000602f8152602001908152602001600020819055506030600260006030815260200190815260200160002081905550603060026000603181526020019081526020016000208190555060326002600060328152602001908152602001600020819055506032600260006033815260200190815260200160002081905550603460026000603481526020019081526020016000208190555060346002600060358152602001908152602001600020819055506036600260006036815260200190815260200160002081905550603660026000603781526020019081526020016000208190555060386002600060388152602001908152602001600020819055506038600260006039815260200190815260200160002081905550603a60026000603a815260200190815260200160002081905550603a60026000603b815260200190815260200160002081905550603c60026000603c815260200190815260200160002081905550603c60026000603d815260200190815260200160002081905550603c60026000603e815260200190815260200160002081905550603f60026000603f815260200190815260200160002081905550603f600260006040815260200190815260200160002081905550603f60026000604181526020019081526020016000208190555060426002600060428152602001908152602001600020819055506042600260006043815260200190815260200160002081905550604260026000604481526020019081526020016000208190555060456002600060458152602001908152602001600020819055506045600260006046815260200190815260200160002081905550604560026000604781526020019081526020016000208190555060486002600060488152602001908152602001600020819055506048600260006049815260200190815260200160002081905550604a60026000604a815260200190815260200160002081905550604a60026000604b815260200190815260200160002081905550604a60026000604c815260200190815260200160002081905550604d60026000604d815260200190815260200160002081905550604d60026000604e815260200190815260200160002081905550604f60026000604f815260200190815260200160002081905550604f600260006050815260200190815260200160002081905550605160026000605181526020019081526020016000208190555060516002600060528152602001908152602001600020819055506053600260006053815260200190815260200160002081905550605460026000605481526020019081526020016000208190555060546002600060558152602001908152602001600020819055506056600260006056815260200190815260200160002081905550605660026000605781526020019081526020016000208190555060586002600060588152602001908152602001600020819055506058600260006059815260200190815260200160002081905550605a60026000605a815260200190815260200160002081905550605a60026000605b815260200190815260200160002081905550605c60026000605c815260200190815260200160002081905550605c60026000605d815260200190815260200160002081905550605c60026000605e815260200190815260200160002081905550605f60026000605f8152602001908152602001600020819055506060600260006060815260200190815260200160002081905550606060026000606181526020019081526020016000208190555060626002600060628152602001908152602001600020819055506062600260006063815260200190815260200160002081905550606460026000606481526020019081526020016000208190555060646002600060658152602001908152602001600020819055506066600260006066815260200190815260200160002081905550606660026000606781526020019081526020016000208190555060686002600060688152602001908152602001600020819055506068600260006069815260200190815260200160002081905550606a60026000606a815260200190815260200160002081905550606b60026000606b815260200190815260200160002081905550606c60026000606c815260200190815260200160002081905550606d60026000606d815260200190815260200160002081905550606d60026000606e815260200190815260200160002081905550606f60026000606f815260200190815260200160002081905550606f600260006070815260200190815260200160002081905550607160026000607181526020019081526020016000208190555060726002600060728152602001908152602001600020819055506073600260006073815260200190815260200160002081905550607460026000607481526020019081526020016000208190555060746002600060758152602001908152602001600020819055506076600260006076815260200190815260200160002081905550607660026000607781526020019081526020016000208190555060786002600060788152602001908152602001600020819055506078600260006079815260200190815260200160002081905550607a60026000607a815260200190815260200160002081905550607b60026000607b815260200190815260200160002081905550607c60026000607c815260200190815260200160002081905550607d60026000607d815260200190815260200160002081905550607e60026000607e815260200190815260200160002081905550607f60026000607f8152602001908152602001600020819055506080600260006080815260200190815260200160002081905550608160026000608181526020019081526020016000208190555060816002600060828152602001908152602001600020819055506083600260006083815260200190815260200160002081905550608460026000608481526020019081526020016000208190555060856002600060858152602001908152602001600020819055506085600260006086815260200190815260200160002081905550608760026000608781526020019081526020016000208190555060886002600060888152602001908152602001600020819055506089600260006089815260200190815260200160002081905550608a60026000608a815260200190815260200160002081905550608a60026000608b815260200190815260200160002081905550608c60026000608c815260200190815260200160002081905550608c60026000608d815260200190815260200160002081905550608e60026000608e815260200190815260200160002081905550608f60026000608f81526020019081526020016000208190555060906002600060908152602001908152602001600020819055506091600260006091815260200190815260200160002081905550609260026000609281526020019081526020016000208190555060936002600060938152602001908152602001600020819055506093600260006094815260200190815260200160002081905550609360026000609581526020019081526020016000208190555060966002600060968152602001908152602001600020819055506097600260006097815260200190815260200160002081905550565b600080600b60003373ffffffffffffffffffffffffffffffffffffffff1673ffffffffffffffffffffffffffffffffffffffff1681526020019081526020016000205414630001d07657600080fd5b6000821480630001d0875750600382145b80630001d0945750600682145b630001d09f57600080fd5b6000630001d0bd84630001d0e9640100000000026401000000009004565b9050630001d0e0848260008087630001d188640100000000026401000000009004565b91505092915050565b600080826040516020018082805190602001908083835b60208310630001d1275780518252602082019150602081019050602083039250630001d100565b6001836020036101000a038019825116818451168082178552505050505050905001915050604051602081830303815290604052805190602001206001900490506000444301905060055481830181630001d17e57fe5b0692505050919050565b600060606006604051908082528060200260200182016040528015630001d1be5781602001602082028038833980820191505090505b5090506000869050600080600090505b6006811015630001d23157600a8381630001d1e557fe5b06915081848281518110630001d1f757fe5b602002602001019063ffffffff16908163ffffffff1681525050600a82840381630001d21f57fe5b0492508080600101915050630001d1ce565b50630001d23e630001de7e565b60038681548110630001d24d57fe5b90600052602060002090600702016040518060e0016040529081600082018054600181600116156101000203166002900480601f016020809104026020016040519081016040528092919081815260200182805460018160011615610100020316600290048015630001d3075780601f10630001d2da57610100808354040283529160200191630001d307565b820191906000526020600020905b815481529060010190602001808311630001d2e857829003601f168201915b5050505050815260200160018201548152602001600282018054600181600116156101000203166002900480601f016020809104026020016040519081016040528092919081815260200182805460018160011615610100020316600290048015630001d3bb5780601f10630001d38e57610100808354040283529160200191630001d3bb565b820191906000526020600020905b815481529060010190602001808311630001d39c57829003601f168201915b50505050508152602001600382018054600181600116156101000203166002900480601f016020809104026020016040519081016040528092919081815260200182805460018160011615610100020316600290048015630001d4655780601f10630001d43857610100808354040283529160200191630001d465565b820191906000526020600020905b815481529060010190602001808311630001d44657829003601f168201915b50505050508152602001600482015481526020016005820160009054906101000a900460ff16151515158152602001600682016040518060c00160405290816000820160009054906101000a900463ffffffff1663ffffffff1663ffffffff1681526020016000820160049054906101000a900463ffffffff1663ffffffff1663ffffffff1681526020016000820160089054906101000a900463ffffffff1663ffffffff1663ffffffff16815260200160008201600c9054906101000a900463ffffffff1663ffffffff1663ffffffff1681526020016000820160109054906101000a900463ffffffff1663ffffffff1663ffffffff1681526020016000820160149054906101000a900463ffffffff1663ffffffff1663ffffffff1681525050815250509050630001d5d784600081518110630001d5a157fe5b60200260200101518260c001516000015163ffffffff16630001dd07640100000000026300004776179091906401000000009004565b8160c001516000019063ffffffff16908163ffffffff1681525050630001d63c84600181518110630001d60657fe5b60200260200101518260c001516020015163ffffffff16630001dd07640100000000026300004776179091906401000000009004565b8160c001516020019063ffffffff16908163ffffffff1681525050630001d6a184600281518110630001d66b57fe5b60200260200101518260c001516040015163ffffffff16630001dd07640100000000026300004776179091906401000000009004565b8160c001516040019063ffffffff16908163ffffffff1681525050630001d70684600381518110630001d6d057fe5b60200260200101518260c001516060015163ffffffff16630001dd07640100000000026300004776179091906401000000009004565b8160c001516060019063ffffffff16908163ffffffff1681525050630001d76b84600481518110630001d73557fe5b60200260200101518260c001516080015163ffffffff16630001dd07640100000000026300004776179091906401000000009004565b8160c001516080019063ffffffff16908163ffffffff1681525050630001d7d084600581518110630001d79a57fe5b60200260200101518260c0015160a0015163ffffffff16630001dd07640100000000026300004776179091906401000000009004565b8160c0015160a0019063ffffffff16908163ffffffff1681525050630001d7f7630001dec7565b604051806101e001604052808c8152602001836000015181526020018360400151815260200183606001518152602001600163ffffffff168152602001600063ffffffff168152602001600063ffffffff168152602001630001d86a8d630001dd31640100000000026401000000009004565b151581526020018b81526020018a815260200189815260200160008152602001836020015181526020018360a00151151581526020018360c001518152509050600060016009839080600181540180825580915050906001820390600052602060002090600c0201600090919290919091506000820151816000019080519060200190630001d8fc929190630001ddf0565b506020820151816001019080519060200190630001d91d929190630001ddf0565b506040820151816002019080519060200190630001d93e929190630001ddf0565b506060820151816003019080519060200190630001d95f929190630001ddf0565b5060808201518160040160006101000a81548163ffffffff021916908363ffffffff16021790555060a08201518160040160046101000a81548163ffffffff021916908363ffffffff16021790555060c08201518160040160086101000a81548163ffffffff021916908363ffffffff16021790555060e082015181600401600c6101000a81548160ff021916908315150217905550610100820151816005015561012082015181600601556101408201518160070155610160820151816008015561018082015181600901556101a082015181600a0160006101000a81548160ff0219169083151502179055506101c082015181600b0160008201518160000160006101000a81548163ffffffff021916908363ffffffff16021790555060208201518160000160046101000a81548163ffffffff021916908363ffffffff16021790555060408201518160000160086101000a81548163ffffffff021916908363ffffffff160217905550606082015181600001600c6101000a81548163ffffffff021916908363ffffffff16021790555060808201518160000160106101000a81548163ffffffff021916908363ffffffff16021790555060a08201518160000160146101000a81548163ffffffff021916908363ffffffff1602179055505050505003905033600a600083815260200190815260200160002060006101000a81548173ffffffffffffffffffffffffffffffffffffffff021916908373ffffffffffffffffffffffffffffffffffffffff160217905550630001dc006001600b60003373ffffffffffffffffffffffffffffffffffffffff1673ffffffffffffffffffffffffffffffffffffffff16815260200190815260200160002054630001ddd2640100000000026300004b9e179091906401000000009004565b600b60003373ffffffffffffffffffffffffffffffffffffffff1673ffffffffffffffffffffffffffffffffffffffff168152602001908152602001600020819055507fb2ddd0094c7d8b02387161898cbaa1bbcb4cee4731fdeceb76548071724adcd2818d8d6040518084815260200180602001838152602001828103825284818151815260200191508051906020019080838360005b83811015630001dcb7578082015181840152602081019050630001dc98565b50505050905090810190601f168015630001dce65780820380516001836020036101000a031916815260200191505b5094505050505060405180910390a180965050505050505095945050505050565b60008082840190508363ffffffff168163ffffffff161015630001dd2757fe5b8091505092915050565b600080826040516020018082805190602001908083835b60208310630001dd6f5780518252602082019150602081019050602083039250630001dd48565b6001836020036101000a03801982511681845116808217855250505050505090500191505060405160208183030381529060405280519060200120600190049050600044430190506000600282840181630001ddc757fe5b061492505050919050565b600080828401905083811015630001dde657fe5b8091505092915050565b828054600181600116156101000203166002900490600052602060002090601f016020900481019282601f10630001de3557805160ff1916838001178555630001de69565b82800160010185558215630001de69579182015b82811115630001de68578251825591602001919060010190630001de49565b5b509050630001de7a9190630001df5d565b5090565b6040518060e001604052806060815260200160008152602001606081526020016060815260200160008152602001600015158152602001630001dec1630001df88565b81525090565b604051806101e0016040528060608152602001606081526020016060815260200160608152602001600063ffffffff168152602001600063ffffffff168152602001600063ffffffff1681526020016000151581526020016000815260200160008152602001600081526020016000815260200160008152602001600015158152602001630001df57630001df88565b81525090565b630001df8591905b80821115630001df81576000816000905550600101630001df65565b5090565b90565b6040518060c00160405280600063ffffffff168152602001600063ffffffff168152602001600063ffffffff168152602001600063ffffffff168152602001600063ffffffff168152602001600063ffffffff1681525090565b615f0e80630001dff36000396000f3fe608060405260043610610352576000357c0100000000000000000000000000000000000000000000000000000000900480638da5cb5b116101c8578063ccf670f811610114578063e7572230116100b2578063f119f5671161008c578063f119f56714611870578063f2fde38b14611964578063f976b12d146119b5578063fd69f3c214611a0857610352565b8063e7572230146117d5578063e7fb74c714611824578063f11457271461185257610352565b8063d413a08a116100ee578063d413a08a146116be578063dce0b4e4146116dc578063de7fe3e714611707578063e1fa76381461179057610352565b8063ccf670f814611602578063d13114461461163d578063d3e6f49f1461166b57610352565b8063b7c6825911610181578063bdfb52691161015b578063bdfb5269146113a7578063c37fc8a81461148d578063c39cbef1146114b8578063c8e0d7741461154857610352565b8063b7c68259146112be578063b7d8622514611311578063ba8064c01461134c57610352565b80638da5cb5b14610f745780638f32d59b14610fcb578063902cf8a114610ffa5780639545bfb314611066578063a11ed1571461124b578063adae08dd1461128657610352565b806346d22c70116102a25780637004fb841161024057806372f429581161021a57806372f4295814610c6e578063835d75ab14610d2257806387f1fbf314610eb957806388c2a0bf14610f2557610352565b80637004fb8414610bba57806370a0823114610bf2578063715018a614610c5757610352565b80636352211e1161027c5780636352211e14610a6b5780636376988114610ae65780636ae0fbde14610b145780636dd25f6a14610b3f57610352565b806346d22c701461093d5780634d33fbe71461099a57806351067f0014610a4057610352565b8063255409171161030f5780632f7467b3116102e95780632f7467b3146108555780633ccfd60b146108d05780633ff7d4a0146108e757806342945e481461091257610352565b8063255409171461070457806328861d221461075f5780632d90c7a71461082657610352565b8063095ea7b3146103575780630ce90ec2146103a55780630dc2f10a146103d35780631940a936146105f057806320e124f71461064357806323b872dd14610696575b600080fd5b6103a36004803603604081101561036d57600080fd5b81019080803573ffffffffffffffffffffffffffffffffffffffff16906020019092919080359060200190929190505050611a33565b005b6103d1600480360360208110156103bb57600080fd5b8101908080359060200190929190505050611b51565b005b3480156103df57600080fd5b5061040c600480360360208110156103f657600080fd5b8101908080359060200190929190505050611f03565b60405180806020018060200180602001806020018863ffffffff1663ffffffff1681526020018781526020018615151515815260200185810385528c818151815260200191508051906020019080838360005b8381101561047a57808201518184015260208101905061045f565b50505050905090810190601f1680156104a75780820380516001836020036101000a031916815260200191505b5085810384528b818151815260200191508051906020019080838360005b838110156104e05780820151818401526020810190506104c5565b50505050905090810190601f16801561050d5780820380516001836020036101000a031916815260200191505b5085810383528a818151815260200191508051906020019080838360005b8381101561054657808201518184015260208101905061052b565b50505050905090810190601f1680156105735780820380516001836020036101000a031916815260200191505b50858103825289818151815260200191508051906020019080838360005b838110156105ac578082015181840152602081019050610591565b50505050905090810190601f1680156105d95780820380516001836020036101000a031916815260200191505b509b50505050505050505050505060405180910390f35b3480156105fc57600080fd5b506106296004803603602081101561061357600080fd5b81019080803590602001909291905050506121f2565b604051808215151515815260200191505060405180910390f35b34801561064f57600080fd5b5061067c6004803603602081101561066657600080fd5b810190808035906020019092919050505061222d565b604051808215151515815260200191505060405180910390f35b610702600480360360608110156106ac57600080fd5b81019080803573ffffffffffffffffffffffffffffffffffffffff169060200190929190803573ffffffffffffffffffffffffffffffffffffffff16906020019092919080359060200190929190505050612257565b005b34801561071057600080fd5b5061073d6004803603602081101561072757600080fd5b810190808035906020019092919050505061233b565b604051808263ffffffff1663ffffffff16815260200191505060405180910390f35b34801561076b57600080fd5b506107986004803603602081101561078257600080fd5b8101908080359060200190929190505050612378565b604051808673ffffffffffffffffffffffffffffffffffffffff1673ffffffffffffffffffffffffffffffffffffffff1681526020018573ffffffffffffffffffffffffffffffffffffffff1673ffffffffffffffffffffffffffffffffffffffff168152602001848152602001838152602001821515151581526020019550505050505060405180910390f35b34801561083257600080fd5b5061083b612408565b604051808215151515815260200191505060405180910390f35b34801561086157600080fd5b5061088e6004803603602081101561087857600080fd5b8101908080359060200190929190505050612451565b604051808273ffffffffffffffffffffffffffffffffffffffff1673ffffffffffffffffffffffffffffffffffffffff16815260200191505060405180910390f35b3480156108dc57600080fd5b506108e5612484565b005b3480156108f357600080fd5b506108fc612557565b6040518082815260200191505060405180910390f35b34801561091e57600080fd5b50610927612561565b6040518082815260200191505060405180910390f35b34801561094957600080fd5b506109806004803603604081101561096057600080fd5b81019080803590602001909291908035906020019092919050505061256e565b604051808215151515815260200191505060405180910390f35b3480156109a657600080fd5b506109e9600480360360208110156109bd57600080fd5b81019080803573ffffffffffffffffffffffffffffffffffffffff169060200190929190505050612611565b6040518080602001828103825283818151815260200191508051906020019060200280838360005b83811015610a2c578082015181840152602081019050610a11565b505050509050019250505060405180910390f35b348015610a4c57600080fd5b50610a5561274c565b6040518082815260200191505060405180910390f35b348015610a7757600080fd5b50610aa460048036036020811015610a8e57600080fd5b8101908080359060200190929190505050612793565b604051808273ffffffffffffffffffffffffffffffffffffffff1673ffffffffffffffffffffffffffffffffffffffff16815260200191505060405180910390f35b610b1260048036036020811015610afc57600080fd5b81019080803590602001909291905050506127d0565b005b348015610b2057600080fd5b50610b296129ef565b6040518082815260200191505060405180910390f35b348015610b4b57600080fd5b50610b7860048036036020811015610b6257600080fd5b81019080803590602001909291905050506129f5565b604051808663ffffffff1663ffffffff168152602001851515151581526020018481526020018381526020018281526020019550505050505060405180910390f35b610bf060048036036040811015610bd057600080fd5b810190808035906020019092919080359060200190929190505050612a65565b005b348015610bfe57600080fd5b50610c4160048036036020811015610c1557600080fd5b81019080803573ffffffffffffffffffffffffffffffffffffffff169060200190929190505050612a95565b6040518082815260200191505060405180910390f35b348015610c6357600080fd5b50610c6c612ade565b005b348015610c7a57600080fd5b50610ca760048036036020811015610c9157600080fd5b8101908080359060200190929190505050612bae565b6040518080602001828103825283818151815260200191508051906020019080838360005b83811015610ce7578082015181840152602081019050610ccc565b50505050905090810190601f168015610d145780820380516001836020036101000a031916815260200191505b509250505060405180910390f35b348015610d2e57600080fd5b50610d5b60048036036020811015610d4557600080fd5b8101908080359060200190929190505050612c71565b6040518080602001806020018060200185151515158152602001848103845288818151815260200191508051906020019080838360005b83811015610dad578082015181840152602081019050610d92565b50505050905090810190601f168015610dda5780820380516001836020036101000a031916815260200191505b50848103835287818151815260200191508051906020019080838360005b83811015610e13578082015181840152602081019050610df8565b50505050905090810190601f168015610e405780820380516001836020036101000a031916815260200191505b50848103825286818151815260200191508051906020019080838360005b83811015610e79578082015181840152602081019050610e5e565b50505050905090810190601f168015610ea65780820380516001836020036101000a031916815260200191505b5097505050505050505060405180910390f35b348015610ec557600080fd5b50610ece612e9b565b6040518080602001828103825283818151815260200191508051906020019060200280838360005b83811015610f11578082015181840152602081019050610ef6565b505050509050019250505060405180910390f35b348015610f3157600080fd5b50610f5e60048036036020811015610f4857600080fd5b8101908080359060200190929190505050612fd4565b6040518082815260200191505060405180910390f35b348015610f8057600080fd5b50610f89613088565b604051808273ffffffffffffffffffffffffffffffffffffffff1673ffffffffffffffffffffffffffffffffffffffff16815260200191505060405180910390f35b348015610fd757600080fd5b50610fe06130b1565b604051808215151515815260200191505060405180910390f35b34801561100657600080fd5b5061100f613108565b6040518080602001828103825283818151815260200191508051906020019060200280838360005b83811015611052578082015181840152602081019050611037565b505050509050019250505060405180910390f35b34801561107257600080fd5b5061109f6004803603602081101561108957600080fd5b81019080803590602001909291905050506131cd565b604051808e73ffffffffffffffffffffffffffffffffffffffff1673ffffffffffffffffffffffffffffffffffffffff1681526020018d81526020018c81526020018b815260200180602001806020018a63ffffffff1663ffffffff1681526020018963ffffffff1663ffffffff1681526020018863ffffffff1663ffffffff1681526020018763ffffffff1663ffffffff1681526020018663ffffffff1663ffffffff1681526020018563ffffffff1663ffffffff1681526020018415151515815260200183810383528c818151815260200191508051906020019080838360005b8381101561119d578082015181840152602081019050611182565b50505050905090810190601f1680156111ca5780820380516001836020036101000a031916815260200191505b5083810382528b818151815260200191508051906020019080838360005b838110156112035780820151818401526020810190506111e8565b50505050905090810190601f1680156112305780820380516001836020036101000a031916815260200191505b509f5050505050505050505050505050505060405180910390f35b34801561125757600080fd5b506112846004803603602081101561126e57600080fd5b8101908080359060200190929190505050613462565b005b6112bc6004803603604081101561129c57600080fd5b81019080803590602001909291908035906020019092919050505061347d565b005b3480156112ca57600080fd5b506112f7600480360360208110156112e157600080fd5b8101908080359060200190929190505050613773565b604051808215151515815260200191505060405180910390f35b34801561131d57600080fd5b5061134a6004803603602081101561133457600080fd5b81019080803590602001909291905050506137a4565b005b34801561135857600080fd5b506113856004803603602081101561136f57600080fd5b81019080803590602001909291905050506137bf565b604051808263ffffffff1663ffffffff16815260200191505060405180910390f35b3480156113b357600080fd5b50611477600480360360408110156113ca57600080fd5b81019080803590602001906401000000008111156113e757600080fd5b8201836020820111156113f957600080fd5b8035906020019184600183028401116401000000008311171561141b57600080fd5b91908080601f016020809104026020016040519081016040528093929190818152602001838380828437600081840152601f19601f82011690508083019250505050505050919291929080359060200190929190505050613897565b6040518082815260200191505060405180910390f35b34801561149957600080fd5b506114a261392b565b6040518082815260200191505060405180910390f35b3480156114c457600080fd5b50611546600480360360408110156114db57600080fd5b81019080803590602001909291908035906020019064010000000081111561150257600080fd5b82018360208201111561151457600080fd5b8035906020019184600183028401116401000000008311171561153657600080fd5b9091929391929390505050613972565b005b34801561155457600080fd5b506115816004803603602081101561156b57600080fd5b81019080803590602001909291905050506139eb565b604051808763ffffffff1663ffffffff1681526020018663ffffffff1663ffffffff1681526020018563ffffffff1663ffffffff1681526020018463ffffffff1663ffffffff1681526020018363ffffffff1663ffffffff1681526020018263ffffffff1663ffffffff168152602001965050505050505060405180910390f35b34801561160e57600080fd5b5061163b6004803603602081101561162557600080fd5b8101908080359060200190929190505050613aaa565b005b6116696004803603602081101561165357600080fd5b8101908080359060200190929190505050613ac5565b005b34801561167757600080fd5b506116a46004803603602081101561168e57600080fd5b8101908080359060200190929190505050613cd3565b604051808215151515815260200191505060405180910390f35b6116c6613d14565b6040518082815260200191505060405180910390f35b3480156116e857600080fd5b506116f1613dfc565b6040518082815260200191505060405180910390f35b34801561171357600080fd5b506117406004803603602081101561172a57600080fd5b8101908080359060200190929190505050613e02565b604051808473ffffffffffffffffffffffffffffffffffffffff1673ffffffffffffffffffffffffffffffffffffffff168152602001838152602001828152602001935050505060405180910390f35b34801561179c57600080fd5b506117d3600480360360408110156117b357600080fd5b810190808035906020019092919080359060200190929190505050613e62565b005b3480156117e157600080fd5b5061180e600480360360208110156117f857600080fd5b8101908080359060200190929190505050613ed3565b6040518082815260200191505060405180910390f35b6118506004803603602081101561183a57600080fd5b8101908080359060200190929190505050613efb565b005b61185a614152565b6040518082815260200191505060405180910390f35b34801561187c57600080fd5b506118a96004803603602081101561189357600080fd5b810190808035906020019092919050505061423a565b60405180806020018681526020018563ffffffff1663ffffffff1681526020018463ffffffff1663ffffffff1681526020018363ffffffff1663ffffffff168152602001828103825287818151815260200191508051906020019080838360005b8381101561192557808201518184015260208101905061190a565b50505050905090810190601f1680156119525780820380516001836020036101000a031916815260200191505b50965050505050505060405180910390f35b34801561197057600080fd5b506119b36004803603602081101561198757600080fd5b81019080803573ffffffffffffffffffffffffffffffffffffffff1690602001909291905050506146e3565b005b3480156119c157600080fd5b506119ee600480360360208110156119d857600080fd5b8101908080359060200190929190505050614700565b604051808215151515815260200191505060405180910390f35b348015611a1457600080fd5b50611a1d614769565b6040518082815260200191505060405180910390f35b80600a600082815260200190815260200160002060009054906101000a900473ffffffffffffffffffffffffffffffffffffffff1673ffffffffffffffffffffffffffffffffffffffff163373ffffffffffffffffffffffffffffffffffffffff1614611a9f57600080fd5b82600f600084815260200190815260200160002060006101000a81548173ffffffffffffffffffffffffffffffffffffffff021916908373ffffffffffffffffffffffffffffffffffffffff160217905550818373ffffffffffffffffffffffffffffffffffffffff163373ffffffffffffffffffffffffffffffffffffffff167f8c5be1e5ebec7d5bd14f71427d1e84f3dd0314c0f7b2291e5b200ac8c7c3b92560405160405180910390a4505050565b80600a600082815260200190815260200160002060009054906101000a900473ffffffffffffffffffffffffffffffffffffffff1673ffffffffffffffffffffffffffffffffffffffff163373ffffffffffffffffffffffffffffffffffffffff1614611bbd57600080fd5b600d543414611bcb57600080fd5b34600e60003073ffffffffffffffffffffffffffffffffffffffff1673ffffffffffffffffffffffffffffffffffffffff16815260200190815260200160002060008282540192505081905550600060098381548110611c2757fe5b90600052602060002090600c02019050611c7f600160098581548110611c4957fe5b90600052602060002090600c020160040160009054906101000a900463ffffffff1663ffffffff1661477690919063ffffffff16565b8160040160006101000a81548163ffffffff021916908363ffffffff160217905550611cd2600582600b0160000160009054906101000a900463ffffffff1663ffffffff1661477690919063ffffffff16565b81600b0160000160006101000a81548163ffffffff021916908363ffffffff160217905550611d28600282600b0160000160049054906101000a900463ffffffff1663ffffffff1661477690919063ffffffff16565b81600b0160000160046101000a81548163ffffffff021916908363ffffffff160217905550611d7e600282600b0160000160089054906101000a900463ffffffff1663ffffffff1661477690919063ffffffff16565b81600b0160000160086101000a81548163ffffffff021916908363ffffffff160217905550611dd4600182600b01600001600c9054906101000a900463ffffffff1663ffffffff1661477690919063ffffffff16565b81600b01600001600c6101000a81548163ffffffff021916908363ffffffff160217905550611e2a600182600b0160000160109054906101000a900463ffffffff1663ffffffff1661477690919063ffffffff16565b81600b0160000160106101000a81548163ffffffff021916908363ffffffff160217905550611e80600282600b0160000160149054906101000a900463ffffffff1663ffffffff1661477690919063ffffffff16565b81600b0160000160146101000a81548163ffffffff021916908363ffffffff1602179055507f3d81d1ad835628fb7aaf501fe84126e79b4f4b0ca7664653bec4a6e968d27715838260040160009054906101000a900463ffffffff16604051808381526020018263ffffffff1681526020019250505060405180910390a1505050565b60608060608060008060008060098981548110611f1c57fe5b90600052602060002090600c02019050806000018160010182600201836003018460040160009054906101000a900463ffffffff16856009015486600a0160009054906101000a900460ff16868054600181600116156101000203166002900480601f016020809104026020016040519081016040528092919081815260200182805460018160011615610100020316600290048015611ffd5780601f10611fd257610100808354040283529160200191611ffd565b820191906000526020600020905b815481529060010190602001808311611fe057829003601f168201915b50505050509650858054600181600116156101000203166002900480601f0160208091040260200160405190810160405280929190818152602001828054600181600116156101000203166002900480156120995780601f1061206e57610100808354040283529160200191612099565b820191906000526020600020905b81548152906001019060200180831161207c57829003601f168201915b50505050509550848054600181600116156101000203166002900480601f0160208091040260200160405190810160405280929190818152602001828054600181600116156101000203166002900480156121355780601f1061210a57610100808354040283529160200191612135565b820191906000526020600020905b81548152906001019060200180831161211857829003601f168201915b50505050509450838054600181600116156101000203166002900480601f0160208091040260200160405190810160405280929190818152602001828054600181600116156101000203166002900480156121d15780601f106121a6576101008083540402835291602001916121d1565b820191906000526020600020905b8154815290600101906020018083116121b457829003601f168201915b50505050509350975097509750975097509750975050919395979092949650565b6000816000811161220257600080fd5b60006009848154811061221157fe5b90600052602060002090600c0201600801541415915050919050565b60006011600083815260200190815260200160002060009054906101000a900460ff169050919050565b3373ffffffffffffffffffffffffffffffffffffffff16600a600083815260200190815260200160002060009054906101000a900473ffffffffffffffffffffffffffffffffffffffff1673ffffffffffffffffffffffffffffffffffffffff16148061232257503373ffffffffffffffffffffffffffffffffffffffff16600f600083815260200190815260200160002060009054906101000a900473ffffffffffffffffffffffffffffffffffffffff1673ffffffffffffffffffffffffffffffffffffffff16145b61232b57600080fd5b61233683838361479e565b505050565b6000806009838154811061234b57fe5b90600052602060002090600c020190508060040160049054906101000a900463ffffffff16915050919050565b6010818154811061238557fe5b90600052602060002090600502016000915090508060000160009054906101000a900473ffffffffffffffffffffffffffffffffffffffff16908060010160009054906101000a900473ffffffffffffffffffffffffffffffffffffffff16908060020154908060030154908060040160009054906101000a900460ff16905085565b600080600b60003373ffffffffffffffffffffffffffffffffffffffff1673ffffffffffffffffffffffffffffffffffffffff1681526020019081526020016000205414905090565b600a6020528060005260406000206000915054906101000a900473ffffffffffffffffffffffffffffffffffffffff1681565b6000600e60003373ffffffffffffffffffffffffffffffffffffffff1673ffffffffffffffffffffffffffffffffffffffff1681526020019081526020016000205490506000600e60003373ffffffffffffffffffffffffffffffffffffffff1673ffffffffffffffffffffffffffffffffffffffff168152602001908152602001600020819055503373ffffffffffffffffffffffffffffffffffffffff166108fc829081150290604051600060405180830381858888f19350505050158015612553573d6000803e3d6000fd5b5050565b6000601354905090565b6000600980549050905090565b600080831161257c57600080fd5b6000821161258957600080fd5b60006009848154811061259857fe5b90600052602060002090600c020190506000600984815481106125b757fe5b90600052602060002090600c020190506125d3828683876149ef565b80156125e557506125e48585614abc565b5b80156125f657506125f585613cd3565b5b8015612607575061260684613cd3565b5b9250505092915050565b606080600b60008473ffffffffffffffffffffffffffffffffffffffff1673ffffffffffffffffffffffffffffffffffffffff168152602001908152602001600020546040519080825280602002602001820160405280156126825781602001602082028038833980820191505090505b509050600080905060008090505b600980549050811015612741578473ffffffffffffffffffffffffffffffffffffffff16600a600083815260200190815260200160002060009054906101000a900473ffffffffffffffffffffffffffffffffffffffff1673ffffffffffffffffffffffffffffffffffffffff161415612734578083838151811061271157fe5b602002602001018181525050612731600183614b9e90919063ffffffff16565b91505b8080600101915050612690565b508192505050919050565b6000600b60003373ffffffffffffffffffffffffffffffffffffffff1673ffffffffffffffffffffffffffffffffffffffff16815260200190815260200160002054905090565b6000600a600083815260200190815260200160002060009054906101000a900473ffffffffffffffffffffffffffffffffffffffff169050919050565b80600a600082815260200190815260200160002060009054906101000a900473ffffffffffffffffffffffffffffffffffffffff1673ffffffffffffffffffffffffffffffffffffffff163373ffffffffffffffffffffffffffffffffffffffff161461283c57600080fd5b60006012600084815260200190815260200160002054905060006010828154811061286357fe5b906000526020600020906005020190508060040160009054906101000a900460ff161561288f57600080fd5b6000600a600086815260200190815260200160002060009054906101000a900473ffffffffffffffffffffffffffffffffffffffff1690503373ffffffffffffffffffffffffffffffffffffffff168173ffffffffffffffffffffffffffffffffffffffff16146128ff57600080fd5b60018260040160006101000a81548160ff02191690831515021790555060006011600087815260200190815260200160002060006101000a81548160ff021916908315150217905550600060126000878152602001908152602001600020819055506129776001601354614bba90919063ffffffff16565b6013819055507f051f6120f5794a9a84034919c375e49b1e3f0f73d6ad862251984545379d5fc68333604051808381526020018273ffffffffffffffffffffffffffffffffffffffff1673ffffffffffffffffffffffffffffffffffffffff1681526020019250505060405180910390a15050505050565b600c5481565b60008060008060008060098781548110612a0b57fe5b90600052602060002090600c020190508060040160089054906101000a900463ffffffff1681600401600c9054906101000a900460ff16826006015483600701548460080154955095509550955095505091939590929450565b600c54341015612a7457600080fd5b612a7e828261256e565b612a8757600080fd5b612a918282614bd1565b5050565b6000600b60008373ffffffffffffffffffffffffffffffffffffffff1673ffffffffffffffffffffffffffffffffffffffff168152602001908152602001600020549050919050565b612ae66130b1565b612aef57600080fd5b600073ffffffffffffffffffffffffffffffffffffffff166000809054906101000a900473ffffffffffffffffffffffffffffffffffffffff1673ffffffffffffffffffffffffffffffffffffffff167f8be0079c531659141344cd1fd0a4f28419497f9722a3daafe3b4186f6b6457e060405160405180910390a360008060006101000a81548173ffffffffffffffffffffffffffffffffffffffff021916908373ffffffffffffffffffffffffffffffffffffffff160217905550565b606060036001830381548110612bc057fe5b90600052602060002090600702016000018054600181600116156101000203166002900480601f016020809104026020016040519081016040528092919081815260200182805460018160011615610100020316600290048015612c655780601f10612c3a57610100808354040283529160200191612c65565b820191906000526020600020905b815481529060010190602001808311612c4857829003601f168201915b50505050509050919050565b606080606060008060036001870381548110612c8957fe5b906000526020600020906007020190508060000181600201826003018360050160009054906101000a900460ff16838054600181600116156101000203166002900480601f016020809104026020016040519081016040528092919081815260200182805460018160011615610100020316600290048015612d4c5780601f10612d2157610100808354040283529160200191612d4c565b820191906000526020600020905b815481529060010190602001808311612d2f57829003601f168201915b50505050509350828054600181600116156101000203166002900480601f016020809104026020016040519081016040528092919081815260200182805460018160011615610100020316600290048015612de85780601f10612dbd57610100808354040283529160200191612de8565b820191906000526020600020905b815481529060010190602001808311612dcb57829003601f168201915b50505050509250818054600181600116156101000203166002900480601f016020809104026020016040519081016040528092919081815260200182805460018160011615610100020316600290048015612e845780601f10612e5957610100808354040283529160200191612e84565b820191906000526020600020905b815481529060010190602001808311612e6757829003601f168201915b505050505091509450945094509450509193509193565b606080600b60003373ffffffffffffffffffffffffffffffffffffffff1673ffffffffffffffffffffffffffffffffffffffff16815260200190815260200160002054604051908082528060200260200182016040528015612f0c5781602001602082028038833980820191505090505b509050600080905060008090505b600980549050811015612fcb573373ffffffffffffffffffffffffffffffffffffffff16600a600083815260200190815260200160002060009054906101000a900473ffffffffffffffffffffffffffffffffffffffff1673ffffffffffffffffffffffffffffffffffffffff161415612fbe5780838381518110612f9b57fe5b602002602001018181525050612fbb600183614b9e90919063ffffffff16565b91505b8080600101915050612f1a565b50819250505090565b60008160008111612fe457600080fd5b612fed836121f2565b612ff657600080fd5b60006009848154811061300557fe5b90600052602060002090600c0201905061301e81614c7a565b61302757600080fd5b60008160080154905060006130726040518060400160405280600681526020017f6e6f4e616d6500000000000000000000000000000000000000000000000000008152508388614ca1565b9050826008016000905580945050505050919050565b60008060009054906101000a900473ffffffffffffffffffffffffffffffffffffffff16905090565b60008060009054906101000a900473ffffffffffffffffffffffffffffffffffffffff1673ffffffffffffffffffffffffffffffffffffffff163373ffffffffffffffffffffffffffffffffffffffff1614905090565b60608060135460405190808252806020026020018201604052801561313c5781602001602082028038833980820191505090505b509050600080905060008090505b6010805490508110156131c4576010818154811061316457fe5b906000526020600020906005020160040160009054906101000a900460ff166131b7578083838151811061319457fe5b6020026020010181815250506131b4600183614b9e90919063ffffffff16565b91505b808060010191505061314a565b50819250505090565b60008060008060608060008060008060008060008060108f815481106131ef57fe5b906000526020600020906005020190506000600982600201548154811061321257fe5b90600052602060002090600c020190508160010160009054906101000a900473ffffffffffffffffffffffffffffffffffffffff16826002015483600301548360090154846000018560020186600b0160000160009054906101000a900463ffffffff1687600b0160000160049054906101000a900463ffffffff1688600b0160000160089054906101000a900463ffffffff1689600b01600001600c9054906101000a900463ffffffff168a600b0160000160109054906101000a900463ffffffff168b60040160009054906101000a900463ffffffff168c600401600c9054906101000a900460ff16888054600181600116156101000203166002900480601f0160208091040260200160405190810160405280929190818152602001828054600181600116156101000203166002900480156133925780601f1061336757610100808354040283529160200191613392565b820191906000526020600020905b81548152906001019060200180831161337557829003601f168201915b50505050509850878054600181600116156101000203166002900480601f01602080910402602001604051908101604052809291908181526020018280546001816001161561010002031660029004801561342e5780601f106134035761010080835404028352916020019161342e565b820191906000526020600020905b81548152906001019060200180831161341157829003601f168201915b505050505097509e509e509e509e509e509e509e509e509e509e509e509e509e50505091939597999b9d90929496989a9c50565b61346a6130b1565b61347357600080fd5b80600c8190555050565b816011600082815260200190815260200160002060009054906101000a900460ff16156134a957600080fd5b82600a600082815260200190815260200160002060009054906101000a900473ffffffffffffffffffffffffffffffffffffffff1673ffffffffffffffffffffffffffffffffffffffff163373ffffffffffffffffffffffffffffffffffffffff161461351557600080fd5b60145434101561352457600080fd5b6000831161353157600080fd5b613539615b9f565b33816020019073ffffffffffffffffffffffffffffffffffffffff16908173ffffffffffffffffffffffffffffffffffffffff1681525050848160400181815250508381606001818152505060008160800190151590811515815250506010819080600181540180825580915050906001820390600052602060002090600502016000909192909190915060008201518160000160006101000a81548173ffffffffffffffffffffffffffffffffffffffff021916908373ffffffffffffffffffffffffffffffffffffffff16021790555060208201518160010160006101000a81548173ffffffffffffffffffffffffffffffffffffffff021916908373ffffffffffffffffffffffffffffffffffffffff160217905550604082015181600201556060820151816003015560808201518160040160006101000a81548160ff02191690831515021790555050505060016011600087815260200190815260200160002060006101000a81548160ff02191690831515021790555060016010805490500360126000878152602001908152602001600020819055506136eb6001601354614b9e90919063ffffffff16565b6013819055507fb4bba01ed96318ae148503828dce3c6232944f11f5fa7b3281f4010f7c31934f6001601080549050038633604051808481526020018381526020018273ffffffffffffffffffffffffffffffffffffffff1673ffffffffffffffffffffffffffffffffffffffff168152602001935050505060405180910390a15050505050565b6000806009838154811061378357fe5b90600052602060002090600c0201905061379c81614c7a565b915050919050565b6137ac6130b1565b6137b557600080fd5b8060148190555050565b600081600a600082815260200190815260200160002060009054906101000a900473ffffffffffffffffffffffffffffffffffffffff1673ffffffffffffffffffffffffffffffffffffffff163373ffffffffffffffffffffffffffffffffffffffff161461382d57600080fd5b613836836121f2565b61383f57600080fd5b60006009848154811061384e57fe5b90600052602060002090600c0201905061386781614c7a565b15613876576000925050613891565b438160040160089054906101000a900463ffffffff16039250505b50919050565b600080600b60003373ffffffffffffffffffffffffffffffffffffffff1673ffffffffffffffffffffffffffffffffffffffff16815260200190815260200160002054146138e457600080fd5b60008214806138f35750600382145b806138fe5750600682145b61390757600080fd5b600061391284614d0c565b9050613922848260008087614da5565b91505092915050565b6000600e60003373ffffffffffffffffffffffffffffffffffffffff1673ffffffffffffffffffffffffffffffffffffffff16815260200190815260200160002054905090565b600283816009828154811061398357fe5b90600052602060002090600c020160040160009054906101000a900463ffffffff1663ffffffff1610156139b657600080fd5b8383600987815481106139c557fe5b90600052602060002090600c020160010191906139e3929190615bfc565b505050505050565b600080600080600080600060098881548110613a0357fe5b90600052602060002090600c0201600b0190508060000160009054906101000a900463ffffffff168160000160049054906101000a900463ffffffff168260000160089054906101000a900463ffffffff1683600001600c9054906101000a900463ffffffff168460000160109054906101000a900463ffffffff168560000160149054906101000a900463ffffffff169650965096509650965096505091939550919395565b613ab26130b1565b613abb57600080fd5b80600d8190555050565b600060108281548110613ad457fe5b906000526020600020906005020190508060040160009054906101000a900460ff1615613b0057600080fd5b600081600201549050600a600082815260200190815260200160002060009054906101000a900473ffffffffffffffffffffffffffffffffffffffff1673ffffffffffffffffffffffffffffffffffffffff163373ffffffffffffffffffffffffffffffffffffffff1614613b7457600080fd5b6000600a600083815260200190815260200160002060009054906101000a900473ffffffffffffffffffffffffffffffffffffffff1690503373ffffffffffffffffffffffffffffffffffffffff168173ffffffffffffffffffffffffffffffffffffffff1614613be457600080fd5b60018360040160006101000a81548160ff02191690831515021790555060006011600084815260200190815260200160002060006101000a81548160ff02191690831515021790555060006012600084815260200190815260200160002081905550613c5c6001601354614bba90919063ffffffff16565b6013819055507f051f6120f5794a9a84034919c375e49b1e3f0f73d6ad862251984545379d5fc68433604051808381526020018273ffffffffffffffffffffffffffffffffffffffff1673ffffffffffffffffffffffffffffffffffffffff1681526020019250505060405180910390a150505050565b60008160008111613ce357600080fd5b600060098481548110613cf257fe5b90600052602060002090600c02019050613d0b8161583c565b92505050919050565b600067d02ab486cedc00003414613d93576040517f08c379a000000000000000000000000000000000000000000000000000000000815260040180806020018281038252601a8152602001807f612072617265207061636b20636f73747320313520657468657200000000000081525060200191505060405180910390fd5b67d02ab486cedc0000600e6000613da8613088565b73ffffffffffffffffffffffffffffffffffffffff1673ffffffffffffffffffffffffffffffffffffffff16815260200190815260200160002060008282540192505081905550613df761585d565b905090565b60145481565b60008060008060108581548110613e1557fe5b906000526020600020906005020190508060010160009054906101000a900473ffffffffffffffffffffffffffffffffffffffff1681600201548260030154935093509350509193909250565b81600a600082815260200190815260200160002060009054906101000a900473ffffffffffffffffffffffffffffffffffffffff1673ffffffffffffffffffffffffffffffffffffffff163373ffffffffffffffffffffffffffffffffffffffff1614613ece57600080fd5b505050565b600060108281548110613ee257fe5b9060005260206000209060050201600301549050919050565b600060108281548110613f0a57fe5b9060005260206000209060050201905080600301543414613f2a57600080fd5b8060040160009054906101000a900460ff1615613f4657600080fd5b6000816002015490506000600a600083815260200190815260200160002060009054906101000a900473ffffffffffffffffffffffffffffffffffffffff1690503373ffffffffffffffffffffffffffffffffffffffff168173ffffffffffffffffffffffffffffffffffffffff161415613fc057600080fd5b338360000160006101000a81548173ffffffffffffffffffffffffffffffffffffffff021916908373ffffffffffffffffffffffffffffffffffffffff16021790555060018360040160006101000a81548160ff02191690831515021790555034600e60008373ffffffffffffffffffffffffffffffffffffffff1673ffffffffffffffffffffffffffffffffffffffff1681526020019081526020016000206000828254019250508190555061407881338461479e565b60006011600084815260200190815260200160002060006101000a81548160ff021916908315150217905550600060126000848152602001908152602001600020819055506140d36001601354614bba90919063ffffffff16565b6013819055507f8b15f7ec593ff64692c5eeca12f3f4cd26f933b7bf5286f4322e22ebd2478e38848333604051808481526020018381526020018273ffffffffffffffffffffffffffffffffffffffff1673ffffffffffffffffffffffffffffffffffffffff168152602001935050505060405180910390a150505050565b60006714d1120d7b16000034146141d1576040517f08c379a000000000000000000000000000000000000000000000000000000000815260040180806020018281038252601e8152602001807f612073746172746572207061636b20636f73747320312e35206574686572000081525060200191505060405180910390fd5b6714d1120d7b160000600e60006141e6613088565b73ffffffffffffffffffffffffffffffffffffffff1673ffffffffffffffffffffffffffffffffffffffff16815260200190815260200160002060008282540192505081905550614235615921565b905090565b606060008060008085600a600082815260200190815260200160002060009054906101000a900473ffffffffffffffffffffffffffffffffffffffff1673ffffffffffffffffffffffffffffffffffffffff163373ffffffffffffffffffffffffffffffffffffffff16146142ae57600080fd5b6142b787614700565b6142c057600080fd5b6000600988815481106142cf57fe5b90600052602060002090600c02019050614310600c82600b0160000160009054906101000a900463ffffffff1663ffffffff1661477690919063ffffffff16565b81600b0160000160006101000a81548163ffffffff021916908363ffffffff160217905550614366600682600b0160000160049054906101000a900463ffffffff1663ffffffff1661477690919063ffffffff16565b81600b0160000160046101000a81548163ffffffff021916908363ffffffff1602179055506143bc600682600b0160000160089054906101000a900463ffffffff1663ffffffff1661477690919063ffffffff16565b81600b0160000160086101000a81548163ffffffff021916908363ffffffff160217905550614412600682600b01600001600c9054906101000a900463ffffffff1663ffffffff1661477690919063ffffffff16565b81600b01600001600c6101000a81548163ffffffff021916908363ffffffff160217905550614468600682600b0160000160109054906101000a900463ffffffff1663ffffffff1661477690919063ffffffff16565b81600b0160000160106101000a81548163ffffffff021916908363ffffffff1602179055506144be600682600b0160000160149054906101000a900463ffffffff1663ffffffff1661477690919063ffffffff16565b81600b0160000160146101000a81548163ffffffff021916908363ffffffff1602179055506000600160008360090154815260200190815260200160002054905060006003600183038154811061451157fe5b906000526020600020906007020190508181600101541461453157600080fd5b80600001836001019080546001816001161561010002031660029004614558929190615c7c565b5081836009018190555080600201836002019080546001816001161561010002031660029004614589929190615c7c565b50806003018360030190805460018160011615610100020316600290046145b1929190615c7c565b508060050160009054906101000a900460ff1683600a0160006101000a81548160ff02191690831515021790555082600101836009015484600b0160000160009054906101000a900463ffffffff1685600b0160000160049054906101000a900463ffffffff1686600b0160000160089054906101000a900463ffffffff16848054600181600116156101000203166002900480601f0160208091040260200160405190810160405280929190818152602001828054600181600116156101000203166002900480156146c55780601f1061469a576101008083540402835291602001916146c5565b820191906000526020600020905b8154815290600101906020018083116146a857829003601f168201915b50505050509450985098509850985098505050505091939590929450565b6146eb6130b1565b6146f457600080fd5b6146fd816159e2565b50565b6000806009838154811061471057fe5b90600052602060002090600c020190506000816009015490506000600160008381526020019081526020016000205414158015614760575080600160008381526020019081526020016000205414155b92505050919050565b6000601080549050905090565b60008082840190508363ffffffff168163ffffffff16101561479457fe5b8091505092915050565b600073ffffffffffffffffffffffffffffffffffffffff168273ffffffffffffffffffffffffffffffffffffffff1614156147d857600080fd5b3073ffffffffffffffffffffffffffffffffffffffff168273ffffffffffffffffffffffffffffffffffffffff16141561481157600080fd5b6148646001600b60008573ffffffffffffffffffffffffffffffffffffffff1673ffffffffffffffffffffffffffffffffffffffff16815260200190815260200160002054614b9e90919063ffffffff16565b600b60008473ffffffffffffffffffffffffffffffffffffffff1673ffffffffffffffffffffffffffffffffffffffff168152602001908152602001600020819055506148fa6001600b60008673ffffffffffffffffffffffffffffffffffffffff1673ffffffffffffffffffffffffffffffffffffffff16815260200190815260200160002054614bba90919063ffffffff16565b600b60008573ffffffffffffffffffffffffffffffffffffffff1673ffffffffffffffffffffffffffffffffffffffff1681526020019081526020016000208190555081600a600083815260200190815260200160002060006101000a81548173ffffffffffffffffffffffffffffffffffffffff021916908373ffffffffffffffffffffffffffffffffffffffff160217905550808273ffffffffffffffffffffffffffffffffffffffff168473ffffffffffffffffffffffffffffffffffffffff167fddf252ad1be2c89b69c2b068fc378daa952ba7f163c4a11628f55a4df523b3ef60405160405180910390a4505050565b600081841415614a025760009050614ab4565b84600401600c9054906101000a900460ff1680614a2e575082600401600c9054906101000a900460ff16155b15614a3c5760009050614ab4565b8185600601541480614a515750838360070154145b15614a5f5760009050614ab4565b600085600701541480614a76575060008360070154145b15614a845760019050614ab4565b826006015485600601541480614aa1575082600701548560070154145b15614aaf5760009050614ab4565b600190505b949350505050565b6000600a600084815260200190815260200160002060009054906101000a900473ffffffffffffffffffffffffffffffffffffffff1673ffffffffffffffffffffffffffffffffffffffff163373ffffffffffffffffffffffffffffffffffffffff1614614b2957600080fd5b600a600083815260200190815260200160002060009054906101000a900473ffffffffffffffffffffffffffffffffffffffff1673ffffffffffffffffffffffffffffffffffffffff163373ffffffffffffffffffffffffffffffffffffffff1614614b9457600080fd5b6001905092915050565b600080828401905083811015614bb057fe5b8091505092915050565b600082821115614bc657fe5b818303905092915050565b600060098381548110614be057fe5b90600052602060002090600c02019050818160080181905550614c0281615ada565b7f6b4808987a5cecdf67d54ca5dc20664fafca80ef7195097800c12549245ab20d338484604051808473ffffffffffffffffffffffffffffffffffffffff1673ffffffffffffffffffffffffffffffffffffffff168152602001838152602001828152602001935050505060405180910390a1505050565b6000438260040160089054906101000a900463ffffffff1663ffffffff1611159050919050565b60008060098381548110614cb157fe5b90600052602060002090600c020190506000816009015490506000600160026000848152602001908152602001600020540390506000614cf088614d0c565b9050614cff8882898986614da5565b9450505050509392505050565b600080826040516020018082805190602001908083835b60208310614d465780518252602082019150602081019050602083039250614d23565b6001836020036101000a038019825116818451168082178552505050505050905001915050604051602081830303815290604052805190602001206001900490506000444301905060055481830181614d9b57fe5b0692505050919050565b600060606006604051908082528060200260200182016040528015614dd95781602001602082028038833980820191505090505b5090506000869050600080600090505b6006811015614e4257600a8381614dfc57fe5b06915081848281518110614e0c57fe5b602002602001019063ffffffff16908163ffffffff1681525050600a82840381614e3257fe5b0492508080600101915050614de9565b50614e4b615d03565b60038681548110614e5857fe5b90600052602060002090600702016040518060e0016040529081600082018054600181600116156101000203166002900480601f016020809104026020016040519081016040528092919081815260200182805460018160011615610100020316600290048015614f0a5780601f10614edf57610100808354040283529160200191614f0a565b820191906000526020600020905b815481529060010190602001808311614eed57829003601f168201915b5050505050815260200160018201548152602001600282018054600181600116156101000203166002900480601f016020809104026020016040519081016040528092919081815260200182805460018160011615610100020316600290048015614fb65780601f10614f8b57610100808354040283529160200191614fb6565b820191906000526020600020905b815481529060010190602001808311614f9957829003601f168201915b50505050508152602001600382018054600181600116156101000203166002900480601f0160208091040260200160405190810160405280929190818152602001828054600181600116156101000203166002900480156150585780601f1061502d57610100808354040283529160200191615058565b820191906000526020600020905b81548152906001019060200180831161503b57829003601f168201915b50505050508152602001600482015481526020016005820160009054906101000a900460ff16151515158152602001600682016040518060c00160405290816000820160009054906101000a900463ffffffff1663ffffffff1663ffffffff1681526020016000820160049054906101000a900463ffffffff1663ffffffff1663ffffffff1681526020016000820160089054906101000a900463ffffffff1663ffffffff1663ffffffff16815260200160008201600c9054906101000a900463ffffffff1663ffffffff1663ffffffff1681526020016000820160109054906101000a900463ffffffff1663ffffffff1663ffffffff1681526020016000820160149054906101000a900463ffffffff1663ffffffff1663ffffffff16815250508152505090506151b58460008151811061519057fe5b60200260200101518260c001516000015163ffffffff1661477690919063ffffffff16565b8160c001516000019063ffffffff16908163ffffffff1681525050615205846001815181106151e057fe5b60200260200101518260c001516020015163ffffffff1661477690919063ffffffff16565b8160c001516020019063ffffffff16908163ffffffff16815250506152558460028151811061523057fe5b60200260200101518260c001516040015163ffffffff1661477690919063ffffffff16565b8160c001516040019063ffffffff16908163ffffffff16815250506152a58460038151811061528057fe5b60200260200101518260c001516060015163ffffffff1661477690919063ffffffff16565b8160c001516060019063ffffffff16908163ffffffff16815250506152f5846004815181106152d057fe5b60200260200101518260c001516080015163ffffffff1661477690919063ffffffff16565b8160c001516080019063ffffffff16908163ffffffff16815250506153458460058151811061532057fe5b60200260200101518260c0015160a0015163ffffffff1661477690919063ffffffff16565b8160c0015160a0019063ffffffff16908163ffffffff1681525050615368615d48565b604051806101e001604052808c8152602001836000015181526020018360400151815260200183606001518152602001600163ffffffff168152602001600063ffffffff168152602001600063ffffffff1681526020016153c88d615b04565b151581526020018b81526020018a815260200189815260200160008152602001836020015181526020018360a00151151581526020018360c001518152509050600060016009839080600181540180825580915050906001820390600052602060002090600c0201600090919290919091506000820151816000019080519060200190615456929190615dda565b506020820151816001019080519060200190615473929190615dda565b506040820151816002019080519060200190615490929190615dda565b5060608201518160030190805190602001906154ad929190615dda565b5060808201518160040160006101000a81548163ffffffff021916908363ffffffff16021790555060a08201518160040160046101000a81548163ffffffff021916908363ffffffff16021790555060c08201518160040160086101000a81548163ffffffff021916908363ffffffff16021790555060e082015181600401600c6101000a81548160ff021916908315150217905550610100820151816005015561012082015181600601556101408201518160070155610160820151816008015561018082015181600901556101a082015181600a0160006101000a81548160ff0219169083151502179055506101c082015181600b0160008201518160000160006101000a81548163ffffffff021916908363ffffffff16021790555060208201518160000160046101000a81548163ffffffff021916908363ffffffff16021790555060408201518160000160086101000a81548163ffffffff021916908363ffffffff160217905550606082015181600001600c6101000a81548163ffffffff021916908363ffffffff16021790555060808201518160000160106101000a81548163ffffffff021916908363ffffffff16021790555060a08201518160000160146101000a81548163ffffffff021916908363ffffffff1602179055505050505003905033600a600083815260200190815260200160002060006101000a81548173ffffffffffffffffffffffffffffffffffffffff021916908373ffffffffffffffffffffffffffffffffffffffff16021790555061573b6001600b60003373ffffffffffffffffffffffffffffffffffffffff1673ffffffffffffffffffffffffffffffffffffffff16815260200190815260200160002054614b9e90919063ffffffff16565b600b60003373ffffffffffffffffffffffffffffffffffffffff1673ffffffffffffffffffffffffffffffffffffffff168152602001908152602001600020819055507fb2ddd0094c7d8b02387161898cbaa1bbcb4cee4731fdeceb76548071724adcd2818d8d6040518084815260200180602001838152602001828103825284818151815260200191508051906020019080838360005b838110156157ee5780820151818401526020810190506157d3565b50505050905090810190601f16801561581b5780820380516001836020036101000a031916815260200191505b5094505050505060405180910390a180965050505050505095945050505050565b6000808260080154148015615856575061585582614c7a565b5b9050919050565b600080600a4443018161586c57fe5b0660016003805490500303905060006001600260008481526020019081526020016000205403905060006158d46040518060400160405280600681526020017f4e6f4e616d650000000000000000000000000000000000000000000000000000815250614d0c565b90506159196040518060400160405280600681526020017f4e6f4e616d6500000000000000000000000000000000000000000000000000008152508260008086614da5565b935050505090565b600080600a600380549050034443018161593757fe5b06905060006001600260008481526020019081526020016000205403905060006159956040518060400160405280600681526020017f4e6f4e616d650000000000000000000000000000000000000000000000000000815250614d0c565b90506159da6040518060400160405280600681526020017f4e6f4e616d6500000000000000000000000000000000000000000000000000008152508260008086614da5565b935050505090565b600073ffffffffffffffffffffffffffffffffffffffff168173ffffffffffffffffffffffffffffffffffffffff161415615a1c57600080fd5b8073ffffffffffffffffffffffffffffffffffffffff166000809054906101000a900473ffffffffffffffffffffffffffffffffffffffff1673ffffffffffffffffffffffffffffffffffffffff167f8be0079c531659141344cd1fd0a4f28419497f9722a3daafe3b4186f6b6457e060405160405180910390a3806000806101000a81548173ffffffffffffffffffffffffffffffffffffffff021916908373ffffffffffffffffffffffffffffffffffffffff16021790555050565b60075443018160040160086101000a81548163ffffffff021916908363ffffffff16021790555050565b600080826040516020018082805190602001908083835b60208310615b3e5780518252602082019150602081019050602083039250615b1b565b6001836020036101000a03801982511681845116808217855250505050505090500191505060405160208183030381529060405280519060200120600190049050600044430190506000600282840181615b9457fe5b061492505050919050565b6040518060a00160405280600073ffffffffffffffffffffffffffffffffffffffff168152602001600073ffffffffffffffffffffffffffffffffffffffff16815260200160008152602001600081526020016000151581525090565b828054600181600116156101000203166002900490600052602060002090601f016020900481019282601f10615c3d57803560ff1916838001178555615c6b565b82800160010185558215615c6b579182015b82811115615c6a578235825591602001919060010190615c4f565b5b509050615c789190615e5a565b5090565b828054600181600116156101000203166002900490600052602060002090601f016020900481019282601f10615cb55780548555615cf2565b82800160010185558215615cf257600052602060002091601f016020900482015b82811115615cf1578254825591600101919060010190615cd6565b5b509050615cff9190615e5a565b5090565b6040518060e001604052806060815260200160008152602001606081526020016060815260200160008152602001600015158152602001615d42615e7f565b81525090565b604051806101e0016040528060608152602001606081526020016060815260200160608152602001600063ffffffff168152602001600063ffffffff168152602001600063ffffffff1681526020016000151581526020016000815260200160008152602001600081526020016000815260200160008152602001600015158152602001615dd4615e7f565b81525090565b828054600181600116156101000203166002900490600052602060002090601f016020900481019282601f10615e1b57805160ff1916838001178555615e49565b82800160010185558215615e49579182015b82811115615e48578251825591602001919060010190615e2d565b5b509050615e569190615e5a565b5090565b615e7c91905b80821115615e78576000816000905550600101615e60565b5090565b90565b6040518060c00160405280600063ffffffff168152602001600063ffffffff168152602001600063ffffffff168152602001600063ffffffff168152602001600063ffffffff168152602001600063ffffffff168152509056fea265627a7a7231582091d4c5ba9b94e886ece9c282452651e43b2a314d5733f548f0d2782c715e1f4064736f6c63430005100032",
  "source": "pragma solidity >=0.5.0 <0.6.0;\n\nimport \"./PokemonCardOwnership.sol\";\n\n// 0xe3a0ec5cb60318a00ff9efc6371cfcdb836bbcf2\ncontract PokemonCardMarketplace is PokemonCardOwnership {\n\n    struct Market {\n        address winner;\n        address seller;\n        uint pokemonId;\n        uint price;\n        bool ended;\n    }\n\n    Market[] public market;\n    mapping (uint => bool) private _pokemonInMarket;\n    mapping (uint => uint) private _pokemonIdToItemId;\n    uint private _totalPokemonsOnMarket;\n    uint public creationFee = 1.5 finney;\n\n    event SoldPokemon(uint itemId, uint pokemonId, address buyer);\n    event NewItem(uint itemId, uint pokemonId, address seller);\n    event PriceChange(uint itemId, address seller, uint newPrice);\n    event TakenOffMarket(uint itemId, address seller);\n\n    modifier isNotOnMarket(uint _pokemonId) {\n        require(!_pokemonInMarket[_pokemonId]);\n        _;\n    }\n    \n    function isSelling(uint _pokemonId) public view returns(bool) {\n        return _pokemonInMarket[_pokemonId];\n    }\n\n    /**\n    Create item in the market\n    The pokemon must not already be on the market.\n    The sender must own the pokemon.\n    Set price must be greater than 0\n    **/\n    function createItem(uint _pokemonId, uint _price) public payable isNotOnMarket(_pokemonId) ownerOfPokemon(_pokemonId){\n        require(msg.value >= creationFee);\n        require(_price > 0);\n        Market memory item;\n        item.seller = msg.sender;\n        item.pokemonId = _pokemonId;\n        item.price = _price;\n        item.ended = false;\n        market.push(item);\n        _pokemonInMarket[_pokemonId] = true;\n        _pokemonIdToItemId[_pokemonId] = market.length - 1;\n        _totalPokemonsOnMarket = _totalPokemonsOnMarket.add(1);\n        emit NewItem(market.length - 1, _pokemonId, msg.sender);\n    }\n\n    function buyItem(uint _itemId) public payable {\n        Market storage item = market[_itemId];\n        require(msg.value == item.price);\n        require(!item.ended);\n        uint pokemonId = item.pokemonId;\n        address payable owner = pokemonToOwner[pokemonId];\n        require(owner != msg.sender);\n        item.winner = msg.sender;\n        item.ended = true;\n        pendingWithdrawals[owner] += msg.value;\n        _transfer(owner, msg.sender, pokemonId);\n        _pokemonInMarket[pokemonId] = false;\n        _pokemonIdToItemId[pokemonId] = 0;\n        _totalPokemonsOnMarket = _totalPokemonsOnMarket.sub(1);\n        emit SoldPokemon(_itemId, pokemonId, msg.sender);\n    }\n\n    function takeOffMarket(uint _itemId) public payable {\n        Market storage item = market[_itemId];\n        require(!item.ended);\n        uint pokemonId = item.pokemonId;\n        require(msg.sender == pokemonToOwner[pokemonId]);\n        address payable owner = pokemonToOwner[pokemonId];\n        require(owner == msg.sender);\n        item.ended = true;\n        _pokemonInMarket[pokemonId] = false;\n        _pokemonIdToItemId[pokemonId] = 0;\n        _totalPokemonsOnMarket = _totalPokemonsOnMarket.sub(1);\n        emit TakenOffMarket(_itemId, msg.sender);\n    }\n\n    function takeOffMarketWithPokemonId(uint _pokemonId) public payable ownerOfPokemon(_pokemonId){\n        uint _itemId = _pokemonIdToItemId[_pokemonId];\n        Market storage item = market[_itemId];\n        require(!item.ended);\n        address payable owner = pokemonToOwner[_pokemonId];\n        require(owner == msg.sender);\n        item.ended = true;\n        _pokemonInMarket[_pokemonId] = false;\n        _pokemonIdToItemId[_pokemonId] = 0;\n        _totalPokemonsOnMarket = _totalPokemonsOnMarket.sub(1);\n        emit TakenOffMarket(_itemId, msg.sender);\n    }\n\n    // function changePrice(uint _itemId, uint _newPrice) public {\n    //     Market storage item = market[_itemId];\n    //     uint pokemonId = item.pokemonId;\n    //     require(pokemonToOwner[pokemonId] == msg.sender);\n    //     item.price = _newPrice;\n    //     emit PriceChange(_itemId, msg.sender, _newPrice);\n    // }\n\n    function getMarketCount() public view returns (uint) {\n        return market.length;\n    }\n\n    function getTotalMarketItems() public view returns (uint) {\n        return _totalPokemonsOnMarket;\n    }\n\n    function getPrice(uint itemId) public view returns (uint) {\n        return market[itemId].price;\n    }\n\n    function setCreationFee(uint _fee) external onlyOwner {\n        creationFee = _fee;\n    }\n\n    function getItemInfo(uint _itemId) public view returns (address, uint, uint) {\n        Market storage item = market[_itemId];\n        return (item.seller, item.pokemonId, item.price);\n    }\n\n    function getItemAndPokemonInfo(uint _itemId) public view returns (address, uint, uint, uint, string memory, string memory, uint32, uint32, uint32, uint32, uint32, uint32, bool) {\n        Market storage item = market[_itemId];\n        Pokemon storage pokemon = pokemons[item.pokemonId];\n        return (item.seller, item.pokemonId, item.price, pokemon.pokemonNumber, pokemon.nickname, pokemon.type1, pokemon.baseStats.hp, pokemon.baseStats.attack, pokemon.baseStats.defense, pokemon.baseStats.specialAttack, pokemon.baseStats.specialDefense, pokemon.level, pokemon.gender);\n    }\n\n    function getAllMarketplaceItems() public view returns (uint[] memory) {\n        uint[] memory result = new uint[](_totalPokemonsOnMarket);\n        uint counter = 0;\n        for (uint i = 0; i < market.length; i++) {\n            if (!market[i].ended) {\n                result[counter] = i;\n                counter = counter.add(1);\n            }\n        }\n        return result;\n    }\n}\n",
  "sourcePath": "/Users/ztq/Dropbox/Computer Science/CO467/crypto-pokemons/contracts/PokemonCardMarketplace.sol",
  "compiler": {
    "name": "solc",
    "version": "0.5.16+commit.9c3226ce.Emscripten.clang"
  },
  "schemaVersion": "3.0.23",
  "updatedAt": "2020-02-13T15:02:47.563Z",
  "networkType": "ethereum",
  "devdoc": {
    "methods": {
      "isOwner()": {
        "return": "true if `msg.sender` is the owner of the contract."
      },
      "owner()": {
        "return": "the address of the owner."
      },
      "renounceOwnership()": {
        "details": "Allows the current owner to relinquish control of the contract."
      },
      "transferOwnership(address)": {
        "details": "Allows the current owner to transfer control of the contract to a newOwner.",
        "params": {
          "newOwner": "The address to transfer ownership to."
        }
      }
    }
  },
  "userdoc": {
    "methods": {
      "createItem(uint256,uint256)": {
        "notice": "Create item in the market The pokemon must not already be on the market. The sender must own the pokemon. Set price must be greater than 0*"
      },
      "getPendingWithdrawals()": {
        "notice": "Return the amount the user can withdrawl.*"
      },
      "renounceOwnership()": {
        "notice": "Renouncing to ownership will leave the contract without an owner. It will not be possible to call the functions with the `onlyOwner` modifier anymore."
      },
      "withdraw()": {
        "notice": "Transfer the accumulated ETH by player. The balance is reset to 0 after withdraw.*"
      }
    }
  }
}