{
  "contractName": "PokemonCardHelper",
  "abi": [
    {
      "anonymous": false,
      "inputs": [
        {
          "indexed": false,
          "internalType": "uint256",
          "name": "pokemonId",
          "type": "uint256"
        },
        {
          "indexed": false,
          "internalType": "string",
          "name": "name",
          "type": "string"
        },
        {
          "indexed": false,
          "internalType": "uint256",
          "name": "dna",
          "type": "uint256"
        }
      ],
      "name": "NewPokemon",
      "type": "event"
    },
    {
      "anonymous": false,
      "inputs": [
        {
          "indexed": true,
          "internalType": "address",
          "name": "previousOwner",
          "type": "address"
        },
        {
          "indexed": true,
          "internalType": "address",
          "name": "newOwner",
          "type": "address"
        }
      ],
      "name": "OwnershipTransferred",
      "type": "event"
    },
    {
      "anonymous": false,
      "inputs": [
        {
          "indexed": false,
          "internalType": "uint256",
          "name": "_pokemonId",
          "type": "uint256"
        }
      ],
      "name": "PokemonEvolve",
      "type": "event"
    },
    {
      "anonymous": false,
      "inputs": [
        {
          "indexed": false,
          "internalType": "uint256",
          "name": "_pokemonId",
          "type": "uint256"
        },
        {
          "indexed": false,
          "internalType": "uint256",
          "name": "newLevel",
          "type": "uint256"
        }
      ],
      "name": "PokemonLevelUp",
      "type": "event"
    },
    {
      "anonymous": false,
      "inputs": [
        {
          "indexed": false,
          "internalType": "address",
          "name": "owner",
          "type": "address"
        },
        {
          "indexed": false,
          "internalType": "uint256",
          "name": "motherId",
          "type": "uint256"
        },
        {
          "indexed": false,
          "internalType": "uint256",
          "name": "fatherId",
          "type": "uint256"
        }
      ],
      "name": "Pregnant",
      "type": "event"
    },
    {
      "constant": true,
      "inputs": [],
      "name": "birthFee",
      "outputs": [
        {
          "internalType": "uint256",
          "name": "",
          "type": "uint256"
        }
      ],
      "payable": false,
      "stateMutability": "view",
      "type": "function"
    },
    {
      "constant": false,
      "inputs": [
        {
          "internalType": "uint256",
          "name": "_motherId",
          "type": "uint256"
        },
        {
          "internalType": "uint256",
          "name": "_fatherId",
          "type": "uint256"
        }
      ],
      "name": "breedWith",
      "outputs": [],
      "payable": true,
      "stateMutability": "payable",
      "type": "function"
    },
    {
      "constant": true,
      "inputs": [
        {
          "internalType": "uint256",
          "name": "_motherId",
          "type": "uint256"
        },
        {
          "internalType": "uint256",
          "name": "_fatherId",
          "type": "uint256"
        }
      ],
      "name": "canBreedWith",
      "outputs": [
        {
          "internalType": "bool",
          "name": "",
          "type": "bool"
        }
      ],
      "payable": false,
      "stateMutability": "view",
      "type": "function"
    },
    {
      "constant": false,
      "inputs": [
        {
          "internalType": "string",
          "name": "_nickname",
          "type": "string"
        },
        {
          "internalType": "uint256",
          "name": "_pokemonNumber",
          "type": "uint256"
        }
      ],
      "name": "createStarterPokemon",
      "outputs": [
        {
          "internalType": "uint256",
          "name": "",
          "type": "uint256"
        }
      ],
      "payable": false,
      "stateMutability": "nonpayable",
      "type": "function"
    },
    {
      "constant": true,
      "inputs": [
        {
          "internalType": "uint256",
          "name": "pokemonNumber",
          "type": "uint256"
        }
      ],
      "name": "getBasicPokemonInfo",
      "outputs": [
        {
          "internalType": "string",
          "name": "",
          "type": "string"
        },
        {
          "internalType": "string",
          "name": "",
          "type": "string"
        },
        {
          "internalType": "string",
          "name": "",
          "type": "string"
        },
        {
          "internalType": "bool",
          "name": "",
          "type": "bool"
        }
      ],
      "payable": false,
      "stateMutability": "view",
      "type": "function"
    },
    {
      "constant": true,
      "inputs": [
        {
          "internalType": "uint256",
          "name": "_pokemonId",
          "type": "uint256"
        }
      ],
      "name": "getBreedingTimeRemaining",
      "outputs": [
        {
          "internalType": "uint32",
          "name": "",
          "type": "uint32"
        }
      ],
      "payable": false,
      "stateMutability": "view",
      "type": "function"
    },
    {
      "constant": true,
      "inputs": [
        {
          "internalType": "uint256",
          "name": "_pokemonId",
          "type": "uint256"
        }
      ],
      "name": "getPokemonBattleDetails",
      "outputs": [
        {
          "internalType": "uint32",
          "name": "",
          "type": "uint32"
        }
      ],
      "payable": false,
      "stateMutability": "view",
      "type": "function"
    },
    {
      "constant": true,
      "inputs": [
        {
          "internalType": "uint256",
          "name": "_pokemonId",
          "type": "uint256"
        }
      ],
      "name": "getPokemonBreedingDetails",
      "outputs": [
        {
          "internalType": "uint32",
          "name": "",
          "type": "uint32"
        },
        {
          "internalType": "bool",
          "name": "",
          "type": "bool"
        },
        {
          "internalType": "uint256",
          "name": "",
          "type": "uint256"
        },
        {
          "internalType": "uint256",
          "name": "",
          "type": "uint256"
        },
        {
          "internalType": "uint256",
          "name": "",
          "type": "uint256"
        }
      ],
      "payable": false,
      "stateMutability": "view",
      "type": "function"
    },
    {
      "constant": true,
      "inputs": [
        {
          "internalType": "uint256",
          "name": "_pokemonId",
          "type": "uint256"
        }
      ],
      "name": "getPokemonInfo",
      "outputs": [
        {
          "internalType": "string",
          "name": "",
          "type": "string"
        },
        {
          "internalType": "string",
          "name": "",
          "type": "string"
        },
        {
          "internalType": "string",
          "name": "",
          "type": "string"
        },
        {
          "internalType": "string",
          "name": "",
          "type": "string"
        },
        {
          "internalType": "uint32",
          "name": "",
          "type": "uint32"
        },
        {
          "internalType": "uint256",
          "name": "",
          "type": "uint256"
        },
        {
          "internalType": "bool",
          "name": "",
          "type": "bool"
        }
      ],
      "payable": false,
      "stateMutability": "view",
      "type": "function"
    },
    {
      "constant": true,
      "inputs": [
        {
          "internalType": "uint256",
          "name": "pokemonNumber",
          "type": "uint256"
        }
      ],
      "name": "getPokemonName",
      "outputs": [
        {
          "internalType": "string",
          "name": "",
          "type": "string"
        }
      ],
      "payable": false,
      "stateMutability": "view",
      "type": "function"
    },
    {
      "constant": true,
      "inputs": [
        {
          "internalType": "uint256",
          "name": "_pokemonId",
          "type": "uint256"
        }
      ],
      "name": "getPokemonStats",
      "outputs": [
        {
          "internalType": "uint32",
          "name": "",
          "type": "uint32"
        },
        {
          "internalType": "uint32",
          "name": "",
          "type": "uint32"
        },
        {
          "internalType": "uint32",
          "name": "",
          "type": "uint32"
        },
        {
          "internalType": "uint32",
          "name": "",
          "type": "uint32"
        },
        {
          "internalType": "uint32",
          "name": "",
          "type": "uint32"
        },
        {
          "internalType": "uint32",
          "name": "",
          "type": "uint32"
        }
      ],
      "payable": false,
      "stateMutability": "view",
      "type": "function"
    },
    {
      "constant": false,
      "inputs": [
        {
          "internalType": "uint256",
          "name": "_motherId",
          "type": "uint256"
        }
      ],
      "name": "giveBirth",
      "outputs": [
        {
          "internalType": "uint256",
          "name": "",
          "type": "uint256"
        }
      ],
      "payable": false,
      "stateMutability": "nonpayable",
      "type": "function"
    },
    {
      "constant": true,
      "inputs": [],
      "name": "isNewTrainer",
      "outputs": [
        {
          "internalType": "bool",
          "name": "",
          "type": "bool"
        }
      ],
      "payable": false,
      "stateMutability": "view",
      "type": "function"
    },
    {
      "constant": true,
      "inputs": [],
      "name": "isOwner",
      "outputs": [
        {
          "internalType": "bool",
          "name": "",
          "type": "bool"
        }
      ],
      "payable": false,
      "stateMutability": "view",
      "type": "function"
    },
    {
      "constant": true,
      "inputs": [
        {
          "internalType": "uint256",
          "name": "_pokemonId",
          "type": "uint256"
        }
      ],
      "name": "isPregnant",
      "outputs": [
        {
          "internalType": "bool",
          "name": "",
          "type": "bool"
        }
      ],
      "payable": false,
      "stateMutability": "view",
      "type": "function"
    },
    {
      "constant": true,
      "inputs": [
        {
          "internalType": "uint256",
          "name": "_pokemonId",
          "type": "uint256"
        }
      ],
      "name": "isReadyToBreed",
      "outputs": [
        {
          "internalType": "bool",
          "name": "",
          "type": "bool"
        }
      ],
      "payable": false,
      "stateMutability": "view",
      "type": "function"
    },
    {
      "constant": true,
      "inputs": [
        {
          "internalType": "uint256",
          "name": "_pokemonId",
          "type": "uint256"
        }
      ],
      "name": "isReadyToGiveBirth",
      "outputs": [
        {
          "internalType": "bool",
          "name": "",
          "type": "bool"
        }
      ],
      "payable": false,
      "stateMutability": "view",
      "type": "function"
    },
    {
      "constant": true,
      "inputs": [],
      "name": "owner",
      "outputs": [
        {
          "internalType": "address",
          "name": "",
          "type": "address"
        }
      ],
      "payable": false,
      "stateMutability": "view",
      "type": "function"
    },
    {
      "constant": true,
      "inputs": [
        {
          "internalType": "uint256",
          "name": "",
          "type": "uint256"
        }
      ],
      "name": "pokemonToOwner",
      "outputs": [
        {
          "internalType": "address payable",
          "name": "",
          "type": "address"
        }
      ],
      "payable": false,
      "stateMutability": "view",
      "type": "function"
    },
    {
      "constant": false,
      "inputs": [],
      "name": "renounceOwnership",
      "outputs": [],
      "payable": false,
      "stateMutability": "nonpayable",
      "type": "function"
    },
    {
      "constant": true,
      "inputs": [],
      "name": "returnNumberOfPokemons",
      "outputs": [
        {
          "internalType": "uint256",
          "name": "",
          "type": "uint256"
        }
      ],
      "payable": false,
      "stateMutability": "view",
      "type": "function"
    },
    {
      "constant": true,
      "inputs": [],
      "name": "returnTotalNumberOfPokemons",
      "outputs": [
        {
          "internalType": "uint256",
          "name": "",
          "type": "uint256"
        }
      ],
      "payable": false,
      "stateMutability": "view",
      "type": "function"
    },
    {
      "constant": false,
      "inputs": [
        {
          "internalType": "uint256",
          "name": "fee",
          "type": "uint256"
        }
      ],
      "name": "setBirthFee",
      "outputs": [],
      "payable": false,
      "stateMutability": "nonpayable",
      "type": "function"
    },
    {
      "constant": false,
      "inputs": [
        {
          "internalType": "address",
          "name": "newOwner",
          "type": "address"
        }
      ],
      "name": "transferOwnership",
      "outputs": [],
      "payable": false,
      "stateMutability": "nonpayable",
      "type": "function"
    },
    {
      "constant": false,
      "inputs": [
        {
          "internalType": "uint256",
          "name": "_fee",
          "type": "uint256"
        }
      ],
      "name": "setLevelUpFee",
      "outputs": [],
      "payable": false,
      "stateMutability": "nonpayable",
      "type": "function"
    },
    {
      "constant": false,
      "inputs": [
        {
          "internalType": "uint256",
          "name": "_pokemonId",
          "type": "uint256"
        }
      ],
      "name": "levelUp",
      "outputs": [],
      "payable": true,
      "stateMutability": "payable",
      "type": "function"
    },
    {
      "constant": false,
      "inputs": [
        {
          "internalType": "uint256",
          "name": "_pokemonId",
          "type": "uint256"
        },
        {
          "internalType": "string",
          "name": "_newName",
          "type": "string"
        }
      ],
      "name": "changeName",
      "outputs": [],
      "payable": false,
      "stateMutability": "nonpayable",
      "type": "function"
    },
    {
      "constant": false,
      "inputs": [
        {
          "internalType": "uint256",
          "name": "_pokemonId",
          "type": "uint256"
        }
      ],
      "name": "evolve",
      "outputs": [
        {
          "internalType": "string",
          "name": "",
          "type": "string"
        },
        {
          "internalType": "uint256",
          "name": "",
          "type": "uint256"
        },
        {
          "internalType": "uint32",
          "name": "",
          "type": "uint32"
        },
        {
          "internalType": "uint32",
          "name": "",
          "type": "uint32"
        },
        {
          "internalType": "uint32",
          "name": "",
          "type": "uint32"
        }
      ],
      "payable": false,
      "stateMutability": "nonpayable",
      "type": "function"
    },
    {
      "constant": true,
      "inputs": [
        {
          "internalType": "address",
          "name": "_owner",
          "type": "address"
        }
      ],
      "name": "getPokemonCardsByOwner",
      "outputs": [
        {
          "internalType": "uint256[]",
          "name": "",
          "type": "uint256[]"
        }
      ],
      "payable": false,
      "stateMutability": "view",
      "type": "function"
    },
    {
      "constant": true,
      "inputs": [],
      "name": "getPokemonCardsByOwner",
      "outputs": [
        {
          "internalType": "uint256[]",
          "name": "",
          "type": "uint256[]"
        }
      ],
      "payable": false,
      "stateMutability": "view",
      "type": "function"
    },
    {
      "constant": true,
      "inputs": [
        {
          "internalType": "uint256",
          "name": "_pokemonId",
          "type": "uint256"
        }
      ],
      "name": "isEvovalble",
      "outputs": [
        {
          "internalType": "bool",
          "name": "",
          "type": "bool"
        }
      ],
      "payable": false,
      "stateMutability": "view",
      "type": "function"
    },
    {
      "constant": false,
      "inputs": [],
      "name": "buyStarterPack",
      "outputs": [
        {
          "internalType": "uint256",
          "name": "",
          "type": "uint256"
        }
      ],
      "payable": true,
      "stateMutability": "payable",
      "type": "function"
    },
    {
      "constant": false,
      "inputs": [],
      "name": "buyRarePack",
      "outputs": [
        {
          "internalType": "uint256",
          "name": "",
          "type": "uint256"
        }
      ],
      "payable": true,
      "stateMutability": "payable",
      "type": "function"
    },
    {
      "constant": false,
      "inputs": [],
      "name": "withdraw",
      "outputs": [],
      "payable": false,
      "stateMutability": "nonpayable",
      "type": "function"
    },
    {
      "constant": true,
      "inputs": [],
      "name": "getPendingWithdrawals",
      "outputs": [
        {
          "internalType": "uint256",
          "name": "",
          "type": "uint256"
        }
      ],
      "payable": false,
      "stateMutability": "view",
      "type": "function"
    }
  ],
  "bytecode": "0x60806040526010600455600454600a0a6005556005600655600560075560006008556605543df729c000600c5566038d7ea4c68000600d55336000806101000a81548173ffffffffffffffffffffffffffffffffffffffff021916908373ffffffffffffffffffffffffffffffffffffffff1602179055506000809054906101000a900473ffffffffffffffffffffffffffffffffffffffff1673ffffffffffffffffffffffffffffffffffffffff16600073ffffffffffffffffffffffffffffffffffffffff167f8be0079c531659141344cd1fd0a4f28419497f9722a3daafe3b4186f6b6457e060405160405180910390a3630000010e630000019f640100000000026401000000009004565b6300000129630001b9a6640100000000026401000000009004565b6300000144630001c0c4640100000000026401000000009004565b63000001976040518060400160405280600781526020017f496e697469616c000000000000000000000000000000000000000000000000008152506000630001d01c640100000000026401000000009004565b50630001dfd7565b60036040518060e001604052806040518060400160405280600981526020017f42756c62617361757200000000000000000000000000000000000000000000008152508152602001600181526020016040518060400160405280600581526020017f477261737300000000000000000000000000000000000000000000000000000081525081526020016040518060400160405280600681526020017f506f69736f6e0000000000000000000000000000000000000000000000000000815250815260200161024681526020016000151581526020016040518060c00160405280602d63ffffffff168152602001603163ffffffff168152602001603163ffffffff168152602001604163ffffffff168152602001604163ffffffff168152602001602d63ffffffff16815250815250908060018154018082558091505090600182039060005260206000209060070201600090919290919091506000820151816000019080519060200190630000031a929190630001dde5565b506020820151816001015560408201518160020190805190602001906300000345929190630001dde5565b5060608201518160030190805190602001906300000366929190630001dde5565b506080820151816004015560a08201518160050160006101000a81548160ff02191690831515021790555060c08201518160060160008201518160000160006101000a81548163ffffffff021916908363ffffffff16021790555060208201518160000160046101000a81548163ffffffff021916908363ffffffff16021790555060408201518160000160086101000a81548163ffffffff021916908363ffffffff160217905550606082015181600001600c6101000a81548163ffffffff021916908363ffffffff16021790555060808201518160000160106101000a81548163ffffffff021916908363ffffffff16021790555060a08201518160000160146101000a81548163ffffffff021916908363ffffffff160217905550505050505060036040518060e001604052806040518060400160405280600781526020017f49767973617572000000000000000000000000000000000000000000000000008152508152602001600281526020016040518060400160405280600581526020017f477261737300000000000000000000000000000000000000000000000000000081525081526020016040518060400160405280600681526020017f506f69736f6e000000000000000000000000000000000000000000000000000081525081526020016101ef81526020016000151581526020016040518060c00160405280603c63ffffffff168152602001603e63ffffffff168152602001603f63ffffffff168152602001605063ffffffff168152602001605063ffffffff168152602001603c63ffffffff168152508152509080600181540180825580915050906001820390600052602060002090600702016000909192909190915060008201518160000190805190602001906300000604929190630001dde5565b50602082015181600101556040820151816002019080519060200190630000062f929190630001dde5565b5060608201518160030190805190602001906300000650929190630001dde5565b506080820151816004015560a08201518160050160006101000a81548160ff02191690831515021790555060c08201518160060160008201518160000160006101000a81548163ffffffff021916908363ffffffff16021790555060208201518160000160046101000a81548163ffffffff021916908363ffffffff16021790555060408201518160000160086101000a81548163ffffffff021916908363ffffffff160217905550606082015181600001600c6101000a81548163ffffffff021916908363ffffffff16021790555060808201518160000160106101000a81548163ffffffff021916908363ffffffff16021790555060a08201518160000160146101000a81548163ffffffff021916908363ffffffff160217905550505050505060036040518060e001604052806040518060400160405280600881526020017f56656e75736175720000000000000000000000000000000000000000000000008152508152602001600381526020016040518060400160405280600581526020017f477261737300000000000000000000000000000000000000000000000000000081525081526020016040518060400160405280600681526020017f506f69736f6e0000000000000000000000000000000000000000000000000000815250815260200161017781526020016000151581526020016040518060c00160405280605063ffffffff168152602001605263ffffffff168152602001605363ffffffff168152602001606463ffffffff168152602001606463ffffffff168152602001605063ffffffff1681525081525090806001815401808255809150509060018203906000526020600020906007020160009091929091909150600082015181600001908051906020019063000008ee929190630001dde5565b506020820151816001015560408201518160020190805190602001906300000919929190630001dde5565b506060820151816003019080519060200190630000093a929190630001dde5565b506080820151816004015560a08201518160050160006101000a81548160ff02191690831515021790555060c08201518160060160008201518160000160006101000a81548163ffffffff021916908363ffffffff16021790555060208201518160000160046101000a81548163ffffffff021916908363ffffffff16021790555060408201518160000160086101000a81548163ffffffff021916908363ffffffff160217905550606082015181600001600c6101000a81548163ffffffff021916908363ffffffff16021790555060808201518160000160106101000a81548163ffffffff021916908363ffffffff16021790555060a08201518160000160146101000a81548163ffffffff021916908363ffffffff160217905550505050505060036040518060e001604052806040518060400160405280600a81526020017f436861726d616e646572000000000000000000000000000000000000000000008152508152602001600481526020016040518060400160405280600481526020017f466972650000000000000000000000000000000000000000000000000000000081525081526020016040518060400160405280600381526020017f6e616e0000000000000000000000000000000000000000000000000000000000815250815260200161024f81526020016000151581526020016040518060c00160405280602763ffffffff168152602001603463ffffffff168152602001602b63ffffffff168152602001603c63ffffffff168152602001603263ffffffff168152602001604163ffffffff168152508152509080600181540180825580915050906001820390600052602060002090600702016000909192909190915060008201518160000190805190602001906300000bd8929190630001dde5565b506020820151816001015560408201518160020190805190602001906300000c03929190630001dde5565b5060608201518160030190805190602001906300000c24929190630001dde5565b506080820151816004015560a08201518160050160006101000a81548160ff02191690831515021790555060c08201518160060160008201518160000160006101000a81548163ffffffff021916908363ffffffff16021790555060208201518160000160046101000a81548163ffffffff021916908363ffffffff16021790555060408201518160000160086101000a81548163ffffffff021916908363ffffffff160217905550606082015181600001600c6101000a81548163ffffffff021916908363ffffffff16021790555060808201518160000160106101000a81548163ffffffff021916908363ffffffff16021790555060a08201518160000160146101000a81548163ffffffff021916908363ffffffff160217905550505050505060036040518060e001604052806040518060400160405280600a81526020017f436861726d656c656f6e000000000000000000000000000000000000000000008152508152602001600581526020016040518060400160405280600481526020017f466972650000000000000000000000000000000000000000000000000000000081525081526020016040518060400160405280600381526020017f6e616e000000000000000000000000000000000000000000000000000000000081525081526020016101ef81526020016000151581526020016040518060c00160405280603a63ffffffff168152602001604063ffffffff168152602001603a63ffffffff168152602001605063ffffffff168152602001604163ffffffff168152602001605063ffffffff168152508152509080600181540180825580915050906001820390600052602060002090600702016000909192909190915060008201518160000190805190602001906300000ec2929190630001dde5565b506020820151816001015560408201518160020190805190602001906300000eed929190630001dde5565b5060608201518160030190805190602001906300000f0e929190630001dde5565b506080820151816004015560a08201518160050160006101000a81548160ff02191690831515021790555060c08201518160060160008201518160000160006101000a81548163ffffffff021916908363ffffffff16021790555060208201518160000160046101000a81548163ffffffff021916908363ffffffff16021790555060408201518160000160086101000a81548163ffffffff021916908363ffffffff160217905550606082015181600001600c6101000a81548163ffffffff021916908363ffffffff16021790555060808201518160000160106101000a81548163ffffffff021916908363ffffffff16021790555060a08201518160000160146101000a81548163ffffffff021916908363ffffffff160217905550505050505060036040518060e001604052806040518060400160405280600981526020017f43686172697a61726400000000000000000000000000000000000000000000008152508152602001600681526020016040518060400160405280600481526020017f466972650000000000000000000000000000000000000000000000000000000081525081526020016040518060400160405280600681526020017f466c79696e670000000000000000000000000000000000000000000000000000815250815260200161016e81526020016000151581526020016040518060c00160405280604e63ffffffff168152602001605463ffffffff168152602001604e63ffffffff168152602001606d63ffffffff168152602001605563ffffffff168152602001606463ffffffff1681525081525090806001815401808255809150509060018203906000526020600020906007020160009091929091909150600082015181600001908051906020019063000011ac929190630001dde5565b5060208201518160010155604082015181600201908051906020019063000011d7929190630001dde5565b50606082015181600301908051906020019063000011f8929190630001dde5565b506080820151816004015560a08201518160050160006101000a81548160ff02191690831515021790555060c08201518160060160008201518160000160006101000a81548163ffffffff021916908363ffffffff16021790555060208201518160000160046101000a81548163ffffffff021916908363ffffffff16021790555060408201518160000160086101000a81548163ffffffff021916908363ffffffff160217905550606082015181600001600c6101000a81548163ffffffff021916908363ffffffff16021790555060808201518160000160106101000a81548163ffffffff021916908363ffffffff16021790555060a08201518160000160146101000a81548163ffffffff021916908363ffffffff160217905550505050505060036040518060e001604052806040518060400160405280600881526020017f5371756972746c650000000000000000000000000000000000000000000000008152508152602001600781526020016040518060400160405280600581526020017f576174657200000000000000000000000000000000000000000000000000000081525081526020016040518060400160405280600381526020017f6e616e0000000000000000000000000000000000000000000000000000000000815250815260200161024a81526020016000151581526020016040518060c00160405280602c63ffffffff168152602001603063ffffffff168152602001604163ffffffff168152602001603263ffffffff168152602001604063ffffffff168152602001602b63ffffffff168152508152509080600181540180825580915050906001820390600052602060002090600702016000909192909190915060008201518160000190805190602001906300001496929190630001dde5565b5060208201518160010155604082015181600201908051906020019063000014c1929190630001dde5565b50606082015181600301908051906020019063000014e2929190630001dde5565b506080820151816004015560a08201518160050160006101000a81548160ff02191690831515021790555060c08201518160060160008201518160000160006101000a81548163ffffffff021916908363ffffffff16021790555060208201518160000160046101000a81548163ffffffff021916908363ffffffff16021790555060408201518160000160086101000a81548163ffffffff021916908363ffffffff160217905550606082015181600001600c6101000a81548163ffffffff021916908363ffffffff16021790555060808201518160000160106101000a81548163ffffffff021916908363ffffffff16021790555060a08201518160000160146101000a81548163ffffffff021916908363ffffffff160217905550505050505060036040518060e001604052806040518060400160405280600981526020017f576172746f72746c6500000000000000000000000000000000000000000000008152508152602001600881526020016040518060400160405280600581526020017f576174657200000000000000000000000000000000000000000000000000000081525081526020016040518060400160405280600381526020017f6e616e000000000000000000000000000000000000000000000000000000000081525081526020016101ef81526020016000151581526020016040518060c00160405280603b63ffffffff168152602001603f63ffffffff168152602001605063ffffffff168152602001604163ffffffff168152602001605063ffffffff168152602001603a63ffffffff168152508152509080600181540180825580915050906001820390600052602060002090600702016000909192909190915060008201518160000190805190602001906300001780929190630001dde5565b5060208201518160010155604082015181600201908051906020019063000017ab929190630001dde5565b50606082015181600301908051906020019063000017cc929190630001dde5565b506080820151816004015560a08201518160050160006101000a81548160ff02191690831515021790555060c08201518160060160008201518160000160006101000a81548163ffffffff021916908363ffffffff16021790555060208201518160000160046101000a81548163ffffffff021916908363ffffffff16021790555060408201518160000160086101000a81548163ffffffff021916908363ffffffff160217905550606082015181600001600c6101000a81548163ffffffff021916908363ffffffff16021790555060808201518160000160106101000a81548163ffffffff021916908363ffffffff16021790555060a08201518160000160146101000a81548163ffffffff021916908363ffffffff160217905550505050505060036040518060e001604052806040518060400160405280600981526020017f426c6173746f69736500000000000000000000000000000000000000000000008152508152602001600981526020016040518060400160405280600581526020017f576174657200000000000000000000000000000000000000000000000000000081525081526020016040518060400160405280600381526020017f6e616e0000000000000000000000000000000000000000000000000000000000815250815260200161017281526020016000151581526020016040518060c00160405280604f63ffffffff168152602001605363ffffffff168152602001606463ffffffff168152602001605563ffffffff168152602001606963ffffffff168152602001604e63ffffffff168152508152509080600181540180825580915050906001820390600052602060002090600702016000909192909190915060008201518160000190805190602001906300001a6a929190630001dde5565b506020820151816001015560408201518160020190805190602001906300001a95929190630001dde5565b5060608201518160030190805190602001906300001ab6929190630001dde5565b506080820151816004015560a08201518160050160006101000a81548160ff02191690831515021790555060c08201518160060160008201518160000160006101000a81548163ffffffff021916908363ffffffff16021790555060208201518160000160046101000a81548163ffffffff021916908363ffffffff16021790555060408201518160000160086101000a81548163ffffffff021916908363ffffffff160217905550606082015181600001600c6101000a81548163ffffffff021916908363ffffffff16021790555060808201518160000160106101000a81548163ffffffff021916908363ffffffff16021790555060a08201518160000160146101000a81548163ffffffff021916908363ffffffff160217905550505050505060036040518060e001604052806040518060400160405280600881526020017f43617465727069650000000000000000000000000000000000000000000000008152508152602001600a81526020016040518060400160405280600381526020017f427567000000000000000000000000000000000000000000000000000000000081525081526020016040518060400160405280600381526020017f6e616e000000000000000000000000000000000000000000000000000000000081525081526020016102c181526020016000151581526020016040518060c00160405280602d63ffffffff168152602001601e63ffffffff168152602001602363ffffffff168152602001601463ffffffff168152602001601463ffffffff168152602001602d63ffffffff168152508152509080600181540180825580915050906001820390600052602060002090600702016000909192909190915060008201518160000190805190602001906300001d54929190630001dde5565b506020820151816001015560408201518160020190805190602001906300001d7f929190630001dde5565b5060608201518160030190805190602001906300001da0929190630001dde5565b506080820151816004015560a08201518160050160006101000a81548160ff02191690831515021790555060c08201518160060160008201518160000160006101000a81548163ffffffff021916908363ffffffff16021790555060208201518160000160046101000a81548163ffffffff021916908363ffffffff16021790555060408201518160000160086101000a81548163ffffffff021916908363ffffffff160217905550606082015181600001600c6101000a81548163ffffffff021916908363ffffffff16021790555060808201518160000160106101000a81548163ffffffff021916908363ffffffff16021790555060a08201518160000160146101000a81548163ffffffff021916908363ffffffff160217905550505050505060036040518060e001604052806040518060400160405280600781526020017f4d657461706f64000000000000000000000000000000000000000000000000008152508152602001600b81526020016040518060400160405280600381526020017f427567000000000000000000000000000000000000000000000000000000000081525081526020016040518060400160405280600381526020017f6e616e000000000000000000000000000000000000000000000000000000000081525081526020016102b781526020016000151581526020016040518060c00160405280603263ffffffff168152602001601463ffffffff168152602001603763ffffffff168152602001601963ffffffff168152602001601963ffffffff168152602001601e63ffffffff16815250815250908060018154018082558091505090600182039060005260206000209060070201600090919290919091506000820151816000019080519060200190630000203e929190630001dde5565b506020820151816001015560408201518160020190805190602001906300002069929190630001dde5565b506060820151816003019080519060200190630000208a929190630001dde5565b506080820151816004015560a08201518160050160006101000a81548160ff02191690831515021790555060c08201518160060160008201518160000160006101000a81548163ffffffff021916908363ffffffff16021790555060208201518160000160046101000a81548163ffffffff021916908363ffffffff16021790555060408201518160000160086101000a81548163ffffffff021916908363ffffffff160217905550606082015181600001600c6101000a81548163ffffffff021916908363ffffffff16021790555060808201518160000160106101000a81548163ffffffff021916908363ffffffff16021790555060a08201518160000160146101000a81548163ffffffff021916908363ffffffff160217905550505050505060036040518060e001604052806040518060400160405280600a81526020017f42757474657266726565000000000000000000000000000000000000000000008152508152602001600c81526020016040518060400160405280600381526020017f427567000000000000000000000000000000000000000000000000000000000081525081526020016040518060400160405280600681526020017f466c79696e67000000000000000000000000000000000000000000000000000081525081526020016101f981526020016000151581526020016040518060c00160405280603c63ffffffff168152602001602d63ffffffff168152602001603263ffffffff168152602001605a63ffffffff168152602001605063ffffffff168152602001604663ffffffff168152508152509080600181540180825580915050906001820390600052602060002090600702016000909192909190915060008201518160000190805190602001906300002328929190630001dde5565b506020820151816001015560408201518160020190805190602001906300002353929190630001dde5565b5060608201518160030190805190602001906300002374929190630001dde5565b506080820151816004015560a08201518160050160006101000a81548160ff02191690831515021790555060c08201518160060160008201518160000160006101000a81548163ffffffff021916908363ffffffff16021790555060208201518160000160046101000a81548163ffffffff021916908363ffffffff16021790555060408201518160000160086101000a81548163ffffffff021916908363ffffffff160217905550606082015181600001600c6101000a81548163ffffffff021916908363ffffffff16021790555060808201518160000160106101000a81548163ffffffff021916908363ffffffff16021790555060a08201518160000160146101000a81548163ffffffff021916908363ffffffff160217905550505050505060036040518060e001604052806040518060400160405280600681526020017f576565646c6500000000000000000000000000000000000000000000000000008152508152602001600d81526020016040518060400160405280600381526020017f427567000000000000000000000000000000000000000000000000000000000081525081526020016040518060400160405280600681526020017f506f69736f6e000000000000000000000000000000000000000000000000000081525081526020016102c181526020016000151581526020016040518060c00160405280602863ffffffff168152602001602363ffffffff168152602001601e63ffffffff168152602001601463ffffffff168152602001601463ffffffff168152602001603263ffffffff168152508152509080600181540180825580915050906001820390600052602060002090600702016000909192909190915060008201518160000190805190602001906300002612929190630001dde5565b50602082015181600101556040820151816002019080519060200190630000263d929190630001dde5565b506060820151816003019080519060200190630000265e929190630001dde5565b506080820151816004015560a08201518160050160006101000a81548160ff02191690831515021790555060c08201518160060160008201518160000160006101000a81548163ffffffff021916908363ffffffff16021790555060208201518160000160046101000a81548163ffffffff021916908363ffffffff16021790555060408201518160000160086101000a81548163ffffffff021916908363ffffffff160217905550606082015181600001600c6101000a81548163ffffffff021916908363ffffffff16021790555060808201518160000160106101000a81548163ffffffff021916908363ffffffff16021790555060a08201518160000160146101000a81548163ffffffff021916908363ffffffff160217905550505050505060036040518060e001604052806040518060400160405280600681526020017f4b616b756e6100000000000000000000000000000000000000000000000000008152508152602001600e81526020016040518060400160405280600381526020017f427567000000000000000000000000000000000000000000000000000000000081525081526020016040518060400160405280600681526020017f506f69736f6e000000000000000000000000000000000000000000000000000081525081526020016102b781526020016000151581526020016040518060c00160405280602d63ffffffff168152602001601963ffffffff168152602001603263ffffffff168152602001601963ffffffff168152602001601963ffffffff168152602001602363ffffffff1681525081525090806001815401808255809150509060018203906000526020600020906007020160009091929091909150600082015181600001908051906020019063000028fc929190630001dde5565b506020820151816001015560408201518160020190805190602001906300002927929190630001dde5565b5060608201518160030190805190602001906300002948929190630001dde5565b506080820151816004015560a08201518160050160006101000a81548160ff02191690831515021790555060c08201518160060160008201518160000160006101000a81548163ffffffff021916908363ffffffff16021790555060208201518160000160046101000a81548163ffffffff021916908363ffffffff16021790555060408201518160000160086101000a81548163ffffffff021916908363ffffffff160217905550606082015181600001600c6101000a81548163ffffffff021916908363ffffffff16021790555060808201518160000160106101000a81548163ffffffff021916908363ffffffff16021790555060a08201518160000160146101000a81548163ffffffff021916908363ffffffff160217905550505050505060036040518060e001604052806040518060400160405280600881526020017f4265656472696c6c0000000000000000000000000000000000000000000000008152508152602001600f81526020016040518060400160405280600381526020017f427567000000000000000000000000000000000000000000000000000000000081525081526020016040518060400160405280600681526020017f506f69736f6e000000000000000000000000000000000000000000000000000081525081526020016101f981526020016000151581526020016040518060c00160405280604163ffffffff168152602001605a63ffffffff168152602001602863ffffffff168152602001602d63ffffffff168152602001605063ffffffff168152602001604b63ffffffff168152508152509080600181540180825580915050906001820390600052602060002090600702016000909192909190915060008201518160000190805190602001906300002be6929190630001dde5565b506020820151816001015560408201518160020190805190602001906300002c11929190630001dde5565b5060608201518160030190805190602001906300002c32929190630001dde5565b506080820151816004015560a08201518160050160006101000a81548160ff02191690831515021790555060c08201518160060160008201518160000160006101000a81548163ffffffff021916908363ffffffff16021790555060208201518160000160046101000a81548163ffffffff021916908363ffffffff16021790555060408201518160000160086101000a81548163ffffffff021916908363ffffffff160217905550606082015181600001600c6101000a81548163ffffffff021916908363ffffffff16021790555060808201518160000160106101000a81548163ffffffff021916908363ffffffff16021790555060a08201518160000160146101000a81548163ffffffff021916908363ffffffff160217905550505050505060036040518060e001604052806040518060400160405280600681526020017f50696467657900000000000000000000000000000000000000000000000000008152508152602001601081526020016040518060400160405280600681526020017f4e6f726d616c000000000000000000000000000000000000000000000000000081525081526020016040518060400160405280600681526020017f466c79696e670000000000000000000000000000000000000000000000000000815250815260200161028981526020016000151581526020016040518060c00160405280602863ffffffff168152602001602d63ffffffff168152602001602863ffffffff168152602001602363ffffffff168152602001602363ffffffff168152602001603863ffffffff168152508152509080600181540180825580915050906001820390600052602060002090600702016000909192909190915060008201518160000190805190602001906300002ed0929190630001dde5565b506020820151816001015560408201518160020190805190602001906300002efb929190630001dde5565b5060608201518160030190805190602001906300002f1c929190630001dde5565b506080820151816004015560a08201518160050160006101000a81548160ff02191690831515021790555060c08201518160060160008201518160000160006101000a81548163ffffffff021916908363ffffffff16021790555060208201518160000160046101000a81548163ffffffff021916908363ffffffff16021790555060408201518160000160086101000a81548163ffffffff021916908363ffffffff160217905550606082015181600001600c6101000a81548163ffffffff021916908363ffffffff16021790555060808201518160000160106101000a81548163ffffffff021916908363ffffffff16021790555060a08201518160000160146101000a81548163ffffffff021916908363ffffffff160217905550505050505060036040518060e001604052806040518060400160405280600981526020017f50696467656f74746f00000000000000000000000000000000000000000000008152508152602001601181526020016040518060400160405280600681526020017f4e6f726d616c000000000000000000000000000000000000000000000000000081525081526020016040518060400160405280600681526020017f466c79696e670000000000000000000000000000000000000000000000000000815250815260200161022781526020016000151581526020016040518060c00160405280603f63ffffffff168152602001603c63ffffffff168152602001603763ffffffff168152602001603263ffffffff168152602001603263ffffffff168152602001604763ffffffff1681525081525090806001815401808255809150509060018203906000526020600020906007020160009091929091909150600082015181600001908051906020019063000031ba929190630001dde5565b5060208201518160010155604082015181600201908051906020019063000031e5929190630001dde5565b5060608201518160030190805190602001906300003206929190630001dde5565b506080820151816004015560a08201518160050160006101000a81548160ff02191690831515021790555060c08201518160060160008201518160000160006101000a81548163ffffffff021916908363ffffffff16021790555060208201518160000160046101000a81548163ffffffff021916908363ffffffff16021790555060408201518160000160086101000a81548163ffffffff021916908363ffffffff160217905550606082015181600001600c6101000a81548163ffffffff021916908363ffffffff16021790555060808201518160000160106101000a81548163ffffffff021916908363ffffffff16021790555060a08201518160000160146101000a81548163ffffffff021916908363ffffffff160217905550505050505060036040518060e001604052806040518060400160405280600781526020017f50696467656f74000000000000000000000000000000000000000000000000008152508152602001601281526020016040518060400160405280600681526020017f4e6f726d616c000000000000000000000000000000000000000000000000000081525081526020016040518060400160405280600681526020017f466c79696e67000000000000000000000000000000000000000000000000000081525081526020016101a581526020016000151581526020016040518060c00160405280605363ffffffff168152602001605063ffffffff168152602001604b63ffffffff168152602001604663ffffffff168152602001604663ffffffff168152602001606563ffffffff1681525081525090806001815401808255809150509060018203906000526020600020906007020160009091929091909150600082015181600001908051906020019063000034a4929190630001dde5565b5060208201518160010155604082015181600201908051906020019063000034cf929190630001dde5565b50606082015181600301908051906020019063000034f0929190630001dde5565b506080820151816004015560a08201518160050160006101000a81548160ff02191690831515021790555060c08201518160060160008201518160000160006101000a81548163ffffffff021916908363ffffffff16021790555060208201518160000160046101000a81548163ffffffff021916908363ffffffff16021790555060408201518160000160086101000a81548163ffffffff021916908363ffffffff160217905550606082015181600001600c6101000a81548163ffffffff021916908363ffffffff16021790555060808201518160000160106101000a81548163ffffffff021916908363ffffffff16021790555060a08201518160000160146101000a81548163ffffffff021916908363ffffffff160217905550505050505060036040518060e001604052806040518060400160405280600781526020017f52617474617461000000000000000000000000000000000000000000000000008152508152602001601381526020016040518060400160405280600681526020017f4e6f726d616c000000000000000000000000000000000000000000000000000081525081526020016040518060400160405280600381526020017f6e616e0000000000000000000000000000000000000000000000000000000000815250815260200161028781526020016000151581526020016040518060c00160405280601e63ffffffff168152602001603863ffffffff168152602001602363ffffffff168152602001601963ffffffff168152602001602363ffffffff168152602001604863ffffffff16815250815250908060018154018082558091505090600182039060005260206000209060070201600090919290919091506000820151816000019080519060200190630000378e929190630001dde5565b5060208201518160010155604082015181600201908051906020019063000037b9929190630001dde5565b50606082015181600301908051906020019063000037da929190630001dde5565b506080820151816004015560a08201518160050160006101000a81548160ff02191690831515021790555060c08201518160060160008201518160000160006101000a81548163ffffffff021916908363ffffffff16021790555060208201518160000160046101000a81548163ffffffff021916908363ffffffff16021790555060408201518160000160086101000a81548163ffffffff021916908363ffffffff160217905550606082015181600001600c6101000a81548163ffffffff021916908363ffffffff16021790555060808201518160000160106101000a81548163ffffffff021916908363ffffffff16021790555060a08201518160000160146101000a81548163ffffffff021916908363ffffffff160217905550505050505060036040518060e001604052806040518060400160405280600881526020017f52617469636174650000000000000000000000000000000000000000000000008152508152602001601481526020016040518060400160405280600681526020017f4e6f726d616c000000000000000000000000000000000000000000000000000081525081526020016040518060400160405280600381526020017f6e616e000000000000000000000000000000000000000000000000000000000081525081526020016101e781526020016000151581526020016040518060c00160405280603763ffffffff168152602001605163ffffffff168152602001603c63ffffffff168152602001603263ffffffff168152602001604663ffffffff168152602001606163ffffffff168152508152509080600181540180825580915050906001820390600052602060002090600702016000909192909190915060008201518160000190805190602001906300003a78929190630001dde5565b506020820151816001015560408201518160020190805190602001906300003aa3929190630001dde5565b5060608201518160030190805190602001906300003ac4929190630001dde5565b506080820151816004015560a08201518160050160006101000a81548160ff02191690831515021790555060c08201518160060160008201518160000160006101000a81548163ffffffff021916908363ffffffff16021790555060208201518160000160046101000a81548163ffffffff021916908363ffffffff16021790555060408201518160000160086101000a81548163ffffffff021916908363ffffffff160217905550606082015181600001600c6101000a81548163ffffffff021916908363ffffffff16021790555060808201518160000160106101000a81548163ffffffff021916908363ffffffff16021790555060a08201518160000160146101000a81548163ffffffff021916908363ffffffff160217905550505050505060036040518060e001604052806040518060400160405280600781526020017f53706561726f77000000000000000000000000000000000000000000000000008152508152602001601581526020016040518060400160405280600681526020017f4e6f726d616c000000000000000000000000000000000000000000000000000081525081526020016040518060400160405280600681526020017f466c79696e670000000000000000000000000000000000000000000000000000815250815260200161027e81526020016000151581526020016040518060c00160405280602863ffffffff168152602001603c63ffffffff168152602001601e63ffffffff168152602001601f63ffffffff168152602001601f63ffffffff168152602001604663ffffffff168152508152509080600181540180825580915050906001820390600052602060002090600702016000909192909190915060008201518160000190805190602001906300003d62929190630001dde5565b506020820151816001015560408201518160020190805190602001906300003d8d929190630001dde5565b5060608201518160030190805190602001906300003dae929190630001dde5565b506080820151816004015560a08201518160050160006101000a81548160ff02191690831515021790555060c08201518160060160008201518160000160006101000a81548163ffffffff021916908363ffffffff16021790555060208201518160000160046101000a81548163ffffffff021916908363ffffffff16021790555060408201518160000160086101000a81548163ffffffff021916908363ffffffff160217905550606082015181600001600c6101000a81548163ffffffff021916908363ffffffff16021790555060808201518160000160106101000a81548163ffffffff021916908363ffffffff16021790555060a08201518160000160146101000a81548163ffffffff021916908363ffffffff160217905550505050505060036040518060e001604052806040518060400160405280600681526020017f466561726f7700000000000000000000000000000000000000000000000000008152508152602001601681526020016040518060400160405280600681526020017f4e6f726d616c000000000000000000000000000000000000000000000000000081525081526020016040518060400160405280600681526020017f466c79696e67000000000000000000000000000000000000000000000000000081525081526020016101ca81526020016000151581526020016040518060c00160405280604163ffffffff168152602001605a63ffffffff168152602001604163ffffffff168152602001603d63ffffffff168152602001603d63ffffffff168152602001606463ffffffff16815250815250908060018154018082558091505090600182039060005260206000209060070201600090919290919091506000820151816000019080519060200190630000404c929190630001dde5565b506020820151816001015560408201518160020190805190602001906300004077929190630001dde5565b5060608201518160030190805190602001906300004098929190630001dde5565b506080820151816004015560a08201518160050160006101000a81548160ff02191690831515021790555060c08201518160060160008201518160000160006101000a81548163ffffffff021916908363ffffffff16021790555060208201518160000160046101000a81548163ffffffff021916908363ffffffff16021790555060408201518160000160086101000a81548163ffffffff021916908363ffffffff160217905550606082015181600001600c6101000a81548163ffffffff021916908363ffffffff16021790555060808201518160000160106101000a81548163ffffffff021916908363ffffffff16021790555060a08201518160000160146101000a81548163ffffffff021916908363ffffffff160217905550505050505060036040518060e001604052806040518060400160405280600581526020017f456b616e730000000000000000000000000000000000000000000000000000008152508152602001601781526020016040518060400160405280600681526020017f506f69736f6e000000000000000000000000000000000000000000000000000081525081526020016040518060400160405280600381526020017f6e616e0000000000000000000000000000000000000000000000000000000000815250815260200161026481526020016000151581526020016040518060c00160405280602363ffffffff168152602001603c63ffffffff168152602001602c63ffffffff168152602001602863ffffffff168152602001603663ffffffff168152602001603763ffffffff168152508152509080600181540180825580915050906001820390600052602060002090600702016000909192909190915060008201518160000190805190602001906300004336929190630001dde5565b506020820151816001015560408201518160020190805190602001906300004361929190630001dde5565b5060608201518160030190805190602001906300004382929190630001dde5565b506080820151816004015560a08201518160050160006101000a81548160ff02191690831515021790555060c08201518160060160008201518160000160006101000a81548163ffffffff021916908363ffffffff16021790555060208201518160000160046101000a81548163ffffffff021916908363ffffffff16021790555060408201518160000160086101000a81548163ffffffff021916908363ffffffff160217905550606082015181600001600c6101000a81548163ffffffff021916908363ffffffff16021790555060808201518160000160106101000a81548163ffffffff021916908363ffffffff16021790555060a08201518160000160146101000a81548163ffffffff021916908363ffffffff160217905550505050505060036040518060e001604052806040518060400160405280600581526020017f4172626f6b0000000000000000000000000000000000000000000000000000008152508152602001601881526020016040518060400160405280600681526020017f506f69736f6e000000000000000000000000000000000000000000000000000081525081526020016040518060400160405280600381526020017f6e616e000000000000000000000000000000000000000000000000000000000081525081526020016101ce81526020016000151581526020016040518060c00160405280603c63ffffffff168152602001605563ffffffff168152602001604563ffffffff168152602001604163ffffffff168152602001604f63ffffffff168152602001605063ffffffff168152508152509080600181540180825580915050906001820390600052602060002090600702016000909192909190915060008201518160000190805190602001906300004620929190630001dde5565b50602082015181600101556040820151816002019080519060200190630000464b929190630001dde5565b506060820151816003019080519060200190630000466c929190630001dde5565b506080820151816004015560a08201518160050160006101000a81548160ff02191690831515021790555060c08201518160060160008201518160000160006101000a81548163ffffffff021916908363ffffffff16021790555060208201518160000160046101000a81548163ffffffff021916908363ffffffff16021790555060408201518160000160086101000a81548163ffffffff021916908363ffffffff160217905550606082015181600001600c6101000a81548163ffffffff021916908363ffffffff16021790555060808201518160000160106101000a81548163ffffffff021916908363ffffffff16021790555060a08201518160000160146101000a81548163ffffffff021916908363ffffffff160217905550505050505060036040518060e001604052806040518060400160405280600781526020017f50696b61636875000000000000000000000000000000000000000000000000008152508152602001601981526020016040518060400160405280600881526020017f456c65637472696300000000000000000000000000000000000000000000000081525081526020016040518060400160405280600381526020017f6e616e0000000000000000000000000000000000000000000000000000000000815250815260200161024481526020016000151581526020016040518060c00160405280602363ffffffff168152602001603763ffffffff168152602001602863ffffffff168152602001603263ffffffff168152602001603263ffffffff168152602001605a63ffffffff16815250815250908060018154018082558091505090600182039060005260206000209060070201600090919290919091506000820151816000019080519060200190630000490a929190630001dde5565b506020820151816001015560408201518160020190805190602001906300004935929190630001dde5565b5060608201518160030190805190602001906300004956929190630001dde5565b506080820151816004015560a08201518160050160006101000a81548160ff02191690831515021790555060c08201518160060160008201518160000160006101000a81548163ffffffff021916908363ffffffff16021790555060208201518160000160046101000a81548163ffffffff021916908363ffffffff16021790555060408201518160000160086101000a81548163ffffffff021916908363ffffffff160217905550606082015181600001600c6101000a81548163ffffffff021916908363ffffffff16021790555060808201518160000160106101000a81548163ffffffff021916908363ffffffff16021790555060a08201518160000160146101000a81548163ffffffff021916908363ffffffff160217905550505050505060036040518060e001604052806040518060400160405280600681526020017f52616963687500000000000000000000000000000000000000000000000000008152508152602001601a81526020016040518060400160405280600881526020017f456c65637472696300000000000000000000000000000000000000000000000081525081526020016040518060400160405280600381526020017f6e616e0000000000000000000000000000000000000000000000000000000000815250815260200161019f81526020016000151581526020016040518060c00160405280603c63ffffffff168152602001605a63ffffffff168152602001603763ffffffff168152602001605a63ffffffff168152602001605063ffffffff168152602001606e63ffffffff168152508152509080600181540180825580915050906001820390600052602060002090600702016000909192909190915060008201518160000190805190602001906300004bf4929190630001dde5565b506020820151816001015560408201518160020190805190602001906300004c1f929190630001dde5565b5060608201518160030190805190602001906300004c40929190630001dde5565b506080820151816004015560a08201518160050160006101000a81548160ff02191690831515021790555060c08201518160060160008201518160000160006101000a81548163ffffffff021916908363ffffffff16021790555060208201518160000160046101000a81548163ffffffff021916908363ffffffff16021790555060408201518160000160086101000a81548163ffffffff021916908363ffffffff160217905550606082015181600001600c6101000a81548163ffffffff021916908363ffffffff16021790555060808201518160000160106101000a81548163ffffffff021916908363ffffffff16021790555060a08201518160000160146101000a81548163ffffffff021916908363ffffffff160217905550505050505060036040518060e001604052806040518060400160405280600981526020017f53616e64736872657700000000000000000000000000000000000000000000008152508152602001601b81526020016040518060400160405280600681526020017f47726f756e64000000000000000000000000000000000000000000000000000081525081526020016040518060400160405280600381526020017f6e616e0000000000000000000000000000000000000000000000000000000000815250815260200161025881526020016000151581526020016040518060c00160405280603263ffffffff168152602001604b63ffffffff168152602001605563ffffffff168152602001601463ffffffff168152602001601e63ffffffff168152602001602863ffffffff168152508152509080600181540180825580915050906001820390600052602060002090600702016000909192909190915060008201518160000190805190602001906300004ede929190630001dde5565b506020820151816001015560408201518160020190805190602001906300004f09929190630001dde5565b5060608201518160030190805190602001906300004f2a929190630001dde5565b506080820151816004015560a08201518160050160006101000a81548160ff02191690831515021790555060c08201518160060160008201518160000160006101000a81548163ffffffff021916908363ffffffff16021790555060208201518160000160046101000a81548163ffffffff021916908363ffffffff16021790555060408201518160000160086101000a81548163ffffffff021916908363ffffffff160217905550606082015181600001600c6101000a81548163ffffffff021916908363ffffffff16021790555060808201518160000160106101000a81548163ffffffff021916908363ffffffff16021790555060a08201518160000160146101000a81548163ffffffff021916908363ffffffff160217905550505050505060036040518060e001604052806040518060400160405280600981526020017f53616e64736c61736800000000000000000000000000000000000000000000008152508152602001601c81526020016040518060400160405280600681526020017f47726f756e64000000000000000000000000000000000000000000000000000081525081526020016040518060400160405280600381526020017f6e616e000000000000000000000000000000000000000000000000000000000081525081526020016101c281526020016000151581526020016040518060c00160405280604b63ffffffff168152602001606463ffffffff168152602001606e63ffffffff168152602001602d63ffffffff168152602001603763ffffffff168152602001604163ffffffff1681525081525090806001815401808255809150509060018203906000526020600020906007020160009091929091909150600082015181600001908051906020019063000051c8929190630001dde5565b5060208201518160010155604082015181600201908051906020019063000051f3929190630001dde5565b5060608201518160030190805190602001906300005214929190630001dde5565b506080820151816004015560a08201518160050160006101000a81548160ff02191690831515021790555060c08201518160060160008201518160000160006101000a81548163ffffffff021916908363ffffffff16021790555060208201518160000160046101000a81548163ffffffff021916908363ffffffff16021790555060408201518160000160086101000a81548163ffffffff021916908363ffffffff160217905550606082015181600001600c6101000a81548163ffffffff021916908363ffffffff16021790555060808201518160000160106101000a81548163ffffffff021916908363ffffffff16021790555060a08201518160000160146101000a81548163ffffffff021916908363ffffffff160217905550505050505060036040518060e001604052806040518060400160405280600a81526020017f4e69646f72616ee29980000000000000000000000000000000000000000000008152508152602001601d81526020016040518060400160405280600681526020017f506f69736f6e000000000000000000000000000000000000000000000000000081525081526020016040518060400160405280600381526020017f6e616e0000000000000000000000000000000000000000000000000000000000815250815260200161027181526020016000151581526020016040518060c00160405280603763ffffffff168152602001602f63ffffffff168152602001603463ffffffff168152602001602863ffffffff168152602001602863ffffffff168152602001602963ffffffff1681525081525090806001815401808255809150509060018203906000526020600020906007020160009091929091909150600082015181600001908051906020019063000054b2929190630001dde5565b5060208201518160010155604082015181600201908051906020019063000054dd929190630001dde5565b50606082015181600301908051906020019063000054fe929190630001dde5565b506080820151816004015560a08201518160050160006101000a81548160ff02191690831515021790555060c08201518160060160008201518160000160006101000a81548163ffffffff021916908363ffffffff16021790555060208201518160000160046101000a81548163ffffffff021916908363ffffffff16021790555060408201518160000160086101000a81548163ffffffff021916908363ffffffff160217905550606082015181600001600c6101000a81548163ffffffff021916908363ffffffff16021790555060808201518160000160106101000a81548163ffffffff021916908363ffffffff16021790555060a08201518160000160146101000a81548163ffffffff021916908363ffffffff160217905550505050505060036040518060e001604052806040518060400160405280600881526020017f4e69646f72696e610000000000000000000000000000000000000000000000008152508152602001601e81526020016040518060400160405280600681526020017f506f69736f6e000000000000000000000000000000000000000000000000000081525081526020016040518060400160405280600381526020017f6e616e0000000000000000000000000000000000000000000000000000000000815250815260200161021781526020016000151581526020016040518060c00160405280604663ffffffff168152602001603e63ffffffff168152602001604363ffffffff168152602001603763ffffffff168152602001603763ffffffff168152602001603863ffffffff16815250815250908060018154018082558091505090600182039060005260206000209060070201600090919290919091506000820151816000019080519060200190630000579c929190630001dde5565b5060208201518160010155604082015181600201908051906020019063000057c7929190630001dde5565b50606082015181600301908051906020019063000057e8929190630001dde5565b506080820151816004015560a08201518160050160006101000a81548160ff02191690831515021790555060c08201518160060160008201518160000160006101000a81548163ffffffff021916908363ffffffff16021790555060208201518160000160046101000a81548163ffffffff021916908363ffffffff16021790555060408201518160000160086101000a81548163ffffffff021916908363ffffffff160217905550606082015181600001600c6101000a81548163ffffffff021916908363ffffffff16021790555060808201518160000160106101000a81548163ffffffff021916908363ffffffff16021790555060a08201518160000160146101000a81548163ffffffff021916908363ffffffff160217905550505050505060036040518060e001604052806040518060400160405280600981526020017f4e69646f717565656e00000000000000000000000000000000000000000000008152508152602001601f81526020016040518060400160405280600681526020017f506f69736f6e000000000000000000000000000000000000000000000000000081525081526020016040518060400160405280600681526020017f47726f756e640000000000000000000000000000000000000000000000000000815250815260200161018b81526020016000151581526020016040518060c00160405280605a63ffffffff168152602001605c63ffffffff168152602001605763ffffffff168152602001604b63ffffffff168152602001605563ffffffff168152602001604c63ffffffff168152508152509080600181540180825580915050906001820390600052602060002090600702016000909192909190915060008201518160000190805190602001906300005a86929190630001dde5565b506020820151816001015560408201518160020190805190602001906300005ab1929190630001dde5565b5060608201518160030190805190602001906300005ad2929190630001dde5565b506080820151816004015560a08201518160050160006101000a81548160ff02191690831515021790555060c08201518160060160008201518160000160006101000a81548163ffffffff021916908363ffffffff16021790555060208201518160000160046101000a81548163ffffffff021916908363ffffffff16021790555060408201518160000160086101000a81548163ffffffff021916908363ffffffff160217905550606082015181600001600c6101000a81548163ffffffff021916908363ffffffff16021790555060808201518160000160106101000a81548163ffffffff021916908363ffffffff16021790555060a08201518160000160146101000a81548163ffffffff021916908363ffffffff160217905550505050505060036040518060e001604052806040518060400160405280600a81526020017f4e69646f72616ee29982000000000000000000000000000000000000000000008152508152602001602081526020016040518060400160405280600681526020017f506f69736f6e000000000000000000000000000000000000000000000000000081525081526020016040518060400160405280600381526020017f6e616e0000000000000000000000000000000000000000000000000000000000815250815260200161027381526020016000151581526020016040518060c00160405280602e63ffffffff168152602001603963ffffffff168152602001602863ffffffff168152602001602863ffffffff168152602001602863ffffffff168152602001603263ffffffff168152508152509080600181540180825580915050906001820390600052602060002090600702016000909192909190915060008201518160000190805190602001906300005d70929190630001dde5565b506020820151816001015560408201518160020190805190602001906300005d9b929190630001dde5565b5060608201518160030190805190602001906300005dbc929190630001dde5565b506080820151816004015560a08201518160050160006101000a81548160ff02191690831515021790555060c08201518160060160008201518160000160006101000a81548163ffffffff021916908363ffffffff16021790555060208201518160000160046101000a81548163ffffffff021916908363ffffffff16021790555060408201518160000160086101000a81548163ffffffff021916908363ffffffff160217905550606082015181600001600c6101000a81548163ffffffff021916908363ffffffff16021790555060808201518160000160106101000a81548163ffffffff021916908363ffffffff16021790555060a08201518160000160146101000a81548163ffffffff021916908363ffffffff160217905550505050505060036040518060e001604052806040518060400160405280600881526020017f4e69646f72696e6f0000000000000000000000000000000000000000000000008152508152602001602181526020016040518060400160405280600681526020017f506f69736f6e000000000000000000000000000000000000000000000000000081525081526020016040518060400160405280600381526020017f6e616e0000000000000000000000000000000000000000000000000000000000815250815260200161021781526020016000151581526020016040518060c00160405280603d63ffffffff168152602001604863ffffffff168152602001603963ffffffff168152602001603763ffffffff168152602001603763ffffffff168152602001604163ffffffff16815250815250908060018154018082558091505090600182039060005260206000209060070201600090919290919091506000820151816000019080519060200190630000605a929190630001dde5565b506020820151816001015560408201518160020190805190602001906300006085929190630001dde5565b50606082015181600301908051906020019063000060a6929190630001dde5565b506080820151816004015560a08201518160050160006101000a81548160ff02191690831515021790555060c08201518160060160008201518160000160006101000a81548163ffffffff021916908363ffffffff16021790555060208201518160000160046101000a81548163ffffffff021916908363ffffffff16021790555060408201518160000160086101000a81548163ffffffff021916908363ffffffff160217905550606082015181600001600c6101000a81548163ffffffff021916908363ffffffff16021790555060808201518160000160106101000a81548163ffffffff021916908363ffffffff16021790555060a08201518160000160146101000a81548163ffffffff021916908363ffffffff160217905550505050505060036040518060e001604052806040518060400160405280600881526020017f4e69646f6b696e670000000000000000000000000000000000000000000000008152508152602001602281526020016040518060400160405280600681526020017f506f69736f6e000000000000000000000000000000000000000000000000000081525081526020016040518060400160405280600681526020017f47726f756e640000000000000000000000000000000000000000000000000000815250815260200161018b81526020016000151581526020016040518060c00160405280605163ffffffff168152602001606663ffffffff168152602001604d63ffffffff168152602001605563ffffffff168152602001604b63ffffffff168152602001605563ffffffff168152508152509080600181540180825580915050906001820390600052602060002090600702016000909192909190915060008201518160000190805190602001906300006344929190630001dde5565b50602082015181600101556040820151816002019080519060200190630000636f929190630001dde5565b5060608201518160030190805190602001906300006390929190630001dde5565b506080820151816004015560a08201518160050160006101000a81548160ff02191690831515021790555060c08201518160060160008201518160000160006101000a81548163ffffffff021916908363ffffffff16021790555060208201518160000160046101000a81548163ffffffff021916908363ffffffff16021790555060408201518160000160086101000a81548163ffffffff021916908363ffffffff160217905550606082015181600001600c6101000a81548163ffffffff021916908363ffffffff16021790555060808201518160000160106101000a81548163ffffffff021916908363ffffffff16021790555060a08201518160000160146101000a81548163ffffffff021916908363ffffffff160217905550505050505060036040518060e001604052806040518060400160405280600881526020017f436c6566616972790000000000000000000000000000000000000000000000008152508152602001602381526020016040518060400160405280600581526020017f466169727900000000000000000000000000000000000000000000000000000081525081526020016040518060400160405280600381526020017f6e616e0000000000000000000000000000000000000000000000000000000000815250815260200161024181526020016000151581526020016040518060c00160405280604663ffffffff168152602001602d63ffffffff168152602001603063ffffffff168152602001603c63ffffffff168152602001604163ffffffff168152602001602363ffffffff16815250815250908060018154018082558091505090600182039060005260206000209060070201600090919290919091506000820151816000019080519060200190630000662e929190630001dde5565b506020820151816001015560408201518160020190805190602001906300006659929190630001dde5565b506060820151816003019080519060200190630000667a929190630001dde5565b506080820151816004015560a08201518160050160006101000a81548160ff02191690831515021790555060c08201518160060160008201518160000160006101000a81548163ffffffff021916908363ffffffff16021790555060208201518160000160046101000a81548163ffffffff021916908363ffffffff16021790555060408201518160000160086101000a81548163ffffffff021916908363ffffffff160217905550606082015181600001600c6101000a81548163ffffffff021916908363ffffffff16021790555060808201518160000160106101000a81548163ffffffff021916908363ffffffff16021790555060a08201518160000160146101000a81548163ffffffff021916908363ffffffff160217905550505050505060036040518060e001604052806040518060400160405280600881526020017f436c656661626c650000000000000000000000000000000000000000000000008152508152602001602481526020016040518060400160405280600581526020017f466169727900000000000000000000000000000000000000000000000000000081525081526020016040518060400160405280600381526020017f6e616e000000000000000000000000000000000000000000000000000000000081525081526020016101a181526020016000151581526020016040518060c00160405280605f63ffffffff168152602001604663ffffffff168152602001604963ffffffff168152602001605f63ffffffff168152602001605a63ffffffff168152602001603c63ffffffff168152508152509080600181540180825580915050906001820390600052602060002090600702016000909192909190915060008201518160000190805190602001906300006918929190630001dde5565b506020820151816001015560408201518160020190805190602001906300006943929190630001dde5565b5060608201518160030190805190602001906300006964929190630001dde5565b506080820151816004015560a08201518160050160006101000a81548160ff02191690831515021790555060c08201518160060160008201518160000160006101000a81548163ffffffff021916908363ffffffff16021790555060208201518160000160046101000a81548163ffffffff021916908363ffffffff16021790555060408201518160000160086101000a81548163ffffffff021916908363ffffffff160217905550606082015181600001600c6101000a81548163ffffffff021916908363ffffffff16021790555060808201518160000160106101000a81548163ffffffff021916908363ffffffff16021790555060a08201518160000160146101000a81548163ffffffff021916908363ffffffff160217905550505050505060036040518060e001604052806040518060400160405280600681526020017f56756c70697800000000000000000000000000000000000000000000000000008152508152602001602581526020016040518060400160405280600481526020017f466972650000000000000000000000000000000000000000000000000000000081525081526020016040518060400160405280600381526020017f6e616e0000000000000000000000000000000000000000000000000000000000815250815260200161025981526020016000151581526020016040518060c00160405280602663ffffffff168152602001602963ffffffff168152602001602863ffffffff168152602001603263ffffffff168152602001604163ffffffff168152602001604163ffffffff168152508152509080600181540180825580915050906001820390600052602060002090600702016000909192909190915060008201518160000190805190602001906300006c02929190630001dde5565b506020820151816001015560408201518160020190805190602001906300006c2d929190630001dde5565b5060608201518160030190805190602001906300006c4e929190630001dde5565b506080820151816004015560a08201518160050160006101000a81548160ff02191690831515021790555060c08201518160060160008201518160000160006101000a81548163ffffffff021916908363ffffffff16021790555060208201518160000160046101000a81548163ffffffff021916908363ffffffff16021790555060408201518160000160086101000a81548163ffffffff021916908363ffffffff160217905550606082015181600001600c6101000a81548163ffffffff021916908363ffffffff16021790555060808201518160000160106101000a81548163ffffffff021916908363ffffffff16021790555060a08201518160000160146101000a81548163ffffffff021916908363ffffffff160217905550505050505060036040518060e001604052806040518060400160405280600981526020017f4e696e6574616c657300000000000000000000000000000000000000000000008152508152602001602681526020016040518060400160405280600481526020017f466972650000000000000000000000000000000000000000000000000000000081525081526020016040518060400160405280600381526020017f6e616e0000000000000000000000000000000000000000000000000000000000815250815260200161018b81526020016000151581526020016040518060c00160405280604963ffffffff168152602001604c63ffffffff168152602001604b63ffffffff168152602001605163ffffffff168152602001606463ffffffff168152602001606463ffffffff168152508152509080600181540180825580915050906001820390600052602060002090600702016000909192909190915060008201518160000190805190602001906300006eec929190630001dde5565b506020820151816001015560408201518160020190805190602001906300006f17929190630001dde5565b5060608201518160030190805190602001906300006f38929190630001dde5565b506080820151816004015560a08201518160050160006101000a81548160ff02191690831515021790555060c08201518160060160008201518160000160006101000a81548163ffffffff021916908363ffffffff16021790555060208201518160000160046101000a81548163ffffffff021916908363ffffffff16021790555060408201518160000160086101000a81548163ffffffff021916908363ffffffff160217905550606082015181600001600c6101000a81548163ffffffff021916908363ffffffff16021790555060808201518160000160106101000a81548163ffffffff021916908363ffffffff16021790555060a08201518160000160146101000a81548163ffffffff021916908363ffffffff160217905550505050505060036040518060e001604052806040518060400160405280600a81526020017f4a6967676c7970756666000000000000000000000000000000000000000000008152508152602001602781526020016040518060400160405280600681526020017f4e6f726d616c000000000000000000000000000000000000000000000000000081525081526020016040518060400160405280600581526020017f4661697279000000000000000000000000000000000000000000000000000000815250815260200161027681526020016000151581526020016040518060c00160405280607363ffffffff168152602001602d63ffffffff168152602001601463ffffffff168152602001602d63ffffffff168152602001601963ffffffff168152602001601463ffffffff1681525081525090806001815401808255809150509060018203906000526020600020906007020160009091929091909150600082015181600001908051906020019063000071d6929190630001dde5565b506020820151816001015560408201518160020190805190602001906300007201929190630001dde5565b5060608201518160030190805190602001906300007222929190630001dde5565b506080820151816004015560a08201518160050160006101000a81548160ff02191690831515021790555060c08201518160060160008201518160000160006101000a81548163ffffffff021916908363ffffffff16021790555060208201518160000160046101000a81548163ffffffff021916908363ffffffff16021790555060408201518160000160086101000a81548163ffffffff021916908363ffffffff160217905550606082015181600001600c6101000a81548163ffffffff021916908363ffffffff16021790555060808201518160000160106101000a81548163ffffffff021916908363ffffffff16021790555060a08201518160000160146101000a81548163ffffffff021916908363ffffffff160217905550505050505060036040518060e001604052806040518060400160405280600a81526020017f576967676c7974756666000000000000000000000000000000000000000000008152508152602001602881526020016040518060400160405280600681526020017f4e6f726d616c000000000000000000000000000000000000000000000000000081525081526020016040518060400160405280600581526020017f466169727900000000000000000000000000000000000000000000000000000081525081526020016101d181526020016000151581526020016040518060c00160405280608c63ffffffff168152602001604663ffffffff168152602001602d63ffffffff168152602001605563ffffffff168152602001603263ffffffff168152602001602d63ffffffff1681525081525090806001815401808255809150509060018203906000526020600020906007020160009091929091909150600082015181600001908051906020019063000074c0929190630001dde5565b5060208201518160010155604082015181600201908051906020019063000074eb929190630001dde5565b506060820151816003019080519060200190630000750c929190630001dde5565b506080820151816004015560a08201518160050160006101000a81548160ff02191690831515021790555060c08201518160060160008201518160000160006101000a81548163ffffffff021916908363ffffffff16021790555060208201518160000160046101000a81548163ffffffff021916908363ffffffff16021790555060408201518160000160086101000a81548163ffffffff021916908363ffffffff160217905550606082015181600001600c6101000a81548163ffffffff021916908363ffffffff16021790555060808201518160000160106101000a81548163ffffffff021916908363ffffffff16021790555060a08201518160000160146101000a81548163ffffffff021916908363ffffffff160217905550505050505060036040518060e001604052806040518060400160405280600581526020017f5a756261740000000000000000000000000000000000000000000000000000008152508152602001602981526020016040518060400160405280600681526020017f506f69736f6e000000000000000000000000000000000000000000000000000081525081526020016040518060400160405280600681526020017f466c79696e670000000000000000000000000000000000000000000000000000815250815260200161028f81526020016000151581526020016040518060c00160405280602863ffffffff168152602001602d63ffffffff168152602001602363ffffffff168152602001601e63ffffffff168152602001602863ffffffff168152602001603763ffffffff1681525081525090806001815401808255809150509060018203906000526020600020906007020160009091929091909150600082015181600001908051906020019063000077aa929190630001dde5565b5060208201518160010155604082015181600201908051906020019063000077d5929190630001dde5565b50606082015181600301908051906020019063000077f6929190630001dde5565b506080820151816004015560a08201518160050160006101000a81548160ff02191690831515021790555060c08201518160060160008201518160000160006101000a81548163ffffffff021916908363ffffffff16021790555060208201518160000160046101000a81548163ffffffff021916908363ffffffff16021790555060408201518160000160086101000a81548163ffffffff021916908363ffffffff160217905550606082015181600001600c6101000a81548163ffffffff021916908363ffffffff16021790555060808201518160000160106101000a81548163ffffffff021916908363ffffffff16021790555060a08201518160000160146101000a81548163ffffffff021916908363ffffffff160217905550505050505060036040518060e001604052806040518060400160405280600681526020017f476f6c62617400000000000000000000000000000000000000000000000000008152508152602001602a81526020016040518060400160405280600681526020017f506f69736f6e000000000000000000000000000000000000000000000000000081525081526020016040518060400160405280600681526020017f466c79696e67000000000000000000000000000000000000000000000000000081525081526020016101bd81526020016000151581526020016040518060c00160405280604b63ffffffff168152602001605063ffffffff168152602001604663ffffffff168152602001604163ffffffff168152602001604b63ffffffff168152602001605a63ffffffff168152508152509080600181540180825580915050906001820390600052602060002090600702016000909192909190915060008201518160000190805190602001906300007a94929190630001dde5565b506020820151816001015560408201518160020190805190602001906300007abf929190630001dde5565b5060608201518160030190805190602001906300007ae0929190630001dde5565b506080820151816004015560a08201518160050160006101000a81548160ff02191690831515021790555060c08201518160060160008201518160000160006101000a81548163ffffffff021916908363ffffffff16021790555060208201518160000160046101000a81548163ffffffff021916908363ffffffff16021790555060408201518160000160086101000a81548163ffffffff021916908363ffffffff160217905550606082015181600001600c6101000a81548163ffffffff021916908363ffffffff16021790555060808201518160000160106101000a81548163ffffffff021916908363ffffffff16021790555060a08201518160000160146101000a81548163ffffffff021916908363ffffffff160217905550505050505060036040518060e001604052806040518060400160405280600681526020017f4f646469736800000000000000000000000000000000000000000000000000008152508152602001602b81526020016040518060400160405280600581526020017f477261737300000000000000000000000000000000000000000000000000000081525081526020016040518060400160405280600681526020017f506f69736f6e0000000000000000000000000000000000000000000000000000815250815260200161024481526020016000151581526020016040518060c00160405280602d63ffffffff168152602001603263ffffffff168152602001603763ffffffff168152602001604b63ffffffff168152602001604163ffffffff168152602001601e63ffffffff168152508152509080600181540180825580915050906001820390600052602060002090600702016000909192909190915060008201518160000190805190602001906300007d7e929190630001dde5565b506020820151816001015560408201518160020190805190602001906300007da9929190630001dde5565b5060608201518160030190805190602001906300007dca929190630001dde5565b506080820151816004015560a08201518160050160006101000a81548160ff02191690831515021790555060c08201518160060160008201518160000160006101000a81548163ffffffff021916908363ffffffff16021790555060208201518160000160046101000a81548163ffffffff021916908363ffffffff16021790555060408201518160000160086101000a81548163ffffffff021916908363ffffffff160217905550606082015181600001600c6101000a81548163ffffffff021916908363ffffffff16021790555060808201518160000160106101000a81548163ffffffff021916908363ffffffff16021790555060a08201518160000160146101000a81548163ffffffff021916908363ffffffff160217905550505050505060036040518060e001604052806040518060400160405280600581526020017f476c6f6f6d0000000000000000000000000000000000000000000000000000008152508152602001602c81526020016040518060400160405280600581526020017f477261737300000000000000000000000000000000000000000000000000000081525081526020016040518060400160405280600681526020017f506f69736f6e000000000000000000000000000000000000000000000000000081525081526020016101f981526020016000151581526020016040518060c00160405280603c63ffffffff168152602001604163ffffffff168152602001604663ffffffff168152602001605563ffffffff168152602001604b63ffffffff168152602001602863ffffffff168152508152509080600181540180825580915050906001820390600052602060002090600702016000909192909190915060008201518160000190805190602001906300008068929190630001dde5565b506020820151816001015560408201518160020190805190602001906300008093929190630001dde5565b50606082015181600301908051906020019063000080b4929190630001dde5565b506080820151816004015560a08201518160050160006101000a81548160ff02191690831515021790555060c08201518160060160008201518160000160006101000a81548163ffffffff021916908363ffffffff16021790555060208201518160000160046101000a81548163ffffffff021916908363ffffffff16021790555060408201518160000160086101000a81548163ffffffff021916908363ffffffff160217905550606082015181600001600c6101000a81548163ffffffff021916908363ffffffff16021790555060808201518160000160106101000a81548163ffffffff021916908363ffffffff16021790555060a08201518160000160146101000a81548163ffffffff021916908363ffffffff160217905550505050505060036040518060e001604052806040518060400160405280600981526020017f56696c65706c756d6500000000000000000000000000000000000000000000008152508152602001602d81526020016040518060400160405280600581526020017f477261737300000000000000000000000000000000000000000000000000000081525081526020016040518060400160405280600681526020017f506f69736f6e0000000000000000000000000000000000000000000000000000815250815260200161019a81526020016000151581526020016040518060c00160405280604b63ffffffff168152602001605063ffffffff168152602001605563ffffffff168152602001606e63ffffffff168152602001605a63ffffffff168152602001603263ffffffff168152508152509080600181540180825580915050906001820390600052602060002090600702016000909192909190915060008201518160000190805190602001906300008352929190630001dde5565b50602082015181600101556040820151816002019080519060200190630000837d929190630001dde5565b506060820151816003019080519060200190630000839e929190630001dde5565b506080820151816004015560a08201518160050160006101000a81548160ff02191690831515021790555060c08201518160060160008201518160000160006101000a81548163ffffffff021916908363ffffffff16021790555060208201518160000160046101000a81548163ffffffff021916908363ffffffff16021790555060408201518160000160086101000a81548163ffffffff021916908363ffffffff160217905550606082015181600001600c6101000a81548163ffffffff021916908363ffffffff16021790555060808201518160000160106101000a81548163ffffffff021916908363ffffffff16021790555060a08201518160000160146101000a81548163ffffffff021916908363ffffffff160217905550505050505060036040518060e001604052806040518060400160405280600581526020017f50617261730000000000000000000000000000000000000000000000000000008152508152602001602e81526020016040518060400160405280600381526020017f427567000000000000000000000000000000000000000000000000000000000081525081526020016040518060400160405280600581526020017f4772617373000000000000000000000000000000000000000000000000000000815250815260200161026781526020016000151581526020016040518060c00160405280602363ffffffff168152602001604663ffffffff168152602001603763ffffffff168152602001602d63ffffffff168152602001603763ffffffff168152602001601963ffffffff16815250815250908060018154018082558091505090600182039060005260206000209060070201600090919290919091506000820151816000019080519060200190630000863c929190630001dde5565b506020820151816001015560408201518160020190805190602001906300008667929190630001dde5565b5060608201518160030190805190602001906300008688929190630001dde5565b506080820151816004015560a08201518160050160006101000a81548160ff02191690831515021790555060c08201518160060160008201518160000160006101000a81548163ffffffff021916908363ffffffff16021790555060208201518160000160046101000a81548163ffffffff021916908363ffffffff16021790555060408201518160000160086101000a81548163ffffffff021916908363ffffffff160217905550606082015181600001600c6101000a81548163ffffffff021916908363ffffffff16021790555060808201518160000160106101000a81548163ffffffff021916908363ffffffff16021790555060a08201518160000160146101000a81548163ffffffff021916908363ffffffff160217905550505050505060036040518060e001604052806040518060400160405280600881526020017f50617261736563740000000000000000000000000000000000000000000000008152508152602001602f81526020016040518060400160405280600381526020017f427567000000000000000000000000000000000000000000000000000000000081525081526020016040518060400160405280600581526020017f477261737300000000000000000000000000000000000000000000000000000081525081526020016101ef81526020016000151581526020016040518060c00160405280603c63ffffffff168152602001605f63ffffffff168152602001605063ffffffff168152602001603c63ffffffff168152602001605063ffffffff168152602001601e63ffffffff168152508152509080600181540180825580915050906001820390600052602060002090600702016000909192909190915060008201518160000190805190602001906300008926929190630001dde5565b506020820151816001015560408201518160020190805190602001906300008951929190630001dde5565b5060608201518160030190805190602001906300008972929190630001dde5565b506080820151816004015560a08201518160050160006101000a81548160ff02191690831515021790555060c08201518160060160008201518160000160006101000a81548163ffffffff021916908363ffffffff16021790555060208201518160000160046101000a81548163ffffffff021916908363ffffffff16021790555060408201518160000160086101000a81548163ffffffff021916908363ffffffff160217905550606082015181600001600c6101000a81548163ffffffff021916908363ffffffff16021790555060808201518160000160106101000a81548163ffffffff021916908363ffffffff16021790555060a08201518160000160146101000a81548163ffffffff021916908363ffffffff160217905550505050505060036040518060e001604052806040518060400160405280600781526020017f56656e6f6e6174000000000000000000000000000000000000000000000000008152508152602001603081526020016040518060400160405280600381526020017f427567000000000000000000000000000000000000000000000000000000000081525081526020016040518060400160405280600681526020017f506f69736f6e0000000000000000000000000000000000000000000000000000815250815260200161025381526020016000151581526020016040518060c00160405280603c63ffffffff168152602001603763ffffffff168152602001603263ffffffff168152602001602863ffffffff168152602001603763ffffffff168152602001602d63ffffffff168152508152509080600181540180825580915050906001820390600052602060002090600702016000909192909190915060008201518160000190805190602001906300008c10929190630001dde5565b506020820151816001015560408201518160020190805190602001906300008c3b929190630001dde5565b5060608201518160030190805190602001906300008c5c929190630001dde5565b506080820151816004015560a08201518160050160006101000a81548160ff02191690831515021790555060c08201518160060160008201518160000160006101000a81548163ffffffff021916908363ffffffff16021790555060208201518160000160046101000a81548163ffffffff021916908363ffffffff16021790555060408201518160000160086101000a81548163ffffffff021916908363ffffffff160217905550606082015181600001600c6101000a81548163ffffffff021916908363ffffffff16021790555060808201518160000160106101000a81548163ffffffff021916908363ffffffff16021790555060a08201518160000160146101000a81548163ffffffff021916908363ffffffff160217905550505050505060036040518060e001604052806040518060400160405280600881526020017f56656e6f6d6f74680000000000000000000000000000000000000000000000008152508152602001603181526020016040518060400160405280600381526020017f427567000000000000000000000000000000000000000000000000000000000081525081526020016040518060400160405280600681526020017f506f69736f6e000000000000000000000000000000000000000000000000000081525081526020016101c281526020016000151581526020016040518060c00160405280604663ffffffff168152602001604163ffffffff168152602001603c63ffffffff168152602001605a63ffffffff168152602001604b63ffffffff168152602001605a63ffffffff168152508152509080600181540180825580915050906001820390600052602060002090600702016000909192909190915060008201518160000190805190602001906300008efa929190630001dde5565b506020820151816001015560408201518160020190805190602001906300008f25929190630001dde5565b5060608201518160030190805190602001906300008f46929190630001dde5565b506080820151816004015560a08201518160050160006101000a81548160ff02191690831515021790555060c08201518160060160008201518160000160006101000a81548163ffffffff021916908363ffffffff16021790555060208201518160000160046101000a81548163ffffffff021916908363ffffffff16021790555060408201518160000160086101000a81548163ffffffff021916908363ffffffff160217905550606082015181600001600c6101000a81548163ffffffff021916908363ffffffff16021790555060808201518160000160106101000a81548163ffffffff021916908363ffffffff16021790555060a08201518160000160146101000a81548163ffffffff021916908363ffffffff160217905550505050505060036040518060e001604052806040518060400160405280600781526020017f4469676c657474000000000000000000000000000000000000000000000000008152508152602001603281526020016040518060400160405280600681526020017f47726f756e64000000000000000000000000000000000000000000000000000081525081526020016040518060400160405280600381526020017f6e616e0000000000000000000000000000000000000000000000000000000000815250815260200161027b81526020016000151581526020016040518060c00160405280600a63ffffffff168152602001603763ffffffff168152602001601963ffffffff168152602001602363ffffffff168152602001602d63ffffffff168152602001605f63ffffffff1681525081525090806001815401808255809150509060018203906000526020600020906007020160009091929091909150600082015181600001908051906020019063000091e4929190630001dde5565b50602082015181600101556040820151816002019080519060200190630000920f929190630001dde5565b5060608201518160030190805190602001906300009230929190630001dde5565b506080820151816004015560a08201518160050160006101000a81548160ff02191690831515021790555060c08201518160060160008201518160000160006101000a81548163ffffffff021916908363ffffffff16021790555060208201518160000160046101000a81548163ffffffff021916908363ffffffff16021790555060408201518160000160086101000a81548163ffffffff021916908363ffffffff160217905550606082015181600001600c6101000a81548163ffffffff021916908363ffffffff16021790555060808201518160000160106101000a81548163ffffffff021916908363ffffffff16021790555060a08201518160000160146101000a81548163ffffffff021916908363ffffffff160217905550505050505060036040518060e001604052806040518060400160405280600781526020017f4475677472696f000000000000000000000000000000000000000000000000008152508152602001603381526020016040518060400160405280600681526020017f47726f756e64000000000000000000000000000000000000000000000000000081525081526020016040518060400160405280600381526020017f6e616e000000000000000000000000000000000000000000000000000000000081525081526020016101ef81526020016000151581526020016040518060c00160405280602363ffffffff168152602001605063ffffffff168152602001603263ffffffff168152602001603263ffffffff168152602001604663ffffffff168152602001607863ffffffff1681525081525090806001815401808255809150509060018203906000526020600020906007020160009091929091909150600082015181600001908051906020019063000094ce929190630001dde5565b5060208201518160010155604082015181600201908051906020019063000094f9929190630001dde5565b506060820151816003019080519060200190630000951a929190630001dde5565b506080820151816004015560a08201518160050160006101000a81548160ff02191690831515021790555060c08201518160060160008201518160000160006101000a81548163ffffffff021916908363ffffffff16021790555060208201518160000160046101000a81548163ffffffff021916908363ffffffff16021790555060408201518160000160086101000a81548163ffffffff021916908363ffffffff160217905550606082015181600001600c6101000a81548163ffffffff021916908363ffffffff16021790555060808201518160000160106101000a81548163ffffffff021916908363ffffffff16021790555060a08201518160000160146101000a81548163ffffffff021916908363ffffffff160217905550505050505060036040518060e001604052806040518060400160405280600681526020017f4d656f77746800000000000000000000000000000000000000000000000000008152508152602001603481526020016040518060400160405280600681526020017f4e6f726d616c000000000000000000000000000000000000000000000000000081525081526020016040518060400160405280600381526020017f6e616e0000000000000000000000000000000000000000000000000000000000815250815260200161026281526020016000151581526020016040518060c00160405280602863ffffffff168152602001602d63ffffffff168152602001602363ffffffff168152602001602863ffffffff168152602001602863ffffffff168152602001605a63ffffffff1681525081525090806001815401808255809150509060018203906000526020600020906007020160009091929091909150600082015181600001908051906020019063000097b8929190630001dde5565b5060208201518160010155604082015181600201908051906020019063000097e3929190630001dde5565b5060608201518160030190805190602001906300009804929190630001dde5565b506080820151816004015560a08201518160050160006101000a81548160ff02191690831515021790555060c08201518160060160008201518160000160006101000a81548163ffffffff021916908363ffffffff16021790555060208201518160000160046101000a81548163ffffffff021916908363ffffffff16021790555060408201518160000160086101000a81548163ffffffff021916908363ffffffff160217905550606082015181600001600c6101000a81548163ffffffff021916908363ffffffff16021790555060808201518160000160106101000a81548163ffffffff021916908363ffffffff16021790555060a08201518160000160146101000a81548163ffffffff021916908363ffffffff160217905550505050505060036040518060e001604052806040518060400160405280600781526020017f5065727369616e000000000000000000000000000000000000000000000000008152508152602001603581526020016040518060400160405280600681526020017f4e6f726d616c000000000000000000000000000000000000000000000000000081525081526020016040518060400160405280600381526020017f6e616e000000000000000000000000000000000000000000000000000000000081525081526020016101cc81526020016000151581526020016040518060c00160405280604163ffffffff168152602001604663ffffffff168152602001603c63ffffffff168152602001604163ffffffff168152602001604163ffffffff168152602001607363ffffffff168152508152509080600181540180825580915050906001820390600052602060002090600702016000909192909190915060008201518160000190805190602001906300009aa2929190630001dde5565b506020820151816001015560408201518160020190805190602001906300009acd929190630001dde5565b5060608201518160030190805190602001906300009aee929190630001dde5565b506080820151816004015560a08201518160050160006101000a81548160ff02191690831515021790555060c08201518160060160008201518160000160006101000a81548163ffffffff021916908363ffffffff16021790555060208201518160000160046101000a81548163ffffffff021916908363ffffffff16021790555060408201518160000160086101000a81548163ffffffff021916908363ffffffff160217905550606082015181600001600c6101000a81548163ffffffff021916908363ffffffff16021790555060808201518160000160106101000a81548163ffffffff021916908363ffffffff16021790555060a08201518160000160146101000a81548163ffffffff021916908363ffffffff160217905550505050505060036040518060e001604052806040518060400160405280600781526020017f5073796475636b000000000000000000000000000000000000000000000000008152508152602001603681526020016040518060400160405280600581526020017f576174657200000000000000000000000000000000000000000000000000000081525081526020016040518060400160405280600381526020017f6e616e0000000000000000000000000000000000000000000000000000000000815250815260200161024481526020016000151581526020016040518060c00160405280603263ffffffff168152602001603463ffffffff168152602001603063ffffffff168152602001604163ffffffff168152602001603263ffffffff168152602001603763ffffffff168152508152509080600181540180825580915050906001820390600052602060002090600702016000909192909190915060008201518160000190805190602001906300009d8c929190630001dde5565b506020820151816001015560408201518160020190805190602001906300009db7929190630001dde5565b5060608201518160030190805190602001906300009dd8929190630001dde5565b506080820151816004015560a08201518160050160006101000a81548160ff02191690831515021790555060c08201518160060160008201518160000160006101000a81548163ffffffff021916908363ffffffff16021790555060208201518160000160046101000a81548163ffffffff021916908363ffffffff16021790555060408201518160000160086101000a81548163ffffffff021916908363ffffffff160217905550606082015181600001600c6101000a81548163ffffffff021916908363ffffffff16021790555060808201518160000160106101000a81548163ffffffff021916908363ffffffff16021790555060a08201518160000160146101000a81548163ffffffff021916908363ffffffff160217905550505050505060036040518060e001604052806040518060400160405280600781526020017f476f6c6475636b000000000000000000000000000000000000000000000000008152508152602001603781526020016040518060400160405280600581526020017f576174657200000000000000000000000000000000000000000000000000000081525081526020016040518060400160405280600381526020017f6e616e0000000000000000000000000000000000000000000000000000000000815250815260200161019081526020016000151581526020016040518060c00160405280605063ffffffff168152602001605263ffffffff168152602001604e63ffffffff168152602001605f63ffffffff168152602001605063ffffffff168152602001605563ffffffff16815250815250908060018154018082558091505090600182039060005260206000209060070201600090919290919091506000820151816000019080519060200190630000a076929190630001dde5565b50602082015181600101556040820151816002019080519060200190630000a0a1929190630001dde5565b506060820151816003019080519060200190630000a0c2929190630001dde5565b506080820151816004015560a08201518160050160006101000a81548160ff02191690831515021790555060c08201518160060160008201518160000160006101000a81548163ffffffff021916908363ffffffff16021790555060208201518160000160046101000a81548163ffffffff021916908363ffffffff16021790555060408201518160000160086101000a81548163ffffffff021916908363ffffffff160217905550606082015181600001600c6101000a81548163ffffffff021916908363ffffffff16021790555060808201518160000160106101000a81548163ffffffff021916908363ffffffff16021790555060a08201518160000160146101000a81548163ffffffff021916908363ffffffff160217905550505050505060036040518060e001604052806040518060400160405280600681526020017f4d616e6b657900000000000000000000000000000000000000000000000000008152508152602001603881526020016040518060400160405280600881526020017f4669676874696e6700000000000000000000000000000000000000000000000081525081526020016040518060400160405280600381526020017f6e616e0000000000000000000000000000000000000000000000000000000000815250815260200161025381526020016000151581526020016040518060c00160405280602863ffffffff168152602001605063ffffffff168152602001602363ffffffff168152602001602363ffffffff168152602001602d63ffffffff168152602001604663ffffffff16815250815250908060018154018082558091505090600182039060005260206000209060070201600090919290919091506000820151816000019080519060200190630000a360929190630001dde5565b50602082015181600101556040820151816002019080519060200190630000a38b929190630001dde5565b506060820151816003019080519060200190630000a3ac929190630001dde5565b506080820151816004015560a08201518160050160006101000a81548160ff02191690831515021790555060c08201518160060160008201518160000160006101000a81548163ffffffff021916908363ffffffff16021790555060208201518160000160046101000a81548163ffffffff021916908363ffffffff16021790555060408201518160000160086101000a81548163ffffffff021916908363ffffffff160217905550606082015181600001600c6101000a81548163ffffffff021916908363ffffffff16021790555060808201518160000160106101000a81548163ffffffff021916908363ffffffff16021790555060a08201518160000160146101000a81548163ffffffff021916908363ffffffff160217905550505050505060036040518060e001604052806040518060400160405280600881526020017f5072696d656170650000000000000000000000000000000000000000000000008152508152602001603981526020016040518060400160405280600881526020017f4669676874696e6700000000000000000000000000000000000000000000000081525081526020016040518060400160405280600381526020017f6e616e000000000000000000000000000000000000000000000000000000000081525081526020016101bd81526020016000151581526020016040518060c00160405280604163ffffffff168152602001606963ffffffff168152602001603c63ffffffff168152602001603c63ffffffff168152602001604663ffffffff168152602001605f63ffffffff16815250815250908060018154018082558091505090600182039060005260206000209060070201600090919290919091506000820151816000019080519060200190630000a64a929190630001dde5565b50602082015181600101556040820151816002019080519060200190630000a675929190630001dde5565b506060820151816003019080519060200190630000a696929190630001dde5565b506080820151816004015560a08201518160050160006101000a81548160ff02191690831515021790555060c08201518160060160008201518160000160006101000a81548163ffffffff021916908363ffffffff16021790555060208201518160000160046101000a81548163ffffffff021916908363ffffffff16021790555060408201518160000160086101000a81548163ffffffff021916908363ffffffff160217905550606082015181600001600c6101000a81548163ffffffff021916908363ffffffff16021790555060808201518160000160106101000a81548163ffffffff021916908363ffffffff16021790555060a08201518160000160146101000a81548163ffffffff021916908363ffffffff160217905550505050505060036040518060e001604052806040518060400160405280600981526020017f47726f776c6974686500000000000000000000000000000000000000000000008152508152602001603a81526020016040518060400160405280600481526020017f466972650000000000000000000000000000000000000000000000000000000081525081526020016040518060400160405280600381526020017f6e616e0000000000000000000000000000000000000000000000000000000000815250815260200161022681526020016000151581526020016040518060c00160405280603763ffffffff168152602001604663ffffffff168152602001602d63ffffffff168152602001604663ffffffff168152602001603263ffffffff168152602001603c63ffffffff16815250815250908060018154018082558091505090600182039060005260206000209060070201600090919290919091506000820151816000019080519060200190630000a934929190630001dde5565b50602082015181600101556040820151816002019080519060200190630000a95f929190630001dde5565b506060820151816003019080519060200190630000a980929190630001dde5565b506080820151816004015560a08201518160050160006101000a81548160ff02191690831515021790555060c08201518160060160008201518160000160006101000a81548163ffffffff021916908363ffffffff16021790555060208201518160000160046101000a81548163ffffffff021916908363ffffffff16021790555060408201518160000160086101000a81548163ffffffff021916908363ffffffff160217905550606082015181600001600c6101000a81548163ffffffff021916908363ffffffff16021790555060808201518160000160106101000a81548163ffffffff021916908363ffffffff16021790555060a08201518160000160146101000a81548163ffffffff021916908363ffffffff160217905550505050505060036040518060e001604052806040518060400160405280600881526020017f417263616e696e650000000000000000000000000000000000000000000000008152508152602001603b81526020016040518060400160405280600481526020017f466972650000000000000000000000000000000000000000000000000000000081525081526020016040518060400160405280600381526020017f6e616e0000000000000000000000000000000000000000000000000000000000815250815260200161015981526020016000151581526020016040518060c00160405280605a63ffffffff168152602001606e63ffffffff168152602001605063ffffffff168152602001606463ffffffff168152602001605063ffffffff168152602001605f63ffffffff16815250815250908060018154018082558091505090600182039060005260206000209060070201600090919290919091506000820151816000019080519060200190630000ac1e929190630001dde5565b50602082015181600101556040820151816002019080519060200190630000ac49929190630001dde5565b506060820151816003019080519060200190630000ac6a929190630001dde5565b506080820151816004015560a08201518160050160006101000a81548160ff02191690831515021790555060c08201518160060160008201518160000160006101000a81548163ffffffff021916908363ffffffff16021790555060208201518160000160046101000a81548163ffffffff021916908363ffffffff16021790555060408201518160000160086101000a81548163ffffffff021916908363ffffffff160217905550606082015181600001600c6101000a81548163ffffffff021916908363ffffffff16021790555060808201518160000160106101000a81548163ffffffff021916908363ffffffff16021790555060a08201518160000160146101000a81548163ffffffff021916908363ffffffff160217905550505050505060036040518060e001604052806040518060400160405280600781526020017f506f6c69776167000000000000000000000000000000000000000000000000008152508152602001603c81526020016040518060400160405280600581526020017f576174657200000000000000000000000000000000000000000000000000000081525081526020016040518060400160405280600381526020017f6e616e0000000000000000000000000000000000000000000000000000000000815250815260200161025881526020016000151581526020016040518060c00160405280602863ffffffff168152602001603263ffffffff168152602001602863ffffffff168152602001602863ffffffff168152602001602863ffffffff168152602001605a63ffffffff16815250815250908060018154018082558091505090600182039060005260206000209060070201600090919290919091506000820151816000019080519060200190630000af08929190630001dde5565b50602082015181600101556040820151816002019080519060200190630000af33929190630001dde5565b506060820151816003019080519060200190630000af54929190630001dde5565b506080820151816004015560a08201518160050160006101000a81548160ff02191690831515021790555060c08201518160060160008201518160000160006101000a81548163ffffffff021916908363ffffffff16021790555060208201518160000160046101000a81548163ffffffff021916908363ffffffff16021790555060408201518160000160086101000a81548163ffffffff021916908363ffffffff160217905550606082015181600001600c6101000a81548163ffffffff021916908363ffffffff16021790555060808201518160000160106101000a81548163ffffffff021916908363ffffffff16021790555060a08201518160000160146101000a81548163ffffffff021916908363ffffffff160217905550505050505060036040518060e001604052806040518060400160405280600981526020017f506f6c69776869726c00000000000000000000000000000000000000000000008152508152602001603d81526020016040518060400160405280600581526020017f576174657200000000000000000000000000000000000000000000000000000081525081526020016040518060400160405280600381526020017f6e616e0000000000000000000000000000000000000000000000000000000000815250815260200161020381526020016000151581526020016040518060c00160405280604163ffffffff168152602001604163ffffffff168152602001604163ffffffff168152602001603263ffffffff168152602001603263ffffffff168152602001605a63ffffffff16815250815250908060018154018082558091505090600182039060005260206000209060070201600090919290919091506000820151816000019080519060200190630000b1f2929190630001dde5565b50602082015181600101556040820151816002019080519060200190630000b21d929190630001dde5565b506060820151816003019080519060200190630000b23e929190630001dde5565b506080820151816004015560a08201518160050160006101000a81548160ff02191690831515021790555060c08201518160060160008201518160000160006101000a81548163ffffffff021916908363ffffffff16021790555060208201518160000160046101000a81548163ffffffff021916908363ffffffff16021790555060408201518160000160086101000a81548163ffffffff021916908363ffffffff160217905550606082015181600001600c6101000a81548163ffffffff021916908363ffffffff16021790555060808201518160000160106101000a81548163ffffffff021916908363ffffffff16021790555060a08201518160000160146101000a81548163ffffffff021916908363ffffffff160217905550505050505060036040518060e001604052806040518060400160405280600981526020017f506f6c69777261746800000000000000000000000000000000000000000000008152508152602001603e81526020016040518060400160405280600581526020017f576174657200000000000000000000000000000000000000000000000000000081525081526020016040518060400160405280600881526020017f4669676874696e67000000000000000000000000000000000000000000000000815250815260200161018681526020016000151581526020016040518060c00160405280605a63ffffffff168152602001605f63ffffffff168152602001605f63ffffffff168152602001604663ffffffff168152602001605a63ffffffff168152602001604663ffffffff16815250815250908060018154018082558091505090600182039060005260206000209060070201600090919290919091506000820151816000019080519060200190630000b4dc929190630001dde5565b50602082015181600101556040820151816002019080519060200190630000b507929190630001dde5565b506060820151816003019080519060200190630000b528929190630001dde5565b506080820151816004015560a08201518160050160006101000a81548160ff02191690831515021790555060c08201518160060160008201518160000160006101000a81548163ffffffff021916908363ffffffff16021790555060208201518160000160046101000a81548163ffffffff021916908363ffffffff16021790555060408201518160000160086101000a81548163ffffffff021916908363ffffffff160217905550606082015181600001600c6101000a81548163ffffffff021916908363ffffffff16021790555060808201518160000160106101000a81548163ffffffff021916908363ffffffff16021790555060a08201518160000160146101000a81548163ffffffff021916908363ffffffff160217905550505050505060036040518060e001604052806040518060400160405280600481526020017f41627261000000000000000000000000000000000000000000000000000000008152508152602001603f81526020016040518060400160405280600781526020017f507379636869630000000000000000000000000000000000000000000000000081525081526020016040518060400160405280600381526020017f6e616e0000000000000000000000000000000000000000000000000000000000815250815260200161024e81526020016000151581526020016040518060c00160405280601963ffffffff168152602001601463ffffffff168152602001600f63ffffffff168152602001606963ffffffff168152602001603763ffffffff168152602001605a63ffffffff16815250815250908060018154018082558091505090600182039060005260206000209060070201600090919290919091506000820151816000019080519060200190630000b7c6929190630001dde5565b50602082015181600101556040820151816002019080519060200190630000b7f1929190630001dde5565b506060820151816003019080519060200190630000b812929190630001dde5565b506080820151816004015560a08201518160050160006101000a81548160ff02191690831515021790555060c08201518160060160008201518160000160006101000a81548163ffffffff021916908363ffffffff16021790555060208201518160000160046101000a81548163ffffffff021916908363ffffffff16021790555060408201518160000160086101000a81548163ffffffff021916908363ffffffff160217905550606082015181600001600c6101000a81548163ffffffff021916908363ffffffff16021790555060808201518160000160106101000a81548163ffffffff021916908363ffffffff16021790555060a08201518160000160146101000a81548163ffffffff021916908363ffffffff160217905550505050505060036040518060e001604052806040518060400160405280600781526020017f4b616461627261000000000000000000000000000000000000000000000000008152508152602001604081526020016040518060400160405280600781526020017f507379636869630000000000000000000000000000000000000000000000000081525081526020016040518060400160405280600381526020017f6e616e000000000000000000000000000000000000000000000000000000000081525081526020016101f481526020016000151581526020016040518060c00160405280602863ffffffff168152602001602363ffffffff168152602001601e63ffffffff168152602001607863ffffffff168152602001604663ffffffff168152602001606963ffffffff16815250815250908060018154018082558091505090600182039060005260206000209060070201600090919290919091506000820151816000019080519060200190630000bab0929190630001dde5565b50602082015181600101556040820151816002019080519060200190630000badb929190630001dde5565b506060820151816003019080519060200190630000bafc929190630001dde5565b506080820151816004015560a08201518160050160006101000a81548160ff02191690831515021790555060c08201518160060160008201518160000160006101000a81548163ffffffff021916908363ffffffff16021790555060208201518160000160046101000a81548163ffffffff021916908363ffffffff16021790555060408201518160000160086101000a81548163ffffffff021916908363ffffffff160217905550606082015181600001600c6101000a81548163ffffffff021916908363ffffffff16021790555060808201518160000160106101000a81548163ffffffff021916908363ffffffff16021790555060a08201518160000160146101000a81548163ffffffff021916908363ffffffff160217905550505050505060036040518060e001604052806040518060400160405280600881526020017f416c616b617a616d0000000000000000000000000000000000000000000000008152508152602001604181526020016040518060400160405280600781526020017f507379636869630000000000000000000000000000000000000000000000000081525081526020016040518060400160405280600381526020017f6e616e0000000000000000000000000000000000000000000000000000000000815250815260200161019081526020016000151581526020016040518060c00160405280603763ffffffff168152602001603263ffffffff168152602001602d63ffffffff168152602001608763ffffffff168152602001605f63ffffffff168152602001607863ffffffff16815250815250908060018154018082558091505090600182039060005260206000209060070201600090919290919091506000820151816000019080519060200190630000bd9a929190630001dde5565b50602082015181600101556040820151816002019080519060200190630000bdc5929190630001dde5565b506060820151816003019080519060200190630000bde6929190630001dde5565b506080820151816004015560a08201518160050160006101000a81548160ff02191690831515021790555060c08201518160060160008201518160000160006101000a81548163ffffffff021916908363ffffffff16021790555060208201518160000160046101000a81548163ffffffff021916908363ffffffff16021790555060408201518160000160086101000a81548163ffffffff021916908363ffffffff160217905550606082015181600001600c6101000a81548163ffffffff021916908363ffffffff16021790555060808201518160000160106101000a81548163ffffffff021916908363ffffffff16021790555060a08201518160000160146101000a81548163ffffffff021916908363ffffffff160217905550505050505060036040518060e001604052806040518060400160405280600681526020017f4d6163686f7000000000000000000000000000000000000000000000000000008152508152602001604281526020016040518060400160405280600881526020017f4669676874696e6700000000000000000000000000000000000000000000000081525081526020016040518060400160405280600381526020017f6e616e0000000000000000000000000000000000000000000000000000000000815250815260200161025381526020016000151581526020016040518060c00160405280604663ffffffff168152602001605063ffffffff168152602001603263ffffffff168152602001602363ffffffff168152602001602363ffffffff168152602001602363ffffffff16815250815250908060018154018082558091505090600182039060005260206000209060070201600090919290919091506000820151816000019080519060200190630000c084929190630001dde5565b50602082015181600101556040820151816002019080519060200190630000c0af929190630001dde5565b506060820151816003019080519060200190630000c0d0929190630001dde5565b506080820151816004015560a08201518160050160006101000a81548160ff02191690831515021790555060c08201518160060160008201518160000160006101000a81548163ffffffff021916908363ffffffff16021790555060208201518160000160046101000a81548163ffffffff021916908363ffffffff16021790555060408201518160000160086101000a81548163ffffffff021916908363ffffffff160217905550606082015181600001600c6101000a81548163ffffffff021916908363ffffffff16021790555060808201518160000160106101000a81548163ffffffff021916908363ffffffff16021790555060a08201518160000160146101000a81548163ffffffff021916908363ffffffff160217905550505050505060036040518060e001604052806040518060400160405280600781526020017f4d6163686f6b65000000000000000000000000000000000000000000000000008152508152602001604381526020016040518060400160405280600881526020017f4669676874696e6700000000000000000000000000000000000000000000000081525081526020016040518060400160405280600381526020017f6e616e000000000000000000000000000000000000000000000000000000000081525081526020016101ef81526020016000151581526020016040518060c00160405280605063ffffffff168152602001606463ffffffff168152602001604663ffffffff168152602001603263ffffffff168152602001603c63ffffffff168152602001602d63ffffffff16815250815250908060018154018082558091505090600182039060005260206000209060070201600090919290919091506000820151816000019080519060200190630000c36e929190630001dde5565b50602082015181600101556040820151816002019080519060200190630000c399929190630001dde5565b506060820151816003019080519060200190630000c3ba929190630001dde5565b506080820151816004015560a08201518160050160006101000a81548160ff02191690831515021790555060c08201518160060160008201518160000160006101000a81548163ffffffff021916908363ffffffff16021790555060208201518160000160046101000a81548163ffffffff021916908363ffffffff16021790555060408201518160000160086101000a81548163ffffffff021916908363ffffffff160217905550606082015181600001600c6101000a81548163ffffffff021916908363ffffffff16021790555060808201518160000160106101000a81548163ffffffff021916908363ffffffff16021790555060a08201518160000160146101000a81548163ffffffff021916908363ffffffff160217905550505050505060036040518060e001604052806040518060400160405280600781526020017f4d616368616d70000000000000000000000000000000000000000000000000008152508152602001604481526020016040518060400160405280600881526020017f4669676874696e6700000000000000000000000000000000000000000000000081525081526020016040518060400160405280600381526020017f6e616e0000000000000000000000000000000000000000000000000000000000815250815260200161018b81526020016000151581526020016040518060c00160405280605a63ffffffff168152602001608263ffffffff168152602001605063ffffffff168152602001604163ffffffff168152602001605563ffffffff168152602001603763ffffffff16815250815250908060018154018082558091505090600182039060005260206000209060070201600090919290919091506000820151816000019080519060200190630000c658929190630001dde5565b50602082015181600101556040820151816002019080519060200190630000c683929190630001dde5565b506060820151816003019080519060200190630000c6a4929190630001dde5565b506080820151816004015560a08201518160050160006101000a81548160ff02191690831515021790555060c08201518160060160008201518160000160006101000a81548163ffffffff021916908363ffffffff16021790555060208201518160000160046101000a81548163ffffffff021916908363ffffffff16021790555060408201518160000160086101000a81548163ffffffff021916908363ffffffff160217905550606082015181600001600c6101000a81548163ffffffff021916908363ffffffff16021790555060808201518160000160106101000a81548163ffffffff021916908363ffffffff16021790555060a08201518160000160146101000a81548163ffffffff021916908363ffffffff160217905550505050505060036040518060e001604052806040518060400160405280600a81526020017f42656c6c7370726f7574000000000000000000000000000000000000000000008152508152602001604581526020016040518060400160405280600581526020017f477261737300000000000000000000000000000000000000000000000000000081525081526020016040518060400160405280600681526020017f506f69736f6e0000000000000000000000000000000000000000000000000000815250815260200161025881526020016000151581526020016040518060c00160405280603263ffffffff168152602001604b63ffffffff168152602001602363ffffffff168152602001604663ffffffff168152602001601e63ffffffff168152602001602863ffffffff16815250815250908060018154018082558091505090600182039060005260206000209060070201600090919290919091506000820151816000019080519060200190630000c942929190630001dde5565b50602082015181600101556040820151816002019080519060200190630000c96d929190630001dde5565b506060820151816003019080519060200190630000c98e929190630001dde5565b506080820151816004015560a08201518160050160006101000a81548160ff02191690831515021790555060c08201518160060160008201518160000160006101000a81548163ffffffff021916908363ffffffff16021790555060208201518160000160046101000a81548163ffffffff021916908363ffffffff16021790555060408201518160000160086101000a81548163ffffffff021916908363ffffffff160217905550606082015181600001600c6101000a81548163ffffffff021916908363ffffffff16021790555060808201518160000160106101000a81548163ffffffff021916908363ffffffff16021790555060a08201518160000160146101000a81548163ffffffff021916908363ffffffff160217905550505050505060036040518060e001604052806040518060400160405280600a81526020017f57656570696e62656c6c000000000000000000000000000000000000000000008152508152602001604681526020016040518060400160405280600581526020017f477261737300000000000000000000000000000000000000000000000000000081525081526020016040518060400160405280600681526020017f506f69736f6e000000000000000000000000000000000000000000000000000081525081526020016101fe81526020016000151581526020016040518060c00160405280604163ffffffff168152602001605a63ffffffff168152602001603263ffffffff168152602001605563ffffffff168152602001602d63ffffffff168152602001603763ffffffff16815250815250908060018154018082558091505090600182039060005260206000209060070201600090919290919091506000820151816000019080519060200190630000cc2c929190630001dde5565b50602082015181600101556040820151816002019080519060200190630000cc57929190630001dde5565b506060820151816003019080519060200190630000cc78929190630001dde5565b506080820151816004015560a08201518160050160006101000a81548160ff02191690831515021790555060c08201518160060160008201518160000160006101000a81548163ffffffff021916908363ffffffff16021790555060208201518160000160046101000a81548163ffffffff021916908363ffffffff16021790555060408201518160000160086101000a81548163ffffffff021916908363ffffffff160217905550606082015181600001600c6101000a81548163ffffffff021916908363ffffffff16021790555060808201518160000160106101000a81548163ffffffff021916908363ffffffff16021790555060a08201518160000160146101000a81548163ffffffff021916908363ffffffff160217905550505050505060036040518060e001604052806040518060400160405280600a81526020017f5669637472656562656c000000000000000000000000000000000000000000008152508152602001604781526020016040518060400160405280600581526020017f477261737300000000000000000000000000000000000000000000000000000081525081526020016040518060400160405280600681526020017f506f69736f6e0000000000000000000000000000000000000000000000000000815250815260200161019a81526020016000151581526020016040518060c00160405280605063ffffffff168152602001606963ffffffff168152602001604163ffffffff168152602001606463ffffffff168152602001604663ffffffff168152602001604663ffffffff16815250815250908060018154018082558091505090600182039060005260206000209060070201600090919290919091506000820151816000019080519060200190630000cf16929190630001dde5565b50602082015181600101556040820151816002019080519060200190630000cf41929190630001dde5565b506060820151816003019080519060200190630000cf62929190630001dde5565b506080820151816004015560a08201518160050160006101000a81548160ff02191690831515021790555060c08201518160060160008201518160000160006101000a81548163ffffffff021916908363ffffffff16021790555060208201518160000160046101000a81548163ffffffff021916908363ffffffff16021790555060408201518160000160086101000a81548163ffffffff021916908363ffffffff160217905550606082015181600001600c6101000a81548163ffffffff021916908363ffffffff16021790555060808201518160000160106101000a81548163ffffffff021916908363ffffffff16021790555060a08201518160000160146101000a81548163ffffffff021916908363ffffffff160217905550505050505060036040518060e001604052806040518060400160405280600981526020017f54656e7461636f6f6c00000000000000000000000000000000000000000000008152508152602001604881526020016040518060400160405280600581526020017f576174657200000000000000000000000000000000000000000000000000000081525081526020016040518060400160405280600681526020017f506f69736f6e0000000000000000000000000000000000000000000000000000815250815260200161023581526020016000151581526020016040518060c00160405280602863ffffffff168152602001602863ffffffff168152602001602363ffffffff168152602001603263ffffffff168152602001606463ffffffff168152602001604663ffffffff16815250815250908060018154018082558091505090600182039060005260206000209060070201600090919290919091506000820151816000019080519060200190630000d200929190630001dde5565b50602082015181600101556040820151816002019080519060200190630000d22b929190630001dde5565b506060820151816003019080519060200190630000d24c929190630001dde5565b506080820151816004015560a08201518160050160006101000a81548160ff02191690831515021790555060c08201518160060160008201518160000160006101000a81548163ffffffff021916908363ffffffff16021790555060208201518160000160046101000a81548163ffffffff021916908363ffffffff16021790555060408201518160000160086101000a81548163ffffffff021916908363ffffffff160217905550606082015181600001600c6101000a81548163ffffffff021916908363ffffffff16021790555060808201518160000160106101000a81548163ffffffff021916908363ffffffff16021790555060a08201518160000160146101000a81548163ffffffff021916908363ffffffff160217905550505050505060036040518060e001604052806040518060400160405280600a81526020017f54656e7461637275656c000000000000000000000000000000000000000000008152508152602001604981526020016040518060400160405280600581526020017f576174657200000000000000000000000000000000000000000000000000000081525081526020016040518060400160405280600681526020017f506f69736f6e0000000000000000000000000000000000000000000000000000815250815260200161018181526020016000151581526020016040518060c00160405280605063ffffffff168152602001604663ffffffff168152602001604163ffffffff168152602001605063ffffffff168152602001607863ffffffff168152602001606463ffffffff16815250815250908060018154018082558091505090600182039060005260206000209060070201600090919290919091506000820151816000019080519060200190630000d4ea929190630001dde5565b50602082015181600101556040820151816002019080519060200190630000d515929190630001dde5565b506060820151816003019080519060200190630000d536929190630001dde5565b506080820151816004015560a08201518160050160006101000a81548160ff02191690831515021790555060c08201518160060160008201518160000160006101000a81548163ffffffff021916908363ffffffff16021790555060208201518160000160046101000a81548163ffffffff021916908363ffffffff16021790555060408201518160000160086101000a81548163ffffffff021916908363ffffffff160217905550606082015181600001600c6101000a81548163ffffffff021916908363ffffffff16021790555060808201518160000160106101000a81548163ffffffff021916908363ffffffff16021790555060a08201518160000160146101000a81548163ffffffff021916908363ffffffff160217905550505050505060036040518060e001604052806040518060400160405280600781526020017f47656f64756465000000000000000000000000000000000000000000000000008152508152602001604a81526020016040518060400160405280600481526020017f526f636b0000000000000000000000000000000000000000000000000000000081525081526020016040518060400160405280600681526020017f47726f756e640000000000000000000000000000000000000000000000000000815250815260200161025881526020016000151581526020016040518060c00160405280602863ffffffff168152602001605063ffffffff168152602001606463ffffffff168152602001601e63ffffffff168152602001601e63ffffffff168152602001601463ffffffff16815250815250908060018154018082558091505090600182039060005260206000209060070201600090919290919091506000820151816000019080519060200190630000d7d4929190630001dde5565b50602082015181600101556040820151816002019080519060200190630000d7ff929190630001dde5565b506060820151816003019080519060200190630000d820929190630001dde5565b506080820151816004015560a08201518160050160006101000a81548160ff02191690831515021790555060c08201518160060160008201518160000160006101000a81548163ffffffff021916908363ffffffff16021790555060208201518160000160046101000a81548163ffffffff021916908363ffffffff16021790555060408201518160000160086101000a81548163ffffffff021916908363ffffffff160217905550606082015181600001600c6101000a81548163ffffffff021916908363ffffffff16021790555060808201518160000160106101000a81548163ffffffff021916908363ffffffff16021790555060a08201518160000160146101000a81548163ffffffff021916908363ffffffff160217905550505050505060036040518060e001604052806040518060400160405280600881526020017f47726176656c65720000000000000000000000000000000000000000000000008152508152602001604b81526020016040518060400160405280600481526020017f526f636b0000000000000000000000000000000000000000000000000000000081525081526020016040518060400160405280600681526020017f47726f756e64000000000000000000000000000000000000000000000000000081525081526020016101fe81526020016000151581526020016040518060c00160405280603763ffffffff168152602001605f63ffffffff168152602001607363ffffffff168152602001602d63ffffffff168152602001602d63ffffffff168152602001602363ffffffff16815250815250908060018154018082558091505090600182039060005260206000209060070201600090919290919091506000820151816000019080519060200190630000dabe929190630001dde5565b50602082015181600101556040820151816002019080519060200190630000dae9929190630001dde5565b506060820151816003019080519060200190630000db0a929190630001dde5565b506080820151816004015560a08201518160050160006101000a81548160ff02191690831515021790555060c08201518160060160008201518160000160006101000a81548163ffffffff021916908363ffffffff16021790555060208201518160000160046101000a81548163ffffffff021916908363ffffffff16021790555060408201518160000160086101000a81548163ffffffff021916908363ffffffff160217905550606082015181600001600c6101000a81548163ffffffff021916908363ffffffff16021790555060808201518160000160106101000a81548163ffffffff021916908363ffffffff16021790555060a08201518160000160146101000a81548163ffffffff021916908363ffffffff160217905550505050505060036040518060e001604052806040518060400160405280600581526020017f476f6c656d0000000000000000000000000000000000000000000000000000008152508152602001604c81526020016040518060400160405280600481526020017f526f636b0000000000000000000000000000000000000000000000000000000081525081526020016040518060400160405280600681526020017f47726f756e640000000000000000000000000000000000000000000000000000815250815260200161019581526020016000151581526020016040518060c00160405280605063ffffffff168152602001607863ffffffff168152602001608263ffffffff168152602001603763ffffffff168152602001604163ffffffff168152602001602d63ffffffff16815250815250908060018154018082558091505090600182039060005260206000209060070201600090919290919091506000820151816000019080519060200190630000dda8929190630001dde5565b50602082015181600101556040820151816002019080519060200190630000ddd3929190630001dde5565b506060820151816003019080519060200190630000ddf4929190630001dde5565b506080820151816004015560a08201518160050160006101000a81548160ff02191690831515021790555060c08201518160060160008201518160000160006101000a81548163ffffffff021916908363ffffffff16021790555060208201518160000160046101000a81548163ffffffff021916908363ffffffff16021790555060408201518160000160086101000a81548163ffffffff021916908363ffffffff160217905550606082015181600001600c6101000a81548163ffffffff021916908363ffffffff16021790555060808201518160000160106101000a81548163ffffffff021916908363ffffffff16021790555060a08201518160000160146101000a81548163ffffffff021916908363ffffffff160217905550505050505060036040518060e001604052806040518060400160405280600681526020017f506f6e79746100000000000000000000000000000000000000000000000000008152508152602001604d81526020016040518060400160405280600481526020017f466972650000000000000000000000000000000000000000000000000000000081525081526020016040518060400160405280600381526020017f6e616e000000000000000000000000000000000000000000000000000000000081525081526020016101ea81526020016000151581526020016040518060c00160405280603263ffffffff168152602001605563ffffffff168152602001603763ffffffff168152602001604163ffffffff168152602001604163ffffffff168152602001605a63ffffffff16815250815250908060018154018082558091505090600182039060005260206000209060070201600090919290919091506000820151816000019080519060200190630000e092929190630001dde5565b50602082015181600101556040820151816002019080519060200190630000e0bd929190630001dde5565b506060820151816003019080519060200190630000e0de929190630001dde5565b506080820151816004015560a08201518160050160006101000a81548160ff02191690831515021790555060c08201518160060160008201518160000160006101000a81548163ffffffff021916908363ffffffff16021790555060208201518160000160046101000a81548163ffffffff021916908363ffffffff16021790555060408201518160000160086101000a81548163ffffffff021916908363ffffffff160217905550606082015181600001600c6101000a81548163ffffffff021916908363ffffffff16021790555060808201518160000160106101000a81548163ffffffff021916908363ffffffff16021790555060a08201518160000160146101000a81548163ffffffff021916908363ffffffff160217905550505050505060036040518060e001604052806040518060400160405280600881526020017f52617069646173680000000000000000000000000000000000000000000000008152508152602001604e81526020016040518060400160405280600481526020017f466972650000000000000000000000000000000000000000000000000000000081525081526020016040518060400160405280600381526020017f6e616e0000000000000000000000000000000000000000000000000000000000815250815260200161019081526020016000151581526020016040518060c00160405280604163ffffffff168152602001606463ffffffff168152602001604663ffffffff168152602001605063ffffffff168152602001605063ffffffff168152602001606963ffffffff16815250815250908060018154018082558091505090600182039060005260206000209060070201600090919290919091506000820151816000019080519060200190630000e37c929190630001dde5565b50602082015181600101556040820151816002019080519060200190630000e3a7929190630001dde5565b506060820151816003019080519060200190630000e3c8929190630001dde5565b506080820151816004015560a08201518160050160006101000a81548160ff02191690831515021790555060c08201518160060160008201518160000160006101000a81548163ffffffff021916908363ffffffff16021790555060208201518160000160046101000a81548163ffffffff021916908363ffffffff16021790555060408201518160000160086101000a81548163ffffffff021916908363ffffffff160217905550606082015181600001600c6101000a81548163ffffffff021916908363ffffffff16021790555060808201518160000160106101000a81548163ffffffff021916908363ffffffff16021790555060a08201518160000160146101000a81548163ffffffff021916908363ffffffff160217905550505050505060036040518060e001604052806040518060400160405280600881526020017f536c6f77706f6b650000000000000000000000000000000000000000000000008152508152602001604f81526020016040518060400160405280600581526020017f576174657200000000000000000000000000000000000000000000000000000081525081526020016040518060400160405280600781526020017f5073796368696300000000000000000000000000000000000000000000000000815250815260200161024981526020016000151581526020016040518060c00160405280605a63ffffffff168152602001604163ffffffff168152602001604163ffffffff168152602001602863ffffffff168152602001602863ffffffff168152602001600f63ffffffff16815250815250908060018154018082558091505090600182039060005260206000209060070201600090919290919091506000820151816000019080519060200190630000e666929190630001dde5565b50602082015181600101556040820151816002019080519060200190630000e691929190630001dde5565b506060820151816003019080519060200190630000e6b2929190630001dde5565b506080820151816004015560a08201518160050160006101000a81548160ff02191690831515021790555060c08201518160060160008201518160000160006101000a81548163ffffffff021916908363ffffffff16021790555060208201518160000160046101000a81548163ffffffff021916908363ffffffff16021790555060408201518160000160086101000a81548163ffffffff021916908363ffffffff160217905550606082015181600001600c6101000a81548163ffffffff021916908363ffffffff16021790555060808201518160000160106101000a81548163ffffffff021916908363ffffffff16021790555060a08201518160000160146101000a81548163ffffffff021916908363ffffffff160217905550505050505060036040518060e001604052806040518060400160405280600781526020017f536c6f7762726f000000000000000000000000000000000000000000000000008152508152602001605081526020016040518060400160405280600581526020017f576174657200000000000000000000000000000000000000000000000000000081525081526020016040518060400160405280600781526020017f5073796368696300000000000000000000000000000000000000000000000000815250815260200161019a81526020016000151581526020016040518060c00160405280605f63ffffffff168152602001604b63ffffffff168152602001606e63ffffffff168152602001606463ffffffff168152602001605063ffffffff168152602001601e63ffffffff16815250815250908060018154018082558091505090600182039060005260206000209060070201600090919290919091506000820151816000019080519060200190630000e950929190630001dde5565b50602082015181600101556040820151816002019080519060200190630000e97b929190630001dde5565b506060820151816003019080519060200190630000e99c929190630001dde5565b506080820151816004015560a08201518160050160006101000a81548160ff02191690831515021790555060c08201518160060160008201518160000160006101000a81548163ffffffff021916908363ffffffff16021790555060208201518160000160046101000a81548163ffffffff021916908363ffffffff16021790555060408201518160000160086101000a81548163ffffffff021916908363ffffffff160217905550606082015181600001600c6101000a81548163ffffffff021916908363ffffffff16021790555060808201518160000160106101000a81548163ffffffff021916908363ffffffff16021790555060a08201518160000160146101000a81548163ffffffff021916908363ffffffff160217905550505050505060036040518060e001604052806040518060400160405280600981526020017f4d61676e656d69746500000000000000000000000000000000000000000000008152508152602001605181526020016040518060400160405280600881526020017f456c65637472696300000000000000000000000000000000000000000000000081525081526020016040518060400160405280600581526020017f537465656c000000000000000000000000000000000000000000000000000000815250815260200161023f81526020016000151581526020016040518060c00160405280601963ffffffff168152602001602363ffffffff168152602001604663ffffffff168152602001605f63ffffffff168152602001603763ffffffff168152602001602d63ffffffff16815250815250908060018154018082558091505090600182039060005260206000209060070201600090919290919091506000820151816000019080519060200190630000ec3a929190630001dde5565b50602082015181600101556040820151816002019080519060200190630000ec65929190630001dde5565b506060820151816003019080519060200190630000ec86929190630001dde5565b506080820151816004015560a08201518160050160006101000a81548160ff02191690831515021790555060c08201518160060160008201518160000160006101000a81548163ffffffff021916908363ffffffff16021790555060208201518160000160046101000a81548163ffffffff021916908363ffffffff16021790555060408201518160000160086101000a81548163ffffffff021916908363ffffffff160217905550606082015181600001600c6101000a81548163ffffffff021916908363ffffffff16021790555060808201518160000160106101000a81548163ffffffff021916908363ffffffff16021790555060a08201518160000160146101000a81548163ffffffff021916908363ffffffff160217905550505050505060036040518060e001604052806040518060400160405280600881526020017f4d61676e65746f6e0000000000000000000000000000000000000000000000008152508152602001605281526020016040518060400160405280600881526020017f456c65637472696300000000000000000000000000000000000000000000000081525081526020016040518060400160405280600581526020017f537465656c00000000000000000000000000000000000000000000000000000081525081526020016101b381526020016000151581526020016040518060c00160405280603263ffffffff168152602001603c63ffffffff168152602001605f63ffffffff168152602001607863ffffffff168152602001604663ffffffff168152602001604663ffffffff16815250815250908060018154018082558091505090600182039060005260206000209060070201600090919290919091506000820151816000019080519060200190630000ef24929190630001dde5565b50602082015181600101556040820151816002019080519060200190630000ef4f929190630001dde5565b506060820151816003019080519060200190630000ef70929190630001dde5565b506080820151816004015560a08201518160050160006101000a81548160ff02191690831515021790555060c08201518160060160008201518160000160006101000a81548163ffffffff021916908363ffffffff16021790555060208201518160000160046101000a81548163ffffffff021916908363ffffffff16021790555060408201518160000160086101000a81548163ffffffff021916908363ffffffff160217905550606082015181600001600c6101000a81548163ffffffff021916908363ffffffff16021790555060808201518160000160106101000a81548163ffffffff021916908363ffffffff16021790555060a08201518160000160146101000a81548163ffffffff021916908363ffffffff160217905550505050505060036040518060e001604052806040518060400160405280600a81526020017f46617266657463682764000000000000000000000000000000000000000000008152508152602001605381526020016040518060400160405280600681526020017f4e6f726d616c000000000000000000000000000000000000000000000000000081525081526020016040518060400160405280600681526020017f466c79696e670000000000000000000000000000000000000000000000000000815250815260200161022481526020016000151581526020016040518060c00160405280603463ffffffff168152602001604163ffffffff168152602001603763ffffffff168152602001603a63ffffffff168152602001603e63ffffffff168152602001603c63ffffffff16815250815250908060018154018082558091505090600182039060005260206000209060070201600090919290919091506000820151816000019080519060200190630000f20e929190630001dde5565b50602082015181600101556040820151816002019080519060200190630000f239929190630001dde5565b506060820151816003019080519060200190630000f25a929190630001dde5565b506080820151816004015560a08201518160050160006101000a81548160ff02191690831515021790555060c08201518160060160008201518160000160006101000a81548163ffffffff021916908363ffffffff16021790555060208201518160000160046101000a81548163ffffffff021916908363ffffffff16021790555060408201518160000160086101000a81548163ffffffff021916908363ffffffff160217905550606082015181600001600c6101000a81548163ffffffff021916908363ffffffff16021790555060808201518160000160106101000a81548163ffffffff021916908363ffffffff16021790555060a08201518160000160146101000a81548163ffffffff021916908363ffffffff160217905550505050505060036040518060e001604052806040518060400160405280600581526020017f446f64756f0000000000000000000000000000000000000000000000000000008152508152602001605481526020016040518060400160405280600681526020017f4e6f726d616c000000000000000000000000000000000000000000000000000081525081526020016040518060400160405280600681526020017f466c79696e670000000000000000000000000000000000000000000000000000815250815260200161024e81526020016000151581526020016040518060c00160405280602363ffffffff168152602001605563ffffffff168152602001602d63ffffffff168152602001602363ffffffff168152602001602363ffffffff168152602001604b63ffffffff16815250815250908060018154018082558091505090600182039060005260206000209060070201600090919290919091506000820151816000019080519060200190630000f4f8929190630001dde5565b50602082015181600101556040820151816002019080519060200190630000f523929190630001dde5565b506060820151816003019080519060200190630000f544929190630001dde5565b506080820151816004015560a08201518160050160006101000a81548160ff02191690831515021790555060c08201518160060160008201518160000160006101000a81548163ffffffff021916908363ffffffff16021790555060208201518160000160046101000a81548163ffffffff021916908363ffffffff16021790555060408201518160000160086101000a81548163ffffffff021916908363ffffffff160217905550606082015181600001600c6101000a81548163ffffffff021916908363ffffffff16021790555060808201518160000160106101000a81548163ffffffff021916908363ffffffff16021790555060a08201518160000160146101000a81548163ffffffff021916908363ffffffff160217905550505050505060036040518060e001604052806040518060400160405280600681526020017f446f6472696f00000000000000000000000000000000000000000000000000008152508152602001605581526020016040518060400160405280600681526020017f4e6f726d616c000000000000000000000000000000000000000000000000000081525081526020016040518060400160405280600681526020017f466c79696e67000000000000000000000000000000000000000000000000000081525081526020016101b881526020016000151581526020016040518060c00160405280603c63ffffffff168152602001606e63ffffffff168152602001604663ffffffff168152602001603c63ffffffff168152602001603c63ffffffff168152602001606463ffffffff16815250815250908060018154018082558091505090600182039060005260206000209060070201600090919290919091506000820151816000019080519060200190630000f7e2929190630001dde5565b50602082015181600101556040820151816002019080519060200190630000f80d929190630001dde5565b506060820151816003019080519060200190630000f82e929190630001dde5565b506080820151816004015560a08201518160050160006101000a81548160ff02191690831515021790555060c08201518160060160008201518160000160006101000a81548163ffffffff021916908363ffffffff16021790555060208201518160000160046101000a81548163ffffffff021916908363ffffffff16021790555060408201518160000160086101000a81548163ffffffff021916908363ffffffff160217905550606082015181600001600c6101000a81548163ffffffff021916908363ffffffff16021790555060808201518160000160106101000a81548163ffffffff021916908363ffffffff16021790555060a08201518160000160146101000a81548163ffffffff021916908363ffffffff160217905550505050505060036040518060e001604052806040518060400160405280600481526020017f5365656c000000000000000000000000000000000000000000000000000000008152508152602001605681526020016040518060400160405280600581526020017f576174657200000000000000000000000000000000000000000000000000000081525081526020016040518060400160405280600381526020017f6e616e0000000000000000000000000000000000000000000000000000000000815250815260200161023f81526020016000151581526020016040518060c00160405280604163ffffffff168152602001602d63ffffffff168152602001603763ffffffff168152602001602d63ffffffff168152602001604663ffffffff168152602001602d63ffffffff16815250815250908060018154018082558091505090600182039060005260206000209060070201600090919290919091506000820151816000019080519060200190630000facc929190630001dde5565b50602082015181600101556040820151816002019080519060200190630000faf7929190630001dde5565b506060820151816003019080519060200190630000fb18929190630001dde5565b506080820151816004015560a08201518160050160006101000a81548160ff02191690831515021790555060c08201518160060160008201518160000160006101000a81548163ffffffff021916908363ffffffff16021790555060208201518160000160046101000a81548163ffffffff021916908363ffffffff16021790555060408201518160000160086101000a81548163ffffffff021916908363ffffffff160217905550606082015181600001600c6101000a81548163ffffffff021916908363ffffffff16021790555060808201518160000160106101000a81548163ffffffff021916908363ffffffff16021790555060a08201518160000160146101000a81548163ffffffff021916908363ffffffff160217905550505050505060036040518060e001604052806040518060400160405280600781526020017f446577676f6e67000000000000000000000000000000000000000000000000008152508152602001605781526020016040518060400160405280600581526020017f576174657200000000000000000000000000000000000000000000000000000081525081526020016040518060400160405280600381526020017f496365000000000000000000000000000000000000000000000000000000000081525081526020016101a981526020016000151581526020016040518060c00160405280605a63ffffffff168152602001604663ffffffff168152602001605063ffffffff168152602001604663ffffffff168152602001605f63ffffffff168152602001604663ffffffff16815250815250908060018154018082558091505090600182039060005260206000209060070201600090919290919091506000820151816000019080519060200190630000fdb6929190630001dde5565b50602082015181600101556040820151816002019080519060200190630000fde1929190630001dde5565b506060820151816003019080519060200190630000fe02929190630001dde5565b506080820151816004015560a08201518160050160006101000a81548160ff02191690831515021790555060c08201518160060160008201518160000160006101000a81548163ffffffff021916908363ffffffff16021790555060208201518160000160046101000a81548163ffffffff021916908363ffffffff16021790555060408201518160000160086101000a81548163ffffffff021916908363ffffffff160217905550606082015181600001600c6101000a81548163ffffffff021916908363ffffffff16021790555060808201518160000160106101000a81548163ffffffff021916908363ffffffff16021790555060a08201518160000160146101000a81548163ffffffff021916908363ffffffff160217905550505050505060036040518060e001604052806040518060400160405280600681526020017f4772696d657200000000000000000000000000000000000000000000000000008152508152602001605881526020016040518060400160405280600681526020017f506f69736f6e000000000000000000000000000000000000000000000000000081525081526020016040518060400160405280600381526020017f6e616e0000000000000000000000000000000000000000000000000000000000815250815260200161023f81526020016000151581526020016040518060c00160405280605063ffffffff168152602001605063ffffffff168152602001603263ffffffff168152602001602863ffffffff168152602001603263ffffffff168152602001601963ffffffff1681525081525090806001815401808255809150509060018203906000526020600020906007020160009091929091909150600082015181600001908051906020019063000100a0929190630001dde5565b5060208201518160010155604082015181600201908051906020019063000100cb929190630001dde5565b50606082015181600301908051906020019063000100ec929190630001dde5565b506080820151816004015560a08201518160050160006101000a81548160ff02191690831515021790555060c08201518160060160008201518160000160006101000a81548163ffffffff021916908363ffffffff16021790555060208201518160000160046101000a81548163ffffffff021916908363ffffffff16021790555060408201518160000160086101000a81548163ffffffff021916908363ffffffff160217905550606082015181600001600c6101000a81548163ffffffff021916908363ffffffff16021790555060808201518160000160106101000a81548163ffffffff021916908363ffffffff16021790555060a08201518160000160146101000a81548163ffffffff021916908363ffffffff160217905550505050505060036040518060e001604052806040518060400160405280600381526020017f4d756b00000000000000000000000000000000000000000000000000000000008152508152602001605981526020016040518060400160405280600681526020017f506f69736f6e000000000000000000000000000000000000000000000000000081525081526020016040518060400160405280600381526020017f6e616e0000000000000000000000000000000000000000000000000000000000815250815260200161019081526020016000151581526020016040518060c00160405280606963ffffffff168152602001606963ffffffff168152602001604b63ffffffff168152602001604163ffffffff168152602001606463ffffffff168152602001603263ffffffff16815250815250908060018154018082558091505090600182039060005260206000209060070201600090919290919091506000820151816000019080519060200190630001038a929190630001dde5565b5060208201518160010155604082015181600201908051906020019063000103b5929190630001dde5565b50606082015181600301908051906020019063000103d6929190630001dde5565b506080820151816004015560a08201518160050160006101000a81548160ff02191690831515021790555060c08201518160060160008201518160000160006101000a81548163ffffffff021916908363ffffffff16021790555060208201518160000160046101000a81548163ffffffff021916908363ffffffff16021790555060408201518160000160086101000a81548163ffffffff021916908363ffffffff160217905550606082015181600001600c6101000a81548163ffffffff021916908363ffffffff16021790555060808201518160000160106101000a81548163ffffffff021916908363ffffffff16021790555060a08201518160000160146101000a81548163ffffffff021916908363ffffffff160217905550505050505060036040518060e001604052806040518060400160405280600881526020017f5368656c6c6465720000000000000000000000000000000000000000000000008152508152602001605a81526020016040518060400160405280600581526020017f576174657200000000000000000000000000000000000000000000000000000081525081526020016040518060400160405280600381526020017f6e616e0000000000000000000000000000000000000000000000000000000000815250815260200161025381526020016000151581526020016040518060c00160405280601e63ffffffff168152602001604163ffffffff168152602001606463ffffffff168152602001602d63ffffffff168152602001601963ffffffff168152602001602863ffffffff168152508152509080600181540180825580915050906001820390600052602060002090600702016000909192909190915060008201518160000190805190602001906300010674929190630001dde5565b50602082015181600101556040820151816002019080519060200190630001069f929190630001dde5565b50606082015181600301908051906020019063000106c0929190630001dde5565b506080820151816004015560a08201518160050160006101000a81548160ff02191690831515021790555060c08201518160060160008201518160000160006101000a81548163ffffffff021916908363ffffffff16021790555060208201518160000160046101000a81548163ffffffff021916908363ffffffff16021790555060408201518160000160086101000a81548163ffffffff021916908363ffffffff160217905550606082015181600001600c6101000a81548163ffffffff021916908363ffffffff16021790555060808201518160000160106101000a81548163ffffffff021916908363ffffffff16021790555060a08201518160000160146101000a81548163ffffffff021916908363ffffffff160217905550505050505060036040518060e001604052806040518060400160405280600881526020017f436c6f79737465720000000000000000000000000000000000000000000000008152508152602001605b81526020016040518060400160405280600581526020017f576174657200000000000000000000000000000000000000000000000000000081525081526020016040518060400160405280600381526020017f4963650000000000000000000000000000000000000000000000000000000000815250815260200161017781526020016000151581526020016040518060c00160405280603263ffffffff168152602001605f63ffffffff16815260200160b463ffffffff168152602001605563ffffffff168152602001602d63ffffffff168152602001604663ffffffff16815250815250908060018154018082558091505090600182039060005260206000209060070201600090919290919091506000820151816000019080519060200190630001095e929190630001dde5565b506020820151816001015560408201518160020190805190602001906300010989929190630001dde5565b50606082015181600301908051906020019063000109aa929190630001dde5565b506080820151816004015560a08201518160050160006101000a81548160ff02191690831515021790555060c08201518160060160008201518160000160006101000a81548163ffffffff021916908363ffffffff16021790555060208201518160000160046101000a81548163ffffffff021916908363ffffffff16021790555060408201518160000160086101000a81548163ffffffff021916908363ffffffff160217905550606082015181600001600c6101000a81548163ffffffff021916908363ffffffff16021790555060808201518160000160106101000a81548163ffffffff021916908363ffffffff16021790555060a08201518160000160146101000a81548163ffffffff021916908363ffffffff160217905550505050505060036040518060e001604052806040518060400160405280600681526020017f476173746c7900000000000000000000000000000000000000000000000000008152508152602001605c81526020016040518060400160405280600581526020017f47686f737400000000000000000000000000000000000000000000000000000081525081526020016040518060400160405280600681526020017f506f69736f6e0000000000000000000000000000000000000000000000000000815250815260200161024e81526020016000151581526020016040518060c00160405280601e63ffffffff168152602001602363ffffffff168152602001601e63ffffffff168152602001606463ffffffff168152602001602363ffffffff168152602001605063ffffffff168152508152509080600181540180825580915050906001820390600052602060002090600702016000909192909190915060008201518160000190805190602001906300010c48929190630001dde5565b506020820151816001015560408201518160020190805190602001906300010c73929190630001dde5565b5060608201518160030190805190602001906300010c94929190630001dde5565b506080820151816004015560a08201518160050160006101000a81548160ff02191690831515021790555060c08201518160060160008201518160000160006101000a81548163ffffffff021916908363ffffffff16021790555060208201518160000160046101000a81548163ffffffff021916908363ffffffff16021790555060408201518160000160086101000a81548163ffffffff021916908363ffffffff160217905550606082015181600001600c6101000a81548163ffffffff021916908363ffffffff16021790555060808201518160000160106101000a81548163ffffffff021916908363ffffffff16021790555060a08201518160000160146101000a81548163ffffffff021916908363ffffffff160217905550505050505060036040518060e001604052806040518060400160405280600781526020017f4861756e746572000000000000000000000000000000000000000000000000008152508152602001605d81526020016040518060400160405280600581526020017f47686f737400000000000000000000000000000000000000000000000000000081525081526020016040518060400160405280600681526020017f506f69736f6e000000000000000000000000000000000000000000000000000081525081526020016101ef81526020016000151581526020016040518060c00160405280602d63ffffffff168152602001603263ffffffff168152602001602d63ffffffff168152602001607363ffffffff168152602001603763ffffffff168152602001605f63ffffffff168152508152509080600181540180825580915050906001820390600052602060002090600702016000909192909190915060008201518160000190805190602001906300010f32929190630001dde5565b506020820151816001015560408201518160020190805190602001906300010f5d929190630001dde5565b5060608201518160030190805190602001906300010f7e929190630001dde5565b506080820151816004015560a08201518160050160006101000a81548160ff02191690831515021790555060c08201518160060160008201518160000160006101000a81548163ffffffff021916908363ffffffff16021790555060208201518160000160046101000a81548163ffffffff021916908363ffffffff16021790555060408201518160000160086101000a81548163ffffffff021916908363ffffffff160217905550606082015181600001600c6101000a81548163ffffffff021916908363ffffffff16021790555060808201518160000160106101000a81548163ffffffff021916908363ffffffff16021790555060a08201518160000160146101000a81548163ffffffff021916908363ffffffff160217905550505050505060036040518060e001604052806040518060400160405280600681526020017f47656e67617200000000000000000000000000000000000000000000000000008152508152602001605e81526020016040518060400160405280600581526020017f47686f737400000000000000000000000000000000000000000000000000000081525081526020016040518060400160405280600681526020017f506f69736f6e0000000000000000000000000000000000000000000000000000815250815260200161019081526020016000151581526020016040518060c00160405280603c63ffffffff168152602001604163ffffffff168152602001603c63ffffffff168152602001608263ffffffff168152602001604b63ffffffff168152602001606e63ffffffff16815250815250908060018154018082558091505090600182039060005260206000209060070201600090919290919091506000820151816000019080519060200190630001121c929190630001dde5565b506020820151816001015560408201518160020190805190602001906300011247929190630001dde5565b5060608201518160030190805190602001906300011268929190630001dde5565b506080820151816004015560a08201518160050160006101000a81548160ff02191690831515021790555060c08201518160060160008201518160000160006101000a81548163ffffffff021916908363ffffffff16021790555060208201518160000160046101000a81548163ffffffff021916908363ffffffff16021790555060408201518160000160086101000a81548163ffffffff021916908363ffffffff160217905550606082015181600001600c6101000a81548163ffffffff021916908363ffffffff16021790555060808201518160000160106101000a81548163ffffffff021916908363ffffffff16021790555060a08201518160000160146101000a81548163ffffffff021916908363ffffffff160217905550505050505060036040518060e001604052806040518060400160405280600481526020017f4f6e6978000000000000000000000000000000000000000000000000000000008152508152602001605f81526020016040518060400160405280600481526020017f526f636b0000000000000000000000000000000000000000000000000000000081525081526020016040518060400160405280600681526020017f47726f756e640000000000000000000000000000000000000000000000000000815250815260200161020381526020016000151581526020016040518060c00160405280602363ffffffff168152602001602d63ffffffff16815260200160a063ffffffff168152602001601e63ffffffff168152602001602d63ffffffff168152602001604663ffffffff168152508152509080600181540180825580915050906001820390600052602060002090600702016000909192909190915060008201518160000190805190602001906300011506929190630001dde5565b506020820151816001015560408201518160020190805190602001906300011531929190630001dde5565b5060608201518160030190805190602001906300011552929190630001dde5565b506080820151816004015560a08201518160050160006101000a81548160ff02191690831515021790555060c08201518160060160008201518160000160006101000a81548163ffffffff021916908363ffffffff16021790555060208201518160000160046101000a81548163ffffffff021916908363ffffffff16021790555060408201518160000160086101000a81548163ffffffff021916908363ffffffff160217905550606082015181600001600c6101000a81548163ffffffff021916908363ffffffff16021790555060808201518160000160106101000a81548163ffffffff021916908363ffffffff16021790555060a08201518160000160146101000a81548163ffffffff021916908363ffffffff160217905550505050505060036040518060e001604052806040518060400160405280600781526020017f44726f777a6565000000000000000000000000000000000000000000000000008152508152602001606081526020016040518060400160405280600781526020017f507379636869630000000000000000000000000000000000000000000000000081525081526020016040518060400160405280600381526020017f6e616e0000000000000000000000000000000000000000000000000000000000815250815260200161023c81526020016000151581526020016040518060c00160405280603c63ffffffff168152602001603063ffffffff168152602001602d63ffffffff168152602001602b63ffffffff168152602001605a63ffffffff168152602001602a63ffffffff1681525081525090806001815401808255809150509060018203906000526020600020906007020160009091929091909150600082015181600001908051906020019063000117f0929190630001dde5565b50602082015181600101556040820151816002019080519060200190630001181b929190630001dde5565b506060820151816003019080519060200190630001183c929190630001dde5565b506080820151816004015560a08201518160050160006101000a81548160ff02191690831515021790555060c08201518160060160008201518160000160006101000a81548163ffffffff021916908363ffffffff16021790555060208201518160000160046101000a81548163ffffffff021916908363ffffffff16021790555060408201518160000160086101000a81548163ffffffff021916908363ffffffff160217905550606082015181600001600c6101000a81548163ffffffff021916908363ffffffff16021790555060808201518160000160106101000a81548163ffffffff021916908363ffffffff16021790555060a08201518160000160146101000a81548163ffffffff021916908363ffffffff160217905550505050505060036040518060e001604052806040518060400160405280600581526020017f4879706e6f0000000000000000000000000000000000000000000000000000008152508152602001606181526020016040518060400160405280600781526020017f507379636869630000000000000000000000000000000000000000000000000081525081526020016040518060400160405280600381526020017f6e616e000000000000000000000000000000000000000000000000000000000081525081526020016101a181526020016000151581526020016040518060c00160405280605563ffffffff168152602001604963ffffffff168152602001604663ffffffff168152602001604963ffffffff168152602001607363ffffffff168152602001604363ffffffff168152508152509080600181540180825580915050906001820390600052602060002090600702016000909192909190915060008201518160000190805190602001906300011ada929190630001dde5565b506020820151816001015560408201518160020190805190602001906300011b05929190630001dde5565b5060608201518160030190805190602001906300011b26929190630001dde5565b506080820151816004015560a08201518160050160006101000a81548160ff02191690831515021790555060c08201518160060160008201518160000160006101000a81548163ffffffff021916908363ffffffff16021790555060208201518160000160046101000a81548163ffffffff021916908363ffffffff16021790555060408201518160000160086101000a81548163ffffffff021916908363ffffffff160217905550606082015181600001600c6101000a81548163ffffffff021916908363ffffffff16021790555060808201518160000160106101000a81548163ffffffff021916908363ffffffff16021790555060a08201518160000160146101000a81548163ffffffff021916908363ffffffff160217905550505050505060036040518060e001604052806040518060400160405280600681526020017f4b726162627900000000000000000000000000000000000000000000000000008152508152602001606281526020016040518060400160405280600581526020017f576174657200000000000000000000000000000000000000000000000000000081525081526020016040518060400160405280600381526020017f6e616e0000000000000000000000000000000000000000000000000000000000815250815260200161023f81526020016000151581526020016040518060c00160405280601e63ffffffff168152602001606963ffffffff168152602001605a63ffffffff168152602001601963ffffffff168152602001601963ffffffff168152602001603263ffffffff168152508152509080600181540180825580915050906001820390600052602060002090600702016000909192909190915060008201518160000190805190602001906300011dc4929190630001dde5565b506020820151816001015560408201518160020190805190602001906300011def929190630001dde5565b5060608201518160030190805190602001906300011e10929190630001dde5565b506080820151816004015560a08201518160050160006101000a81548160ff02191690831515021790555060c08201518160060160008201518160000160006101000a81548163ffffffff021916908363ffffffff16021790555060208201518160000160046101000a81548163ffffffff021916908363ffffffff16021790555060408201518160000160086101000a81548163ffffffff021916908363ffffffff160217905550606082015181600001600c6101000a81548163ffffffff021916908363ffffffff16021790555060808201518160000160106101000a81548163ffffffff021916908363ffffffff16021790555060a08201518160000160146101000a81548163ffffffff021916908363ffffffff160217905550505050505060036040518060e001604052806040518060400160405280600781526020017f4b696e676c6572000000000000000000000000000000000000000000000000008152508152602001606381526020016040518060400160405280600581526020017f576174657200000000000000000000000000000000000000000000000000000081525081526020016040518060400160405280600381526020017f6e616e000000000000000000000000000000000000000000000000000000000081525081526020016101a981526020016000151581526020016040518060c00160405280603763ffffffff168152602001608263ffffffff168152602001607363ffffffff168152602001603263ffffffff168152602001603263ffffffff168152602001604b63ffffffff1681525081525090806001815401808255809150509060018203906000526020600020906007020160009091929091909150600082015181600001908051906020019063000120ae929190630001dde5565b5060208201518160010155604082015181600201908051906020019063000120d9929190630001dde5565b50606082015181600301908051906020019063000120fa929190630001dde5565b506080820151816004015560a08201518160050160006101000a81548160ff02191690831515021790555060c08201518160060160008201518160000160006101000a81548163ffffffff021916908363ffffffff16021790555060208201518160000160046101000a81548163ffffffff021916908363ffffffff16021790555060408201518160000160086101000a81548163ffffffff021916908363ffffffff160217905550606082015181600001600c6101000a81548163ffffffff021916908363ffffffff16021790555060808201518160000160106101000a81548163ffffffff021916908363ffffffff16021790555060a08201518160000160146101000a81548163ffffffff021916908363ffffffff160217905550505050505060036040518060e001604052806040518060400160405280600781526020017f566f6c746f7262000000000000000000000000000000000000000000000000008152508152602001606481526020016040518060400160405280600881526020017f456c65637472696300000000000000000000000000000000000000000000000081525081526020016040518060400160405280600381526020017f6e616e0000000000000000000000000000000000000000000000000000000000815250815260200161023a81526020016000151581526020016040518060c00160405280602863ffffffff168152602001601e63ffffffff168152602001603263ffffffff168152602001603763ffffffff168152602001603763ffffffff168152602001606463ffffffff168152508152509080600181540180825580915050906001820390600052602060002090600702016000909192909190915060008201518160000190805190602001906300012398929190630001dde5565b5060208201518160010155604082015181600201908051906020019063000123c3929190630001dde5565b50606082015181600301908051906020019063000123e4929190630001dde5565b506080820151816004015560a08201518160050160006101000a81548160ff02191690831515021790555060c08201518160060160008201518160000160006101000a81548163ffffffff021916908363ffffffff16021790555060208201518160000160046101000a81548163ffffffff021916908363ffffffff16021790555060408201518160000160086101000a81548163ffffffff021916908363ffffffff160217905550606082015181600001600c6101000a81548163ffffffff021916908363ffffffff16021790555060808201518160000160106101000a81548163ffffffff021916908363ffffffff16021790555060a08201518160000160146101000a81548163ffffffff021916908363ffffffff160217905550505050505060036040518060e001604052806040518060400160405280600981526020017f456c656374726f646500000000000000000000000000000000000000000000008152508152602001606581526020016040518060400160405280600881526020017f456c65637472696300000000000000000000000000000000000000000000000081525081526020016040518060400160405280600381526020017f6e616e000000000000000000000000000000000000000000000000000000000081525081526020016101a481526020016000151581526020016040518060c00160405280603c63ffffffff168152602001603263ffffffff168152602001604663ffffffff168152602001605063ffffffff168152602001605063ffffffff168152602001608c63ffffffff168152508152509080600181540180825580915050906001820390600052602060002090600702016000909192909190915060008201518160000190805190602001906300012682929190630001dde5565b5060208201518160010155604082015181600201908051906020019063000126ad929190630001dde5565b50606082015181600301908051906020019063000126ce929190630001dde5565b506080820151816004015560a08201518160050160006101000a81548160ff02191690831515021790555060c08201518160060160008201518160000160006101000a81548163ffffffff021916908363ffffffff16021790555060208201518160000160046101000a81548163ffffffff021916908363ffffffff16021790555060408201518160000160086101000a81548163ffffffff021916908363ffffffff160217905550606082015181600001600c6101000a81548163ffffffff021916908363ffffffff16021790555060808201518160000160106101000a81548163ffffffff021916908363ffffffff16021790555060a08201518160000160146101000a81548163ffffffff021916908363ffffffff160217905550505050505060036040518060e001604052806040518060400160405280600981526020017f45786567676375746500000000000000000000000000000000000000000000008152508152602001606681526020016040518060400160405280600581526020017f477261737300000000000000000000000000000000000000000000000000000081525081526020016040518060400160405280600781526020017f5073796368696300000000000000000000000000000000000000000000000000815250815260200161023f81526020016000151581526020016040518060c00160405280603c63ffffffff168152602001602863ffffffff168152602001605063ffffffff168152602001603c63ffffffff168152602001602d63ffffffff168152602001602863ffffffff16815250815250908060018154018082558091505090600182039060005260206000209060070201600090919290919091506000820151816000019080519060200190630001296c929190630001dde5565b506020820151816001015560408201518160020190805190602001906300012997929190630001dde5565b50606082015181600301908051906020019063000129b8929190630001dde5565b506080820151816004015560a08201518160050160006101000a81548160ff02191690831515021790555060c08201518160060160008201518160000160006101000a81548163ffffffff021916908363ffffffff16021790555060208201518160000160046101000a81548163ffffffff021916908363ffffffff16021790555060408201518160000160086101000a81548163ffffffff021916908363ffffffff160217905550606082015181600001600c6101000a81548163ffffffff021916908363ffffffff16021790555060808201518160000160106101000a81548163ffffffff021916908363ffffffff16021790555060a08201518160000160146101000a81548163ffffffff021916908363ffffffff160217905550505050505060036040518060e001604052806040518060400160405280600981526020017f457865676775746f7200000000000000000000000000000000000000000000008152508152602001606781526020016040518060400160405280600581526020017f477261737300000000000000000000000000000000000000000000000000000081525081526020016040518060400160405280600781526020017f5073796368696300000000000000000000000000000000000000000000000000815250815260200161017c81526020016000151581526020016040518060c00160405280605f63ffffffff168152602001605f63ffffffff168152602001605563ffffffff168152602001607d63ffffffff168152602001604163ffffffff168152602001603763ffffffff168152508152509080600181540180825580915050906001820390600052602060002090600702016000909192909190915060008201518160000190805190602001906300012c56929190630001dde5565b506020820151816001015560408201518160020190805190602001906300012c81929190630001dde5565b5060608201518160030190805190602001906300012ca2929190630001dde5565b506080820151816004015560a08201518160050160006101000a81548160ff02191690831515021790555060c08201518160060160008201518160000160006101000a81548163ffffffff021916908363ffffffff16021790555060208201518160000160046101000a81548163ffffffff021916908363ffffffff16021790555060408201518160000160086101000a81548163ffffffff021916908363ffffffff160217905550606082015181600001600c6101000a81548163ffffffff021916908363ffffffff16021790555060808201518160000160106101000a81548163ffffffff021916908363ffffffff16021790555060a08201518160000160146101000a81548163ffffffff021916908363ffffffff160217905550505050505060036040518060e001604052806040518060400160405280600681526020017f4375626f6e6500000000000000000000000000000000000000000000000000008152508152602001606881526020016040518060400160405280600681526020017f47726f756e64000000000000000000000000000000000000000000000000000081525081526020016040518060400160405280600381526020017f6e616e0000000000000000000000000000000000000000000000000000000000815250815260200161024481526020016000151581526020016040518060c00160405280603263ffffffff168152602001603263ffffffff168152602001605f63ffffffff168152602001602863ffffffff168152602001603263ffffffff168152602001602363ffffffff168152508152509080600181540180825580915050906001820390600052602060002090600702016000909192909190915060008201518160000190805190602001906300012f40929190630001dde5565b506020820151816001015560408201518160020190805190602001906300012f6b929190630001dde5565b5060608201518160030190805190602001906300012f8c929190630001dde5565b506080820151816004015560a08201518160050160006101000a81548160ff02191690831515021790555060c08201518160060160008201518160000160006101000a81548163ffffffff021916908363ffffffff16021790555060208201518160000160046101000a81548163ffffffff021916908363ffffffff16021790555060408201518160000160086101000a81548163ffffffff021916908363ffffffff160217905550606082015181600001600c6101000a81548163ffffffff021916908363ffffffff16021790555060808201518160000160106101000a81548163ffffffff021916908363ffffffff16021790555060a08201518160000160146101000a81548163ffffffff021916908363ffffffff160217905550505050505060036040518060e001604052806040518060400160405280600781526020017f4d61726f77616b000000000000000000000000000000000000000000000000008152508152602001606981526020016040518060400160405280600681526020017f47726f756e64000000000000000000000000000000000000000000000000000081525081526020016040518060400160405280600381526020017f6e616e000000000000000000000000000000000000000000000000000000000081525081526020016101db81526020016000151581526020016040518060c00160405280603c63ffffffff168152602001605063ffffffff168152602001606e63ffffffff168152602001603263ffffffff168152602001605063ffffffff168152602001602d63ffffffff16815250815250908060018154018082558091505090600182039060005260206000209060070201600090919290919091506000820151816000019080519060200190630001322a929190630001dde5565b506020820151816001015560408201518160020190805190602001906300013255929190630001dde5565b5060608201518160030190805190602001906300013276929190630001dde5565b506080820151816004015560a08201518160050160006101000a81548160ff02191690831515021790555060c08201518160060160008201518160000160006101000a81548163ffffffff021916908363ffffffff16021790555060208201518160000160046101000a81548163ffffffff021916908363ffffffff16021790555060408201518160000160086101000a81548163ffffffff021916908363ffffffff160217905550606082015181600001600c6101000a81548163ffffffff021916908363ffffffff16021790555060808201518160000160106101000a81548163ffffffff021916908363ffffffff16021790555060a08201518160000160146101000a81548163ffffffff021916908363ffffffff160217905550505050505060036040518060e001604052806040518060400160405280600981526020017f4869746d6f6e6c656500000000000000000000000000000000000000000000008152508152602001606a81526020016040518060400160405280600881526020017f4669676874696e6700000000000000000000000000000000000000000000000081525081526020016040518060400160405280600381526020017f6e616e000000000000000000000000000000000000000000000000000000000081525081526020016101bd81526020016000151581526020016040518060c00160405280603263ffffffff168152602001607863ffffffff168152602001603563ffffffff168152602001602363ffffffff168152602001606e63ffffffff168152602001605763ffffffff168152508152509080600181540180825580915050906001820390600052602060002090600702016000909192909190915060008201518160000190805190602001906300013514929190630001dde5565b50602082015181600101556040820151816002019080519060200190630001353f929190630001dde5565b5060608201518160030190805190602001906300013560929190630001dde5565b506080820151816004015560a08201518160050160006101000a81548160ff02191690831515021790555060c08201518160060160008201518160000160006101000a81548163ffffffff021916908363ffffffff16021790555060208201518160000160046101000a81548163ffffffff021916908363ffffffff16021790555060408201518160000160086101000a81548163ffffffff021916908363ffffffff160217905550606082015181600001600c6101000a81548163ffffffff021916908363ffffffff16021790555060808201518160000160106101000a81548163ffffffff021916908363ffffffff16021790555060a08201518160000160146101000a81548163ffffffff021916908363ffffffff160217905550505050505060036040518060e001604052806040518060400160405280600a81526020017f4869746d6f6e6368616e000000000000000000000000000000000000000000008152508152602001606b81526020016040518060400160405280600881526020017f4669676874696e6700000000000000000000000000000000000000000000000081525081526020016040518060400160405280600381526020017f6e616e000000000000000000000000000000000000000000000000000000000081525081526020016101bd81526020016000151581526020016040518060c00160405280603263ffffffff168152602001606963ffffffff168152602001604f63ffffffff168152602001602363ffffffff168152602001606e63ffffffff168152602001604c63ffffffff1681525081525090806001815401808255809150509060018203906000526020600020906007020160009091929091909150600082015181600001908051906020019063000137fe929190630001dde5565b506020820151816001015560408201518160020190805190602001906300013829929190630001dde5565b506060820151816003019080519060200190630001384a929190630001dde5565b506080820151816004015560a08201518160050160006101000a81548160ff02191690831515021790555060c08201518160060160008201518160000160006101000a81548163ffffffff021916908363ffffffff16021790555060208201518160000160046101000a81548163ffffffff021916908363ffffffff16021790555060408201518160000160086101000a81548163ffffffff021916908363ffffffff160217905550606082015181600001600c6101000a81548163ffffffff021916908363ffffffff16021790555060808201518160000160106101000a81548163ffffffff021916908363ffffffff16021790555060a08201518160000160146101000a81548163ffffffff021916908363ffffffff160217905550505050505060036040518060e001604052806040518060400160405280600981526020017f4c69636b6974756e6700000000000000000000000000000000000000000000008152508152602001606c81526020016040518060400160405280600681526020017f4e6f726d616c000000000000000000000000000000000000000000000000000081525081526020016040518060400160405280600381526020017f6e616e0000000000000000000000000000000000000000000000000000000000815250815260200161020381526020016000151581526020016040518060c00160405280605a63ffffffff168152602001603763ffffffff168152602001604b63ffffffff168152602001603c63ffffffff168152602001604b63ffffffff168152602001601e63ffffffff168152508152509080600181540180825580915050906001820390600052602060002090600702016000909192909190915060008201518160000190805190602001906300013ae8929190630001dde5565b506020820151816001015560408201518160020190805190602001906300013b13929190630001dde5565b5060608201518160030190805190602001906300013b34929190630001dde5565b506080820151816004015560a08201518160050160006101000a81548160ff02191690831515021790555060c08201518160060160008201518160000160006101000a81548163ffffffff021916908363ffffffff16021790555060208201518160000160046101000a81548163ffffffff021916908363ffffffff16021790555060408201518160000160086101000a81548163ffffffff021916908363ffffffff160217905550606082015181600001600c6101000a81548163ffffffff021916908363ffffffff16021790555060808201518160000160106101000a81548163ffffffff021916908363ffffffff16021790555060a08201518160000160146101000a81548163ffffffff021916908363ffffffff160217905550505050505060036040518060e001604052806040518060400160405280600781526020017f4b6f6666696e67000000000000000000000000000000000000000000000000008152508152602001606d81526020016040518060400160405280600681526020017f506f69736f6e000000000000000000000000000000000000000000000000000081525081526020016040518060400160405280600381526020017f6e616e0000000000000000000000000000000000000000000000000000000000815250815260200161023081526020016000151581526020016040518060c00160405280602863ffffffff168152602001604163ffffffff168152602001605f63ffffffff168152602001603c63ffffffff168152602001602d63ffffffff168152602001602363ffffffff168152508152509080600181540180825580915050906001820390600052602060002090600702016000909192909190915060008201518160000190805190602001906300013dd2929190630001dde5565b506020820151816001015560408201518160020190805190602001906300013dfd929190630001dde5565b5060608201518160030190805190602001906300013e1e929190630001dde5565b506080820151816004015560a08201518160050160006101000a81548160ff02191690831515021790555060c08201518160060160008201518160000160006101000a81548163ffffffff021916908363ffffffff16021790555060208201518160000160046101000a81548163ffffffff021916908363ffffffff16021790555060408201518160000160086101000a81548163ffffffff021916908363ffffffff160217905550606082015181600001600c6101000a81548163ffffffff021916908363ffffffff16021790555060808201518160000160106101000a81548163ffffffff021916908363ffffffff16021790555060a08201518160000160146101000a81548163ffffffff021916908363ffffffff160217905550505050505060036040518060e001604052806040518060400160405280600781526020017f5765657a696e67000000000000000000000000000000000000000000000000008152508152602001606e81526020016040518060400160405280600681526020017f506f69736f6e000000000000000000000000000000000000000000000000000081525081526020016040518060400160405280600381526020017f6e616e0000000000000000000000000000000000000000000000000000000000815250815260200161019a81526020016000151581526020016040518060c00160405280604163ffffffff168152602001605a63ffffffff168152602001607863ffffffff168152602001605563ffffffff168152602001604663ffffffff168152602001603c63ffffffff1681525081525090806001815401808255809150509060018203906000526020600020906007020160009091929091909150600082015181600001908051906020019063000140bc929190630001dde5565b5060208201518160010155604082015181600201908051906020019063000140e7929190630001dde5565b5060608201518160030190805190602001906300014108929190630001dde5565b506080820151816004015560a08201518160050160006101000a81548160ff02191690831515021790555060c08201518160060160008201518160000160006101000a81548163ffffffff021916908363ffffffff16021790555060208201518160000160046101000a81548163ffffffff021916908363ffffffff16021790555060408201518160000160086101000a81548163ffffffff021916908363ffffffff160217905550606082015181600001600c6101000a81548163ffffffff021916908363ffffffff16021790555060808201518160000160106101000a81548163ffffffff021916908363ffffffff16021790555060a08201518160000160146101000a81548163ffffffff021916908363ffffffff160217905550505050505060036040518060e001604052806040518060400160405280600781526020017f526879686f726e000000000000000000000000000000000000000000000000008152508152602001606f81526020016040518060400160405280600681526020017f47726f756e64000000000000000000000000000000000000000000000000000081525081526020016040518060400160405280600481526020017f526f636b00000000000000000000000000000000000000000000000000000000815250815260200161022b81526020016000151581526020016040518060c00160405280605063ffffffff168152602001605563ffffffff168152602001605f63ffffffff168152602001601e63ffffffff168152602001601e63ffffffff168152602001601963ffffffff1681525081525090806001815401808255809150509060018203906000526020600020906007020160009091929091909150600082015181600001908051906020019063000143a6929190630001dde5565b5060208201518160010155604082015181600201908051906020019063000143d1929190630001dde5565b50606082015181600301908051906020019063000143f2929190630001dde5565b506080820151816004015560a08201518160050160006101000a81548160ff02191690831515021790555060c08201518160060160008201518160000160006101000a81548163ffffffff021916908363ffffffff16021790555060208201518160000160046101000a81548163ffffffff021916908363ffffffff16021790555060408201518160000160086101000a81548163ffffffff021916908363ffffffff160217905550606082015181600001600c6101000a81548163ffffffff021916908363ffffffff16021790555060808201518160000160106101000a81548163ffffffff021916908363ffffffff16021790555060a08201518160000160146101000a81548163ffffffff021916908363ffffffff160217905550505050505060036040518060e001604052806040518060400160405280600681526020017f526879646f6e00000000000000000000000000000000000000000000000000008152508152602001607081526020016040518060400160405280600681526020017f47726f756e64000000000000000000000000000000000000000000000000000081525081526020016040518060400160405280600481526020017f526f636b00000000000000000000000000000000000000000000000000000000815250815260200161019f81526020016000151581526020016040518060c00160405280606963ffffffff168152602001608263ffffffff168152602001607863ffffffff168152602001602d63ffffffff168152602001602d63ffffffff168152602001602863ffffffff168152508152509080600181540180825580915050906001820390600052602060002090600702016000909192909190915060008201518160000190805190602001906300014690929190630001dde5565b5060208201518160010155604082015181600201908051906020019063000146bb929190630001dde5565b50606082015181600301908051906020019063000146dc929190630001dde5565b506080820151816004015560a08201518160050160006101000a81548160ff02191690831515021790555060c08201518160060160008201518160000160006101000a81548163ffffffff021916908363ffffffff16021790555060208201518160000160046101000a81548163ffffffff021916908363ffffffff16021790555060408201518160000160086101000a81548163ffffffff021916908363ffffffff160217905550606082015181600001600c6101000a81548163ffffffff021916908363ffffffff16021790555060808201518160000160106101000a81548163ffffffff021916908363ffffffff16021790555060a08201518160000160146101000a81548163ffffffff021916908363ffffffff160217905550505050505060036040518060e001604052806040518060400160405280600781526020017f4368616e736579000000000000000000000000000000000000000000000000008152508152602001607181526020016040518060400160405280600681526020017f4e6f726d616c000000000000000000000000000000000000000000000000000081525081526020016040518060400160405280600381526020017f6e616e000000000000000000000000000000000000000000000000000000000081525081526020016101c281526020016000151581526020016040518060c0016040528060fa63ffffffff168152602001600563ffffffff168152602001600563ffffffff168152602001602363ffffffff168152602001606963ffffffff168152602001603263ffffffff16815250815250908060018154018082558091505090600182039060005260206000209060070201600090919290919091506000820151816000019080519060200190630001497a929190630001dde5565b5060208201518160010155604082015181600201908051906020019063000149a5929190630001dde5565b50606082015181600301908051906020019063000149c6929190630001dde5565b506080820151816004015560a08201518160050160006101000a81548160ff02191690831515021790555060c08201518160060160008201518160000160006101000a81548163ffffffff021916908363ffffffff16021790555060208201518160000160046101000a81548163ffffffff021916908363ffffffff16021790555060408201518160000160086101000a81548163ffffffff021916908363ffffffff160217905550606082015181600001600c6101000a81548163ffffffff021916908363ffffffff16021790555060808201518160000160106101000a81548163ffffffff021916908363ffffffff16021790555060a08201518160000160146101000a81548163ffffffff021916908363ffffffff160217905550505050505060036040518060e001604052806040518060400160405280600781526020017f54616e67656c61000000000000000000000000000000000000000000000000008152508152602001607281526020016040518060400160405280600581526020017f477261737300000000000000000000000000000000000000000000000000000081525081526020016040518060400160405280600381526020017f6e616e000000000000000000000000000000000000000000000000000000000081525081526020016101d181526020016000151581526020016040518060c00160405280604163ffffffff168152602001603763ffffffff168152602001607363ffffffff168152602001606463ffffffff168152602001602863ffffffff168152602001603c63ffffffff168152508152509080600181540180825580915050906001820390600052602060002090600702016000909192909190915060008201518160000190805190602001906300014c64929190630001dde5565b506020820151816001015560408201518160020190805190602001906300014c8f929190630001dde5565b5060608201518160030190805190602001906300014cb0929190630001dde5565b506080820151816004015560a08201518160050160006101000a81548160ff02191690831515021790555060c08201518160060160008201518160000160006101000a81548163ffffffff021916908363ffffffff16021790555060208201518160000160046101000a81548163ffffffff021916908363ffffffff16021790555060408201518160000160086101000a81548163ffffffff021916908363ffffffff160217905550606082015181600001600c6101000a81548163ffffffff021916908363ffffffff16021790555060808201518160000160106101000a81548163ffffffff021916908363ffffffff16021790555060a08201518160000160146101000a81548163ffffffff021916908363ffffffff160217905550505050505060036040518060e001604052806040518060400160405280600a81526020017f4b616e6761736b68616e000000000000000000000000000000000000000000008152508152602001607381526020016040518060400160405280600681526020017f4e6f726d616c000000000000000000000000000000000000000000000000000081525081526020016040518060400160405280600381526020017f6e616e0000000000000000000000000000000000000000000000000000000000815250815260200161019a81526020016000151581526020016040518060c00160405280606963ffffffff168152602001605f63ffffffff168152602001605063ffffffff168152602001602863ffffffff168152602001605063ffffffff168152602001605a63ffffffff168152508152509080600181540180825580915050906001820390600052602060002090600702016000909192909190915060008201518160000190805190602001906300014f4e929190630001dde5565b506020820151816001015560408201518160020190805190602001906300014f79929190630001dde5565b5060608201518160030190805190602001906300014f9a929190630001dde5565b506080820151816004015560a08201518160050160006101000a81548160ff02191690831515021790555060c08201518160060160008201518160000160006101000a81548163ffffffff021916908363ffffffff16021790555060208201518160000160046101000a81548163ffffffff021916908363ffffffff16021790555060408201518160000160086101000a81548163ffffffff021916908363ffffffff160217905550606082015181600001600c6101000a81548163ffffffff021916908363ffffffff16021790555060808201518160000160106101000a81548163ffffffff021916908363ffffffff16021790555060a08201518160000160146101000a81548163ffffffff021916908363ffffffff160217905550505050505060036040518060e001604052806040518060400160405280600681526020017f486f7273656100000000000000000000000000000000000000000000000000008152508152602001607481526020016040518060400160405280600581526020017f576174657200000000000000000000000000000000000000000000000000000081525081526020016040518060400160405280600381526020017f6e616e0000000000000000000000000000000000000000000000000000000000815250815260200161025d81526020016000151581526020016040518060c00160405280601e63ffffffff168152602001602863ffffffff168152602001604663ffffffff168152602001604663ffffffff168152602001601963ffffffff168152602001603c63ffffffff168152508152509080600181540180825580915050906001820390600052602060002090600702016000909192909190915060008201518160000190805190602001906300015238929190630001dde5565b506020820151816001015560408201518160020190805190602001906300015263929190630001dde5565b5060608201518160030190805190602001906300015284929190630001dde5565b506080820151816004015560a08201518160050160006101000a81548160ff02191690831515021790555060c08201518160060160008201518160000160006101000a81548163ffffffff021916908363ffffffff16021790555060208201518160000160046101000a81548163ffffffff021916908363ffffffff16021790555060408201518160000160086101000a81548163ffffffff021916908363ffffffff160217905550606082015181600001600c6101000a81548163ffffffff021916908363ffffffff16021790555060808201518160000160106101000a81548163ffffffff021916908363ffffffff16021790555060a08201518160000160146101000a81548163ffffffff021916908363ffffffff160217905550505050505060036040518060e001604052806040518060400160405280600681526020017f53656164726100000000000000000000000000000000000000000000000000008152508152602001607581526020016040518060400160405280600581526020017f576174657200000000000000000000000000000000000000000000000000000081525081526020016040518060400160405280600381526020017f6e616e000000000000000000000000000000000000000000000000000000000081525081526020016101cc81526020016000151581526020016040518060c00160405280603763ffffffff168152602001604163ffffffff168152602001605f63ffffffff168152602001605f63ffffffff168152602001602d63ffffffff168152602001605563ffffffff168152508152509080600181540180825580915050906001820390600052602060002090600702016000909192909190915060008201518160000190805190602001906300015522929190630001dde5565b50602082015181600101556040820151816002019080519060200190630001554d929190630001dde5565b506060820151816003019080519060200190630001556e929190630001dde5565b506080820151816004015560a08201518160050160006101000a81548160ff02191690831515021790555060c08201518160060160008201518160000160006101000a81548163ffffffff021916908363ffffffff16021790555060208201518160000160046101000a81548163ffffffff021916908363ffffffff16021790555060408201518160000160086101000a81548163ffffffff021916908363ffffffff160217905550606082015181600001600c6101000a81548163ffffffff021916908363ffffffff16021790555060808201518160000160106101000a81548163ffffffff021916908363ffffffff16021790555060a08201518160000160146101000a81548163ffffffff021916908363ffffffff160217905550505050505060036040518060e001604052806040518060400160405280600781526020017f476f6c6465656e000000000000000000000000000000000000000000000000008152508152602001607681526020016040518060400160405280600581526020017f576174657200000000000000000000000000000000000000000000000000000081525081526020016040518060400160405280600381526020017f6e616e0000000000000000000000000000000000000000000000000000000000815250815260200161024481526020016000151581526020016040518060c00160405280602d63ffffffff168152602001604363ffffffff168152602001603c63ffffffff168152602001602363ffffffff168152602001603263ffffffff168152602001603f63ffffffff16815250815250908060018154018082558091505090600182039060005260206000209060070201600090919290919091506000820151816000019080519060200190630001580c929190630001dde5565b506020820151816001015560408201518160020190805190602001906300015837929190630001dde5565b5060608201518160030190805190602001906300015858929190630001dde5565b506080820151816004015560a08201518160050160006101000a81548160ff02191690831515021790555060c08201518160060160008201518160000160006101000a81548163ffffffff021916908363ffffffff16021790555060208201518160000160046101000a81548163ffffffff021916908363ffffffff16021790555060408201518160000160086101000a81548163ffffffff021916908363ffffffff160217905550606082015181600001600c6101000a81548163ffffffff021916908363ffffffff16021790555060808201518160000160106101000a81548163ffffffff021916908363ffffffff16021790555060a08201518160000160146101000a81548163ffffffff021916908363ffffffff160217905550505050505060036040518060e001604052806040518060400160405280600781526020017f5365616b696e67000000000000000000000000000000000000000000000000008152508152602001607781526020016040518060400160405280600581526020017f576174657200000000000000000000000000000000000000000000000000000081525081526020016040518060400160405280600381526020017f6e616e000000000000000000000000000000000000000000000000000000000081525081526020016101c281526020016000151581526020016040518060c00160405280605063ffffffff168152602001605c63ffffffff168152602001604163ffffffff168152602001604163ffffffff168152602001605063ffffffff168152602001604463ffffffff168152508152509080600181540180825580915050906001820390600052602060002090600702016000909192909190915060008201518160000190805190602001906300015af6929190630001dde5565b506020820151816001015560408201518160020190805190602001906300015b21929190630001dde5565b5060608201518160030190805190602001906300015b42929190630001dde5565b506080820151816004015560a08201518160050160006101000a81548160ff02191690831515021790555060c08201518160060160008201518160000160006101000a81548163ffffffff021916908363ffffffff16021790555060208201518160000160046101000a81548163ffffffff021916908363ffffffff16021790555060408201518160000160086101000a81548163ffffffff021916908363ffffffff160217905550606082015181600001600c6101000a81548163ffffffff021916908363ffffffff16021790555060808201518160000160106101000a81548163ffffffff021916908363ffffffff16021790555060a08201518160000160146101000a81548163ffffffff021916908363ffffffff160217905550505050505060036040518060e001604052806040518060400160405280600681526020017f53746172797500000000000000000000000000000000000000000000000000008152508152602001607881526020016040518060400160405280600581526020017f576174657200000000000000000000000000000000000000000000000000000081525081526020016040518060400160405280600381526020017f6e616e0000000000000000000000000000000000000000000000000000000000815250815260200161023081526020016000151581526020016040518060c00160405280601e63ffffffff168152602001602d63ffffffff168152602001603763ffffffff168152602001604663ffffffff168152602001603763ffffffff168152602001605563ffffffff168152508152509080600181540180825580915050906001820390600052602060002090600702016000909192909190915060008201518160000190805190602001906300015de0929190630001dde5565b506020820151816001015560408201518160020190805190602001906300015e0b929190630001dde5565b5060608201518160030190805190602001906300015e2c929190630001dde5565b506080820151816004015560a08201518160050160006101000a81548160ff02191690831515021790555060c08201518160060160008201518160000160006101000a81548163ffffffff021916908363ffffffff16021790555060208201518160000160046101000a81548163ffffffff021916908363ffffffff16021790555060408201518160000160086101000a81548163ffffffff021916908363ffffffff160217905550606082015181600001600c6101000a81548163ffffffff021916908363ffffffff16021790555060808201518160000160106101000a81548163ffffffff021916908363ffffffff16021790555060a08201518160000160146101000a81548163ffffffff021916908363ffffffff160217905550505050505060036040518060e001604052806040518060400160405280600781526020017f537461726d6965000000000000000000000000000000000000000000000000008152508152602001607981526020016040518060400160405280600581526020017f576174657200000000000000000000000000000000000000000000000000000081525081526020016040518060400160405280600781526020017f5073796368696300000000000000000000000000000000000000000000000000815250815260200161017c81526020016000151581526020016040518060c00160405280603c63ffffffff168152602001604b63ffffffff168152602001605563ffffffff168152602001606463ffffffff168152602001605563ffffffff168152602001607363ffffffff1681525081525090806001815401808255809150509060018203906000526020600020906007020160009091929091909150600082015181600001908051906020019063000160ca929190630001dde5565b5060208201518160010155604082015181600201908051906020019063000160f5929190630001dde5565b5060608201518160030190805190602001906300016116929190630001dde5565b506080820151816004015560a08201518160050160006101000a81548160ff02191690831515021790555060c08201518160060160008201518160000160006101000a81548163ffffffff021916908363ffffffff16021790555060208201518160000160046101000a81548163ffffffff021916908363ffffffff16021790555060408201518160000160086101000a81548163ffffffff021916908363ffffffff160217905550606082015181600001600c6101000a81548163ffffffff021916908363ffffffff16021790555060808201518160000160106101000a81548163ffffffff021916908363ffffffff16021790555060a08201518160000160146101000a81548163ffffffff021916908363ffffffff160217905550505050505060036040518060e001604052806040518060400160405280600881526020017f4d722e204d696d650000000000000000000000000000000000000000000000008152508152602001607a81526020016040518060400160405280600781526020017f507379636869630000000000000000000000000000000000000000000000000081525081526020016040518060400160405280600581526020017f466169727900000000000000000000000000000000000000000000000000000081525081526020016101b881526020016000151581526020016040518060c00160405280602863ffffffff168152602001602d63ffffffff168152602001604163ffffffff168152602001606463ffffffff168152602001607863ffffffff168152602001605a63ffffffff1681525081525090806001815401808255809150509060018203906000526020600020906007020160009091929091909150600082015181600001908051906020019063000163b4929190630001dde5565b5060208201518160010155604082015181600201908051906020019063000163df929190630001dde5565b5060608201518160030190805190602001906300016400929190630001dde5565b506080820151816004015560a08201518160050160006101000a81548160ff02191690831515021790555060c08201518160060160008201518160000160006101000a81548163ffffffff021916908363ffffffff16021790555060208201518160000160046101000a81548163ffffffff021916908363ffffffff16021790555060408201518160000160086101000a81548163ffffffff021916908363ffffffff160217905550606082015181600001600c6101000a81548163ffffffff021916908363ffffffff16021790555060808201518160000160106101000a81548163ffffffff021916908363ffffffff16021790555060a08201518160000160146101000a81548163ffffffff021916908363ffffffff160217905550505050505060036040518060e001604052806040518060400160405280600781526020017f53637974686572000000000000000000000000000000000000000000000000008152508152602001607b81526020016040518060400160405280600381526020017f427567000000000000000000000000000000000000000000000000000000000081525081526020016040518060400160405280600681526020017f466c79696e670000000000000000000000000000000000000000000000000000815250815260200161019081526020016000151581526020016040518060c00160405280604663ffffffff168152602001606e63ffffffff168152602001605063ffffffff168152602001603763ffffffff168152602001605063ffffffff168152602001606963ffffffff16815250815250908060018154018082558091505090600182039060005260206000209060070201600090919290919091506000820151816000019080519060200190630001669e929190630001dde5565b5060208201518160010155604082015181600201908051906020019063000166c9929190630001dde5565b50606082015181600301908051906020019063000166ea929190630001dde5565b506080820151816004015560a08201518160050160006101000a81548160ff02191690831515021790555060c08201518160060160008201518160000160006101000a81548163ffffffff021916908363ffffffff16021790555060208201518160000160046101000a81548163ffffffff021916908363ffffffff16021790555060408201518160000160086101000a81548163ffffffff021916908363ffffffff160217905550606082015181600001600c6101000a81548163ffffffff021916908363ffffffff16021790555060808201518160000160106101000a81548163ffffffff021916908363ffffffff16021790555060a08201518160000160146101000a81548163ffffffff021916908363ffffffff160217905550505050505060036040518060e001604052806040518060400160405280600481526020017f4a796e78000000000000000000000000000000000000000000000000000000008152508152602001607c81526020016040518060400160405280600381526020017f496365000000000000000000000000000000000000000000000000000000000081525081526020016040518060400160405280600781526020017f507379636869630000000000000000000000000000000000000000000000000081525081526020016101bd81526020016000151581526020016040518060c00160405280604163ffffffff168152602001603263ffffffff168152602001602363ffffffff168152602001607363ffffffff168152602001605f63ffffffff168152602001605f63ffffffff168152508152509080600181540180825580915050906001820390600052602060002090600702016000909192909190915060008201518160000190805190602001906300016988929190630001dde5565b5060208201518160010155604082015181600201908051906020019063000169b3929190630001dde5565b50606082015181600301908051906020019063000169d4929190630001dde5565b506080820151816004015560a08201518160050160006101000a81548160ff02191690831515021790555060c08201518160060160008201518160000160006101000a81548163ffffffff021916908363ffffffff16021790555060208201518160000160046101000a81548163ffffffff021916908363ffffffff16021790555060408201518160000160086101000a81548163ffffffff021916908363ffffffff160217905550606082015181600001600c6101000a81548163ffffffff021916908363ffffffff16021790555060808201518160000160106101000a81548163ffffffff021916908363ffffffff16021790555060a08201518160000160146101000a81548163ffffffff021916908363ffffffff160217905550505050505060036040518060e001604052806040518060400160405280600a81526020017f456c6563746162757a7a000000000000000000000000000000000000000000008152508152602001607d81526020016040518060400160405280600881526020017f456c65637472696300000000000000000000000000000000000000000000000081525081526020016040518060400160405280600381526020017f6e616e0000000000000000000000000000000000000000000000000000000000815250815260200161019a81526020016000151581526020016040518060c00160405280604163ffffffff168152602001605363ffffffff168152602001603963ffffffff168152602001605f63ffffffff168152602001605563ffffffff168152602001606963ffffffff168152508152509080600181540180825580915050906001820390600052602060002090600702016000909192909190915060008201518160000190805190602001906300016c72929190630001dde5565b506020820151816001015560408201518160020190805190602001906300016c9d929190630001dde5565b5060608201518160030190805190602001906300016cbe929190630001dde5565b506080820151816004015560a08201518160050160006101000a81548160ff02191690831515021790555060c08201518160060160008201518160000160006101000a81548163ffffffff021916908363ffffffff16021790555060208201518160000160046101000a81548163ffffffff021916908363ffffffff16021790555060408201518160000160086101000a81548163ffffffff021916908363ffffffff160217905550606082015181600001600c6101000a81548163ffffffff021916908363ffffffff16021790555060808201518160000160106101000a81548163ffffffff021916908363ffffffff16021790555060a08201518160000160146101000a81548163ffffffff021916908363ffffffff160217905550505050505060036040518060e001604052806040518060400160405280600681526020017f4d61676d617200000000000000000000000000000000000000000000000000008152508152602001607e81526020016040518060400160405280600481526020017f466972650000000000000000000000000000000000000000000000000000000081525081526020016040518060400160405280600381526020017f6e616e0000000000000000000000000000000000000000000000000000000000815250815260200161019581526020016000151581526020016040518060c00160405280604163ffffffff168152602001605f63ffffffff168152602001603963ffffffff168152602001606463ffffffff168152602001605563ffffffff168152602001605d63ffffffff168152508152509080600181540180825580915050906001820390600052602060002090600702016000909192909190915060008201518160000190805190602001906300016f5c929190630001dde5565b506020820151816001015560408201518160020190805190602001906300016f87929190630001dde5565b5060608201518160030190805190602001906300016fa8929190630001dde5565b506080820151816004015560a08201518160050160006101000a81548160ff02191690831515021790555060c08201518160060160008201518160000160006101000a81548163ffffffff021916908363ffffffff16021790555060208201518160000160046101000a81548163ffffffff021916908363ffffffff16021790555060408201518160000160086101000a81548163ffffffff021916908363ffffffff160217905550606082015181600001600c6101000a81548163ffffffff021916908363ffffffff16021790555060808201518160000160106101000a81548163ffffffff021916908363ffffffff16021790555060a08201518160000160146101000a81548163ffffffff021916908363ffffffff160217905550505050505060036040518060e001604052806040518060400160405280600681526020017f50696e73697200000000000000000000000000000000000000000000000000008152508152602001607f81526020016040518060400160405280600381526020017f427567000000000000000000000000000000000000000000000000000000000081525081526020016040518060400160405280600381526020017f6e616e0000000000000000000000000000000000000000000000000000000000815250815260200161019081526020016000151581526020016040518060c00160405280604163ffffffff168152602001607d63ffffffff168152602001606463ffffffff168152602001603763ffffffff168152602001604663ffffffff168152602001605563ffffffff168152508152509080600181540180825580915050906001820390600052602060002090600702016000909192909190915060008201518160000190805190602001906300017246929190630001dde5565b506020820151816001015560408201518160020190805190602001906300017271929190630001dde5565b5060608201518160030190805190602001906300017292929190630001dde5565b506080820151816004015560a08201518160050160006101000a81548160ff02191690831515021790555060c08201518160060160008201518160000160006101000a81548163ffffffff021916908363ffffffff16021790555060208201518160000160046101000a81548163ffffffff021916908363ffffffff16021790555060408201518160000160086101000a81548163ffffffff021916908363ffffffff160217905550606082015181600001600c6101000a81548163ffffffff021916908363ffffffff16021790555060808201518160000160106101000a81548163ffffffff021916908363ffffffff16021790555060a08201518160000160146101000a81548163ffffffff021916908363ffffffff160217905550505050505060036040518060e001604052806040518060400160405280600681526020017f546175726f7300000000000000000000000000000000000000000000000000008152508152602001608081526020016040518060400160405280600681526020017f4e6f726d616c000000000000000000000000000000000000000000000000000081525081526020016040518060400160405280600381526020017f6e616e0000000000000000000000000000000000000000000000000000000000815250815260200161019a81526020016000151581526020016040518060c00160405280604b63ffffffff168152602001606463ffffffff168152602001605f63ffffffff168152602001602863ffffffff168152602001604663ffffffff168152602001606e63ffffffff168152508152509080600181540180825580915050906001820390600052602060002090600702016000909192909190915060008201518160000190805190602001906300017530929190630001dde5565b50602082015181600101556040820151816002019080519060200190630001755b929190630001dde5565b506060820151816003019080519060200190630001757c929190630001dde5565b506080820151816004015560a08201518160050160006101000a81548160ff02191690831515021790555060c08201518160060160008201518160000160006101000a81548163ffffffff021916908363ffffffff16021790555060208201518160000160046101000a81548163ffffffff021916908363ffffffff16021790555060408201518160000160086101000a81548163ffffffff021916908363ffffffff160217905550606082015181600001600c6101000a81548163ffffffff021916908363ffffffff16021790555060808201518160000160106101000a81548163ffffffff021916908363ffffffff16021790555060a08201518160000160146101000a81548163ffffffff021916908363ffffffff160217905550505050505060036040518060e001604052806040518060400160405280600881526020017f4d6167696b6172700000000000000000000000000000000000000000000000008152508152602001608181526020016040518060400160405280600581526020017f576174657200000000000000000000000000000000000000000000000000000081525081526020016040518060400160405280600381526020017f6e616e000000000000000000000000000000000000000000000000000000000081525081526020016102bc81526020016000151581526020016040518060c00160405280601463ffffffff168152602001600a63ffffffff168152602001603763ffffffff168152602001600f63ffffffff168152602001601463ffffffff168152602001605063ffffffff16815250815250908060018154018082558091505090600182039060005260206000209060070201600090919290919091506000820151816000019080519060200190630001781a929190630001dde5565b506020820151816001015560408201518160020190805190602001906300017845929190630001dde5565b5060608201518160030190805190602001906300017866929190630001dde5565b506080820151816004015560a08201518160050160006101000a81548160ff02191690831515021790555060c08201518160060160008201518160000160006101000a81548163ffffffff021916908363ffffffff16021790555060208201518160000160046101000a81548163ffffffff021916908363ffffffff16021790555060408201518160000160086101000a81548163ffffffff021916908363ffffffff160217905550606082015181600001600c6101000a81548163ffffffff021916908363ffffffff16021790555060808201518160000160106101000a81548163ffffffff021916908363ffffffff16021790555060a08201518160000160146101000a81548163ffffffff021916908363ffffffff160217905550505050505060036040518060e001604052806040518060400160405280600881526020017f4779617261646f730000000000000000000000000000000000000000000000008152508152602001608281526020016040518060400160405280600581526020017f576174657200000000000000000000000000000000000000000000000000000081525081526020016040518060400160405280600681526020017f466c79696e670000000000000000000000000000000000000000000000000000815250815260200161016881526020016000151581526020016040518060c00160405280605f63ffffffff168152602001607d63ffffffff168152602001604f63ffffffff168152602001603c63ffffffff168152602001606463ffffffff168152602001605163ffffffff168152508152509080600181540180825580915050906001820390600052602060002090600702016000909192909190915060008201518160000190805190602001906300017b04929190630001dde5565b506020820151816001015560408201518160020190805190602001906300017b2f929190630001dde5565b5060608201518160030190805190602001906300017b50929190630001dde5565b506080820151816004015560a08201518160050160006101000a81548160ff02191690831515021790555060c08201518160060160008201518160000160006101000a81548163ffffffff021916908363ffffffff16021790555060208201518160000160046101000a81548163ffffffff021916908363ffffffff16021790555060408201518160000160086101000a81548163ffffffff021916908363ffffffff160217905550606082015181600001600c6101000a81548163ffffffff021916908363ffffffff16021790555060808201518160000160106101000a81548163ffffffff021916908363ffffffff16021790555060a08201518160000160146101000a81548163ffffffff021916908363ffffffff160217905550505050505060036040518060e001604052806040518060400160405280600681526020017f4c617072617300000000000000000000000000000000000000000000000000008152508152602001608381526020016040518060400160405280600581526020017f576174657200000000000000000000000000000000000000000000000000000081525081526020016040518060400160405280600381526020017f4963650000000000000000000000000000000000000000000000000000000000815250815260200161016d81526020016000151581526020016040518060c00160405280608263ffffffff168152602001605563ffffffff168152602001605063ffffffff168152602001605563ffffffff168152602001605f63ffffffff168152602001603c63ffffffff168152508152509080600181540180825580915050906001820390600052602060002090600702016000909192909190915060008201518160000190805190602001906300017dee929190630001dde5565b506020820151816001015560408201518160020190805190602001906300017e19929190630001dde5565b5060608201518160030190805190602001906300017e3a929190630001dde5565b506080820151816004015560a08201518160050160006101000a81548160ff02191690831515021790555060c08201518160060160008201518160000160006101000a81548163ffffffff021916908363ffffffff16021790555060208201518160000160046101000a81548163ffffffff021916908363ffffffff16021790555060408201518160000160086101000a81548163ffffffff021916908363ffffffff160217905550606082015181600001600c6101000a81548163ffffffff021916908363ffffffff16021790555060808201518160000160106101000a81548163ffffffff021916908363ffffffff16021790555060a08201518160000160146101000a81548163ffffffff021916908363ffffffff160217905550505050505060036040518060e001604052806040518060400160405280600581526020017f446974746f0000000000000000000000000000000000000000000000000000008152508152602001608481526020016040518060400160405280600681526020017f4e6f726d616c000000000000000000000000000000000000000000000000000081525081526020016040518060400160405280600381526020017f6e616e0000000000000000000000000000000000000000000000000000000000815250815260200161026481526020016000151581526020016040518060c00160405280603063ffffffff168152602001603063ffffffff168152602001603063ffffffff168152602001603063ffffffff168152602001603063ffffffff168152602001603063ffffffff1681525081525090806001815401808255809150509060018203906000526020600020906007020160009091929091909150600082015181600001908051906020019063000180d8929190630001dde5565b506020820151816001015560408201518160020190805190602001906300018103929190630001dde5565b5060608201518160030190805190602001906300018124929190630001dde5565b506080820151816004015560a08201518160050160006101000a81548160ff02191690831515021790555060c08201518160060160008201518160000160006101000a81548163ffffffff021916908363ffffffff16021790555060208201518160000160046101000a81548163ffffffff021916908363ffffffff16021790555060408201518160000160086101000a81548163ffffffff021916908363ffffffff160217905550606082015181600001600c6101000a81548163ffffffff021916908363ffffffff16021790555060808201518160000160106101000a81548163ffffffff021916908363ffffffff16021790555060a08201518160000160146101000a81548163ffffffff021916908363ffffffff160217905550505050505060036040518060e001604052806040518060400160405280600581526020017f45657665650000000000000000000000000000000000000000000000000000008152508152602001608581526020016040518060400160405280600681526020017f4e6f726d616c000000000000000000000000000000000000000000000000000081525081526020016040518060400160405280600381526020017f6e616e0000000000000000000000000000000000000000000000000000000000815250815260200161023f81526020016000151581526020016040518060c00160405280603763ffffffff168152602001603763ffffffff168152602001603263ffffffff168152602001602d63ffffffff168152602001604163ffffffff168152602001603763ffffffff1681525081525090806001815401808255809150509060018203906000526020600020906007020160009091929091909150600082015181600001908051906020019063000183c2929190630001dde5565b5060208201518160010155604082015181600201908051906020019063000183ed929190630001dde5565b506060820151816003019080519060200190630001840e929190630001dde5565b506080820151816004015560a08201518160050160006101000a81548160ff02191690831515021790555060c08201518160060160008201518160000160006101000a81548163ffffffff021916908363ffffffff16021790555060208201518160000160046101000a81548163ffffffff021916908363ffffffff16021790555060408201518160000160086101000a81548163ffffffff021916908363ffffffff160217905550606082015181600001600c6101000a81548163ffffffff021916908363ffffffff16021790555060808201518160000160106101000a81548163ffffffff021916908363ffffffff16021790555060a08201518160000160146101000a81548163ffffffff021916908363ffffffff160217905550505050505060036040518060e001604052806040518060400160405280600881526020017f5661706f72656f6e0000000000000000000000000000000000000000000000008152508152602001608681526020016040518060400160405280600581526020017f576174657200000000000000000000000000000000000000000000000000000081525081526020016040518060400160405280600381526020017f6e616e0000000000000000000000000000000000000000000000000000000000815250815260200161017781526020016000151581526020016040518060c00160405280608263ffffffff168152602001604163ffffffff168152602001603c63ffffffff168152602001606e63ffffffff168152602001605f63ffffffff168152602001604163ffffffff1681525081525090806001815401808255809150509060018203906000526020600020906007020160009091929091909150600082015181600001908051906020019063000186ac929190630001dde5565b5060208201518160010155604082015181600201908051906020019063000186d7929190630001dde5565b50606082015181600301908051906020019063000186f8929190630001dde5565b506080820151816004015560a08201518160050160006101000a81548160ff02191690831515021790555060c08201518160060160008201518160000160006101000a81548163ffffffff021916908363ffffffff16021790555060208201518160000160046101000a81548163ffffffff021916908363ffffffff16021790555060408201518160000160086101000a81548163ffffffff021916908363ffffffff160217905550606082015181600001600c6101000a81548163ffffffff021916908363ffffffff16021790555060808201518160000160106101000a81548163ffffffff021916908363ffffffff16021790555060a08201518160000160146101000a81548163ffffffff021916908363ffffffff160217905550505050505060036040518060e001604052806040518060400160405280600781526020017f4a6f6c74656f6e000000000000000000000000000000000000000000000000008152508152602001608781526020016040518060400160405280600881526020017f456c65637472696300000000000000000000000000000000000000000000000081525081526020016040518060400160405280600381526020017f6e616e0000000000000000000000000000000000000000000000000000000000815250815260200161017781526020016000151581526020016040518060c00160405280604163ffffffff168152602001604163ffffffff168152602001603c63ffffffff168152602001606e63ffffffff168152602001605f63ffffffff168152602001608263ffffffff168152508152509080600181540180825580915050906001820390600052602060002090600702016000909192909190915060008201518160000190805190602001906300018996929190630001dde5565b5060208201518160010155604082015181600201908051906020019063000189c1929190630001dde5565b50606082015181600301908051906020019063000189e2929190630001dde5565b506080820151816004015560a08201518160050160006101000a81548160ff02191690831515021790555060c08201518160060160008201518160000160006101000a81548163ffffffff021916908363ffffffff16021790555060208201518160000160046101000a81548163ffffffff021916908363ffffffff16021790555060408201518160000160086101000a81548163ffffffff021916908363ffffffff160217905550606082015181600001600c6101000a81548163ffffffff021916908363ffffffff16021790555060808201518160000160106101000a81548163ffffffff021916908363ffffffff16021790555060a08201518160000160146101000a81548163ffffffff021916908363ffffffff160217905550505050505060036040518060e001604052806040518060400160405280600781526020017f466c6172656f6e000000000000000000000000000000000000000000000000008152508152602001608881526020016040518060400160405280600481526020017f466972650000000000000000000000000000000000000000000000000000000081525081526020016040518060400160405280600381526020017f6e616e0000000000000000000000000000000000000000000000000000000000815250815260200161017781526020016000151581526020016040518060c00160405280604163ffffffff168152602001608263ffffffff168152602001603c63ffffffff168152602001605f63ffffffff168152602001606e63ffffffff168152602001604163ffffffff168152508152509080600181540180825580915050906001820390600052602060002090600702016000909192909190915060008201518160000190805190602001906300018c80929190630001dde5565b506020820151816001015560408201518160020190805190602001906300018cab929190630001dde5565b5060608201518160030190805190602001906300018ccc929190630001dde5565b506080820151816004015560a08201518160050160006101000a81548160ff02191690831515021790555060c08201518160060160008201518160000160006101000a81548163ffffffff021916908363ffffffff16021790555060208201518160000160046101000a81548163ffffffff021916908363ffffffff16021790555060408201518160000160086101000a81548163ffffffff021916908363ffffffff160217905550606082015181600001600c6101000a81548163ffffffff021916908363ffffffff16021790555060808201518160000160106101000a81548163ffffffff021916908363ffffffff16021790555060a08201518160000160146101000a81548163ffffffff021916908363ffffffff160217905550505050505060036040518060e001604052806040518060400160405280600781526020017f506f7279676f6e000000000000000000000000000000000000000000000000008152508152602001608981526020016040518060400160405280600681526020017f4e6f726d616c000000000000000000000000000000000000000000000000000081525081526020016040518060400160405280600381526020017f6e616e000000000000000000000000000000000000000000000000000000000081525081526020016101f981526020016000151581526020016040518060c00160405280604163ffffffff168152602001603c63ffffffff168152602001604663ffffffff168152602001605563ffffffff168152602001604b63ffffffff168152602001602863ffffffff168152508152509080600181540180825580915050906001820390600052602060002090600702016000909192909190915060008201518160000190805190602001906300018f6a929190630001dde5565b506020820151816001015560408201518160020190805190602001906300018f95929190630001dde5565b5060608201518160030190805190602001906300018fb6929190630001dde5565b506080820151816004015560a08201518160050160006101000a81548160ff02191690831515021790555060c08201518160060160008201518160000160006101000a81548163ffffffff021916908363ffffffff16021790555060208201518160000160046101000a81548163ffffffff021916908363ffffffff16021790555060408201518160000160086101000a81548163ffffffff021916908363ffffffff160217905550606082015181600001600c6101000a81548163ffffffff021916908363ffffffff16021790555060808201518160000160106101000a81548163ffffffff021916908363ffffffff16021790555060a08201518160000160146101000a81548163ffffffff021916908363ffffffff160217905550505050505060036040518060e001604052806040518060400160405280600781526020017f4f6d616e797465000000000000000000000000000000000000000000000000008152508152602001608a81526020016040518060400160405280600481526020017f526f636b0000000000000000000000000000000000000000000000000000000081525081526020016040518060400160405280600581526020017f5761746572000000000000000000000000000000000000000000000000000000815250815260200161022181526020016000151581526020016040518060c00160405280602363ffffffff168152602001602863ffffffff168152602001606463ffffffff168152602001605a63ffffffff168152602001603763ffffffff168152602001602363ffffffff168152508152509080600181540180825580915050906001820390600052602060002090600702016000909192909190915060008201518160000190805190602001906300019254929190630001dde5565b50602082015181600101556040820151816002019080519060200190630001927f929190630001dde5565b50606082015181600301908051906020019063000192a0929190630001dde5565b506080820151816004015560a08201518160050160006101000a81548160ff02191690831515021790555060c08201518160060160008201518160000160006101000a81548163ffffffff021916908363ffffffff16021790555060208201518160000160046101000a81548163ffffffff021916908363ffffffff16021790555060408201518160000160086101000a81548163ffffffff021916908363ffffffff160217905550606082015181600001600c6101000a81548163ffffffff021916908363ffffffff16021790555060808201518160000160106101000a81548163ffffffff021916908363ffffffff16021790555060a08201518160000160146101000a81548163ffffffff021916908363ffffffff160217905550505050505060036040518060e001604052806040518060400160405280600781526020017f4f6d6173746172000000000000000000000000000000000000000000000000008152508152602001608b81526020016040518060400160405280600481526020017f526f636b0000000000000000000000000000000000000000000000000000000081525081526020016040518060400160405280600581526020017f5761746572000000000000000000000000000000000000000000000000000000815250815260200161019581526020016000151581526020016040518060c00160405280604663ffffffff168152602001603c63ffffffff168152602001607d63ffffffff168152602001607363ffffffff168152602001604663ffffffff168152602001603763ffffffff16815250815250908060018154018082558091505090600182039060005260206000209060070201600090919290919091506000820151816000019080519060200190630001953e929190630001dde5565b506020820151816001015560408201518160020190805190602001906300019569929190630001dde5565b506060820151816003019080519060200190630001958a929190630001dde5565b506080820151816004015560a08201518160050160006101000a81548160ff02191690831515021790555060c08201518160060160008201518160000160006101000a81548163ffffffff021916908363ffffffff16021790555060208201518160000160046101000a81548163ffffffff021916908363ffffffff16021790555060408201518160000160086101000a81548163ffffffff021916908363ffffffff160217905550606082015181600001600c6101000a81548163ffffffff021916908363ffffffff16021790555060808201518160000160106101000a81548163ffffffff021916908363ffffffff16021790555060a08201518160000160146101000a81548163ffffffff021916908363ffffffff160217905550505050505060036040518060e001604052806040518060400160405280600681526020017f4b616275746f00000000000000000000000000000000000000000000000000008152508152602001608c81526020016040518060400160405280600481526020017f526f636b0000000000000000000000000000000000000000000000000000000081525081526020016040518060400160405280600581526020017f5761746572000000000000000000000000000000000000000000000000000000815250815260200161022181526020016000151581526020016040518060c00160405280601e63ffffffff168152602001605063ffffffff168152602001605a63ffffffff168152602001603763ffffffff168152602001602d63ffffffff168152602001603763ffffffff168152508152509080600181540180825580915050906001820390600052602060002090600702016000909192909190915060008201518160000190805190602001906300019828929190630001dde5565b506020820151816001015560408201518160020190805190602001906300019853929190630001dde5565b5060608201518160030190805190602001906300019874929190630001dde5565b506080820151816004015560a08201518160050160006101000a81548160ff02191690831515021790555060c08201518160060160008201518160000160006101000a81548163ffffffff021916908363ffffffff16021790555060208201518160000160046101000a81548163ffffffff021916908363ffffffff16021790555060408201518160000160086101000a81548163ffffffff021916908363ffffffff160217905550606082015181600001600c6101000a81548163ffffffff021916908363ffffffff16021790555060808201518160000160106101000a81548163ffffffff021916908363ffffffff16021790555060a08201518160000160146101000a81548163ffffffff021916908363ffffffff160217905550505050505060036040518060e001604052806040518060400160405280600881526020017f4b616275746f70730000000000000000000000000000000000000000000000008152508152602001608d81526020016040518060400160405280600481526020017f526f636b0000000000000000000000000000000000000000000000000000000081525081526020016040518060400160405280600581526020017f5761746572000000000000000000000000000000000000000000000000000000815250815260200161019581526020016000151581526020016040518060c00160405280603c63ffffffff168152602001607363ffffffff168152602001606963ffffffff168152602001604163ffffffff168152602001604663ffffffff168152602001605063ffffffff168152508152509080600181540180825580915050906001820390600052602060002090600702016000909192909190915060008201518160000190805190602001906300019b12929190630001dde5565b506020820151816001015560408201518160020190805190602001906300019b3d929190630001dde5565b5060608201518160030190805190602001906300019b5e929190630001dde5565b506080820151816004015560a08201518160050160006101000a81548160ff02191690831515021790555060c08201518160060160008201518160000160006101000a81548163ffffffff021916908363ffffffff16021790555060208201518160000160046101000a81548163ffffffff021916908363ffffffff16021790555060408201518160000160086101000a81548163ffffffff021916908363ffffffff160217905550606082015181600001600c6101000a81548163ffffffff021916908363ffffffff16021790555060808201518160000160106101000a81548163ffffffff021916908363ffffffff16021790555060a08201518160000160146101000a81548163ffffffff021916908363ffffffff160217905550505050505060036040518060e001604052806040518060400160405280600a81526020017f4165726f64616374796c000000000000000000000000000000000000000000008152508152602001608e81526020016040518060400160405280600481526020017f526f636b0000000000000000000000000000000000000000000000000000000081525081526020016040518060400160405280600681526020017f466c79696e670000000000000000000000000000000000000000000000000000815250815260200161018181526020016000151581526020016040518060c00160405280605063ffffffff168152602001606963ffffffff168152602001604163ffffffff168152602001603c63ffffffff168152602001604b63ffffffff168152602001608263ffffffff168152508152509080600181540180825580915050906001820390600052602060002090600702016000909192909190915060008201518160000190805190602001906300019dfc929190630001dde5565b506020820151816001015560408201518160020190805190602001906300019e27929190630001dde5565b5060608201518160030190805190602001906300019e48929190630001dde5565b506080820151816004015560a08201518160050160006101000a81548160ff02191690831515021790555060c08201518160060160008201518160000160006101000a81548163ffffffff021916908363ffffffff16021790555060208201518160000160046101000a81548163ffffffff021916908363ffffffff16021790555060408201518160000160086101000a81548163ffffffff021916908363ffffffff160217905550606082015181600001600c6101000a81548163ffffffff021916908363ffffffff16021790555060808201518160000160106101000a81548163ffffffff021916908363ffffffff16021790555060a08201518160000160146101000a81548163ffffffff021916908363ffffffff160217905550505050505060036040518060e001604052806040518060400160405280600781526020017f536e6f726c6178000000000000000000000000000000000000000000000000008152508152602001608f81526020016040518060400160405280600681526020017f4e6f726d616c000000000000000000000000000000000000000000000000000081525081526020016040518060400160405280600381526020017f6e616e0000000000000000000000000000000000000000000000000000000000815250815260200161016881526020016000151581526020016040518060c0016040528060a063ffffffff168152602001606e63ffffffff168152602001604163ffffffff168152602001604163ffffffff168152602001606e63ffffffff168152602001601e63ffffffff16815250815250908060018154018082558091505090600182039060005260206000209060070201600090919290919091506000820151816000019080519060200190630001a0e6929190630001dde5565b50602082015181600101556040820151816002019080519060200190630001a111929190630001dde5565b506060820151816003019080519060200190630001a132929190630001dde5565b506080820151816004015560a08201518160050160006101000a81548160ff02191690831515021790555060c08201518160060160008201518160000160006101000a81548163ffffffff021916908363ffffffff16021790555060208201518160000160046101000a81548163ffffffff021916908363ffffffff16021790555060408201518160000160086101000a81548163ffffffff021916908363ffffffff160217905550606082015181600001600c6101000a81548163ffffffff021916908363ffffffff16021790555060808201518160000160106101000a81548163ffffffff021916908363ffffffff16021790555060a08201518160000160146101000a81548163ffffffff021916908363ffffffff160217905550505050505060036040518060e001604052806040518060400160405280600881526020017f4172746963756e6f0000000000000000000000000000000000000000000000008152508152602001609081526020016040518060400160405280600381526020017f496365000000000000000000000000000000000000000000000000000000000081525081526020016040518060400160405280600681526020017f466c79696e670000000000000000000000000000000000000000000000000000815250815260200161014081526020016001151581526020016040518060c00160405280605a63ffffffff168152602001605563ffffffff168152602001606463ffffffff168152602001605f63ffffffff168152602001607d63ffffffff168152602001605563ffffffff16815250815250908060018154018082558091505090600182039060005260206000209060070201600090919290919091506000820151816000019080519060200190630001a3d0929190630001dde5565b50602082015181600101556040820151816002019080519060200190630001a3fb929190630001dde5565b506060820151816003019080519060200190630001a41c929190630001dde5565b506080820151816004015560a08201518160050160006101000a81548160ff02191690831515021790555060c08201518160060160008201518160000160006101000a81548163ffffffff021916908363ffffffff16021790555060208201518160000160046101000a81548163ffffffff021916908363ffffffff16021790555060408201518160000160086101000a81548163ffffffff021916908363ffffffff160217905550606082015181600001600c6101000a81548163ffffffff021916908363ffffffff16021790555060808201518160000160106101000a81548163ffffffff021916908363ffffffff16021790555060a08201518160000160146101000a81548163ffffffff021916908363ffffffff160217905550505050505060036040518060e001604052806040518060400160405280600681526020017f5a6170646f7300000000000000000000000000000000000000000000000000008152508152602001609181526020016040518060400160405280600881526020017f456c65637472696300000000000000000000000000000000000000000000000081525081526020016040518060400160405280600681526020017f466c79696e670000000000000000000000000000000000000000000000000000815250815260200161014081526020016001151581526020016040518060c00160405280605a63ffffffff168152602001605a63ffffffff168152602001605563ffffffff168152602001607d63ffffffff168152602001605a63ffffffff168152602001606463ffffffff16815250815250908060018154018082558091505090600182039060005260206000209060070201600090919290919091506000820151816000019080519060200190630001a6ba929190630001dde5565b50602082015181600101556040820151816002019080519060200190630001a6e5929190630001dde5565b506060820151816003019080519060200190630001a706929190630001dde5565b506080820151816004015560a08201518160050160006101000a81548160ff02191690831515021790555060c08201518160060160008201518160000160006101000a81548163ffffffff021916908363ffffffff16021790555060208201518160000160046101000a81548163ffffffff021916908363ffffffff16021790555060408201518160000160086101000a81548163ffffffff021916908363ffffffff160217905550606082015181600001600c6101000a81548163ffffffff021916908363ffffffff16021790555060808201518160000160106101000a81548163ffffffff021916908363ffffffff16021790555060a08201518160000160146101000a81548163ffffffff021916908363ffffffff160217905550505050505060036040518060e001604052806040518060400160405280600781526020017f4d6f6c74726573000000000000000000000000000000000000000000000000008152508152602001609281526020016040518060400160405280600481526020017f466972650000000000000000000000000000000000000000000000000000000081525081526020016040518060400160405280600681526020017f466c79696e670000000000000000000000000000000000000000000000000000815250815260200161014081526020016001151581526020016040518060c00160405280605a63ffffffff168152602001606463ffffffff168152602001605a63ffffffff168152602001607d63ffffffff168152602001605563ffffffff168152602001605a63ffffffff16815250815250908060018154018082558091505090600182039060005260206000209060070201600090919290919091506000820151816000019080519060200190630001a9a4929190630001dde5565b50602082015181600101556040820151816002019080519060200190630001a9cf929190630001dde5565b506060820151816003019080519060200190630001a9f0929190630001dde5565b506080820151816004015560a08201518160050160006101000a81548160ff02191690831515021790555060c08201518160060160008201518160000160006101000a81548163ffffffff021916908363ffffffff16021790555060208201518160000160046101000a81548163ffffffff021916908363ffffffff16021790555060408201518160000160086101000a81548163ffffffff021916908363ffffffff160217905550606082015181600001600c6101000a81548163ffffffff021916908363ffffffff16021790555060808201518160000160106101000a81548163ffffffff021916908363ffffffff16021790555060a08201518160000160146101000a81548163ffffffff021916908363ffffffff160217905550505050505060036040518060e001604052806040518060400160405280600781526020017f44726174696e69000000000000000000000000000000000000000000000000008152508152602001609381526020016040518060400160405280600681526020017f447261676f6e000000000000000000000000000000000000000000000000000081525081526020016040518060400160405280600381526020017f6e616e0000000000000000000000000000000000000000000000000000000000815250815260200161025881526020016000151581526020016040518060c00160405280602963ffffffff168152602001604063ffffffff168152602001602d63ffffffff168152602001603263ffffffff168152602001603263ffffffff168152602001603263ffffffff16815250815250908060018154018082558091505090600182039060005260206000209060070201600090919290919091506000820151816000019080519060200190630001ac8e929190630001dde5565b50602082015181600101556040820151816002019080519060200190630001acb9929190630001dde5565b506060820151816003019080519060200190630001acda929190630001dde5565b506080820151816004015560a08201518160050160006101000a81548160ff02191690831515021790555060c08201518160060160008201518160000160006101000a81548163ffffffff021916908363ffffffff16021790555060208201518160000160046101000a81548163ffffffff021916908363ffffffff16021790555060408201518160000160086101000a81548163ffffffff021916908363ffffffff160217905550606082015181600001600c6101000a81548163ffffffff021916908363ffffffff16021790555060808201518160000160106101000a81548163ffffffff021916908363ffffffff16021790555060a08201518160000160146101000a81548163ffffffff021916908363ffffffff160217905550505050505060036040518060e001604052806040518060400160405280600981526020017f447261676f6e61697200000000000000000000000000000000000000000000008152508152602001609481526020016040518060400160405280600681526020017f447261676f6e000000000000000000000000000000000000000000000000000081525081526020016040518060400160405280600381526020017f6e616e000000000000000000000000000000000000000000000000000000000081525081526020016101e081526020016000151581526020016040518060c00160405280603d63ffffffff168152602001605463ffffffff168152602001604163ffffffff168152602001604663ffffffff168152602001604663ffffffff168152602001604663ffffffff16815250815250908060018154018082558091505090600182039060005260206000209060070201600090919290919091506000820151816000019080519060200190630001af78929190630001dde5565b50602082015181600101556040820151816002019080519060200190630001afa3929190630001dde5565b506060820151816003019080519060200190630001afc4929190630001dde5565b506080820151816004015560a08201518160050160006101000a81548160ff02191690831515021790555060c08201518160060160008201518160000160006101000a81548163ffffffff021916908363ffffffff16021790555060208201518160000160046101000a81548163ffffffff021916908363ffffffff16021790555060408201518160000160086101000a81548163ffffffff021916908363ffffffff160217905550606082015181600001600c6101000a81548163ffffffff021916908363ffffffff16021790555060808201518160000160106101000a81548163ffffffff021916908363ffffffff16021790555060a08201518160000160146101000a81548163ffffffff021916908363ffffffff160217905550505050505060036040518060e001604052806040518060400160405280600981526020017f447261676f6e69746500000000000000000000000000000000000000000000008152508152602001609581526020016040518060400160405280600681526020017f447261676f6e000000000000000000000000000000000000000000000000000081525081526020016040518060400160405280600681526020017f466c79696e670000000000000000000000000000000000000000000000000000815250815260200161012c81526020016000151581526020016040518060c00160405280605b63ffffffff168152602001608663ffffffff168152602001605f63ffffffff168152602001606463ffffffff168152602001606463ffffffff168152602001605063ffffffff16815250815250908060018154018082558091505090600182039060005260206000209060070201600090919290919091506000820151816000019080519060200190630001b262929190630001dde5565b50602082015181600101556040820151816002019080519060200190630001b28d929190630001dde5565b506060820151816003019080519060200190630001b2ae929190630001dde5565b506080820151816004015560a08201518160050160006101000a81548160ff02191690831515021790555060c08201518160060160008201518160000160006101000a81548163ffffffff021916908363ffffffff16021790555060208201518160000160046101000a81548163ffffffff021916908363ffffffff16021790555060408201518160000160086101000a81548163ffffffff021916908363ffffffff160217905550606082015181600001600c6101000a81548163ffffffff021916908363ffffffff16021790555060808201518160000160106101000a81548163ffffffff021916908363ffffffff16021790555060a08201518160000160146101000a81548163ffffffff021916908363ffffffff160217905550505050505060036040518060e001604052806040518060400160405280600681526020017f4d657774776f00000000000000000000000000000000000000000000000000008152508152602001609681526020016040518060400160405280600781526020017f507379636869630000000000000000000000000000000000000000000000000081525081526020016040518060400160405280600381526020017f6e616e0000000000000000000000000000000000000000000000000000000000815250815260200160dc81526020016001151581526020016040518060c00160405280606a63ffffffff168152602001606e63ffffffff168152602001605a63ffffffff168152602001609a63ffffffff168152602001605a63ffffffff168152602001608263ffffffff16815250815250908060018154018082558091505090600182039060005260206000209060070201600090919290919091506000820151816000019080519060200190630001b54b929190630001dde5565b50602082015181600101556040820151816002019080519060200190630001b576929190630001dde5565b506060820151816003019080519060200190630001b597929190630001dde5565b506080820151816004015560a08201518160050160006101000a81548160ff02191690831515021790555060c08201518160060160008201518160000160006101000a81548163ffffffff021916908363ffffffff16021790555060208201518160000160046101000a81548163ffffffff021916908363ffffffff16021790555060408201518160000160086101000a81548163ffffffff021916908363ffffffff160217905550606082015181600001600c6101000a81548163ffffffff021916908363ffffffff16021790555060808201518160000160106101000a81548163ffffffff021916908363ffffffff16021790555060a08201518160000160146101000a81548163ffffffff021916908363ffffffff160217905550505050505060036040518060e001604052806040518060400160405280600381526020017f4d657700000000000000000000000000000000000000000000000000000000008152508152602001609781526020016040518060400160405280600781526020017f507379636869630000000000000000000000000000000000000000000000000081525081526020016040518060400160405280600381526020017f6e616e0000000000000000000000000000000000000000000000000000000000815250815260200161012c81526020016000151581526020016040518060c00160405280606463ffffffff168152602001606463ffffffff168152602001606463ffffffff168152602001606463ffffffff168152602001606463ffffffff168152602001606463ffffffff16815250815250908060018154018082558091505090600182039060005260206000209060070201600090919290919091506000820151816000019080519060200190630001b835929190630001dde5565b50602082015181600101556040820151816002019080519060200190630001b860929190630001dde5565b506060820151816003019080519060200190630001b881929190630001dde5565b506080820151816004015560a08201518160050160006101000a81548160ff02191690831515021790555060c08201518160060160008201518160000160006101000a81548163ffffffff021916908363ffffffff16021790555060208201518160000160046101000a81548163ffffffff021916908363ffffffff16021790555060408201518160000160086101000a81548163ffffffff021916908363ffffffff160217905550606082015181600001600c6101000a81548163ffffffff021916908363ffffffff16021790555060808201518160000160106101000a81548163ffffffff021916908363ffffffff16021790555060a08201518160000160146101000a81548163ffffffff021916908363ffffffff1602179055505050505050565b600260016000600181526020019081526020016000208190555060036001600060028152602001908152602001600020819055506005600160006004815260200190815260200160002081905550600660016000600581526020019081526020016000208190555060086001600060078152602001908152602001600020819055506009600160006008815260200190815260200160002081905550600b60016000600a815260200190815260200160002081905550600c60016000600b815260200190815260200160002081905550600e60016000600d815260200190815260200160002081905550600f60016000600e81526020019081526020016000208190555060116001600060108152602001908152602001600020819055506012600160006011815260200190815260200160002081905550601460016000601381526020019081526020016000208190555060166001600060158152602001908152602001600020819055506018600160006017815260200190815260200160002081905550601a600160006019815260200190815260200160002081905550601c60016000601b815260200190815260200160002081905550601e60016000601d815260200190815260200160002081905550601f60016000601e81526020019081526020016000208190555060216001600060208152602001908152602001600020819055506022600160006021815260200190815260200160002081905550602460016000602381526020019081526020016000208190555060266001600060258152602001908152602001600020819055506028600160006027815260200190815260200160002081905550602a600160006029815260200190815260200160002081905550602c60016000602b815260200190815260200160002081905550602d60016000602c815260200190815260200160002081905550602f60016000602e81526020019081526020016000208190555060316001600060308152602001908152602001600020819055506033600160006032815260200190815260200160002081905550603560016000603481526020019081526020016000208190555060376001600060368152602001908152602001600020819055506039600160006038815260200190815260200160002081905550603b60016000603a815260200190815260200160002081905550603d60016000603c815260200190815260200160002081905550603e60016000603d815260200190815260200160002081905550604060016000603f815260200190815260200160002081905550604160016000604081526020019081526020016000208190555060436001600060428152602001908152602001600020819055506044600160006043815260200190815260200160002081905550604660016000604581526020019081526020016000208190555060476001600060468152602001908152602001600020819055506049600160006048815260200190815260200160002081905550604b60016000604a815260200190815260200160002081905550604c60016000604b815260200190815260200160002081905550604e60016000604d815260200190815260200160002081905550605060016000604f8152602001908152602001600020819055506052600160006051815260200190815260200160002081905550605560016000605481526020019081526020016000208190555060576001600060568152602001908152602001600020819055506059600160006058815260200190815260200160002081905550605b60016000605a815260200190815260200160002081905550605d60016000605c815260200190815260200160002081905550605e60016000605d81526020019081526020016000208190555060616001600060608152602001908152602001600020819055506063600160006062815260200190815260200160002081905550606560016000606481526020019081526020016000208190555060676001600060668152602001908152602001600020819055506069600160006068815260200190815260200160002081905550606e60016000606d815260200190815260200160002081905550607060016000606f81526020019081526020016000208190555060756001600060748152602001908152602001600020819055506077600160006076815260200190815260200160002081905550607960016000607881526020019081526020016000208190555060826001600060818152602001908152602001600020819055506086600160006085815260200190815260200160002081905550608b60016000608a815260200190815260200160002081905550608d60016000608c81526020019081526020016000208190555060946001600060938152602001908152602001600020819055506095600160006094815260200190815260200160002081905550565b600160026000600181526020019081526020016000208190555060016002600060028152602001908152602001600020819055506001600260006003815260200190815260200160002081905550600460026000600481526020019081526020016000208190555060046002600060058152602001908152602001600020819055506004600260006006815260200190815260200160002081905550600760026000600781526020019081526020016000208190555060076002600060088152602001908152602001600020819055506007600260006009815260200190815260200160002081905550600a60026000600a815260200190815260200160002081905550600a60026000600b815260200190815260200160002081905550600a60026000600c815260200190815260200160002081905550600d60026000600d815260200190815260200160002081905550600d60026000600e815260200190815260200160002081905550600d60026000600f8152602001908152602001600020819055506010600260006010815260200190815260200160002081905550601060026000601181526020019081526020016000208190555060106002600060128152602001908152602001600020819055506013600260006013815260200190815260200160002081905550601360026000601481526020019081526020016000208190555060156002600060158152602001908152602001600020819055506015600260006016815260200190815260200160002081905550601760026000601781526020019081526020016000208190555060176002600060188152602001908152602001600020819055506019600260006019815260200190815260200160002081905550601960026000601a815260200190815260200160002081905550601b60026000601b815260200190815260200160002081905550601b60026000601c815260200190815260200160002081905550601d60026000601d815260200190815260200160002081905550601d60026000601e815260200190815260200160002081905550601d60026000601f8152602001908152602001600020819055506020600260006020815260200190815260200160002081905550602060026000602181526020019081526020016000208190555060206002600060228152602001908152602001600020819055506023600260006023815260200190815260200160002081905550602360026000602481526020019081526020016000208190555060256002600060258152602001908152602001600020819055506025600260006026815260200190815260200160002081905550602760026000602781526020019081526020016000208190555060276002600060288152602001908152602001600020819055506029600260006029815260200190815260200160002081905550602960026000602a815260200190815260200160002081905550602b60026000602b815260200190815260200160002081905550602b60026000602c815260200190815260200160002081905550602b60026000602d815260200190815260200160002081905550602e60026000602e815260200190815260200160002081905550602e60026000602f8152602001908152602001600020819055506030600260006030815260200190815260200160002081905550603060026000603181526020019081526020016000208190555060326002600060328152602001908152602001600020819055506032600260006033815260200190815260200160002081905550603460026000603481526020019081526020016000208190555060346002600060358152602001908152602001600020819055506036600260006036815260200190815260200160002081905550603660026000603781526020019081526020016000208190555060386002600060388152602001908152602001600020819055506038600260006039815260200190815260200160002081905550603a60026000603a815260200190815260200160002081905550603a60026000603b815260200190815260200160002081905550603c60026000603c815260200190815260200160002081905550603c60026000603d815260200190815260200160002081905550603c60026000603e815260200190815260200160002081905550603f60026000603f815260200190815260200160002081905550603f600260006040815260200190815260200160002081905550603f60026000604181526020019081526020016000208190555060426002600060428152602001908152602001600020819055506042600260006043815260200190815260200160002081905550604260026000604481526020019081526020016000208190555060456002600060458152602001908152602001600020819055506045600260006046815260200190815260200160002081905550604560026000604781526020019081526020016000208190555060486002600060488152602001908152602001600020819055506048600260006049815260200190815260200160002081905550604a60026000604a815260200190815260200160002081905550604a60026000604b815260200190815260200160002081905550604a60026000604c815260200190815260200160002081905550604d60026000604d815260200190815260200160002081905550604d60026000604e815260200190815260200160002081905550604f60026000604f815260200190815260200160002081905550604f600260006050815260200190815260200160002081905550605160026000605181526020019081526020016000208190555060516002600060528152602001908152602001600020819055506053600260006053815260200190815260200160002081905550605460026000605481526020019081526020016000208190555060546002600060558152602001908152602001600020819055506056600260006056815260200190815260200160002081905550605660026000605781526020019081526020016000208190555060586002600060588152602001908152602001600020819055506058600260006059815260200190815260200160002081905550605a60026000605a815260200190815260200160002081905550605a60026000605b815260200190815260200160002081905550605c60026000605c815260200190815260200160002081905550605c60026000605d815260200190815260200160002081905550605c60026000605e815260200190815260200160002081905550605f60026000605f8152602001908152602001600020819055506060600260006060815260200190815260200160002081905550606060026000606181526020019081526020016000208190555060626002600060628152602001908152602001600020819055506062600260006063815260200190815260200160002081905550606460026000606481526020019081526020016000208190555060646002600060658152602001908152602001600020819055506066600260006066815260200190815260200160002081905550606660026000606781526020019081526020016000208190555060686002600060688152602001908152602001600020819055506068600260006069815260200190815260200160002081905550606a60026000606a815260200190815260200160002081905550606b60026000606b815260200190815260200160002081905550606c60026000606c815260200190815260200160002081905550606d60026000606d815260200190815260200160002081905550606d60026000606e815260200190815260200160002081905550606f60026000606f815260200190815260200160002081905550606f600260006070815260200190815260200160002081905550607160026000607181526020019081526020016000208190555060726002600060728152602001908152602001600020819055506073600260006073815260200190815260200160002081905550607460026000607481526020019081526020016000208190555060746002600060758152602001908152602001600020819055506076600260006076815260200190815260200160002081905550607660026000607781526020019081526020016000208190555060786002600060788152602001908152602001600020819055506078600260006079815260200190815260200160002081905550607a60026000607a815260200190815260200160002081905550607b60026000607b815260200190815260200160002081905550607c60026000607c815260200190815260200160002081905550607d60026000607d815260200190815260200160002081905550607e60026000607e815260200190815260200160002081905550607f60026000607f8152602001908152602001600020819055506080600260006080815260200190815260200160002081905550608160026000608181526020019081526020016000208190555060816002600060828152602001908152602001600020819055506083600260006083815260200190815260200160002081905550608460026000608481526020019081526020016000208190555060856002600060858152602001908152602001600020819055506085600260006086815260200190815260200160002081905550608760026000608781526020019081526020016000208190555060886002600060888152602001908152602001600020819055506089600260006089815260200190815260200160002081905550608a60026000608a815260200190815260200160002081905550608a60026000608b815260200190815260200160002081905550608c60026000608c815260200190815260200160002081905550608c60026000608d815260200190815260200160002081905550608e60026000608e815260200190815260200160002081905550608f60026000608f81526020019081526020016000208190555060906002600060908152602001908152602001600020819055506091600260006091815260200190815260200160002081905550609260026000609281526020019081526020016000208190555060936002600060938152602001908152602001600020819055506093600260006094815260200190815260200160002081905550609360026000609581526020019081526020016000208190555060966002600060968152602001908152602001600020819055506097600260006097815260200190815260200160002081905550565b600080600b60003373ffffffffffffffffffffffffffffffffffffffff1673ffffffffffffffffffffffffffffffffffffffff1681526020019081526020016000205414630001d06b57600080fd5b6000821480630001d07c5750600382145b80630001d0895750600682145b630001d09457600080fd5b6000630001d0b284630001d0de640100000000026401000000009004565b9050630001d0d5848260008087630001d17d640100000000026401000000009004565b91505092915050565b600080826040516020018082805190602001908083835b60208310630001d11c5780518252602082019150602081019050602083039250630001d0f5565b6001836020036101000a038019825116818451168082178552505050505050905001915050604051602081830303815290604052805190602001206001900490506000444301905060055481830181630001d17357fe5b0692505050919050565b600060606006604051908082528060200260200182016040528015630001d1b35781602001602082028038833980820191505090505b5090506000869050600080600090505b6006811015630001d22657600a8381630001d1da57fe5b06915081848281518110630001d1ec57fe5b602002602001019063ffffffff16908163ffffffff1681525050600a82840381630001d21457fe5b0492508080600101915050630001d1c3565b50630001d233630001de73565b60038681548110630001d24257fe5b90600052602060002090600702016040518060e0016040529081600082018054600181600116156101000203166002900480601f016020809104026020016040519081016040528092919081815260200182805460018160011615610100020316600290048015630001d2fc5780601f10630001d2cf57610100808354040283529160200191630001d2fc565b820191906000526020600020905b815481529060010190602001808311630001d2dd57829003601f168201915b5050505050815260200160018201548152602001600282018054600181600116156101000203166002900480601f016020809104026020016040519081016040528092919081815260200182805460018160011615610100020316600290048015630001d3b05780601f10630001d38357610100808354040283529160200191630001d3b0565b820191906000526020600020905b815481529060010190602001808311630001d39157829003601f168201915b50505050508152602001600382018054600181600116156101000203166002900480601f016020809104026020016040519081016040528092919081815260200182805460018160011615610100020316600290048015630001d45a5780601f10630001d42d57610100808354040283529160200191630001d45a565b820191906000526020600020905b815481529060010190602001808311630001d43b57829003601f168201915b50505050508152602001600482015481526020016005820160009054906101000a900460ff16151515158152602001600682016040518060c00160405290816000820160009054906101000a900463ffffffff1663ffffffff1663ffffffff1681526020016000820160049054906101000a900463ffffffff1663ffffffff1663ffffffff1681526020016000820160089054906101000a900463ffffffff1663ffffffff1663ffffffff16815260200160008201600c9054906101000a900463ffffffff1663ffffffff1663ffffffff1681526020016000820160109054906101000a900463ffffffff1663ffffffff1663ffffffff1681526020016000820160149054906101000a900463ffffffff1663ffffffff1663ffffffff1681525050815250509050630001d5cc84600081518110630001d59657fe5b60200260200101518260c001516000015163ffffffff16630001dcfc640100000000026300002d5c179091906401000000009004565b8160c001516000019063ffffffff16908163ffffffff1681525050630001d63184600181518110630001d5fb57fe5b60200260200101518260c001516020015163ffffffff16630001dcfc640100000000026300002d5c179091906401000000009004565b8160c001516020019063ffffffff16908163ffffffff1681525050630001d69684600281518110630001d66057fe5b60200260200101518260c001516040015163ffffffff16630001dcfc640100000000026300002d5c179091906401000000009004565b8160c001516040019063ffffffff16908163ffffffff1681525050630001d6fb84600381518110630001d6c557fe5b60200260200101518260c001516060015163ffffffff16630001dcfc640100000000026300002d5c179091906401000000009004565b8160c001516060019063ffffffff16908163ffffffff1681525050630001d76084600481518110630001d72a57fe5b60200260200101518260c001516080015163ffffffff16630001dcfc640100000000026300002d5c179091906401000000009004565b8160c001516080019063ffffffff16908163ffffffff1681525050630001d7c584600581518110630001d78f57fe5b60200260200101518260c0015160a0015163ffffffff16630001dcfc640100000000026300002d5c179091906401000000009004565b8160c0015160a0019063ffffffff16908163ffffffff1681525050630001d7ec630001debc565b604051806101e001604052808c8152602001836000015181526020018360400151815260200183606001518152602001600163ffffffff168152602001600063ffffffff168152602001600063ffffffff168152602001630001d85f8d630001dd26640100000000026401000000009004565b151581526020018b81526020018a815260200189815260200160008152602001836020015181526020018360a00151151581526020018360c001518152509050600060016009839080600181540180825580915050906001820390600052602060002090600c0201600090919290919091506000820151816000019080519060200190630001d8f1929190630001dde5565b506020820151816001019080519060200190630001d912929190630001dde5565b506040820151816002019080519060200190630001d933929190630001dde5565b506060820151816003019080519060200190630001d954929190630001dde5565b5060808201518160040160006101000a81548163ffffffff021916908363ffffffff16021790555060a08201518160040160046101000a81548163ffffffff021916908363ffffffff16021790555060c08201518160040160086101000a81548163ffffffff021916908363ffffffff16021790555060e082015181600401600c6101000a81548160ff021916908315150217905550610100820151816005015561012082015181600601556101408201518160070155610160820151816008015561018082015181600901556101a082015181600a0160006101000a81548160ff0219169083151502179055506101c082015181600b0160008201518160000160006101000a81548163ffffffff021916908363ffffffff16021790555060208201518160000160046101000a81548163ffffffff021916908363ffffffff16021790555060408201518160000160086101000a81548163ffffffff021916908363ffffffff160217905550606082015181600001600c6101000a81548163ffffffff021916908363ffffffff16021790555060808201518160000160106101000a81548163ffffffff021916908363ffffffff16021790555060a08201518160000160146101000a81548163ffffffff021916908363ffffffff1602179055505050505003905033600a600083815260200190815260200160002060006101000a81548173ffffffffffffffffffffffffffffffffffffffff021916908373ffffffffffffffffffffffffffffffffffffffff160217905550630001dbf56001600b60003373ffffffffffffffffffffffffffffffffffffffff1673ffffffffffffffffffffffffffffffffffffffff16815260200190815260200160002054630001ddc7640100000000026300002f33179091906401000000009004565b600b60003373ffffffffffffffffffffffffffffffffffffffff1673ffffffffffffffffffffffffffffffffffffffff168152602001908152602001600020819055507fb2ddd0094c7d8b02387161898cbaa1bbcb4cee4731fdeceb76548071724adcd2818d8d6040518084815260200180602001838152602001828103825284818151815260200191508051906020019080838360005b83811015630001dcac578082015181840152602081019050630001dc8d565b50505050905090810190601f168015630001dcdb5780820380516001836020036101000a031916815260200191505b5094505050505060405180910390a180965050505050505095945050505050565b60008082840190508363ffffffff168163ffffffff161015630001dd1c57fe5b8091505092915050565b600080826040516020018082805190602001908083835b60208310630001dd645780518252602082019150602081019050602083039250630001dd3d565b6001836020036101000a03801982511681845116808217855250505050505090500191505060405160208183030381529060405280519060200120600190049050600044430190506000600282840181630001ddbc57fe5b061492505050919050565b600080828401905083811015630001dddb57fe5b8091505092915050565b828054600181600116156101000203166002900490600052602060002090601f016020900481019282601f10630001de2a57805160ff1916838001178555630001de5e565b82800160010185558215630001de5e579182015b82811115630001de5d578251825591602001919060010190630001de3e565b5b509050630001de6f9190630001df52565b5090565b6040518060e001604052806060815260200160008152602001606081526020016060815260200160008152602001600015158152602001630001deb6630001df7d565b81525090565b604051806101e0016040528060608152602001606081526020016060815260200160608152602001600063ffffffff168152602001600063ffffffff168152602001600063ffffffff1681526020016000151581526020016000815260200160008152602001600081526020016000815260200160008152602001600015158152602001630001df4c630001df7d565b81525090565b630001df7a91905b80821115630001df76576000816000905550600101630001df5a565b5090565b90565b6040518060c00160405280600063ffffffff168152602001600063ffffffff168152602001600063ffffffff168152602001600063ffffffff168152602001600063ffffffff168152602001600063ffffffff1681525090565b61422f80630001dfe86000396000f3fe608060405260043610610221576000357c01000000000000000000000000000000000000000000000000000000009004806387f1fbf311610135578063c39cbef1116100bd578063d413a08a1161008c578063d413a08a14610f8c578063f114572714610faa578063f119f56714610fc8578063f2fde38b146110bc578063f976b12d1461110d57610221565b8063c39cbef114610db4578063c8e0d77414610e44578063ccf670f814610efe578063d3e6f49f14610f3957610221565b8063a11ed15711610104578063a11ed15714610bba578063b7c6825914610bf5578063ba8064c014610c48578063bdfb526914610ca3578063c37fc8a814610d8957610221565b806387f1fbf314610a7957806388c2a0bf14610ae55780638da5cb5b14610b345780638f32d59b14610b8b57610221565b806346d22c70116101b85780636dd25f6a116101875780636dd25f6a146107645780637004fb84146107df578063715018a61461081757806372f429581461082e578063835d75ab146108e257610221565b806346d22c701461060b5780634d33fbe71461066857806351067f001461070e5780636ae0fbde1461073957610221565b80632d90c7a7116101f45780632d90c7a71461051f5780632f7467b31461054e5780633ccfd60b146105c957806342945e48146105e057610221565b80630ce90ec2146102265780630dc2f10a146102545780631940a9361461047157806325540917146104c4575b600080fd5b6102526004803603602081101561023c57600080fd5b8101908080359060200190929190505050611160565b005b34801561026057600080fd5b5061028d6004803603602081101561027757600080fd5b8101908080359060200190929190505050611512565b60405180806020018060200180602001806020018863ffffffff1663ffffffff1681526020018781526020018615151515815260200185810385528c818151815260200191508051906020019080838360005b838110156102fb5780820151818401526020810190506102e0565b50505050905090810190601f1680156103285780820380516001836020036101000a031916815260200191505b5085810384528b818151815260200191508051906020019080838360005b83811015610361578082015181840152602081019050610346565b50505050905090810190601f16801561038e5780820380516001836020036101000a031916815260200191505b5085810383528a818151815260200191508051906020019080838360005b838110156103c75780820151818401526020810190506103ac565b50505050905090810190601f1680156103f45780820380516001836020036101000a031916815260200191505b50858103825289818151815260200191508051906020019080838360005b8381101561042d578082015181840152602081019050610412565b50505050905090810190601f16801561045a5780820380516001836020036101000a031916815260200191505b509b50505050505050505050505060405180910390f35b34801561047d57600080fd5b506104aa6004803603602081101561049457600080fd5b8101908080359060200190929190505050611801565b604051808215151515815260200191505060405180910390f35b3480156104d057600080fd5b506104fd600480360360208110156104e757600080fd5b810190808035906020019092919050505061183c565b604051808263ffffffff1663ffffffff16815260200191505060405180910390f35b34801561052b57600080fd5b50610534611879565b604051808215151515815260200191505060405180910390f35b34801561055a57600080fd5b506105876004803603602081101561057157600080fd5b81019080803590602001909291905050506118c2565b604051808273ffffffffffffffffffffffffffffffffffffffff1673ffffffffffffffffffffffffffffffffffffffff16815260200191505060405180910390f35b3480156105d557600080fd5b506105de6118f5565b005b3480156105ec57600080fd5b506105f56119c8565b6040518082815260200191505060405180910390f35b34801561061757600080fd5b5061064e6004803603604081101561062e57600080fd5b8101908080359060200190929190803590602001909291905050506119d5565b604051808215151515815260200191505060405180910390f35b34801561067457600080fd5b506106b76004803603602081101561068b57600080fd5b81019080803573ffffffffffffffffffffffffffffffffffffffff169060200190929190505050611a78565b6040518080602001828103825283818151815260200191508051906020019060200280838360005b838110156106fa5780820151818401526020810190506106df565b505050509050019250505060405180910390f35b34801561071a57600080fd5b50610723611bb3565b6040518082815260200191505060405180910390f35b34801561074557600080fd5b5061074e611bfa565b6040518082815260200191505060405180910390f35b34801561077057600080fd5b5061079d6004803603602081101561078757600080fd5b8101908080359060200190929190505050611c00565b604051808663ffffffff1663ffffffff168152602001851515151581526020018481526020018381526020018281526020019550505050505060405180910390f35b610815600480360360408110156107f557600080fd5b810190808035906020019092919080359060200190929190505050611c70565b005b34801561082357600080fd5b5061082c611ca0565b005b34801561083a57600080fd5b506108676004803603602081101561085157600080fd5b8101908080359060200190929190505050611d70565b6040518080602001828103825283818151815260200191508051906020019080838360005b838110156108a757808201518184015260208101905061088c565b50505050905090810190601f1680156108d45780820380516001836020036101000a031916815260200191505b509250505060405180910390f35b3480156108ee57600080fd5b5061091b6004803603602081101561090557600080fd5b8101908080359060200190929190505050611e33565b6040518080602001806020018060200185151515158152602001848103845288818151815260200191508051906020019080838360005b8381101561096d578082015181840152602081019050610952565b50505050905090810190601f16801561099a5780820380516001836020036101000a031916815260200191505b50848103835287818151815260200191508051906020019080838360005b838110156109d35780820151818401526020810190506109b8565b50505050905090810190601f168015610a005780820380516001836020036101000a031916815260200191505b50848103825286818151815260200191508051906020019080838360005b83811015610a39578082015181840152602081019050610a1e565b50505050905090810190601f168015610a665780820380516001836020036101000a031916815260200191505b5097505050505050505060405180910390f35b348015610a8557600080fd5b50610a8e61205d565b6040518080602001828103825283818151815260200191508051906020019060200280838360005b83811015610ad1578082015181840152602081019050610ab6565b505050509050019250505060405180910390f35b348015610af157600080fd5b50610b1e60048036036020811015610b0857600080fd5b8101908080359060200190929190505050612196565b6040518082815260200191505060405180910390f35b348015610b4057600080fd5b50610b4961224a565b604051808273ffffffffffffffffffffffffffffffffffffffff1673ffffffffffffffffffffffffffffffffffffffff16815260200191505060405180910390f35b348015610b9757600080fd5b50610ba0612273565b604051808215151515815260200191505060405180910390f35b348015610bc657600080fd5b50610bf360048036036020811015610bdd57600080fd5b81019080803590602001909291905050506122ca565b005b348015610c0157600080fd5b50610c2e60048036036020811015610c1857600080fd5b81019080803590602001909291905050506122e5565b604051808215151515815260200191505060405180910390f35b348015610c5457600080fd5b50610c8160048036036020811015610c6b57600080fd5b8101908080359060200190929190505050612316565b604051808263ffffffff1663ffffffff16815260200191505060405180910390f35b348015610caf57600080fd5b50610d7360048036036040811015610cc657600080fd5b8101908080359060200190640100000000811115610ce357600080fd5b820183602082011115610cf557600080fd5b80359060200191846001830284011164010000000083111715610d1757600080fd5b91908080601f016020809104026020016040519081016040528093929190818152602001838380828437600081840152601f19601f820116905080830192505050505050509192919290803590602001909291905050506123ee565b6040518082815260200191505060405180910390f35b348015610d9557600080fd5b50610d9e612482565b6040518082815260200191505060405180910390f35b348015610dc057600080fd5b50610e4260048036036040811015610dd757600080fd5b810190808035906020019092919080359060200190640100000000811115610dfe57600080fd5b820183602082011115610e1057600080fd5b80359060200191846001830284011164010000000083111715610e3257600080fd5b90919293919293905050506124c9565b005b348015610e5057600080fd5b50610e7d60048036036020811015610e6757600080fd5b8101908080359060200190929190505050612542565b604051808763ffffffff1663ffffffff1681526020018663ffffffff1663ffffffff1681526020018563ffffffff1663ffffffff1681526020018463ffffffff1663ffffffff1681526020018363ffffffff1663ffffffff1681526020018263ffffffff1663ffffffff168152602001965050505050505060405180910390f35b348015610f0a57600080fd5b50610f3760048036036020811015610f2157600080fd5b8101908080359060200190929190505050612601565b005b348015610f4557600080fd5b50610f7260048036036020811015610f5c57600080fd5b810190808035906020019092919050505061261c565b604051808215151515815260200191505060405180910390f35b610f9461265d565b6040518082815260200191505060405180910390f35b610fb2612745565b6040518082815260200191505060405180910390f35b348015610fd457600080fd5b5061100160048036036020811015610feb57600080fd5b810190808035906020019092919050505061282d565b60405180806020018681526020018563ffffffff1663ffffffff1681526020018463ffffffff1663ffffffff1681526020018363ffffffff1663ffffffff168152602001828103825287818151815260200191508051906020019080838360005b8381101561107d578082015181840152602081019050611062565b50505050905090810190601f1680156110aa5780820380516001836020036101000a031916815260200191505b50965050505050505060405180910390f35b3480156110c857600080fd5b5061110b600480360360208110156110df57600080fd5b81019080803573ffffffffffffffffffffffffffffffffffffffff169060200190929190505050612cd6565b005b34801561111957600080fd5b506111466004803603602081101561113057600080fd5b8101908080359060200190929190505050612cf3565b604051808215151515815260200191505060405180910390f35b80600a600082815260200190815260200160002060009054906101000a900473ffffffffffffffffffffffffffffffffffffffff1673ffffffffffffffffffffffffffffffffffffffff163373ffffffffffffffffffffffffffffffffffffffff16146111cc57600080fd5b600d5434146111da57600080fd5b34600e60003073ffffffffffffffffffffffffffffffffffffffff1673ffffffffffffffffffffffffffffffffffffffff1681526020019081526020016000206000828254019250508190555060006009838154811061123657fe5b90600052602060002090600c0201905061128e60016009858154811061125857fe5b90600052602060002090600c020160040160009054906101000a900463ffffffff1663ffffffff16612d5c90919063ffffffff16565b8160040160006101000a81548163ffffffff021916908363ffffffff1602179055506112e1600582600b0160000160009054906101000a900463ffffffff1663ffffffff16612d5c90919063ffffffff16565b81600b0160000160006101000a81548163ffffffff021916908363ffffffff160217905550611337600282600b0160000160049054906101000a900463ffffffff1663ffffffff16612d5c90919063ffffffff16565b81600b0160000160046101000a81548163ffffffff021916908363ffffffff16021790555061138d600282600b0160000160089054906101000a900463ffffffff1663ffffffff16612d5c90919063ffffffff16565b81600b0160000160086101000a81548163ffffffff021916908363ffffffff1602179055506113e3600182600b01600001600c9054906101000a900463ffffffff1663ffffffff16612d5c90919063ffffffff16565b81600b01600001600c6101000a81548163ffffffff021916908363ffffffff160217905550611439600182600b0160000160109054906101000a900463ffffffff1663ffffffff16612d5c90919063ffffffff16565b81600b0160000160106101000a81548163ffffffff021916908363ffffffff16021790555061148f600282600b0160000160149054906101000a900463ffffffff1663ffffffff16612d5c90919063ffffffff16565b81600b0160000160146101000a81548163ffffffff021916908363ffffffff1602179055507f3d81d1ad835628fb7aaf501fe84126e79b4f4b0ca7664653bec4a6e968d27715838260040160009054906101000a900463ffffffff16604051808381526020018263ffffffff1681526020019250505060405180910390a1505050565b6060806060806000806000806009898154811061152b57fe5b90600052602060002090600c02019050806000018160010182600201836003018460040160009054906101000a900463ffffffff16856009015486600a0160009054906101000a900460ff16868054600181600116156101000203166002900480601f01602080910402602001604051908101604052809291908181526020018280546001816001161561010002031660029004801561160c5780601f106115e15761010080835404028352916020019161160c565b820191906000526020600020905b8154815290600101906020018083116115ef57829003601f168201915b50505050509650858054600181600116156101000203166002900480601f0160208091040260200160405190810160405280929190818152602001828054600181600116156101000203166002900480156116a85780601f1061167d576101008083540402835291602001916116a8565b820191906000526020600020905b81548152906001019060200180831161168b57829003601f168201915b50505050509550848054600181600116156101000203166002900480601f0160208091040260200160405190810160405280929190818152602001828054600181600116156101000203166002900480156117445780601f1061171957610100808354040283529160200191611744565b820191906000526020600020905b81548152906001019060200180831161172757829003601f168201915b50505050509450838054600181600116156101000203166002900480601f0160208091040260200160405190810160405280929190818152602001828054600181600116156101000203166002900480156117e05780601f106117b5576101008083540402835291602001916117e0565b820191906000526020600020905b8154815290600101906020018083116117c357829003601f168201915b50505050509350975097509750975097509750975050919395979092949650565b6000816000811161181157600080fd5b60006009848154811061182057fe5b90600052602060002090600c0201600801541415915050919050565b6000806009838154811061184c57fe5b90600052602060002090600c020190508060040160049054906101000a900463ffffffff16915050919050565b600080600b60003373ffffffffffffffffffffffffffffffffffffffff1673ffffffffffffffffffffffffffffffffffffffff1681526020019081526020016000205414905090565b600a6020528060005260406000206000915054906101000a900473ffffffffffffffffffffffffffffffffffffffff1681565b6000600e60003373ffffffffffffffffffffffffffffffffffffffff1673ffffffffffffffffffffffffffffffffffffffff1681526020019081526020016000205490506000600e60003373ffffffffffffffffffffffffffffffffffffffff1673ffffffffffffffffffffffffffffffffffffffff168152602001908152602001600020819055503373ffffffffffffffffffffffffffffffffffffffff166108fc829081150290604051600060405180830381858888f193505050501580156119c4573d6000803e3d6000fd5b5050565b6000600980549050905090565b60008083116119e357600080fd5b600082116119f057600080fd5b6000600984815481106119ff57fe5b90600052602060002090600c02019050600060098481548110611a1e57fe5b90600052602060002090600c02019050611a3a82868387612d84565b8015611a4c5750611a4b8585612e51565b5b8015611a5d5750611a5c8561261c565b5b8015611a6e5750611a6d8461261c565b5b9250505092915050565b606080600b60008473ffffffffffffffffffffffffffffffffffffffff1673ffffffffffffffffffffffffffffffffffffffff16815260200190815260200160002054604051908082528060200260200182016040528015611ae95781602001602082028038833980820191505090505b509050600080905060008090505b600980549050811015611ba8578473ffffffffffffffffffffffffffffffffffffffff16600a600083815260200190815260200160002060009054906101000a900473ffffffffffffffffffffffffffffffffffffffff1673ffffffffffffffffffffffffffffffffffffffff161415611b9b5780838381518110611b7857fe5b602002602001018181525050611b98600183612f3390919063ffffffff16565b91505b8080600101915050611af7565b508192505050919050565b6000600b60003373ffffffffffffffffffffffffffffffffffffffff1673ffffffffffffffffffffffffffffffffffffffff16815260200190815260200160002054905090565b600c5481565b60008060008060008060098781548110611c1657fe5b90600052602060002090600c020190508060040160089054906101000a900463ffffffff1681600401600c9054906101000a900460ff16826006015483600701548460080154955095509550955095505091939590929450565b600c54341015611c7f57600080fd5b611c8982826119d5565b611c9257600080fd5b611c9c8282612f4f565b5050565b611ca8612273565b611cb157600080fd5b600073ffffffffffffffffffffffffffffffffffffffff166000809054906101000a900473ffffffffffffffffffffffffffffffffffffffff1673ffffffffffffffffffffffffffffffffffffffff167f8be0079c531659141344cd1fd0a4f28419497f9722a3daafe3b4186f6b6457e060405160405180910390a360008060006101000a81548173ffffffffffffffffffffffffffffffffffffffff021916908373ffffffffffffffffffffffffffffffffffffffff160217905550565b606060036001830381548110611d8257fe5b90600052602060002090600702016000018054600181600116156101000203166002900480601f016020809104026020016040519081016040528092919081815260200182805460018160011615610100020316600290048015611e275780601f10611dfc57610100808354040283529160200191611e27565b820191906000526020600020905b815481529060010190602001808311611e0a57829003601f168201915b50505050509050919050565b606080606060008060036001870381548110611e4b57fe5b906000526020600020906007020190508060000181600201826003018360050160009054906101000a900460ff16838054600181600116156101000203166002900480601f016020809104026020016040519081016040528092919081815260200182805460018160011615610100020316600290048015611f0e5780601f10611ee357610100808354040283529160200191611f0e565b820191906000526020600020905b815481529060010190602001808311611ef157829003601f168201915b50505050509350828054600181600116156101000203166002900480601f016020809104026020016040519081016040528092919081815260200182805460018160011615610100020316600290048015611faa5780601f10611f7f57610100808354040283529160200191611faa565b820191906000526020600020905b815481529060010190602001808311611f8d57829003601f168201915b50505050509250818054600181600116156101000203166002900480601f0160208091040260200160405190810160405280929190818152602001828054600181600116156101000203166002900480156120465780601f1061201b57610100808354040283529160200191612046565b820191906000526020600020905b81548152906001019060200180831161202957829003601f168201915b505050505091509450945094509450509193509193565b606080600b60003373ffffffffffffffffffffffffffffffffffffffff1673ffffffffffffffffffffffffffffffffffffffff168152602001908152602001600020546040519080825280602002602001820160405280156120ce5781602001602082028038833980820191505090505b509050600080905060008090505b60098054905081101561218d573373ffffffffffffffffffffffffffffffffffffffff16600a600083815260200190815260200160002060009054906101000a900473ffffffffffffffffffffffffffffffffffffffff1673ffffffffffffffffffffffffffffffffffffffff161415612180578083838151811061215d57fe5b60200260200101818152505061217d600183612f3390919063ffffffff16565b91505b80806001019150506120dc565b50819250505090565b600081600081116121a657600080fd5b6121af83611801565b6121b857600080fd5b6000600984815481106121c757fe5b90600052602060002090600c020190506121e081612ff8565b6121e957600080fd5b60008160080154905060006122346040518060400160405280600681526020017f6e6f4e616d650000000000000000000000000000000000000000000000000000815250838861301f565b9050826008016000905580945050505050919050565b60008060009054906101000a900473ffffffffffffffffffffffffffffffffffffffff16905090565b60008060009054906101000a900473ffffffffffffffffffffffffffffffffffffffff1673ffffffffffffffffffffffffffffffffffffffff163373ffffffffffffffffffffffffffffffffffffffff1614905090565b6122d2612273565b6122db57600080fd5b80600c8190555050565b600080600983815481106122f557fe5b90600052602060002090600c0201905061230e81612ff8565b915050919050565b600081600a600082815260200190815260200160002060009054906101000a900473ffffffffffffffffffffffffffffffffffffffff1673ffffffffffffffffffffffffffffffffffffffff163373ffffffffffffffffffffffffffffffffffffffff161461238457600080fd5b61238d83611801565b61239657600080fd5b6000600984815481106123a557fe5b90600052602060002090600c020190506123be81612ff8565b156123cd5760009250506123e8565b438160040160089054906101000a900463ffffffff16039250505b50919050565b600080600b60003373ffffffffffffffffffffffffffffffffffffffff1673ffffffffffffffffffffffffffffffffffffffff168152602001908152602001600020541461243b57600080fd5b600082148061244a5750600382145b806124555750600682145b61245e57600080fd5b60006124698461308a565b9050612479848260008087613123565b91505092915050565b6000600e60003373ffffffffffffffffffffffffffffffffffffffff1673ffffffffffffffffffffffffffffffffffffffff16815260200190815260200160002054905090565b60028381600982815481106124da57fe5b90600052602060002090600c020160040160009054906101000a900463ffffffff1663ffffffff16101561250d57600080fd5b83836009878154811061251c57fe5b90600052602060002090600c0201600101919061253a929190613f1d565b505050505050565b60008060008060008060006009888154811061255a57fe5b90600052602060002090600c0201600b0190508060000160009054906101000a900463ffffffff168160000160049054906101000a900463ffffffff168260000160089054906101000a900463ffffffff1683600001600c9054906101000a900463ffffffff168460000160109054906101000a900463ffffffff168560000160149054906101000a900463ffffffff169650965096509650965096505091939550919395565b612609612273565b61261257600080fd5b80600d8190555050565b6000816000811161262c57600080fd5b60006009848154811061263b57fe5b90600052602060002090600c0201905061265481613bba565b92505050919050565b600067d02ab486cedc000034146126dc576040517f08c379a000000000000000000000000000000000000000000000000000000000815260040180806020018281038252601a8152602001807f612072617265207061636b20636f73747320313520657468657200000000000081525060200191505060405180910390fd5b67d02ab486cedc0000600e60006126f161224a565b73ffffffffffffffffffffffffffffffffffffffff1673ffffffffffffffffffffffffffffffffffffffff16815260200190815260200160002060008282540192505081905550612740613bdb565b905090565b60006714d1120d7b16000034146127c4576040517f08c379a000000000000000000000000000000000000000000000000000000000815260040180806020018281038252601e8152602001807f612073746172746572207061636b20636f73747320312e35206574686572000081525060200191505060405180910390fd5b6714d1120d7b160000600e60006127d961224a565b73ffffffffffffffffffffffffffffffffffffffff1673ffffffffffffffffffffffffffffffffffffffff16815260200190815260200160002060008282540192505081905550612828613c9f565b905090565b606060008060008085600a600082815260200190815260200160002060009054906101000a900473ffffffffffffffffffffffffffffffffffffffff1673ffffffffffffffffffffffffffffffffffffffff163373ffffffffffffffffffffffffffffffffffffffff16146128a157600080fd5b6128aa87612cf3565b6128b357600080fd5b6000600988815481106128c257fe5b90600052602060002090600c02019050612903600c82600b0160000160009054906101000a900463ffffffff1663ffffffff16612d5c90919063ffffffff16565b81600b0160000160006101000a81548163ffffffff021916908363ffffffff160217905550612959600682600b0160000160049054906101000a900463ffffffff1663ffffffff16612d5c90919063ffffffff16565b81600b0160000160046101000a81548163ffffffff021916908363ffffffff1602179055506129af600682600b0160000160089054906101000a900463ffffffff1663ffffffff16612d5c90919063ffffffff16565b81600b0160000160086101000a81548163ffffffff021916908363ffffffff160217905550612a05600682600b01600001600c9054906101000a900463ffffffff1663ffffffff16612d5c90919063ffffffff16565b81600b01600001600c6101000a81548163ffffffff021916908363ffffffff160217905550612a5b600682600b0160000160109054906101000a900463ffffffff1663ffffffff16612d5c90919063ffffffff16565b81600b0160000160106101000a81548163ffffffff021916908363ffffffff160217905550612ab1600682600b0160000160149054906101000a900463ffffffff1663ffffffff16612d5c90919063ffffffff16565b81600b0160000160146101000a81548163ffffffff021916908363ffffffff16021790555060006001600083600901548152602001908152602001600020549050600060036001830381548110612b0457fe5b9060005260206000209060070201905081816001015414612b2457600080fd5b80600001836001019080546001816001161561010002031660029004612b4b929190613f9d565b5081836009018190555080600201836002019080546001816001161561010002031660029004612b7c929190613f9d565b5080600301836003019080546001816001161561010002031660029004612ba4929190613f9d565b508060050160009054906101000a900460ff1683600a0160006101000a81548160ff02191690831515021790555082600101836009015484600b0160000160009054906101000a900463ffffffff1685600b0160000160049054906101000a900463ffffffff1686600b0160000160089054906101000a900463ffffffff16848054600181600116156101000203166002900480601f016020809104026020016040519081016040528092919081815260200182805460018160011615610100020316600290048015612cb85780601f10612c8d57610100808354040283529160200191612cb8565b820191906000526020600020905b815481529060010190602001808311612c9b57829003601f168201915b50505050509450985098509850985098505050505091939590929450565b612cde612273565b612ce757600080fd5b612cf081613d60565b50565b60008060098381548110612d0357fe5b90600052602060002090600c020190506000816009015490506000600160008381526020019081526020016000205414158015612d53575080600160008381526020019081526020016000205414155b92505050919050565b60008082840190508363ffffffff168163ffffffff161015612d7a57fe5b8091505092915050565b600081841415612d975760009050612e49565b84600401600c9054906101000a900460ff1680612dc3575082600401600c9054906101000a900460ff16155b15612dd15760009050612e49565b8185600601541480612de65750838360070154145b15612df45760009050612e49565b600085600701541480612e0b575060008360070154145b15612e195760019050612e49565b826006015485600601541480612e36575082600701548560070154145b15612e445760009050612e49565b600190505b949350505050565b6000600a600084815260200190815260200160002060009054906101000a900473ffffffffffffffffffffffffffffffffffffffff1673ffffffffffffffffffffffffffffffffffffffff163373ffffffffffffffffffffffffffffffffffffffff1614612ebe57600080fd5b600a600083815260200190815260200160002060009054906101000a900473ffffffffffffffffffffffffffffffffffffffff1673ffffffffffffffffffffffffffffffffffffffff163373ffffffffffffffffffffffffffffffffffffffff1614612f2957600080fd5b6001905092915050565b600080828401905083811015612f4557fe5b8091505092915050565b600060098381548110612f5e57fe5b90600052602060002090600c02019050818160080181905550612f8081613e58565b7f6b4808987a5cecdf67d54ca5dc20664fafca80ef7195097800c12549245ab20d338484604051808473ffffffffffffffffffffffffffffffffffffffff1673ffffffffffffffffffffffffffffffffffffffff168152602001838152602001828152602001935050505060405180910390a1505050565b6000438260040160089054906101000a900463ffffffff1663ffffffff1611159050919050565b6000806009838154811061302f57fe5b90600052602060002090600c02019050600081600901549050600060016002600084815260200190815260200160002054039050600061306e8861308a565b905061307d8882898986613123565b9450505050509392505050565b600080826040516020018082805190602001908083835b602083106130c457805182526020820191506020810190506020830392506130a1565b6001836020036101000a03801982511681845116808217855250505050505090500191505060405160208183030381529060405280519060200120600190049050600044430190506005548183018161311957fe5b0692505050919050565b6000606060066040519080825280602002602001820160405280156131575781602001602082028038833980820191505090505b5090506000869050600080600090505b60068110156131c057600a838161317a57fe5b0691508184828151811061318a57fe5b602002602001019063ffffffff16908163ffffffff1681525050600a828403816131b057fe5b0492508080600101915050613167565b506131c9614024565b600386815481106131d657fe5b90600052602060002090600702016040518060e0016040529081600082018054600181600116156101000203166002900480601f0160208091040260200160405190810160405280929190818152602001828054600181600116156101000203166002900480156132885780601f1061325d57610100808354040283529160200191613288565b820191906000526020600020905b81548152906001019060200180831161326b57829003601f168201915b5050505050815260200160018201548152602001600282018054600181600116156101000203166002900480601f0160208091040260200160405190810160405280929190818152602001828054600181600116156101000203166002900480156133345780601f1061330957610100808354040283529160200191613334565b820191906000526020600020905b81548152906001019060200180831161331757829003601f168201915b50505050508152602001600382018054600181600116156101000203166002900480601f0160208091040260200160405190810160405280929190818152602001828054600181600116156101000203166002900480156133d65780601f106133ab576101008083540402835291602001916133d6565b820191906000526020600020905b8154815290600101906020018083116133b957829003601f168201915b50505050508152602001600482015481526020016005820160009054906101000a900460ff16151515158152602001600682016040518060c00160405290816000820160009054906101000a900463ffffffff1663ffffffff1663ffffffff1681526020016000820160049054906101000a900463ffffffff1663ffffffff1663ffffffff1681526020016000820160089054906101000a900463ffffffff1663ffffffff1663ffffffff16815260200160008201600c9054906101000a900463ffffffff1663ffffffff1663ffffffff1681526020016000820160109054906101000a900463ffffffff1663ffffffff1663ffffffff1681526020016000820160149054906101000a900463ffffffff1663ffffffff1663ffffffff16815250508152505090506135338460008151811061350e57fe5b60200260200101518260c001516000015163ffffffff16612d5c90919063ffffffff16565b8160c001516000019063ffffffff16908163ffffffff16815250506135838460018151811061355e57fe5b60200260200101518260c001516020015163ffffffff16612d5c90919063ffffffff16565b8160c001516020019063ffffffff16908163ffffffff16815250506135d3846002815181106135ae57fe5b60200260200101518260c001516040015163ffffffff16612d5c90919063ffffffff16565b8160c001516040019063ffffffff16908163ffffffff1681525050613623846003815181106135fe57fe5b60200260200101518260c001516060015163ffffffff16612d5c90919063ffffffff16565b8160c001516060019063ffffffff16908163ffffffff16815250506136738460048151811061364e57fe5b60200260200101518260c001516080015163ffffffff16612d5c90919063ffffffff16565b8160c001516080019063ffffffff16908163ffffffff16815250506136c38460058151811061369e57fe5b60200260200101518260c0015160a0015163ffffffff16612d5c90919063ffffffff16565b8160c0015160a0019063ffffffff16908163ffffffff16815250506136e6614069565b604051806101e001604052808c8152602001836000015181526020018360400151815260200183606001518152602001600163ffffffff168152602001600063ffffffff168152602001600063ffffffff1681526020016137468d613e82565b151581526020018b81526020018a815260200189815260200160008152602001836020015181526020018360a00151151581526020018360c001518152509050600060016009839080600181540180825580915050906001820390600052602060002090600c02016000909192909190915060008201518160000190805190602001906137d49291906140fb565b5060208201518160010190805190602001906137f19291906140fb565b50604082015181600201908051906020019061380e9291906140fb565b50606082015181600301908051906020019061382b9291906140fb565b5060808201518160040160006101000a81548163ffffffff021916908363ffffffff16021790555060a08201518160040160046101000a81548163ffffffff021916908363ffffffff16021790555060c08201518160040160086101000a81548163ffffffff021916908363ffffffff16021790555060e082015181600401600c6101000a81548160ff021916908315150217905550610100820151816005015561012082015181600601556101408201518160070155610160820151816008015561018082015181600901556101a082015181600a0160006101000a81548160ff0219169083151502179055506101c082015181600b0160008201518160000160006101000a81548163ffffffff021916908363ffffffff16021790555060208201518160000160046101000a81548163ffffffff021916908363ffffffff16021790555060408201518160000160086101000a81548163ffffffff021916908363ffffffff160217905550606082015181600001600c6101000a81548163ffffffff021916908363ffffffff16021790555060808201518160000160106101000a81548163ffffffff021916908363ffffffff16021790555060a08201518160000160146101000a81548163ffffffff021916908363ffffffff1602179055505050505003905033600a600083815260200190815260200160002060006101000a81548173ffffffffffffffffffffffffffffffffffffffff021916908373ffffffffffffffffffffffffffffffffffffffff160217905550613ab96001600b60003373ffffffffffffffffffffffffffffffffffffffff1673ffffffffffffffffffffffffffffffffffffffff16815260200190815260200160002054612f3390919063ffffffff16565b600b60003373ffffffffffffffffffffffffffffffffffffffff1673ffffffffffffffffffffffffffffffffffffffff168152602001908152602001600020819055507fb2ddd0094c7d8b02387161898cbaa1bbcb4cee4731fdeceb76548071724adcd2818d8d6040518084815260200180602001838152602001828103825284818151815260200191508051906020019080838360005b83811015613b6c578082015181840152602081019050613b51565b50505050905090810190601f168015613b995780820380516001836020036101000a031916815260200191505b5094505050505060405180910390a180965050505050505095945050505050565b6000808260080154148015613bd45750613bd382612ff8565b5b9050919050565b600080600a44430181613bea57fe5b066001600380549050030390506000600160026000848152602001908152602001600020540390506000613c526040518060400160405280600681526020017f4e6f4e616d65000000000000000000000000000000000000000000000000000081525061308a565b9050613c976040518060400160405280600681526020017f4e6f4e616d6500000000000000000000000000000000000000000000000000008152508260008086613123565b935050505090565b600080600a6003805490500344430181613cb557fe5b0690506000600160026000848152602001908152602001600020540390506000613d136040518060400160405280600681526020017f4e6f4e616d65000000000000000000000000000000000000000000000000000081525061308a565b9050613d586040518060400160405280600681526020017f4e6f4e616d6500000000000000000000000000000000000000000000000000008152508260008086613123565b935050505090565b600073ffffffffffffffffffffffffffffffffffffffff168173ffffffffffffffffffffffffffffffffffffffff161415613d9a57600080fd5b8073ffffffffffffffffffffffffffffffffffffffff166000809054906101000a900473ffffffffffffffffffffffffffffffffffffffff1673ffffffffffffffffffffffffffffffffffffffff167f8be0079c531659141344cd1fd0a4f28419497f9722a3daafe3b4186f6b6457e060405160405180910390a3806000806101000a81548173ffffffffffffffffffffffffffffffffffffffff021916908373ffffffffffffffffffffffffffffffffffffffff16021790555050565b60075443018160040160086101000a81548163ffffffff021916908363ffffffff16021790555050565b600080826040516020018082805190602001908083835b60208310613ebc5780518252602082019150602081019050602083039250613e99565b6001836020036101000a03801982511681845116808217855250505050505090500191505060405160208183030381529060405280519060200120600190049050600044430190506000600282840181613f1257fe5b061492505050919050565b828054600181600116156101000203166002900490600052602060002090601f016020900481019282601f10613f5e57803560ff1916838001178555613f8c565b82800160010185558215613f8c579182015b82811115613f8b578235825591602001919060010190613f70565b5b509050613f99919061417b565b5090565b828054600181600116156101000203166002900490600052602060002090601f016020900481019282601f10613fd65780548555614013565b8280016001018555821561401357600052602060002091601f016020900482015b82811115614012578254825591600101919060010190613ff7565b5b509050614020919061417b565b5090565b6040518060e0016040528060608152602001600081526020016060815260200160608152602001600081526020016000151581526020016140636141a0565b81525090565b604051806101e0016040528060608152602001606081526020016060815260200160608152602001600063ffffffff168152602001600063ffffffff168152602001600063ffffffff16815260200160001515815260200160008152602001600081526020016000815260200160008152602001600081526020016000151581526020016140f56141a0565b81525090565b828054600181600116156101000203166002900490600052602060002090601f016020900481019282601f1061413c57805160ff191683800117855561416a565b8280016001018555821561416a579182015b8281111561416957825182559160200191906001019061414e565b5b509050614177919061417b565b5090565b61419d91905b80821115614199576000816000905550600101614181565b5090565b90565b6040518060c00160405280600063ffffffff168152602001600063ffffffff168152602001600063ffffffff168152602001600063ffffffff168152602001600063ffffffff168152602001600063ffffffff168152509056fea265627a7a72315820ab88a07975ee4c5f3e0cf90ff8889e86e6cb6dffd6c4051a86900a837af7350964736f6c63430005100032",
  "source": "pragma solidity >=0.5.0 <0.6.0;\n\nimport \"./PokemonCardBreeding.sol\";\n\ncontract PokemonCardHelper is PokemonCardBreeding {\n\tuint levelUpFee = 0.001 ether;\n\tmapping (address => uint) pendingWithdrawals;\n\n\tevent PokemonLevelUp(uint _pokemonId, uint newLevel);\n\tevent PokemonEvolve(uint _pokemonId);\n\n\tmodifier aboveLevel(uint _level, uint _pokemonId) {\n\t\trequire(pokemons[_pokemonId].level >= _level);\n\t\t_;\n\t}\n\n\tfunction setLevelUpFee(uint _fee) external onlyOwner {\n\t\tlevelUpFee = _fee;\n\t}\n\n\tfunction levelUp(uint _pokemonId) external payable ownerOfPokemon(_pokemonId) {\n\t\trequire(msg.value == levelUpFee);\n\t\tpendingWithdrawals[address(this)] += msg.value;\n\t\tPokemon storage pokemon = pokemons[_pokemonId];\n\t\tpokemon.level = pokemons[_pokemonId].level.add(1);\n\n\t\tpokemon.baseStats.hp = pokemon.baseStats.hp.add(5);\n\t\tpokemon.baseStats.attack = pokemon.baseStats.attack.add(2);\n\t\tpokemon.baseStats.defense = pokemon.baseStats.defense.add(2);\n\t\tpokemon.baseStats.specialAttack = pokemon.baseStats.specialAttack.add(1);\n\t\tpokemon.baseStats.specialDefense = pokemon.baseStats.specialDefense.add(1);\n\t\tpokemon.baseStats.speed = pokemon.baseStats.speed.add(2);\n\n\t\temit PokemonLevelUp(_pokemonId, pokemon.level);\n\t}\n\n\tfunction changeName(uint _pokemonId, string calldata _newName) external aboveLevel(2, _pokemonId) {\n\t\tpokemons[_pokemonId].name = _newName;\n\t}\n\n\tfunction evolve(uint _pokemonId) external ownerOfPokemon(_pokemonId) returns(string memory, uint, uint32, uint32, uint32) {\n\t\trequire(isEvovalble(_pokemonId));\n\t\tPokemon storage pokemon = pokemons[_pokemonId];\n\n\t\tpokemon.baseStats.hp = pokemon.baseStats.hp.add(12);\n\t\tpokemon.baseStats.attack = pokemon.baseStats.attack.add(6);\n\t\tpokemon.baseStats.defense = pokemon.baseStats.defense.add(6);\n\t\tpokemon.baseStats.specialAttack = pokemon.baseStats.specialAttack.add(6);\n\t\tpokemon.baseStats.specialDefense = pokemon.baseStats.specialDefense.add(6);\n\t\tpokemon.baseStats.speed = pokemon.baseStats.speed.add(6);\n\n\t\tuint newPokemonNumber = evolution[pokemon.pokemonNumber];\n\t\tBasePokemon storage basePokemon = basePokemons[newPokemonNumber-1];\n\n\t\trequire(basePokemon.number == newPokemonNumber);\n\t\tpokemon.name = basePokemon.name;\n\t\tpokemon.pokemonNumber = newPokemonNumber;\n\t\tpokemon.type1 = basePokemon.type1;\n\t\tpokemon.type2 = basePokemon.type2;\n\t\tpokemon.legendary = basePokemon.legendary;\n\t\treturn (pokemon.name, pokemon.pokemonNumber, pokemon.baseStats.hp, pokemon.baseStats.attack, pokemon.baseStats.defense);\n\n\t}\n\n\tfunction getPokemonCardsByOwner(address _owner) external view returns (uint[] memory) {\n\t\tuint[] memory result = new uint[](ownerPokemonCount[_owner]);\n\t\tuint counter = 0;\n\t\tfor (uint i = 0; i < pokemons.length; i++) {\n\t\t\tif (pokemonToOwner[i] == _owner) {\n\t\t\t\tresult[counter] = i;\n\t\t\t\tcounter = counter.add(1);\n\t\t\t}\n\t\t}\n\t\treturn result;\n\t}\n\n\tfunction isEvovalble(uint _pokemonId) public view returns(bool) {\n\t\tPokemon storage pokemon = pokemons[_pokemonId];\n\t\tuint pokemonNumber = pokemon.pokemonNumber;\n\t\treturn evolution[pokemonNumber] != 0 && evolution[pokemonNumber] != pokemonNumber;\n\t}\n\n\tfunction buyStarterPack() external payable returns(uint) {\n\t\trequire(msg.value == 1.5 ether, \"a starter pack costs 1.5 ether\");\n\t\tpendingWithdrawals[owner()] += 1.5 ether;\n\t\treturn createRandomPokemon();\n\t}\n\n\tfunction buyRarePack() external payable returns(uint) {\n\t\trequire(msg.value == 15 ether, \"a rare pack costs 15 ether\");\n\t\tpendingWithdrawals[owner()] += 15 ether;\n\t\treturn createRarerRandomPokemon();\n\t}\n\n    /**\n\tTransfer the accumulated ETH by player. The balance is reset to 0 after withdraw.\n    **/\n    function withdraw() public {\n        uint256 amount = pendingWithdrawals[msg.sender];\n        pendingWithdrawals[msg.sender] = 0;\n        msg.sender.transfer(amount);\n    }\n\n    /**\n    Return the amount the user can withdrawl.\n    **/\n    function getPendingWithdrawals() public view returns(uint) {\n    \treturn pendingWithdrawals[msg.sender];\n    }\n}",
  "sourcePath": "/Users/ztq/Dropbox/Computer Science/CO467/crypto-pokemons/contracts/PokemonCardHelper.sol",
  "compiler": {
    "name": "solc",
    "version": "0.5.16+commit.9c3226ce.Emscripten.clang"
  },
  "schemaVersion": "3.0.23",
  "updatedAt": "2020-02-13T15:02:22.350Z",
  "devdoc": {
    "methods": {
      "isOwner()": {
        "return": "true if `msg.sender` is the owner of the contract."
      },
      "owner()": {
        "return": "the address of the owner."
      },
      "renounceOwnership()": {
        "details": "Allows the current owner to relinquish control of the contract."
      },
      "transferOwnership(address)": {
        "details": "Allows the current owner to transfer control of the contract to a newOwner.",
        "params": {
          "newOwner": "The address to transfer ownership to."
        }
      }
    }
  },
  "userdoc": {
    "methods": {
      "getPendingWithdrawals()": {
        "notice": "Return the amount the user can withdrawl.*"
      },
      "renounceOwnership()": {
        "notice": "Renouncing to ownership will leave the contract without an owner. It will not be possible to call the functions with the `onlyOwner` modifier anymore."
      },
      "withdraw()": {
        "notice": "Transfer the accumulated ETH by player. The balance is reset to 0 after withdraw.*"
      }
    }
  }
}