{
  "contractName": "PokemonCardAttack",
  "abi": [
    {
      "anonymous": false,
      "inputs": [
        {
          "indexed": false,
          "internalType": "uint256",
          "name": "pokemonId",
          "type": "uint256"
        },
        {
          "indexed": false,
          "internalType": "string",
          "name": "name",
          "type": "string"
        },
        {
          "indexed": false,
          "internalType": "uint256",
          "name": "dna",
          "type": "uint256"
        }
      ],
      "name": "NewPokemon",
      "type": "event"
    },
    {
      "anonymous": false,
      "inputs": [
        {
          "indexed": true,
          "internalType": "address",
          "name": "previousOwner",
          "type": "address"
        },
        {
          "indexed": true,
          "internalType": "address",
          "name": "newOwner",
          "type": "address"
        }
      ],
      "name": "OwnershipTransferred",
      "type": "event"
    },
    {
      "anonymous": false,
      "inputs": [
        {
          "indexed": false,
          "internalType": "uint256",
          "name": "pokemonId1",
          "type": "uint256"
        },
        {
          "indexed": false,
          "internalType": "uint256",
          "name": "pokemonId2",
          "type": "uint256"
        },
        {
          "indexed": false,
          "internalType": "uint256[]",
          "name": "turns",
          "type": "uint256[]"
        },
        {
          "indexed": false,
          "internalType": "uint8[]",
          "name": "whosTurn",
          "type": "uint8[]"
        }
      ],
      "name": "PokemonBattle",
      "type": "event"
    },
    {
      "anonymous": false,
      "inputs": [
        {
          "indexed": false,
          "internalType": "uint256",
          "name": "_pokemonId",
          "type": "uint256"
        }
      ],
      "name": "PokemonEvolve",
      "type": "event"
    },
    {
      "anonymous": false,
      "inputs": [
        {
          "indexed": false,
          "internalType": "uint256",
          "name": "_pokemonId",
          "type": "uint256"
        },
        {
          "indexed": false,
          "internalType": "uint256",
          "name": "newLevel",
          "type": "uint256"
        }
      ],
      "name": "PokemonLevelUp",
      "type": "event"
    },
    {
      "anonymous": false,
      "inputs": [
        {
          "indexed": false,
          "internalType": "address",
          "name": "owner",
          "type": "address"
        },
        {
          "indexed": false,
          "internalType": "uint256",
          "name": "motherId",
          "type": "uint256"
        },
        {
          "indexed": false,
          "internalType": "uint256",
          "name": "fatherId",
          "type": "uint256"
        }
      ],
      "name": "Pregnant",
      "type": "event"
    },
    {
      "anonymous": false,
      "inputs": [
        {
          "indexed": false,
          "internalType": "uint256",
          "name": "pokemonId",
          "type": "uint256"
        },
        {
          "indexed": false,
          "internalType": "address",
          "name": "sharee",
          "type": "address"
        }
      ],
      "name": "SharedPokemon",
      "type": "event"
    },
    {
      "anonymous": false,
      "inputs": [
        {
          "indexed": false,
          "internalType": "uint256",
          "name": "pokemonId",
          "type": "uint256"
        },
        {
          "indexed": false,
          "internalType": "address",
          "name": "sharee",
          "type": "address"
        }
      ],
      "name": "UnsharedPokemon",
      "type": "event"
    },
    {
      "constant": true,
      "inputs": [],
      "name": "birthFee",
      "outputs": [
        {
          "internalType": "uint256",
          "name": "",
          "type": "uint256"
        }
      ],
      "payable": false,
      "stateMutability": "view",
      "type": "function"
    },
    {
      "constant": false,
      "inputs": [
        {
          "internalType": "uint256",
          "name": "_motherId",
          "type": "uint256"
        },
        {
          "internalType": "uint256",
          "name": "_fatherId",
          "type": "uint256"
        }
      ],
      "name": "breedWith",
      "outputs": [],
      "payable": true,
      "stateMutability": "payable",
      "type": "function"
    },
    {
      "constant": false,
      "inputs": [],
      "name": "buyRarePack",
      "outputs": [
        {
          "internalType": "uint256",
          "name": "",
          "type": "uint256"
        }
      ],
      "payable": true,
      "stateMutability": "payable",
      "type": "function"
    },
    {
      "constant": false,
      "inputs": [],
      "name": "buyStarterPack",
      "outputs": [
        {
          "internalType": "uint256",
          "name": "",
          "type": "uint256"
        }
      ],
      "payable": true,
      "stateMutability": "payable",
      "type": "function"
    },
    {
      "constant": true,
      "inputs": [
        {
          "internalType": "uint256",
          "name": "_motherId",
          "type": "uint256"
        },
        {
          "internalType": "uint256",
          "name": "_fatherId",
          "type": "uint256"
        }
      ],
      "name": "canBreedWith",
      "outputs": [
        {
          "internalType": "bool",
          "name": "",
          "type": "bool"
        }
      ],
      "payable": false,
      "stateMutability": "view",
      "type": "function"
    },
    {
      "constant": false,
      "inputs": [
        {
          "internalType": "uint256",
          "name": "_pokemonId",
          "type": "uint256"
        },
        {
          "internalType": "string",
          "name": "_newName",
          "type": "string"
        }
      ],
      "name": "changeName",
      "outputs": [],
      "payable": false,
      "stateMutability": "nonpayable",
      "type": "function"
    },
    {
      "constant": false,
      "inputs": [
        {
          "internalType": "string",
          "name": "_nickname",
          "type": "string"
        },
        {
          "internalType": "uint256",
          "name": "_pokemonNumber",
          "type": "uint256"
        }
      ],
      "name": "createStarterPokemon",
      "outputs": [
        {
          "internalType": "uint256",
          "name": "",
          "type": "uint256"
        }
      ],
      "payable": false,
      "stateMutability": "nonpayable",
      "type": "function"
    },
    {
      "constant": true,
      "inputs": [],
      "name": "getAllPokemonCards",
      "outputs": [
        {
          "internalType": "uint256[]",
          "name": "",
          "type": "uint256[]"
        }
      ],
      "payable": false,
      "stateMutability": "view",
      "type": "function"
    },
    {
      "constant": true,
      "inputs": [
        {
          "internalType": "uint256",
          "name": "pokemonNumber",
          "type": "uint256"
        }
      ],
      "name": "getBasicPokemonInfo",
      "outputs": [
        {
          "internalType": "string",
          "name": "",
          "type": "string"
        },
        {
          "internalType": "string",
          "name": "",
          "type": "string"
        },
        {
          "internalType": "string",
          "name": "",
          "type": "string"
        },
        {
          "internalType": "bool",
          "name": "",
          "type": "bool"
        }
      ],
      "payable": false,
      "stateMutability": "view",
      "type": "function"
    },
    {
      "constant": true,
      "inputs": [
        {
          "internalType": "uint256",
          "name": "_pokemonId",
          "type": "uint256"
        }
      ],
      "name": "getBreedingTimeRemaining",
      "outputs": [
        {
          "internalType": "uint32",
          "name": "",
          "type": "uint32"
        }
      ],
      "payable": false,
      "stateMutability": "view",
      "type": "function"
    },
    {
      "constant": true,
      "inputs": [],
      "name": "getPendingWithdrawals",
      "outputs": [
        {
          "internalType": "uint256",
          "name": "",
          "type": "uint256"
        }
      ],
      "payable": false,
      "stateMutability": "view",
      "type": "function"
    },
    {
      "constant": true,
      "inputs": [
        {
          "internalType": "uint256",
          "name": "_pokemonId",
          "type": "uint256"
        }
      ],
      "name": "getPokemonBattleDetails",
      "outputs": [
        {
          "internalType": "uint32",
          "name": "",
          "type": "uint32"
        }
      ],
      "payable": false,
      "stateMutability": "view",
      "type": "function"
    },
    {
      "constant": true,
      "inputs": [
        {
          "internalType": "uint256",
          "name": "_pokemonId",
          "type": "uint256"
        }
      ],
      "name": "getPokemonBreedingDetails",
      "outputs": [
        {
          "internalType": "uint32",
          "name": "",
          "type": "uint32"
        },
        {
          "internalType": "bool",
          "name": "",
          "type": "bool"
        },
        {
          "internalType": "uint256",
          "name": "",
          "type": "uint256"
        },
        {
          "internalType": "uint256",
          "name": "",
          "type": "uint256"
        },
        {
          "internalType": "uint256",
          "name": "",
          "type": "uint256"
        }
      ],
      "payable": false,
      "stateMutability": "view",
      "type": "function"
    },
    {
      "constant": true,
      "inputs": [
        {
          "internalType": "address",
          "name": "_owner",
          "type": "address"
        }
      ],
      "name": "getPokemonCardsByOwner",
      "outputs": [
        {
          "internalType": "uint256[]",
          "name": "",
          "type": "uint256[]"
        }
      ],
      "payable": false,
      "stateMutability": "view",
      "type": "function"
    },
    {
      "constant": true,
      "inputs": [],
      "name": "getPokemonCardsByOwner",
      "outputs": [
        {
          "internalType": "uint256[]",
          "name": "",
          "type": "uint256[]"
        }
      ],
      "payable": false,
      "stateMutability": "view",
      "type": "function"
    },
    {
      "constant": true,
      "inputs": [
        {
          "internalType": "uint256",
          "name": "_pokemonId",
          "type": "uint256"
        }
      ],
      "name": "getPokemonInfo",
      "outputs": [
        {
          "internalType": "string",
          "name": "",
          "type": "string"
        },
        {
          "internalType": "string",
          "name": "",
          "type": "string"
        },
        {
          "internalType": "string",
          "name": "",
          "type": "string"
        },
        {
          "internalType": "string",
          "name": "",
          "type": "string"
        },
        {
          "internalType": "uint32",
          "name": "",
          "type": "uint32"
        },
        {
          "internalType": "uint256",
          "name": "",
          "type": "uint256"
        },
        {
          "internalType": "bool",
          "name": "",
          "type": "bool"
        }
      ],
      "payable": false,
      "stateMutability": "view",
      "type": "function"
    },
    {
      "constant": true,
      "inputs": [
        {
          "internalType": "uint256",
          "name": "pokemonNumber",
          "type": "uint256"
        }
      ],
      "name": "getPokemonName",
      "outputs": [
        {
          "internalType": "string",
          "name": "",
          "type": "string"
        }
      ],
      "payable": false,
      "stateMutability": "view",
      "type": "function"
    },
    {
      "constant": true,
      "inputs": [
        {
          "internalType": "uint256",
          "name": "_pokemonId",
          "type": "uint256"
        }
      ],
      "name": "getPokemonStats",
      "outputs": [
        {
          "internalType": "uint32",
          "name": "",
          "type": "uint32"
        },
        {
          "internalType": "uint32",
          "name": "",
          "type": "uint32"
        },
        {
          "internalType": "uint32",
          "name": "",
          "type": "uint32"
        },
        {
          "internalType": "uint32",
          "name": "",
          "type": "uint32"
        },
        {
          "internalType": "uint32",
          "name": "",
          "type": "uint32"
        },
        {
          "internalType": "uint32",
          "name": "",
          "type": "uint32"
        }
      ],
      "payable": false,
      "stateMutability": "view",
      "type": "function"
    },
    {
      "constant": true,
      "inputs": [],
      "name": "getSharedPokemonCardsByOwner",
      "outputs": [
        {
          "internalType": "uint256[]",
          "name": "",
          "type": "uint256[]"
        }
      ],
      "payable": false,
      "stateMutability": "view",
      "type": "function"
    },
    {
      "constant": false,
      "inputs": [
        {
          "internalType": "uint256",
          "name": "_motherId",
          "type": "uint256"
        }
      ],
      "name": "giveBirth",
      "outputs": [
        {
          "internalType": "uint256",
          "name": "",
          "type": "uint256"
        }
      ],
      "payable": false,
      "stateMutability": "nonpayable",
      "type": "function"
    },
    {
      "constant": true,
      "inputs": [
        {
          "internalType": "uint256",
          "name": "_pokemonId",
          "type": "uint256"
        }
      ],
      "name": "isEvovalble",
      "outputs": [
        {
          "internalType": "bool",
          "name": "",
          "type": "bool"
        }
      ],
      "payable": false,
      "stateMutability": "view",
      "type": "function"
    },
    {
      "constant": true,
      "inputs": [],
      "name": "isNewTrainer",
      "outputs": [
        {
          "internalType": "bool",
          "name": "",
          "type": "bool"
        }
      ],
      "payable": false,
      "stateMutability": "view",
      "type": "function"
    },
    {
      "constant": true,
      "inputs": [],
      "name": "isOwner",
      "outputs": [
        {
          "internalType": "bool",
          "name": "",
          "type": "bool"
        }
      ],
      "payable": false,
      "stateMutability": "view",
      "type": "function"
    },
    {
      "constant": true,
      "inputs": [
        {
          "internalType": "uint256",
          "name": "_pokemonId",
          "type": "uint256"
        }
      ],
      "name": "isPregnant",
      "outputs": [
        {
          "internalType": "bool",
          "name": "",
          "type": "bool"
        }
      ],
      "payable": false,
      "stateMutability": "view",
      "type": "function"
    },
    {
      "constant": true,
      "inputs": [
        {
          "internalType": "uint256",
          "name": "_pokemonId",
          "type": "uint256"
        }
      ],
      "name": "isReadyToBreed",
      "outputs": [
        {
          "internalType": "bool",
          "name": "",
          "type": "bool"
        }
      ],
      "payable": false,
      "stateMutability": "view",
      "type": "function"
    },
    {
      "constant": true,
      "inputs": [
        {
          "internalType": "uint256",
          "name": "_pokemonId",
          "type": "uint256"
        }
      ],
      "name": "isReadyToGiveBirth",
      "outputs": [
        {
          "internalType": "bool",
          "name": "",
          "type": "bool"
        }
      ],
      "payable": false,
      "stateMutability": "view",
      "type": "function"
    },
    {
      "constant": true,
      "inputs": [
        {
          "internalType": "uint256",
          "name": "_pokemonId",
          "type": "uint256"
        }
      ],
      "name": "isSharing",
      "outputs": [
        {
          "internalType": "bool",
          "name": "",
          "type": "bool"
        }
      ],
      "payable": false,
      "stateMutability": "view",
      "type": "function"
    },
    {
      "constant": false,
      "inputs": [
        {
          "internalType": "uint256",
          "name": "_pokemonId",
          "type": "uint256"
        }
      ],
      "name": "levelUp",
      "outputs": [],
      "payable": false,
      "stateMutability": "nonpayable",
      "type": "function"
    },
    {
      "constant": true,
      "inputs": [],
      "name": "owner",
      "outputs": [
        {
          "internalType": "address",
          "name": "",
          "type": "address"
        }
      ],
      "payable": false,
      "stateMutability": "view",
      "type": "function"
    },
    {
      "constant": true,
      "inputs": [
        {
          "internalType": "uint256",
          "name": "",
          "type": "uint256"
        }
      ],
      "name": "pokemonToOwner",
      "outputs": [
        {
          "internalType": "address payable",
          "name": "",
          "type": "address"
        }
      ],
      "payable": false,
      "stateMutability": "view",
      "type": "function"
    },
    {
      "constant": false,
      "inputs": [],
      "name": "renounceOwnership",
      "outputs": [],
      "payable": false,
      "stateMutability": "nonpayable",
      "type": "function"
    },
    {
      "constant": true,
      "inputs": [],
      "name": "returnNumberOfPokemons",
      "outputs": [
        {
          "internalType": "uint256",
          "name": "",
          "type": "uint256"
        }
      ],
      "payable": false,
      "stateMutability": "view",
      "type": "function"
    },
    {
      "constant": true,
      "inputs": [],
      "name": "returnTotalNumberOfPokemons",
      "outputs": [
        {
          "internalType": "uint256",
          "name": "",
          "type": "uint256"
        }
      ],
      "payable": false,
      "stateMutability": "view",
      "type": "function"
    },
    {
      "constant": false,
      "inputs": [
        {
          "internalType": "uint256",
          "name": "fee",
          "type": "uint256"
        }
      ],
      "name": "setBirthFee",
      "outputs": [],
      "payable": false,
      "stateMutability": "nonpayable",
      "type": "function"
    },
    {
      "constant": false,
      "inputs": [
        {
          "internalType": "uint256",
          "name": "_pokemonId",
          "type": "uint256"
        },
        {
          "internalType": "address payable",
          "name": "_sharee",
          "type": "address"
        }
      ],
      "name": "shareCard",
      "outputs": [],
      "payable": false,
      "stateMutability": "nonpayable",
      "type": "function"
    },
    {
      "constant": false,
      "inputs": [
        {
          "internalType": "address",
          "name": "newOwner",
          "type": "address"
        }
      ],
      "name": "transferOwnership",
      "outputs": [],
      "payable": false,
      "stateMutability": "nonpayable",
      "type": "function"
    },
    {
      "constant": false,
      "inputs": [
        {
          "internalType": "uint256",
          "name": "_pokemonId",
          "type": "uint256"
        }
      ],
      "name": "unshareCard",
      "outputs": [],
      "payable": false,
      "stateMutability": "nonpayable",
      "type": "function"
    },
    {
      "constant": false,
      "inputs": [],
      "name": "withdraw",
      "outputs": [],
      "payable": false,
      "stateMutability": "nonpayable",
      "type": "function"
    },
    {
      "constant": false,
      "inputs": [
        {
          "internalType": "uint256",
          "name": "_pokemonId",
          "type": "uint256"
        },
        {
          "internalType": "uint256",
          "name": "_enemyPokemonId",
          "type": "uint256"
        }
      ],
      "name": "attack",
      "outputs": [
        {
          "internalType": "uint256",
          "name": "",
          "type": "uint256"
        }
      ],
      "payable": false,
      "stateMutability": "nonpayable",
      "type": "function"
    }
  ],
  "bytecode": "0x608060405260006004556010600555600554600a0a600655600560075560056008556605543df729c000600e556000601155336000806101000a81548173ffffffffffffffffffffffffffffffffffffffff021916908373ffffffffffffffffffffffffffffffffffffffff1602179055506000809054906101000a900473ffffffffffffffffffffffffffffffffffffffff1673ffffffffffffffffffffffffffffffffffffffff16600073ffffffffffffffffffffffffffffffffffffffff167f8be0079c531659141344cd1fd0a4f28419497f9722a3daafe3b4186f6b6457e060405160405180910390a3630000010863000001b4640100000000026401000000009004565b6300000123630001b9bb640100000000026401000000009004565b630000013e630001c0d9640100000000026401000000009004565b63000001916040518060400160405280600781526020017f496e697469616c000000000000000000000000000000000000000000000000008152506000630001d031640100000000026401000000009004565b506001600f60006101000a81548160ff021916908315150217905550630001dfb0565b60036040518060e001604052806040518060400160405280600981526020017f42756c62617361757200000000000000000000000000000000000000000000008152508152602001600181526020016040518060400160405280600581526020017f477261737300000000000000000000000000000000000000000000000000000081525081526020016040518060400160405280600681526020017f506f69736f6e0000000000000000000000000000000000000000000000000000815250815260200161024681526020016000151581526020016040518060c00160405280602d63ffffffff168152602001603163ffffffff168152602001603163ffffffff168152602001604163ffffffff168152602001604163ffffffff168152602001602d63ffffffff16815250815250908060018154018082558091505090600182039060005260206000209060070201600090919290919091506000820151816000019080519060200190630000032f929190630001ddbe565b50602082015181600101556040820151816002019080519060200190630000035a929190630001ddbe565b506060820151816003019080519060200190630000037b929190630001ddbe565b506080820151816004015560a08201518160050160006101000a81548160ff02191690831515021790555060c08201518160060160008201518160000160006101000a81548163ffffffff021916908363ffffffff16021790555060208201518160000160046101000a81548163ffffffff021916908363ffffffff16021790555060408201518160000160086101000a81548163ffffffff021916908363ffffffff160217905550606082015181600001600c6101000a81548163ffffffff021916908363ffffffff16021790555060808201518160000160106101000a81548163ffffffff021916908363ffffffff16021790555060a08201518160000160146101000a81548163ffffffff021916908363ffffffff160217905550505050505060036040518060e001604052806040518060400160405280600781526020017f49767973617572000000000000000000000000000000000000000000000000008152508152602001600281526020016040518060400160405280600581526020017f477261737300000000000000000000000000000000000000000000000000000081525081526020016040518060400160405280600681526020017f506f69736f6e000000000000000000000000000000000000000000000000000081525081526020016101ef81526020016000151581526020016040518060c00160405280603c63ffffffff168152602001603e63ffffffff168152602001603f63ffffffff168152602001605063ffffffff168152602001605063ffffffff168152602001603c63ffffffff168152508152509080600181540180825580915050906001820390600052602060002090600702016000909192909190915060008201518160000190805190602001906300000619929190630001ddbe565b506020820151816001015560408201518160020190805190602001906300000644929190630001ddbe565b5060608201518160030190805190602001906300000665929190630001ddbe565b506080820151816004015560a08201518160050160006101000a81548160ff02191690831515021790555060c08201518160060160008201518160000160006101000a81548163ffffffff021916908363ffffffff16021790555060208201518160000160046101000a81548163ffffffff021916908363ffffffff16021790555060408201518160000160086101000a81548163ffffffff021916908363ffffffff160217905550606082015181600001600c6101000a81548163ffffffff021916908363ffffffff16021790555060808201518160000160106101000a81548163ffffffff021916908363ffffffff16021790555060a08201518160000160146101000a81548163ffffffff021916908363ffffffff160217905550505050505060036040518060e001604052806040518060400160405280600881526020017f56656e75736175720000000000000000000000000000000000000000000000008152508152602001600381526020016040518060400160405280600581526020017f477261737300000000000000000000000000000000000000000000000000000081525081526020016040518060400160405280600681526020017f506f69736f6e0000000000000000000000000000000000000000000000000000815250815260200161017781526020016000151581526020016040518060c00160405280605063ffffffff168152602001605263ffffffff168152602001605363ffffffff168152602001606463ffffffff168152602001606463ffffffff168152602001605063ffffffff168152508152509080600181540180825580915050906001820390600052602060002090600702016000909192909190915060008201518160000190805190602001906300000903929190630001ddbe565b50602082015181600101556040820151816002019080519060200190630000092e929190630001ddbe565b506060820151816003019080519060200190630000094f929190630001ddbe565b506080820151816004015560a08201518160050160006101000a81548160ff02191690831515021790555060c08201518160060160008201518160000160006101000a81548163ffffffff021916908363ffffffff16021790555060208201518160000160046101000a81548163ffffffff021916908363ffffffff16021790555060408201518160000160086101000a81548163ffffffff021916908363ffffffff160217905550606082015181600001600c6101000a81548163ffffffff021916908363ffffffff16021790555060808201518160000160106101000a81548163ffffffff021916908363ffffffff16021790555060a08201518160000160146101000a81548163ffffffff021916908363ffffffff160217905550505050505060036040518060e001604052806040518060400160405280600a81526020017f436861726d616e646572000000000000000000000000000000000000000000008152508152602001600481526020016040518060400160405280600481526020017f466972650000000000000000000000000000000000000000000000000000000081525081526020016040518060400160405280600381526020017f6e616e0000000000000000000000000000000000000000000000000000000000815250815260200161024f81526020016000151581526020016040518060c00160405280602763ffffffff168152602001603463ffffffff168152602001602b63ffffffff168152602001603c63ffffffff168152602001603263ffffffff168152602001604163ffffffff168152508152509080600181540180825580915050906001820390600052602060002090600702016000909192909190915060008201518160000190805190602001906300000bed929190630001ddbe565b506020820151816001015560408201518160020190805190602001906300000c18929190630001ddbe565b5060608201518160030190805190602001906300000c39929190630001ddbe565b506080820151816004015560a08201518160050160006101000a81548160ff02191690831515021790555060c08201518160060160008201518160000160006101000a81548163ffffffff021916908363ffffffff16021790555060208201518160000160046101000a81548163ffffffff021916908363ffffffff16021790555060408201518160000160086101000a81548163ffffffff021916908363ffffffff160217905550606082015181600001600c6101000a81548163ffffffff021916908363ffffffff16021790555060808201518160000160106101000a81548163ffffffff021916908363ffffffff16021790555060a08201518160000160146101000a81548163ffffffff021916908363ffffffff160217905550505050505060036040518060e001604052806040518060400160405280600a81526020017f436861726d656c656f6e000000000000000000000000000000000000000000008152508152602001600581526020016040518060400160405280600481526020017f466972650000000000000000000000000000000000000000000000000000000081525081526020016040518060400160405280600381526020017f6e616e000000000000000000000000000000000000000000000000000000000081525081526020016101ef81526020016000151581526020016040518060c00160405280603a63ffffffff168152602001604063ffffffff168152602001603a63ffffffff168152602001605063ffffffff168152602001604163ffffffff168152602001605063ffffffff168152508152509080600181540180825580915050906001820390600052602060002090600702016000909192909190915060008201518160000190805190602001906300000ed7929190630001ddbe565b506020820151816001015560408201518160020190805190602001906300000f02929190630001ddbe565b5060608201518160030190805190602001906300000f23929190630001ddbe565b506080820151816004015560a08201518160050160006101000a81548160ff02191690831515021790555060c08201518160060160008201518160000160006101000a81548163ffffffff021916908363ffffffff16021790555060208201518160000160046101000a81548163ffffffff021916908363ffffffff16021790555060408201518160000160086101000a81548163ffffffff021916908363ffffffff160217905550606082015181600001600c6101000a81548163ffffffff021916908363ffffffff16021790555060808201518160000160106101000a81548163ffffffff021916908363ffffffff16021790555060a08201518160000160146101000a81548163ffffffff021916908363ffffffff160217905550505050505060036040518060e001604052806040518060400160405280600981526020017f43686172697a61726400000000000000000000000000000000000000000000008152508152602001600681526020016040518060400160405280600481526020017f466972650000000000000000000000000000000000000000000000000000000081525081526020016040518060400160405280600681526020017f466c79696e670000000000000000000000000000000000000000000000000000815250815260200161016e81526020016000151581526020016040518060c00160405280604e63ffffffff168152602001605463ffffffff168152602001604e63ffffffff168152602001606d63ffffffff168152602001605563ffffffff168152602001606463ffffffff1681525081525090806001815401808255809150509060018203906000526020600020906007020160009091929091909150600082015181600001908051906020019063000011c1929190630001ddbe565b5060208201518160010155604082015181600201908051906020019063000011ec929190630001ddbe565b506060820151816003019080519060200190630000120d929190630001ddbe565b506080820151816004015560a08201518160050160006101000a81548160ff02191690831515021790555060c08201518160060160008201518160000160006101000a81548163ffffffff021916908363ffffffff16021790555060208201518160000160046101000a81548163ffffffff021916908363ffffffff16021790555060408201518160000160086101000a81548163ffffffff021916908363ffffffff160217905550606082015181600001600c6101000a81548163ffffffff021916908363ffffffff16021790555060808201518160000160106101000a81548163ffffffff021916908363ffffffff16021790555060a08201518160000160146101000a81548163ffffffff021916908363ffffffff160217905550505050505060036040518060e001604052806040518060400160405280600881526020017f5371756972746c650000000000000000000000000000000000000000000000008152508152602001600781526020016040518060400160405280600581526020017f576174657200000000000000000000000000000000000000000000000000000081525081526020016040518060400160405280600381526020017f6e616e0000000000000000000000000000000000000000000000000000000000815250815260200161024a81526020016000151581526020016040518060c00160405280602c63ffffffff168152602001603063ffffffff168152602001604163ffffffff168152602001603263ffffffff168152602001604063ffffffff168152602001602b63ffffffff1681525081525090806001815401808255809150509060018203906000526020600020906007020160009091929091909150600082015181600001908051906020019063000014ab929190630001ddbe565b5060208201518160010155604082015181600201908051906020019063000014d6929190630001ddbe565b50606082015181600301908051906020019063000014f7929190630001ddbe565b506080820151816004015560a08201518160050160006101000a81548160ff02191690831515021790555060c08201518160060160008201518160000160006101000a81548163ffffffff021916908363ffffffff16021790555060208201518160000160046101000a81548163ffffffff021916908363ffffffff16021790555060408201518160000160086101000a81548163ffffffff021916908363ffffffff160217905550606082015181600001600c6101000a81548163ffffffff021916908363ffffffff16021790555060808201518160000160106101000a81548163ffffffff021916908363ffffffff16021790555060a08201518160000160146101000a81548163ffffffff021916908363ffffffff160217905550505050505060036040518060e001604052806040518060400160405280600981526020017f576172746f72746c6500000000000000000000000000000000000000000000008152508152602001600881526020016040518060400160405280600581526020017f576174657200000000000000000000000000000000000000000000000000000081525081526020016040518060400160405280600381526020017f6e616e000000000000000000000000000000000000000000000000000000000081525081526020016101ef81526020016000151581526020016040518060c00160405280603b63ffffffff168152602001603f63ffffffff168152602001605063ffffffff168152602001604163ffffffff168152602001605063ffffffff168152602001603a63ffffffff168152508152509080600181540180825580915050906001820390600052602060002090600702016000909192909190915060008201518160000190805190602001906300001795929190630001ddbe565b5060208201518160010155604082015181600201908051906020019063000017c0929190630001ddbe565b50606082015181600301908051906020019063000017e1929190630001ddbe565b506080820151816004015560a08201518160050160006101000a81548160ff02191690831515021790555060c08201518160060160008201518160000160006101000a81548163ffffffff021916908363ffffffff16021790555060208201518160000160046101000a81548163ffffffff021916908363ffffffff16021790555060408201518160000160086101000a81548163ffffffff021916908363ffffffff160217905550606082015181600001600c6101000a81548163ffffffff021916908363ffffffff16021790555060808201518160000160106101000a81548163ffffffff021916908363ffffffff16021790555060a08201518160000160146101000a81548163ffffffff021916908363ffffffff160217905550505050505060036040518060e001604052806040518060400160405280600981526020017f426c6173746f69736500000000000000000000000000000000000000000000008152508152602001600981526020016040518060400160405280600581526020017f576174657200000000000000000000000000000000000000000000000000000081525081526020016040518060400160405280600381526020017f6e616e0000000000000000000000000000000000000000000000000000000000815250815260200161017281526020016000151581526020016040518060c00160405280604f63ffffffff168152602001605363ffffffff168152602001606463ffffffff168152602001605563ffffffff168152602001606963ffffffff168152602001604e63ffffffff168152508152509080600181540180825580915050906001820390600052602060002090600702016000909192909190915060008201518160000190805190602001906300001a7f929190630001ddbe565b506020820151816001015560408201518160020190805190602001906300001aaa929190630001ddbe565b5060608201518160030190805190602001906300001acb929190630001ddbe565b506080820151816004015560a08201518160050160006101000a81548160ff02191690831515021790555060c08201518160060160008201518160000160006101000a81548163ffffffff021916908363ffffffff16021790555060208201518160000160046101000a81548163ffffffff021916908363ffffffff16021790555060408201518160000160086101000a81548163ffffffff021916908363ffffffff160217905550606082015181600001600c6101000a81548163ffffffff021916908363ffffffff16021790555060808201518160000160106101000a81548163ffffffff021916908363ffffffff16021790555060a08201518160000160146101000a81548163ffffffff021916908363ffffffff160217905550505050505060036040518060e001604052806040518060400160405280600881526020017f43617465727069650000000000000000000000000000000000000000000000008152508152602001600a81526020016040518060400160405280600381526020017f427567000000000000000000000000000000000000000000000000000000000081525081526020016040518060400160405280600381526020017f6e616e000000000000000000000000000000000000000000000000000000000081525081526020016102c181526020016000151581526020016040518060c00160405280602d63ffffffff168152602001601e63ffffffff168152602001602363ffffffff168152602001601463ffffffff168152602001601463ffffffff168152602001602d63ffffffff168152508152509080600181540180825580915050906001820390600052602060002090600702016000909192909190915060008201518160000190805190602001906300001d69929190630001ddbe565b506020820151816001015560408201518160020190805190602001906300001d94929190630001ddbe565b5060608201518160030190805190602001906300001db5929190630001ddbe565b506080820151816004015560a08201518160050160006101000a81548160ff02191690831515021790555060c08201518160060160008201518160000160006101000a81548163ffffffff021916908363ffffffff16021790555060208201518160000160046101000a81548163ffffffff021916908363ffffffff16021790555060408201518160000160086101000a81548163ffffffff021916908363ffffffff160217905550606082015181600001600c6101000a81548163ffffffff021916908363ffffffff16021790555060808201518160000160106101000a81548163ffffffff021916908363ffffffff16021790555060a08201518160000160146101000a81548163ffffffff021916908363ffffffff160217905550505050505060036040518060e001604052806040518060400160405280600781526020017f4d657461706f64000000000000000000000000000000000000000000000000008152508152602001600b81526020016040518060400160405280600381526020017f427567000000000000000000000000000000000000000000000000000000000081525081526020016040518060400160405280600381526020017f6e616e000000000000000000000000000000000000000000000000000000000081525081526020016102b781526020016000151581526020016040518060c00160405280603263ffffffff168152602001601463ffffffff168152602001603763ffffffff168152602001601963ffffffff168152602001601963ffffffff168152602001601e63ffffffff168152508152509080600181540180825580915050906001820390600052602060002090600702016000909192909190915060008201518160000190805190602001906300002053929190630001ddbe565b50602082015181600101556040820151816002019080519060200190630000207e929190630001ddbe565b506060820151816003019080519060200190630000209f929190630001ddbe565b506080820151816004015560a08201518160050160006101000a81548160ff02191690831515021790555060c08201518160060160008201518160000160006101000a81548163ffffffff021916908363ffffffff16021790555060208201518160000160046101000a81548163ffffffff021916908363ffffffff16021790555060408201518160000160086101000a81548163ffffffff021916908363ffffffff160217905550606082015181600001600c6101000a81548163ffffffff021916908363ffffffff16021790555060808201518160000160106101000a81548163ffffffff021916908363ffffffff16021790555060a08201518160000160146101000a81548163ffffffff021916908363ffffffff160217905550505050505060036040518060e001604052806040518060400160405280600a81526020017f42757474657266726565000000000000000000000000000000000000000000008152508152602001600c81526020016040518060400160405280600381526020017f427567000000000000000000000000000000000000000000000000000000000081525081526020016040518060400160405280600681526020017f466c79696e67000000000000000000000000000000000000000000000000000081525081526020016101f981526020016000151581526020016040518060c00160405280603c63ffffffff168152602001602d63ffffffff168152602001603263ffffffff168152602001605a63ffffffff168152602001605063ffffffff168152602001604663ffffffff16815250815250908060018154018082558091505090600182039060005260206000209060070201600090919290919091506000820151816000019080519060200190630000233d929190630001ddbe565b506020820151816001015560408201518160020190805190602001906300002368929190630001ddbe565b5060608201518160030190805190602001906300002389929190630001ddbe565b506080820151816004015560a08201518160050160006101000a81548160ff02191690831515021790555060c08201518160060160008201518160000160006101000a81548163ffffffff021916908363ffffffff16021790555060208201518160000160046101000a81548163ffffffff021916908363ffffffff16021790555060408201518160000160086101000a81548163ffffffff021916908363ffffffff160217905550606082015181600001600c6101000a81548163ffffffff021916908363ffffffff16021790555060808201518160000160106101000a81548163ffffffff021916908363ffffffff16021790555060a08201518160000160146101000a81548163ffffffff021916908363ffffffff160217905550505050505060036040518060e001604052806040518060400160405280600681526020017f576565646c6500000000000000000000000000000000000000000000000000008152508152602001600d81526020016040518060400160405280600381526020017f427567000000000000000000000000000000000000000000000000000000000081525081526020016040518060400160405280600681526020017f506f69736f6e000000000000000000000000000000000000000000000000000081525081526020016102c181526020016000151581526020016040518060c00160405280602863ffffffff168152602001602363ffffffff168152602001601e63ffffffff168152602001601463ffffffff168152602001601463ffffffff168152602001603263ffffffff168152508152509080600181540180825580915050906001820390600052602060002090600702016000909192909190915060008201518160000190805190602001906300002627929190630001ddbe565b506020820151816001015560408201518160020190805190602001906300002652929190630001ddbe565b5060608201518160030190805190602001906300002673929190630001ddbe565b506080820151816004015560a08201518160050160006101000a81548160ff02191690831515021790555060c08201518160060160008201518160000160006101000a81548163ffffffff021916908363ffffffff16021790555060208201518160000160046101000a81548163ffffffff021916908363ffffffff16021790555060408201518160000160086101000a81548163ffffffff021916908363ffffffff160217905550606082015181600001600c6101000a81548163ffffffff021916908363ffffffff16021790555060808201518160000160106101000a81548163ffffffff021916908363ffffffff16021790555060a08201518160000160146101000a81548163ffffffff021916908363ffffffff160217905550505050505060036040518060e001604052806040518060400160405280600681526020017f4b616b756e6100000000000000000000000000000000000000000000000000008152508152602001600e81526020016040518060400160405280600381526020017f427567000000000000000000000000000000000000000000000000000000000081525081526020016040518060400160405280600681526020017f506f69736f6e000000000000000000000000000000000000000000000000000081525081526020016102b781526020016000151581526020016040518060c00160405280602d63ffffffff168152602001601963ffffffff168152602001603263ffffffff168152602001601963ffffffff168152602001601963ffffffff168152602001602363ffffffff168152508152509080600181540180825580915050906001820390600052602060002090600702016000909192909190915060008201518160000190805190602001906300002911929190630001ddbe565b50602082015181600101556040820151816002019080519060200190630000293c929190630001ddbe565b506060820151816003019080519060200190630000295d929190630001ddbe565b506080820151816004015560a08201518160050160006101000a81548160ff02191690831515021790555060c08201518160060160008201518160000160006101000a81548163ffffffff021916908363ffffffff16021790555060208201518160000160046101000a81548163ffffffff021916908363ffffffff16021790555060408201518160000160086101000a81548163ffffffff021916908363ffffffff160217905550606082015181600001600c6101000a81548163ffffffff021916908363ffffffff16021790555060808201518160000160106101000a81548163ffffffff021916908363ffffffff16021790555060a08201518160000160146101000a81548163ffffffff021916908363ffffffff160217905550505050505060036040518060e001604052806040518060400160405280600881526020017f4265656472696c6c0000000000000000000000000000000000000000000000008152508152602001600f81526020016040518060400160405280600381526020017f427567000000000000000000000000000000000000000000000000000000000081525081526020016040518060400160405280600681526020017f506f69736f6e000000000000000000000000000000000000000000000000000081525081526020016101f981526020016000151581526020016040518060c00160405280604163ffffffff168152602001605a63ffffffff168152602001602863ffffffff168152602001602d63ffffffff168152602001605063ffffffff168152602001604b63ffffffff168152508152509080600181540180825580915050906001820390600052602060002090600702016000909192909190915060008201518160000190805190602001906300002bfb929190630001ddbe565b506020820151816001015560408201518160020190805190602001906300002c26929190630001ddbe565b5060608201518160030190805190602001906300002c47929190630001ddbe565b506080820151816004015560a08201518160050160006101000a81548160ff02191690831515021790555060c08201518160060160008201518160000160006101000a81548163ffffffff021916908363ffffffff16021790555060208201518160000160046101000a81548163ffffffff021916908363ffffffff16021790555060408201518160000160086101000a81548163ffffffff021916908363ffffffff160217905550606082015181600001600c6101000a81548163ffffffff021916908363ffffffff16021790555060808201518160000160106101000a81548163ffffffff021916908363ffffffff16021790555060a08201518160000160146101000a81548163ffffffff021916908363ffffffff160217905550505050505060036040518060e001604052806040518060400160405280600681526020017f50696467657900000000000000000000000000000000000000000000000000008152508152602001601081526020016040518060400160405280600681526020017f4e6f726d616c000000000000000000000000000000000000000000000000000081525081526020016040518060400160405280600681526020017f466c79696e670000000000000000000000000000000000000000000000000000815250815260200161028981526020016000151581526020016040518060c00160405280602863ffffffff168152602001602d63ffffffff168152602001602863ffffffff168152602001602363ffffffff168152602001602363ffffffff168152602001603863ffffffff168152508152509080600181540180825580915050906001820390600052602060002090600702016000909192909190915060008201518160000190805190602001906300002ee5929190630001ddbe565b506020820151816001015560408201518160020190805190602001906300002f10929190630001ddbe565b5060608201518160030190805190602001906300002f31929190630001ddbe565b506080820151816004015560a08201518160050160006101000a81548160ff02191690831515021790555060c08201518160060160008201518160000160006101000a81548163ffffffff021916908363ffffffff16021790555060208201518160000160046101000a81548163ffffffff021916908363ffffffff16021790555060408201518160000160086101000a81548163ffffffff021916908363ffffffff160217905550606082015181600001600c6101000a81548163ffffffff021916908363ffffffff16021790555060808201518160000160106101000a81548163ffffffff021916908363ffffffff16021790555060a08201518160000160146101000a81548163ffffffff021916908363ffffffff160217905550505050505060036040518060e001604052806040518060400160405280600981526020017f50696467656f74746f00000000000000000000000000000000000000000000008152508152602001601181526020016040518060400160405280600681526020017f4e6f726d616c000000000000000000000000000000000000000000000000000081525081526020016040518060400160405280600681526020017f466c79696e670000000000000000000000000000000000000000000000000000815250815260200161022781526020016000151581526020016040518060c00160405280603f63ffffffff168152602001603c63ffffffff168152602001603763ffffffff168152602001603263ffffffff168152602001603263ffffffff168152602001604763ffffffff1681525081525090806001815401808255809150509060018203906000526020600020906007020160009091929091909150600082015181600001908051906020019063000031cf929190630001ddbe565b5060208201518160010155604082015181600201908051906020019063000031fa929190630001ddbe565b506060820151816003019080519060200190630000321b929190630001ddbe565b506080820151816004015560a08201518160050160006101000a81548160ff02191690831515021790555060c08201518160060160008201518160000160006101000a81548163ffffffff021916908363ffffffff16021790555060208201518160000160046101000a81548163ffffffff021916908363ffffffff16021790555060408201518160000160086101000a81548163ffffffff021916908363ffffffff160217905550606082015181600001600c6101000a81548163ffffffff021916908363ffffffff16021790555060808201518160000160106101000a81548163ffffffff021916908363ffffffff16021790555060a08201518160000160146101000a81548163ffffffff021916908363ffffffff160217905550505050505060036040518060e001604052806040518060400160405280600781526020017f50696467656f74000000000000000000000000000000000000000000000000008152508152602001601281526020016040518060400160405280600681526020017f4e6f726d616c000000000000000000000000000000000000000000000000000081525081526020016040518060400160405280600681526020017f466c79696e67000000000000000000000000000000000000000000000000000081525081526020016101a581526020016000151581526020016040518060c00160405280605363ffffffff168152602001605063ffffffff168152602001604b63ffffffff168152602001604663ffffffff168152602001604663ffffffff168152602001606563ffffffff1681525081525090806001815401808255809150509060018203906000526020600020906007020160009091929091909150600082015181600001908051906020019063000034b9929190630001ddbe565b5060208201518160010155604082015181600201908051906020019063000034e4929190630001ddbe565b5060608201518160030190805190602001906300003505929190630001ddbe565b506080820151816004015560a08201518160050160006101000a81548160ff02191690831515021790555060c08201518160060160008201518160000160006101000a81548163ffffffff021916908363ffffffff16021790555060208201518160000160046101000a81548163ffffffff021916908363ffffffff16021790555060408201518160000160086101000a81548163ffffffff021916908363ffffffff160217905550606082015181600001600c6101000a81548163ffffffff021916908363ffffffff16021790555060808201518160000160106101000a81548163ffffffff021916908363ffffffff16021790555060a08201518160000160146101000a81548163ffffffff021916908363ffffffff160217905550505050505060036040518060e001604052806040518060400160405280600781526020017f52617474617461000000000000000000000000000000000000000000000000008152508152602001601381526020016040518060400160405280600681526020017f4e6f726d616c000000000000000000000000000000000000000000000000000081525081526020016040518060400160405280600381526020017f6e616e0000000000000000000000000000000000000000000000000000000000815250815260200161028781526020016000151581526020016040518060c00160405280601e63ffffffff168152602001603863ffffffff168152602001602363ffffffff168152602001601963ffffffff168152602001602363ffffffff168152602001604863ffffffff1681525081525090806001815401808255809150509060018203906000526020600020906007020160009091929091909150600082015181600001908051906020019063000037a3929190630001ddbe565b5060208201518160010155604082015181600201908051906020019063000037ce929190630001ddbe565b50606082015181600301908051906020019063000037ef929190630001ddbe565b506080820151816004015560a08201518160050160006101000a81548160ff02191690831515021790555060c08201518160060160008201518160000160006101000a81548163ffffffff021916908363ffffffff16021790555060208201518160000160046101000a81548163ffffffff021916908363ffffffff16021790555060408201518160000160086101000a81548163ffffffff021916908363ffffffff160217905550606082015181600001600c6101000a81548163ffffffff021916908363ffffffff16021790555060808201518160000160106101000a81548163ffffffff021916908363ffffffff16021790555060a08201518160000160146101000a81548163ffffffff021916908363ffffffff160217905550505050505060036040518060e001604052806040518060400160405280600881526020017f52617469636174650000000000000000000000000000000000000000000000008152508152602001601481526020016040518060400160405280600681526020017f4e6f726d616c000000000000000000000000000000000000000000000000000081525081526020016040518060400160405280600381526020017f6e616e000000000000000000000000000000000000000000000000000000000081525081526020016101e781526020016000151581526020016040518060c00160405280603763ffffffff168152602001605163ffffffff168152602001603c63ffffffff168152602001603263ffffffff168152602001604663ffffffff168152602001606163ffffffff168152508152509080600181540180825580915050906001820390600052602060002090600702016000909192909190915060008201518160000190805190602001906300003a8d929190630001ddbe565b506020820151816001015560408201518160020190805190602001906300003ab8929190630001ddbe565b5060608201518160030190805190602001906300003ad9929190630001ddbe565b506080820151816004015560a08201518160050160006101000a81548160ff02191690831515021790555060c08201518160060160008201518160000160006101000a81548163ffffffff021916908363ffffffff16021790555060208201518160000160046101000a81548163ffffffff021916908363ffffffff16021790555060408201518160000160086101000a81548163ffffffff021916908363ffffffff160217905550606082015181600001600c6101000a81548163ffffffff021916908363ffffffff16021790555060808201518160000160106101000a81548163ffffffff021916908363ffffffff16021790555060a08201518160000160146101000a81548163ffffffff021916908363ffffffff160217905550505050505060036040518060e001604052806040518060400160405280600781526020017f53706561726f77000000000000000000000000000000000000000000000000008152508152602001601581526020016040518060400160405280600681526020017f4e6f726d616c000000000000000000000000000000000000000000000000000081525081526020016040518060400160405280600681526020017f466c79696e670000000000000000000000000000000000000000000000000000815250815260200161027e81526020016000151581526020016040518060c00160405280602863ffffffff168152602001603c63ffffffff168152602001601e63ffffffff168152602001601f63ffffffff168152602001601f63ffffffff168152602001604663ffffffff168152508152509080600181540180825580915050906001820390600052602060002090600702016000909192909190915060008201518160000190805190602001906300003d77929190630001ddbe565b506020820151816001015560408201518160020190805190602001906300003da2929190630001ddbe565b5060608201518160030190805190602001906300003dc3929190630001ddbe565b506080820151816004015560a08201518160050160006101000a81548160ff02191690831515021790555060c08201518160060160008201518160000160006101000a81548163ffffffff021916908363ffffffff16021790555060208201518160000160046101000a81548163ffffffff021916908363ffffffff16021790555060408201518160000160086101000a81548163ffffffff021916908363ffffffff160217905550606082015181600001600c6101000a81548163ffffffff021916908363ffffffff16021790555060808201518160000160106101000a81548163ffffffff021916908363ffffffff16021790555060a08201518160000160146101000a81548163ffffffff021916908363ffffffff160217905550505050505060036040518060e001604052806040518060400160405280600681526020017f466561726f7700000000000000000000000000000000000000000000000000008152508152602001601681526020016040518060400160405280600681526020017f4e6f726d616c000000000000000000000000000000000000000000000000000081525081526020016040518060400160405280600681526020017f466c79696e67000000000000000000000000000000000000000000000000000081525081526020016101ca81526020016000151581526020016040518060c00160405280604163ffffffff168152602001605a63ffffffff168152602001604163ffffffff168152602001603d63ffffffff168152602001603d63ffffffff168152602001606463ffffffff168152508152509080600181540180825580915050906001820390600052602060002090600702016000909192909190915060008201518160000190805190602001906300004061929190630001ddbe565b50602082015181600101556040820151816002019080519060200190630000408c929190630001ddbe565b50606082015181600301908051906020019063000040ad929190630001ddbe565b506080820151816004015560a08201518160050160006101000a81548160ff02191690831515021790555060c08201518160060160008201518160000160006101000a81548163ffffffff021916908363ffffffff16021790555060208201518160000160046101000a81548163ffffffff021916908363ffffffff16021790555060408201518160000160086101000a81548163ffffffff021916908363ffffffff160217905550606082015181600001600c6101000a81548163ffffffff021916908363ffffffff16021790555060808201518160000160106101000a81548163ffffffff021916908363ffffffff16021790555060a08201518160000160146101000a81548163ffffffff021916908363ffffffff160217905550505050505060036040518060e001604052806040518060400160405280600581526020017f456b616e730000000000000000000000000000000000000000000000000000008152508152602001601781526020016040518060400160405280600681526020017f506f69736f6e000000000000000000000000000000000000000000000000000081525081526020016040518060400160405280600381526020017f6e616e0000000000000000000000000000000000000000000000000000000000815250815260200161026481526020016000151581526020016040518060c00160405280602363ffffffff168152602001603c63ffffffff168152602001602c63ffffffff168152602001602863ffffffff168152602001603663ffffffff168152602001603763ffffffff16815250815250908060018154018082558091505090600182039060005260206000209060070201600090919290919091506000820151816000019080519060200190630000434b929190630001ddbe565b506020820151816001015560408201518160020190805190602001906300004376929190630001ddbe565b5060608201518160030190805190602001906300004397929190630001ddbe565b506080820151816004015560a08201518160050160006101000a81548160ff02191690831515021790555060c08201518160060160008201518160000160006101000a81548163ffffffff021916908363ffffffff16021790555060208201518160000160046101000a81548163ffffffff021916908363ffffffff16021790555060408201518160000160086101000a81548163ffffffff021916908363ffffffff160217905550606082015181600001600c6101000a81548163ffffffff021916908363ffffffff16021790555060808201518160000160106101000a81548163ffffffff021916908363ffffffff16021790555060a08201518160000160146101000a81548163ffffffff021916908363ffffffff160217905550505050505060036040518060e001604052806040518060400160405280600581526020017f4172626f6b0000000000000000000000000000000000000000000000000000008152508152602001601881526020016040518060400160405280600681526020017f506f69736f6e000000000000000000000000000000000000000000000000000081525081526020016040518060400160405280600381526020017f6e616e000000000000000000000000000000000000000000000000000000000081525081526020016101ce81526020016000151581526020016040518060c00160405280603c63ffffffff168152602001605563ffffffff168152602001604563ffffffff168152602001604163ffffffff168152602001604f63ffffffff168152602001605063ffffffff168152508152509080600181540180825580915050906001820390600052602060002090600702016000909192909190915060008201518160000190805190602001906300004635929190630001ddbe565b506020820151816001015560408201518160020190805190602001906300004660929190630001ddbe565b5060608201518160030190805190602001906300004681929190630001ddbe565b506080820151816004015560a08201518160050160006101000a81548160ff02191690831515021790555060c08201518160060160008201518160000160006101000a81548163ffffffff021916908363ffffffff16021790555060208201518160000160046101000a81548163ffffffff021916908363ffffffff16021790555060408201518160000160086101000a81548163ffffffff021916908363ffffffff160217905550606082015181600001600c6101000a81548163ffffffff021916908363ffffffff16021790555060808201518160000160106101000a81548163ffffffff021916908363ffffffff16021790555060a08201518160000160146101000a81548163ffffffff021916908363ffffffff160217905550505050505060036040518060e001604052806040518060400160405280600781526020017f50696b61636875000000000000000000000000000000000000000000000000008152508152602001601981526020016040518060400160405280600881526020017f456c65637472696300000000000000000000000000000000000000000000000081525081526020016040518060400160405280600381526020017f6e616e0000000000000000000000000000000000000000000000000000000000815250815260200161024481526020016000151581526020016040518060c00160405280602363ffffffff168152602001603763ffffffff168152602001602863ffffffff168152602001603263ffffffff168152602001603263ffffffff168152602001605a63ffffffff16815250815250908060018154018082558091505090600182039060005260206000209060070201600090919290919091506000820151816000019080519060200190630000491f929190630001ddbe565b50602082015181600101556040820151816002019080519060200190630000494a929190630001ddbe565b506060820151816003019080519060200190630000496b929190630001ddbe565b506080820151816004015560a08201518160050160006101000a81548160ff02191690831515021790555060c08201518160060160008201518160000160006101000a81548163ffffffff021916908363ffffffff16021790555060208201518160000160046101000a81548163ffffffff021916908363ffffffff16021790555060408201518160000160086101000a81548163ffffffff021916908363ffffffff160217905550606082015181600001600c6101000a81548163ffffffff021916908363ffffffff16021790555060808201518160000160106101000a81548163ffffffff021916908363ffffffff16021790555060a08201518160000160146101000a81548163ffffffff021916908363ffffffff160217905550505050505060036040518060e001604052806040518060400160405280600681526020017f52616963687500000000000000000000000000000000000000000000000000008152508152602001601a81526020016040518060400160405280600881526020017f456c65637472696300000000000000000000000000000000000000000000000081525081526020016040518060400160405280600381526020017f6e616e0000000000000000000000000000000000000000000000000000000000815250815260200161019f81526020016000151581526020016040518060c00160405280603c63ffffffff168152602001605a63ffffffff168152602001603763ffffffff168152602001605a63ffffffff168152602001605063ffffffff168152602001606e63ffffffff168152508152509080600181540180825580915050906001820390600052602060002090600702016000909192909190915060008201518160000190805190602001906300004c09929190630001ddbe565b506020820151816001015560408201518160020190805190602001906300004c34929190630001ddbe565b5060608201518160030190805190602001906300004c55929190630001ddbe565b506080820151816004015560a08201518160050160006101000a81548160ff02191690831515021790555060c08201518160060160008201518160000160006101000a81548163ffffffff021916908363ffffffff16021790555060208201518160000160046101000a81548163ffffffff021916908363ffffffff16021790555060408201518160000160086101000a81548163ffffffff021916908363ffffffff160217905550606082015181600001600c6101000a81548163ffffffff021916908363ffffffff16021790555060808201518160000160106101000a81548163ffffffff021916908363ffffffff16021790555060a08201518160000160146101000a81548163ffffffff021916908363ffffffff160217905550505050505060036040518060e001604052806040518060400160405280600981526020017f53616e64736872657700000000000000000000000000000000000000000000008152508152602001601b81526020016040518060400160405280600681526020017f47726f756e64000000000000000000000000000000000000000000000000000081525081526020016040518060400160405280600381526020017f6e616e0000000000000000000000000000000000000000000000000000000000815250815260200161025881526020016000151581526020016040518060c00160405280603263ffffffff168152602001604b63ffffffff168152602001605563ffffffff168152602001601463ffffffff168152602001601e63ffffffff168152602001602863ffffffff168152508152509080600181540180825580915050906001820390600052602060002090600702016000909192909190915060008201518160000190805190602001906300004ef3929190630001ddbe565b506020820151816001015560408201518160020190805190602001906300004f1e929190630001ddbe565b5060608201518160030190805190602001906300004f3f929190630001ddbe565b506080820151816004015560a08201518160050160006101000a81548160ff02191690831515021790555060c08201518160060160008201518160000160006101000a81548163ffffffff021916908363ffffffff16021790555060208201518160000160046101000a81548163ffffffff021916908363ffffffff16021790555060408201518160000160086101000a81548163ffffffff021916908363ffffffff160217905550606082015181600001600c6101000a81548163ffffffff021916908363ffffffff16021790555060808201518160000160106101000a81548163ffffffff021916908363ffffffff16021790555060a08201518160000160146101000a81548163ffffffff021916908363ffffffff160217905550505050505060036040518060e001604052806040518060400160405280600981526020017f53616e64736c61736800000000000000000000000000000000000000000000008152508152602001601c81526020016040518060400160405280600681526020017f47726f756e64000000000000000000000000000000000000000000000000000081525081526020016040518060400160405280600381526020017f6e616e000000000000000000000000000000000000000000000000000000000081525081526020016101c281526020016000151581526020016040518060c00160405280604b63ffffffff168152602001606463ffffffff168152602001606e63ffffffff168152602001602d63ffffffff168152602001603763ffffffff168152602001604163ffffffff1681525081525090806001815401808255809150509060018203906000526020600020906007020160009091929091909150600082015181600001908051906020019063000051dd929190630001ddbe565b506020820151816001015560408201518160020190805190602001906300005208929190630001ddbe565b5060608201518160030190805190602001906300005229929190630001ddbe565b506080820151816004015560a08201518160050160006101000a81548160ff02191690831515021790555060c08201518160060160008201518160000160006101000a81548163ffffffff021916908363ffffffff16021790555060208201518160000160046101000a81548163ffffffff021916908363ffffffff16021790555060408201518160000160086101000a81548163ffffffff021916908363ffffffff160217905550606082015181600001600c6101000a81548163ffffffff021916908363ffffffff16021790555060808201518160000160106101000a81548163ffffffff021916908363ffffffff16021790555060a08201518160000160146101000a81548163ffffffff021916908363ffffffff160217905550505050505060036040518060e001604052806040518060400160405280600a81526020017f4e69646f72616ee29980000000000000000000000000000000000000000000008152508152602001601d81526020016040518060400160405280600681526020017f506f69736f6e000000000000000000000000000000000000000000000000000081525081526020016040518060400160405280600381526020017f6e616e0000000000000000000000000000000000000000000000000000000000815250815260200161027181526020016000151581526020016040518060c00160405280603763ffffffff168152602001602f63ffffffff168152602001603463ffffffff168152602001602863ffffffff168152602001602863ffffffff168152602001602963ffffffff1681525081525090806001815401808255809150509060018203906000526020600020906007020160009091929091909150600082015181600001908051906020019063000054c7929190630001ddbe565b5060208201518160010155604082015181600201908051906020019063000054f2929190630001ddbe565b5060608201518160030190805190602001906300005513929190630001ddbe565b506080820151816004015560a08201518160050160006101000a81548160ff02191690831515021790555060c08201518160060160008201518160000160006101000a81548163ffffffff021916908363ffffffff16021790555060208201518160000160046101000a81548163ffffffff021916908363ffffffff16021790555060408201518160000160086101000a81548163ffffffff021916908363ffffffff160217905550606082015181600001600c6101000a81548163ffffffff021916908363ffffffff16021790555060808201518160000160106101000a81548163ffffffff021916908363ffffffff16021790555060a08201518160000160146101000a81548163ffffffff021916908363ffffffff160217905550505050505060036040518060e001604052806040518060400160405280600881526020017f4e69646f72696e610000000000000000000000000000000000000000000000008152508152602001601e81526020016040518060400160405280600681526020017f506f69736f6e000000000000000000000000000000000000000000000000000081525081526020016040518060400160405280600381526020017f6e616e0000000000000000000000000000000000000000000000000000000000815250815260200161021781526020016000151581526020016040518060c00160405280604663ffffffff168152602001603e63ffffffff168152602001604363ffffffff168152602001603763ffffffff168152602001603763ffffffff168152602001603863ffffffff1681525081525090806001815401808255809150509060018203906000526020600020906007020160009091929091909150600082015181600001908051906020019063000057b1929190630001ddbe565b5060208201518160010155604082015181600201908051906020019063000057dc929190630001ddbe565b50606082015181600301908051906020019063000057fd929190630001ddbe565b506080820151816004015560a08201518160050160006101000a81548160ff02191690831515021790555060c08201518160060160008201518160000160006101000a81548163ffffffff021916908363ffffffff16021790555060208201518160000160046101000a81548163ffffffff021916908363ffffffff16021790555060408201518160000160086101000a81548163ffffffff021916908363ffffffff160217905550606082015181600001600c6101000a81548163ffffffff021916908363ffffffff16021790555060808201518160000160106101000a81548163ffffffff021916908363ffffffff16021790555060a08201518160000160146101000a81548163ffffffff021916908363ffffffff160217905550505050505060036040518060e001604052806040518060400160405280600981526020017f4e69646f717565656e00000000000000000000000000000000000000000000008152508152602001601f81526020016040518060400160405280600681526020017f506f69736f6e000000000000000000000000000000000000000000000000000081525081526020016040518060400160405280600681526020017f47726f756e640000000000000000000000000000000000000000000000000000815250815260200161018b81526020016000151581526020016040518060c00160405280605a63ffffffff168152602001605c63ffffffff168152602001605763ffffffff168152602001604b63ffffffff168152602001605563ffffffff168152602001604c63ffffffff168152508152509080600181540180825580915050906001820390600052602060002090600702016000909192909190915060008201518160000190805190602001906300005a9b929190630001ddbe565b506020820151816001015560408201518160020190805190602001906300005ac6929190630001ddbe565b5060608201518160030190805190602001906300005ae7929190630001ddbe565b506080820151816004015560a08201518160050160006101000a81548160ff02191690831515021790555060c08201518160060160008201518160000160006101000a81548163ffffffff021916908363ffffffff16021790555060208201518160000160046101000a81548163ffffffff021916908363ffffffff16021790555060408201518160000160086101000a81548163ffffffff021916908363ffffffff160217905550606082015181600001600c6101000a81548163ffffffff021916908363ffffffff16021790555060808201518160000160106101000a81548163ffffffff021916908363ffffffff16021790555060a08201518160000160146101000a81548163ffffffff021916908363ffffffff160217905550505050505060036040518060e001604052806040518060400160405280600a81526020017f4e69646f72616ee29982000000000000000000000000000000000000000000008152508152602001602081526020016040518060400160405280600681526020017f506f69736f6e000000000000000000000000000000000000000000000000000081525081526020016040518060400160405280600381526020017f6e616e0000000000000000000000000000000000000000000000000000000000815250815260200161027381526020016000151581526020016040518060c00160405280602e63ffffffff168152602001603963ffffffff168152602001602863ffffffff168152602001602863ffffffff168152602001602863ffffffff168152602001603263ffffffff168152508152509080600181540180825580915050906001820390600052602060002090600702016000909192909190915060008201518160000190805190602001906300005d85929190630001ddbe565b506020820151816001015560408201518160020190805190602001906300005db0929190630001ddbe565b5060608201518160030190805190602001906300005dd1929190630001ddbe565b506080820151816004015560a08201518160050160006101000a81548160ff02191690831515021790555060c08201518160060160008201518160000160006101000a81548163ffffffff021916908363ffffffff16021790555060208201518160000160046101000a81548163ffffffff021916908363ffffffff16021790555060408201518160000160086101000a81548163ffffffff021916908363ffffffff160217905550606082015181600001600c6101000a81548163ffffffff021916908363ffffffff16021790555060808201518160000160106101000a81548163ffffffff021916908363ffffffff16021790555060a08201518160000160146101000a81548163ffffffff021916908363ffffffff160217905550505050505060036040518060e001604052806040518060400160405280600881526020017f4e69646f72696e6f0000000000000000000000000000000000000000000000008152508152602001602181526020016040518060400160405280600681526020017f506f69736f6e000000000000000000000000000000000000000000000000000081525081526020016040518060400160405280600381526020017f6e616e0000000000000000000000000000000000000000000000000000000000815250815260200161021781526020016000151581526020016040518060c00160405280603d63ffffffff168152602001604863ffffffff168152602001603963ffffffff168152602001603763ffffffff168152602001603763ffffffff168152602001604163ffffffff16815250815250908060018154018082558091505090600182039060005260206000209060070201600090919290919091506000820151816000019080519060200190630000606f929190630001ddbe565b50602082015181600101556040820151816002019080519060200190630000609a929190630001ddbe565b50606082015181600301908051906020019063000060bb929190630001ddbe565b506080820151816004015560a08201518160050160006101000a81548160ff02191690831515021790555060c08201518160060160008201518160000160006101000a81548163ffffffff021916908363ffffffff16021790555060208201518160000160046101000a81548163ffffffff021916908363ffffffff16021790555060408201518160000160086101000a81548163ffffffff021916908363ffffffff160217905550606082015181600001600c6101000a81548163ffffffff021916908363ffffffff16021790555060808201518160000160106101000a81548163ffffffff021916908363ffffffff16021790555060a08201518160000160146101000a81548163ffffffff021916908363ffffffff160217905550505050505060036040518060e001604052806040518060400160405280600881526020017f4e69646f6b696e670000000000000000000000000000000000000000000000008152508152602001602281526020016040518060400160405280600681526020017f506f69736f6e000000000000000000000000000000000000000000000000000081525081526020016040518060400160405280600681526020017f47726f756e640000000000000000000000000000000000000000000000000000815250815260200161018b81526020016000151581526020016040518060c00160405280605163ffffffff168152602001606663ffffffff168152602001604d63ffffffff168152602001605563ffffffff168152602001604b63ffffffff168152602001605563ffffffff168152508152509080600181540180825580915050906001820390600052602060002090600702016000909192909190915060008201518160000190805190602001906300006359929190630001ddbe565b506020820151816001015560408201518160020190805190602001906300006384929190630001ddbe565b50606082015181600301908051906020019063000063a5929190630001ddbe565b506080820151816004015560a08201518160050160006101000a81548160ff02191690831515021790555060c08201518160060160008201518160000160006101000a81548163ffffffff021916908363ffffffff16021790555060208201518160000160046101000a81548163ffffffff021916908363ffffffff16021790555060408201518160000160086101000a81548163ffffffff021916908363ffffffff160217905550606082015181600001600c6101000a81548163ffffffff021916908363ffffffff16021790555060808201518160000160106101000a81548163ffffffff021916908363ffffffff16021790555060a08201518160000160146101000a81548163ffffffff021916908363ffffffff160217905550505050505060036040518060e001604052806040518060400160405280600881526020017f436c6566616972790000000000000000000000000000000000000000000000008152508152602001602381526020016040518060400160405280600581526020017f466169727900000000000000000000000000000000000000000000000000000081525081526020016040518060400160405280600381526020017f6e616e0000000000000000000000000000000000000000000000000000000000815250815260200161024181526020016000151581526020016040518060c00160405280604663ffffffff168152602001602d63ffffffff168152602001603063ffffffff168152602001603c63ffffffff168152602001604163ffffffff168152602001602363ffffffff168152508152509080600181540180825580915050906001820390600052602060002090600702016000909192909190915060008201518160000190805190602001906300006643929190630001ddbe565b50602082015181600101556040820151816002019080519060200190630000666e929190630001ddbe565b506060820151816003019080519060200190630000668f929190630001ddbe565b506080820151816004015560a08201518160050160006101000a81548160ff02191690831515021790555060c08201518160060160008201518160000160006101000a81548163ffffffff021916908363ffffffff16021790555060208201518160000160046101000a81548163ffffffff021916908363ffffffff16021790555060408201518160000160086101000a81548163ffffffff021916908363ffffffff160217905550606082015181600001600c6101000a81548163ffffffff021916908363ffffffff16021790555060808201518160000160106101000a81548163ffffffff021916908363ffffffff16021790555060a08201518160000160146101000a81548163ffffffff021916908363ffffffff160217905550505050505060036040518060e001604052806040518060400160405280600881526020017f436c656661626c650000000000000000000000000000000000000000000000008152508152602001602481526020016040518060400160405280600581526020017f466169727900000000000000000000000000000000000000000000000000000081525081526020016040518060400160405280600381526020017f6e616e000000000000000000000000000000000000000000000000000000000081525081526020016101a181526020016000151581526020016040518060c00160405280605f63ffffffff168152602001604663ffffffff168152602001604963ffffffff168152602001605f63ffffffff168152602001605a63ffffffff168152602001603c63ffffffff16815250815250908060018154018082558091505090600182039060005260206000209060070201600090919290919091506000820151816000019080519060200190630000692d929190630001ddbe565b506020820151816001015560408201518160020190805190602001906300006958929190630001ddbe565b5060608201518160030190805190602001906300006979929190630001ddbe565b506080820151816004015560a08201518160050160006101000a81548160ff02191690831515021790555060c08201518160060160008201518160000160006101000a81548163ffffffff021916908363ffffffff16021790555060208201518160000160046101000a81548163ffffffff021916908363ffffffff16021790555060408201518160000160086101000a81548163ffffffff021916908363ffffffff160217905550606082015181600001600c6101000a81548163ffffffff021916908363ffffffff16021790555060808201518160000160106101000a81548163ffffffff021916908363ffffffff16021790555060a08201518160000160146101000a81548163ffffffff021916908363ffffffff160217905550505050505060036040518060e001604052806040518060400160405280600681526020017f56756c70697800000000000000000000000000000000000000000000000000008152508152602001602581526020016040518060400160405280600481526020017f466972650000000000000000000000000000000000000000000000000000000081525081526020016040518060400160405280600381526020017f6e616e0000000000000000000000000000000000000000000000000000000000815250815260200161025981526020016000151581526020016040518060c00160405280602663ffffffff168152602001602963ffffffff168152602001602863ffffffff168152602001603263ffffffff168152602001604163ffffffff168152602001604163ffffffff168152508152509080600181540180825580915050906001820390600052602060002090600702016000909192909190915060008201518160000190805190602001906300006c17929190630001ddbe565b506020820151816001015560408201518160020190805190602001906300006c42929190630001ddbe565b5060608201518160030190805190602001906300006c63929190630001ddbe565b506080820151816004015560a08201518160050160006101000a81548160ff02191690831515021790555060c08201518160060160008201518160000160006101000a81548163ffffffff021916908363ffffffff16021790555060208201518160000160046101000a81548163ffffffff021916908363ffffffff16021790555060408201518160000160086101000a81548163ffffffff021916908363ffffffff160217905550606082015181600001600c6101000a81548163ffffffff021916908363ffffffff16021790555060808201518160000160106101000a81548163ffffffff021916908363ffffffff16021790555060a08201518160000160146101000a81548163ffffffff021916908363ffffffff160217905550505050505060036040518060e001604052806040518060400160405280600981526020017f4e696e6574616c657300000000000000000000000000000000000000000000008152508152602001602681526020016040518060400160405280600481526020017f466972650000000000000000000000000000000000000000000000000000000081525081526020016040518060400160405280600381526020017f6e616e0000000000000000000000000000000000000000000000000000000000815250815260200161018b81526020016000151581526020016040518060c00160405280604963ffffffff168152602001604c63ffffffff168152602001604b63ffffffff168152602001605163ffffffff168152602001606463ffffffff168152602001606463ffffffff168152508152509080600181540180825580915050906001820390600052602060002090600702016000909192909190915060008201518160000190805190602001906300006f01929190630001ddbe565b506020820151816001015560408201518160020190805190602001906300006f2c929190630001ddbe565b5060608201518160030190805190602001906300006f4d929190630001ddbe565b506080820151816004015560a08201518160050160006101000a81548160ff02191690831515021790555060c08201518160060160008201518160000160006101000a81548163ffffffff021916908363ffffffff16021790555060208201518160000160046101000a81548163ffffffff021916908363ffffffff16021790555060408201518160000160086101000a81548163ffffffff021916908363ffffffff160217905550606082015181600001600c6101000a81548163ffffffff021916908363ffffffff16021790555060808201518160000160106101000a81548163ffffffff021916908363ffffffff16021790555060a08201518160000160146101000a81548163ffffffff021916908363ffffffff160217905550505050505060036040518060e001604052806040518060400160405280600a81526020017f4a6967676c7970756666000000000000000000000000000000000000000000008152508152602001602781526020016040518060400160405280600681526020017f4e6f726d616c000000000000000000000000000000000000000000000000000081525081526020016040518060400160405280600581526020017f4661697279000000000000000000000000000000000000000000000000000000815250815260200161027681526020016000151581526020016040518060c00160405280607363ffffffff168152602001602d63ffffffff168152602001601463ffffffff168152602001602d63ffffffff168152602001601963ffffffff168152602001601463ffffffff1681525081525090806001815401808255809150509060018203906000526020600020906007020160009091929091909150600082015181600001908051906020019063000071eb929190630001ddbe565b506020820151816001015560408201518160020190805190602001906300007216929190630001ddbe565b5060608201518160030190805190602001906300007237929190630001ddbe565b506080820151816004015560a08201518160050160006101000a81548160ff02191690831515021790555060c08201518160060160008201518160000160006101000a81548163ffffffff021916908363ffffffff16021790555060208201518160000160046101000a81548163ffffffff021916908363ffffffff16021790555060408201518160000160086101000a81548163ffffffff021916908363ffffffff160217905550606082015181600001600c6101000a81548163ffffffff021916908363ffffffff16021790555060808201518160000160106101000a81548163ffffffff021916908363ffffffff16021790555060a08201518160000160146101000a81548163ffffffff021916908363ffffffff160217905550505050505060036040518060e001604052806040518060400160405280600a81526020017f576967676c7974756666000000000000000000000000000000000000000000008152508152602001602881526020016040518060400160405280600681526020017f4e6f726d616c000000000000000000000000000000000000000000000000000081525081526020016040518060400160405280600581526020017f466169727900000000000000000000000000000000000000000000000000000081525081526020016101d181526020016000151581526020016040518060c00160405280608c63ffffffff168152602001604663ffffffff168152602001602d63ffffffff168152602001605563ffffffff168152602001603263ffffffff168152602001602d63ffffffff1681525081525090806001815401808255809150509060018203906000526020600020906007020160009091929091909150600082015181600001908051906020019063000074d5929190630001ddbe565b506020820151816001015560408201518160020190805190602001906300007500929190630001ddbe565b5060608201518160030190805190602001906300007521929190630001ddbe565b506080820151816004015560a08201518160050160006101000a81548160ff02191690831515021790555060c08201518160060160008201518160000160006101000a81548163ffffffff021916908363ffffffff16021790555060208201518160000160046101000a81548163ffffffff021916908363ffffffff16021790555060408201518160000160086101000a81548163ffffffff021916908363ffffffff160217905550606082015181600001600c6101000a81548163ffffffff021916908363ffffffff16021790555060808201518160000160106101000a81548163ffffffff021916908363ffffffff16021790555060a08201518160000160146101000a81548163ffffffff021916908363ffffffff160217905550505050505060036040518060e001604052806040518060400160405280600581526020017f5a756261740000000000000000000000000000000000000000000000000000008152508152602001602981526020016040518060400160405280600681526020017f506f69736f6e000000000000000000000000000000000000000000000000000081525081526020016040518060400160405280600681526020017f466c79696e670000000000000000000000000000000000000000000000000000815250815260200161028f81526020016000151581526020016040518060c00160405280602863ffffffff168152602001602d63ffffffff168152602001602363ffffffff168152602001601e63ffffffff168152602001602863ffffffff168152602001603763ffffffff1681525081525090806001815401808255809150509060018203906000526020600020906007020160009091929091909150600082015181600001908051906020019063000077bf929190630001ddbe565b5060208201518160010155604082015181600201908051906020019063000077ea929190630001ddbe565b506060820151816003019080519060200190630000780b929190630001ddbe565b506080820151816004015560a08201518160050160006101000a81548160ff02191690831515021790555060c08201518160060160008201518160000160006101000a81548163ffffffff021916908363ffffffff16021790555060208201518160000160046101000a81548163ffffffff021916908363ffffffff16021790555060408201518160000160086101000a81548163ffffffff021916908363ffffffff160217905550606082015181600001600c6101000a81548163ffffffff021916908363ffffffff16021790555060808201518160000160106101000a81548163ffffffff021916908363ffffffff16021790555060a08201518160000160146101000a81548163ffffffff021916908363ffffffff160217905550505050505060036040518060e001604052806040518060400160405280600681526020017f476f6c62617400000000000000000000000000000000000000000000000000008152508152602001602a81526020016040518060400160405280600681526020017f506f69736f6e000000000000000000000000000000000000000000000000000081525081526020016040518060400160405280600681526020017f466c79696e67000000000000000000000000000000000000000000000000000081525081526020016101bd81526020016000151581526020016040518060c00160405280604b63ffffffff168152602001605063ffffffff168152602001604663ffffffff168152602001604163ffffffff168152602001604b63ffffffff168152602001605a63ffffffff168152508152509080600181540180825580915050906001820390600052602060002090600702016000909192909190915060008201518160000190805190602001906300007aa9929190630001ddbe565b506020820151816001015560408201518160020190805190602001906300007ad4929190630001ddbe565b5060608201518160030190805190602001906300007af5929190630001ddbe565b506080820151816004015560a08201518160050160006101000a81548160ff02191690831515021790555060c08201518160060160008201518160000160006101000a81548163ffffffff021916908363ffffffff16021790555060208201518160000160046101000a81548163ffffffff021916908363ffffffff16021790555060408201518160000160086101000a81548163ffffffff021916908363ffffffff160217905550606082015181600001600c6101000a81548163ffffffff021916908363ffffffff16021790555060808201518160000160106101000a81548163ffffffff021916908363ffffffff16021790555060a08201518160000160146101000a81548163ffffffff021916908363ffffffff160217905550505050505060036040518060e001604052806040518060400160405280600681526020017f4f646469736800000000000000000000000000000000000000000000000000008152508152602001602b81526020016040518060400160405280600581526020017f477261737300000000000000000000000000000000000000000000000000000081525081526020016040518060400160405280600681526020017f506f69736f6e0000000000000000000000000000000000000000000000000000815250815260200161024481526020016000151581526020016040518060c00160405280602d63ffffffff168152602001603263ffffffff168152602001603763ffffffff168152602001604b63ffffffff168152602001604163ffffffff168152602001601e63ffffffff168152508152509080600181540180825580915050906001820390600052602060002090600702016000909192909190915060008201518160000190805190602001906300007d93929190630001ddbe565b506020820151816001015560408201518160020190805190602001906300007dbe929190630001ddbe565b5060608201518160030190805190602001906300007ddf929190630001ddbe565b506080820151816004015560a08201518160050160006101000a81548160ff02191690831515021790555060c08201518160060160008201518160000160006101000a81548163ffffffff021916908363ffffffff16021790555060208201518160000160046101000a81548163ffffffff021916908363ffffffff16021790555060408201518160000160086101000a81548163ffffffff021916908363ffffffff160217905550606082015181600001600c6101000a81548163ffffffff021916908363ffffffff16021790555060808201518160000160106101000a81548163ffffffff021916908363ffffffff16021790555060a08201518160000160146101000a81548163ffffffff021916908363ffffffff160217905550505050505060036040518060e001604052806040518060400160405280600581526020017f476c6f6f6d0000000000000000000000000000000000000000000000000000008152508152602001602c81526020016040518060400160405280600581526020017f477261737300000000000000000000000000000000000000000000000000000081525081526020016040518060400160405280600681526020017f506f69736f6e000000000000000000000000000000000000000000000000000081525081526020016101f981526020016000151581526020016040518060c00160405280603c63ffffffff168152602001604163ffffffff168152602001604663ffffffff168152602001605563ffffffff168152602001604b63ffffffff168152602001602863ffffffff16815250815250908060018154018082558091505090600182039060005260206000209060070201600090919290919091506000820151816000019080519060200190630000807d929190630001ddbe565b5060208201518160010155604082015181600201908051906020019063000080a8929190630001ddbe565b50606082015181600301908051906020019063000080c9929190630001ddbe565b506080820151816004015560a08201518160050160006101000a81548160ff02191690831515021790555060c08201518160060160008201518160000160006101000a81548163ffffffff021916908363ffffffff16021790555060208201518160000160046101000a81548163ffffffff021916908363ffffffff16021790555060408201518160000160086101000a81548163ffffffff021916908363ffffffff160217905550606082015181600001600c6101000a81548163ffffffff021916908363ffffffff16021790555060808201518160000160106101000a81548163ffffffff021916908363ffffffff16021790555060a08201518160000160146101000a81548163ffffffff021916908363ffffffff160217905550505050505060036040518060e001604052806040518060400160405280600981526020017f56696c65706c756d6500000000000000000000000000000000000000000000008152508152602001602d81526020016040518060400160405280600581526020017f477261737300000000000000000000000000000000000000000000000000000081525081526020016040518060400160405280600681526020017f506f69736f6e0000000000000000000000000000000000000000000000000000815250815260200161019a81526020016000151581526020016040518060c00160405280604b63ffffffff168152602001605063ffffffff168152602001605563ffffffff168152602001606e63ffffffff168152602001605a63ffffffff168152602001603263ffffffff168152508152509080600181540180825580915050906001820390600052602060002090600702016000909192909190915060008201518160000190805190602001906300008367929190630001ddbe565b506020820151816001015560408201518160020190805190602001906300008392929190630001ddbe565b50606082015181600301908051906020019063000083b3929190630001ddbe565b506080820151816004015560a08201518160050160006101000a81548160ff02191690831515021790555060c08201518160060160008201518160000160006101000a81548163ffffffff021916908363ffffffff16021790555060208201518160000160046101000a81548163ffffffff021916908363ffffffff16021790555060408201518160000160086101000a81548163ffffffff021916908363ffffffff160217905550606082015181600001600c6101000a81548163ffffffff021916908363ffffffff16021790555060808201518160000160106101000a81548163ffffffff021916908363ffffffff16021790555060a08201518160000160146101000a81548163ffffffff021916908363ffffffff160217905550505050505060036040518060e001604052806040518060400160405280600581526020017f50617261730000000000000000000000000000000000000000000000000000008152508152602001602e81526020016040518060400160405280600381526020017f427567000000000000000000000000000000000000000000000000000000000081525081526020016040518060400160405280600581526020017f4772617373000000000000000000000000000000000000000000000000000000815250815260200161026781526020016000151581526020016040518060c00160405280602363ffffffff168152602001604663ffffffff168152602001603763ffffffff168152602001602d63ffffffff168152602001603763ffffffff168152602001601963ffffffff168152508152509080600181540180825580915050906001820390600052602060002090600702016000909192909190915060008201518160000190805190602001906300008651929190630001ddbe565b50602082015181600101556040820151816002019080519060200190630000867c929190630001ddbe565b506060820151816003019080519060200190630000869d929190630001ddbe565b506080820151816004015560a08201518160050160006101000a81548160ff02191690831515021790555060c08201518160060160008201518160000160006101000a81548163ffffffff021916908363ffffffff16021790555060208201518160000160046101000a81548163ffffffff021916908363ffffffff16021790555060408201518160000160086101000a81548163ffffffff021916908363ffffffff160217905550606082015181600001600c6101000a81548163ffffffff021916908363ffffffff16021790555060808201518160000160106101000a81548163ffffffff021916908363ffffffff16021790555060a08201518160000160146101000a81548163ffffffff021916908363ffffffff160217905550505050505060036040518060e001604052806040518060400160405280600881526020017f50617261736563740000000000000000000000000000000000000000000000008152508152602001602f81526020016040518060400160405280600381526020017f427567000000000000000000000000000000000000000000000000000000000081525081526020016040518060400160405280600581526020017f477261737300000000000000000000000000000000000000000000000000000081525081526020016101ef81526020016000151581526020016040518060c00160405280603c63ffffffff168152602001605f63ffffffff168152602001605063ffffffff168152602001603c63ffffffff168152602001605063ffffffff168152602001601e63ffffffff16815250815250908060018154018082558091505090600182039060005260206000209060070201600090919290919091506000820151816000019080519060200190630000893b929190630001ddbe565b506020820151816001015560408201518160020190805190602001906300008966929190630001ddbe565b5060608201518160030190805190602001906300008987929190630001ddbe565b506080820151816004015560a08201518160050160006101000a81548160ff02191690831515021790555060c08201518160060160008201518160000160006101000a81548163ffffffff021916908363ffffffff16021790555060208201518160000160046101000a81548163ffffffff021916908363ffffffff16021790555060408201518160000160086101000a81548163ffffffff021916908363ffffffff160217905550606082015181600001600c6101000a81548163ffffffff021916908363ffffffff16021790555060808201518160000160106101000a81548163ffffffff021916908363ffffffff16021790555060a08201518160000160146101000a81548163ffffffff021916908363ffffffff160217905550505050505060036040518060e001604052806040518060400160405280600781526020017f56656e6f6e6174000000000000000000000000000000000000000000000000008152508152602001603081526020016040518060400160405280600381526020017f427567000000000000000000000000000000000000000000000000000000000081525081526020016040518060400160405280600681526020017f506f69736f6e0000000000000000000000000000000000000000000000000000815250815260200161025381526020016000151581526020016040518060c00160405280603c63ffffffff168152602001603763ffffffff168152602001603263ffffffff168152602001602863ffffffff168152602001603763ffffffff168152602001602d63ffffffff168152508152509080600181540180825580915050906001820390600052602060002090600702016000909192909190915060008201518160000190805190602001906300008c25929190630001ddbe565b506020820151816001015560408201518160020190805190602001906300008c50929190630001ddbe565b5060608201518160030190805190602001906300008c71929190630001ddbe565b506080820151816004015560a08201518160050160006101000a81548160ff02191690831515021790555060c08201518160060160008201518160000160006101000a81548163ffffffff021916908363ffffffff16021790555060208201518160000160046101000a81548163ffffffff021916908363ffffffff16021790555060408201518160000160086101000a81548163ffffffff021916908363ffffffff160217905550606082015181600001600c6101000a81548163ffffffff021916908363ffffffff16021790555060808201518160000160106101000a81548163ffffffff021916908363ffffffff16021790555060a08201518160000160146101000a81548163ffffffff021916908363ffffffff160217905550505050505060036040518060e001604052806040518060400160405280600881526020017f56656e6f6d6f74680000000000000000000000000000000000000000000000008152508152602001603181526020016040518060400160405280600381526020017f427567000000000000000000000000000000000000000000000000000000000081525081526020016040518060400160405280600681526020017f506f69736f6e000000000000000000000000000000000000000000000000000081525081526020016101c281526020016000151581526020016040518060c00160405280604663ffffffff168152602001604163ffffffff168152602001603c63ffffffff168152602001605a63ffffffff168152602001604b63ffffffff168152602001605a63ffffffff168152508152509080600181540180825580915050906001820390600052602060002090600702016000909192909190915060008201518160000190805190602001906300008f0f929190630001ddbe565b506020820151816001015560408201518160020190805190602001906300008f3a929190630001ddbe565b5060608201518160030190805190602001906300008f5b929190630001ddbe565b506080820151816004015560a08201518160050160006101000a81548160ff02191690831515021790555060c08201518160060160008201518160000160006101000a81548163ffffffff021916908363ffffffff16021790555060208201518160000160046101000a81548163ffffffff021916908363ffffffff16021790555060408201518160000160086101000a81548163ffffffff021916908363ffffffff160217905550606082015181600001600c6101000a81548163ffffffff021916908363ffffffff16021790555060808201518160000160106101000a81548163ffffffff021916908363ffffffff16021790555060a08201518160000160146101000a81548163ffffffff021916908363ffffffff160217905550505050505060036040518060e001604052806040518060400160405280600781526020017f4469676c657474000000000000000000000000000000000000000000000000008152508152602001603281526020016040518060400160405280600681526020017f47726f756e64000000000000000000000000000000000000000000000000000081525081526020016040518060400160405280600381526020017f6e616e0000000000000000000000000000000000000000000000000000000000815250815260200161027b81526020016000151581526020016040518060c00160405280600a63ffffffff168152602001603763ffffffff168152602001601963ffffffff168152602001602363ffffffff168152602001602d63ffffffff168152602001605f63ffffffff1681525081525090806001815401808255809150509060018203906000526020600020906007020160009091929091909150600082015181600001908051906020019063000091f9929190630001ddbe565b506020820151816001015560408201518160020190805190602001906300009224929190630001ddbe565b5060608201518160030190805190602001906300009245929190630001ddbe565b506080820151816004015560a08201518160050160006101000a81548160ff02191690831515021790555060c08201518160060160008201518160000160006101000a81548163ffffffff021916908363ffffffff16021790555060208201518160000160046101000a81548163ffffffff021916908363ffffffff16021790555060408201518160000160086101000a81548163ffffffff021916908363ffffffff160217905550606082015181600001600c6101000a81548163ffffffff021916908363ffffffff16021790555060808201518160000160106101000a81548163ffffffff021916908363ffffffff16021790555060a08201518160000160146101000a81548163ffffffff021916908363ffffffff160217905550505050505060036040518060e001604052806040518060400160405280600781526020017f4475677472696f000000000000000000000000000000000000000000000000008152508152602001603381526020016040518060400160405280600681526020017f47726f756e64000000000000000000000000000000000000000000000000000081525081526020016040518060400160405280600381526020017f6e616e000000000000000000000000000000000000000000000000000000000081525081526020016101ef81526020016000151581526020016040518060c00160405280602363ffffffff168152602001605063ffffffff168152602001603263ffffffff168152602001603263ffffffff168152602001604663ffffffff168152602001607863ffffffff1681525081525090806001815401808255809150509060018203906000526020600020906007020160009091929091909150600082015181600001908051906020019063000094e3929190630001ddbe565b50602082015181600101556040820151816002019080519060200190630000950e929190630001ddbe565b506060820151816003019080519060200190630000952f929190630001ddbe565b506080820151816004015560a08201518160050160006101000a81548160ff02191690831515021790555060c08201518160060160008201518160000160006101000a81548163ffffffff021916908363ffffffff16021790555060208201518160000160046101000a81548163ffffffff021916908363ffffffff16021790555060408201518160000160086101000a81548163ffffffff021916908363ffffffff160217905550606082015181600001600c6101000a81548163ffffffff021916908363ffffffff16021790555060808201518160000160106101000a81548163ffffffff021916908363ffffffff16021790555060a08201518160000160146101000a81548163ffffffff021916908363ffffffff160217905550505050505060036040518060e001604052806040518060400160405280600681526020017f4d656f77746800000000000000000000000000000000000000000000000000008152508152602001603481526020016040518060400160405280600681526020017f4e6f726d616c000000000000000000000000000000000000000000000000000081525081526020016040518060400160405280600381526020017f6e616e0000000000000000000000000000000000000000000000000000000000815250815260200161026281526020016000151581526020016040518060c00160405280602863ffffffff168152602001602d63ffffffff168152602001602363ffffffff168152602001602863ffffffff168152602001602863ffffffff168152602001605a63ffffffff1681525081525090806001815401808255809150509060018203906000526020600020906007020160009091929091909150600082015181600001908051906020019063000097cd929190630001ddbe565b5060208201518160010155604082015181600201908051906020019063000097f8929190630001ddbe565b5060608201518160030190805190602001906300009819929190630001ddbe565b506080820151816004015560a08201518160050160006101000a81548160ff02191690831515021790555060c08201518160060160008201518160000160006101000a81548163ffffffff021916908363ffffffff16021790555060208201518160000160046101000a81548163ffffffff021916908363ffffffff16021790555060408201518160000160086101000a81548163ffffffff021916908363ffffffff160217905550606082015181600001600c6101000a81548163ffffffff021916908363ffffffff16021790555060808201518160000160106101000a81548163ffffffff021916908363ffffffff16021790555060a08201518160000160146101000a81548163ffffffff021916908363ffffffff160217905550505050505060036040518060e001604052806040518060400160405280600781526020017f5065727369616e000000000000000000000000000000000000000000000000008152508152602001603581526020016040518060400160405280600681526020017f4e6f726d616c000000000000000000000000000000000000000000000000000081525081526020016040518060400160405280600381526020017f6e616e000000000000000000000000000000000000000000000000000000000081525081526020016101cc81526020016000151581526020016040518060c00160405280604163ffffffff168152602001604663ffffffff168152602001603c63ffffffff168152602001604163ffffffff168152602001604163ffffffff168152602001607363ffffffff168152508152509080600181540180825580915050906001820390600052602060002090600702016000909192909190915060008201518160000190805190602001906300009ab7929190630001ddbe565b506020820151816001015560408201518160020190805190602001906300009ae2929190630001ddbe565b5060608201518160030190805190602001906300009b03929190630001ddbe565b506080820151816004015560a08201518160050160006101000a81548160ff02191690831515021790555060c08201518160060160008201518160000160006101000a81548163ffffffff021916908363ffffffff16021790555060208201518160000160046101000a81548163ffffffff021916908363ffffffff16021790555060408201518160000160086101000a81548163ffffffff021916908363ffffffff160217905550606082015181600001600c6101000a81548163ffffffff021916908363ffffffff16021790555060808201518160000160106101000a81548163ffffffff021916908363ffffffff16021790555060a08201518160000160146101000a81548163ffffffff021916908363ffffffff160217905550505050505060036040518060e001604052806040518060400160405280600781526020017f5073796475636b000000000000000000000000000000000000000000000000008152508152602001603681526020016040518060400160405280600581526020017f576174657200000000000000000000000000000000000000000000000000000081525081526020016040518060400160405280600381526020017f6e616e0000000000000000000000000000000000000000000000000000000000815250815260200161024481526020016000151581526020016040518060c00160405280603263ffffffff168152602001603463ffffffff168152602001603063ffffffff168152602001604163ffffffff168152602001603263ffffffff168152602001603763ffffffff168152508152509080600181540180825580915050906001820390600052602060002090600702016000909192909190915060008201518160000190805190602001906300009da1929190630001ddbe565b506020820151816001015560408201518160020190805190602001906300009dcc929190630001ddbe565b5060608201518160030190805190602001906300009ded929190630001ddbe565b506080820151816004015560a08201518160050160006101000a81548160ff02191690831515021790555060c08201518160060160008201518160000160006101000a81548163ffffffff021916908363ffffffff16021790555060208201518160000160046101000a81548163ffffffff021916908363ffffffff16021790555060408201518160000160086101000a81548163ffffffff021916908363ffffffff160217905550606082015181600001600c6101000a81548163ffffffff021916908363ffffffff16021790555060808201518160000160106101000a81548163ffffffff021916908363ffffffff16021790555060a08201518160000160146101000a81548163ffffffff021916908363ffffffff160217905550505050505060036040518060e001604052806040518060400160405280600781526020017f476f6c6475636b000000000000000000000000000000000000000000000000008152508152602001603781526020016040518060400160405280600581526020017f576174657200000000000000000000000000000000000000000000000000000081525081526020016040518060400160405280600381526020017f6e616e0000000000000000000000000000000000000000000000000000000000815250815260200161019081526020016000151581526020016040518060c00160405280605063ffffffff168152602001605263ffffffff168152602001604e63ffffffff168152602001605f63ffffffff168152602001605063ffffffff168152602001605563ffffffff16815250815250908060018154018082558091505090600182039060005260206000209060070201600090919290919091506000820151816000019080519060200190630000a08b929190630001ddbe565b50602082015181600101556040820151816002019080519060200190630000a0b6929190630001ddbe565b506060820151816003019080519060200190630000a0d7929190630001ddbe565b506080820151816004015560a08201518160050160006101000a81548160ff02191690831515021790555060c08201518160060160008201518160000160006101000a81548163ffffffff021916908363ffffffff16021790555060208201518160000160046101000a81548163ffffffff021916908363ffffffff16021790555060408201518160000160086101000a81548163ffffffff021916908363ffffffff160217905550606082015181600001600c6101000a81548163ffffffff021916908363ffffffff16021790555060808201518160000160106101000a81548163ffffffff021916908363ffffffff16021790555060a08201518160000160146101000a81548163ffffffff021916908363ffffffff160217905550505050505060036040518060e001604052806040518060400160405280600681526020017f4d616e6b657900000000000000000000000000000000000000000000000000008152508152602001603881526020016040518060400160405280600881526020017f4669676874696e6700000000000000000000000000000000000000000000000081525081526020016040518060400160405280600381526020017f6e616e0000000000000000000000000000000000000000000000000000000000815250815260200161025381526020016000151581526020016040518060c00160405280602863ffffffff168152602001605063ffffffff168152602001602363ffffffff168152602001602363ffffffff168152602001602d63ffffffff168152602001604663ffffffff16815250815250908060018154018082558091505090600182039060005260206000209060070201600090919290919091506000820151816000019080519060200190630000a375929190630001ddbe565b50602082015181600101556040820151816002019080519060200190630000a3a0929190630001ddbe565b506060820151816003019080519060200190630000a3c1929190630001ddbe565b506080820151816004015560a08201518160050160006101000a81548160ff02191690831515021790555060c08201518160060160008201518160000160006101000a81548163ffffffff021916908363ffffffff16021790555060208201518160000160046101000a81548163ffffffff021916908363ffffffff16021790555060408201518160000160086101000a81548163ffffffff021916908363ffffffff160217905550606082015181600001600c6101000a81548163ffffffff021916908363ffffffff16021790555060808201518160000160106101000a81548163ffffffff021916908363ffffffff16021790555060a08201518160000160146101000a81548163ffffffff021916908363ffffffff160217905550505050505060036040518060e001604052806040518060400160405280600881526020017f5072696d656170650000000000000000000000000000000000000000000000008152508152602001603981526020016040518060400160405280600881526020017f4669676874696e6700000000000000000000000000000000000000000000000081525081526020016040518060400160405280600381526020017f6e616e000000000000000000000000000000000000000000000000000000000081525081526020016101bd81526020016000151581526020016040518060c00160405280604163ffffffff168152602001606963ffffffff168152602001603c63ffffffff168152602001603c63ffffffff168152602001604663ffffffff168152602001605f63ffffffff16815250815250908060018154018082558091505090600182039060005260206000209060070201600090919290919091506000820151816000019080519060200190630000a65f929190630001ddbe565b50602082015181600101556040820151816002019080519060200190630000a68a929190630001ddbe565b506060820151816003019080519060200190630000a6ab929190630001ddbe565b506080820151816004015560a08201518160050160006101000a81548160ff02191690831515021790555060c08201518160060160008201518160000160006101000a81548163ffffffff021916908363ffffffff16021790555060208201518160000160046101000a81548163ffffffff021916908363ffffffff16021790555060408201518160000160086101000a81548163ffffffff021916908363ffffffff160217905550606082015181600001600c6101000a81548163ffffffff021916908363ffffffff16021790555060808201518160000160106101000a81548163ffffffff021916908363ffffffff16021790555060a08201518160000160146101000a81548163ffffffff021916908363ffffffff160217905550505050505060036040518060e001604052806040518060400160405280600981526020017f47726f776c6974686500000000000000000000000000000000000000000000008152508152602001603a81526020016040518060400160405280600481526020017f466972650000000000000000000000000000000000000000000000000000000081525081526020016040518060400160405280600381526020017f6e616e0000000000000000000000000000000000000000000000000000000000815250815260200161022681526020016000151581526020016040518060c00160405280603763ffffffff168152602001604663ffffffff168152602001602d63ffffffff168152602001604663ffffffff168152602001603263ffffffff168152602001603c63ffffffff16815250815250908060018154018082558091505090600182039060005260206000209060070201600090919290919091506000820151816000019080519060200190630000a949929190630001ddbe565b50602082015181600101556040820151816002019080519060200190630000a974929190630001ddbe565b506060820151816003019080519060200190630000a995929190630001ddbe565b506080820151816004015560a08201518160050160006101000a81548160ff02191690831515021790555060c08201518160060160008201518160000160006101000a81548163ffffffff021916908363ffffffff16021790555060208201518160000160046101000a81548163ffffffff021916908363ffffffff16021790555060408201518160000160086101000a81548163ffffffff021916908363ffffffff160217905550606082015181600001600c6101000a81548163ffffffff021916908363ffffffff16021790555060808201518160000160106101000a81548163ffffffff021916908363ffffffff16021790555060a08201518160000160146101000a81548163ffffffff021916908363ffffffff160217905550505050505060036040518060e001604052806040518060400160405280600881526020017f417263616e696e650000000000000000000000000000000000000000000000008152508152602001603b81526020016040518060400160405280600481526020017f466972650000000000000000000000000000000000000000000000000000000081525081526020016040518060400160405280600381526020017f6e616e0000000000000000000000000000000000000000000000000000000000815250815260200161015981526020016000151581526020016040518060c00160405280605a63ffffffff168152602001606e63ffffffff168152602001605063ffffffff168152602001606463ffffffff168152602001605063ffffffff168152602001605f63ffffffff16815250815250908060018154018082558091505090600182039060005260206000209060070201600090919290919091506000820151816000019080519060200190630000ac33929190630001ddbe565b50602082015181600101556040820151816002019080519060200190630000ac5e929190630001ddbe565b506060820151816003019080519060200190630000ac7f929190630001ddbe565b506080820151816004015560a08201518160050160006101000a81548160ff02191690831515021790555060c08201518160060160008201518160000160006101000a81548163ffffffff021916908363ffffffff16021790555060208201518160000160046101000a81548163ffffffff021916908363ffffffff16021790555060408201518160000160086101000a81548163ffffffff021916908363ffffffff160217905550606082015181600001600c6101000a81548163ffffffff021916908363ffffffff16021790555060808201518160000160106101000a81548163ffffffff021916908363ffffffff16021790555060a08201518160000160146101000a81548163ffffffff021916908363ffffffff160217905550505050505060036040518060e001604052806040518060400160405280600781526020017f506f6c69776167000000000000000000000000000000000000000000000000008152508152602001603c81526020016040518060400160405280600581526020017f576174657200000000000000000000000000000000000000000000000000000081525081526020016040518060400160405280600381526020017f6e616e0000000000000000000000000000000000000000000000000000000000815250815260200161025881526020016000151581526020016040518060c00160405280602863ffffffff168152602001603263ffffffff168152602001602863ffffffff168152602001602863ffffffff168152602001602863ffffffff168152602001605a63ffffffff16815250815250908060018154018082558091505090600182039060005260206000209060070201600090919290919091506000820151816000019080519060200190630000af1d929190630001ddbe565b50602082015181600101556040820151816002019080519060200190630000af48929190630001ddbe565b506060820151816003019080519060200190630000af69929190630001ddbe565b506080820151816004015560a08201518160050160006101000a81548160ff02191690831515021790555060c08201518160060160008201518160000160006101000a81548163ffffffff021916908363ffffffff16021790555060208201518160000160046101000a81548163ffffffff021916908363ffffffff16021790555060408201518160000160086101000a81548163ffffffff021916908363ffffffff160217905550606082015181600001600c6101000a81548163ffffffff021916908363ffffffff16021790555060808201518160000160106101000a81548163ffffffff021916908363ffffffff16021790555060a08201518160000160146101000a81548163ffffffff021916908363ffffffff160217905550505050505060036040518060e001604052806040518060400160405280600981526020017f506f6c69776869726c00000000000000000000000000000000000000000000008152508152602001603d81526020016040518060400160405280600581526020017f576174657200000000000000000000000000000000000000000000000000000081525081526020016040518060400160405280600381526020017f6e616e0000000000000000000000000000000000000000000000000000000000815250815260200161020381526020016000151581526020016040518060c00160405280604163ffffffff168152602001604163ffffffff168152602001604163ffffffff168152602001603263ffffffff168152602001603263ffffffff168152602001605a63ffffffff16815250815250908060018154018082558091505090600182039060005260206000209060070201600090919290919091506000820151816000019080519060200190630000b207929190630001ddbe565b50602082015181600101556040820151816002019080519060200190630000b232929190630001ddbe565b506060820151816003019080519060200190630000b253929190630001ddbe565b506080820151816004015560a08201518160050160006101000a81548160ff02191690831515021790555060c08201518160060160008201518160000160006101000a81548163ffffffff021916908363ffffffff16021790555060208201518160000160046101000a81548163ffffffff021916908363ffffffff16021790555060408201518160000160086101000a81548163ffffffff021916908363ffffffff160217905550606082015181600001600c6101000a81548163ffffffff021916908363ffffffff16021790555060808201518160000160106101000a81548163ffffffff021916908363ffffffff16021790555060a08201518160000160146101000a81548163ffffffff021916908363ffffffff160217905550505050505060036040518060e001604052806040518060400160405280600981526020017f506f6c69777261746800000000000000000000000000000000000000000000008152508152602001603e81526020016040518060400160405280600581526020017f576174657200000000000000000000000000000000000000000000000000000081525081526020016040518060400160405280600881526020017f4669676874696e67000000000000000000000000000000000000000000000000815250815260200161018681526020016000151581526020016040518060c00160405280605a63ffffffff168152602001605f63ffffffff168152602001605f63ffffffff168152602001604663ffffffff168152602001605a63ffffffff168152602001604663ffffffff16815250815250908060018154018082558091505090600182039060005260206000209060070201600090919290919091506000820151816000019080519060200190630000b4f1929190630001ddbe565b50602082015181600101556040820151816002019080519060200190630000b51c929190630001ddbe565b506060820151816003019080519060200190630000b53d929190630001ddbe565b506080820151816004015560a08201518160050160006101000a81548160ff02191690831515021790555060c08201518160060160008201518160000160006101000a81548163ffffffff021916908363ffffffff16021790555060208201518160000160046101000a81548163ffffffff021916908363ffffffff16021790555060408201518160000160086101000a81548163ffffffff021916908363ffffffff160217905550606082015181600001600c6101000a81548163ffffffff021916908363ffffffff16021790555060808201518160000160106101000a81548163ffffffff021916908363ffffffff16021790555060a08201518160000160146101000a81548163ffffffff021916908363ffffffff160217905550505050505060036040518060e001604052806040518060400160405280600481526020017f41627261000000000000000000000000000000000000000000000000000000008152508152602001603f81526020016040518060400160405280600781526020017f507379636869630000000000000000000000000000000000000000000000000081525081526020016040518060400160405280600381526020017f6e616e0000000000000000000000000000000000000000000000000000000000815250815260200161024e81526020016000151581526020016040518060c00160405280601963ffffffff168152602001601463ffffffff168152602001600f63ffffffff168152602001606963ffffffff168152602001603763ffffffff168152602001605a63ffffffff16815250815250908060018154018082558091505090600182039060005260206000209060070201600090919290919091506000820151816000019080519060200190630000b7db929190630001ddbe565b50602082015181600101556040820151816002019080519060200190630000b806929190630001ddbe565b506060820151816003019080519060200190630000b827929190630001ddbe565b506080820151816004015560a08201518160050160006101000a81548160ff02191690831515021790555060c08201518160060160008201518160000160006101000a81548163ffffffff021916908363ffffffff16021790555060208201518160000160046101000a81548163ffffffff021916908363ffffffff16021790555060408201518160000160086101000a81548163ffffffff021916908363ffffffff160217905550606082015181600001600c6101000a81548163ffffffff021916908363ffffffff16021790555060808201518160000160106101000a81548163ffffffff021916908363ffffffff16021790555060a08201518160000160146101000a81548163ffffffff021916908363ffffffff160217905550505050505060036040518060e001604052806040518060400160405280600781526020017f4b616461627261000000000000000000000000000000000000000000000000008152508152602001604081526020016040518060400160405280600781526020017f507379636869630000000000000000000000000000000000000000000000000081525081526020016040518060400160405280600381526020017f6e616e000000000000000000000000000000000000000000000000000000000081525081526020016101f481526020016000151581526020016040518060c00160405280602863ffffffff168152602001602363ffffffff168152602001601e63ffffffff168152602001607863ffffffff168152602001604663ffffffff168152602001606963ffffffff16815250815250908060018154018082558091505090600182039060005260206000209060070201600090919290919091506000820151816000019080519060200190630000bac5929190630001ddbe565b50602082015181600101556040820151816002019080519060200190630000baf0929190630001ddbe565b506060820151816003019080519060200190630000bb11929190630001ddbe565b506080820151816004015560a08201518160050160006101000a81548160ff02191690831515021790555060c08201518160060160008201518160000160006101000a81548163ffffffff021916908363ffffffff16021790555060208201518160000160046101000a81548163ffffffff021916908363ffffffff16021790555060408201518160000160086101000a81548163ffffffff021916908363ffffffff160217905550606082015181600001600c6101000a81548163ffffffff021916908363ffffffff16021790555060808201518160000160106101000a81548163ffffffff021916908363ffffffff16021790555060a08201518160000160146101000a81548163ffffffff021916908363ffffffff160217905550505050505060036040518060e001604052806040518060400160405280600881526020017f416c616b617a616d0000000000000000000000000000000000000000000000008152508152602001604181526020016040518060400160405280600781526020017f507379636869630000000000000000000000000000000000000000000000000081525081526020016040518060400160405280600381526020017f6e616e0000000000000000000000000000000000000000000000000000000000815250815260200161019081526020016000151581526020016040518060c00160405280603763ffffffff168152602001603263ffffffff168152602001602d63ffffffff168152602001608763ffffffff168152602001605f63ffffffff168152602001607863ffffffff16815250815250908060018154018082558091505090600182039060005260206000209060070201600090919290919091506000820151816000019080519060200190630000bdaf929190630001ddbe565b50602082015181600101556040820151816002019080519060200190630000bdda929190630001ddbe565b506060820151816003019080519060200190630000bdfb929190630001ddbe565b506080820151816004015560a08201518160050160006101000a81548160ff02191690831515021790555060c08201518160060160008201518160000160006101000a81548163ffffffff021916908363ffffffff16021790555060208201518160000160046101000a81548163ffffffff021916908363ffffffff16021790555060408201518160000160086101000a81548163ffffffff021916908363ffffffff160217905550606082015181600001600c6101000a81548163ffffffff021916908363ffffffff16021790555060808201518160000160106101000a81548163ffffffff021916908363ffffffff16021790555060a08201518160000160146101000a81548163ffffffff021916908363ffffffff160217905550505050505060036040518060e001604052806040518060400160405280600681526020017f4d6163686f7000000000000000000000000000000000000000000000000000008152508152602001604281526020016040518060400160405280600881526020017f4669676874696e6700000000000000000000000000000000000000000000000081525081526020016040518060400160405280600381526020017f6e616e0000000000000000000000000000000000000000000000000000000000815250815260200161025381526020016000151581526020016040518060c00160405280604663ffffffff168152602001605063ffffffff168152602001603263ffffffff168152602001602363ffffffff168152602001602363ffffffff168152602001602363ffffffff16815250815250908060018154018082558091505090600182039060005260206000209060070201600090919290919091506000820151816000019080519060200190630000c099929190630001ddbe565b50602082015181600101556040820151816002019080519060200190630000c0c4929190630001ddbe565b506060820151816003019080519060200190630000c0e5929190630001ddbe565b506080820151816004015560a08201518160050160006101000a81548160ff02191690831515021790555060c08201518160060160008201518160000160006101000a81548163ffffffff021916908363ffffffff16021790555060208201518160000160046101000a81548163ffffffff021916908363ffffffff16021790555060408201518160000160086101000a81548163ffffffff021916908363ffffffff160217905550606082015181600001600c6101000a81548163ffffffff021916908363ffffffff16021790555060808201518160000160106101000a81548163ffffffff021916908363ffffffff16021790555060a08201518160000160146101000a81548163ffffffff021916908363ffffffff160217905550505050505060036040518060e001604052806040518060400160405280600781526020017f4d6163686f6b65000000000000000000000000000000000000000000000000008152508152602001604381526020016040518060400160405280600881526020017f4669676874696e6700000000000000000000000000000000000000000000000081525081526020016040518060400160405280600381526020017f6e616e000000000000000000000000000000000000000000000000000000000081525081526020016101ef81526020016000151581526020016040518060c00160405280605063ffffffff168152602001606463ffffffff168152602001604663ffffffff168152602001603263ffffffff168152602001603c63ffffffff168152602001602d63ffffffff16815250815250908060018154018082558091505090600182039060005260206000209060070201600090919290919091506000820151816000019080519060200190630000c383929190630001ddbe565b50602082015181600101556040820151816002019080519060200190630000c3ae929190630001ddbe565b506060820151816003019080519060200190630000c3cf929190630001ddbe565b506080820151816004015560a08201518160050160006101000a81548160ff02191690831515021790555060c08201518160060160008201518160000160006101000a81548163ffffffff021916908363ffffffff16021790555060208201518160000160046101000a81548163ffffffff021916908363ffffffff16021790555060408201518160000160086101000a81548163ffffffff021916908363ffffffff160217905550606082015181600001600c6101000a81548163ffffffff021916908363ffffffff16021790555060808201518160000160106101000a81548163ffffffff021916908363ffffffff16021790555060a08201518160000160146101000a81548163ffffffff021916908363ffffffff160217905550505050505060036040518060e001604052806040518060400160405280600781526020017f4d616368616d70000000000000000000000000000000000000000000000000008152508152602001604481526020016040518060400160405280600881526020017f4669676874696e6700000000000000000000000000000000000000000000000081525081526020016040518060400160405280600381526020017f6e616e0000000000000000000000000000000000000000000000000000000000815250815260200161018b81526020016000151581526020016040518060c00160405280605a63ffffffff168152602001608263ffffffff168152602001605063ffffffff168152602001604163ffffffff168152602001605563ffffffff168152602001603763ffffffff16815250815250908060018154018082558091505090600182039060005260206000209060070201600090919290919091506000820151816000019080519060200190630000c66d929190630001ddbe565b50602082015181600101556040820151816002019080519060200190630000c698929190630001ddbe565b506060820151816003019080519060200190630000c6b9929190630001ddbe565b506080820151816004015560a08201518160050160006101000a81548160ff02191690831515021790555060c08201518160060160008201518160000160006101000a81548163ffffffff021916908363ffffffff16021790555060208201518160000160046101000a81548163ffffffff021916908363ffffffff16021790555060408201518160000160086101000a81548163ffffffff021916908363ffffffff160217905550606082015181600001600c6101000a81548163ffffffff021916908363ffffffff16021790555060808201518160000160106101000a81548163ffffffff021916908363ffffffff16021790555060a08201518160000160146101000a81548163ffffffff021916908363ffffffff160217905550505050505060036040518060e001604052806040518060400160405280600a81526020017f42656c6c7370726f7574000000000000000000000000000000000000000000008152508152602001604581526020016040518060400160405280600581526020017f477261737300000000000000000000000000000000000000000000000000000081525081526020016040518060400160405280600681526020017f506f69736f6e0000000000000000000000000000000000000000000000000000815250815260200161025881526020016000151581526020016040518060c00160405280603263ffffffff168152602001604b63ffffffff168152602001602363ffffffff168152602001604663ffffffff168152602001601e63ffffffff168152602001602863ffffffff16815250815250908060018154018082558091505090600182039060005260206000209060070201600090919290919091506000820151816000019080519060200190630000c957929190630001ddbe565b50602082015181600101556040820151816002019080519060200190630000c982929190630001ddbe565b506060820151816003019080519060200190630000c9a3929190630001ddbe565b506080820151816004015560a08201518160050160006101000a81548160ff02191690831515021790555060c08201518160060160008201518160000160006101000a81548163ffffffff021916908363ffffffff16021790555060208201518160000160046101000a81548163ffffffff021916908363ffffffff16021790555060408201518160000160086101000a81548163ffffffff021916908363ffffffff160217905550606082015181600001600c6101000a81548163ffffffff021916908363ffffffff16021790555060808201518160000160106101000a81548163ffffffff021916908363ffffffff16021790555060a08201518160000160146101000a81548163ffffffff021916908363ffffffff160217905550505050505060036040518060e001604052806040518060400160405280600a81526020017f57656570696e62656c6c000000000000000000000000000000000000000000008152508152602001604681526020016040518060400160405280600581526020017f477261737300000000000000000000000000000000000000000000000000000081525081526020016040518060400160405280600681526020017f506f69736f6e000000000000000000000000000000000000000000000000000081525081526020016101fe81526020016000151581526020016040518060c00160405280604163ffffffff168152602001605a63ffffffff168152602001603263ffffffff168152602001605563ffffffff168152602001602d63ffffffff168152602001603763ffffffff16815250815250908060018154018082558091505090600182039060005260206000209060070201600090919290919091506000820151816000019080519060200190630000cc41929190630001ddbe565b50602082015181600101556040820151816002019080519060200190630000cc6c929190630001ddbe565b506060820151816003019080519060200190630000cc8d929190630001ddbe565b506080820151816004015560a08201518160050160006101000a81548160ff02191690831515021790555060c08201518160060160008201518160000160006101000a81548163ffffffff021916908363ffffffff16021790555060208201518160000160046101000a81548163ffffffff021916908363ffffffff16021790555060408201518160000160086101000a81548163ffffffff021916908363ffffffff160217905550606082015181600001600c6101000a81548163ffffffff021916908363ffffffff16021790555060808201518160000160106101000a81548163ffffffff021916908363ffffffff16021790555060a08201518160000160146101000a81548163ffffffff021916908363ffffffff160217905550505050505060036040518060e001604052806040518060400160405280600a81526020017f5669637472656562656c000000000000000000000000000000000000000000008152508152602001604781526020016040518060400160405280600581526020017f477261737300000000000000000000000000000000000000000000000000000081525081526020016040518060400160405280600681526020017f506f69736f6e0000000000000000000000000000000000000000000000000000815250815260200161019a81526020016000151581526020016040518060c00160405280605063ffffffff168152602001606963ffffffff168152602001604163ffffffff168152602001606463ffffffff168152602001604663ffffffff168152602001604663ffffffff16815250815250908060018154018082558091505090600182039060005260206000209060070201600090919290919091506000820151816000019080519060200190630000cf2b929190630001ddbe565b50602082015181600101556040820151816002019080519060200190630000cf56929190630001ddbe565b506060820151816003019080519060200190630000cf77929190630001ddbe565b506080820151816004015560a08201518160050160006101000a81548160ff02191690831515021790555060c08201518160060160008201518160000160006101000a81548163ffffffff021916908363ffffffff16021790555060208201518160000160046101000a81548163ffffffff021916908363ffffffff16021790555060408201518160000160086101000a81548163ffffffff021916908363ffffffff160217905550606082015181600001600c6101000a81548163ffffffff021916908363ffffffff16021790555060808201518160000160106101000a81548163ffffffff021916908363ffffffff16021790555060a08201518160000160146101000a81548163ffffffff021916908363ffffffff160217905550505050505060036040518060e001604052806040518060400160405280600981526020017f54656e7461636f6f6c00000000000000000000000000000000000000000000008152508152602001604881526020016040518060400160405280600581526020017f576174657200000000000000000000000000000000000000000000000000000081525081526020016040518060400160405280600681526020017f506f69736f6e0000000000000000000000000000000000000000000000000000815250815260200161023581526020016000151581526020016040518060c00160405280602863ffffffff168152602001602863ffffffff168152602001602363ffffffff168152602001603263ffffffff168152602001606463ffffffff168152602001604663ffffffff16815250815250908060018154018082558091505090600182039060005260206000209060070201600090919290919091506000820151816000019080519060200190630000d215929190630001ddbe565b50602082015181600101556040820151816002019080519060200190630000d240929190630001ddbe565b506060820151816003019080519060200190630000d261929190630001ddbe565b506080820151816004015560a08201518160050160006101000a81548160ff02191690831515021790555060c08201518160060160008201518160000160006101000a81548163ffffffff021916908363ffffffff16021790555060208201518160000160046101000a81548163ffffffff021916908363ffffffff16021790555060408201518160000160086101000a81548163ffffffff021916908363ffffffff160217905550606082015181600001600c6101000a81548163ffffffff021916908363ffffffff16021790555060808201518160000160106101000a81548163ffffffff021916908363ffffffff16021790555060a08201518160000160146101000a81548163ffffffff021916908363ffffffff160217905550505050505060036040518060e001604052806040518060400160405280600a81526020017f54656e7461637275656c000000000000000000000000000000000000000000008152508152602001604981526020016040518060400160405280600581526020017f576174657200000000000000000000000000000000000000000000000000000081525081526020016040518060400160405280600681526020017f506f69736f6e0000000000000000000000000000000000000000000000000000815250815260200161018181526020016000151581526020016040518060c00160405280605063ffffffff168152602001604663ffffffff168152602001604163ffffffff168152602001605063ffffffff168152602001607863ffffffff168152602001606463ffffffff16815250815250908060018154018082558091505090600182039060005260206000209060070201600090919290919091506000820151816000019080519060200190630000d4ff929190630001ddbe565b50602082015181600101556040820151816002019080519060200190630000d52a929190630001ddbe565b506060820151816003019080519060200190630000d54b929190630001ddbe565b506080820151816004015560a08201518160050160006101000a81548160ff02191690831515021790555060c08201518160060160008201518160000160006101000a81548163ffffffff021916908363ffffffff16021790555060208201518160000160046101000a81548163ffffffff021916908363ffffffff16021790555060408201518160000160086101000a81548163ffffffff021916908363ffffffff160217905550606082015181600001600c6101000a81548163ffffffff021916908363ffffffff16021790555060808201518160000160106101000a81548163ffffffff021916908363ffffffff16021790555060a08201518160000160146101000a81548163ffffffff021916908363ffffffff160217905550505050505060036040518060e001604052806040518060400160405280600781526020017f47656f64756465000000000000000000000000000000000000000000000000008152508152602001604a81526020016040518060400160405280600481526020017f526f636b0000000000000000000000000000000000000000000000000000000081525081526020016040518060400160405280600681526020017f47726f756e640000000000000000000000000000000000000000000000000000815250815260200161025881526020016000151581526020016040518060c00160405280602863ffffffff168152602001605063ffffffff168152602001606463ffffffff168152602001601e63ffffffff168152602001601e63ffffffff168152602001601463ffffffff16815250815250908060018154018082558091505090600182039060005260206000209060070201600090919290919091506000820151816000019080519060200190630000d7e9929190630001ddbe565b50602082015181600101556040820151816002019080519060200190630000d814929190630001ddbe565b506060820151816003019080519060200190630000d835929190630001ddbe565b506080820151816004015560a08201518160050160006101000a81548160ff02191690831515021790555060c08201518160060160008201518160000160006101000a81548163ffffffff021916908363ffffffff16021790555060208201518160000160046101000a81548163ffffffff021916908363ffffffff16021790555060408201518160000160086101000a81548163ffffffff021916908363ffffffff160217905550606082015181600001600c6101000a81548163ffffffff021916908363ffffffff16021790555060808201518160000160106101000a81548163ffffffff021916908363ffffffff16021790555060a08201518160000160146101000a81548163ffffffff021916908363ffffffff160217905550505050505060036040518060e001604052806040518060400160405280600881526020017f47726176656c65720000000000000000000000000000000000000000000000008152508152602001604b81526020016040518060400160405280600481526020017f526f636b0000000000000000000000000000000000000000000000000000000081525081526020016040518060400160405280600681526020017f47726f756e64000000000000000000000000000000000000000000000000000081525081526020016101fe81526020016000151581526020016040518060c00160405280603763ffffffff168152602001605f63ffffffff168152602001607363ffffffff168152602001602d63ffffffff168152602001602d63ffffffff168152602001602363ffffffff16815250815250908060018154018082558091505090600182039060005260206000209060070201600090919290919091506000820151816000019080519060200190630000dad3929190630001ddbe565b50602082015181600101556040820151816002019080519060200190630000dafe929190630001ddbe565b506060820151816003019080519060200190630000db1f929190630001ddbe565b506080820151816004015560a08201518160050160006101000a81548160ff02191690831515021790555060c08201518160060160008201518160000160006101000a81548163ffffffff021916908363ffffffff16021790555060208201518160000160046101000a81548163ffffffff021916908363ffffffff16021790555060408201518160000160086101000a81548163ffffffff021916908363ffffffff160217905550606082015181600001600c6101000a81548163ffffffff021916908363ffffffff16021790555060808201518160000160106101000a81548163ffffffff021916908363ffffffff16021790555060a08201518160000160146101000a81548163ffffffff021916908363ffffffff160217905550505050505060036040518060e001604052806040518060400160405280600581526020017f476f6c656d0000000000000000000000000000000000000000000000000000008152508152602001604c81526020016040518060400160405280600481526020017f526f636b0000000000000000000000000000000000000000000000000000000081525081526020016040518060400160405280600681526020017f47726f756e640000000000000000000000000000000000000000000000000000815250815260200161019581526020016000151581526020016040518060c00160405280605063ffffffff168152602001607863ffffffff168152602001608263ffffffff168152602001603763ffffffff168152602001604163ffffffff168152602001602d63ffffffff16815250815250908060018154018082558091505090600182039060005260206000209060070201600090919290919091506000820151816000019080519060200190630000ddbd929190630001ddbe565b50602082015181600101556040820151816002019080519060200190630000dde8929190630001ddbe565b506060820151816003019080519060200190630000de09929190630001ddbe565b506080820151816004015560a08201518160050160006101000a81548160ff02191690831515021790555060c08201518160060160008201518160000160006101000a81548163ffffffff021916908363ffffffff16021790555060208201518160000160046101000a81548163ffffffff021916908363ffffffff16021790555060408201518160000160086101000a81548163ffffffff021916908363ffffffff160217905550606082015181600001600c6101000a81548163ffffffff021916908363ffffffff16021790555060808201518160000160106101000a81548163ffffffff021916908363ffffffff16021790555060a08201518160000160146101000a81548163ffffffff021916908363ffffffff160217905550505050505060036040518060e001604052806040518060400160405280600681526020017f506f6e79746100000000000000000000000000000000000000000000000000008152508152602001604d81526020016040518060400160405280600481526020017f466972650000000000000000000000000000000000000000000000000000000081525081526020016040518060400160405280600381526020017f6e616e000000000000000000000000000000000000000000000000000000000081525081526020016101ea81526020016000151581526020016040518060c00160405280603263ffffffff168152602001605563ffffffff168152602001603763ffffffff168152602001604163ffffffff168152602001604163ffffffff168152602001605a63ffffffff16815250815250908060018154018082558091505090600182039060005260206000209060070201600090919290919091506000820151816000019080519060200190630000e0a7929190630001ddbe565b50602082015181600101556040820151816002019080519060200190630000e0d2929190630001ddbe565b506060820151816003019080519060200190630000e0f3929190630001ddbe565b506080820151816004015560a08201518160050160006101000a81548160ff02191690831515021790555060c08201518160060160008201518160000160006101000a81548163ffffffff021916908363ffffffff16021790555060208201518160000160046101000a81548163ffffffff021916908363ffffffff16021790555060408201518160000160086101000a81548163ffffffff021916908363ffffffff160217905550606082015181600001600c6101000a81548163ffffffff021916908363ffffffff16021790555060808201518160000160106101000a81548163ffffffff021916908363ffffffff16021790555060a08201518160000160146101000a81548163ffffffff021916908363ffffffff160217905550505050505060036040518060e001604052806040518060400160405280600881526020017f52617069646173680000000000000000000000000000000000000000000000008152508152602001604e81526020016040518060400160405280600481526020017f466972650000000000000000000000000000000000000000000000000000000081525081526020016040518060400160405280600381526020017f6e616e0000000000000000000000000000000000000000000000000000000000815250815260200161019081526020016000151581526020016040518060c00160405280604163ffffffff168152602001606463ffffffff168152602001604663ffffffff168152602001605063ffffffff168152602001605063ffffffff168152602001606963ffffffff16815250815250908060018154018082558091505090600182039060005260206000209060070201600090919290919091506000820151816000019080519060200190630000e391929190630001ddbe565b50602082015181600101556040820151816002019080519060200190630000e3bc929190630001ddbe565b506060820151816003019080519060200190630000e3dd929190630001ddbe565b506080820151816004015560a08201518160050160006101000a81548160ff02191690831515021790555060c08201518160060160008201518160000160006101000a81548163ffffffff021916908363ffffffff16021790555060208201518160000160046101000a81548163ffffffff021916908363ffffffff16021790555060408201518160000160086101000a81548163ffffffff021916908363ffffffff160217905550606082015181600001600c6101000a81548163ffffffff021916908363ffffffff16021790555060808201518160000160106101000a81548163ffffffff021916908363ffffffff16021790555060a08201518160000160146101000a81548163ffffffff021916908363ffffffff160217905550505050505060036040518060e001604052806040518060400160405280600881526020017f536c6f77706f6b650000000000000000000000000000000000000000000000008152508152602001604f81526020016040518060400160405280600581526020017f576174657200000000000000000000000000000000000000000000000000000081525081526020016040518060400160405280600781526020017f5073796368696300000000000000000000000000000000000000000000000000815250815260200161024981526020016000151581526020016040518060c00160405280605a63ffffffff168152602001604163ffffffff168152602001604163ffffffff168152602001602863ffffffff168152602001602863ffffffff168152602001600f63ffffffff16815250815250908060018154018082558091505090600182039060005260206000209060070201600090919290919091506000820151816000019080519060200190630000e67b929190630001ddbe565b50602082015181600101556040820151816002019080519060200190630000e6a6929190630001ddbe565b506060820151816003019080519060200190630000e6c7929190630001ddbe565b506080820151816004015560a08201518160050160006101000a81548160ff02191690831515021790555060c08201518160060160008201518160000160006101000a81548163ffffffff021916908363ffffffff16021790555060208201518160000160046101000a81548163ffffffff021916908363ffffffff16021790555060408201518160000160086101000a81548163ffffffff021916908363ffffffff160217905550606082015181600001600c6101000a81548163ffffffff021916908363ffffffff16021790555060808201518160000160106101000a81548163ffffffff021916908363ffffffff16021790555060a08201518160000160146101000a81548163ffffffff021916908363ffffffff160217905550505050505060036040518060e001604052806040518060400160405280600781526020017f536c6f7762726f000000000000000000000000000000000000000000000000008152508152602001605081526020016040518060400160405280600581526020017f576174657200000000000000000000000000000000000000000000000000000081525081526020016040518060400160405280600781526020017f5073796368696300000000000000000000000000000000000000000000000000815250815260200161019a81526020016000151581526020016040518060c00160405280605f63ffffffff168152602001604b63ffffffff168152602001606e63ffffffff168152602001606463ffffffff168152602001605063ffffffff168152602001601e63ffffffff16815250815250908060018154018082558091505090600182039060005260206000209060070201600090919290919091506000820151816000019080519060200190630000e965929190630001ddbe565b50602082015181600101556040820151816002019080519060200190630000e990929190630001ddbe565b506060820151816003019080519060200190630000e9b1929190630001ddbe565b506080820151816004015560a08201518160050160006101000a81548160ff02191690831515021790555060c08201518160060160008201518160000160006101000a81548163ffffffff021916908363ffffffff16021790555060208201518160000160046101000a81548163ffffffff021916908363ffffffff16021790555060408201518160000160086101000a81548163ffffffff021916908363ffffffff160217905550606082015181600001600c6101000a81548163ffffffff021916908363ffffffff16021790555060808201518160000160106101000a81548163ffffffff021916908363ffffffff16021790555060a08201518160000160146101000a81548163ffffffff021916908363ffffffff160217905550505050505060036040518060e001604052806040518060400160405280600981526020017f4d61676e656d69746500000000000000000000000000000000000000000000008152508152602001605181526020016040518060400160405280600881526020017f456c65637472696300000000000000000000000000000000000000000000000081525081526020016040518060400160405280600581526020017f537465656c000000000000000000000000000000000000000000000000000000815250815260200161023f81526020016000151581526020016040518060c00160405280601963ffffffff168152602001602363ffffffff168152602001604663ffffffff168152602001605f63ffffffff168152602001603763ffffffff168152602001602d63ffffffff16815250815250908060018154018082558091505090600182039060005260206000209060070201600090919290919091506000820151816000019080519060200190630000ec4f929190630001ddbe565b50602082015181600101556040820151816002019080519060200190630000ec7a929190630001ddbe565b506060820151816003019080519060200190630000ec9b929190630001ddbe565b506080820151816004015560a08201518160050160006101000a81548160ff02191690831515021790555060c08201518160060160008201518160000160006101000a81548163ffffffff021916908363ffffffff16021790555060208201518160000160046101000a81548163ffffffff021916908363ffffffff16021790555060408201518160000160086101000a81548163ffffffff021916908363ffffffff160217905550606082015181600001600c6101000a81548163ffffffff021916908363ffffffff16021790555060808201518160000160106101000a81548163ffffffff021916908363ffffffff16021790555060a08201518160000160146101000a81548163ffffffff021916908363ffffffff160217905550505050505060036040518060e001604052806040518060400160405280600881526020017f4d61676e65746f6e0000000000000000000000000000000000000000000000008152508152602001605281526020016040518060400160405280600881526020017f456c65637472696300000000000000000000000000000000000000000000000081525081526020016040518060400160405280600581526020017f537465656c00000000000000000000000000000000000000000000000000000081525081526020016101b381526020016000151581526020016040518060c00160405280603263ffffffff168152602001603c63ffffffff168152602001605f63ffffffff168152602001607863ffffffff168152602001604663ffffffff168152602001604663ffffffff16815250815250908060018154018082558091505090600182039060005260206000209060070201600090919290919091506000820151816000019080519060200190630000ef39929190630001ddbe565b50602082015181600101556040820151816002019080519060200190630000ef64929190630001ddbe565b506060820151816003019080519060200190630000ef85929190630001ddbe565b506080820151816004015560a08201518160050160006101000a81548160ff02191690831515021790555060c08201518160060160008201518160000160006101000a81548163ffffffff021916908363ffffffff16021790555060208201518160000160046101000a81548163ffffffff021916908363ffffffff16021790555060408201518160000160086101000a81548163ffffffff021916908363ffffffff160217905550606082015181600001600c6101000a81548163ffffffff021916908363ffffffff16021790555060808201518160000160106101000a81548163ffffffff021916908363ffffffff16021790555060a08201518160000160146101000a81548163ffffffff021916908363ffffffff160217905550505050505060036040518060e001604052806040518060400160405280600a81526020017f46617266657463682764000000000000000000000000000000000000000000008152508152602001605381526020016040518060400160405280600681526020017f4e6f726d616c000000000000000000000000000000000000000000000000000081525081526020016040518060400160405280600681526020017f466c79696e670000000000000000000000000000000000000000000000000000815250815260200161022481526020016000151581526020016040518060c00160405280603463ffffffff168152602001604163ffffffff168152602001603763ffffffff168152602001603a63ffffffff168152602001603e63ffffffff168152602001603c63ffffffff16815250815250908060018154018082558091505090600182039060005260206000209060070201600090919290919091506000820151816000019080519060200190630000f223929190630001ddbe565b50602082015181600101556040820151816002019080519060200190630000f24e929190630001ddbe565b506060820151816003019080519060200190630000f26f929190630001ddbe565b506080820151816004015560a08201518160050160006101000a81548160ff02191690831515021790555060c08201518160060160008201518160000160006101000a81548163ffffffff021916908363ffffffff16021790555060208201518160000160046101000a81548163ffffffff021916908363ffffffff16021790555060408201518160000160086101000a81548163ffffffff021916908363ffffffff160217905550606082015181600001600c6101000a81548163ffffffff021916908363ffffffff16021790555060808201518160000160106101000a81548163ffffffff021916908363ffffffff16021790555060a08201518160000160146101000a81548163ffffffff021916908363ffffffff160217905550505050505060036040518060e001604052806040518060400160405280600581526020017f446f64756f0000000000000000000000000000000000000000000000000000008152508152602001605481526020016040518060400160405280600681526020017f4e6f726d616c000000000000000000000000000000000000000000000000000081525081526020016040518060400160405280600681526020017f466c79696e670000000000000000000000000000000000000000000000000000815250815260200161024e81526020016000151581526020016040518060c00160405280602363ffffffff168152602001605563ffffffff168152602001602d63ffffffff168152602001602363ffffffff168152602001602363ffffffff168152602001604b63ffffffff16815250815250908060018154018082558091505090600182039060005260206000209060070201600090919290919091506000820151816000019080519060200190630000f50d929190630001ddbe565b50602082015181600101556040820151816002019080519060200190630000f538929190630001ddbe565b506060820151816003019080519060200190630000f559929190630001ddbe565b506080820151816004015560a08201518160050160006101000a81548160ff02191690831515021790555060c08201518160060160008201518160000160006101000a81548163ffffffff021916908363ffffffff16021790555060208201518160000160046101000a81548163ffffffff021916908363ffffffff16021790555060408201518160000160086101000a81548163ffffffff021916908363ffffffff160217905550606082015181600001600c6101000a81548163ffffffff021916908363ffffffff16021790555060808201518160000160106101000a81548163ffffffff021916908363ffffffff16021790555060a08201518160000160146101000a81548163ffffffff021916908363ffffffff160217905550505050505060036040518060e001604052806040518060400160405280600681526020017f446f6472696f00000000000000000000000000000000000000000000000000008152508152602001605581526020016040518060400160405280600681526020017f4e6f726d616c000000000000000000000000000000000000000000000000000081525081526020016040518060400160405280600681526020017f466c79696e67000000000000000000000000000000000000000000000000000081525081526020016101b881526020016000151581526020016040518060c00160405280603c63ffffffff168152602001606e63ffffffff168152602001604663ffffffff168152602001603c63ffffffff168152602001603c63ffffffff168152602001606463ffffffff16815250815250908060018154018082558091505090600182039060005260206000209060070201600090919290919091506000820151816000019080519060200190630000f7f7929190630001ddbe565b50602082015181600101556040820151816002019080519060200190630000f822929190630001ddbe565b506060820151816003019080519060200190630000f843929190630001ddbe565b506080820151816004015560a08201518160050160006101000a81548160ff02191690831515021790555060c08201518160060160008201518160000160006101000a81548163ffffffff021916908363ffffffff16021790555060208201518160000160046101000a81548163ffffffff021916908363ffffffff16021790555060408201518160000160086101000a81548163ffffffff021916908363ffffffff160217905550606082015181600001600c6101000a81548163ffffffff021916908363ffffffff16021790555060808201518160000160106101000a81548163ffffffff021916908363ffffffff16021790555060a08201518160000160146101000a81548163ffffffff021916908363ffffffff160217905550505050505060036040518060e001604052806040518060400160405280600481526020017f5365656c000000000000000000000000000000000000000000000000000000008152508152602001605681526020016040518060400160405280600581526020017f576174657200000000000000000000000000000000000000000000000000000081525081526020016040518060400160405280600381526020017f6e616e0000000000000000000000000000000000000000000000000000000000815250815260200161023f81526020016000151581526020016040518060c00160405280604163ffffffff168152602001602d63ffffffff168152602001603763ffffffff168152602001602d63ffffffff168152602001604663ffffffff168152602001602d63ffffffff16815250815250908060018154018082558091505090600182039060005260206000209060070201600090919290919091506000820151816000019080519060200190630000fae1929190630001ddbe565b50602082015181600101556040820151816002019080519060200190630000fb0c929190630001ddbe565b506060820151816003019080519060200190630000fb2d929190630001ddbe565b506080820151816004015560a08201518160050160006101000a81548160ff02191690831515021790555060c08201518160060160008201518160000160006101000a81548163ffffffff021916908363ffffffff16021790555060208201518160000160046101000a81548163ffffffff021916908363ffffffff16021790555060408201518160000160086101000a81548163ffffffff021916908363ffffffff160217905550606082015181600001600c6101000a81548163ffffffff021916908363ffffffff16021790555060808201518160000160106101000a81548163ffffffff021916908363ffffffff16021790555060a08201518160000160146101000a81548163ffffffff021916908363ffffffff160217905550505050505060036040518060e001604052806040518060400160405280600781526020017f446577676f6e67000000000000000000000000000000000000000000000000008152508152602001605781526020016040518060400160405280600581526020017f576174657200000000000000000000000000000000000000000000000000000081525081526020016040518060400160405280600381526020017f496365000000000000000000000000000000000000000000000000000000000081525081526020016101a981526020016000151581526020016040518060c00160405280605a63ffffffff168152602001604663ffffffff168152602001605063ffffffff168152602001604663ffffffff168152602001605f63ffffffff168152602001604663ffffffff16815250815250908060018154018082558091505090600182039060005260206000209060070201600090919290919091506000820151816000019080519060200190630000fdcb929190630001ddbe565b50602082015181600101556040820151816002019080519060200190630000fdf6929190630001ddbe565b506060820151816003019080519060200190630000fe17929190630001ddbe565b506080820151816004015560a08201518160050160006101000a81548160ff02191690831515021790555060c08201518160060160008201518160000160006101000a81548163ffffffff021916908363ffffffff16021790555060208201518160000160046101000a81548163ffffffff021916908363ffffffff16021790555060408201518160000160086101000a81548163ffffffff021916908363ffffffff160217905550606082015181600001600c6101000a81548163ffffffff021916908363ffffffff16021790555060808201518160000160106101000a81548163ffffffff021916908363ffffffff16021790555060a08201518160000160146101000a81548163ffffffff021916908363ffffffff160217905550505050505060036040518060e001604052806040518060400160405280600681526020017f4772696d657200000000000000000000000000000000000000000000000000008152508152602001605881526020016040518060400160405280600681526020017f506f69736f6e000000000000000000000000000000000000000000000000000081525081526020016040518060400160405280600381526020017f6e616e0000000000000000000000000000000000000000000000000000000000815250815260200161023f81526020016000151581526020016040518060c00160405280605063ffffffff168152602001605063ffffffff168152602001603263ffffffff168152602001602863ffffffff168152602001603263ffffffff168152602001601963ffffffff1681525081525090806001815401808255809150509060018203906000526020600020906007020160009091929091909150600082015181600001908051906020019063000100b5929190630001ddbe565b5060208201518160010155604082015181600201908051906020019063000100e0929190630001ddbe565b5060608201518160030190805190602001906300010101929190630001ddbe565b506080820151816004015560a08201518160050160006101000a81548160ff02191690831515021790555060c08201518160060160008201518160000160006101000a81548163ffffffff021916908363ffffffff16021790555060208201518160000160046101000a81548163ffffffff021916908363ffffffff16021790555060408201518160000160086101000a81548163ffffffff021916908363ffffffff160217905550606082015181600001600c6101000a81548163ffffffff021916908363ffffffff16021790555060808201518160000160106101000a81548163ffffffff021916908363ffffffff16021790555060a08201518160000160146101000a81548163ffffffff021916908363ffffffff160217905550505050505060036040518060e001604052806040518060400160405280600381526020017f4d756b00000000000000000000000000000000000000000000000000000000008152508152602001605981526020016040518060400160405280600681526020017f506f69736f6e000000000000000000000000000000000000000000000000000081525081526020016040518060400160405280600381526020017f6e616e0000000000000000000000000000000000000000000000000000000000815250815260200161019081526020016000151581526020016040518060c00160405280606963ffffffff168152602001606963ffffffff168152602001604b63ffffffff168152602001604163ffffffff168152602001606463ffffffff168152602001603263ffffffff16815250815250908060018154018082558091505090600182039060005260206000209060070201600090919290919091506000820151816000019080519060200190630001039f929190630001ddbe565b5060208201518160010155604082015181600201908051906020019063000103ca929190630001ddbe565b50606082015181600301908051906020019063000103eb929190630001ddbe565b506080820151816004015560a08201518160050160006101000a81548160ff02191690831515021790555060c08201518160060160008201518160000160006101000a81548163ffffffff021916908363ffffffff16021790555060208201518160000160046101000a81548163ffffffff021916908363ffffffff16021790555060408201518160000160086101000a81548163ffffffff021916908363ffffffff160217905550606082015181600001600c6101000a81548163ffffffff021916908363ffffffff16021790555060808201518160000160106101000a81548163ffffffff021916908363ffffffff16021790555060a08201518160000160146101000a81548163ffffffff021916908363ffffffff160217905550505050505060036040518060e001604052806040518060400160405280600881526020017f5368656c6c6465720000000000000000000000000000000000000000000000008152508152602001605a81526020016040518060400160405280600581526020017f576174657200000000000000000000000000000000000000000000000000000081525081526020016040518060400160405280600381526020017f6e616e0000000000000000000000000000000000000000000000000000000000815250815260200161025381526020016000151581526020016040518060c00160405280601e63ffffffff168152602001604163ffffffff168152602001606463ffffffff168152602001602d63ffffffff168152602001601963ffffffff168152602001602863ffffffff168152508152509080600181540180825580915050906001820390600052602060002090600702016000909192909190915060008201518160000190805190602001906300010689929190630001ddbe565b5060208201518160010155604082015181600201908051906020019063000106b4929190630001ddbe565b50606082015181600301908051906020019063000106d5929190630001ddbe565b506080820151816004015560a08201518160050160006101000a81548160ff02191690831515021790555060c08201518160060160008201518160000160006101000a81548163ffffffff021916908363ffffffff16021790555060208201518160000160046101000a81548163ffffffff021916908363ffffffff16021790555060408201518160000160086101000a81548163ffffffff021916908363ffffffff160217905550606082015181600001600c6101000a81548163ffffffff021916908363ffffffff16021790555060808201518160000160106101000a81548163ffffffff021916908363ffffffff16021790555060a08201518160000160146101000a81548163ffffffff021916908363ffffffff160217905550505050505060036040518060e001604052806040518060400160405280600881526020017f436c6f79737465720000000000000000000000000000000000000000000000008152508152602001605b81526020016040518060400160405280600581526020017f576174657200000000000000000000000000000000000000000000000000000081525081526020016040518060400160405280600381526020017f4963650000000000000000000000000000000000000000000000000000000000815250815260200161017781526020016000151581526020016040518060c00160405280603263ffffffff168152602001605f63ffffffff16815260200160b463ffffffff168152602001605563ffffffff168152602001602d63ffffffff168152602001604663ffffffff168152508152509080600181540180825580915050906001820390600052602060002090600702016000909192909190915060008201518160000190805190602001906300010973929190630001ddbe565b50602082015181600101556040820151816002019080519060200190630001099e929190630001ddbe565b50606082015181600301908051906020019063000109bf929190630001ddbe565b506080820151816004015560a08201518160050160006101000a81548160ff02191690831515021790555060c08201518160060160008201518160000160006101000a81548163ffffffff021916908363ffffffff16021790555060208201518160000160046101000a81548163ffffffff021916908363ffffffff16021790555060408201518160000160086101000a81548163ffffffff021916908363ffffffff160217905550606082015181600001600c6101000a81548163ffffffff021916908363ffffffff16021790555060808201518160000160106101000a81548163ffffffff021916908363ffffffff16021790555060a08201518160000160146101000a81548163ffffffff021916908363ffffffff160217905550505050505060036040518060e001604052806040518060400160405280600681526020017f476173746c7900000000000000000000000000000000000000000000000000008152508152602001605c81526020016040518060400160405280600581526020017f47686f737400000000000000000000000000000000000000000000000000000081525081526020016040518060400160405280600681526020017f506f69736f6e0000000000000000000000000000000000000000000000000000815250815260200161024e81526020016000151581526020016040518060c00160405280601e63ffffffff168152602001602363ffffffff168152602001601e63ffffffff168152602001606463ffffffff168152602001602363ffffffff168152602001605063ffffffff168152508152509080600181540180825580915050906001820390600052602060002090600702016000909192909190915060008201518160000190805190602001906300010c5d929190630001ddbe565b506020820151816001015560408201518160020190805190602001906300010c88929190630001ddbe565b5060608201518160030190805190602001906300010ca9929190630001ddbe565b506080820151816004015560a08201518160050160006101000a81548160ff02191690831515021790555060c08201518160060160008201518160000160006101000a81548163ffffffff021916908363ffffffff16021790555060208201518160000160046101000a81548163ffffffff021916908363ffffffff16021790555060408201518160000160086101000a81548163ffffffff021916908363ffffffff160217905550606082015181600001600c6101000a81548163ffffffff021916908363ffffffff16021790555060808201518160000160106101000a81548163ffffffff021916908363ffffffff16021790555060a08201518160000160146101000a81548163ffffffff021916908363ffffffff160217905550505050505060036040518060e001604052806040518060400160405280600781526020017f4861756e746572000000000000000000000000000000000000000000000000008152508152602001605d81526020016040518060400160405280600581526020017f47686f737400000000000000000000000000000000000000000000000000000081525081526020016040518060400160405280600681526020017f506f69736f6e000000000000000000000000000000000000000000000000000081525081526020016101ef81526020016000151581526020016040518060c00160405280602d63ffffffff168152602001603263ffffffff168152602001602d63ffffffff168152602001607363ffffffff168152602001603763ffffffff168152602001605f63ffffffff168152508152509080600181540180825580915050906001820390600052602060002090600702016000909192909190915060008201518160000190805190602001906300010f47929190630001ddbe565b506020820151816001015560408201518160020190805190602001906300010f72929190630001ddbe565b5060608201518160030190805190602001906300010f93929190630001ddbe565b506080820151816004015560a08201518160050160006101000a81548160ff02191690831515021790555060c08201518160060160008201518160000160006101000a81548163ffffffff021916908363ffffffff16021790555060208201518160000160046101000a81548163ffffffff021916908363ffffffff16021790555060408201518160000160086101000a81548163ffffffff021916908363ffffffff160217905550606082015181600001600c6101000a81548163ffffffff021916908363ffffffff16021790555060808201518160000160106101000a81548163ffffffff021916908363ffffffff16021790555060a08201518160000160146101000a81548163ffffffff021916908363ffffffff160217905550505050505060036040518060e001604052806040518060400160405280600681526020017f47656e67617200000000000000000000000000000000000000000000000000008152508152602001605e81526020016040518060400160405280600581526020017f47686f737400000000000000000000000000000000000000000000000000000081525081526020016040518060400160405280600681526020017f506f69736f6e0000000000000000000000000000000000000000000000000000815250815260200161019081526020016000151581526020016040518060c00160405280603c63ffffffff168152602001604163ffffffff168152602001603c63ffffffff168152602001608263ffffffff168152602001604b63ffffffff168152602001606e63ffffffff168152508152509080600181540180825580915050906001820390600052602060002090600702016000909192909190915060008201518160000190805190602001906300011231929190630001ddbe565b50602082015181600101556040820151816002019080519060200190630001125c929190630001ddbe565b506060820151816003019080519060200190630001127d929190630001ddbe565b506080820151816004015560a08201518160050160006101000a81548160ff02191690831515021790555060c08201518160060160008201518160000160006101000a81548163ffffffff021916908363ffffffff16021790555060208201518160000160046101000a81548163ffffffff021916908363ffffffff16021790555060408201518160000160086101000a81548163ffffffff021916908363ffffffff160217905550606082015181600001600c6101000a81548163ffffffff021916908363ffffffff16021790555060808201518160000160106101000a81548163ffffffff021916908363ffffffff16021790555060a08201518160000160146101000a81548163ffffffff021916908363ffffffff160217905550505050505060036040518060e001604052806040518060400160405280600481526020017f4f6e6978000000000000000000000000000000000000000000000000000000008152508152602001605f81526020016040518060400160405280600481526020017f526f636b0000000000000000000000000000000000000000000000000000000081525081526020016040518060400160405280600681526020017f47726f756e640000000000000000000000000000000000000000000000000000815250815260200161020381526020016000151581526020016040518060c00160405280602363ffffffff168152602001602d63ffffffff16815260200160a063ffffffff168152602001601e63ffffffff168152602001602d63ffffffff168152602001604663ffffffff16815250815250908060018154018082558091505090600182039060005260206000209060070201600090919290919091506000820151816000019080519060200190630001151b929190630001ddbe565b506020820151816001015560408201518160020190805190602001906300011546929190630001ddbe565b5060608201518160030190805190602001906300011567929190630001ddbe565b506080820151816004015560a08201518160050160006101000a81548160ff02191690831515021790555060c08201518160060160008201518160000160006101000a81548163ffffffff021916908363ffffffff16021790555060208201518160000160046101000a81548163ffffffff021916908363ffffffff16021790555060408201518160000160086101000a81548163ffffffff021916908363ffffffff160217905550606082015181600001600c6101000a81548163ffffffff021916908363ffffffff16021790555060808201518160000160106101000a81548163ffffffff021916908363ffffffff16021790555060a08201518160000160146101000a81548163ffffffff021916908363ffffffff160217905550505050505060036040518060e001604052806040518060400160405280600781526020017f44726f777a6565000000000000000000000000000000000000000000000000008152508152602001606081526020016040518060400160405280600781526020017f507379636869630000000000000000000000000000000000000000000000000081525081526020016040518060400160405280600381526020017f6e616e0000000000000000000000000000000000000000000000000000000000815250815260200161023c81526020016000151581526020016040518060c00160405280603c63ffffffff168152602001603063ffffffff168152602001602d63ffffffff168152602001602b63ffffffff168152602001605a63ffffffff168152602001602a63ffffffff168152508152509080600181540180825580915050906001820390600052602060002090600702016000909192909190915060008201518160000190805190602001906300011805929190630001ddbe565b506020820151816001015560408201518160020190805190602001906300011830929190630001ddbe565b5060608201518160030190805190602001906300011851929190630001ddbe565b506080820151816004015560a08201518160050160006101000a81548160ff02191690831515021790555060c08201518160060160008201518160000160006101000a81548163ffffffff021916908363ffffffff16021790555060208201518160000160046101000a81548163ffffffff021916908363ffffffff16021790555060408201518160000160086101000a81548163ffffffff021916908363ffffffff160217905550606082015181600001600c6101000a81548163ffffffff021916908363ffffffff16021790555060808201518160000160106101000a81548163ffffffff021916908363ffffffff16021790555060a08201518160000160146101000a81548163ffffffff021916908363ffffffff160217905550505050505060036040518060e001604052806040518060400160405280600581526020017f4879706e6f0000000000000000000000000000000000000000000000000000008152508152602001606181526020016040518060400160405280600781526020017f507379636869630000000000000000000000000000000000000000000000000081525081526020016040518060400160405280600381526020017f6e616e000000000000000000000000000000000000000000000000000000000081525081526020016101a181526020016000151581526020016040518060c00160405280605563ffffffff168152602001604963ffffffff168152602001604663ffffffff168152602001604963ffffffff168152602001607363ffffffff168152602001604363ffffffff168152508152509080600181540180825580915050906001820390600052602060002090600702016000909192909190915060008201518160000190805190602001906300011aef929190630001ddbe565b506020820151816001015560408201518160020190805190602001906300011b1a929190630001ddbe565b5060608201518160030190805190602001906300011b3b929190630001ddbe565b506080820151816004015560a08201518160050160006101000a81548160ff02191690831515021790555060c08201518160060160008201518160000160006101000a81548163ffffffff021916908363ffffffff16021790555060208201518160000160046101000a81548163ffffffff021916908363ffffffff16021790555060408201518160000160086101000a81548163ffffffff021916908363ffffffff160217905550606082015181600001600c6101000a81548163ffffffff021916908363ffffffff16021790555060808201518160000160106101000a81548163ffffffff021916908363ffffffff16021790555060a08201518160000160146101000a81548163ffffffff021916908363ffffffff160217905550505050505060036040518060e001604052806040518060400160405280600681526020017f4b726162627900000000000000000000000000000000000000000000000000008152508152602001606281526020016040518060400160405280600581526020017f576174657200000000000000000000000000000000000000000000000000000081525081526020016040518060400160405280600381526020017f6e616e0000000000000000000000000000000000000000000000000000000000815250815260200161023f81526020016000151581526020016040518060c00160405280601e63ffffffff168152602001606963ffffffff168152602001605a63ffffffff168152602001601963ffffffff168152602001601963ffffffff168152602001603263ffffffff168152508152509080600181540180825580915050906001820390600052602060002090600702016000909192909190915060008201518160000190805190602001906300011dd9929190630001ddbe565b506020820151816001015560408201518160020190805190602001906300011e04929190630001ddbe565b5060608201518160030190805190602001906300011e25929190630001ddbe565b506080820151816004015560a08201518160050160006101000a81548160ff02191690831515021790555060c08201518160060160008201518160000160006101000a81548163ffffffff021916908363ffffffff16021790555060208201518160000160046101000a81548163ffffffff021916908363ffffffff16021790555060408201518160000160086101000a81548163ffffffff021916908363ffffffff160217905550606082015181600001600c6101000a81548163ffffffff021916908363ffffffff16021790555060808201518160000160106101000a81548163ffffffff021916908363ffffffff16021790555060a08201518160000160146101000a81548163ffffffff021916908363ffffffff160217905550505050505060036040518060e001604052806040518060400160405280600781526020017f4b696e676c6572000000000000000000000000000000000000000000000000008152508152602001606381526020016040518060400160405280600581526020017f576174657200000000000000000000000000000000000000000000000000000081525081526020016040518060400160405280600381526020017f6e616e000000000000000000000000000000000000000000000000000000000081525081526020016101a981526020016000151581526020016040518060c00160405280603763ffffffff168152602001608263ffffffff168152602001607363ffffffff168152602001603263ffffffff168152602001603263ffffffff168152602001604b63ffffffff1681525081525090806001815401808255809150509060018203906000526020600020906007020160009091929091909150600082015181600001908051906020019063000120c3929190630001ddbe565b5060208201518160010155604082015181600201908051906020019063000120ee929190630001ddbe565b506060820151816003019080519060200190630001210f929190630001ddbe565b506080820151816004015560a08201518160050160006101000a81548160ff02191690831515021790555060c08201518160060160008201518160000160006101000a81548163ffffffff021916908363ffffffff16021790555060208201518160000160046101000a81548163ffffffff021916908363ffffffff16021790555060408201518160000160086101000a81548163ffffffff021916908363ffffffff160217905550606082015181600001600c6101000a81548163ffffffff021916908363ffffffff16021790555060808201518160000160106101000a81548163ffffffff021916908363ffffffff16021790555060a08201518160000160146101000a81548163ffffffff021916908363ffffffff160217905550505050505060036040518060e001604052806040518060400160405280600781526020017f566f6c746f7262000000000000000000000000000000000000000000000000008152508152602001606481526020016040518060400160405280600881526020017f456c65637472696300000000000000000000000000000000000000000000000081525081526020016040518060400160405280600381526020017f6e616e0000000000000000000000000000000000000000000000000000000000815250815260200161023a81526020016000151581526020016040518060c00160405280602863ffffffff168152602001601e63ffffffff168152602001603263ffffffff168152602001603763ffffffff168152602001603763ffffffff168152602001606463ffffffff1681525081525090806001815401808255809150509060018203906000526020600020906007020160009091929091909150600082015181600001908051906020019063000123ad929190630001ddbe565b5060208201518160010155604082015181600201908051906020019063000123d8929190630001ddbe565b50606082015181600301908051906020019063000123f9929190630001ddbe565b506080820151816004015560a08201518160050160006101000a81548160ff02191690831515021790555060c08201518160060160008201518160000160006101000a81548163ffffffff021916908363ffffffff16021790555060208201518160000160046101000a81548163ffffffff021916908363ffffffff16021790555060408201518160000160086101000a81548163ffffffff021916908363ffffffff160217905550606082015181600001600c6101000a81548163ffffffff021916908363ffffffff16021790555060808201518160000160106101000a81548163ffffffff021916908363ffffffff16021790555060a08201518160000160146101000a81548163ffffffff021916908363ffffffff160217905550505050505060036040518060e001604052806040518060400160405280600981526020017f456c656374726f646500000000000000000000000000000000000000000000008152508152602001606581526020016040518060400160405280600881526020017f456c65637472696300000000000000000000000000000000000000000000000081525081526020016040518060400160405280600381526020017f6e616e000000000000000000000000000000000000000000000000000000000081525081526020016101a481526020016000151581526020016040518060c00160405280603c63ffffffff168152602001603263ffffffff168152602001604663ffffffff168152602001605063ffffffff168152602001605063ffffffff168152602001608c63ffffffff168152508152509080600181540180825580915050906001820390600052602060002090600702016000909192909190915060008201518160000190805190602001906300012697929190630001ddbe565b5060208201518160010155604082015181600201908051906020019063000126c2929190630001ddbe565b50606082015181600301908051906020019063000126e3929190630001ddbe565b506080820151816004015560a08201518160050160006101000a81548160ff02191690831515021790555060c08201518160060160008201518160000160006101000a81548163ffffffff021916908363ffffffff16021790555060208201518160000160046101000a81548163ffffffff021916908363ffffffff16021790555060408201518160000160086101000a81548163ffffffff021916908363ffffffff160217905550606082015181600001600c6101000a81548163ffffffff021916908363ffffffff16021790555060808201518160000160106101000a81548163ffffffff021916908363ffffffff16021790555060a08201518160000160146101000a81548163ffffffff021916908363ffffffff160217905550505050505060036040518060e001604052806040518060400160405280600981526020017f45786567676375746500000000000000000000000000000000000000000000008152508152602001606681526020016040518060400160405280600581526020017f477261737300000000000000000000000000000000000000000000000000000081525081526020016040518060400160405280600781526020017f5073796368696300000000000000000000000000000000000000000000000000815250815260200161023f81526020016000151581526020016040518060c00160405280603c63ffffffff168152602001602863ffffffff168152602001605063ffffffff168152602001603c63ffffffff168152602001602d63ffffffff168152602001602863ffffffff168152508152509080600181540180825580915050906001820390600052602060002090600702016000909192909190915060008201518160000190805190602001906300012981929190630001ddbe565b5060208201518160010155604082015181600201908051906020019063000129ac929190630001ddbe565b50606082015181600301908051906020019063000129cd929190630001ddbe565b506080820151816004015560a08201518160050160006101000a81548160ff02191690831515021790555060c08201518160060160008201518160000160006101000a81548163ffffffff021916908363ffffffff16021790555060208201518160000160046101000a81548163ffffffff021916908363ffffffff16021790555060408201518160000160086101000a81548163ffffffff021916908363ffffffff160217905550606082015181600001600c6101000a81548163ffffffff021916908363ffffffff16021790555060808201518160000160106101000a81548163ffffffff021916908363ffffffff16021790555060a08201518160000160146101000a81548163ffffffff021916908363ffffffff160217905550505050505060036040518060e001604052806040518060400160405280600981526020017f457865676775746f7200000000000000000000000000000000000000000000008152508152602001606781526020016040518060400160405280600581526020017f477261737300000000000000000000000000000000000000000000000000000081525081526020016040518060400160405280600781526020017f5073796368696300000000000000000000000000000000000000000000000000815250815260200161017c81526020016000151581526020016040518060c00160405280605f63ffffffff168152602001605f63ffffffff168152602001605563ffffffff168152602001607d63ffffffff168152602001604163ffffffff168152602001603763ffffffff168152508152509080600181540180825580915050906001820390600052602060002090600702016000909192909190915060008201518160000190805190602001906300012c6b929190630001ddbe565b506020820151816001015560408201518160020190805190602001906300012c96929190630001ddbe565b5060608201518160030190805190602001906300012cb7929190630001ddbe565b506080820151816004015560a08201518160050160006101000a81548160ff02191690831515021790555060c08201518160060160008201518160000160006101000a81548163ffffffff021916908363ffffffff16021790555060208201518160000160046101000a81548163ffffffff021916908363ffffffff16021790555060408201518160000160086101000a81548163ffffffff021916908363ffffffff160217905550606082015181600001600c6101000a81548163ffffffff021916908363ffffffff16021790555060808201518160000160106101000a81548163ffffffff021916908363ffffffff16021790555060a08201518160000160146101000a81548163ffffffff021916908363ffffffff160217905550505050505060036040518060e001604052806040518060400160405280600681526020017f4375626f6e6500000000000000000000000000000000000000000000000000008152508152602001606881526020016040518060400160405280600681526020017f47726f756e64000000000000000000000000000000000000000000000000000081525081526020016040518060400160405280600381526020017f6e616e0000000000000000000000000000000000000000000000000000000000815250815260200161024481526020016000151581526020016040518060c00160405280603263ffffffff168152602001603263ffffffff168152602001605f63ffffffff168152602001602863ffffffff168152602001603263ffffffff168152602001602363ffffffff168152508152509080600181540180825580915050906001820390600052602060002090600702016000909192909190915060008201518160000190805190602001906300012f55929190630001ddbe565b506020820151816001015560408201518160020190805190602001906300012f80929190630001ddbe565b5060608201518160030190805190602001906300012fa1929190630001ddbe565b506080820151816004015560a08201518160050160006101000a81548160ff02191690831515021790555060c08201518160060160008201518160000160006101000a81548163ffffffff021916908363ffffffff16021790555060208201518160000160046101000a81548163ffffffff021916908363ffffffff16021790555060408201518160000160086101000a81548163ffffffff021916908363ffffffff160217905550606082015181600001600c6101000a81548163ffffffff021916908363ffffffff16021790555060808201518160000160106101000a81548163ffffffff021916908363ffffffff16021790555060a08201518160000160146101000a81548163ffffffff021916908363ffffffff160217905550505050505060036040518060e001604052806040518060400160405280600781526020017f4d61726f77616b000000000000000000000000000000000000000000000000008152508152602001606981526020016040518060400160405280600681526020017f47726f756e64000000000000000000000000000000000000000000000000000081525081526020016040518060400160405280600381526020017f6e616e000000000000000000000000000000000000000000000000000000000081525081526020016101db81526020016000151581526020016040518060c00160405280603c63ffffffff168152602001605063ffffffff168152602001606e63ffffffff168152602001603263ffffffff168152602001605063ffffffff168152602001602d63ffffffff16815250815250908060018154018082558091505090600182039060005260206000209060070201600090919290919091506000820151816000019080519060200190630001323f929190630001ddbe565b50602082015181600101556040820151816002019080519060200190630001326a929190630001ddbe565b506060820151816003019080519060200190630001328b929190630001ddbe565b506080820151816004015560a08201518160050160006101000a81548160ff02191690831515021790555060c08201518160060160008201518160000160006101000a81548163ffffffff021916908363ffffffff16021790555060208201518160000160046101000a81548163ffffffff021916908363ffffffff16021790555060408201518160000160086101000a81548163ffffffff021916908363ffffffff160217905550606082015181600001600c6101000a81548163ffffffff021916908363ffffffff16021790555060808201518160000160106101000a81548163ffffffff021916908363ffffffff16021790555060a08201518160000160146101000a81548163ffffffff021916908363ffffffff160217905550505050505060036040518060e001604052806040518060400160405280600981526020017f4869746d6f6e6c656500000000000000000000000000000000000000000000008152508152602001606a81526020016040518060400160405280600881526020017f4669676874696e6700000000000000000000000000000000000000000000000081525081526020016040518060400160405280600381526020017f6e616e000000000000000000000000000000000000000000000000000000000081525081526020016101bd81526020016000151581526020016040518060c00160405280603263ffffffff168152602001607863ffffffff168152602001603563ffffffff168152602001602363ffffffff168152602001606e63ffffffff168152602001605763ffffffff168152508152509080600181540180825580915050906001820390600052602060002090600702016000909192909190915060008201518160000190805190602001906300013529929190630001ddbe565b506020820151816001015560408201518160020190805190602001906300013554929190630001ddbe565b5060608201518160030190805190602001906300013575929190630001ddbe565b506080820151816004015560a08201518160050160006101000a81548160ff02191690831515021790555060c08201518160060160008201518160000160006101000a81548163ffffffff021916908363ffffffff16021790555060208201518160000160046101000a81548163ffffffff021916908363ffffffff16021790555060408201518160000160086101000a81548163ffffffff021916908363ffffffff160217905550606082015181600001600c6101000a81548163ffffffff021916908363ffffffff16021790555060808201518160000160106101000a81548163ffffffff021916908363ffffffff16021790555060a08201518160000160146101000a81548163ffffffff021916908363ffffffff160217905550505050505060036040518060e001604052806040518060400160405280600a81526020017f4869746d6f6e6368616e000000000000000000000000000000000000000000008152508152602001606b81526020016040518060400160405280600881526020017f4669676874696e6700000000000000000000000000000000000000000000000081525081526020016040518060400160405280600381526020017f6e616e000000000000000000000000000000000000000000000000000000000081525081526020016101bd81526020016000151581526020016040518060c00160405280603263ffffffff168152602001606963ffffffff168152602001604f63ffffffff168152602001602363ffffffff168152602001606e63ffffffff168152602001604c63ffffffff168152508152509080600181540180825580915050906001820390600052602060002090600702016000909192909190915060008201518160000190805190602001906300013813929190630001ddbe565b50602082015181600101556040820151816002019080519060200190630001383e929190630001ddbe565b506060820151816003019080519060200190630001385f929190630001ddbe565b506080820151816004015560a08201518160050160006101000a81548160ff02191690831515021790555060c08201518160060160008201518160000160006101000a81548163ffffffff021916908363ffffffff16021790555060208201518160000160046101000a81548163ffffffff021916908363ffffffff16021790555060408201518160000160086101000a81548163ffffffff021916908363ffffffff160217905550606082015181600001600c6101000a81548163ffffffff021916908363ffffffff16021790555060808201518160000160106101000a81548163ffffffff021916908363ffffffff16021790555060a08201518160000160146101000a81548163ffffffff021916908363ffffffff160217905550505050505060036040518060e001604052806040518060400160405280600981526020017f4c69636b6974756e6700000000000000000000000000000000000000000000008152508152602001606c81526020016040518060400160405280600681526020017f4e6f726d616c000000000000000000000000000000000000000000000000000081525081526020016040518060400160405280600381526020017f6e616e0000000000000000000000000000000000000000000000000000000000815250815260200161020381526020016000151581526020016040518060c00160405280605a63ffffffff168152602001603763ffffffff168152602001604b63ffffffff168152602001603c63ffffffff168152602001604b63ffffffff168152602001601e63ffffffff168152508152509080600181540180825580915050906001820390600052602060002090600702016000909192909190915060008201518160000190805190602001906300013afd929190630001ddbe565b506020820151816001015560408201518160020190805190602001906300013b28929190630001ddbe565b5060608201518160030190805190602001906300013b49929190630001ddbe565b506080820151816004015560a08201518160050160006101000a81548160ff02191690831515021790555060c08201518160060160008201518160000160006101000a81548163ffffffff021916908363ffffffff16021790555060208201518160000160046101000a81548163ffffffff021916908363ffffffff16021790555060408201518160000160086101000a81548163ffffffff021916908363ffffffff160217905550606082015181600001600c6101000a81548163ffffffff021916908363ffffffff16021790555060808201518160000160106101000a81548163ffffffff021916908363ffffffff16021790555060a08201518160000160146101000a81548163ffffffff021916908363ffffffff160217905550505050505060036040518060e001604052806040518060400160405280600781526020017f4b6f6666696e67000000000000000000000000000000000000000000000000008152508152602001606d81526020016040518060400160405280600681526020017f506f69736f6e000000000000000000000000000000000000000000000000000081525081526020016040518060400160405280600381526020017f6e616e0000000000000000000000000000000000000000000000000000000000815250815260200161023081526020016000151581526020016040518060c00160405280602863ffffffff168152602001604163ffffffff168152602001605f63ffffffff168152602001603c63ffffffff168152602001602d63ffffffff168152602001602363ffffffff168152508152509080600181540180825580915050906001820390600052602060002090600702016000909192909190915060008201518160000190805190602001906300013de7929190630001ddbe565b506020820151816001015560408201518160020190805190602001906300013e12929190630001ddbe565b5060608201518160030190805190602001906300013e33929190630001ddbe565b506080820151816004015560a08201518160050160006101000a81548160ff02191690831515021790555060c08201518160060160008201518160000160006101000a81548163ffffffff021916908363ffffffff16021790555060208201518160000160046101000a81548163ffffffff021916908363ffffffff16021790555060408201518160000160086101000a81548163ffffffff021916908363ffffffff160217905550606082015181600001600c6101000a81548163ffffffff021916908363ffffffff16021790555060808201518160000160106101000a81548163ffffffff021916908363ffffffff16021790555060a08201518160000160146101000a81548163ffffffff021916908363ffffffff160217905550505050505060036040518060e001604052806040518060400160405280600781526020017f5765657a696e67000000000000000000000000000000000000000000000000008152508152602001606e81526020016040518060400160405280600681526020017f506f69736f6e000000000000000000000000000000000000000000000000000081525081526020016040518060400160405280600381526020017f6e616e0000000000000000000000000000000000000000000000000000000000815250815260200161019a81526020016000151581526020016040518060c00160405280604163ffffffff168152602001605a63ffffffff168152602001607863ffffffff168152602001605563ffffffff168152602001604663ffffffff168152602001603c63ffffffff1681525081525090806001815401808255809150509060018203906000526020600020906007020160009091929091909150600082015181600001908051906020019063000140d1929190630001ddbe565b5060208201518160010155604082015181600201908051906020019063000140fc929190630001ddbe565b506060820151816003019080519060200190630001411d929190630001ddbe565b506080820151816004015560a08201518160050160006101000a81548160ff02191690831515021790555060c08201518160060160008201518160000160006101000a81548163ffffffff021916908363ffffffff16021790555060208201518160000160046101000a81548163ffffffff021916908363ffffffff16021790555060408201518160000160086101000a81548163ffffffff021916908363ffffffff160217905550606082015181600001600c6101000a81548163ffffffff021916908363ffffffff16021790555060808201518160000160106101000a81548163ffffffff021916908363ffffffff16021790555060a08201518160000160146101000a81548163ffffffff021916908363ffffffff160217905550505050505060036040518060e001604052806040518060400160405280600781526020017f526879686f726e000000000000000000000000000000000000000000000000008152508152602001606f81526020016040518060400160405280600681526020017f47726f756e64000000000000000000000000000000000000000000000000000081525081526020016040518060400160405280600481526020017f526f636b00000000000000000000000000000000000000000000000000000000815250815260200161022b81526020016000151581526020016040518060c00160405280605063ffffffff168152602001605563ffffffff168152602001605f63ffffffff168152602001601e63ffffffff168152602001601e63ffffffff168152602001601963ffffffff1681525081525090806001815401808255809150509060018203906000526020600020906007020160009091929091909150600082015181600001908051906020019063000143bb929190630001ddbe565b5060208201518160010155604082015181600201908051906020019063000143e6929190630001ddbe565b5060608201518160030190805190602001906300014407929190630001ddbe565b506080820151816004015560a08201518160050160006101000a81548160ff02191690831515021790555060c08201518160060160008201518160000160006101000a81548163ffffffff021916908363ffffffff16021790555060208201518160000160046101000a81548163ffffffff021916908363ffffffff16021790555060408201518160000160086101000a81548163ffffffff021916908363ffffffff160217905550606082015181600001600c6101000a81548163ffffffff021916908363ffffffff16021790555060808201518160000160106101000a81548163ffffffff021916908363ffffffff16021790555060a08201518160000160146101000a81548163ffffffff021916908363ffffffff160217905550505050505060036040518060e001604052806040518060400160405280600681526020017f526879646f6e00000000000000000000000000000000000000000000000000008152508152602001607081526020016040518060400160405280600681526020017f47726f756e64000000000000000000000000000000000000000000000000000081525081526020016040518060400160405280600481526020017f526f636b00000000000000000000000000000000000000000000000000000000815250815260200161019f81526020016000151581526020016040518060c00160405280606963ffffffff168152602001608263ffffffff168152602001607863ffffffff168152602001602d63ffffffff168152602001602d63ffffffff168152602001602863ffffffff1681525081525090806001815401808255809150509060018203906000526020600020906007020160009091929091909150600082015181600001908051906020019063000146a5929190630001ddbe565b5060208201518160010155604082015181600201908051906020019063000146d0929190630001ddbe565b50606082015181600301908051906020019063000146f1929190630001ddbe565b506080820151816004015560a08201518160050160006101000a81548160ff02191690831515021790555060c08201518160060160008201518160000160006101000a81548163ffffffff021916908363ffffffff16021790555060208201518160000160046101000a81548163ffffffff021916908363ffffffff16021790555060408201518160000160086101000a81548163ffffffff021916908363ffffffff160217905550606082015181600001600c6101000a81548163ffffffff021916908363ffffffff16021790555060808201518160000160106101000a81548163ffffffff021916908363ffffffff16021790555060a08201518160000160146101000a81548163ffffffff021916908363ffffffff160217905550505050505060036040518060e001604052806040518060400160405280600781526020017f4368616e736579000000000000000000000000000000000000000000000000008152508152602001607181526020016040518060400160405280600681526020017f4e6f726d616c000000000000000000000000000000000000000000000000000081525081526020016040518060400160405280600381526020017f6e616e000000000000000000000000000000000000000000000000000000000081525081526020016101c281526020016000151581526020016040518060c0016040528060fa63ffffffff168152602001600563ffffffff168152602001600563ffffffff168152602001602363ffffffff168152602001606963ffffffff168152602001603263ffffffff16815250815250908060018154018082558091505090600182039060005260206000209060070201600090919290919091506000820151816000019080519060200190630001498f929190630001ddbe565b5060208201518160010155604082015181600201908051906020019063000149ba929190630001ddbe565b50606082015181600301908051906020019063000149db929190630001ddbe565b506080820151816004015560a08201518160050160006101000a81548160ff02191690831515021790555060c08201518160060160008201518160000160006101000a81548163ffffffff021916908363ffffffff16021790555060208201518160000160046101000a81548163ffffffff021916908363ffffffff16021790555060408201518160000160086101000a81548163ffffffff021916908363ffffffff160217905550606082015181600001600c6101000a81548163ffffffff021916908363ffffffff16021790555060808201518160000160106101000a81548163ffffffff021916908363ffffffff16021790555060a08201518160000160146101000a81548163ffffffff021916908363ffffffff160217905550505050505060036040518060e001604052806040518060400160405280600781526020017f54616e67656c61000000000000000000000000000000000000000000000000008152508152602001607281526020016040518060400160405280600581526020017f477261737300000000000000000000000000000000000000000000000000000081525081526020016040518060400160405280600381526020017f6e616e000000000000000000000000000000000000000000000000000000000081525081526020016101d181526020016000151581526020016040518060c00160405280604163ffffffff168152602001603763ffffffff168152602001607363ffffffff168152602001606463ffffffff168152602001602863ffffffff168152602001603c63ffffffff168152508152509080600181540180825580915050906001820390600052602060002090600702016000909192909190915060008201518160000190805190602001906300014c79929190630001ddbe565b506020820151816001015560408201518160020190805190602001906300014ca4929190630001ddbe565b5060608201518160030190805190602001906300014cc5929190630001ddbe565b506080820151816004015560a08201518160050160006101000a81548160ff02191690831515021790555060c08201518160060160008201518160000160006101000a81548163ffffffff021916908363ffffffff16021790555060208201518160000160046101000a81548163ffffffff021916908363ffffffff16021790555060408201518160000160086101000a81548163ffffffff021916908363ffffffff160217905550606082015181600001600c6101000a81548163ffffffff021916908363ffffffff16021790555060808201518160000160106101000a81548163ffffffff021916908363ffffffff16021790555060a08201518160000160146101000a81548163ffffffff021916908363ffffffff160217905550505050505060036040518060e001604052806040518060400160405280600a81526020017f4b616e6761736b68616e000000000000000000000000000000000000000000008152508152602001607381526020016040518060400160405280600681526020017f4e6f726d616c000000000000000000000000000000000000000000000000000081525081526020016040518060400160405280600381526020017f6e616e0000000000000000000000000000000000000000000000000000000000815250815260200161019a81526020016000151581526020016040518060c00160405280606963ffffffff168152602001605f63ffffffff168152602001605063ffffffff168152602001602863ffffffff168152602001605063ffffffff168152602001605a63ffffffff168152508152509080600181540180825580915050906001820390600052602060002090600702016000909192909190915060008201518160000190805190602001906300014f63929190630001ddbe565b506020820151816001015560408201518160020190805190602001906300014f8e929190630001ddbe565b5060608201518160030190805190602001906300014faf929190630001ddbe565b506080820151816004015560a08201518160050160006101000a81548160ff02191690831515021790555060c08201518160060160008201518160000160006101000a81548163ffffffff021916908363ffffffff16021790555060208201518160000160046101000a81548163ffffffff021916908363ffffffff16021790555060408201518160000160086101000a81548163ffffffff021916908363ffffffff160217905550606082015181600001600c6101000a81548163ffffffff021916908363ffffffff16021790555060808201518160000160106101000a81548163ffffffff021916908363ffffffff16021790555060a08201518160000160146101000a81548163ffffffff021916908363ffffffff160217905550505050505060036040518060e001604052806040518060400160405280600681526020017f486f7273656100000000000000000000000000000000000000000000000000008152508152602001607481526020016040518060400160405280600581526020017f576174657200000000000000000000000000000000000000000000000000000081525081526020016040518060400160405280600381526020017f6e616e0000000000000000000000000000000000000000000000000000000000815250815260200161025d81526020016000151581526020016040518060c00160405280601e63ffffffff168152602001602863ffffffff168152602001604663ffffffff168152602001604663ffffffff168152602001601963ffffffff168152602001603c63ffffffff16815250815250908060018154018082558091505090600182039060005260206000209060070201600090919290919091506000820151816000019080519060200190630001524d929190630001ddbe565b506020820151816001015560408201518160020190805190602001906300015278929190630001ddbe565b5060608201518160030190805190602001906300015299929190630001ddbe565b506080820151816004015560a08201518160050160006101000a81548160ff02191690831515021790555060c08201518160060160008201518160000160006101000a81548163ffffffff021916908363ffffffff16021790555060208201518160000160046101000a81548163ffffffff021916908363ffffffff16021790555060408201518160000160086101000a81548163ffffffff021916908363ffffffff160217905550606082015181600001600c6101000a81548163ffffffff021916908363ffffffff16021790555060808201518160000160106101000a81548163ffffffff021916908363ffffffff16021790555060a08201518160000160146101000a81548163ffffffff021916908363ffffffff160217905550505050505060036040518060e001604052806040518060400160405280600681526020017f53656164726100000000000000000000000000000000000000000000000000008152508152602001607581526020016040518060400160405280600581526020017f576174657200000000000000000000000000000000000000000000000000000081525081526020016040518060400160405280600381526020017f6e616e000000000000000000000000000000000000000000000000000000000081525081526020016101cc81526020016000151581526020016040518060c00160405280603763ffffffff168152602001604163ffffffff168152602001605f63ffffffff168152602001605f63ffffffff168152602001602d63ffffffff168152602001605563ffffffff168152508152509080600181540180825580915050906001820390600052602060002090600702016000909192909190915060008201518160000190805190602001906300015537929190630001ddbe565b506020820151816001015560408201518160020190805190602001906300015562929190630001ddbe565b5060608201518160030190805190602001906300015583929190630001ddbe565b506080820151816004015560a08201518160050160006101000a81548160ff02191690831515021790555060c08201518160060160008201518160000160006101000a81548163ffffffff021916908363ffffffff16021790555060208201518160000160046101000a81548163ffffffff021916908363ffffffff16021790555060408201518160000160086101000a81548163ffffffff021916908363ffffffff160217905550606082015181600001600c6101000a81548163ffffffff021916908363ffffffff16021790555060808201518160000160106101000a81548163ffffffff021916908363ffffffff16021790555060a08201518160000160146101000a81548163ffffffff021916908363ffffffff160217905550505050505060036040518060e001604052806040518060400160405280600781526020017f476f6c6465656e000000000000000000000000000000000000000000000000008152508152602001607681526020016040518060400160405280600581526020017f576174657200000000000000000000000000000000000000000000000000000081525081526020016040518060400160405280600381526020017f6e616e0000000000000000000000000000000000000000000000000000000000815250815260200161024481526020016000151581526020016040518060c00160405280602d63ffffffff168152602001604363ffffffff168152602001603c63ffffffff168152602001602363ffffffff168152602001603263ffffffff168152602001603f63ffffffff168152508152509080600181540180825580915050906001820390600052602060002090600702016000909192909190915060008201518160000190805190602001906300015821929190630001ddbe565b50602082015181600101556040820151816002019080519060200190630001584c929190630001ddbe565b506060820151816003019080519060200190630001586d929190630001ddbe565b506080820151816004015560a08201518160050160006101000a81548160ff02191690831515021790555060c08201518160060160008201518160000160006101000a81548163ffffffff021916908363ffffffff16021790555060208201518160000160046101000a81548163ffffffff021916908363ffffffff16021790555060408201518160000160086101000a81548163ffffffff021916908363ffffffff160217905550606082015181600001600c6101000a81548163ffffffff021916908363ffffffff16021790555060808201518160000160106101000a81548163ffffffff021916908363ffffffff16021790555060a08201518160000160146101000a81548163ffffffff021916908363ffffffff160217905550505050505060036040518060e001604052806040518060400160405280600781526020017f5365616b696e67000000000000000000000000000000000000000000000000008152508152602001607781526020016040518060400160405280600581526020017f576174657200000000000000000000000000000000000000000000000000000081525081526020016040518060400160405280600381526020017f6e616e000000000000000000000000000000000000000000000000000000000081525081526020016101c281526020016000151581526020016040518060c00160405280605063ffffffff168152602001605c63ffffffff168152602001604163ffffffff168152602001604163ffffffff168152602001605063ffffffff168152602001604463ffffffff168152508152509080600181540180825580915050906001820390600052602060002090600702016000909192909190915060008201518160000190805190602001906300015b0b929190630001ddbe565b506020820151816001015560408201518160020190805190602001906300015b36929190630001ddbe565b5060608201518160030190805190602001906300015b57929190630001ddbe565b506080820151816004015560a08201518160050160006101000a81548160ff02191690831515021790555060c08201518160060160008201518160000160006101000a81548163ffffffff021916908363ffffffff16021790555060208201518160000160046101000a81548163ffffffff021916908363ffffffff16021790555060408201518160000160086101000a81548163ffffffff021916908363ffffffff160217905550606082015181600001600c6101000a81548163ffffffff021916908363ffffffff16021790555060808201518160000160106101000a81548163ffffffff021916908363ffffffff16021790555060a08201518160000160146101000a81548163ffffffff021916908363ffffffff160217905550505050505060036040518060e001604052806040518060400160405280600681526020017f53746172797500000000000000000000000000000000000000000000000000008152508152602001607881526020016040518060400160405280600581526020017f576174657200000000000000000000000000000000000000000000000000000081525081526020016040518060400160405280600381526020017f6e616e0000000000000000000000000000000000000000000000000000000000815250815260200161023081526020016000151581526020016040518060c00160405280601e63ffffffff168152602001602d63ffffffff168152602001603763ffffffff168152602001604663ffffffff168152602001603763ffffffff168152602001605563ffffffff168152508152509080600181540180825580915050906001820390600052602060002090600702016000909192909190915060008201518160000190805190602001906300015df5929190630001ddbe565b506020820151816001015560408201518160020190805190602001906300015e20929190630001ddbe565b5060608201518160030190805190602001906300015e41929190630001ddbe565b506080820151816004015560a08201518160050160006101000a81548160ff02191690831515021790555060c08201518160060160008201518160000160006101000a81548163ffffffff021916908363ffffffff16021790555060208201518160000160046101000a81548163ffffffff021916908363ffffffff16021790555060408201518160000160086101000a81548163ffffffff021916908363ffffffff160217905550606082015181600001600c6101000a81548163ffffffff021916908363ffffffff16021790555060808201518160000160106101000a81548163ffffffff021916908363ffffffff16021790555060a08201518160000160146101000a81548163ffffffff021916908363ffffffff160217905550505050505060036040518060e001604052806040518060400160405280600781526020017f537461726d6965000000000000000000000000000000000000000000000000008152508152602001607981526020016040518060400160405280600581526020017f576174657200000000000000000000000000000000000000000000000000000081525081526020016040518060400160405280600781526020017f5073796368696300000000000000000000000000000000000000000000000000815250815260200161017c81526020016000151581526020016040518060c00160405280603c63ffffffff168152602001604b63ffffffff168152602001605563ffffffff168152602001606463ffffffff168152602001605563ffffffff168152602001607363ffffffff1681525081525090806001815401808255809150509060018203906000526020600020906007020160009091929091909150600082015181600001908051906020019063000160df929190630001ddbe565b50602082015181600101556040820151816002019080519060200190630001610a929190630001ddbe565b506060820151816003019080519060200190630001612b929190630001ddbe565b506080820151816004015560a08201518160050160006101000a81548160ff02191690831515021790555060c08201518160060160008201518160000160006101000a81548163ffffffff021916908363ffffffff16021790555060208201518160000160046101000a81548163ffffffff021916908363ffffffff16021790555060408201518160000160086101000a81548163ffffffff021916908363ffffffff160217905550606082015181600001600c6101000a81548163ffffffff021916908363ffffffff16021790555060808201518160000160106101000a81548163ffffffff021916908363ffffffff16021790555060a08201518160000160146101000a81548163ffffffff021916908363ffffffff160217905550505050505060036040518060e001604052806040518060400160405280600881526020017f4d722e204d696d650000000000000000000000000000000000000000000000008152508152602001607a81526020016040518060400160405280600781526020017f507379636869630000000000000000000000000000000000000000000000000081525081526020016040518060400160405280600581526020017f466169727900000000000000000000000000000000000000000000000000000081525081526020016101b881526020016000151581526020016040518060c00160405280602863ffffffff168152602001602d63ffffffff168152602001604163ffffffff168152602001606463ffffffff168152602001607863ffffffff168152602001605a63ffffffff1681525081525090806001815401808255809150509060018203906000526020600020906007020160009091929091909150600082015181600001908051906020019063000163c9929190630001ddbe565b5060208201518160010155604082015181600201908051906020019063000163f4929190630001ddbe565b5060608201518160030190805190602001906300016415929190630001ddbe565b506080820151816004015560a08201518160050160006101000a81548160ff02191690831515021790555060c08201518160060160008201518160000160006101000a81548163ffffffff021916908363ffffffff16021790555060208201518160000160046101000a81548163ffffffff021916908363ffffffff16021790555060408201518160000160086101000a81548163ffffffff021916908363ffffffff160217905550606082015181600001600c6101000a81548163ffffffff021916908363ffffffff16021790555060808201518160000160106101000a81548163ffffffff021916908363ffffffff16021790555060a08201518160000160146101000a81548163ffffffff021916908363ffffffff160217905550505050505060036040518060e001604052806040518060400160405280600781526020017f53637974686572000000000000000000000000000000000000000000000000008152508152602001607b81526020016040518060400160405280600381526020017f427567000000000000000000000000000000000000000000000000000000000081525081526020016040518060400160405280600681526020017f466c79696e670000000000000000000000000000000000000000000000000000815250815260200161019081526020016000151581526020016040518060c00160405280604663ffffffff168152602001606e63ffffffff168152602001605063ffffffff168152602001603763ffffffff168152602001605063ffffffff168152602001606963ffffffff1681525081525090806001815401808255809150509060018203906000526020600020906007020160009091929091909150600082015181600001908051906020019063000166b3929190630001ddbe565b5060208201518160010155604082015181600201908051906020019063000166de929190630001ddbe565b50606082015181600301908051906020019063000166ff929190630001ddbe565b506080820151816004015560a08201518160050160006101000a81548160ff02191690831515021790555060c08201518160060160008201518160000160006101000a81548163ffffffff021916908363ffffffff16021790555060208201518160000160046101000a81548163ffffffff021916908363ffffffff16021790555060408201518160000160086101000a81548163ffffffff021916908363ffffffff160217905550606082015181600001600c6101000a81548163ffffffff021916908363ffffffff16021790555060808201518160000160106101000a81548163ffffffff021916908363ffffffff16021790555060a08201518160000160146101000a81548163ffffffff021916908363ffffffff160217905550505050505060036040518060e001604052806040518060400160405280600481526020017f4a796e78000000000000000000000000000000000000000000000000000000008152508152602001607c81526020016040518060400160405280600381526020017f496365000000000000000000000000000000000000000000000000000000000081525081526020016040518060400160405280600781526020017f507379636869630000000000000000000000000000000000000000000000000081525081526020016101bd81526020016000151581526020016040518060c00160405280604163ffffffff168152602001603263ffffffff168152602001602363ffffffff168152602001607363ffffffff168152602001605f63ffffffff168152602001605f63ffffffff16815250815250908060018154018082558091505090600182039060005260206000209060070201600090919290919091506000820151816000019080519060200190630001699d929190630001ddbe565b5060208201518160010155604082015181600201908051906020019063000169c8929190630001ddbe565b50606082015181600301908051906020019063000169e9929190630001ddbe565b506080820151816004015560a08201518160050160006101000a81548160ff02191690831515021790555060c08201518160060160008201518160000160006101000a81548163ffffffff021916908363ffffffff16021790555060208201518160000160046101000a81548163ffffffff021916908363ffffffff16021790555060408201518160000160086101000a81548163ffffffff021916908363ffffffff160217905550606082015181600001600c6101000a81548163ffffffff021916908363ffffffff16021790555060808201518160000160106101000a81548163ffffffff021916908363ffffffff16021790555060a08201518160000160146101000a81548163ffffffff021916908363ffffffff160217905550505050505060036040518060e001604052806040518060400160405280600a81526020017f456c6563746162757a7a000000000000000000000000000000000000000000008152508152602001607d81526020016040518060400160405280600881526020017f456c65637472696300000000000000000000000000000000000000000000000081525081526020016040518060400160405280600381526020017f6e616e0000000000000000000000000000000000000000000000000000000000815250815260200161019a81526020016000151581526020016040518060c00160405280604163ffffffff168152602001605363ffffffff168152602001603963ffffffff168152602001605f63ffffffff168152602001605563ffffffff168152602001606963ffffffff168152508152509080600181540180825580915050906001820390600052602060002090600702016000909192909190915060008201518160000190805190602001906300016c87929190630001ddbe565b506020820151816001015560408201518160020190805190602001906300016cb2929190630001ddbe565b5060608201518160030190805190602001906300016cd3929190630001ddbe565b506080820151816004015560a08201518160050160006101000a81548160ff02191690831515021790555060c08201518160060160008201518160000160006101000a81548163ffffffff021916908363ffffffff16021790555060208201518160000160046101000a81548163ffffffff021916908363ffffffff16021790555060408201518160000160086101000a81548163ffffffff021916908363ffffffff160217905550606082015181600001600c6101000a81548163ffffffff021916908363ffffffff16021790555060808201518160000160106101000a81548163ffffffff021916908363ffffffff16021790555060a08201518160000160146101000a81548163ffffffff021916908363ffffffff160217905550505050505060036040518060e001604052806040518060400160405280600681526020017f4d61676d617200000000000000000000000000000000000000000000000000008152508152602001607e81526020016040518060400160405280600481526020017f466972650000000000000000000000000000000000000000000000000000000081525081526020016040518060400160405280600381526020017f6e616e0000000000000000000000000000000000000000000000000000000000815250815260200161019581526020016000151581526020016040518060c00160405280604163ffffffff168152602001605f63ffffffff168152602001603963ffffffff168152602001606463ffffffff168152602001605563ffffffff168152602001605d63ffffffff168152508152509080600181540180825580915050906001820390600052602060002090600702016000909192909190915060008201518160000190805190602001906300016f71929190630001ddbe565b506020820151816001015560408201518160020190805190602001906300016f9c929190630001ddbe565b5060608201518160030190805190602001906300016fbd929190630001ddbe565b506080820151816004015560a08201518160050160006101000a81548160ff02191690831515021790555060c08201518160060160008201518160000160006101000a81548163ffffffff021916908363ffffffff16021790555060208201518160000160046101000a81548163ffffffff021916908363ffffffff16021790555060408201518160000160086101000a81548163ffffffff021916908363ffffffff160217905550606082015181600001600c6101000a81548163ffffffff021916908363ffffffff16021790555060808201518160000160106101000a81548163ffffffff021916908363ffffffff16021790555060a08201518160000160146101000a81548163ffffffff021916908363ffffffff160217905550505050505060036040518060e001604052806040518060400160405280600681526020017f50696e73697200000000000000000000000000000000000000000000000000008152508152602001607f81526020016040518060400160405280600381526020017f427567000000000000000000000000000000000000000000000000000000000081525081526020016040518060400160405280600381526020017f6e616e0000000000000000000000000000000000000000000000000000000000815250815260200161019081526020016000151581526020016040518060c00160405280604163ffffffff168152602001607d63ffffffff168152602001606463ffffffff168152602001603763ffffffff168152602001604663ffffffff168152602001605563ffffffff16815250815250908060018154018082558091505090600182039060005260206000209060070201600090919290919091506000820151816000019080519060200190630001725b929190630001ddbe565b506020820151816001015560408201518160020190805190602001906300017286929190630001ddbe565b50606082015181600301908051906020019063000172a7929190630001ddbe565b506080820151816004015560a08201518160050160006101000a81548160ff02191690831515021790555060c08201518160060160008201518160000160006101000a81548163ffffffff021916908363ffffffff16021790555060208201518160000160046101000a81548163ffffffff021916908363ffffffff16021790555060408201518160000160086101000a81548163ffffffff021916908363ffffffff160217905550606082015181600001600c6101000a81548163ffffffff021916908363ffffffff16021790555060808201518160000160106101000a81548163ffffffff021916908363ffffffff16021790555060a08201518160000160146101000a81548163ffffffff021916908363ffffffff160217905550505050505060036040518060e001604052806040518060400160405280600681526020017f546175726f7300000000000000000000000000000000000000000000000000008152508152602001608081526020016040518060400160405280600681526020017f4e6f726d616c000000000000000000000000000000000000000000000000000081525081526020016040518060400160405280600381526020017f6e616e0000000000000000000000000000000000000000000000000000000000815250815260200161019a81526020016000151581526020016040518060c00160405280604b63ffffffff168152602001606463ffffffff168152602001605f63ffffffff168152602001602863ffffffff168152602001604663ffffffff168152602001606e63ffffffff168152508152509080600181540180825580915050906001820390600052602060002090600702016000909192909190915060008201518160000190805190602001906300017545929190630001ddbe565b506020820151816001015560408201518160020190805190602001906300017570929190630001ddbe565b5060608201518160030190805190602001906300017591929190630001ddbe565b506080820151816004015560a08201518160050160006101000a81548160ff02191690831515021790555060c08201518160060160008201518160000160006101000a81548163ffffffff021916908363ffffffff16021790555060208201518160000160046101000a81548163ffffffff021916908363ffffffff16021790555060408201518160000160086101000a81548163ffffffff021916908363ffffffff160217905550606082015181600001600c6101000a81548163ffffffff021916908363ffffffff16021790555060808201518160000160106101000a81548163ffffffff021916908363ffffffff16021790555060a08201518160000160146101000a81548163ffffffff021916908363ffffffff160217905550505050505060036040518060e001604052806040518060400160405280600881526020017f4d6167696b6172700000000000000000000000000000000000000000000000008152508152602001608181526020016040518060400160405280600581526020017f576174657200000000000000000000000000000000000000000000000000000081525081526020016040518060400160405280600381526020017f6e616e000000000000000000000000000000000000000000000000000000000081525081526020016102bc81526020016000151581526020016040518060c00160405280601463ffffffff168152602001600a63ffffffff168152602001603763ffffffff168152602001600f63ffffffff168152602001601463ffffffff168152602001605063ffffffff16815250815250908060018154018082558091505090600182039060005260206000209060070201600090919290919091506000820151816000019080519060200190630001782f929190630001ddbe565b50602082015181600101556040820151816002019080519060200190630001785a929190630001ddbe565b506060820151816003019080519060200190630001787b929190630001ddbe565b506080820151816004015560a08201518160050160006101000a81548160ff02191690831515021790555060c08201518160060160008201518160000160006101000a81548163ffffffff021916908363ffffffff16021790555060208201518160000160046101000a81548163ffffffff021916908363ffffffff16021790555060408201518160000160086101000a81548163ffffffff021916908363ffffffff160217905550606082015181600001600c6101000a81548163ffffffff021916908363ffffffff16021790555060808201518160000160106101000a81548163ffffffff021916908363ffffffff16021790555060a08201518160000160146101000a81548163ffffffff021916908363ffffffff160217905550505050505060036040518060e001604052806040518060400160405280600881526020017f4779617261646f730000000000000000000000000000000000000000000000008152508152602001608281526020016040518060400160405280600581526020017f576174657200000000000000000000000000000000000000000000000000000081525081526020016040518060400160405280600681526020017f466c79696e670000000000000000000000000000000000000000000000000000815250815260200161016881526020016000151581526020016040518060c00160405280605f63ffffffff168152602001607d63ffffffff168152602001604f63ffffffff168152602001603c63ffffffff168152602001606463ffffffff168152602001605163ffffffff168152508152509080600181540180825580915050906001820390600052602060002090600702016000909192909190915060008201518160000190805190602001906300017b19929190630001ddbe565b506020820151816001015560408201518160020190805190602001906300017b44929190630001ddbe565b5060608201518160030190805190602001906300017b65929190630001ddbe565b506080820151816004015560a08201518160050160006101000a81548160ff02191690831515021790555060c08201518160060160008201518160000160006101000a81548163ffffffff021916908363ffffffff16021790555060208201518160000160046101000a81548163ffffffff021916908363ffffffff16021790555060408201518160000160086101000a81548163ffffffff021916908363ffffffff160217905550606082015181600001600c6101000a81548163ffffffff021916908363ffffffff16021790555060808201518160000160106101000a81548163ffffffff021916908363ffffffff16021790555060a08201518160000160146101000a81548163ffffffff021916908363ffffffff160217905550505050505060036040518060e001604052806040518060400160405280600681526020017f4c617072617300000000000000000000000000000000000000000000000000008152508152602001608381526020016040518060400160405280600581526020017f576174657200000000000000000000000000000000000000000000000000000081525081526020016040518060400160405280600381526020017f4963650000000000000000000000000000000000000000000000000000000000815250815260200161016d81526020016000151581526020016040518060c00160405280608263ffffffff168152602001605563ffffffff168152602001605063ffffffff168152602001605563ffffffff168152602001605f63ffffffff168152602001603c63ffffffff168152508152509080600181540180825580915050906001820390600052602060002090600702016000909192909190915060008201518160000190805190602001906300017e03929190630001ddbe565b506020820151816001015560408201518160020190805190602001906300017e2e929190630001ddbe565b5060608201518160030190805190602001906300017e4f929190630001ddbe565b506080820151816004015560a08201518160050160006101000a81548160ff02191690831515021790555060c08201518160060160008201518160000160006101000a81548163ffffffff021916908363ffffffff16021790555060208201518160000160046101000a81548163ffffffff021916908363ffffffff16021790555060408201518160000160086101000a81548163ffffffff021916908363ffffffff160217905550606082015181600001600c6101000a81548163ffffffff021916908363ffffffff16021790555060808201518160000160106101000a81548163ffffffff021916908363ffffffff16021790555060a08201518160000160146101000a81548163ffffffff021916908363ffffffff160217905550505050505060036040518060e001604052806040518060400160405280600581526020017f446974746f0000000000000000000000000000000000000000000000000000008152508152602001608481526020016040518060400160405280600681526020017f4e6f726d616c000000000000000000000000000000000000000000000000000081525081526020016040518060400160405280600381526020017f6e616e0000000000000000000000000000000000000000000000000000000000815250815260200161026481526020016000151581526020016040518060c00160405280603063ffffffff168152602001603063ffffffff168152602001603063ffffffff168152602001603063ffffffff168152602001603063ffffffff168152602001603063ffffffff1681525081525090806001815401808255809150509060018203906000526020600020906007020160009091929091909150600082015181600001908051906020019063000180ed929190630001ddbe565b506020820151816001015560408201518160020190805190602001906300018118929190630001ddbe565b5060608201518160030190805190602001906300018139929190630001ddbe565b506080820151816004015560a08201518160050160006101000a81548160ff02191690831515021790555060c08201518160060160008201518160000160006101000a81548163ffffffff021916908363ffffffff16021790555060208201518160000160046101000a81548163ffffffff021916908363ffffffff16021790555060408201518160000160086101000a81548163ffffffff021916908363ffffffff160217905550606082015181600001600c6101000a81548163ffffffff021916908363ffffffff16021790555060808201518160000160106101000a81548163ffffffff021916908363ffffffff16021790555060a08201518160000160146101000a81548163ffffffff021916908363ffffffff160217905550505050505060036040518060e001604052806040518060400160405280600581526020017f45657665650000000000000000000000000000000000000000000000000000008152508152602001608581526020016040518060400160405280600681526020017f4e6f726d616c000000000000000000000000000000000000000000000000000081525081526020016040518060400160405280600381526020017f6e616e0000000000000000000000000000000000000000000000000000000000815250815260200161023f81526020016000151581526020016040518060c00160405280603763ffffffff168152602001603763ffffffff168152602001603263ffffffff168152602001602d63ffffffff168152602001604163ffffffff168152602001603763ffffffff1681525081525090806001815401808255809150509060018203906000526020600020906007020160009091929091909150600082015181600001908051906020019063000183d7929190630001ddbe565b506020820151816001015560408201518160020190805190602001906300018402929190630001ddbe565b5060608201518160030190805190602001906300018423929190630001ddbe565b506080820151816004015560a08201518160050160006101000a81548160ff02191690831515021790555060c08201518160060160008201518160000160006101000a81548163ffffffff021916908363ffffffff16021790555060208201518160000160046101000a81548163ffffffff021916908363ffffffff16021790555060408201518160000160086101000a81548163ffffffff021916908363ffffffff160217905550606082015181600001600c6101000a81548163ffffffff021916908363ffffffff16021790555060808201518160000160106101000a81548163ffffffff021916908363ffffffff16021790555060a08201518160000160146101000a81548163ffffffff021916908363ffffffff160217905550505050505060036040518060e001604052806040518060400160405280600881526020017f5661706f72656f6e0000000000000000000000000000000000000000000000008152508152602001608681526020016040518060400160405280600581526020017f576174657200000000000000000000000000000000000000000000000000000081525081526020016040518060400160405280600381526020017f6e616e0000000000000000000000000000000000000000000000000000000000815250815260200161017781526020016000151581526020016040518060c00160405280608263ffffffff168152602001604163ffffffff168152602001603c63ffffffff168152602001606e63ffffffff168152602001605f63ffffffff168152602001604163ffffffff1681525081525090806001815401808255809150509060018203906000526020600020906007020160009091929091909150600082015181600001908051906020019063000186c1929190630001ddbe565b5060208201518160010155604082015181600201908051906020019063000186ec929190630001ddbe565b506060820151816003019080519060200190630001870d929190630001ddbe565b506080820151816004015560a08201518160050160006101000a81548160ff02191690831515021790555060c08201518160060160008201518160000160006101000a81548163ffffffff021916908363ffffffff16021790555060208201518160000160046101000a81548163ffffffff021916908363ffffffff16021790555060408201518160000160086101000a81548163ffffffff021916908363ffffffff160217905550606082015181600001600c6101000a81548163ffffffff021916908363ffffffff16021790555060808201518160000160106101000a81548163ffffffff021916908363ffffffff16021790555060a08201518160000160146101000a81548163ffffffff021916908363ffffffff160217905550505050505060036040518060e001604052806040518060400160405280600781526020017f4a6f6c74656f6e000000000000000000000000000000000000000000000000008152508152602001608781526020016040518060400160405280600881526020017f456c65637472696300000000000000000000000000000000000000000000000081525081526020016040518060400160405280600381526020017f6e616e0000000000000000000000000000000000000000000000000000000000815250815260200161017781526020016000151581526020016040518060c00160405280604163ffffffff168152602001604163ffffffff168152602001603c63ffffffff168152602001606e63ffffffff168152602001605f63ffffffff168152602001608263ffffffff1681525081525090806001815401808255809150509060018203906000526020600020906007020160009091929091909150600082015181600001908051906020019063000189ab929190630001ddbe565b5060208201518160010155604082015181600201908051906020019063000189d6929190630001ddbe565b50606082015181600301908051906020019063000189f7929190630001ddbe565b506080820151816004015560a08201518160050160006101000a81548160ff02191690831515021790555060c08201518160060160008201518160000160006101000a81548163ffffffff021916908363ffffffff16021790555060208201518160000160046101000a81548163ffffffff021916908363ffffffff16021790555060408201518160000160086101000a81548163ffffffff021916908363ffffffff160217905550606082015181600001600c6101000a81548163ffffffff021916908363ffffffff16021790555060808201518160000160106101000a81548163ffffffff021916908363ffffffff16021790555060a08201518160000160146101000a81548163ffffffff021916908363ffffffff160217905550505050505060036040518060e001604052806040518060400160405280600781526020017f466c6172656f6e000000000000000000000000000000000000000000000000008152508152602001608881526020016040518060400160405280600481526020017f466972650000000000000000000000000000000000000000000000000000000081525081526020016040518060400160405280600381526020017f6e616e0000000000000000000000000000000000000000000000000000000000815250815260200161017781526020016000151581526020016040518060c00160405280604163ffffffff168152602001608263ffffffff168152602001603c63ffffffff168152602001605f63ffffffff168152602001606e63ffffffff168152602001604163ffffffff168152508152509080600181540180825580915050906001820390600052602060002090600702016000909192909190915060008201518160000190805190602001906300018c95929190630001ddbe565b506020820151816001015560408201518160020190805190602001906300018cc0929190630001ddbe565b5060608201518160030190805190602001906300018ce1929190630001ddbe565b506080820151816004015560a08201518160050160006101000a81548160ff02191690831515021790555060c08201518160060160008201518160000160006101000a81548163ffffffff021916908363ffffffff16021790555060208201518160000160046101000a81548163ffffffff021916908363ffffffff16021790555060408201518160000160086101000a81548163ffffffff021916908363ffffffff160217905550606082015181600001600c6101000a81548163ffffffff021916908363ffffffff16021790555060808201518160000160106101000a81548163ffffffff021916908363ffffffff16021790555060a08201518160000160146101000a81548163ffffffff021916908363ffffffff160217905550505050505060036040518060e001604052806040518060400160405280600781526020017f506f7279676f6e000000000000000000000000000000000000000000000000008152508152602001608981526020016040518060400160405280600681526020017f4e6f726d616c000000000000000000000000000000000000000000000000000081525081526020016040518060400160405280600381526020017f6e616e000000000000000000000000000000000000000000000000000000000081525081526020016101f981526020016000151581526020016040518060c00160405280604163ffffffff168152602001603c63ffffffff168152602001604663ffffffff168152602001605563ffffffff168152602001604b63ffffffff168152602001602863ffffffff168152508152509080600181540180825580915050906001820390600052602060002090600702016000909192909190915060008201518160000190805190602001906300018f7f929190630001ddbe565b506020820151816001015560408201518160020190805190602001906300018faa929190630001ddbe565b5060608201518160030190805190602001906300018fcb929190630001ddbe565b506080820151816004015560a08201518160050160006101000a81548160ff02191690831515021790555060c08201518160060160008201518160000160006101000a81548163ffffffff021916908363ffffffff16021790555060208201518160000160046101000a81548163ffffffff021916908363ffffffff16021790555060408201518160000160086101000a81548163ffffffff021916908363ffffffff160217905550606082015181600001600c6101000a81548163ffffffff021916908363ffffffff16021790555060808201518160000160106101000a81548163ffffffff021916908363ffffffff16021790555060a08201518160000160146101000a81548163ffffffff021916908363ffffffff160217905550505050505060036040518060e001604052806040518060400160405280600781526020017f4f6d616e797465000000000000000000000000000000000000000000000000008152508152602001608a81526020016040518060400160405280600481526020017f526f636b0000000000000000000000000000000000000000000000000000000081525081526020016040518060400160405280600581526020017f5761746572000000000000000000000000000000000000000000000000000000815250815260200161022181526020016000151581526020016040518060c00160405280602363ffffffff168152602001602863ffffffff168152602001606463ffffffff168152602001605a63ffffffff168152602001603763ffffffff168152602001602363ffffffff168152508152509080600181540180825580915050906001820390600052602060002090600702016000909192909190915060008201518160000190805190602001906300019269929190630001ddbe565b506020820151816001015560408201518160020190805190602001906300019294929190630001ddbe565b50606082015181600301908051906020019063000192b5929190630001ddbe565b506080820151816004015560a08201518160050160006101000a81548160ff02191690831515021790555060c08201518160060160008201518160000160006101000a81548163ffffffff021916908363ffffffff16021790555060208201518160000160046101000a81548163ffffffff021916908363ffffffff16021790555060408201518160000160086101000a81548163ffffffff021916908363ffffffff160217905550606082015181600001600c6101000a81548163ffffffff021916908363ffffffff16021790555060808201518160000160106101000a81548163ffffffff021916908363ffffffff16021790555060a08201518160000160146101000a81548163ffffffff021916908363ffffffff160217905550505050505060036040518060e001604052806040518060400160405280600781526020017f4f6d6173746172000000000000000000000000000000000000000000000000008152508152602001608b81526020016040518060400160405280600481526020017f526f636b0000000000000000000000000000000000000000000000000000000081525081526020016040518060400160405280600581526020017f5761746572000000000000000000000000000000000000000000000000000000815250815260200161019581526020016000151581526020016040518060c00160405280604663ffffffff168152602001603c63ffffffff168152602001607d63ffffffff168152602001607363ffffffff168152602001604663ffffffff168152602001603763ffffffff168152508152509080600181540180825580915050906001820390600052602060002090600702016000909192909190915060008201518160000190805190602001906300019553929190630001ddbe565b50602082015181600101556040820151816002019080519060200190630001957e929190630001ddbe565b506060820151816003019080519060200190630001959f929190630001ddbe565b506080820151816004015560a08201518160050160006101000a81548160ff02191690831515021790555060c08201518160060160008201518160000160006101000a81548163ffffffff021916908363ffffffff16021790555060208201518160000160046101000a81548163ffffffff021916908363ffffffff16021790555060408201518160000160086101000a81548163ffffffff021916908363ffffffff160217905550606082015181600001600c6101000a81548163ffffffff021916908363ffffffff16021790555060808201518160000160106101000a81548163ffffffff021916908363ffffffff16021790555060a08201518160000160146101000a81548163ffffffff021916908363ffffffff160217905550505050505060036040518060e001604052806040518060400160405280600681526020017f4b616275746f00000000000000000000000000000000000000000000000000008152508152602001608c81526020016040518060400160405280600481526020017f526f636b0000000000000000000000000000000000000000000000000000000081525081526020016040518060400160405280600581526020017f5761746572000000000000000000000000000000000000000000000000000000815250815260200161022181526020016000151581526020016040518060c00160405280601e63ffffffff168152602001605063ffffffff168152602001605a63ffffffff168152602001603763ffffffff168152602001602d63ffffffff168152602001603763ffffffff16815250815250908060018154018082558091505090600182039060005260206000209060070201600090919290919091506000820151816000019080519060200190630001983d929190630001ddbe565b506020820151816001015560408201518160020190805190602001906300019868929190630001ddbe565b5060608201518160030190805190602001906300019889929190630001ddbe565b506080820151816004015560a08201518160050160006101000a81548160ff02191690831515021790555060c08201518160060160008201518160000160006101000a81548163ffffffff021916908363ffffffff16021790555060208201518160000160046101000a81548163ffffffff021916908363ffffffff16021790555060408201518160000160086101000a81548163ffffffff021916908363ffffffff160217905550606082015181600001600c6101000a81548163ffffffff021916908363ffffffff16021790555060808201518160000160106101000a81548163ffffffff021916908363ffffffff16021790555060a08201518160000160146101000a81548163ffffffff021916908363ffffffff160217905550505050505060036040518060e001604052806040518060400160405280600881526020017f4b616275746f70730000000000000000000000000000000000000000000000008152508152602001608d81526020016040518060400160405280600481526020017f526f636b0000000000000000000000000000000000000000000000000000000081525081526020016040518060400160405280600581526020017f5761746572000000000000000000000000000000000000000000000000000000815250815260200161019581526020016000151581526020016040518060c00160405280603c63ffffffff168152602001607363ffffffff168152602001606963ffffffff168152602001604163ffffffff168152602001604663ffffffff168152602001605063ffffffff168152508152509080600181540180825580915050906001820390600052602060002090600702016000909192909190915060008201518160000190805190602001906300019b27929190630001ddbe565b506020820151816001015560408201518160020190805190602001906300019b52929190630001ddbe565b5060608201518160030190805190602001906300019b73929190630001ddbe565b506080820151816004015560a08201518160050160006101000a81548160ff02191690831515021790555060c08201518160060160008201518160000160006101000a81548163ffffffff021916908363ffffffff16021790555060208201518160000160046101000a81548163ffffffff021916908363ffffffff16021790555060408201518160000160086101000a81548163ffffffff021916908363ffffffff160217905550606082015181600001600c6101000a81548163ffffffff021916908363ffffffff16021790555060808201518160000160106101000a81548163ffffffff021916908363ffffffff16021790555060a08201518160000160146101000a81548163ffffffff021916908363ffffffff160217905550505050505060036040518060e001604052806040518060400160405280600a81526020017f4165726f64616374796c000000000000000000000000000000000000000000008152508152602001608e81526020016040518060400160405280600481526020017f526f636b0000000000000000000000000000000000000000000000000000000081525081526020016040518060400160405280600681526020017f466c79696e670000000000000000000000000000000000000000000000000000815250815260200161018181526020016000151581526020016040518060c00160405280605063ffffffff168152602001606963ffffffff168152602001604163ffffffff168152602001603c63ffffffff168152602001604b63ffffffff168152602001608263ffffffff168152508152509080600181540180825580915050906001820390600052602060002090600702016000909192909190915060008201518160000190805190602001906300019e11929190630001ddbe565b506020820151816001015560408201518160020190805190602001906300019e3c929190630001ddbe565b5060608201518160030190805190602001906300019e5d929190630001ddbe565b506080820151816004015560a08201518160050160006101000a81548160ff02191690831515021790555060c08201518160060160008201518160000160006101000a81548163ffffffff021916908363ffffffff16021790555060208201518160000160046101000a81548163ffffffff021916908363ffffffff16021790555060408201518160000160086101000a81548163ffffffff021916908363ffffffff160217905550606082015181600001600c6101000a81548163ffffffff021916908363ffffffff16021790555060808201518160000160106101000a81548163ffffffff021916908363ffffffff16021790555060a08201518160000160146101000a81548163ffffffff021916908363ffffffff160217905550505050505060036040518060e001604052806040518060400160405280600781526020017f536e6f726c6178000000000000000000000000000000000000000000000000008152508152602001608f81526020016040518060400160405280600681526020017f4e6f726d616c000000000000000000000000000000000000000000000000000081525081526020016040518060400160405280600381526020017f6e616e0000000000000000000000000000000000000000000000000000000000815250815260200161016881526020016000151581526020016040518060c0016040528060a063ffffffff168152602001606e63ffffffff168152602001604163ffffffff168152602001604163ffffffff168152602001606e63ffffffff168152602001601e63ffffffff16815250815250908060018154018082558091505090600182039060005260206000209060070201600090919290919091506000820151816000019080519060200190630001a0fb929190630001ddbe565b50602082015181600101556040820151816002019080519060200190630001a126929190630001ddbe565b506060820151816003019080519060200190630001a147929190630001ddbe565b506080820151816004015560a08201518160050160006101000a81548160ff02191690831515021790555060c08201518160060160008201518160000160006101000a81548163ffffffff021916908363ffffffff16021790555060208201518160000160046101000a81548163ffffffff021916908363ffffffff16021790555060408201518160000160086101000a81548163ffffffff021916908363ffffffff160217905550606082015181600001600c6101000a81548163ffffffff021916908363ffffffff16021790555060808201518160000160106101000a81548163ffffffff021916908363ffffffff16021790555060a08201518160000160146101000a81548163ffffffff021916908363ffffffff160217905550505050505060036040518060e001604052806040518060400160405280600881526020017f4172746963756e6f0000000000000000000000000000000000000000000000008152508152602001609081526020016040518060400160405280600381526020017f496365000000000000000000000000000000000000000000000000000000000081525081526020016040518060400160405280600681526020017f466c79696e670000000000000000000000000000000000000000000000000000815250815260200161014081526020016001151581526020016040518060c00160405280605a63ffffffff168152602001605563ffffffff168152602001606463ffffffff168152602001605f63ffffffff168152602001607d63ffffffff168152602001605563ffffffff16815250815250908060018154018082558091505090600182039060005260206000209060070201600090919290919091506000820151816000019080519060200190630001a3e5929190630001ddbe565b50602082015181600101556040820151816002019080519060200190630001a410929190630001ddbe565b506060820151816003019080519060200190630001a431929190630001ddbe565b506080820151816004015560a08201518160050160006101000a81548160ff02191690831515021790555060c08201518160060160008201518160000160006101000a81548163ffffffff021916908363ffffffff16021790555060208201518160000160046101000a81548163ffffffff021916908363ffffffff16021790555060408201518160000160086101000a81548163ffffffff021916908363ffffffff160217905550606082015181600001600c6101000a81548163ffffffff021916908363ffffffff16021790555060808201518160000160106101000a81548163ffffffff021916908363ffffffff16021790555060a08201518160000160146101000a81548163ffffffff021916908363ffffffff160217905550505050505060036040518060e001604052806040518060400160405280600681526020017f5a6170646f7300000000000000000000000000000000000000000000000000008152508152602001609181526020016040518060400160405280600881526020017f456c65637472696300000000000000000000000000000000000000000000000081525081526020016040518060400160405280600681526020017f466c79696e670000000000000000000000000000000000000000000000000000815250815260200161014081526020016001151581526020016040518060c00160405280605a63ffffffff168152602001605a63ffffffff168152602001605563ffffffff168152602001607d63ffffffff168152602001605a63ffffffff168152602001606463ffffffff16815250815250908060018154018082558091505090600182039060005260206000209060070201600090919290919091506000820151816000019080519060200190630001a6cf929190630001ddbe565b50602082015181600101556040820151816002019080519060200190630001a6fa929190630001ddbe565b506060820151816003019080519060200190630001a71b929190630001ddbe565b506080820151816004015560a08201518160050160006101000a81548160ff02191690831515021790555060c08201518160060160008201518160000160006101000a81548163ffffffff021916908363ffffffff16021790555060208201518160000160046101000a81548163ffffffff021916908363ffffffff16021790555060408201518160000160086101000a81548163ffffffff021916908363ffffffff160217905550606082015181600001600c6101000a81548163ffffffff021916908363ffffffff16021790555060808201518160000160106101000a81548163ffffffff021916908363ffffffff16021790555060a08201518160000160146101000a81548163ffffffff021916908363ffffffff160217905550505050505060036040518060e001604052806040518060400160405280600781526020017f4d6f6c74726573000000000000000000000000000000000000000000000000008152508152602001609281526020016040518060400160405280600481526020017f466972650000000000000000000000000000000000000000000000000000000081525081526020016040518060400160405280600681526020017f466c79696e670000000000000000000000000000000000000000000000000000815250815260200161014081526020016001151581526020016040518060c00160405280605a63ffffffff168152602001606463ffffffff168152602001605a63ffffffff168152602001607d63ffffffff168152602001605563ffffffff168152602001605a63ffffffff16815250815250908060018154018082558091505090600182039060005260206000209060070201600090919290919091506000820151816000019080519060200190630001a9b9929190630001ddbe565b50602082015181600101556040820151816002019080519060200190630001a9e4929190630001ddbe565b506060820151816003019080519060200190630001aa05929190630001ddbe565b506080820151816004015560a08201518160050160006101000a81548160ff02191690831515021790555060c08201518160060160008201518160000160006101000a81548163ffffffff021916908363ffffffff16021790555060208201518160000160046101000a81548163ffffffff021916908363ffffffff16021790555060408201518160000160086101000a81548163ffffffff021916908363ffffffff160217905550606082015181600001600c6101000a81548163ffffffff021916908363ffffffff16021790555060808201518160000160106101000a81548163ffffffff021916908363ffffffff16021790555060a08201518160000160146101000a81548163ffffffff021916908363ffffffff160217905550505050505060036040518060e001604052806040518060400160405280600781526020017f44726174696e69000000000000000000000000000000000000000000000000008152508152602001609381526020016040518060400160405280600681526020017f447261676f6e000000000000000000000000000000000000000000000000000081525081526020016040518060400160405280600381526020017f6e616e0000000000000000000000000000000000000000000000000000000000815250815260200161025881526020016000151581526020016040518060c00160405280602963ffffffff168152602001604063ffffffff168152602001602d63ffffffff168152602001603263ffffffff168152602001603263ffffffff168152602001603263ffffffff16815250815250908060018154018082558091505090600182039060005260206000209060070201600090919290919091506000820151816000019080519060200190630001aca3929190630001ddbe565b50602082015181600101556040820151816002019080519060200190630001acce929190630001ddbe565b506060820151816003019080519060200190630001acef929190630001ddbe565b506080820151816004015560a08201518160050160006101000a81548160ff02191690831515021790555060c08201518160060160008201518160000160006101000a81548163ffffffff021916908363ffffffff16021790555060208201518160000160046101000a81548163ffffffff021916908363ffffffff16021790555060408201518160000160086101000a81548163ffffffff021916908363ffffffff160217905550606082015181600001600c6101000a81548163ffffffff021916908363ffffffff16021790555060808201518160000160106101000a81548163ffffffff021916908363ffffffff16021790555060a08201518160000160146101000a81548163ffffffff021916908363ffffffff160217905550505050505060036040518060e001604052806040518060400160405280600981526020017f447261676f6e61697200000000000000000000000000000000000000000000008152508152602001609481526020016040518060400160405280600681526020017f447261676f6e000000000000000000000000000000000000000000000000000081525081526020016040518060400160405280600381526020017f6e616e000000000000000000000000000000000000000000000000000000000081525081526020016101e081526020016000151581526020016040518060c00160405280603d63ffffffff168152602001605463ffffffff168152602001604163ffffffff168152602001604663ffffffff168152602001604663ffffffff168152602001604663ffffffff16815250815250908060018154018082558091505090600182039060005260206000209060070201600090919290919091506000820151816000019080519060200190630001af8d929190630001ddbe565b50602082015181600101556040820151816002019080519060200190630001afb8929190630001ddbe565b506060820151816003019080519060200190630001afd9929190630001ddbe565b506080820151816004015560a08201518160050160006101000a81548160ff02191690831515021790555060c08201518160060160008201518160000160006101000a81548163ffffffff021916908363ffffffff16021790555060208201518160000160046101000a81548163ffffffff021916908363ffffffff16021790555060408201518160000160086101000a81548163ffffffff021916908363ffffffff160217905550606082015181600001600c6101000a81548163ffffffff021916908363ffffffff16021790555060808201518160000160106101000a81548163ffffffff021916908363ffffffff16021790555060a08201518160000160146101000a81548163ffffffff021916908363ffffffff160217905550505050505060036040518060e001604052806040518060400160405280600981526020017f447261676f6e69746500000000000000000000000000000000000000000000008152508152602001609581526020016040518060400160405280600681526020017f447261676f6e000000000000000000000000000000000000000000000000000081525081526020016040518060400160405280600681526020017f466c79696e670000000000000000000000000000000000000000000000000000815250815260200161012c81526020016000151581526020016040518060c00160405280605b63ffffffff168152602001608663ffffffff168152602001605f63ffffffff168152602001606463ffffffff168152602001606463ffffffff168152602001605063ffffffff16815250815250908060018154018082558091505090600182039060005260206000209060070201600090919290919091506000820151816000019080519060200190630001b277929190630001ddbe565b50602082015181600101556040820151816002019080519060200190630001b2a2929190630001ddbe565b506060820151816003019080519060200190630001b2c3929190630001ddbe565b506080820151816004015560a08201518160050160006101000a81548160ff02191690831515021790555060c08201518160060160008201518160000160006101000a81548163ffffffff021916908363ffffffff16021790555060208201518160000160046101000a81548163ffffffff021916908363ffffffff16021790555060408201518160000160086101000a81548163ffffffff021916908363ffffffff160217905550606082015181600001600c6101000a81548163ffffffff021916908363ffffffff16021790555060808201518160000160106101000a81548163ffffffff021916908363ffffffff16021790555060a08201518160000160146101000a81548163ffffffff021916908363ffffffff160217905550505050505060036040518060e001604052806040518060400160405280600681526020017f4d657774776f00000000000000000000000000000000000000000000000000008152508152602001609681526020016040518060400160405280600781526020017f507379636869630000000000000000000000000000000000000000000000000081525081526020016040518060400160405280600381526020017f6e616e0000000000000000000000000000000000000000000000000000000000815250815260200160dc81526020016001151581526020016040518060c00160405280606a63ffffffff168152602001606e63ffffffff168152602001605a63ffffffff168152602001609a63ffffffff168152602001605a63ffffffff168152602001608263ffffffff16815250815250908060018154018082558091505090600182039060005260206000209060070201600090919290919091506000820151816000019080519060200190630001b560929190630001ddbe565b50602082015181600101556040820151816002019080519060200190630001b58b929190630001ddbe565b506060820151816003019080519060200190630001b5ac929190630001ddbe565b506080820151816004015560a08201518160050160006101000a81548160ff02191690831515021790555060c08201518160060160008201518160000160006101000a81548163ffffffff021916908363ffffffff16021790555060208201518160000160046101000a81548163ffffffff021916908363ffffffff16021790555060408201518160000160086101000a81548163ffffffff021916908363ffffffff160217905550606082015181600001600c6101000a81548163ffffffff021916908363ffffffff16021790555060808201518160000160106101000a81548163ffffffff021916908363ffffffff16021790555060a08201518160000160146101000a81548163ffffffff021916908363ffffffff160217905550505050505060036040518060e001604052806040518060400160405280600381526020017f4d657700000000000000000000000000000000000000000000000000000000008152508152602001609781526020016040518060400160405280600781526020017f507379636869630000000000000000000000000000000000000000000000000081525081526020016040518060400160405280600381526020017f6e616e0000000000000000000000000000000000000000000000000000000000815250815260200161012c81526020016000151581526020016040518060c00160405280606463ffffffff168152602001606463ffffffff168152602001606463ffffffff168152602001606463ffffffff168152602001606463ffffffff168152602001606463ffffffff16815250815250908060018154018082558091505090600182039060005260206000209060070201600090919290919091506000820151816000019080519060200190630001b84a929190630001ddbe565b50602082015181600101556040820151816002019080519060200190630001b875929190630001ddbe565b506060820151816003019080519060200190630001b896929190630001ddbe565b506080820151816004015560a08201518160050160006101000a81548160ff02191690831515021790555060c08201518160060160008201518160000160006101000a81548163ffffffff021916908363ffffffff16021790555060208201518160000160046101000a81548163ffffffff021916908363ffffffff16021790555060408201518160000160086101000a81548163ffffffff021916908363ffffffff160217905550606082015181600001600c6101000a81548163ffffffff021916908363ffffffff16021790555060808201518160000160106101000a81548163ffffffff021916908363ffffffff16021790555060a08201518160000160146101000a81548163ffffffff021916908363ffffffff1602179055505050505050565b600260016000600181526020019081526020016000208190555060036001600060028152602001908152602001600020819055506005600160006004815260200190815260200160002081905550600660016000600581526020019081526020016000208190555060086001600060078152602001908152602001600020819055506009600160006008815260200190815260200160002081905550600b60016000600a815260200190815260200160002081905550600c60016000600b815260200190815260200160002081905550600e60016000600d815260200190815260200160002081905550600f60016000600e81526020019081526020016000208190555060116001600060108152602001908152602001600020819055506012600160006011815260200190815260200160002081905550601460016000601381526020019081526020016000208190555060166001600060158152602001908152602001600020819055506018600160006017815260200190815260200160002081905550601a600160006019815260200190815260200160002081905550601c60016000601b815260200190815260200160002081905550601e60016000601d815260200190815260200160002081905550601f60016000601e81526020019081526020016000208190555060216001600060208152602001908152602001600020819055506022600160006021815260200190815260200160002081905550602460016000602381526020019081526020016000208190555060266001600060258152602001908152602001600020819055506028600160006027815260200190815260200160002081905550602a600160006029815260200190815260200160002081905550602c60016000602b815260200190815260200160002081905550602d60016000602c815260200190815260200160002081905550602f60016000602e81526020019081526020016000208190555060316001600060308152602001908152602001600020819055506033600160006032815260200190815260200160002081905550603560016000603481526020019081526020016000208190555060376001600060368152602001908152602001600020819055506039600160006038815260200190815260200160002081905550603b60016000603a815260200190815260200160002081905550603d60016000603c815260200190815260200160002081905550603e60016000603d815260200190815260200160002081905550604060016000603f815260200190815260200160002081905550604160016000604081526020019081526020016000208190555060436001600060428152602001908152602001600020819055506044600160006043815260200190815260200160002081905550604660016000604581526020019081526020016000208190555060476001600060468152602001908152602001600020819055506049600160006048815260200190815260200160002081905550604b60016000604a815260200190815260200160002081905550604c60016000604b815260200190815260200160002081905550604e60016000604d815260200190815260200160002081905550605060016000604f8152602001908152602001600020819055506052600160006051815260200190815260200160002081905550605560016000605481526020019081526020016000208190555060576001600060568152602001908152602001600020819055506059600160006058815260200190815260200160002081905550605b60016000605a815260200190815260200160002081905550605d60016000605c815260200190815260200160002081905550605e60016000605d81526020019081526020016000208190555060616001600060608152602001908152602001600020819055506063600160006062815260200190815260200160002081905550606560016000606481526020019081526020016000208190555060676001600060668152602001908152602001600020819055506069600160006068815260200190815260200160002081905550606e60016000606d815260200190815260200160002081905550607060016000606f81526020019081526020016000208190555060756001600060748152602001908152602001600020819055506077600160006076815260200190815260200160002081905550607960016000607881526020019081526020016000208190555060826001600060818152602001908152602001600020819055506086600160006085815260200190815260200160002081905550608b60016000608a815260200190815260200160002081905550608d60016000608c81526020019081526020016000208190555060946001600060938152602001908152602001600020819055506095600160006094815260200190815260200160002081905550565b600160026000600181526020019081526020016000208190555060016002600060028152602001908152602001600020819055506001600260006003815260200190815260200160002081905550600460026000600481526020019081526020016000208190555060046002600060058152602001908152602001600020819055506004600260006006815260200190815260200160002081905550600760026000600781526020019081526020016000208190555060076002600060088152602001908152602001600020819055506007600260006009815260200190815260200160002081905550600a60026000600a815260200190815260200160002081905550600a60026000600b815260200190815260200160002081905550600a60026000600c815260200190815260200160002081905550600d60026000600d815260200190815260200160002081905550600d60026000600e815260200190815260200160002081905550600d60026000600f8152602001908152602001600020819055506010600260006010815260200190815260200160002081905550601060026000601181526020019081526020016000208190555060106002600060128152602001908152602001600020819055506013600260006013815260200190815260200160002081905550601360026000601481526020019081526020016000208190555060156002600060158152602001908152602001600020819055506015600260006016815260200190815260200160002081905550601760026000601781526020019081526020016000208190555060176002600060188152602001908152602001600020819055506019600260006019815260200190815260200160002081905550601960026000601a815260200190815260200160002081905550601b60026000601b815260200190815260200160002081905550601b60026000601c815260200190815260200160002081905550601d60026000601d815260200190815260200160002081905550601d60026000601e815260200190815260200160002081905550601d60026000601f8152602001908152602001600020819055506020600260006020815260200190815260200160002081905550602060026000602181526020019081526020016000208190555060206002600060228152602001908152602001600020819055506023600260006023815260200190815260200160002081905550602360026000602481526020019081526020016000208190555060256002600060258152602001908152602001600020819055506025600260006026815260200190815260200160002081905550602760026000602781526020019081526020016000208190555060276002600060288152602001908152602001600020819055506029600260006029815260200190815260200160002081905550602960026000602a815260200190815260200160002081905550602b60026000602b815260200190815260200160002081905550602b60026000602c815260200190815260200160002081905550602b60026000602d815260200190815260200160002081905550602e60026000602e815260200190815260200160002081905550602e60026000602f8152602001908152602001600020819055506030600260006030815260200190815260200160002081905550603060026000603181526020019081526020016000208190555060326002600060328152602001908152602001600020819055506032600260006033815260200190815260200160002081905550603460026000603481526020019081526020016000208190555060346002600060358152602001908152602001600020819055506036600260006036815260200190815260200160002081905550603660026000603781526020019081526020016000208190555060386002600060388152602001908152602001600020819055506038600260006039815260200190815260200160002081905550603a60026000603a815260200190815260200160002081905550603a60026000603b815260200190815260200160002081905550603c60026000603c815260200190815260200160002081905550603c60026000603d815260200190815260200160002081905550603c60026000603e815260200190815260200160002081905550603f60026000603f815260200190815260200160002081905550603f600260006040815260200190815260200160002081905550603f60026000604181526020019081526020016000208190555060426002600060428152602001908152602001600020819055506042600260006043815260200190815260200160002081905550604260026000604481526020019081526020016000208190555060456002600060458152602001908152602001600020819055506045600260006046815260200190815260200160002081905550604560026000604781526020019081526020016000208190555060486002600060488152602001908152602001600020819055506048600260006049815260200190815260200160002081905550604a60026000604a815260200190815260200160002081905550604a60026000604b815260200190815260200160002081905550604a60026000604c815260200190815260200160002081905550604d60026000604d815260200190815260200160002081905550604d60026000604e815260200190815260200160002081905550604f60026000604f815260200190815260200160002081905550604f600260006050815260200190815260200160002081905550605160026000605181526020019081526020016000208190555060516002600060528152602001908152602001600020819055506053600260006053815260200190815260200160002081905550605460026000605481526020019081526020016000208190555060546002600060558152602001908152602001600020819055506056600260006056815260200190815260200160002081905550605660026000605781526020019081526020016000208190555060586002600060588152602001908152602001600020819055506058600260006059815260200190815260200160002081905550605a60026000605a815260200190815260200160002081905550605a60026000605b815260200190815260200160002081905550605c60026000605c815260200190815260200160002081905550605c60026000605d815260200190815260200160002081905550605c60026000605e815260200190815260200160002081905550605f60026000605f8152602001908152602001600020819055506060600260006060815260200190815260200160002081905550606060026000606181526020019081526020016000208190555060626002600060628152602001908152602001600020819055506062600260006063815260200190815260200160002081905550606460026000606481526020019081526020016000208190555060646002600060658152602001908152602001600020819055506066600260006066815260200190815260200160002081905550606660026000606781526020019081526020016000208190555060686002600060688152602001908152602001600020819055506068600260006069815260200190815260200160002081905550606a60026000606a815260200190815260200160002081905550606b60026000606b815260200190815260200160002081905550606c60026000606c815260200190815260200160002081905550606d60026000606d815260200190815260200160002081905550606d60026000606e815260200190815260200160002081905550606f60026000606f815260200190815260200160002081905550606f600260006070815260200190815260200160002081905550607160026000607181526020019081526020016000208190555060726002600060728152602001908152602001600020819055506073600260006073815260200190815260200160002081905550607460026000607481526020019081526020016000208190555060746002600060758152602001908152602001600020819055506076600260006076815260200190815260200160002081905550607660026000607781526020019081526020016000208190555060786002600060788152602001908152602001600020819055506078600260006079815260200190815260200160002081905550607a60026000607a815260200190815260200160002081905550607b60026000607b815260200190815260200160002081905550607c60026000607c815260200190815260200160002081905550607d60026000607d815260200190815260200160002081905550607e60026000607e815260200190815260200160002081905550607f60026000607f8152602001908152602001600020819055506080600260006080815260200190815260200160002081905550608160026000608181526020019081526020016000208190555060816002600060828152602001908152602001600020819055506083600260006083815260200190815260200160002081905550608460026000608481526020019081526020016000208190555060856002600060858152602001908152602001600020819055506085600260006086815260200190815260200160002081905550608760026000608781526020019081526020016000208190555060886002600060888152602001908152602001600020819055506089600260006089815260200190815260200160002081905550608a60026000608a815260200190815260200160002081905550608a60026000608b815260200190815260200160002081905550608c60026000608c815260200190815260200160002081905550608c60026000608d815260200190815260200160002081905550608e60026000608e815260200190815260200160002081905550608f60026000608f81526020019081526020016000208190555060906002600060908152602001908152602001600020819055506091600260006091815260200190815260200160002081905550609260026000609281526020019081526020016000208190555060936002600060938152602001908152602001600020819055506093600260006094815260200190815260200160002081905550609360026000609581526020019081526020016000208190555060966002600060968152602001908152602001600020819055506097600260006097815260200190815260200160002081905550565b600080600b60003373ffffffffffffffffffffffffffffffffffffffff1673ffffffffffffffffffffffffffffffffffffffff1681526020019081526020016000205414630001d08057600080fd5b6000821480630001d0915750600382145b80630001d09e5750600682145b630001d0a957600080fd5b6000630001d0c6630001d0f2640100000000026401000000009004565b9050630001d0e9848260008087630001d117640100000000026401000000009004565b91505092915050565b6000630001d112600654630001dc95640100000000026401000000009004565b905090565b600060606006604051908082528060200260200182016040528015630001d14d5781602001602082028038833980820191505090505b5090506000869050600080600090505b6006811015630001d1c057600a8381630001d17457fe5b06915081848281518110630001d18657fe5b602002602001019063ffffffff16908163ffffffff1681525050600a82840381630001d1ae57fe5b0492508080600101915050630001d15d565b50630001d1cd630001de4c565b60038681548110630001d1dc57fe5b90600052602060002090600702016040518060e0016040529081600082018054600181600116156101000203166002900480601f016020809104026020016040519081016040528092919081815260200182805460018160011615610100020316600290048015630001d2965780601f10630001d26957610100808354040283529160200191630001d296565b820191906000526020600020905b815481529060010190602001808311630001d27757829003601f168201915b5050505050815260200160018201548152602001600282018054600181600116156101000203166002900480601f016020809104026020016040519081016040528092919081815260200182805460018160011615610100020316600290048015630001d34a5780601f10630001d31d57610100808354040283529160200191630001d34a565b820191906000526020600020905b815481529060010190602001808311630001d32b57829003601f168201915b50505050508152602001600382018054600181600116156101000203166002900480601f016020809104026020016040519081016040528092919081815260200182805460018160011615610100020316600290048015630001d3f45780601f10630001d3c757610100808354040283529160200191630001d3f4565b820191906000526020600020905b815481529060010190602001808311630001d3d557829003601f168201915b50505050508152602001600482015481526020016005820160009054906101000a900460ff16151515158152602001600682016040518060c00160405290816000820160009054906101000a900463ffffffff1663ffffffff1663ffffffff1681526020016000820160049054906101000a900463ffffffff1663ffffffff1663ffffffff1681526020016000820160089054906101000a900463ffffffff1663ffffffff1663ffffffff16815260200160008201600c9054906101000a900463ffffffff1663ffffffff1663ffffffff1681526020016000820160109054906101000a900463ffffffff1663ffffffff1663ffffffff1681526020016000820160149054906101000a900463ffffffff1663ffffffff1663ffffffff1681525050815250509050630001d56684600081518110630001d53057fe5b60200260200101518260c001516000015163ffffffff16630001dd50640100000000026300003ad0179091906401000000009004565b8160c001516000019063ffffffff16908163ffffffff1681525050630001d5cb84600181518110630001d59557fe5b60200260200101518260c001516020015163ffffffff16630001dd50640100000000026300003ad0179091906401000000009004565b8160c001516020019063ffffffff16908163ffffffff1681525050630001d63084600281518110630001d5fa57fe5b60200260200101518260c001516040015163ffffffff16630001dd50640100000000026300003ad0179091906401000000009004565b8160c001516040019063ffffffff16908163ffffffff1681525050630001d69584600381518110630001d65f57fe5b60200260200101518260c001516060015163ffffffff16630001dd50640100000000026300003ad0179091906401000000009004565b8160c001516060019063ffffffff16908163ffffffff1681525050630001d6fa84600481518110630001d6c457fe5b60200260200101518260c001516080015163ffffffff16630001dd50640100000000026300003ad0179091906401000000009004565b8160c001516080019063ffffffff16908163ffffffff1681525050630001d75f84600581518110630001d72957fe5b60200260200101518260c0015160a0015163ffffffff16630001dd50640100000000026300003ad0179091906401000000009004565b8160c0015160a0019063ffffffff16908163ffffffff1681525050630001d786630001de95565b604051806101e001604052808c8152602001836000015181526020018360400151815260200183606001518152602001600163ffffffff168152602001600063ffffffff168152602001600063ffffffff168152602001630001d7f8630001dd7a640100000000026401000000009004565b151581526020018b81526020018a815260200189815260200160008152602001836020015181526020018360a00151151581526020018360c001518152509050600060016009839080600181540180825580915050906001820390600052602060002090600c0201600090919290919091506000820151816000019080519060200190630001d88a929190630001ddbe565b506020820151816001019080519060200190630001d8ab929190630001ddbe565b506040820151816002019080519060200190630001d8cc929190630001ddbe565b506060820151816003019080519060200190630001d8ed929190630001ddbe565b5060808201518160040160006101000a81548163ffffffff021916908363ffffffff16021790555060a08201518160040160046101000a81548163ffffffff021916908363ffffffff16021790555060c08201518160040160086101000a81548163ffffffff021916908363ffffffff16021790555060e082015181600401600c6101000a81548160ff021916908315150217905550610100820151816005015561012082015181600601556101408201518160070155610160820151816008015561018082015181600901556101a082015181600a0160006101000a81548160ff0219169083151502179055506101c082015181600b0160008201518160000160006101000a81548163ffffffff021916908363ffffffff16021790555060208201518160000160046101000a81548163ffffffff021916908363ffffffff16021790555060408201518160000160086101000a81548163ffffffff021916908363ffffffff160217905550606082015181600001600c6101000a81548163ffffffff021916908363ffffffff16021790555060808201518160000160106101000a81548163ffffffff021916908363ffffffff16021790555060a08201518160000160146101000a81548163ffffffff021916908363ffffffff1602179055505050505003905033600a600083815260200190815260200160002060006101000a81548173ffffffffffffffffffffffffffffffffffffffff021916908373ffffffffffffffffffffffffffffffffffffffff160217905550630001db8e6001600b60003373ffffffffffffffffffffffffffffffffffffffff1673ffffffffffffffffffffffffffffffffffffffff16815260200190815260200160002054630001dda0640100000000026300004128179091906401000000009004565b600b60003373ffffffffffffffffffffffffffffffffffffffff1673ffffffffffffffffffffffffffffffffffffffff168152602001908152602001600020819055507fb2ddd0094c7d8b02387161898cbaa1bbcb4cee4731fdeceb76548071724adcd2818d8d6040518084815260200180602001838152602001828103825284818151815260200191508051906020019080838360005b83811015630001dc45578082015181840152602081019050630001dc26565b50505050905090810190601f168015630001dc745780820380516001836020036101000a031916815260200191505b5094505050505060405180910390a180965050505050505095945050505050565b6000630001dcc06001601154630001dda0640100000000026300004128179091906401000000009004565b601181905550814333601154604051602001808481526020018373ffffffffffffffffffffffffffffffffffffffff1673ffffffffffffffffffffffffffffffffffffffff166c010000000000000000000000000281526014018281526020019350505050604051602081830303815290604052805190602001206001900481630001dd4857fe5b069050919050565b60008082840190508363ffffffff168163ffffffff161015630001dd7057fe5b8091505092915050565b600080630001dd9a6002630001dc95640100000000026401000000009004565b14905090565b600080828401905083811015630001ddb457fe5b8091505092915050565b828054600181600116156101000203166002900490600052602060002090601f016020900481019282601f10630001de0357805160ff1916838001178555630001de37565b82800160010185558215630001de37579182015b82811115630001de36578251825591602001919060010190630001de17565b5b509050630001de489190630001df2b565b5090565b6040518060e001604052806060815260200160008152602001606081526020016060815260200160008152602001600015158152602001630001de8f630001df56565b81525090565b604051806101e0016040528060608152602001606081526020016060815260200160608152602001600063ffffffff168152602001600063ffffffff168152602001600063ffffffff1681526020016000151581526020016000815260200160008152602001600081526020016000815260200160008152602001600015158152602001630001df25630001df56565b81525090565b630001df5391905b80821115630001df4f576000816000905550600101630001df33565b5090565b90565b6040518060c00160405280600063ffffffff168152602001600063ffffffff168152602001600063ffffffff168152602001600063ffffffff168152602001600063ffffffff168152602001600063ffffffff1681525090565b61535680630001dfc16000396000f3fe60806040526004361061024d576000357c010000000000000000000000000000000000000000000000000000000090048063835d75ab1161014b578063c37fc8a8116100c8578063d413a08a1161008c578063d413a08a1461114b578063e1fa763814611169578063f1145727146111c2578063f2fde38b146111e0578063f976b12d146112315761024d565b8063c37fc8a814610f17578063c39cbef114610f42578063c8e0d77414610fd2578063c93369071461108c578063d3e6f49f146110f85761024d565b8063a11ed1571161010f578063a11ed15714610cf5578063b7c6825914610d30578063ba8064c014610d83578063bdfb526914610dde578063c0e91b7714610ec45761024d565b8063835d75ab14610a1d57806387f1fbf314610bb457806388c2a0bf14610c205780638da5cb5b14610c6f5780638f32d59b14610cc65761024d565b80634d33fbe7116101d95780637004fb841161019d5780637004fb8414610884578063715018a6146108bc57806372f42958146108d357806379a24283146109875780637dbb31da146109c25761024d565b80634d33fbe7146106a157806351067f001461074757806367942eb2146107725780636ae0fbde146107de5780636dd25f6a146108095761024d565b80632d90c7a7116102205780632d90c7a7146105585780632f7467b3146105875780633ccfd60b1461060257806342945e481461061957806346d22c70146106445761024d565b80630ce90ec2146102525780630dc2f10a1461028d5780631940a936146104aa57806325540917146104fd575b600080fd5b34801561025e57600080fd5b5061028b6004803603602081101561027557600080fd5b8101908080359060200190929190505050611284565b005b34801561029957600080fd5b506102c6600480360360208110156102b057600080fd5b810190808035906020019092919050505061160e565b60405180806020018060200180602001806020018863ffffffff1663ffffffff1681526020018781526020018615151515815260200185810385528c818151815260200191508051906020019080838360005b83811015610334578082015181840152602081019050610319565b50505050905090810190601f1680156103615780820380516001836020036101000a031916815260200191505b5085810384528b818151815260200191508051906020019080838360005b8381101561039a57808201518184015260208101905061037f565b50505050905090810190601f1680156103c75780820380516001836020036101000a031916815260200191505b5085810383528a818151815260200191508051906020019080838360005b838110156104005780820151818401526020810190506103e5565b50505050905090810190601f16801561042d5780820380516001836020036101000a031916815260200191505b50858103825289818151815260200191508051906020019080838360005b8381101561046657808201518184015260208101905061044b565b50505050905090810190601f1680156104935780820380516001836020036101000a031916815260200191505b509b50505050505050505050505060405180910390f35b3480156104b657600080fd5b506104e3600480360360208110156104cd57600080fd5b81019080803590602001909291905050506118fd565b604051808215151515815260200191505060405180910390f35b34801561050957600080fd5b506105366004803603602081101561052057600080fd5b8101908080359060200190929190505050611938565b604051808263ffffffff1663ffffffff16815260200191505060405180910390f35b34801561056457600080fd5b5061056d611975565b604051808215151515815260200191505060405180910390f35b34801561059357600080fd5b506105c0600480360360208110156105aa57600080fd5b81019080803590602001909291905050506119be565b604051808273ffffffffffffffffffffffffffffffffffffffff1673ffffffffffffffffffffffffffffffffffffffff16815260200191505060405180910390f35b34801561060e57600080fd5b506106176119f1565b005b34801561062557600080fd5b5061062e611b7c565b6040518082815260200191505060405180910390f35b34801561065057600080fd5b506106876004803603604081101561066757600080fd5b810190808035906020019092919080359060200190929190505050611b89565b604051808215151515815260200191505060405180910390f35b3480156106ad57600080fd5b506106f0600480360360208110156106c457600080fd5b81019080803573ffffffffffffffffffffffffffffffffffffffff169060200190929190505050611c2c565b6040518080602001828103825283818151815260200191508051906020019060200280838360005b83811015610733578082015181840152602081019050610718565b505050509050019250505060405180910390f35b34801561075357600080fd5b5061075c611d67565b6040518082815260200191505060405180910390f35b34801561077e57600080fd5b50610787611dae565b6040518080602001828103825283818151815260200191508051906020019060200280838360005b838110156107ca5780820151818401526020810190506107af565b505050509050019250505060405180910390f35b3480156107ea57600080fd5b506107f3611e29565b6040518082815260200191505060405180910390f35b34801561081557600080fd5b506108426004803603602081101561082c57600080fd5b8101908080359060200190929190505050611e2f565b604051808663ffffffff1663ffffffff168152602001851515151581526020018481526020018381526020018281526020019550505050505060405180910390f35b6108ba6004803603604081101561089a57600080fd5b810190808035906020019092919080359060200190929190505050611e9f565b005b3480156108c857600080fd5b506108d1611ecf565b005b3480156108df57600080fd5b5061090c600480360360208110156108f657600080fd5b8101908080359060200190929190505050611f9f565b6040518080602001828103825283818151815260200191508051906020019080838360005b8381101561094c578082015181840152602081019050610931565b50505050905090810190601f1680156109795780820380516001836020036101000a031916815260200191505b509250505060405180910390f35b34801561099357600080fd5b506109c0600480360360208110156109aa57600080fd5b8101908080359060200190929190505050612062565b005b3480156109ce57600080fd5b50610a1b600480360360408110156109e557600080fd5b8101908080359060200190929190803573ffffffffffffffffffffffffffffffffffffffff169060200190929190505050612271565b005b348015610a2957600080fd5b50610a5660048036036020811015610a4057600080fd5b8101908080359060200190929190505050612481565b6040518080602001806020018060200185151515158152602001848103845288818151815260200191508051906020019080838360005b83811015610aa8578082015181840152602081019050610a8d565b50505050905090810190601f168015610ad55780820380516001836020036101000a031916815260200191505b50848103835287818151815260200191508051906020019080838360005b83811015610b0e578082015181840152602081019050610af3565b50505050905090810190601f168015610b3b5780820380516001836020036101000a031916815260200191505b50848103825286818151815260200191508051906020019080838360005b83811015610b74578082015181840152602081019050610b59565b50505050905090810190601f168015610ba15780820380516001836020036101000a031916815260200191505b5097505050505050505060405180910390f35b348015610bc057600080fd5b50610bc96126ab565b6040518080602001828103825283818151815260200191508051906020019060200280838360005b83811015610c0c578082015181840152602081019050610bf1565b505050509050019250505060405180910390f35b348015610c2c57600080fd5b50610c5960048036036020811015610c4357600080fd5b81019080803590602001909291905050506127e4565b6040518082815260200191505060405180910390f35b348015610c7b57600080fd5b50610c84612898565b604051808273ffffffffffffffffffffffffffffffffffffffff1673ffffffffffffffffffffffffffffffffffffffff16815260200191505060405180910390f35b348015610cd257600080fd5b50610cdb6128c1565b604051808215151515815260200191505060405180910390f35b348015610d0157600080fd5b50610d2e60048036036020811015610d1857600080fd5b8101908080359060200190929190505050612918565b005b348015610d3c57600080fd5b50610d6960048036036020811015610d5357600080fd5b8101908080359060200190929190505050612933565b604051808215151515815260200191505060405180910390f35b348015610d8f57600080fd5b50610dbc60048036036020811015610da657600080fd5b8101908080359060200190929190505050612964565b604051808263ffffffff1663ffffffff16815260200191505060405180910390f35b348015610dea57600080fd5b50610eae60048036036040811015610e0157600080fd5b8101908080359060200190640100000000811115610e1e57600080fd5b820183602082011115610e3057600080fd5b80359060200191846001830284011164010000000083111715610e5257600080fd5b91908080601f016020809104026020016040519081016040528093929190818152602001838380828437600081840152601f19601f82011690508083019250505050505050919291929080359060200190929190505050612a3c565b6040518082815260200191505060405180910390f35b348015610ed057600080fd5b50610efd60048036036020811015610ee757600080fd5b8101908080359060200190929190505050612acf565b604051808215151515815260200191505060405180910390f35b348015610f2357600080fd5b50610f2c612b3b565b6040518082815260200191505060405180910390f35b348015610f4e57600080fd5b50610fd060048036036040811015610f6557600080fd5b810190808035906020019092919080359060200190640100000000811115610f8c57600080fd5b820183602082011115610f9e57600080fd5b80359060200191846001830284011164010000000083111715610fc057600080fd5b9091929391929390505050612b82565b005b348015610fde57600080fd5b5061100b60048036036020811015610ff557600080fd5b8101908080359060200190929190505050612bb5565b604051808763ffffffff1663ffffffff1681526020018663ffffffff1663ffffffff1681526020018563ffffffff1663ffffffff1681526020018463ffffffff1663ffffffff1681526020018363ffffffff1663ffffffff1681526020018263ffffffff1663ffffffff168152602001965050505050505060405180910390f35b34801561109857600080fd5b506110a1612c74565b6040518080602001828103825283818151815260200191508051906020019060200280838360005b838110156110e45780820151818401526020810190506110c9565b505050509050019250505060405180910390f35b34801561110457600080fd5b506111316004803603602081101561111b57600080fd5b8101908080359060200190929190505050612dbe565b604051808215151515815260200191505060405180910390f35b611153612dff565b6040518082815260200191505060405180910390f35b34801561117557600080fd5b506111ac6004803603604081101561118c57600080fd5b810190808035906020019092919080359060200190929190505050612ee7565b6040518082815260200191505060405180910390f35b6111ca613962565b6040518082815260200191505060405180910390f35b3480156111ec57600080fd5b5061122f6004803603602081101561120357600080fd5b81019080803573ffffffffffffffffffffffffffffffffffffffff169060200190929190505050613a4a565b005b34801561123d57600080fd5b5061126a6004803603602081101561125457600080fd5b8101908080359060200190929190505050613a67565b604051808215151515815260200191505060405180910390f35b80600a600082815260200190815260200160002060009054906101000a900473ffffffffffffffffffffffffffffffffffffffff1673ffffffffffffffffffffffffffffffffffffffff163373ffffffffffffffffffffffffffffffffffffffff16146112f057600080fd5b6000600983815481106112ff57fe5b90600052602060002090600c0201905061135760016009858154811061132157fe5b90600052602060002090600c020160040160009054906101000a900463ffffffff1663ffffffff16613ad090919063ffffffff16565b8160040160006101000a81548163ffffffff021916908363ffffffff1602179055506113aa600582600b0160000160009054906101000a900463ffffffff1663ffffffff16613ad090919063ffffffff16565b81600b0160000160006101000a81548163ffffffff021916908363ffffffff160217905550611400600282600b0160000160049054906101000a900463ffffffff1663ffffffff16613ad090919063ffffffff16565b81600b0160000160046101000a81548163ffffffff021916908363ffffffff160217905550611456600282600b0160000160089054906101000a900463ffffffff1663ffffffff16613ad090919063ffffffff16565b81600b0160000160086101000a81548163ffffffff021916908363ffffffff1602179055506114ac600182600b01600001600c9054906101000a900463ffffffff1663ffffffff16613ad090919063ffffffff16565b81600b01600001600c6101000a81548163ffffffff021916908363ffffffff160217905550611502600182600b0160000160109054906101000a900463ffffffff1663ffffffff16613ad090919063ffffffff16565b81600b0160000160106101000a81548163ffffffff021916908363ffffffff160217905550611558600282600b0160000160149054906101000a900463ffffffff1663ffffffff16613ad090919063ffffffff16565b81600b0160000160146101000a81548163ffffffff021916908363ffffffff1602179055507f3d81d1ad835628fb7aaf501fe84126e79b4f4b0ca7664653bec4a6e968d27715838260040160009054906101000a900463ffffffff16604051808381526020018263ffffffff1681526020019250505060405180910390a16115df83613a67565b156116095760006115f16101f4613af8565b90506101c28111156116075761160684613b9e565b5b505b505050565b6060806060806000806000806009898154811061162757fe5b90600052602060002090600c02019050806000018160010182600201836003018460040160009054906101000a900463ffffffff16856009015486600a0160009054906101000a900460ff16868054600181600116156101000203166002900480601f0160208091040260200160405190810160405280929190818152602001828054600181600116156101000203166002900480156117085780601f106116dd57610100808354040283529160200191611708565b820191906000526020600020905b8154815290600101906020018083116116eb57829003601f168201915b50505050509650858054600181600116156101000203166002900480601f0160208091040260200160405190810160405280929190818152602001828054600181600116156101000203166002900480156117a45780601f10611779576101008083540402835291602001916117a4565b820191906000526020600020905b81548152906001019060200180831161178757829003601f168201915b50505050509550848054600181600116156101000203166002900480601f0160208091040260200160405190810160405280929190818152602001828054600181600116156101000203166002900480156118405780601f1061181557610100808354040283529160200191611840565b820191906000526020600020905b81548152906001019060200180831161182357829003601f168201915b50505050509450838054600181600116156101000203166002900480601f0160208091040260200160405190810160405280929190818152602001828054600181600116156101000203166002900480156118dc5780601f106118b1576101008083540402835291602001916118dc565b820191906000526020600020905b8154815290600101906020018083116118bf57829003601f168201915b50505050509350975097509750975097509750975050919395979092949650565b6000816000811161190d57600080fd5b60006009848154811061191c57fe5b90600052602060002090600c0201600801541415915050919050565b6000806009838154811061194857fe5b90600052602060002090600c020190508060040160049054906101000a900463ffffffff16915050919050565b600080600b60003373ffffffffffffffffffffffffffffffffffffffff1673ffffffffffffffffffffffffffffffffffffffff1681526020019081526020016000205414905090565b600a6020528060005260406000206000915054906101000a900473ffffffffffffffffffffffffffffffffffffffff1681565b600f60009054906101000a900460ff16611a73576040517f08c379a000000000000000000000000000000000000000000000000000000000815260040180806020018281038252601f8152602001807f5265656e7472616e637947756172643a207265656e7472616e742063616c6c0081525060200191505060405180910390fd5b6000600f60006101000a81548160ff0219169083151502179055506000601060003373ffffffffffffffffffffffffffffffffffffffff1673ffffffffffffffffffffffffffffffffffffffff1681526020019081526020016000205490506000601060003373ffffffffffffffffffffffffffffffffffffffff1673ffffffffffffffffffffffffffffffffffffffff168152602001908152602001600020819055503373ffffffffffffffffffffffffffffffffffffffff166108fc829081150290604051600060405180830381858888f19350505050158015611b5d573d6000803e3d6000fd5b50506001600f60006101000a81548160ff021916908315150217905550565b6000600980549050905090565b6000808311611b9757600080fd5b60008211611ba457600080fd5b600060098481548110611bb357fe5b90600052602060002090600c02019050600060098481548110611bd257fe5b90600052602060002090600c02019050611bee82868387613f79565b8015611c005750611bff8585614046565b5b8015611c115750611c1085612dbe565b5b8015611c225750611c2184612dbe565b5b9250505092915050565b606080600b60008473ffffffffffffffffffffffffffffffffffffffff1673ffffffffffffffffffffffffffffffffffffffff16815260200190815260200160002054604051908082528060200260200182016040528015611c9d5781602001602082028038833980820191505090505b509050600080905060008090505b600980549050811015611d5c578473ffffffffffffffffffffffffffffffffffffffff16600a600083815260200190815260200160002060009054906101000a900473ffffffffffffffffffffffffffffffffffffffff1673ffffffffffffffffffffffffffffffffffffffff161415611d4f5780838381518110611d2c57fe5b602002602001018181525050611d4c60018361412890919063ffffffff16565b91505b8080600101915050611cab565b508192505050919050565b6000600b60003373ffffffffffffffffffffffffffffffffffffffff1673ffffffffffffffffffffffffffffffffffffffff16815260200190815260200160002054905090565b606080600980549050604051908082528060200260200182016040528015611de55781602001602082028038833980820191505090505b50905060008090505b600980549050811015611e215780828281518110611e0857fe5b6020026020010181815250508080600101915050611dee565b508091505090565b600e5481565b60008060008060008060098781548110611e4557fe5b90600052602060002090600c020190508060040160089054906101000a900463ffffffff1681600401600c9054906101000a900460ff16826006015483600701548460080154955095509550955095505091939590929450565b600e54341015611eae57600080fd5b611eb88282611b89565b611ec157600080fd5b611ecb8282614144565b5050565b611ed76128c1565b611ee057600080fd5b600073ffffffffffffffffffffffffffffffffffffffff166000809054906101000a900473ffffffffffffffffffffffffffffffffffffffff1673ffffffffffffffffffffffffffffffffffffffff167f8be0079c531659141344cd1fd0a4f28419497f9722a3daafe3b4186f6b6457e060405160405180910390a360008060006101000a81548173ffffffffffffffffffffffffffffffffffffffff021916908373ffffffffffffffffffffffffffffffffffffffff160217905550565b606060036001830381548110611fb157fe5b90600052602060002090600702016000018054600181600116156101000203166002900480601f0160208091040260200160405190810160405280929190818152602001828054600181600116156101000203166002900480156120565780601f1061202b57610100808354040283529160200191612056565b820191906000526020600020905b81548152906001019060200180831161203957829003601f168201915b50505050509050919050565b80600a600082815260200190815260200160002060009054906101000a900473ffffffffffffffffffffffffffffffffffffffff1673ffffffffffffffffffffffffffffffffffffffff163373ffffffffffffffffffffffffffffffffffffffff16146120ce57600080fd5b6120d782612acf565b6120e057600080fd5b6000600c600084815260200190815260200160002060009054906101000a900473ffffffffffffffffffffffffffffffffffffffff1690506000600c600085815260200190815260200160002060006101000a81548173ffffffffffffffffffffffffffffffffffffffff021916908373ffffffffffffffffffffffffffffffffffffffff1602179055506121be6001600d60008473ffffffffffffffffffffffffffffffffffffffff1673ffffffffffffffffffffffffffffffffffffffff168152602001908152602001600020546141ed90919063ffffffff16565b600d60008373ffffffffffffffffffffffffffffffffffffffff1673ffffffffffffffffffffffffffffffffffffffff168152602001908152602001600020819055507fb408926280d59aec3b19f5e4b4ccd3132b1a6815f4be2ca946db7f06db4c2c568382604051808381526020018273ffffffffffffffffffffffffffffffffffffffff1673ffffffffffffffffffffffffffffffffffffffff1681526020019250505060405180910390a1505050565b81600a600082815260200190815260200160002060009054906101000a900473ffffffffffffffffffffffffffffffffffffffff1673ffffffffffffffffffffffffffffffffffffffff163373ffffffffffffffffffffffffffffffffffffffff16146122dd57600080fd5b6122e683612acf565b156122f057600080fd5b3373ffffffffffffffffffffffffffffffffffffffff168273ffffffffffffffffffffffffffffffffffffffff16141561232957600080fd5b81600c600085815260200190815260200160002060006101000a81548173ffffffffffffffffffffffffffffffffffffffff021916908373ffffffffffffffffffffffffffffffffffffffff1602179055506123ce6001600d60008573ffffffffffffffffffffffffffffffffffffffff1673ffffffffffffffffffffffffffffffffffffffff1681526020019081526020016000205461412890919063ffffffff16565b600d60008473ffffffffffffffffffffffffffffffffffffffff1673ffffffffffffffffffffffffffffffffffffffff168152602001908152602001600020819055507ff5e86306ea1850facdc382dfcaa30bb81eb05934c418fa2e1c80f4af084df2aa8383604051808381526020018273ffffffffffffffffffffffffffffffffffffffff1673ffffffffffffffffffffffffffffffffffffffff1681526020019250505060405180910390a1505050565b60608060606000806003600187038154811061249957fe5b906000526020600020906007020190508060000181600201826003018360050160009054906101000a900460ff16838054600181600116156101000203166002900480601f01602080910402602001604051908101604052809291908181526020018280546001816001161561010002031660029004801561255c5780601f106125315761010080835404028352916020019161255c565b820191906000526020600020905b81548152906001019060200180831161253f57829003601f168201915b50505050509350828054600181600116156101000203166002900480601f0160208091040260200160405190810160405280929190818152602001828054600181600116156101000203166002900480156125f85780601f106125cd576101008083540402835291602001916125f8565b820191906000526020600020905b8154815290600101906020018083116125db57829003601f168201915b50505050509250818054600181600116156101000203166002900480601f0160208091040260200160405190810160405280929190818152602001828054600181600116156101000203166002900480156126945780601f1061266957610100808354040283529160200191612694565b820191906000526020600020905b81548152906001019060200180831161267757829003601f168201915b505050505091509450945094509450509193509193565b606080600b60003373ffffffffffffffffffffffffffffffffffffffff1673ffffffffffffffffffffffffffffffffffffffff1681526020019081526020016000205460405190808252806020026020018201604052801561271c5781602001602082028038833980820191505090505b509050600080905060008090505b6009805490508110156127db573373ffffffffffffffffffffffffffffffffffffffff16600a600083815260200190815260200160002060009054906101000a900473ffffffffffffffffffffffffffffffffffffffff1673ffffffffffffffffffffffffffffffffffffffff1614156127ce57808383815181106127ab57fe5b6020026020010181815250506127cb60018361412890919063ffffffff16565b91505b808060010191505061272a565b50819250505090565b600081600081116127f457600080fd5b6127fd836118fd565b61280657600080fd5b60006009848154811061281557fe5b90600052602060002090600c0201905061282e81614204565b61283757600080fd5b60008160080154905060006128826040518060400160405280600681526020017f6e6f4e616d650000000000000000000000000000000000000000000000000000815250838861422b565b9050826008016000905580945050505050919050565b60008060009054906101000a900473ffffffffffffffffffffffffffffffffffffffff16905090565b60008060009054906101000a900473ffffffffffffffffffffffffffffffffffffffff1673ffffffffffffffffffffffffffffffffffffffff163373ffffffffffffffffffffffffffffffffffffffff1614905090565b6129206128c1565b61292957600080fd5b80600e8190555050565b6000806009838154811061294357fe5b90600052602060002090600c0201905061295c81614204565b915050919050565b600081600a600082815260200190815260200160002060009054906101000a900473ffffffffffffffffffffffffffffffffffffffff1673ffffffffffffffffffffffffffffffffffffffff163373ffffffffffffffffffffffffffffffffffffffff16146129d257600080fd5b6129db836118fd565b6129e457600080fd5b6000600984815481106129f357fe5b90600052602060002090600c02019050612a0c81614204565b15612a1b576000925050612a36565b438160040160089054906101000a900463ffffffff16039250505b50919050565b600080600b60003373ffffffffffffffffffffffffffffffffffffffff1673ffffffffffffffffffffffffffffffffffffffff1681526020019081526020016000205414612a8957600080fd5b6000821480612a985750600382145b80612aa35750600682145b612aac57600080fd5b6000612ab6614295565b9050612ac68482600080876142a7565b91505092915050565b60008073ffffffffffffffffffffffffffffffffffffffff16600c600084815260200190815260200160002060009054906101000a900473ffffffffffffffffffffffffffffffffffffffff1673ffffffffffffffffffffffffffffffffffffffff1614159050919050565b6000601060003373ffffffffffffffffffffffffffffffffffffffff1673ffffffffffffffffffffffffffffffffffffffff16815260200190815260200160002054905090565b818160098581548110612b9157fe5b90600052602060002090600c02016001019190612baf929190615020565b50505050565b600080600080600080600060098881548110612bcd57fe5b90600052602060002090600c0201600b0190508060000160009054906101000a900463ffffffff168160000160049054906101000a900463ffffffff168260000160089054906101000a900463ffffffff1683600001600c9054906101000a900463ffffffff168460000160109054906101000a900463ffffffff168560000160149054906101000a900463ffffffff169650965096509650965096505091939550919395565b606080600d60003373ffffffffffffffffffffffffffffffffffffffff1673ffffffffffffffffffffffffffffffffffffffff16815260200190815260200160002054604051908082528060200260200182016040528015612ce55781602001602082028038833980820191505090505b509050600080905060008090505b600980549050811015612db5573373ffffffffffffffffffffffffffffffffffffffff16600c600083815260200190815260200160002060009054906101000a900473ffffffffffffffffffffffffffffffffffffffff1673ffffffffffffffffffffffffffffffffffffffff16148015612d735750612d7281612acf565b5b15612da85780838381518110612d8557fe5b602002602001018181525050612da560018361412890919063ffffffff16565b91505b8080600101915050612cf3565b50819250505090565b60008160008111612dce57600080fd5b600060098481548110612ddd57fe5b90600052602060002090600c02019050612df681614d3d565b92505050919050565b600067d02ab486cedc00003414612e7e576040517f08c379a000000000000000000000000000000000000000000000000000000000815260040180806020018281038252601a8152602001807f612072617265207061636b20636f73747320313520657468657200000000000081525060200191505060405180910390fd5b67d02ab486cedc000060106000612e93612898565b73ffffffffffffffffffffffffffffffffffffffff1673ffffffffffffffffffffffffffffffffffffffff16815260200190815260200160002060008282540192505081905550612ee2614d5e565b905090565b6000600a600084815260200190815260200160002060009054906101000a900473ffffffffffffffffffffffffffffffffffffffff1673ffffffffffffffffffffffffffffffffffffffff163373ffffffffffffffffffffffffffffffffffffffff161480612fb45750600c600084815260200190815260200160002060009054906101000a900473ffffffffffffffffffffffffffffffffffffffff1673ffffffffffffffffffffffffffffffffffffffff163373ffffffffffffffffffffffffffffffffffffffff16145b613026576040517f08c379a000000000000000000000000000000000000000000000000000000000815260040180806020018281038252601d8152602001807f6d757374206f776e206f722073686172652074686520706f6b656d6f6e00000081525060200191505060405180910390fd5b61302f836118fd565b15613085576040517f08c379a00000000000000000000000000000000000000000000000000000000081526004018080602001828103825260248152602001806152fe6024913960400191505060405180910390fd5b3373ffffffffffffffffffffffffffffffffffffffff16600a600084815260200190815260200160002060009054906101000a900473ffffffffffffffffffffffffffffffffffffffff1673ffffffffffffffffffffffffffffffffffffffff16141561315a576040517f08c379a000000000000000000000000000000000000000000000000000000000815260040180806020018281038252601d8152602001807f63616e27742061747461636b20796f7572206f776e20506f6b656d6f6e00000081525060200191505060405180910390fd5b60006009848154811061316957fe5b90600052602060002090600c0201905060006009848154811061318857fe5b90600052602060002090600c020190506000806131d98460040160009054906101000a900463ffffffff1663ffffffff168460040160009054906101000a900463ffffffff1663ffffffff16614de9565b9050600581106131e857600080fd5b600061322e85600b0160000160049054906101000a900463ffffffff1663ffffffff1685600b0160000160089054906101000a900463ffffffff1663ffffffff16614e08565b6003600a87600b0160000160049054906101000a900463ffffffff1663ffffffff168161325757fe5b040263ffffffff1601905060006132a885600b0160000160049054906101000a900463ffffffff1663ffffffff1687600b0160000160089054906101000a900463ffffffff1663ffffffff16614e08565b6003600a87600b0160000160049054906101000a900463ffffffff1663ffffffff16816132d157fe5b040263ffffffff16019050600086600b0160000160009054906101000a900463ffffffff1663ffffffff169050600086600b0160000160009054906101000a900463ffffffff1663ffffffff169050606060196040519080825280602002602001820160405280156133525781602001602082028038833980820191505090505b509050606060196040519080825280602002602001820160405280156133875781602001602082028038833980820191505090505b50905060008090505b6000851180156133a05750600084115b1561376e5789600b0160000160149054906101000a900463ffffffff1663ffffffff168b600b0160000160149054906101000a900463ffffffff1663ffffffff1611156135aa576133f26101f4613af8565b985089600b0160000160149054906101000a900463ffffffff1663ffffffff16891115613473576134238488614e08565b93508683828151811061343257fe5b602002602001018181525050600182828151811061344c57fe5b602002602001019060ff16908160ff1681525050600084141561346e5761376e565b6134b0565b600083828151811061348157fe5b602002602001018181525050600182828151811061349b57fe5b602002602001019060ff16908160ff16815250505b6134c460018261412890919063ffffffff16565b90506134d16101f4613af8565b98508a600b0160000160149054906101000a900463ffffffff1663ffffffff16891115613552576135028587614e08565b94508583828151811061351157fe5b602002602001018181525050600282828151811061352b57fe5b602002602001019060ff16908160ff1681525050600085141561354d5761376e565b61358f565b600083828151811061356057fe5b602002602001018181525050600282828151811061357a57fe5b602002602001019060ff16908160ff16815250505b6135a360018261412890919063ffffffff16565b9050613769565b6135b56101f4613af8565b98508a600b0160000160149054906101000a900463ffffffff1663ffffffff16891115613636576135e68587614e08565b9450858382815181106135f557fe5b602002602001018181525050600282828151811061360f57fe5b602002602001019060ff16908160ff168152505060008514156136315761376e565b613673565b600083828151811061364457fe5b602002602001018181525050600282828151811061365e57fe5b602002602001019060ff16908160ff16815250505b61368760018261412890919063ffffffff16565b90506136946101f4613af8565b985089600b0160000160149054906101000a900463ffffffff1663ffffffff16891115613715576136c58488614e08565b9350868382815181106136d457fe5b60200260200101818152505060018282815181106136ee57fe5b602002602001019060ff16908160ff168152505060008414156137105761376e565b613752565b600083828151811061372357fe5b602002602001018181525050600182828151811061373d57fe5b602002602001019060ff16908160ff16815250505b61376660018261412890919063ffffffff16565b90505b613390565b600084141561387c576137808d6118fd565b1561378f5761378e8d614e26565b5b6137988e611284565b7f0ef9164a564457dfcecded00615374c1fdab68b90fbcf7633f6ef8171b2c61cb8e8e8585604051808581526020018481526020018060200180602001838103835285818151815260200191508051906020019060200280838360005b838110156138105780820151818401526020810190506137f5565b50505050905001838103825284818151815260200191508051906020019060200280838360005b83811015613852578082015181840152602081019050613837565b50505050905001965050505050505060405180910390a18d9b50505050505050505050505061395c565b7f0ef9164a564457dfcecded00615374c1fdab68b90fbcf7633f6ef8171b2c61cb8e8e8585604051808581526020018481526020018060200180602001838103835285818151815260200191508051906020019060200280838360005b838110156138f45780820151818401526020810190506138d9565b50505050905001838103825284818151815260200191508051906020019060200280838360005b8381101561393657808201518184015260208101905061391b565b50505050905001965050505050505060405180910390a18c9b5050505050505050505050505b92915050565b60006714d1120d7b16000034146139e1576040517f08c379a000000000000000000000000000000000000000000000000000000000815260040180806020018281038252601e8152602001807f612073746172746572207061636b20636f73747320312e35206574686572000081525060200191505060405180910390fd5b6714d1120d7b160000601060006139f6612898565b73ffffffffffffffffffffffffffffffffffffffff1673ffffffffffffffffffffffffffffffffffffffff16815260200190815260200160002060008282540192505081905550613a45614e63565b905090565b613a526128c1565b613a5b57600080fd5b613a6481614eeb565b50565b60008060098381548110613a7757fe5b90600052602060002090600c020190506000816009015490506000600160008381526020019081526020016000205414158015613ac7575080600160008381526020019081526020016000205414155b92505050919050565b60008082840190508363ffffffff168163ffffffff161015613aee57fe5b8091505092915050565b6000613b10600160115461412890919063ffffffff16565b601181905550814333601154604051602001808481526020018373ffffffffffffffffffffffffffffffffffffffff1673ffffffffffffffffffffffffffffffffffffffff166c010000000000000000000000000281526014018281526020019350505050604051602081830303815290604052805190602001206001900481613b9657fe5b069050919050565b80600a600082815260200190815260200160002060009054906101000a900473ffffffffffffffffffffffffffffffffffffffff1673ffffffffffffffffffffffffffffffffffffffff163373ffffffffffffffffffffffffffffffffffffffff1614613c0a57600080fd5b613c1382613a67565b613c1c57600080fd5b600060098381548110613c2b57fe5b90600052602060002090600c02019050613c6c600c82600b0160000160009054906101000a900463ffffffff1663ffffffff16613ad090919063ffffffff16565b81600b0160000160006101000a81548163ffffffff021916908363ffffffff160217905550613cc2600682600b0160000160049054906101000a900463ffffffff1663ffffffff16613ad090919063ffffffff16565b81600b0160000160046101000a81548163ffffffff021916908363ffffffff160217905550613d18600682600b0160000160089054906101000a900463ffffffff1663ffffffff16613ad090919063ffffffff16565b81600b0160000160086101000a81548163ffffffff021916908363ffffffff160217905550613d6e600682600b01600001600c9054906101000a900463ffffffff1663ffffffff16613ad090919063ffffffff16565b81600b01600001600c6101000a81548163ffffffff021916908363ffffffff160217905550613dc4600682600b0160000160109054906101000a900463ffffffff1663ffffffff16613ad090919063ffffffff16565b81600b0160000160106101000a81548163ffffffff021916908363ffffffff160217905550613e1a600682600b0160000160149054906101000a900463ffffffff1663ffffffff16613ad090919063ffffffff16565b81600b0160000160146101000a81548163ffffffff021916908363ffffffff16021790555060006001600083600901548152602001908152602001600020549050600060036001830381548110613e6d57fe5b9060005260206000209060070201905081816001015414613e8d57600080fd5b80600001836001019080546001816001161561010002031660029004613eb49291906150a0565b5081836009018190555080600201836002019080546001816001161561010002031660029004613ee59291906150a0565b5080600301836003019080546001816001161561010002031660029004613f0d9291906150a0565b508060050160009054906101000a900460ff1683600a0160006101000a81548160ff0219169083151502179055507f91f0f11990dfc17fdcec7b2d441697c966b394413aa2d7e04cb5900f1e7450ea856040518082815260200191505060405180910390a15050505050565b600081841415613f8c576000905061403e565b84600401600c9054906101000a900460ff1680613fb8575082600401600c9054906101000a900460ff16155b15613fc6576000905061403e565b8185600601541480613fdb5750838360070154145b15613fe9576000905061403e565b600085600701541480614000575060008360070154145b1561400e576001905061403e565b82600601548560060154148061402b575082600701548560070154145b15614039576000905061403e565b600190505b949350505050565b6000600a600084815260200190815260200160002060009054906101000a900473ffffffffffffffffffffffffffffffffffffffff1673ffffffffffffffffffffffffffffffffffffffff163373ffffffffffffffffffffffffffffffffffffffff16146140b357600080fd5b600a600083815260200190815260200160002060009054906101000a900473ffffffffffffffffffffffffffffffffffffffff1673ffffffffffffffffffffffffffffffffffffffff163373ffffffffffffffffffffffffffffffffffffffff161461411e57600080fd5b6001905092915050565b60008082840190508381101561413a57fe5b8091505092915050565b60006009838154811061415357fe5b90600052602060002090600c0201905081816008018190555061417581614fe3565b7f6b4808987a5cecdf67d54ca5dc20664fafca80ef7195097800c12549245ab20d338484604051808473ffffffffffffffffffffffffffffffffffffffff1673ffffffffffffffffffffffffffffffffffffffff168152602001838152602001828152602001935050505060405180910390a1505050565b6000828211156141f957fe5b818303905092915050565b6000438260040160089054906101000a900463ffffffff1663ffffffff1611159050919050565b6000806009838154811061423b57fe5b90600052602060002090600c020190506000816009015490506000600160026000848152602001908152602001600020540390506000614279614295565b905061428888828989866142a7565b9450505050509392505050565b60006142a2600654613af8565b905090565b6000606060066040519080825280602002602001820160405280156142db5781602001602082028038833980820191505090505b5090506000869050600080600090505b600681101561434457600a83816142fe57fe5b0691508184828151811061430e57fe5b602002602001019063ffffffff16908163ffffffff1681525050600a8284038161433457fe5b04925080806001019150506142eb565b5061434d615127565b6003868154811061435a57fe5b90600052602060002090600702016040518060e0016040529081600082018054600181600116156101000203166002900480601f01602080910402602001604051908101604052809291908181526020018280546001816001161561010002031660029004801561440c5780601f106143e15761010080835404028352916020019161440c565b820191906000526020600020905b8154815290600101906020018083116143ef57829003601f168201915b5050505050815260200160018201548152602001600282018054600181600116156101000203166002900480601f0160208091040260200160405190810160405280929190818152602001828054600181600116156101000203166002900480156144b85780601f1061448d576101008083540402835291602001916144b8565b820191906000526020600020905b81548152906001019060200180831161449b57829003601f168201915b50505050508152602001600382018054600181600116156101000203166002900480601f01602080910402602001604051908101604052809291908181526020018280546001816001161561010002031660029004801561455a5780601f1061452f5761010080835404028352916020019161455a565b820191906000526020600020905b81548152906001019060200180831161453d57829003601f168201915b50505050508152602001600482015481526020016005820160009054906101000a900460ff16151515158152602001600682016040518060c00160405290816000820160009054906101000a900463ffffffff1663ffffffff1663ffffffff1681526020016000820160049054906101000a900463ffffffff1663ffffffff1663ffffffff1681526020016000820160089054906101000a900463ffffffff1663ffffffff1663ffffffff16815260200160008201600c9054906101000a900463ffffffff1663ffffffff1663ffffffff1681526020016000820160109054906101000a900463ffffffff1663ffffffff1663ffffffff1681526020016000820160149054906101000a900463ffffffff1663ffffffff1663ffffffff16815250508152505090506146b78460008151811061469257fe5b60200260200101518260c001516000015163ffffffff16613ad090919063ffffffff16565b8160c001516000019063ffffffff16908163ffffffff1681525050614707846001815181106146e257fe5b60200260200101518260c001516020015163ffffffff16613ad090919063ffffffff16565b8160c001516020019063ffffffff16908163ffffffff16815250506147578460028151811061473257fe5b60200260200101518260c001516040015163ffffffff16613ad090919063ffffffff16565b8160c001516040019063ffffffff16908163ffffffff16815250506147a78460038151811061478257fe5b60200260200101518260c001516060015163ffffffff16613ad090919063ffffffff16565b8160c001516060019063ffffffff16908163ffffffff16815250506147f7846004815181106147d257fe5b60200260200101518260c001516080015163ffffffff16613ad090919063ffffffff16565b8160c001516080019063ffffffff16908163ffffffff16815250506148478460058151811061482257fe5b60200260200101518260c0015160a0015163ffffffff16613ad090919063ffffffff16565b8160c0015160a0019063ffffffff16908163ffffffff168152505061486a61516c565b604051806101e001604052808c8152602001836000015181526020018360400151815260200183606001518152602001600163ffffffff168152602001600063ffffffff168152602001600063ffffffff1681526020016148c961500d565b151581526020018b81526020018a815260200189815260200160008152602001836020015181526020018360a00151151581526020018360c001518152509050600060016009839080600181540180825580915050906001820390600052602060002090600c02016000909192909190915060008201518160000190805190602001906149579291906151fe565b5060208201518160010190805190602001906149749291906151fe565b5060408201518160020190805190602001906149919291906151fe565b5060608201518160030190805190602001906149ae9291906151fe565b5060808201518160040160006101000a81548163ffffffff021916908363ffffffff16021790555060a08201518160040160046101000a81548163ffffffff021916908363ffffffff16021790555060c08201518160040160086101000a81548163ffffffff021916908363ffffffff16021790555060e082015181600401600c6101000a81548160ff021916908315150217905550610100820151816005015561012082015181600601556101408201518160070155610160820151816008015561018082015181600901556101a082015181600a0160006101000a81548160ff0219169083151502179055506101c082015181600b0160008201518160000160006101000a81548163ffffffff021916908363ffffffff16021790555060208201518160000160046101000a81548163ffffffff021916908363ffffffff16021790555060408201518160000160086101000a81548163ffffffff021916908363ffffffff160217905550606082015181600001600c6101000a81548163ffffffff021916908363ffffffff16021790555060808201518160000160106101000a81548163ffffffff021916908363ffffffff16021790555060a08201518160000160146101000a81548163ffffffff021916908363ffffffff1602179055505050505003905033600a600083815260200190815260200160002060006101000a81548173ffffffffffffffffffffffffffffffffffffffff021916908373ffffffffffffffffffffffffffffffffffffffff160217905550614c3c6001600b60003373ffffffffffffffffffffffffffffffffffffffff1673ffffffffffffffffffffffffffffffffffffffff1681526020019081526020016000205461412890919063ffffffff16565b600b60003373ffffffffffffffffffffffffffffffffffffffff1673ffffffffffffffffffffffffffffffffffffffff168152602001908152602001600020819055507fb2ddd0094c7d8b02387161898cbaa1bbcb4cee4731fdeceb76548071724adcd2818d8d6040518084815260200180602001838152602001828103825284818151815260200191508051906020019080838360005b83811015614cef578082015181840152602081019050614cd4565b50505050905090810190601f168015614d1c5780820380516001836020036101000a031916815260200191505b5094505050505060405180910390a180965050505050505095945050505050565b6000808260080154148015614d575750614d5682614204565b5b9050919050565b600080614d6b600a613af8565b6001600380549050030390506000600160026000848152602001908152602001600020540390506000614d9c614295565b9050614de16040518060400160405280600681526020017f4e6f4e616d65000000000000000000000000000000000000000000000000000081525082600080866142a7565b935050505090565b6000818310614dfc578183039050614e02565b82820390505b92915050565b6000818310614e1b578183039050614e20565b600090505b92915050565b614e2f816118fd565b614e3857600080fd5b600060098281548110614e4757fe5b90600052602060002090600c0201905080600801600090555050565b600080614e77600a60038054905003613af8565b90506000600160026000848152602001908152602001600020540390506000614e9e614295565b9050614ee36040518060400160405280600681526020017f4e6f4e616d65000000000000000000000000000000000000000000000000000081525082600080866142a7565b935050505090565b600073ffffffffffffffffffffffffffffffffffffffff168173ffffffffffffffffffffffffffffffffffffffff161415614f2557600080fd5b8073ffffffffffffffffffffffffffffffffffffffff166000809054906101000a900473ffffffffffffffffffffffffffffffffffffffff1673ffffffffffffffffffffffffffffffffffffffff167f8be0079c531659141344cd1fd0a4f28419497f9722a3daafe3b4186f6b6457e060405160405180910390a3806000806101000a81548173ffffffffffffffffffffffffffffffffffffffff021916908373ffffffffffffffffffffffffffffffffffffffff16021790555050565b60085443018160040160086101000a81548163ffffffff021916908363ffffffff16021790555050565b60008061501a6002613af8565b14905090565b828054600181600116156101000203166002900490600052602060002090601f016020900481019282601f1061506157803560ff191683800117855561508f565b8280016001018555821561508f579182015b8281111561508e578235825591602001919060010190615073565b5b50905061509c919061527e565b5090565b828054600181600116156101000203166002900490600052602060002090601f016020900481019282601f106150d95780548555615116565b8280016001018555821561511657600052602060002091601f016020900482015b828111156151155782548255916001019190600101906150fa565b5b509050615123919061527e565b5090565b6040518060e0016040528060608152602001600081526020016060815260200160608152602001600081526020016000151581526020016151666152a3565b81525090565b604051806101e0016040528060608152602001606081526020016060815260200160608152602001600063ffffffff168152602001600063ffffffff168152602001600063ffffffff16815260200160001515815260200160008152602001600081526020016000815260200160008152602001600081526020016000151581526020016151f86152a3565b81525090565b828054600181600116156101000203166002900490600052602060002090601f016020900481019282601f1061523f57805160ff191683800117855561526d565b8280016001018555821561526d579182015b8281111561526c578251825591602001919060010190615251565b5b50905061527a919061527e565b5090565b6152a091905b8082111561529c576000816000905550600101615284565b5090565b90565b6040518060c00160405280600063ffffffff168152602001600063ffffffff168152602001600063ffffffff168152602001600063ffffffff168152602001600063ffffffff168152602001600063ffffffff168152509056fe63616e27742061747461636b2077697468206120507265676e616e7420506f6b656d6f6ea265627a7a72315820486ca4b1c30a241d546d5e189256463c68416c02c22f74fa298f68db9cee50ce64736f6c63430005100032",
  "source": "pragma solidity >=0.5.0 <0.6.0;\n\nimport \"./PokemonCardHelper.sol\";\n\ncontract PokemonCardAttack is PokemonCardHelper {\n\n    uint randNonce = 0;\n    event PokemonBattle(uint pokemonId1, uint pokemonId2, uint[] turns, uint8[] whosTurn);\n\n    function randMod(uint _modulus) internal returns(uint) {\n        randNonce = randNonce.add(1);\n        return uint(keccak256(abi.encodePacked(block.number, msg.sender, randNonce))) % _modulus;\n    }\n\n    function sub(uint a, uint b) internal pure returns (uint){\n        if (a >= b) {\n            return a - b;\n        }\n        else {\n            return 0;\n        }\n    }\n\n    function abs(uint a, uint b) internal pure returns (uint) {\n        if (a >= b) {\n            return a - b;\n        }\n        else {\n            return b - a;\n        }\n    }\n\n\tfunction attack(uint _pokemonId, uint _enemyPokemonId) external returns(uint){\n\t\trequire(msg.sender == pokemonToOwner[_pokemonId] || msg.sender == _pokemonToSharee[_pokemonId], \"must own or share the pokemon\");\n        require(!isPregnant(_pokemonId), \"can't attack with a Pregnant Pokemon\");\n        require(pokemonToOwner[_enemyPokemonId] != msg.sender, \"can't attack your own Pokemon\");\n\t\tPokemon storage myPokemon = pokemons[_pokemonId];\n\t\tPokemon storage enemyPokemon = pokemons[_enemyPokemonId];\n\t\tuint rand;\n\t\tuint outlevel = abs(myPokemon.level, enemyPokemon.level);\n\t\trequire(outlevel < 5);\n\n\t\tuint my_damage = myPokemon.baseStats.attack / 10 * 3 + sub(myPokemon.baseStats.attack, enemyPokemon.baseStats.defense);\n\t\tuint enemy_damage = enemyPokemon.baseStats.attack / 10 * 3 + sub(enemyPokemon.baseStats.attack, myPokemon.baseStats.defense);\n\t\tuint my_hp = myPokemon.baseStats.hp;\n\t\tuint enemy_hp = enemyPokemon.baseStats.hp;\n\n\t\tuint[] memory turns = new uint[](25);\n\t\tuint8[] memory whosTurn = new uint8[](25);\n\t\tuint counter = 0;\n\n\t\twhile (my_hp > 0 && enemy_hp > 0) {\n\t\t\t// Determine which pokemon goes first using speed attribute\n\t\t\tif (myPokemon.baseStats.speed > enemyPokemon.baseStats.speed) {\n\t\t\t\trand = randMod(500);\n\t\t\t\tif (rand > enemyPokemon.baseStats.speed){\n\t\t\t\t\tenemy_hp = sub(enemy_hp, my_damage);\n\t\t\t\t\tturns[counter] = my_damage;\n\t\t\t\t\twhosTurn[counter] = 1;\n\t\t\t\t\tif (enemy_hp == 0) {\n\t\t\t\t\t\tbreak;\n\t\t\t\t\t}\n\t\t\t\t} else {\n\t\t\t\t\tturns[counter] = 0;\n\t\t\t\t\twhosTurn[counter] = 1;\n\t\t\t\t}\n\t\t\t\tcounter = counter.add(1);\n\n\t\t\t\trand = randMod(500);\n\t\t\t\tif (rand > myPokemon.baseStats.speed) {\n\t\t\t\t\tmy_hp = sub(my_hp, enemy_damage);\n\t\t\t\t\tturns[counter] = enemy_damage;\n\t\t\t\t\twhosTurn[counter] = 2;\n\t\t\t\t\tif (my_hp == 0) {\n\t\t\t\t\t\tbreak;\n\t\t\t\t\t}\n\t\t\t\t} else {\n\t\t\t\t\tturns[counter] = 0;\n\t\t\t\t\twhosTurn[counter] = 2;\n\t\t\t\t}\n\t\t\t\tcounter = counter.add(1);\n\t\t\t} else {\n\t\t\t\trand = randMod(500);\n\t\t\t\tif (rand > myPokemon.baseStats.speed) {\n\t\t\t\t\tmy_hp = sub(my_hp, enemy_damage);\n\t\t\t\t\tturns[counter] = enemy_damage;\n\t\t\t\t\twhosTurn[counter] = 2;\n\t\t\t\t\tif (my_hp == 0) {\n\t\t\t\t\t\tbreak;\n\t\t\t\t\t}\n\t\t\t\t} else {\n\t\t\t\t\tturns[counter] = 0;\n\t\t\t\t\twhosTurn[counter] = 2;\n\t\t\t\t}\n\t\t\t\tcounter = counter.add(1);\n\n\t\t\t\trand = randMod(500);\n\t\t\t\tif (rand > enemyPokemon.baseStats.speed){\n\t\t\t\t\tenemy_hp = sub(enemy_hp, my_damage);\n\t\t\t\t\tturns[counter] = my_damage;\n\t\t\t\t\twhosTurn[counter] = 1;\n\t\t\t\t\tif (enemy_hp == 0) {\n\t\t\t\t\t\tbreak;\n\t\t\t\t\t}\n\t\t\t\t} else {\n\t\t\t\t\tturns[counter] = 0;\n\t\t\t\t\twhosTurn[counter] = 1;\n\t\t\t\t}\n\t\t\t\tcounter = counter.add(1);\n\t\t\t}\n\t\t}\n\n\t\tif (enemy_hp == 0) {\n\t\t\tif (isPregnant(_enemyPokemonId)) {\n\t\t\t\tabortBirth(_enemyPokemonId);\n\t\t\t}\n\t\t\tlevelUp(_pokemonId);\n\t\t\temit PokemonBattle(_pokemonId, _enemyPokemonId, turns, whosTurn);\n\t\t\treturn _pokemonId;\n\t\t} else {\n\t\t\temit PokemonBattle(_pokemonId, _enemyPokemonId, turns, whosTurn);\n\t\t\treturn _enemyPokemonId;\n\t\t}\n\n\t\t\n\t}\n}\n",
  "sourcePath": "/Users/ztq/Dropbox/Computer Science/CO467/crypto-pokemons/contracts/PokemonCardAttack.sol",
  "compiler": {
    "name": "solc",
    "version": "0.5.16+commit.9c3226ce.Emscripten.clang"
  },
  "schemaVersion": "3.0.23",
  "updatedAt": "2020-02-18T18:44:35.144Z",
  "devdoc": {
    "methods": {
      "isOwner()": {
        "return": "true if `msg.sender` is the owner of the contract."
      },
      "owner()": {
        "return": "the address of the owner."
      },
      "renounceOwnership()": {
        "details": "Allows the current owner to relinquish control of the contract."
      },
      "transferOwnership(address)": {
        "details": "Allows the current owner to transfer control of the contract to a newOwner.",
        "params": {
          "newOwner": "The address to transfer ownership to."
        }
      }
    }
  },
  "userdoc": {
    "methods": {
      "createStarterPokemon(string,uint256)": {
        "notice": "Create a new Starter Pokemon*"
      },
      "getPendingWithdrawals()": {
        "notice": "Return the amount the user can withdrawl.*"
      },
      "isNewTrainer()": {
        "notice": "Check whether the player is a new trainer.*"
      },
      "renounceOwnership()": {
        "notice": "Renouncing to ownership will leave the contract without an owner. It will not be possible to call the functions with the `onlyOwner` modifier anymore."
      },
      "withdraw()": {
        "notice": "Transfer the accumulated ETH by player. The balance is reset to 0 after withdraw.*"
      }
    }
  }
}