{
  "contractName": "PokemonCardHelper",
  "abi": [
    {
      "anonymous": false,
      "inputs": [
        {
          "indexed": false,
          "internalType": "uint256",
          "name": "pokemonId",
          "type": "uint256"
        },
        {
          "indexed": false,
          "internalType": "string",
          "name": "name",
          "type": "string"
        },
        {
          "indexed": false,
          "internalType": "uint256",
          "name": "dna",
          "type": "uint256"
        }
      ],
      "name": "NewPokemon",
      "type": "event"
    },
    {
      "anonymous": false,
      "inputs": [
        {
          "indexed": true,
          "internalType": "address",
          "name": "previousOwner",
          "type": "address"
        },
        {
          "indexed": true,
          "internalType": "address",
          "name": "newOwner",
          "type": "address"
        }
      ],
      "name": "OwnershipTransferred",
      "type": "event"
    },
    {
      "anonymous": false,
      "inputs": [
        {
          "indexed": false,
          "internalType": "uint256",
          "name": "_pokemonId",
          "type": "uint256"
        }
      ],
      "name": "PokemonEvolve",
      "type": "event"
    },
    {
      "anonymous": false,
      "inputs": [
        {
          "indexed": false,
          "internalType": "uint256",
          "name": "_pokemonId",
          "type": "uint256"
        },
        {
          "indexed": false,
          "internalType": "uint256",
          "name": "newLevel",
          "type": "uint256"
        }
      ],
      "name": "PokemonLevelUp",
      "type": "event"
    },
    {
      "anonymous": false,
      "inputs": [
        {
          "indexed": false,
          "internalType": "address",
          "name": "owner",
          "type": "address"
        },
        {
          "indexed": false,
          "internalType": "uint256",
          "name": "motherId",
          "type": "uint256"
        },
        {
          "indexed": false,
          "internalType": "uint256",
          "name": "fatherId",
          "type": "uint256"
        }
      ],
      "name": "Pregnant",
      "type": "event"
    },
    {
      "constant": true,
      "inputs": [],
      "name": "birthFee",
      "outputs": [
        {
          "internalType": "uint256",
          "name": "",
          "type": "uint256"
        }
      ],
      "payable": false,
      "stateMutability": "view",
      "type": "function"
    },
    {
      "constant": false,
      "inputs": [
        {
          "internalType": "uint256",
          "name": "_motherId",
          "type": "uint256"
        },
        {
          "internalType": "uint256",
          "name": "_fatherId",
          "type": "uint256"
        }
      ],
      "name": "breedWith",
      "outputs": [],
      "payable": true,
      "stateMutability": "payable",
      "type": "function"
    },
    {
      "constant": true,
      "inputs": [
        {
          "internalType": "uint256",
          "name": "_motherId",
          "type": "uint256"
        },
        {
          "internalType": "uint256",
          "name": "_fatherId",
          "type": "uint256"
        }
      ],
      "name": "canBreedWith",
      "outputs": [
        {
          "internalType": "bool",
          "name": "",
          "type": "bool"
        }
      ],
      "payable": false,
      "stateMutability": "view",
      "type": "function"
    },
    {
      "constant": false,
      "inputs": [
        {
          "internalType": "string",
          "name": "_nickname",
          "type": "string"
        },
        {
          "internalType": "uint256",
          "name": "_pokemonNumber",
          "type": "uint256"
        }
      ],
      "name": "createStarterPokemon",
      "outputs": [
        {
          "internalType": "uint256",
          "name": "",
          "type": "uint256"
        }
      ],
      "payable": false,
      "stateMutability": "nonpayable",
      "type": "function"
    },
    {
      "constant": true,
      "inputs": [
        {
          "internalType": "uint256",
          "name": "pokemonNumber",
          "type": "uint256"
        }
      ],
      "name": "getBasicPokemonInfo",
      "outputs": [
        {
          "internalType": "string",
          "name": "",
          "type": "string"
        },
        {
          "internalType": "string",
          "name": "",
          "type": "string"
        },
        {
          "internalType": "string",
          "name": "",
          "type": "string"
        },
        {
          "internalType": "bool",
          "name": "",
          "type": "bool"
        }
      ],
      "payable": false,
      "stateMutability": "view",
      "type": "function"
    },
    {
      "constant": true,
      "inputs": [
        {
          "internalType": "uint256",
          "name": "_pokemonId",
          "type": "uint256"
        }
      ],
      "name": "getBreedingTimeRemaining",
      "outputs": [
        {
          "internalType": "uint32",
          "name": "",
          "type": "uint32"
        }
      ],
      "payable": false,
      "stateMutability": "view",
      "type": "function"
    },
    {
      "constant": true,
      "inputs": [
        {
          "internalType": "uint256",
          "name": "_pokemonId",
          "type": "uint256"
        }
      ],
      "name": "getPokemonBattleDetails",
      "outputs": [
        {
          "internalType": "uint32",
          "name": "",
          "type": "uint32"
        }
      ],
      "payable": false,
      "stateMutability": "view",
      "type": "function"
    },
    {
      "constant": true,
      "inputs": [
        {
          "internalType": "uint256",
          "name": "_pokemonId",
          "type": "uint256"
        }
      ],
      "name": "getPokemonBreedingDetails",
      "outputs": [
        {
          "internalType": "uint32",
          "name": "",
          "type": "uint32"
        },
        {
          "internalType": "bool",
          "name": "",
          "type": "bool"
        },
        {
          "internalType": "uint256",
          "name": "",
          "type": "uint256"
        },
        {
          "internalType": "uint256",
          "name": "",
          "type": "uint256"
        },
        {
          "internalType": "uint256",
          "name": "",
          "type": "uint256"
        }
      ],
      "payable": false,
      "stateMutability": "view",
      "type": "function"
    },
    {
      "constant": true,
      "inputs": [
        {
          "internalType": "uint256",
          "name": "_pokemonId",
          "type": "uint256"
        }
      ],
      "name": "getPokemonInfo",
      "outputs": [
        {
          "internalType": "string",
          "name": "",
          "type": "string"
        },
        {
          "internalType": "string",
          "name": "",
          "type": "string"
        },
        {
          "internalType": "string",
          "name": "",
          "type": "string"
        },
        {
          "internalType": "string",
          "name": "",
          "type": "string"
        },
        {
          "internalType": "uint32",
          "name": "",
          "type": "uint32"
        },
        {
          "internalType": "uint256",
          "name": "",
          "type": "uint256"
        },
        {
          "internalType": "bool",
          "name": "",
          "type": "bool"
        }
      ],
      "payable": false,
      "stateMutability": "view",
      "type": "function"
    },
    {
      "constant": true,
      "inputs": [
        {
          "internalType": "uint256",
          "name": "pokemonNumber",
          "type": "uint256"
        }
      ],
      "name": "getPokemonName",
      "outputs": [
        {
          "internalType": "string",
          "name": "",
          "type": "string"
        }
      ],
      "payable": false,
      "stateMutability": "view",
      "type": "function"
    },
    {
      "constant": true,
      "inputs": [
        {
          "internalType": "uint256",
          "name": "_pokemonId",
          "type": "uint256"
        }
      ],
      "name": "getPokemonStats",
      "outputs": [
        {
          "internalType": "uint32",
          "name": "",
          "type": "uint32"
        },
        {
          "internalType": "uint32",
          "name": "",
          "type": "uint32"
        },
        {
          "internalType": "uint32",
          "name": "",
          "type": "uint32"
        },
        {
          "internalType": "uint32",
          "name": "",
          "type": "uint32"
        },
        {
          "internalType": "uint32",
          "name": "",
          "type": "uint32"
        },
        {
          "internalType": "uint32",
          "name": "",
          "type": "uint32"
        }
      ],
      "payable": false,
      "stateMutability": "view",
      "type": "function"
    },
    {
      "constant": false,
      "inputs": [
        {
          "internalType": "uint256",
          "name": "_motherId",
          "type": "uint256"
        }
      ],
      "name": "giveBirth",
      "outputs": [
        {
          "internalType": "uint256",
          "name": "",
          "type": "uint256"
        }
      ],
      "payable": false,
      "stateMutability": "nonpayable",
      "type": "function"
    },
    {
      "constant": true,
      "inputs": [],
      "name": "isNewTrainer",
      "outputs": [
        {
          "internalType": "bool",
          "name": "",
          "type": "bool"
        }
      ],
      "payable": false,
      "stateMutability": "view",
      "type": "function"
    },
    {
      "constant": true,
      "inputs": [],
      "name": "isOwner",
      "outputs": [
        {
          "internalType": "bool",
          "name": "",
          "type": "bool"
        }
      ],
      "payable": false,
      "stateMutability": "view",
      "type": "function"
    },
    {
      "constant": true,
      "inputs": [
        {
          "internalType": "uint256",
          "name": "_pokemonId",
          "type": "uint256"
        }
      ],
      "name": "isPregnant",
      "outputs": [
        {
          "internalType": "bool",
          "name": "",
          "type": "bool"
        }
      ],
      "payable": false,
      "stateMutability": "view",
      "type": "function"
    },
    {
      "constant": true,
      "inputs": [
        {
          "internalType": "uint256",
          "name": "_pokemonId",
          "type": "uint256"
        }
      ],
      "name": "isReadyToBreed",
      "outputs": [
        {
          "internalType": "bool",
          "name": "",
          "type": "bool"
        }
      ],
      "payable": false,
      "stateMutability": "view",
      "type": "function"
    },
    {
      "constant": true,
      "inputs": [
        {
          "internalType": "uint256",
          "name": "_pokemonId",
          "type": "uint256"
        }
      ],
      "name": "isReadyToGiveBirth",
      "outputs": [
        {
          "internalType": "bool",
          "name": "",
          "type": "bool"
        }
      ],
      "payable": false,
      "stateMutability": "view",
      "type": "function"
    },
    {
      "constant": true,
      "inputs": [],
      "name": "owner",
      "outputs": [
        {
          "internalType": "address",
          "name": "",
          "type": "address"
        }
      ],
      "payable": false,
      "stateMutability": "view",
      "type": "function"
    },
    {
      "constant": true,
      "inputs": [
        {
          "internalType": "uint256",
          "name": "",
          "type": "uint256"
        }
      ],
      "name": "pokemonToOwner",
      "outputs": [
        {
          "internalType": "address payable",
          "name": "",
          "type": "address"
        }
      ],
      "payable": false,
      "stateMutability": "view",
      "type": "function"
    },
    {
      "constant": false,
      "inputs": [],
      "name": "renounceOwnership",
      "outputs": [],
      "payable": false,
      "stateMutability": "nonpayable",
      "type": "function"
    },
    {
      "constant": true,
      "inputs": [],
      "name": "returnNumberOfPokemons",
      "outputs": [
        {
          "internalType": "uint256",
          "name": "",
          "type": "uint256"
        }
      ],
      "payable": false,
      "stateMutability": "view",
      "type": "function"
    },
    {
      "constant": true,
      "inputs": [],
      "name": "returnTotalNumberOfPokemons",
      "outputs": [
        {
          "internalType": "uint256",
          "name": "",
          "type": "uint256"
        }
      ],
      "payable": false,
      "stateMutability": "view",
      "type": "function"
    },
    {
      "constant": false,
      "inputs": [
        {
          "internalType": "uint256",
          "name": "fee",
          "type": "uint256"
        }
      ],
      "name": "setBirthFee",
      "outputs": [],
      "payable": false,
      "stateMutability": "nonpayable",
      "type": "function"
    },
    {
      "constant": false,
      "inputs": [
        {
          "internalType": "address",
          "name": "newOwner",
          "type": "address"
        }
      ],
      "name": "transferOwnership",
      "outputs": [],
      "payable": false,
      "stateMutability": "nonpayable",
      "type": "function"
    },
    {
      "constant": false,
      "inputs": [
        {
          "internalType": "uint256",
          "name": "_fee",
          "type": "uint256"
        }
      ],
      "name": "setLevelUpFee",
      "outputs": [],
      "payable": false,
      "stateMutability": "nonpayable",
      "type": "function"
    },
    {
      "constant": false,
      "inputs": [
        {
          "internalType": "uint256",
          "name": "_pokemonId",
          "type": "uint256"
        }
      ],
      "name": "levelUp",
      "outputs": [],
      "payable": true,
      "stateMutability": "payable",
      "type": "function"
    },
    {
      "constant": false,
      "inputs": [
        {
          "internalType": "uint256",
          "name": "_pokemonId",
          "type": "uint256"
        },
        {
          "internalType": "string",
          "name": "_newName",
          "type": "string"
        }
      ],
      "name": "changeName",
      "outputs": [],
      "payable": false,
      "stateMutability": "nonpayable",
      "type": "function"
    },
    {
      "constant": false,
      "inputs": [
        {
          "internalType": "uint256",
          "name": "_pokemonId",
          "type": "uint256"
        }
      ],
      "name": "evolve",
      "outputs": [
        {
          "internalType": "string",
          "name": "",
          "type": "string"
        },
        {
          "internalType": "uint256",
          "name": "",
          "type": "uint256"
        },
        {
          "internalType": "uint32",
          "name": "",
          "type": "uint32"
        },
        {
          "internalType": "uint32",
          "name": "",
          "type": "uint32"
        },
        {
          "internalType": "uint32",
          "name": "",
          "type": "uint32"
        }
      ],
      "payable": false,
      "stateMutability": "nonpayable",
      "type": "function"
    },
    {
      "constant": true,
      "inputs": [
        {
          "internalType": "address",
          "name": "_owner",
          "type": "address"
        }
      ],
      "name": "getPokemonCardsByOwner",
      "outputs": [
        {
          "internalType": "uint256[]",
          "name": "",
          "type": "uint256[]"
        }
      ],
      "payable": false,
      "stateMutability": "view",
      "type": "function"
    },
    {
      "constant": true,
      "inputs": [],
      "name": "getPokemonCardsByOwner",
      "outputs": [
        {
          "internalType": "uint256[]",
          "name": "",
          "type": "uint256[]"
        }
      ],
      "payable": false,
      "stateMutability": "view",
      "type": "function"
    },
    {
      "constant": true,
      "inputs": [
        {
          "internalType": "uint256",
          "name": "_pokemonId",
          "type": "uint256"
        }
      ],
      "name": "isEvovalble",
      "outputs": [
        {
          "internalType": "bool",
          "name": "",
          "type": "bool"
        }
      ],
      "payable": false,
      "stateMutability": "view",
      "type": "function"
    },
    {
      "constant": false,
      "inputs": [],
      "name": "buyStarterPack",
      "outputs": [
        {
          "internalType": "uint256",
          "name": "",
          "type": "uint256"
        }
      ],
      "payable": true,
      "stateMutability": "payable",
      "type": "function"
    },
    {
      "constant": false,
      "inputs": [],
      "name": "withdraw",
      "outputs": [],
      "payable": false,
      "stateMutability": "nonpayable",
      "type": "function"
    },
    {
      "constant": true,
      "inputs": [],
      "name": "getPendingWithdrawals",
      "outputs": [
        {
          "internalType": "uint256",
          "name": "",
          "type": "uint256"
        }
      ],
      "payable": false,
      "stateMutability": "view",
      "type": "function"
    }
  ],
  "bytecode": "0x60806040526010600455600454600a0a600555600560065560056007556605543df729c000600b5566038d7ea4c68000600c55336000806101000a81548173ffffffffffffffffffffffffffffffffffffffff021916908373ffffffffffffffffffffffffffffffffffffffff1602179055506000809054906101000a900473ffffffffffffffffffffffffffffffffffffffff1673ffffffffffffffffffffffffffffffffffffffff16600073ffffffffffffffffffffffffffffffffffffffff167f8be0079c531659141344cd1fd0a4f28419497f9722a3daafe3b4186f6b6457e060405160405180910390a36200010762000191640100000000026401000000009004565b620001206201b60e640100000000026401000000009004565b620001396201bd2c640100000000026401000000009004565b6200018a6040518060400160405280600781526020017f496e697469616c0000000000000000000000000000000000000000000000000081525060006201cc84640100000000026401000000009004565b506201dbe2565b60036040518060e001604052806040518060400160405280600981526020017f42756c62617361757200000000000000000000000000000000000000000000008152508152602001600181526020016040518060400160405280600581526020017f477261737300000000000000000000000000000000000000000000000000000081525081526020016040518060400160405280600681526020017f506f69736f6e0000000000000000000000000000000000000000000000000000815250815260200161024681526020016000151581526020016040518060c00160405280602d63ffffffff168152602001603163ffffffff168152602001603163ffffffff168152602001604163ffffffff168152602001604163ffffffff168152602001602d63ffffffff168152508152509080600181540180825580915050906001820390600052602060002090600702016000909192909190915060008201518160000190805190602001906200030a9291906201d9fe565b50602082015181600101556040820151816002019080519060200190620003339291906201d9fe565b506060820151816003019080519060200190620003529291906201d9fe565b506080820151816004015560a08201518160050160006101000a81548160ff02191690831515021790555060c08201518160060160008201518160000160006101000a81548163ffffffff021916908363ffffffff16021790555060208201518160000160046101000a81548163ffffffff021916908363ffffffff16021790555060408201518160000160086101000a81548163ffffffff021916908363ffffffff160217905550606082015181600001600c6101000a81548163ffffffff021916908363ffffffff16021790555060808201518160000160106101000a81548163ffffffff021916908363ffffffff16021790555060a08201518160000160146101000a81548163ffffffff021916908363ffffffff160217905550505050505060036040518060e001604052806040518060400160405280600781526020017f49767973617572000000000000000000000000000000000000000000000000008152508152602001600281526020016040518060400160405280600581526020017f477261737300000000000000000000000000000000000000000000000000000081525081526020016040518060400160405280600681526020017f506f69736f6e000000000000000000000000000000000000000000000000000081525081526020016101ef81526020016000151581526020016040518060c00160405280603c63ffffffff168152602001603e63ffffffff168152602001603f63ffffffff168152602001605063ffffffff168152602001605063ffffffff168152602001603c63ffffffff16815250815250908060018154018082558091505090600182039060005260206000209060070201600090919290919091506000820151816000019080519060200190620005ee9291906201d9fe565b50602082015181600101556040820151816002019080519060200190620006179291906201d9fe565b506060820151816003019080519060200190620006369291906201d9fe565b506080820151816004015560a08201518160050160006101000a81548160ff02191690831515021790555060c08201518160060160008201518160000160006101000a81548163ffffffff021916908363ffffffff16021790555060208201518160000160046101000a81548163ffffffff021916908363ffffffff16021790555060408201518160000160086101000a81548163ffffffff021916908363ffffffff160217905550606082015181600001600c6101000a81548163ffffffff021916908363ffffffff16021790555060808201518160000160106101000a81548163ffffffff021916908363ffffffff16021790555060a08201518160000160146101000a81548163ffffffff021916908363ffffffff160217905550505050505060036040518060e001604052806040518060400160405280600881526020017f56656e75736175720000000000000000000000000000000000000000000000008152508152602001600381526020016040518060400160405280600581526020017f477261737300000000000000000000000000000000000000000000000000000081525081526020016040518060400160405280600681526020017f506f69736f6e0000000000000000000000000000000000000000000000000000815250815260200161017781526020016000151581526020016040518060c00160405280605063ffffffff168152602001605263ffffffff168152602001605363ffffffff168152602001606463ffffffff168152602001606463ffffffff168152602001605063ffffffff16815250815250908060018154018082558091505090600182039060005260206000209060070201600090919290919091506000820151816000019080519060200190620008d29291906201d9fe565b50602082015181600101556040820151816002019080519060200190620008fb9291906201d9fe565b5060608201518160030190805190602001906200091a9291906201d9fe565b506080820151816004015560a08201518160050160006101000a81548160ff02191690831515021790555060c08201518160060160008201518160000160006101000a81548163ffffffff021916908363ffffffff16021790555060208201518160000160046101000a81548163ffffffff021916908363ffffffff16021790555060408201518160000160086101000a81548163ffffffff021916908363ffffffff160217905550606082015181600001600c6101000a81548163ffffffff021916908363ffffffff16021790555060808201518160000160106101000a81548163ffffffff021916908363ffffffff16021790555060a08201518160000160146101000a81548163ffffffff021916908363ffffffff160217905550505050505060036040518060e001604052806040518060400160405280600a81526020017f436861726d616e646572000000000000000000000000000000000000000000008152508152602001600481526020016040518060400160405280600481526020017f466972650000000000000000000000000000000000000000000000000000000081525081526020016040518060400160405280600381526020017f6e616e0000000000000000000000000000000000000000000000000000000000815250815260200161024f81526020016000151581526020016040518060c00160405280602763ffffffff168152602001603463ffffffff168152602001602b63ffffffff168152602001603c63ffffffff168152602001603263ffffffff168152602001604163ffffffff1681525081525090806001815401808255809150509060018203906000526020600020906007020160009091929091909150600082015181600001908051906020019062000bb69291906201d9fe565b5060208201518160010155604082015181600201908051906020019062000bdf9291906201d9fe565b50606082015181600301908051906020019062000bfe9291906201d9fe565b506080820151816004015560a08201518160050160006101000a81548160ff02191690831515021790555060c08201518160060160008201518160000160006101000a81548163ffffffff021916908363ffffffff16021790555060208201518160000160046101000a81548163ffffffff021916908363ffffffff16021790555060408201518160000160086101000a81548163ffffffff021916908363ffffffff160217905550606082015181600001600c6101000a81548163ffffffff021916908363ffffffff16021790555060808201518160000160106101000a81548163ffffffff021916908363ffffffff16021790555060a08201518160000160146101000a81548163ffffffff021916908363ffffffff160217905550505050505060036040518060e001604052806040518060400160405280600a81526020017f436861726d656c656f6e000000000000000000000000000000000000000000008152508152602001600581526020016040518060400160405280600481526020017f466972650000000000000000000000000000000000000000000000000000000081525081526020016040518060400160405280600381526020017f6e616e000000000000000000000000000000000000000000000000000000000081525081526020016101ef81526020016000151581526020016040518060c00160405280603a63ffffffff168152602001604063ffffffff168152602001603a63ffffffff168152602001605063ffffffff168152602001604163ffffffff168152602001605063ffffffff1681525081525090806001815401808255809150509060018203906000526020600020906007020160009091929091909150600082015181600001908051906020019062000e9a9291906201d9fe565b5060208201518160010155604082015181600201908051906020019062000ec39291906201d9fe565b50606082015181600301908051906020019062000ee29291906201d9fe565b506080820151816004015560a08201518160050160006101000a81548160ff02191690831515021790555060c08201518160060160008201518160000160006101000a81548163ffffffff021916908363ffffffff16021790555060208201518160000160046101000a81548163ffffffff021916908363ffffffff16021790555060408201518160000160086101000a81548163ffffffff021916908363ffffffff160217905550606082015181600001600c6101000a81548163ffffffff021916908363ffffffff16021790555060808201518160000160106101000a81548163ffffffff021916908363ffffffff16021790555060a08201518160000160146101000a81548163ffffffff021916908363ffffffff160217905550505050505060036040518060e001604052806040518060400160405280600981526020017f43686172697a61726400000000000000000000000000000000000000000000008152508152602001600681526020016040518060400160405280600481526020017f466972650000000000000000000000000000000000000000000000000000000081525081526020016040518060400160405280600681526020017f466c79696e670000000000000000000000000000000000000000000000000000815250815260200161016e81526020016000151581526020016040518060c00160405280604e63ffffffff168152602001605463ffffffff168152602001604e63ffffffff168152602001606d63ffffffff168152602001605563ffffffff168152602001606463ffffffff168152508152509080600181540180825580915050906001820390600052602060002090600702016000909192909190915060008201518160000190805190602001906200117e9291906201d9fe565b50602082015181600101556040820151816002019080519060200190620011a79291906201d9fe565b506060820151816003019080519060200190620011c69291906201d9fe565b506080820151816004015560a08201518160050160006101000a81548160ff02191690831515021790555060c08201518160060160008201518160000160006101000a81548163ffffffff021916908363ffffffff16021790555060208201518160000160046101000a81548163ffffffff021916908363ffffffff16021790555060408201518160000160086101000a81548163ffffffff021916908363ffffffff160217905550606082015181600001600c6101000a81548163ffffffff021916908363ffffffff16021790555060808201518160000160106101000a81548163ffffffff021916908363ffffffff16021790555060a08201518160000160146101000a81548163ffffffff021916908363ffffffff160217905550505050505060036040518060e001604052806040518060400160405280600881526020017f5371756972746c650000000000000000000000000000000000000000000000008152508152602001600781526020016040518060400160405280600581526020017f576174657200000000000000000000000000000000000000000000000000000081525081526020016040518060400160405280600381526020017f6e616e0000000000000000000000000000000000000000000000000000000000815250815260200161024a81526020016000151581526020016040518060c00160405280602c63ffffffff168152602001603063ffffffff168152602001604163ffffffff168152602001603263ffffffff168152602001604063ffffffff168152602001602b63ffffffff16815250815250908060018154018082558091505090600182039060005260206000209060070201600090919290919091506000820151816000019080519060200190620014629291906201d9fe565b506020820151816001015560408201518160020190805190602001906200148b9291906201d9fe565b506060820151816003019080519060200190620014aa9291906201d9fe565b506080820151816004015560a08201518160050160006101000a81548160ff02191690831515021790555060c08201518160060160008201518160000160006101000a81548163ffffffff021916908363ffffffff16021790555060208201518160000160046101000a81548163ffffffff021916908363ffffffff16021790555060408201518160000160086101000a81548163ffffffff021916908363ffffffff160217905550606082015181600001600c6101000a81548163ffffffff021916908363ffffffff16021790555060808201518160000160106101000a81548163ffffffff021916908363ffffffff16021790555060a08201518160000160146101000a81548163ffffffff021916908363ffffffff160217905550505050505060036040518060e001604052806040518060400160405280600981526020017f576172746f72746c6500000000000000000000000000000000000000000000008152508152602001600881526020016040518060400160405280600581526020017f576174657200000000000000000000000000000000000000000000000000000081525081526020016040518060400160405280600381526020017f6e616e000000000000000000000000000000000000000000000000000000000081525081526020016101ef81526020016000151581526020016040518060c00160405280603b63ffffffff168152602001603f63ffffffff168152602001605063ffffffff168152602001604163ffffffff168152602001605063ffffffff168152602001603a63ffffffff16815250815250908060018154018082558091505090600182039060005260206000209060070201600090919290919091506000820151816000019080519060200190620017469291906201d9fe565b506020820151816001015560408201518160020190805190602001906200176f9291906201d9fe565b5060608201518160030190805190602001906200178e9291906201d9fe565b506080820151816004015560a08201518160050160006101000a81548160ff02191690831515021790555060c08201518160060160008201518160000160006101000a81548163ffffffff021916908363ffffffff16021790555060208201518160000160046101000a81548163ffffffff021916908363ffffffff16021790555060408201518160000160086101000a81548163ffffffff021916908363ffffffff160217905550606082015181600001600c6101000a81548163ffffffff021916908363ffffffff16021790555060808201518160000160106101000a81548163ffffffff021916908363ffffffff16021790555060a08201518160000160146101000a81548163ffffffff021916908363ffffffff160217905550505050505060036040518060e001604052806040518060400160405280600981526020017f426c6173746f69736500000000000000000000000000000000000000000000008152508152602001600981526020016040518060400160405280600581526020017f576174657200000000000000000000000000000000000000000000000000000081525081526020016040518060400160405280600381526020017f6e616e0000000000000000000000000000000000000000000000000000000000815250815260200161017281526020016000151581526020016040518060c00160405280604f63ffffffff168152602001605363ffffffff168152602001606463ffffffff168152602001605563ffffffff168152602001606963ffffffff168152602001604e63ffffffff1681525081525090806001815401808255809150509060018203906000526020600020906007020160009091929091909150600082015181600001908051906020019062001a2a9291906201d9fe565b5060208201518160010155604082015181600201908051906020019062001a539291906201d9fe565b50606082015181600301908051906020019062001a729291906201d9fe565b506080820151816004015560a08201518160050160006101000a81548160ff02191690831515021790555060c08201518160060160008201518160000160006101000a81548163ffffffff021916908363ffffffff16021790555060208201518160000160046101000a81548163ffffffff021916908363ffffffff16021790555060408201518160000160086101000a81548163ffffffff021916908363ffffffff160217905550606082015181600001600c6101000a81548163ffffffff021916908363ffffffff16021790555060808201518160000160106101000a81548163ffffffff021916908363ffffffff16021790555060a08201518160000160146101000a81548163ffffffff021916908363ffffffff160217905550505050505060036040518060e001604052806040518060400160405280600881526020017f43617465727069650000000000000000000000000000000000000000000000008152508152602001600a81526020016040518060400160405280600381526020017f427567000000000000000000000000000000000000000000000000000000000081525081526020016040518060400160405280600381526020017f6e616e000000000000000000000000000000000000000000000000000000000081525081526020016102c181526020016000151581526020016040518060c00160405280602d63ffffffff168152602001601e63ffffffff168152602001602363ffffffff168152602001601463ffffffff168152602001601463ffffffff168152602001602d63ffffffff1681525081525090806001815401808255809150509060018203906000526020600020906007020160009091929091909150600082015181600001908051906020019062001d0e9291906201d9fe565b5060208201518160010155604082015181600201908051906020019062001d379291906201d9fe565b50606082015181600301908051906020019062001d569291906201d9fe565b506080820151816004015560a08201518160050160006101000a81548160ff02191690831515021790555060c08201518160060160008201518160000160006101000a81548163ffffffff021916908363ffffffff16021790555060208201518160000160046101000a81548163ffffffff021916908363ffffffff16021790555060408201518160000160086101000a81548163ffffffff021916908363ffffffff160217905550606082015181600001600c6101000a81548163ffffffff021916908363ffffffff16021790555060808201518160000160106101000a81548163ffffffff021916908363ffffffff16021790555060a08201518160000160146101000a81548163ffffffff021916908363ffffffff160217905550505050505060036040518060e001604052806040518060400160405280600781526020017f4d657461706f64000000000000000000000000000000000000000000000000008152508152602001600b81526020016040518060400160405280600381526020017f427567000000000000000000000000000000000000000000000000000000000081525081526020016040518060400160405280600381526020017f6e616e000000000000000000000000000000000000000000000000000000000081525081526020016102b781526020016000151581526020016040518060c00160405280603263ffffffff168152602001601463ffffffff168152602001603763ffffffff168152602001601963ffffffff168152602001601963ffffffff168152602001601e63ffffffff1681525081525090806001815401808255809150509060018203906000526020600020906007020160009091929091909150600082015181600001908051906020019062001ff29291906201d9fe565b506020820151816001015560408201518160020190805190602001906200201b9291906201d9fe565b5060608201518160030190805190602001906200203a9291906201d9fe565b506080820151816004015560a08201518160050160006101000a81548160ff02191690831515021790555060c08201518160060160008201518160000160006101000a81548163ffffffff021916908363ffffffff16021790555060208201518160000160046101000a81548163ffffffff021916908363ffffffff16021790555060408201518160000160086101000a81548163ffffffff021916908363ffffffff160217905550606082015181600001600c6101000a81548163ffffffff021916908363ffffffff16021790555060808201518160000160106101000a81548163ffffffff021916908363ffffffff16021790555060a08201518160000160146101000a81548163ffffffff021916908363ffffffff160217905550505050505060036040518060e001604052806040518060400160405280600a81526020017f42757474657266726565000000000000000000000000000000000000000000008152508152602001600c81526020016040518060400160405280600381526020017f427567000000000000000000000000000000000000000000000000000000000081525081526020016040518060400160405280600681526020017f466c79696e67000000000000000000000000000000000000000000000000000081525081526020016101f981526020016000151581526020016040518060c00160405280603c63ffffffff168152602001602d63ffffffff168152602001603263ffffffff168152602001605a63ffffffff168152602001605063ffffffff168152602001604663ffffffff16815250815250908060018154018082558091505090600182039060005260206000209060070201600090919290919091506000820151816000019080519060200190620022d69291906201d9fe565b50602082015181600101556040820151816002019080519060200190620022ff9291906201d9fe565b5060608201518160030190805190602001906200231e9291906201d9fe565b506080820151816004015560a08201518160050160006101000a81548160ff02191690831515021790555060c08201518160060160008201518160000160006101000a81548163ffffffff021916908363ffffffff16021790555060208201518160000160046101000a81548163ffffffff021916908363ffffffff16021790555060408201518160000160086101000a81548163ffffffff021916908363ffffffff160217905550606082015181600001600c6101000a81548163ffffffff021916908363ffffffff16021790555060808201518160000160106101000a81548163ffffffff021916908363ffffffff16021790555060a08201518160000160146101000a81548163ffffffff021916908363ffffffff160217905550505050505060036040518060e001604052806040518060400160405280600681526020017f576565646c6500000000000000000000000000000000000000000000000000008152508152602001600d81526020016040518060400160405280600381526020017f427567000000000000000000000000000000000000000000000000000000000081525081526020016040518060400160405280600681526020017f506f69736f6e000000000000000000000000000000000000000000000000000081525081526020016102c181526020016000151581526020016040518060c00160405280602863ffffffff168152602001602363ffffffff168152602001601e63ffffffff168152602001601463ffffffff168152602001601463ffffffff168152602001603263ffffffff16815250815250908060018154018082558091505090600182039060005260206000209060070201600090919290919091506000820151816000019080519060200190620025ba9291906201d9fe565b50602082015181600101556040820151816002019080519060200190620025e39291906201d9fe565b506060820151816003019080519060200190620026029291906201d9fe565b506080820151816004015560a08201518160050160006101000a81548160ff02191690831515021790555060c08201518160060160008201518160000160006101000a81548163ffffffff021916908363ffffffff16021790555060208201518160000160046101000a81548163ffffffff021916908363ffffffff16021790555060408201518160000160086101000a81548163ffffffff021916908363ffffffff160217905550606082015181600001600c6101000a81548163ffffffff021916908363ffffffff16021790555060808201518160000160106101000a81548163ffffffff021916908363ffffffff16021790555060a08201518160000160146101000a81548163ffffffff021916908363ffffffff160217905550505050505060036040518060e001604052806040518060400160405280600681526020017f4b616b756e6100000000000000000000000000000000000000000000000000008152508152602001600e81526020016040518060400160405280600381526020017f427567000000000000000000000000000000000000000000000000000000000081525081526020016040518060400160405280600681526020017f506f69736f6e000000000000000000000000000000000000000000000000000081525081526020016102b781526020016000151581526020016040518060c00160405280602d63ffffffff168152602001601963ffffffff168152602001603263ffffffff168152602001601963ffffffff168152602001601963ffffffff168152602001602363ffffffff168152508152509080600181540180825580915050906001820390600052602060002090600702016000909192909190915060008201518160000190805190602001906200289e9291906201d9fe565b50602082015181600101556040820151816002019080519060200190620028c79291906201d9fe565b506060820151816003019080519060200190620028e69291906201d9fe565b506080820151816004015560a08201518160050160006101000a81548160ff02191690831515021790555060c08201518160060160008201518160000160006101000a81548163ffffffff021916908363ffffffff16021790555060208201518160000160046101000a81548163ffffffff021916908363ffffffff16021790555060408201518160000160086101000a81548163ffffffff021916908363ffffffff160217905550606082015181600001600c6101000a81548163ffffffff021916908363ffffffff16021790555060808201518160000160106101000a81548163ffffffff021916908363ffffffff16021790555060a08201518160000160146101000a81548163ffffffff021916908363ffffffff160217905550505050505060036040518060e001604052806040518060400160405280600881526020017f4265656472696c6c0000000000000000000000000000000000000000000000008152508152602001600f81526020016040518060400160405280600381526020017f427567000000000000000000000000000000000000000000000000000000000081525081526020016040518060400160405280600681526020017f506f69736f6e000000000000000000000000000000000000000000000000000081525081526020016101f981526020016000151581526020016040518060c00160405280604163ffffffff168152602001605a63ffffffff168152602001602863ffffffff168152602001602d63ffffffff168152602001605063ffffffff168152602001604b63ffffffff1681525081525090806001815401808255809150509060018203906000526020600020906007020160009091929091909150600082015181600001908051906020019062002b829291906201d9fe565b5060208201518160010155604082015181600201908051906020019062002bab9291906201d9fe565b50606082015181600301908051906020019062002bca9291906201d9fe565b506080820151816004015560a08201518160050160006101000a81548160ff02191690831515021790555060c08201518160060160008201518160000160006101000a81548163ffffffff021916908363ffffffff16021790555060208201518160000160046101000a81548163ffffffff021916908363ffffffff16021790555060408201518160000160086101000a81548163ffffffff021916908363ffffffff160217905550606082015181600001600c6101000a81548163ffffffff021916908363ffffffff16021790555060808201518160000160106101000a81548163ffffffff021916908363ffffffff16021790555060a08201518160000160146101000a81548163ffffffff021916908363ffffffff160217905550505050505060036040518060e001604052806040518060400160405280600681526020017f50696467657900000000000000000000000000000000000000000000000000008152508152602001601081526020016040518060400160405280600681526020017f4e6f726d616c000000000000000000000000000000000000000000000000000081525081526020016040518060400160405280600681526020017f466c79696e670000000000000000000000000000000000000000000000000000815250815260200161028981526020016000151581526020016040518060c00160405280602863ffffffff168152602001602d63ffffffff168152602001602863ffffffff168152602001602363ffffffff168152602001602363ffffffff168152602001603863ffffffff1681525081525090806001815401808255809150509060018203906000526020600020906007020160009091929091909150600082015181600001908051906020019062002e669291906201d9fe565b5060208201518160010155604082015181600201908051906020019062002e8f9291906201d9fe565b50606082015181600301908051906020019062002eae9291906201d9fe565b506080820151816004015560a08201518160050160006101000a81548160ff02191690831515021790555060c08201518160060160008201518160000160006101000a81548163ffffffff021916908363ffffffff16021790555060208201518160000160046101000a81548163ffffffff021916908363ffffffff16021790555060408201518160000160086101000a81548163ffffffff021916908363ffffffff160217905550606082015181600001600c6101000a81548163ffffffff021916908363ffffffff16021790555060808201518160000160106101000a81548163ffffffff021916908363ffffffff16021790555060a08201518160000160146101000a81548163ffffffff021916908363ffffffff160217905550505050505060036040518060e001604052806040518060400160405280600981526020017f50696467656f74746f00000000000000000000000000000000000000000000008152508152602001601181526020016040518060400160405280600681526020017f4e6f726d616c000000000000000000000000000000000000000000000000000081525081526020016040518060400160405280600681526020017f466c79696e670000000000000000000000000000000000000000000000000000815250815260200161022781526020016000151581526020016040518060c00160405280603f63ffffffff168152602001603c63ffffffff168152602001603763ffffffff168152602001603263ffffffff168152602001603263ffffffff168152602001604763ffffffff168152508152509080600181540180825580915050906001820390600052602060002090600702016000909192909190915060008201518160000190805190602001906200314a9291906201d9fe565b50602082015181600101556040820151816002019080519060200190620031739291906201d9fe565b506060820151816003019080519060200190620031929291906201d9fe565b506080820151816004015560a08201518160050160006101000a81548160ff02191690831515021790555060c08201518160060160008201518160000160006101000a81548163ffffffff021916908363ffffffff16021790555060208201518160000160046101000a81548163ffffffff021916908363ffffffff16021790555060408201518160000160086101000a81548163ffffffff021916908363ffffffff160217905550606082015181600001600c6101000a81548163ffffffff021916908363ffffffff16021790555060808201518160000160106101000a81548163ffffffff021916908363ffffffff16021790555060a08201518160000160146101000a81548163ffffffff021916908363ffffffff160217905550505050505060036040518060e001604052806040518060400160405280600781526020017f50696467656f74000000000000000000000000000000000000000000000000008152508152602001601281526020016040518060400160405280600681526020017f4e6f726d616c000000000000000000000000000000000000000000000000000081525081526020016040518060400160405280600681526020017f466c79696e67000000000000000000000000000000000000000000000000000081525081526020016101a581526020016000151581526020016040518060c00160405280605363ffffffff168152602001605063ffffffff168152602001604b63ffffffff168152602001604663ffffffff168152602001604663ffffffff168152602001606563ffffffff168152508152509080600181540180825580915050906001820390600052602060002090600702016000909192909190915060008201518160000190805190602001906200342e9291906201d9fe565b50602082015181600101556040820151816002019080519060200190620034579291906201d9fe565b506060820151816003019080519060200190620034769291906201d9fe565b506080820151816004015560a08201518160050160006101000a81548160ff02191690831515021790555060c08201518160060160008201518160000160006101000a81548163ffffffff021916908363ffffffff16021790555060208201518160000160046101000a81548163ffffffff021916908363ffffffff16021790555060408201518160000160086101000a81548163ffffffff021916908363ffffffff160217905550606082015181600001600c6101000a81548163ffffffff021916908363ffffffff16021790555060808201518160000160106101000a81548163ffffffff021916908363ffffffff16021790555060a08201518160000160146101000a81548163ffffffff021916908363ffffffff160217905550505050505060036040518060e001604052806040518060400160405280600781526020017f52617474617461000000000000000000000000000000000000000000000000008152508152602001601381526020016040518060400160405280600681526020017f4e6f726d616c000000000000000000000000000000000000000000000000000081525081526020016040518060400160405280600381526020017f6e616e0000000000000000000000000000000000000000000000000000000000815250815260200161028781526020016000151581526020016040518060c00160405280601e63ffffffff168152602001603863ffffffff168152602001602363ffffffff168152602001601963ffffffff168152602001602363ffffffff168152602001604863ffffffff16815250815250908060018154018082558091505090600182039060005260206000209060070201600090919290919091506000820151816000019080519060200190620037129291906201d9fe565b506020820151816001015560408201518160020190805190602001906200373b9291906201d9fe565b5060608201518160030190805190602001906200375a9291906201d9fe565b506080820151816004015560a08201518160050160006101000a81548160ff02191690831515021790555060c08201518160060160008201518160000160006101000a81548163ffffffff021916908363ffffffff16021790555060208201518160000160046101000a81548163ffffffff021916908363ffffffff16021790555060408201518160000160086101000a81548163ffffffff021916908363ffffffff160217905550606082015181600001600c6101000a81548163ffffffff021916908363ffffffff16021790555060808201518160000160106101000a81548163ffffffff021916908363ffffffff16021790555060a08201518160000160146101000a81548163ffffffff021916908363ffffffff160217905550505050505060036040518060e001604052806040518060400160405280600881526020017f52617469636174650000000000000000000000000000000000000000000000008152508152602001601481526020016040518060400160405280600681526020017f4e6f726d616c000000000000000000000000000000000000000000000000000081525081526020016040518060400160405280600381526020017f6e616e000000000000000000000000000000000000000000000000000000000081525081526020016101e781526020016000151581526020016040518060c00160405280603763ffffffff168152602001605163ffffffff168152602001603c63ffffffff168152602001603263ffffffff168152602001604663ffffffff168152602001606163ffffffff16815250815250908060018154018082558091505090600182039060005260206000209060070201600090919290919091506000820151816000019080519060200190620039f69291906201d9fe565b5060208201518160010155604082015181600201908051906020019062003a1f9291906201d9fe565b50606082015181600301908051906020019062003a3e9291906201d9fe565b506080820151816004015560a08201518160050160006101000a81548160ff02191690831515021790555060c08201518160060160008201518160000160006101000a81548163ffffffff021916908363ffffffff16021790555060208201518160000160046101000a81548163ffffffff021916908363ffffffff16021790555060408201518160000160086101000a81548163ffffffff021916908363ffffffff160217905550606082015181600001600c6101000a81548163ffffffff021916908363ffffffff16021790555060808201518160000160106101000a81548163ffffffff021916908363ffffffff16021790555060a08201518160000160146101000a81548163ffffffff021916908363ffffffff160217905550505050505060036040518060e001604052806040518060400160405280600781526020017f53706561726f77000000000000000000000000000000000000000000000000008152508152602001601581526020016040518060400160405280600681526020017f4e6f726d616c000000000000000000000000000000000000000000000000000081525081526020016040518060400160405280600681526020017f466c79696e670000000000000000000000000000000000000000000000000000815250815260200161027e81526020016000151581526020016040518060c00160405280602863ffffffff168152602001603c63ffffffff168152602001601e63ffffffff168152602001601f63ffffffff168152602001601f63ffffffff168152602001604663ffffffff1681525081525090806001815401808255809150509060018203906000526020600020906007020160009091929091909150600082015181600001908051906020019062003cda9291906201d9fe565b5060208201518160010155604082015181600201908051906020019062003d039291906201d9fe565b50606082015181600301908051906020019062003d229291906201d9fe565b506080820151816004015560a08201518160050160006101000a81548160ff02191690831515021790555060c08201518160060160008201518160000160006101000a81548163ffffffff021916908363ffffffff16021790555060208201518160000160046101000a81548163ffffffff021916908363ffffffff16021790555060408201518160000160086101000a81548163ffffffff021916908363ffffffff160217905550606082015181600001600c6101000a81548163ffffffff021916908363ffffffff16021790555060808201518160000160106101000a81548163ffffffff021916908363ffffffff16021790555060a08201518160000160146101000a81548163ffffffff021916908363ffffffff160217905550505050505060036040518060e001604052806040518060400160405280600681526020017f466561726f7700000000000000000000000000000000000000000000000000008152508152602001601681526020016040518060400160405280600681526020017f4e6f726d616c000000000000000000000000000000000000000000000000000081525081526020016040518060400160405280600681526020017f466c79696e67000000000000000000000000000000000000000000000000000081525081526020016101ca81526020016000151581526020016040518060c00160405280604163ffffffff168152602001605a63ffffffff168152602001604163ffffffff168152602001603d63ffffffff168152602001603d63ffffffff168152602001606463ffffffff1681525081525090806001815401808255809150509060018203906000526020600020906007020160009091929091909150600082015181600001908051906020019062003fbe9291906201d9fe565b5060208201518160010155604082015181600201908051906020019062003fe79291906201d9fe565b506060820151816003019080519060200190620040069291906201d9fe565b506080820151816004015560a08201518160050160006101000a81548160ff02191690831515021790555060c08201518160060160008201518160000160006101000a81548163ffffffff021916908363ffffffff16021790555060208201518160000160046101000a81548163ffffffff021916908363ffffffff16021790555060408201518160000160086101000a81548163ffffffff021916908363ffffffff160217905550606082015181600001600c6101000a81548163ffffffff021916908363ffffffff16021790555060808201518160000160106101000a81548163ffffffff021916908363ffffffff16021790555060a08201518160000160146101000a81548163ffffffff021916908363ffffffff160217905550505050505060036040518060e001604052806040518060400160405280600581526020017f456b616e730000000000000000000000000000000000000000000000000000008152508152602001601781526020016040518060400160405280600681526020017f506f69736f6e000000000000000000000000000000000000000000000000000081525081526020016040518060400160405280600381526020017f6e616e0000000000000000000000000000000000000000000000000000000000815250815260200161026481526020016000151581526020016040518060c00160405280602363ffffffff168152602001603c63ffffffff168152602001602c63ffffffff168152602001602863ffffffff168152602001603663ffffffff168152602001603763ffffffff16815250815250908060018154018082558091505090600182039060005260206000209060070201600090919290919091506000820151816000019080519060200190620042a29291906201d9fe565b50602082015181600101556040820151816002019080519060200190620042cb9291906201d9fe565b506060820151816003019080519060200190620042ea9291906201d9fe565b506080820151816004015560a08201518160050160006101000a81548160ff02191690831515021790555060c08201518160060160008201518160000160006101000a81548163ffffffff021916908363ffffffff16021790555060208201518160000160046101000a81548163ffffffff021916908363ffffffff16021790555060408201518160000160086101000a81548163ffffffff021916908363ffffffff160217905550606082015181600001600c6101000a81548163ffffffff021916908363ffffffff16021790555060808201518160000160106101000a81548163ffffffff021916908363ffffffff16021790555060a08201518160000160146101000a81548163ffffffff021916908363ffffffff160217905550505050505060036040518060e001604052806040518060400160405280600581526020017f4172626f6b0000000000000000000000000000000000000000000000000000008152508152602001601881526020016040518060400160405280600681526020017f506f69736f6e000000000000000000000000000000000000000000000000000081525081526020016040518060400160405280600381526020017f6e616e000000000000000000000000000000000000000000000000000000000081525081526020016101ce81526020016000151581526020016040518060c00160405280603c63ffffffff168152602001605563ffffffff168152602001604563ffffffff168152602001604163ffffffff168152602001604f63ffffffff168152602001605063ffffffff16815250815250908060018154018082558091505090600182039060005260206000209060070201600090919290919091506000820151816000019080519060200190620045869291906201d9fe565b50602082015181600101556040820151816002019080519060200190620045af9291906201d9fe565b506060820151816003019080519060200190620045ce9291906201d9fe565b506080820151816004015560a08201518160050160006101000a81548160ff02191690831515021790555060c08201518160060160008201518160000160006101000a81548163ffffffff021916908363ffffffff16021790555060208201518160000160046101000a81548163ffffffff021916908363ffffffff16021790555060408201518160000160086101000a81548163ffffffff021916908363ffffffff160217905550606082015181600001600c6101000a81548163ffffffff021916908363ffffffff16021790555060808201518160000160106101000a81548163ffffffff021916908363ffffffff16021790555060a08201518160000160146101000a81548163ffffffff021916908363ffffffff160217905550505050505060036040518060e001604052806040518060400160405280600781526020017f50696b61636875000000000000000000000000000000000000000000000000008152508152602001601981526020016040518060400160405280600881526020017f456c65637472696300000000000000000000000000000000000000000000000081525081526020016040518060400160405280600381526020017f6e616e0000000000000000000000000000000000000000000000000000000000815250815260200161024481526020016000151581526020016040518060c00160405280602363ffffffff168152602001603763ffffffff168152602001602863ffffffff168152602001603263ffffffff168152602001603263ffffffff168152602001605a63ffffffff168152508152509080600181540180825580915050906001820390600052602060002090600702016000909192909190915060008201518160000190805190602001906200486a9291906201d9fe565b50602082015181600101556040820151816002019080519060200190620048939291906201d9fe565b506060820151816003019080519060200190620048b29291906201d9fe565b506080820151816004015560a08201518160050160006101000a81548160ff02191690831515021790555060c08201518160060160008201518160000160006101000a81548163ffffffff021916908363ffffffff16021790555060208201518160000160046101000a81548163ffffffff021916908363ffffffff16021790555060408201518160000160086101000a81548163ffffffff021916908363ffffffff160217905550606082015181600001600c6101000a81548163ffffffff021916908363ffffffff16021790555060808201518160000160106101000a81548163ffffffff021916908363ffffffff16021790555060a08201518160000160146101000a81548163ffffffff021916908363ffffffff160217905550505050505060036040518060e001604052806040518060400160405280600681526020017f52616963687500000000000000000000000000000000000000000000000000008152508152602001601a81526020016040518060400160405280600881526020017f456c65637472696300000000000000000000000000000000000000000000000081525081526020016040518060400160405280600381526020017f6e616e0000000000000000000000000000000000000000000000000000000000815250815260200161019f81526020016000151581526020016040518060c00160405280603c63ffffffff168152602001605a63ffffffff168152602001603763ffffffff168152602001605a63ffffffff168152602001605063ffffffff168152602001606e63ffffffff1681525081525090806001815401808255809150509060018203906000526020600020906007020160009091929091909150600082015181600001908051906020019062004b4e9291906201d9fe565b5060208201518160010155604082015181600201908051906020019062004b779291906201d9fe565b50606082015181600301908051906020019062004b969291906201d9fe565b506080820151816004015560a08201518160050160006101000a81548160ff02191690831515021790555060c08201518160060160008201518160000160006101000a81548163ffffffff021916908363ffffffff16021790555060208201518160000160046101000a81548163ffffffff021916908363ffffffff16021790555060408201518160000160086101000a81548163ffffffff021916908363ffffffff160217905550606082015181600001600c6101000a81548163ffffffff021916908363ffffffff16021790555060808201518160000160106101000a81548163ffffffff021916908363ffffffff16021790555060a08201518160000160146101000a81548163ffffffff021916908363ffffffff160217905550505050505060036040518060e001604052806040518060400160405280600981526020017f53616e64736872657700000000000000000000000000000000000000000000008152508152602001601b81526020016040518060400160405280600681526020017f47726f756e64000000000000000000000000000000000000000000000000000081525081526020016040518060400160405280600381526020017f6e616e0000000000000000000000000000000000000000000000000000000000815250815260200161025881526020016000151581526020016040518060c00160405280603263ffffffff168152602001604b63ffffffff168152602001605563ffffffff168152602001601463ffffffff168152602001601e63ffffffff168152602001602863ffffffff1681525081525090806001815401808255809150509060018203906000526020600020906007020160009091929091909150600082015181600001908051906020019062004e329291906201d9fe565b5060208201518160010155604082015181600201908051906020019062004e5b9291906201d9fe565b50606082015181600301908051906020019062004e7a9291906201d9fe565b506080820151816004015560a08201518160050160006101000a81548160ff02191690831515021790555060c08201518160060160008201518160000160006101000a81548163ffffffff021916908363ffffffff16021790555060208201518160000160046101000a81548163ffffffff021916908363ffffffff16021790555060408201518160000160086101000a81548163ffffffff021916908363ffffffff160217905550606082015181600001600c6101000a81548163ffffffff021916908363ffffffff16021790555060808201518160000160106101000a81548163ffffffff021916908363ffffffff16021790555060a08201518160000160146101000a81548163ffffffff021916908363ffffffff160217905550505050505060036040518060e001604052806040518060400160405280600981526020017f53616e64736c61736800000000000000000000000000000000000000000000008152508152602001601c81526020016040518060400160405280600681526020017f47726f756e64000000000000000000000000000000000000000000000000000081525081526020016040518060400160405280600381526020017f6e616e000000000000000000000000000000000000000000000000000000000081525081526020016101c281526020016000151581526020016040518060c00160405280604b63ffffffff168152602001606463ffffffff168152602001606e63ffffffff168152602001602d63ffffffff168152602001603763ffffffff168152602001604163ffffffff16815250815250908060018154018082558091505090600182039060005260206000209060070201600090919290919091506000820151816000019080519060200190620051169291906201d9fe565b506020820151816001015560408201518160020190805190602001906200513f9291906201d9fe565b5060608201518160030190805190602001906200515e9291906201d9fe565b506080820151816004015560a08201518160050160006101000a81548160ff02191690831515021790555060c08201518160060160008201518160000160006101000a81548163ffffffff021916908363ffffffff16021790555060208201518160000160046101000a81548163ffffffff021916908363ffffffff16021790555060408201518160000160086101000a81548163ffffffff021916908363ffffffff160217905550606082015181600001600c6101000a81548163ffffffff021916908363ffffffff16021790555060808201518160000160106101000a81548163ffffffff021916908363ffffffff16021790555060a08201518160000160146101000a81548163ffffffff021916908363ffffffff160217905550505050505060036040518060e001604052806040518060400160405280600a81526020017f4e69646f72616ee29980000000000000000000000000000000000000000000008152508152602001601d81526020016040518060400160405280600681526020017f506f69736f6e000000000000000000000000000000000000000000000000000081525081526020016040518060400160405280600381526020017f6e616e0000000000000000000000000000000000000000000000000000000000815250815260200161027181526020016000151581526020016040518060c00160405280603763ffffffff168152602001602f63ffffffff168152602001603463ffffffff168152602001602863ffffffff168152602001602863ffffffff168152602001602963ffffffff16815250815250908060018154018082558091505090600182039060005260206000209060070201600090919290919091506000820151816000019080519060200190620053fa9291906201d9fe565b50602082015181600101556040820151816002019080519060200190620054239291906201d9fe565b506060820151816003019080519060200190620054429291906201d9fe565b506080820151816004015560a08201518160050160006101000a81548160ff02191690831515021790555060c08201518160060160008201518160000160006101000a81548163ffffffff021916908363ffffffff16021790555060208201518160000160046101000a81548163ffffffff021916908363ffffffff16021790555060408201518160000160086101000a81548163ffffffff021916908363ffffffff160217905550606082015181600001600c6101000a81548163ffffffff021916908363ffffffff16021790555060808201518160000160106101000a81548163ffffffff021916908363ffffffff16021790555060a08201518160000160146101000a81548163ffffffff021916908363ffffffff160217905550505050505060036040518060e001604052806040518060400160405280600881526020017f4e69646f72696e610000000000000000000000000000000000000000000000008152508152602001601e81526020016040518060400160405280600681526020017f506f69736f6e000000000000000000000000000000000000000000000000000081525081526020016040518060400160405280600381526020017f6e616e0000000000000000000000000000000000000000000000000000000000815250815260200161021781526020016000151581526020016040518060c00160405280604663ffffffff168152602001603e63ffffffff168152602001604363ffffffff168152602001603763ffffffff168152602001603763ffffffff168152602001603863ffffffff16815250815250908060018154018082558091505090600182039060005260206000209060070201600090919290919091506000820151816000019080519060200190620056de9291906201d9fe565b50602082015181600101556040820151816002019080519060200190620057079291906201d9fe565b506060820151816003019080519060200190620057269291906201d9fe565b506080820151816004015560a08201518160050160006101000a81548160ff02191690831515021790555060c08201518160060160008201518160000160006101000a81548163ffffffff021916908363ffffffff16021790555060208201518160000160046101000a81548163ffffffff021916908363ffffffff16021790555060408201518160000160086101000a81548163ffffffff021916908363ffffffff160217905550606082015181600001600c6101000a81548163ffffffff021916908363ffffffff16021790555060808201518160000160106101000a81548163ffffffff021916908363ffffffff16021790555060a08201518160000160146101000a81548163ffffffff021916908363ffffffff160217905550505050505060036040518060e001604052806040518060400160405280600981526020017f4e69646f717565656e00000000000000000000000000000000000000000000008152508152602001601f81526020016040518060400160405280600681526020017f506f69736f6e000000000000000000000000000000000000000000000000000081525081526020016040518060400160405280600681526020017f47726f756e640000000000000000000000000000000000000000000000000000815250815260200161018b81526020016000151581526020016040518060c00160405280605a63ffffffff168152602001605c63ffffffff168152602001605763ffffffff168152602001604b63ffffffff168152602001605563ffffffff168152602001604c63ffffffff16815250815250908060018154018082558091505090600182039060005260206000209060070201600090919290919091506000820151816000019080519060200190620059c29291906201d9fe565b50602082015181600101556040820151816002019080519060200190620059eb9291906201d9fe565b50606082015181600301908051906020019062005a0a9291906201d9fe565b506080820151816004015560a08201518160050160006101000a81548160ff02191690831515021790555060c08201518160060160008201518160000160006101000a81548163ffffffff021916908363ffffffff16021790555060208201518160000160046101000a81548163ffffffff021916908363ffffffff16021790555060408201518160000160086101000a81548163ffffffff021916908363ffffffff160217905550606082015181600001600c6101000a81548163ffffffff021916908363ffffffff16021790555060808201518160000160106101000a81548163ffffffff021916908363ffffffff16021790555060a08201518160000160146101000a81548163ffffffff021916908363ffffffff160217905550505050505060036040518060e001604052806040518060400160405280600a81526020017f4e69646f72616ee29982000000000000000000000000000000000000000000008152508152602001602081526020016040518060400160405280600681526020017f506f69736f6e000000000000000000000000000000000000000000000000000081525081526020016040518060400160405280600381526020017f6e616e0000000000000000000000000000000000000000000000000000000000815250815260200161027381526020016000151581526020016040518060c00160405280602e63ffffffff168152602001603963ffffffff168152602001602863ffffffff168152602001602863ffffffff168152602001602863ffffffff168152602001603263ffffffff1681525081525090806001815401808255809150509060018203906000526020600020906007020160009091929091909150600082015181600001908051906020019062005ca69291906201d9fe565b5060208201518160010155604082015181600201908051906020019062005ccf9291906201d9fe565b50606082015181600301908051906020019062005cee9291906201d9fe565b506080820151816004015560a08201518160050160006101000a81548160ff02191690831515021790555060c08201518160060160008201518160000160006101000a81548163ffffffff021916908363ffffffff16021790555060208201518160000160046101000a81548163ffffffff021916908363ffffffff16021790555060408201518160000160086101000a81548163ffffffff021916908363ffffffff160217905550606082015181600001600c6101000a81548163ffffffff021916908363ffffffff16021790555060808201518160000160106101000a81548163ffffffff021916908363ffffffff16021790555060a08201518160000160146101000a81548163ffffffff021916908363ffffffff160217905550505050505060036040518060e001604052806040518060400160405280600881526020017f4e69646f72696e6f0000000000000000000000000000000000000000000000008152508152602001602181526020016040518060400160405280600681526020017f506f69736f6e000000000000000000000000000000000000000000000000000081525081526020016040518060400160405280600381526020017f6e616e0000000000000000000000000000000000000000000000000000000000815250815260200161021781526020016000151581526020016040518060c00160405280603d63ffffffff168152602001604863ffffffff168152602001603963ffffffff168152602001603763ffffffff168152602001603763ffffffff168152602001604163ffffffff1681525081525090806001815401808255809150509060018203906000526020600020906007020160009091929091909150600082015181600001908051906020019062005f8a9291906201d9fe565b5060208201518160010155604082015181600201908051906020019062005fb39291906201d9fe565b50606082015181600301908051906020019062005fd29291906201d9fe565b506080820151816004015560a08201518160050160006101000a81548160ff02191690831515021790555060c08201518160060160008201518160000160006101000a81548163ffffffff021916908363ffffffff16021790555060208201518160000160046101000a81548163ffffffff021916908363ffffffff16021790555060408201518160000160086101000a81548163ffffffff021916908363ffffffff160217905550606082015181600001600c6101000a81548163ffffffff021916908363ffffffff16021790555060808201518160000160106101000a81548163ffffffff021916908363ffffffff16021790555060a08201518160000160146101000a81548163ffffffff021916908363ffffffff160217905550505050505060036040518060e001604052806040518060400160405280600881526020017f4e69646f6b696e670000000000000000000000000000000000000000000000008152508152602001602281526020016040518060400160405280600681526020017f506f69736f6e000000000000000000000000000000000000000000000000000081525081526020016040518060400160405280600681526020017f47726f756e640000000000000000000000000000000000000000000000000000815250815260200161018b81526020016000151581526020016040518060c00160405280605163ffffffff168152602001606663ffffffff168152602001604d63ffffffff168152602001605563ffffffff168152602001604b63ffffffff168152602001605563ffffffff168152508152509080600181540180825580915050906001820390600052602060002090600702016000909192909190915060008201518160000190805190602001906200626e9291906201d9fe565b50602082015181600101556040820151816002019080519060200190620062979291906201d9fe565b506060820151816003019080519060200190620062b69291906201d9fe565b506080820151816004015560a08201518160050160006101000a81548160ff02191690831515021790555060c08201518160060160008201518160000160006101000a81548163ffffffff021916908363ffffffff16021790555060208201518160000160046101000a81548163ffffffff021916908363ffffffff16021790555060408201518160000160086101000a81548163ffffffff021916908363ffffffff160217905550606082015181600001600c6101000a81548163ffffffff021916908363ffffffff16021790555060808201518160000160106101000a81548163ffffffff021916908363ffffffff16021790555060a08201518160000160146101000a81548163ffffffff021916908363ffffffff160217905550505050505060036040518060e001604052806040518060400160405280600881526020017f436c6566616972790000000000000000000000000000000000000000000000008152508152602001602381526020016040518060400160405280600581526020017f466169727900000000000000000000000000000000000000000000000000000081525081526020016040518060400160405280600381526020017f6e616e0000000000000000000000000000000000000000000000000000000000815250815260200161024181526020016000151581526020016040518060c00160405280604663ffffffff168152602001602d63ffffffff168152602001603063ffffffff168152602001603c63ffffffff168152602001604163ffffffff168152602001602363ffffffff16815250815250908060018154018082558091505090600182039060005260206000209060070201600090919290919091506000820151816000019080519060200190620065529291906201d9fe565b506020820151816001015560408201518160020190805190602001906200657b9291906201d9fe565b5060608201518160030190805190602001906200659a9291906201d9fe565b506080820151816004015560a08201518160050160006101000a81548160ff02191690831515021790555060c08201518160060160008201518160000160006101000a81548163ffffffff021916908363ffffffff16021790555060208201518160000160046101000a81548163ffffffff021916908363ffffffff16021790555060408201518160000160086101000a81548163ffffffff021916908363ffffffff160217905550606082015181600001600c6101000a81548163ffffffff021916908363ffffffff16021790555060808201518160000160106101000a81548163ffffffff021916908363ffffffff16021790555060a08201518160000160146101000a81548163ffffffff021916908363ffffffff160217905550505050505060036040518060e001604052806040518060400160405280600881526020017f436c656661626c650000000000000000000000000000000000000000000000008152508152602001602481526020016040518060400160405280600581526020017f466169727900000000000000000000000000000000000000000000000000000081525081526020016040518060400160405280600381526020017f6e616e000000000000000000000000000000000000000000000000000000000081525081526020016101a181526020016000151581526020016040518060c00160405280605f63ffffffff168152602001604663ffffffff168152602001604963ffffffff168152602001605f63ffffffff168152602001605a63ffffffff168152602001603c63ffffffff16815250815250908060018154018082558091505090600182039060005260206000209060070201600090919290919091506000820151816000019080519060200190620068369291906201d9fe565b506020820151816001015560408201518160020190805190602001906200685f9291906201d9fe565b5060608201518160030190805190602001906200687e9291906201d9fe565b506080820151816004015560a08201518160050160006101000a81548160ff02191690831515021790555060c08201518160060160008201518160000160006101000a81548163ffffffff021916908363ffffffff16021790555060208201518160000160046101000a81548163ffffffff021916908363ffffffff16021790555060408201518160000160086101000a81548163ffffffff021916908363ffffffff160217905550606082015181600001600c6101000a81548163ffffffff021916908363ffffffff16021790555060808201518160000160106101000a81548163ffffffff021916908363ffffffff16021790555060a08201518160000160146101000a81548163ffffffff021916908363ffffffff160217905550505050505060036040518060e001604052806040518060400160405280600681526020017f56756c70697800000000000000000000000000000000000000000000000000008152508152602001602581526020016040518060400160405280600481526020017f466972650000000000000000000000000000000000000000000000000000000081525081526020016040518060400160405280600381526020017f6e616e0000000000000000000000000000000000000000000000000000000000815250815260200161025981526020016000151581526020016040518060c00160405280602663ffffffff168152602001602963ffffffff168152602001602863ffffffff168152602001603263ffffffff168152602001604163ffffffff168152602001604163ffffffff1681525081525090806001815401808255809150509060018203906000526020600020906007020160009091929091909150600082015181600001908051906020019062006b1a9291906201d9fe565b5060208201518160010155604082015181600201908051906020019062006b439291906201d9fe565b50606082015181600301908051906020019062006b629291906201d9fe565b506080820151816004015560a08201518160050160006101000a81548160ff02191690831515021790555060c08201518160060160008201518160000160006101000a81548163ffffffff021916908363ffffffff16021790555060208201518160000160046101000a81548163ffffffff021916908363ffffffff16021790555060408201518160000160086101000a81548163ffffffff021916908363ffffffff160217905550606082015181600001600c6101000a81548163ffffffff021916908363ffffffff16021790555060808201518160000160106101000a81548163ffffffff021916908363ffffffff16021790555060a08201518160000160146101000a81548163ffffffff021916908363ffffffff160217905550505050505060036040518060e001604052806040518060400160405280600981526020017f4e696e6574616c657300000000000000000000000000000000000000000000008152508152602001602681526020016040518060400160405280600481526020017f466972650000000000000000000000000000000000000000000000000000000081525081526020016040518060400160405280600381526020017f6e616e0000000000000000000000000000000000000000000000000000000000815250815260200161018b81526020016000151581526020016040518060c00160405280604963ffffffff168152602001604c63ffffffff168152602001604b63ffffffff168152602001605163ffffffff168152602001606463ffffffff168152602001606463ffffffff1681525081525090806001815401808255809150509060018203906000526020600020906007020160009091929091909150600082015181600001908051906020019062006dfe9291906201d9fe565b5060208201518160010155604082015181600201908051906020019062006e279291906201d9fe565b50606082015181600301908051906020019062006e469291906201d9fe565b506080820151816004015560a08201518160050160006101000a81548160ff02191690831515021790555060c08201518160060160008201518160000160006101000a81548163ffffffff021916908363ffffffff16021790555060208201518160000160046101000a81548163ffffffff021916908363ffffffff16021790555060408201518160000160086101000a81548163ffffffff021916908363ffffffff160217905550606082015181600001600c6101000a81548163ffffffff021916908363ffffffff16021790555060808201518160000160106101000a81548163ffffffff021916908363ffffffff16021790555060a08201518160000160146101000a81548163ffffffff021916908363ffffffff160217905550505050505060036040518060e001604052806040518060400160405280600a81526020017f4a6967676c7970756666000000000000000000000000000000000000000000008152508152602001602781526020016040518060400160405280600681526020017f4e6f726d616c000000000000000000000000000000000000000000000000000081525081526020016040518060400160405280600581526020017f4661697279000000000000000000000000000000000000000000000000000000815250815260200161027681526020016000151581526020016040518060c00160405280607363ffffffff168152602001602d63ffffffff168152602001601463ffffffff168152602001602d63ffffffff168152602001601963ffffffff168152602001601463ffffffff16815250815250908060018154018082558091505090600182039060005260206000209060070201600090919290919091506000820151816000019080519060200190620070e29291906201d9fe565b506020820151816001015560408201518160020190805190602001906200710b9291906201d9fe565b5060608201518160030190805190602001906200712a9291906201d9fe565b506080820151816004015560a08201518160050160006101000a81548160ff02191690831515021790555060c08201518160060160008201518160000160006101000a81548163ffffffff021916908363ffffffff16021790555060208201518160000160046101000a81548163ffffffff021916908363ffffffff16021790555060408201518160000160086101000a81548163ffffffff021916908363ffffffff160217905550606082015181600001600c6101000a81548163ffffffff021916908363ffffffff16021790555060808201518160000160106101000a81548163ffffffff021916908363ffffffff16021790555060a08201518160000160146101000a81548163ffffffff021916908363ffffffff160217905550505050505060036040518060e001604052806040518060400160405280600a81526020017f576967676c7974756666000000000000000000000000000000000000000000008152508152602001602881526020016040518060400160405280600681526020017f4e6f726d616c000000000000000000000000000000000000000000000000000081525081526020016040518060400160405280600581526020017f466169727900000000000000000000000000000000000000000000000000000081525081526020016101d181526020016000151581526020016040518060c00160405280608c63ffffffff168152602001604663ffffffff168152602001602d63ffffffff168152602001605563ffffffff168152602001603263ffffffff168152602001602d63ffffffff16815250815250908060018154018082558091505090600182039060005260206000209060070201600090919290919091506000820151816000019080519060200190620073c69291906201d9fe565b50602082015181600101556040820151816002019080519060200190620073ef9291906201d9fe565b5060608201518160030190805190602001906200740e9291906201d9fe565b506080820151816004015560a08201518160050160006101000a81548160ff02191690831515021790555060c08201518160060160008201518160000160006101000a81548163ffffffff021916908363ffffffff16021790555060208201518160000160046101000a81548163ffffffff021916908363ffffffff16021790555060408201518160000160086101000a81548163ffffffff021916908363ffffffff160217905550606082015181600001600c6101000a81548163ffffffff021916908363ffffffff16021790555060808201518160000160106101000a81548163ffffffff021916908363ffffffff16021790555060a08201518160000160146101000a81548163ffffffff021916908363ffffffff160217905550505050505060036040518060e001604052806040518060400160405280600581526020017f5a756261740000000000000000000000000000000000000000000000000000008152508152602001602981526020016040518060400160405280600681526020017f506f69736f6e000000000000000000000000000000000000000000000000000081525081526020016040518060400160405280600681526020017f466c79696e670000000000000000000000000000000000000000000000000000815250815260200161028f81526020016000151581526020016040518060c00160405280602863ffffffff168152602001602d63ffffffff168152602001602363ffffffff168152602001601e63ffffffff168152602001602863ffffffff168152602001603763ffffffff16815250815250908060018154018082558091505090600182039060005260206000209060070201600090919290919091506000820151816000019080519060200190620076aa9291906201d9fe565b50602082015181600101556040820151816002019080519060200190620076d39291906201d9fe565b506060820151816003019080519060200190620076f29291906201d9fe565b506080820151816004015560a08201518160050160006101000a81548160ff02191690831515021790555060c08201518160060160008201518160000160006101000a81548163ffffffff021916908363ffffffff16021790555060208201518160000160046101000a81548163ffffffff021916908363ffffffff16021790555060408201518160000160086101000a81548163ffffffff021916908363ffffffff160217905550606082015181600001600c6101000a81548163ffffffff021916908363ffffffff16021790555060808201518160000160106101000a81548163ffffffff021916908363ffffffff16021790555060a08201518160000160146101000a81548163ffffffff021916908363ffffffff160217905550505050505060036040518060e001604052806040518060400160405280600681526020017f476f6c62617400000000000000000000000000000000000000000000000000008152508152602001602a81526020016040518060400160405280600681526020017f506f69736f6e000000000000000000000000000000000000000000000000000081525081526020016040518060400160405280600681526020017f466c79696e67000000000000000000000000000000000000000000000000000081525081526020016101bd81526020016000151581526020016040518060c00160405280604b63ffffffff168152602001605063ffffffff168152602001604663ffffffff168152602001604163ffffffff168152602001604b63ffffffff168152602001605a63ffffffff168152508152509080600181540180825580915050906001820390600052602060002090600702016000909192909190915060008201518160000190805190602001906200798e9291906201d9fe565b50602082015181600101556040820151816002019080519060200190620079b79291906201d9fe565b506060820151816003019080519060200190620079d69291906201d9fe565b506080820151816004015560a08201518160050160006101000a81548160ff02191690831515021790555060c08201518160060160008201518160000160006101000a81548163ffffffff021916908363ffffffff16021790555060208201518160000160046101000a81548163ffffffff021916908363ffffffff16021790555060408201518160000160086101000a81548163ffffffff021916908363ffffffff160217905550606082015181600001600c6101000a81548163ffffffff021916908363ffffffff16021790555060808201518160000160106101000a81548163ffffffff021916908363ffffffff16021790555060a08201518160000160146101000a81548163ffffffff021916908363ffffffff160217905550505050505060036040518060e001604052806040518060400160405280600681526020017f4f646469736800000000000000000000000000000000000000000000000000008152508152602001602b81526020016040518060400160405280600581526020017f477261737300000000000000000000000000000000000000000000000000000081525081526020016040518060400160405280600681526020017f506f69736f6e0000000000000000000000000000000000000000000000000000815250815260200161024481526020016000151581526020016040518060c00160405280602d63ffffffff168152602001603263ffffffff168152602001603763ffffffff168152602001604b63ffffffff168152602001604163ffffffff168152602001601e63ffffffff1681525081525090806001815401808255809150509060018203906000526020600020906007020160009091929091909150600082015181600001908051906020019062007c729291906201d9fe565b5060208201518160010155604082015181600201908051906020019062007c9b9291906201d9fe565b50606082015181600301908051906020019062007cba9291906201d9fe565b506080820151816004015560a08201518160050160006101000a81548160ff02191690831515021790555060c08201518160060160008201518160000160006101000a81548163ffffffff021916908363ffffffff16021790555060208201518160000160046101000a81548163ffffffff021916908363ffffffff16021790555060408201518160000160086101000a81548163ffffffff021916908363ffffffff160217905550606082015181600001600c6101000a81548163ffffffff021916908363ffffffff16021790555060808201518160000160106101000a81548163ffffffff021916908363ffffffff16021790555060a08201518160000160146101000a81548163ffffffff021916908363ffffffff160217905550505050505060036040518060e001604052806040518060400160405280600581526020017f476c6f6f6d0000000000000000000000000000000000000000000000000000008152508152602001602c81526020016040518060400160405280600581526020017f477261737300000000000000000000000000000000000000000000000000000081525081526020016040518060400160405280600681526020017f506f69736f6e000000000000000000000000000000000000000000000000000081525081526020016101f981526020016000151581526020016040518060c00160405280603c63ffffffff168152602001604163ffffffff168152602001604663ffffffff168152602001605563ffffffff168152602001604b63ffffffff168152602001602863ffffffff1681525081525090806001815401808255809150509060018203906000526020600020906007020160009091929091909150600082015181600001908051906020019062007f569291906201d9fe565b5060208201518160010155604082015181600201908051906020019062007f7f9291906201d9fe565b50606082015181600301908051906020019062007f9e9291906201d9fe565b506080820151816004015560a08201518160050160006101000a81548160ff02191690831515021790555060c08201518160060160008201518160000160006101000a81548163ffffffff021916908363ffffffff16021790555060208201518160000160046101000a81548163ffffffff021916908363ffffffff16021790555060408201518160000160086101000a81548163ffffffff021916908363ffffffff160217905550606082015181600001600c6101000a81548163ffffffff021916908363ffffffff16021790555060808201518160000160106101000a81548163ffffffff021916908363ffffffff16021790555060a08201518160000160146101000a81548163ffffffff021916908363ffffffff160217905550505050505060036040518060e001604052806040518060400160405280600981526020017f56696c65706c756d6500000000000000000000000000000000000000000000008152508152602001602d81526020016040518060400160405280600581526020017f477261737300000000000000000000000000000000000000000000000000000081525081526020016040518060400160405280600681526020017f506f69736f6e0000000000000000000000000000000000000000000000000000815250815260200161019a81526020016000151581526020016040518060c00160405280604b63ffffffff168152602001605063ffffffff168152602001605563ffffffff168152602001606e63ffffffff168152602001605a63ffffffff168152602001603263ffffffff168152508152509080600181540180825580915050906001820390600052602060002090600702016000909192909190915060008201518160000190805190602001906200823a9291906201d9fe565b50602082015181600101556040820151816002019080519060200190620082639291906201d9fe565b506060820151816003019080519060200190620082829291906201d9fe565b506080820151816004015560a08201518160050160006101000a81548160ff02191690831515021790555060c08201518160060160008201518160000160006101000a81548163ffffffff021916908363ffffffff16021790555060208201518160000160046101000a81548163ffffffff021916908363ffffffff16021790555060408201518160000160086101000a81548163ffffffff021916908363ffffffff160217905550606082015181600001600c6101000a81548163ffffffff021916908363ffffffff16021790555060808201518160000160106101000a81548163ffffffff021916908363ffffffff16021790555060a08201518160000160146101000a81548163ffffffff021916908363ffffffff160217905550505050505060036040518060e001604052806040518060400160405280600581526020017f50617261730000000000000000000000000000000000000000000000000000008152508152602001602e81526020016040518060400160405280600381526020017f427567000000000000000000000000000000000000000000000000000000000081525081526020016040518060400160405280600581526020017f4772617373000000000000000000000000000000000000000000000000000000815250815260200161026781526020016000151581526020016040518060c00160405280602363ffffffff168152602001604663ffffffff168152602001603763ffffffff168152602001602d63ffffffff168152602001603763ffffffff168152602001601963ffffffff168152508152509080600181540180825580915050906001820390600052602060002090600702016000909192909190915060008201518160000190805190602001906200851e9291906201d9fe565b50602082015181600101556040820151816002019080519060200190620085479291906201d9fe565b506060820151816003019080519060200190620085669291906201d9fe565b506080820151816004015560a08201518160050160006101000a81548160ff02191690831515021790555060c08201518160060160008201518160000160006101000a81548163ffffffff021916908363ffffffff16021790555060208201518160000160046101000a81548163ffffffff021916908363ffffffff16021790555060408201518160000160086101000a81548163ffffffff021916908363ffffffff160217905550606082015181600001600c6101000a81548163ffffffff021916908363ffffffff16021790555060808201518160000160106101000a81548163ffffffff021916908363ffffffff16021790555060a08201518160000160146101000a81548163ffffffff021916908363ffffffff160217905550505050505060036040518060e001604052806040518060400160405280600881526020017f50617261736563740000000000000000000000000000000000000000000000008152508152602001602f81526020016040518060400160405280600381526020017f427567000000000000000000000000000000000000000000000000000000000081525081526020016040518060400160405280600581526020017f477261737300000000000000000000000000000000000000000000000000000081525081526020016101ef81526020016000151581526020016040518060c00160405280603c63ffffffff168152602001605f63ffffffff168152602001605063ffffffff168152602001603c63ffffffff168152602001605063ffffffff168152602001601e63ffffffff16815250815250908060018154018082558091505090600182039060005260206000209060070201600090919290919091506000820151816000019080519060200190620088029291906201d9fe565b506020820151816001015560408201518160020190805190602001906200882b9291906201d9fe565b5060608201518160030190805190602001906200884a9291906201d9fe565b506080820151816004015560a08201518160050160006101000a81548160ff02191690831515021790555060c08201518160060160008201518160000160006101000a81548163ffffffff021916908363ffffffff16021790555060208201518160000160046101000a81548163ffffffff021916908363ffffffff16021790555060408201518160000160086101000a81548163ffffffff021916908363ffffffff160217905550606082015181600001600c6101000a81548163ffffffff021916908363ffffffff16021790555060808201518160000160106101000a81548163ffffffff021916908363ffffffff16021790555060a08201518160000160146101000a81548163ffffffff021916908363ffffffff160217905550505050505060036040518060e001604052806040518060400160405280600781526020017f56656e6f6e6174000000000000000000000000000000000000000000000000008152508152602001603081526020016040518060400160405280600381526020017f427567000000000000000000000000000000000000000000000000000000000081525081526020016040518060400160405280600681526020017f506f69736f6e0000000000000000000000000000000000000000000000000000815250815260200161025381526020016000151581526020016040518060c00160405280603c63ffffffff168152602001603763ffffffff168152602001603263ffffffff168152602001602863ffffffff168152602001603763ffffffff168152602001602d63ffffffff1681525081525090806001815401808255809150509060018203906000526020600020906007020160009091929091909150600082015181600001908051906020019062008ae69291906201d9fe565b5060208201518160010155604082015181600201908051906020019062008b0f9291906201d9fe565b50606082015181600301908051906020019062008b2e9291906201d9fe565b506080820151816004015560a08201518160050160006101000a81548160ff02191690831515021790555060c08201518160060160008201518160000160006101000a81548163ffffffff021916908363ffffffff16021790555060208201518160000160046101000a81548163ffffffff021916908363ffffffff16021790555060408201518160000160086101000a81548163ffffffff021916908363ffffffff160217905550606082015181600001600c6101000a81548163ffffffff021916908363ffffffff16021790555060808201518160000160106101000a81548163ffffffff021916908363ffffffff16021790555060a08201518160000160146101000a81548163ffffffff021916908363ffffffff160217905550505050505060036040518060e001604052806040518060400160405280600881526020017f56656e6f6d6f74680000000000000000000000000000000000000000000000008152508152602001603181526020016040518060400160405280600381526020017f427567000000000000000000000000000000000000000000000000000000000081525081526020016040518060400160405280600681526020017f506f69736f6e000000000000000000000000000000000000000000000000000081525081526020016101c281526020016000151581526020016040518060c00160405280604663ffffffff168152602001604163ffffffff168152602001603c63ffffffff168152602001605a63ffffffff168152602001604b63ffffffff168152602001605a63ffffffff1681525081525090806001815401808255809150509060018203906000526020600020906007020160009091929091909150600082015181600001908051906020019062008dca9291906201d9fe565b5060208201518160010155604082015181600201908051906020019062008df39291906201d9fe565b50606082015181600301908051906020019062008e129291906201d9fe565b506080820151816004015560a08201518160050160006101000a81548160ff02191690831515021790555060c08201518160060160008201518160000160006101000a81548163ffffffff021916908363ffffffff16021790555060208201518160000160046101000a81548163ffffffff021916908363ffffffff16021790555060408201518160000160086101000a81548163ffffffff021916908363ffffffff160217905550606082015181600001600c6101000a81548163ffffffff021916908363ffffffff16021790555060808201518160000160106101000a81548163ffffffff021916908363ffffffff16021790555060a08201518160000160146101000a81548163ffffffff021916908363ffffffff160217905550505050505060036040518060e001604052806040518060400160405280600781526020017f4469676c657474000000000000000000000000000000000000000000000000008152508152602001603281526020016040518060400160405280600681526020017f47726f756e64000000000000000000000000000000000000000000000000000081525081526020016040518060400160405280600381526020017f6e616e0000000000000000000000000000000000000000000000000000000000815250815260200161027b81526020016000151581526020016040518060c00160405280600a63ffffffff168152602001603763ffffffff168152602001601963ffffffff168152602001602363ffffffff168152602001602d63ffffffff168152602001605f63ffffffff16815250815250908060018154018082558091505090600182039060005260206000209060070201600090919290919091506000820151816000019080519060200190620090ae9291906201d9fe565b50602082015181600101556040820151816002019080519060200190620090d79291906201d9fe565b506060820151816003019080519060200190620090f69291906201d9fe565b506080820151816004015560a08201518160050160006101000a81548160ff02191690831515021790555060c08201518160060160008201518160000160006101000a81548163ffffffff021916908363ffffffff16021790555060208201518160000160046101000a81548163ffffffff021916908363ffffffff16021790555060408201518160000160086101000a81548163ffffffff021916908363ffffffff160217905550606082015181600001600c6101000a81548163ffffffff021916908363ffffffff16021790555060808201518160000160106101000a81548163ffffffff021916908363ffffffff16021790555060a08201518160000160146101000a81548163ffffffff021916908363ffffffff160217905550505050505060036040518060e001604052806040518060400160405280600781526020017f4475677472696f000000000000000000000000000000000000000000000000008152508152602001603381526020016040518060400160405280600681526020017f47726f756e64000000000000000000000000000000000000000000000000000081525081526020016040518060400160405280600381526020017f6e616e000000000000000000000000000000000000000000000000000000000081525081526020016101ef81526020016000151581526020016040518060c00160405280602363ffffffff168152602001605063ffffffff168152602001603263ffffffff168152602001603263ffffffff168152602001604663ffffffff168152602001607863ffffffff16815250815250908060018154018082558091505090600182039060005260206000209060070201600090919290919091506000820151816000019080519060200190620093929291906201d9fe565b50602082015181600101556040820151816002019080519060200190620093bb9291906201d9fe565b506060820151816003019080519060200190620093da9291906201d9fe565b506080820151816004015560a08201518160050160006101000a81548160ff02191690831515021790555060c08201518160060160008201518160000160006101000a81548163ffffffff021916908363ffffffff16021790555060208201518160000160046101000a81548163ffffffff021916908363ffffffff16021790555060408201518160000160086101000a81548163ffffffff021916908363ffffffff160217905550606082015181600001600c6101000a81548163ffffffff021916908363ffffffff16021790555060808201518160000160106101000a81548163ffffffff021916908363ffffffff16021790555060a08201518160000160146101000a81548163ffffffff021916908363ffffffff160217905550505050505060036040518060e001604052806040518060400160405280600681526020017f4d656f77746800000000000000000000000000000000000000000000000000008152508152602001603481526020016040518060400160405280600681526020017f4e6f726d616c000000000000000000000000000000000000000000000000000081525081526020016040518060400160405280600381526020017f6e616e0000000000000000000000000000000000000000000000000000000000815250815260200161026281526020016000151581526020016040518060c00160405280602863ffffffff168152602001602d63ffffffff168152602001602363ffffffff168152602001602863ffffffff168152602001602863ffffffff168152602001605a63ffffffff16815250815250908060018154018082558091505090600182039060005260206000209060070201600090919290919091506000820151816000019080519060200190620096769291906201d9fe565b506020820151816001015560408201518160020190805190602001906200969f9291906201d9fe565b506060820151816003019080519060200190620096be9291906201d9fe565b506080820151816004015560a08201518160050160006101000a81548160ff02191690831515021790555060c08201518160060160008201518160000160006101000a81548163ffffffff021916908363ffffffff16021790555060208201518160000160046101000a81548163ffffffff021916908363ffffffff16021790555060408201518160000160086101000a81548163ffffffff021916908363ffffffff160217905550606082015181600001600c6101000a81548163ffffffff021916908363ffffffff16021790555060808201518160000160106101000a81548163ffffffff021916908363ffffffff16021790555060a08201518160000160146101000a81548163ffffffff021916908363ffffffff160217905550505050505060036040518060e001604052806040518060400160405280600781526020017f5065727369616e000000000000000000000000000000000000000000000000008152508152602001603581526020016040518060400160405280600681526020017f4e6f726d616c000000000000000000000000000000000000000000000000000081525081526020016040518060400160405280600381526020017f6e616e000000000000000000000000000000000000000000000000000000000081525081526020016101cc81526020016000151581526020016040518060c00160405280604163ffffffff168152602001604663ffffffff168152602001603c63ffffffff168152602001604163ffffffff168152602001604163ffffffff168152602001607363ffffffff168152508152509080600181540180825580915050906001820390600052602060002090600702016000909192909190915060008201518160000190805190602001906200995a9291906201d9fe565b50602082015181600101556040820151816002019080519060200190620099839291906201d9fe565b506060820151816003019080519060200190620099a29291906201d9fe565b506080820151816004015560a08201518160050160006101000a81548160ff02191690831515021790555060c08201518160060160008201518160000160006101000a81548163ffffffff021916908363ffffffff16021790555060208201518160000160046101000a81548163ffffffff021916908363ffffffff16021790555060408201518160000160086101000a81548163ffffffff021916908363ffffffff160217905550606082015181600001600c6101000a81548163ffffffff021916908363ffffffff16021790555060808201518160000160106101000a81548163ffffffff021916908363ffffffff16021790555060a08201518160000160146101000a81548163ffffffff021916908363ffffffff160217905550505050505060036040518060e001604052806040518060400160405280600781526020017f5073796475636b000000000000000000000000000000000000000000000000008152508152602001603681526020016040518060400160405280600581526020017f576174657200000000000000000000000000000000000000000000000000000081525081526020016040518060400160405280600381526020017f6e616e0000000000000000000000000000000000000000000000000000000000815250815260200161024481526020016000151581526020016040518060c00160405280603263ffffffff168152602001603463ffffffff168152602001603063ffffffff168152602001604163ffffffff168152602001603263ffffffff168152602001603763ffffffff1681525081525090806001815401808255809150509060018203906000526020600020906007020160009091929091909150600082015181600001908051906020019062009c3e9291906201d9fe565b5060208201518160010155604082015181600201908051906020019062009c679291906201d9fe565b50606082015181600301908051906020019062009c869291906201d9fe565b506080820151816004015560a08201518160050160006101000a81548160ff02191690831515021790555060c08201518160060160008201518160000160006101000a81548163ffffffff021916908363ffffffff16021790555060208201518160000160046101000a81548163ffffffff021916908363ffffffff16021790555060408201518160000160086101000a81548163ffffffff021916908363ffffffff160217905550606082015181600001600c6101000a81548163ffffffff021916908363ffffffff16021790555060808201518160000160106101000a81548163ffffffff021916908363ffffffff16021790555060a08201518160000160146101000a81548163ffffffff021916908363ffffffff160217905550505050505060036040518060e001604052806040518060400160405280600781526020017f476f6c6475636b000000000000000000000000000000000000000000000000008152508152602001603781526020016040518060400160405280600581526020017f576174657200000000000000000000000000000000000000000000000000000081525081526020016040518060400160405280600381526020017f6e616e0000000000000000000000000000000000000000000000000000000000815250815260200161019081526020016000151581526020016040518060c00160405280605063ffffffff168152602001605263ffffffff168152602001604e63ffffffff168152602001605f63ffffffff168152602001605063ffffffff168152602001605563ffffffff1681525081525090806001815401808255809150509060018203906000526020600020906007020160009091929091909150600082015181600001908051906020019062009f229291906201d9fe565b5060208201518160010155604082015181600201908051906020019062009f4b9291906201d9fe565b50606082015181600301908051906020019062009f6a9291906201d9fe565b506080820151816004015560a08201518160050160006101000a81548160ff02191690831515021790555060c08201518160060160008201518160000160006101000a81548163ffffffff021916908363ffffffff16021790555060208201518160000160046101000a81548163ffffffff021916908363ffffffff16021790555060408201518160000160086101000a81548163ffffffff021916908363ffffffff160217905550606082015181600001600c6101000a81548163ffffffff021916908363ffffffff16021790555060808201518160000160106101000a81548163ffffffff021916908363ffffffff16021790555060a08201518160000160146101000a81548163ffffffff021916908363ffffffff160217905550505050505060036040518060e001604052806040518060400160405280600681526020017f4d616e6b657900000000000000000000000000000000000000000000000000008152508152602001603881526020016040518060400160405280600881526020017f4669676874696e6700000000000000000000000000000000000000000000000081525081526020016040518060400160405280600381526020017f6e616e0000000000000000000000000000000000000000000000000000000000815250815260200161025381526020016000151581526020016040518060c00160405280602863ffffffff168152602001605063ffffffff168152602001602363ffffffff168152602001602363ffffffff168152602001602d63ffffffff168152602001604663ffffffff168152508152509080600181540180825580915050906001820390600052602060002090600702016000909192909190915060008201518160000190805190602001906200a2069291906201d9fe565b506020820151816001015560408201518160020190805190602001906200a22f9291906201d9fe565b5060608201518160030190805190602001906200a24e9291906201d9fe565b506080820151816004015560a08201518160050160006101000a81548160ff02191690831515021790555060c08201518160060160008201518160000160006101000a81548163ffffffff021916908363ffffffff16021790555060208201518160000160046101000a81548163ffffffff021916908363ffffffff16021790555060408201518160000160086101000a81548163ffffffff021916908363ffffffff160217905550606082015181600001600c6101000a81548163ffffffff021916908363ffffffff16021790555060808201518160000160106101000a81548163ffffffff021916908363ffffffff16021790555060a08201518160000160146101000a81548163ffffffff021916908363ffffffff160217905550505050505060036040518060e001604052806040518060400160405280600881526020017f5072696d656170650000000000000000000000000000000000000000000000008152508152602001603981526020016040518060400160405280600881526020017f4669676874696e6700000000000000000000000000000000000000000000000081525081526020016040518060400160405280600381526020017f6e616e000000000000000000000000000000000000000000000000000000000081525081526020016101bd81526020016000151581526020016040518060c00160405280604163ffffffff168152602001606963ffffffff168152602001603c63ffffffff168152602001603c63ffffffff168152602001604663ffffffff168152602001605f63ffffffff168152508152509080600181540180825580915050906001820390600052602060002090600702016000909192909190915060008201518160000190805190602001906200a4ea9291906201d9fe565b506020820151816001015560408201518160020190805190602001906200a5139291906201d9fe565b5060608201518160030190805190602001906200a5329291906201d9fe565b506080820151816004015560a08201518160050160006101000a81548160ff02191690831515021790555060c08201518160060160008201518160000160006101000a81548163ffffffff021916908363ffffffff16021790555060208201518160000160046101000a81548163ffffffff021916908363ffffffff16021790555060408201518160000160086101000a81548163ffffffff021916908363ffffffff160217905550606082015181600001600c6101000a81548163ffffffff021916908363ffffffff16021790555060808201518160000160106101000a81548163ffffffff021916908363ffffffff16021790555060a08201518160000160146101000a81548163ffffffff021916908363ffffffff160217905550505050505060036040518060e001604052806040518060400160405280600981526020017f47726f776c6974686500000000000000000000000000000000000000000000008152508152602001603a81526020016040518060400160405280600481526020017f466972650000000000000000000000000000000000000000000000000000000081525081526020016040518060400160405280600381526020017f6e616e0000000000000000000000000000000000000000000000000000000000815250815260200161022681526020016000151581526020016040518060c00160405280603763ffffffff168152602001604663ffffffff168152602001602d63ffffffff168152602001604663ffffffff168152602001603263ffffffff168152602001603c63ffffffff168152508152509080600181540180825580915050906001820390600052602060002090600702016000909192909190915060008201518160000190805190602001906200a7ce9291906201d9fe565b506020820151816001015560408201518160020190805190602001906200a7f79291906201d9fe565b5060608201518160030190805190602001906200a8169291906201d9fe565b506080820151816004015560a08201518160050160006101000a81548160ff02191690831515021790555060c08201518160060160008201518160000160006101000a81548163ffffffff021916908363ffffffff16021790555060208201518160000160046101000a81548163ffffffff021916908363ffffffff16021790555060408201518160000160086101000a81548163ffffffff021916908363ffffffff160217905550606082015181600001600c6101000a81548163ffffffff021916908363ffffffff16021790555060808201518160000160106101000a81548163ffffffff021916908363ffffffff16021790555060a08201518160000160146101000a81548163ffffffff021916908363ffffffff160217905550505050505060036040518060e001604052806040518060400160405280600881526020017f417263616e696e650000000000000000000000000000000000000000000000008152508152602001603b81526020016040518060400160405280600481526020017f466972650000000000000000000000000000000000000000000000000000000081525081526020016040518060400160405280600381526020017f6e616e0000000000000000000000000000000000000000000000000000000000815250815260200161015981526020016000151581526020016040518060c00160405280605a63ffffffff168152602001606e63ffffffff168152602001605063ffffffff168152602001606463ffffffff168152602001605063ffffffff168152602001605f63ffffffff168152508152509080600181540180825580915050906001820390600052602060002090600702016000909192909190915060008201518160000190805190602001906200aab29291906201d9fe565b506020820151816001015560408201518160020190805190602001906200aadb9291906201d9fe565b5060608201518160030190805190602001906200aafa9291906201d9fe565b506080820151816004015560a08201518160050160006101000a81548160ff02191690831515021790555060c08201518160060160008201518160000160006101000a81548163ffffffff021916908363ffffffff16021790555060208201518160000160046101000a81548163ffffffff021916908363ffffffff16021790555060408201518160000160086101000a81548163ffffffff021916908363ffffffff160217905550606082015181600001600c6101000a81548163ffffffff021916908363ffffffff16021790555060808201518160000160106101000a81548163ffffffff021916908363ffffffff16021790555060a08201518160000160146101000a81548163ffffffff021916908363ffffffff160217905550505050505060036040518060e001604052806040518060400160405280600781526020017f506f6c69776167000000000000000000000000000000000000000000000000008152508152602001603c81526020016040518060400160405280600581526020017f576174657200000000000000000000000000000000000000000000000000000081525081526020016040518060400160405280600381526020017f6e616e0000000000000000000000000000000000000000000000000000000000815250815260200161025881526020016000151581526020016040518060c00160405280602863ffffffff168152602001603263ffffffff168152602001602863ffffffff168152602001602863ffffffff168152602001602863ffffffff168152602001605a63ffffffff168152508152509080600181540180825580915050906001820390600052602060002090600702016000909192909190915060008201518160000190805190602001906200ad969291906201d9fe565b506020820151816001015560408201518160020190805190602001906200adbf9291906201d9fe565b5060608201518160030190805190602001906200adde9291906201d9fe565b506080820151816004015560a08201518160050160006101000a81548160ff02191690831515021790555060c08201518160060160008201518160000160006101000a81548163ffffffff021916908363ffffffff16021790555060208201518160000160046101000a81548163ffffffff021916908363ffffffff16021790555060408201518160000160086101000a81548163ffffffff021916908363ffffffff160217905550606082015181600001600c6101000a81548163ffffffff021916908363ffffffff16021790555060808201518160000160106101000a81548163ffffffff021916908363ffffffff16021790555060a08201518160000160146101000a81548163ffffffff021916908363ffffffff160217905550505050505060036040518060e001604052806040518060400160405280600981526020017f506f6c69776869726c00000000000000000000000000000000000000000000008152508152602001603d81526020016040518060400160405280600581526020017f576174657200000000000000000000000000000000000000000000000000000081525081526020016040518060400160405280600381526020017f6e616e0000000000000000000000000000000000000000000000000000000000815250815260200161020381526020016000151581526020016040518060c00160405280604163ffffffff168152602001604163ffffffff168152602001604163ffffffff168152602001603263ffffffff168152602001603263ffffffff168152602001605a63ffffffff168152508152509080600181540180825580915050906001820390600052602060002090600702016000909192909190915060008201518160000190805190602001906200b07a9291906201d9fe565b506020820151816001015560408201518160020190805190602001906200b0a39291906201d9fe565b5060608201518160030190805190602001906200b0c29291906201d9fe565b506080820151816004015560a08201518160050160006101000a81548160ff02191690831515021790555060c08201518160060160008201518160000160006101000a81548163ffffffff021916908363ffffffff16021790555060208201518160000160046101000a81548163ffffffff021916908363ffffffff16021790555060408201518160000160086101000a81548163ffffffff021916908363ffffffff160217905550606082015181600001600c6101000a81548163ffffffff021916908363ffffffff16021790555060808201518160000160106101000a81548163ffffffff021916908363ffffffff16021790555060a08201518160000160146101000a81548163ffffffff021916908363ffffffff160217905550505050505060036040518060e001604052806040518060400160405280600981526020017f506f6c69777261746800000000000000000000000000000000000000000000008152508152602001603e81526020016040518060400160405280600581526020017f576174657200000000000000000000000000000000000000000000000000000081525081526020016040518060400160405280600881526020017f4669676874696e67000000000000000000000000000000000000000000000000815250815260200161018681526020016000151581526020016040518060c00160405280605a63ffffffff168152602001605f63ffffffff168152602001605f63ffffffff168152602001604663ffffffff168152602001605a63ffffffff168152602001604663ffffffff168152508152509080600181540180825580915050906001820390600052602060002090600702016000909192909190915060008201518160000190805190602001906200b35e9291906201d9fe565b506020820151816001015560408201518160020190805190602001906200b3879291906201d9fe565b5060608201518160030190805190602001906200b3a69291906201d9fe565b506080820151816004015560a08201518160050160006101000a81548160ff02191690831515021790555060c08201518160060160008201518160000160006101000a81548163ffffffff021916908363ffffffff16021790555060208201518160000160046101000a81548163ffffffff021916908363ffffffff16021790555060408201518160000160086101000a81548163ffffffff021916908363ffffffff160217905550606082015181600001600c6101000a81548163ffffffff021916908363ffffffff16021790555060808201518160000160106101000a81548163ffffffff021916908363ffffffff16021790555060a08201518160000160146101000a81548163ffffffff021916908363ffffffff160217905550505050505060036040518060e001604052806040518060400160405280600481526020017f41627261000000000000000000000000000000000000000000000000000000008152508152602001603f81526020016040518060400160405280600781526020017f507379636869630000000000000000000000000000000000000000000000000081525081526020016040518060400160405280600381526020017f6e616e0000000000000000000000000000000000000000000000000000000000815250815260200161024e81526020016000151581526020016040518060c00160405280601963ffffffff168152602001601463ffffffff168152602001600f63ffffffff168152602001606963ffffffff168152602001603763ffffffff168152602001605a63ffffffff168152508152509080600181540180825580915050906001820390600052602060002090600702016000909192909190915060008201518160000190805190602001906200b6429291906201d9fe565b506020820151816001015560408201518160020190805190602001906200b66b9291906201d9fe565b5060608201518160030190805190602001906200b68a9291906201d9fe565b506080820151816004015560a08201518160050160006101000a81548160ff02191690831515021790555060c08201518160060160008201518160000160006101000a81548163ffffffff021916908363ffffffff16021790555060208201518160000160046101000a81548163ffffffff021916908363ffffffff16021790555060408201518160000160086101000a81548163ffffffff021916908363ffffffff160217905550606082015181600001600c6101000a81548163ffffffff021916908363ffffffff16021790555060808201518160000160106101000a81548163ffffffff021916908363ffffffff16021790555060a08201518160000160146101000a81548163ffffffff021916908363ffffffff160217905550505050505060036040518060e001604052806040518060400160405280600781526020017f4b616461627261000000000000000000000000000000000000000000000000008152508152602001604081526020016040518060400160405280600781526020017f507379636869630000000000000000000000000000000000000000000000000081525081526020016040518060400160405280600381526020017f6e616e000000000000000000000000000000000000000000000000000000000081525081526020016101f481526020016000151581526020016040518060c00160405280602863ffffffff168152602001602363ffffffff168152602001601e63ffffffff168152602001607863ffffffff168152602001604663ffffffff168152602001606963ffffffff168152508152509080600181540180825580915050906001820390600052602060002090600702016000909192909190915060008201518160000190805190602001906200b9269291906201d9fe565b506020820151816001015560408201518160020190805190602001906200b94f9291906201d9fe565b5060608201518160030190805190602001906200b96e9291906201d9fe565b506080820151816004015560a08201518160050160006101000a81548160ff02191690831515021790555060c08201518160060160008201518160000160006101000a81548163ffffffff021916908363ffffffff16021790555060208201518160000160046101000a81548163ffffffff021916908363ffffffff16021790555060408201518160000160086101000a81548163ffffffff021916908363ffffffff160217905550606082015181600001600c6101000a81548163ffffffff021916908363ffffffff16021790555060808201518160000160106101000a81548163ffffffff021916908363ffffffff16021790555060a08201518160000160146101000a81548163ffffffff021916908363ffffffff160217905550505050505060036040518060e001604052806040518060400160405280600881526020017f416c616b617a616d0000000000000000000000000000000000000000000000008152508152602001604181526020016040518060400160405280600781526020017f507379636869630000000000000000000000000000000000000000000000000081525081526020016040518060400160405280600381526020017f6e616e0000000000000000000000000000000000000000000000000000000000815250815260200161019081526020016000151581526020016040518060c00160405280603763ffffffff168152602001603263ffffffff168152602001602d63ffffffff168152602001608763ffffffff168152602001605f63ffffffff168152602001607863ffffffff168152508152509080600181540180825580915050906001820390600052602060002090600702016000909192909190915060008201518160000190805190602001906200bc0a9291906201d9fe565b506020820151816001015560408201518160020190805190602001906200bc339291906201d9fe565b5060608201518160030190805190602001906200bc529291906201d9fe565b506080820151816004015560a08201518160050160006101000a81548160ff02191690831515021790555060c08201518160060160008201518160000160006101000a81548163ffffffff021916908363ffffffff16021790555060208201518160000160046101000a81548163ffffffff021916908363ffffffff16021790555060408201518160000160086101000a81548163ffffffff021916908363ffffffff160217905550606082015181600001600c6101000a81548163ffffffff021916908363ffffffff16021790555060808201518160000160106101000a81548163ffffffff021916908363ffffffff16021790555060a08201518160000160146101000a81548163ffffffff021916908363ffffffff160217905550505050505060036040518060e001604052806040518060400160405280600681526020017f4d6163686f7000000000000000000000000000000000000000000000000000008152508152602001604281526020016040518060400160405280600881526020017f4669676874696e6700000000000000000000000000000000000000000000000081525081526020016040518060400160405280600381526020017f6e616e0000000000000000000000000000000000000000000000000000000000815250815260200161025381526020016000151581526020016040518060c00160405280604663ffffffff168152602001605063ffffffff168152602001603263ffffffff168152602001602363ffffffff168152602001602363ffffffff168152602001602363ffffffff168152508152509080600181540180825580915050906001820390600052602060002090600702016000909192909190915060008201518160000190805190602001906200beee9291906201d9fe565b506020820151816001015560408201518160020190805190602001906200bf179291906201d9fe565b5060608201518160030190805190602001906200bf369291906201d9fe565b506080820151816004015560a08201518160050160006101000a81548160ff02191690831515021790555060c08201518160060160008201518160000160006101000a81548163ffffffff021916908363ffffffff16021790555060208201518160000160046101000a81548163ffffffff021916908363ffffffff16021790555060408201518160000160086101000a81548163ffffffff021916908363ffffffff160217905550606082015181600001600c6101000a81548163ffffffff021916908363ffffffff16021790555060808201518160000160106101000a81548163ffffffff021916908363ffffffff16021790555060a08201518160000160146101000a81548163ffffffff021916908363ffffffff160217905550505050505060036040518060e001604052806040518060400160405280600781526020017f4d6163686f6b65000000000000000000000000000000000000000000000000008152508152602001604381526020016040518060400160405280600881526020017f4669676874696e6700000000000000000000000000000000000000000000000081525081526020016040518060400160405280600381526020017f6e616e000000000000000000000000000000000000000000000000000000000081525081526020016101ef81526020016000151581526020016040518060c00160405280605063ffffffff168152602001606463ffffffff168152602001604663ffffffff168152602001603263ffffffff168152602001603c63ffffffff168152602001602d63ffffffff168152508152509080600181540180825580915050906001820390600052602060002090600702016000909192909190915060008201518160000190805190602001906200c1d29291906201d9fe565b506020820151816001015560408201518160020190805190602001906200c1fb9291906201d9fe565b5060608201518160030190805190602001906200c21a9291906201d9fe565b506080820151816004015560a08201518160050160006101000a81548160ff02191690831515021790555060c08201518160060160008201518160000160006101000a81548163ffffffff021916908363ffffffff16021790555060208201518160000160046101000a81548163ffffffff021916908363ffffffff16021790555060408201518160000160086101000a81548163ffffffff021916908363ffffffff160217905550606082015181600001600c6101000a81548163ffffffff021916908363ffffffff16021790555060808201518160000160106101000a81548163ffffffff021916908363ffffffff16021790555060a08201518160000160146101000a81548163ffffffff021916908363ffffffff160217905550505050505060036040518060e001604052806040518060400160405280600781526020017f4d616368616d70000000000000000000000000000000000000000000000000008152508152602001604481526020016040518060400160405280600881526020017f4669676874696e6700000000000000000000000000000000000000000000000081525081526020016040518060400160405280600381526020017f6e616e0000000000000000000000000000000000000000000000000000000000815250815260200161018b81526020016000151581526020016040518060c00160405280605a63ffffffff168152602001608263ffffffff168152602001605063ffffffff168152602001604163ffffffff168152602001605563ffffffff168152602001603763ffffffff168152508152509080600181540180825580915050906001820390600052602060002090600702016000909192909190915060008201518160000190805190602001906200c4b69291906201d9fe565b506020820151816001015560408201518160020190805190602001906200c4df9291906201d9fe565b5060608201518160030190805190602001906200c4fe9291906201d9fe565b506080820151816004015560a08201518160050160006101000a81548160ff02191690831515021790555060c08201518160060160008201518160000160006101000a81548163ffffffff021916908363ffffffff16021790555060208201518160000160046101000a81548163ffffffff021916908363ffffffff16021790555060408201518160000160086101000a81548163ffffffff021916908363ffffffff160217905550606082015181600001600c6101000a81548163ffffffff021916908363ffffffff16021790555060808201518160000160106101000a81548163ffffffff021916908363ffffffff16021790555060a08201518160000160146101000a81548163ffffffff021916908363ffffffff160217905550505050505060036040518060e001604052806040518060400160405280600a81526020017f42656c6c7370726f7574000000000000000000000000000000000000000000008152508152602001604581526020016040518060400160405280600581526020017f477261737300000000000000000000000000000000000000000000000000000081525081526020016040518060400160405280600681526020017f506f69736f6e0000000000000000000000000000000000000000000000000000815250815260200161025881526020016000151581526020016040518060c00160405280603263ffffffff168152602001604b63ffffffff168152602001602363ffffffff168152602001604663ffffffff168152602001601e63ffffffff168152602001602863ffffffff168152508152509080600181540180825580915050906001820390600052602060002090600702016000909192909190915060008201518160000190805190602001906200c79a9291906201d9fe565b506020820151816001015560408201518160020190805190602001906200c7c39291906201d9fe565b5060608201518160030190805190602001906200c7e29291906201d9fe565b506080820151816004015560a08201518160050160006101000a81548160ff02191690831515021790555060c08201518160060160008201518160000160006101000a81548163ffffffff021916908363ffffffff16021790555060208201518160000160046101000a81548163ffffffff021916908363ffffffff16021790555060408201518160000160086101000a81548163ffffffff021916908363ffffffff160217905550606082015181600001600c6101000a81548163ffffffff021916908363ffffffff16021790555060808201518160000160106101000a81548163ffffffff021916908363ffffffff16021790555060a08201518160000160146101000a81548163ffffffff021916908363ffffffff160217905550505050505060036040518060e001604052806040518060400160405280600a81526020017f57656570696e62656c6c000000000000000000000000000000000000000000008152508152602001604681526020016040518060400160405280600581526020017f477261737300000000000000000000000000000000000000000000000000000081525081526020016040518060400160405280600681526020017f506f69736f6e000000000000000000000000000000000000000000000000000081525081526020016101fe81526020016000151581526020016040518060c00160405280604163ffffffff168152602001605a63ffffffff168152602001603263ffffffff168152602001605563ffffffff168152602001602d63ffffffff168152602001603763ffffffff168152508152509080600181540180825580915050906001820390600052602060002090600702016000909192909190915060008201518160000190805190602001906200ca7e9291906201d9fe565b506020820151816001015560408201518160020190805190602001906200caa79291906201d9fe565b5060608201518160030190805190602001906200cac69291906201d9fe565b506080820151816004015560a08201518160050160006101000a81548160ff02191690831515021790555060c08201518160060160008201518160000160006101000a81548163ffffffff021916908363ffffffff16021790555060208201518160000160046101000a81548163ffffffff021916908363ffffffff16021790555060408201518160000160086101000a81548163ffffffff021916908363ffffffff160217905550606082015181600001600c6101000a81548163ffffffff021916908363ffffffff16021790555060808201518160000160106101000a81548163ffffffff021916908363ffffffff16021790555060a08201518160000160146101000a81548163ffffffff021916908363ffffffff160217905550505050505060036040518060e001604052806040518060400160405280600a81526020017f5669637472656562656c000000000000000000000000000000000000000000008152508152602001604781526020016040518060400160405280600581526020017f477261737300000000000000000000000000000000000000000000000000000081525081526020016040518060400160405280600681526020017f506f69736f6e0000000000000000000000000000000000000000000000000000815250815260200161019a81526020016000151581526020016040518060c00160405280605063ffffffff168152602001606963ffffffff168152602001604163ffffffff168152602001606463ffffffff168152602001604663ffffffff168152602001604663ffffffff168152508152509080600181540180825580915050906001820390600052602060002090600702016000909192909190915060008201518160000190805190602001906200cd629291906201d9fe565b506020820151816001015560408201518160020190805190602001906200cd8b9291906201d9fe565b5060608201518160030190805190602001906200cdaa9291906201d9fe565b506080820151816004015560a08201518160050160006101000a81548160ff02191690831515021790555060c08201518160060160008201518160000160006101000a81548163ffffffff021916908363ffffffff16021790555060208201518160000160046101000a81548163ffffffff021916908363ffffffff16021790555060408201518160000160086101000a81548163ffffffff021916908363ffffffff160217905550606082015181600001600c6101000a81548163ffffffff021916908363ffffffff16021790555060808201518160000160106101000a81548163ffffffff021916908363ffffffff16021790555060a08201518160000160146101000a81548163ffffffff021916908363ffffffff160217905550505050505060036040518060e001604052806040518060400160405280600981526020017f54656e7461636f6f6c00000000000000000000000000000000000000000000008152508152602001604881526020016040518060400160405280600581526020017f576174657200000000000000000000000000000000000000000000000000000081525081526020016040518060400160405280600681526020017f506f69736f6e0000000000000000000000000000000000000000000000000000815250815260200161023581526020016000151581526020016040518060c00160405280602863ffffffff168152602001602863ffffffff168152602001602363ffffffff168152602001603263ffffffff168152602001606463ffffffff168152602001604663ffffffff168152508152509080600181540180825580915050906001820390600052602060002090600702016000909192909190915060008201518160000190805190602001906200d0469291906201d9fe565b506020820151816001015560408201518160020190805190602001906200d06f9291906201d9fe565b5060608201518160030190805190602001906200d08e9291906201d9fe565b506080820151816004015560a08201518160050160006101000a81548160ff02191690831515021790555060c08201518160060160008201518160000160006101000a81548163ffffffff021916908363ffffffff16021790555060208201518160000160046101000a81548163ffffffff021916908363ffffffff16021790555060408201518160000160086101000a81548163ffffffff021916908363ffffffff160217905550606082015181600001600c6101000a81548163ffffffff021916908363ffffffff16021790555060808201518160000160106101000a81548163ffffffff021916908363ffffffff16021790555060a08201518160000160146101000a81548163ffffffff021916908363ffffffff160217905550505050505060036040518060e001604052806040518060400160405280600a81526020017f54656e7461637275656c000000000000000000000000000000000000000000008152508152602001604981526020016040518060400160405280600581526020017f576174657200000000000000000000000000000000000000000000000000000081525081526020016040518060400160405280600681526020017f506f69736f6e0000000000000000000000000000000000000000000000000000815250815260200161018181526020016000151581526020016040518060c00160405280605063ffffffff168152602001604663ffffffff168152602001604163ffffffff168152602001605063ffffffff168152602001607863ffffffff168152602001606463ffffffff168152508152509080600181540180825580915050906001820390600052602060002090600702016000909192909190915060008201518160000190805190602001906200d32a9291906201d9fe565b506020820151816001015560408201518160020190805190602001906200d3539291906201d9fe565b5060608201518160030190805190602001906200d3729291906201d9fe565b506080820151816004015560a08201518160050160006101000a81548160ff02191690831515021790555060c08201518160060160008201518160000160006101000a81548163ffffffff021916908363ffffffff16021790555060208201518160000160046101000a81548163ffffffff021916908363ffffffff16021790555060408201518160000160086101000a81548163ffffffff021916908363ffffffff160217905550606082015181600001600c6101000a81548163ffffffff021916908363ffffffff16021790555060808201518160000160106101000a81548163ffffffff021916908363ffffffff16021790555060a08201518160000160146101000a81548163ffffffff021916908363ffffffff160217905550505050505060036040518060e001604052806040518060400160405280600781526020017f47656f64756465000000000000000000000000000000000000000000000000008152508152602001604a81526020016040518060400160405280600481526020017f526f636b0000000000000000000000000000000000000000000000000000000081525081526020016040518060400160405280600681526020017f47726f756e640000000000000000000000000000000000000000000000000000815250815260200161025881526020016000151581526020016040518060c00160405280602863ffffffff168152602001605063ffffffff168152602001606463ffffffff168152602001601e63ffffffff168152602001601e63ffffffff168152602001601463ffffffff168152508152509080600181540180825580915050906001820390600052602060002090600702016000909192909190915060008201518160000190805190602001906200d60e9291906201d9fe565b506020820151816001015560408201518160020190805190602001906200d6379291906201d9fe565b5060608201518160030190805190602001906200d6569291906201d9fe565b506080820151816004015560a08201518160050160006101000a81548160ff02191690831515021790555060c08201518160060160008201518160000160006101000a81548163ffffffff021916908363ffffffff16021790555060208201518160000160046101000a81548163ffffffff021916908363ffffffff16021790555060408201518160000160086101000a81548163ffffffff021916908363ffffffff160217905550606082015181600001600c6101000a81548163ffffffff021916908363ffffffff16021790555060808201518160000160106101000a81548163ffffffff021916908363ffffffff16021790555060a08201518160000160146101000a81548163ffffffff021916908363ffffffff160217905550505050505060036040518060e001604052806040518060400160405280600881526020017f47726176656c65720000000000000000000000000000000000000000000000008152508152602001604b81526020016040518060400160405280600481526020017f526f636b0000000000000000000000000000000000000000000000000000000081525081526020016040518060400160405280600681526020017f47726f756e64000000000000000000000000000000000000000000000000000081525081526020016101fe81526020016000151581526020016040518060c00160405280603763ffffffff168152602001605f63ffffffff168152602001607363ffffffff168152602001602d63ffffffff168152602001602d63ffffffff168152602001602363ffffffff168152508152509080600181540180825580915050906001820390600052602060002090600702016000909192909190915060008201518160000190805190602001906200d8f29291906201d9fe565b506020820151816001015560408201518160020190805190602001906200d91b9291906201d9fe565b5060608201518160030190805190602001906200d93a9291906201d9fe565b506080820151816004015560a08201518160050160006101000a81548160ff02191690831515021790555060c08201518160060160008201518160000160006101000a81548163ffffffff021916908363ffffffff16021790555060208201518160000160046101000a81548163ffffffff021916908363ffffffff16021790555060408201518160000160086101000a81548163ffffffff021916908363ffffffff160217905550606082015181600001600c6101000a81548163ffffffff021916908363ffffffff16021790555060808201518160000160106101000a81548163ffffffff021916908363ffffffff16021790555060a08201518160000160146101000a81548163ffffffff021916908363ffffffff160217905550505050505060036040518060e001604052806040518060400160405280600581526020017f476f6c656d0000000000000000000000000000000000000000000000000000008152508152602001604c81526020016040518060400160405280600481526020017f526f636b0000000000000000000000000000000000000000000000000000000081525081526020016040518060400160405280600681526020017f47726f756e640000000000000000000000000000000000000000000000000000815250815260200161019581526020016000151581526020016040518060c00160405280605063ffffffff168152602001607863ffffffff168152602001608263ffffffff168152602001603763ffffffff168152602001604163ffffffff168152602001602d63ffffffff168152508152509080600181540180825580915050906001820390600052602060002090600702016000909192909190915060008201518160000190805190602001906200dbd69291906201d9fe565b506020820151816001015560408201518160020190805190602001906200dbff9291906201d9fe565b5060608201518160030190805190602001906200dc1e9291906201d9fe565b506080820151816004015560a08201518160050160006101000a81548160ff02191690831515021790555060c08201518160060160008201518160000160006101000a81548163ffffffff021916908363ffffffff16021790555060208201518160000160046101000a81548163ffffffff021916908363ffffffff16021790555060408201518160000160086101000a81548163ffffffff021916908363ffffffff160217905550606082015181600001600c6101000a81548163ffffffff021916908363ffffffff16021790555060808201518160000160106101000a81548163ffffffff021916908363ffffffff16021790555060a08201518160000160146101000a81548163ffffffff021916908363ffffffff160217905550505050505060036040518060e001604052806040518060400160405280600681526020017f506f6e79746100000000000000000000000000000000000000000000000000008152508152602001604d81526020016040518060400160405280600481526020017f466972650000000000000000000000000000000000000000000000000000000081525081526020016040518060400160405280600381526020017f6e616e000000000000000000000000000000000000000000000000000000000081525081526020016101ea81526020016000151581526020016040518060c00160405280603263ffffffff168152602001605563ffffffff168152602001603763ffffffff168152602001604163ffffffff168152602001604163ffffffff168152602001605a63ffffffff168152508152509080600181540180825580915050906001820390600052602060002090600702016000909192909190915060008201518160000190805190602001906200deba9291906201d9fe565b506020820151816001015560408201518160020190805190602001906200dee39291906201d9fe565b5060608201518160030190805190602001906200df029291906201d9fe565b506080820151816004015560a08201518160050160006101000a81548160ff02191690831515021790555060c08201518160060160008201518160000160006101000a81548163ffffffff021916908363ffffffff16021790555060208201518160000160046101000a81548163ffffffff021916908363ffffffff16021790555060408201518160000160086101000a81548163ffffffff021916908363ffffffff160217905550606082015181600001600c6101000a81548163ffffffff021916908363ffffffff16021790555060808201518160000160106101000a81548163ffffffff021916908363ffffffff16021790555060a08201518160000160146101000a81548163ffffffff021916908363ffffffff160217905550505050505060036040518060e001604052806040518060400160405280600881526020017f52617069646173680000000000000000000000000000000000000000000000008152508152602001604e81526020016040518060400160405280600481526020017f466972650000000000000000000000000000000000000000000000000000000081525081526020016040518060400160405280600381526020017f6e616e0000000000000000000000000000000000000000000000000000000000815250815260200161019081526020016000151581526020016040518060c00160405280604163ffffffff168152602001606463ffffffff168152602001604663ffffffff168152602001605063ffffffff168152602001605063ffffffff168152602001606963ffffffff168152508152509080600181540180825580915050906001820390600052602060002090600702016000909192909190915060008201518160000190805190602001906200e19e9291906201d9fe565b506020820151816001015560408201518160020190805190602001906200e1c79291906201d9fe565b5060608201518160030190805190602001906200e1e69291906201d9fe565b506080820151816004015560a08201518160050160006101000a81548160ff02191690831515021790555060c08201518160060160008201518160000160006101000a81548163ffffffff021916908363ffffffff16021790555060208201518160000160046101000a81548163ffffffff021916908363ffffffff16021790555060408201518160000160086101000a81548163ffffffff021916908363ffffffff160217905550606082015181600001600c6101000a81548163ffffffff021916908363ffffffff16021790555060808201518160000160106101000a81548163ffffffff021916908363ffffffff16021790555060a08201518160000160146101000a81548163ffffffff021916908363ffffffff160217905550505050505060036040518060e001604052806040518060400160405280600881526020017f536c6f77706f6b650000000000000000000000000000000000000000000000008152508152602001604f81526020016040518060400160405280600581526020017f576174657200000000000000000000000000000000000000000000000000000081525081526020016040518060400160405280600781526020017f5073796368696300000000000000000000000000000000000000000000000000815250815260200161024981526020016000151581526020016040518060c00160405280605a63ffffffff168152602001604163ffffffff168152602001604163ffffffff168152602001602863ffffffff168152602001602863ffffffff168152602001600f63ffffffff168152508152509080600181540180825580915050906001820390600052602060002090600702016000909192909190915060008201518160000190805190602001906200e4829291906201d9fe565b506020820151816001015560408201518160020190805190602001906200e4ab9291906201d9fe565b5060608201518160030190805190602001906200e4ca9291906201d9fe565b506080820151816004015560a08201518160050160006101000a81548160ff02191690831515021790555060c08201518160060160008201518160000160006101000a81548163ffffffff021916908363ffffffff16021790555060208201518160000160046101000a81548163ffffffff021916908363ffffffff16021790555060408201518160000160086101000a81548163ffffffff021916908363ffffffff160217905550606082015181600001600c6101000a81548163ffffffff021916908363ffffffff16021790555060808201518160000160106101000a81548163ffffffff021916908363ffffffff16021790555060a08201518160000160146101000a81548163ffffffff021916908363ffffffff160217905550505050505060036040518060e001604052806040518060400160405280600781526020017f536c6f7762726f000000000000000000000000000000000000000000000000008152508152602001605081526020016040518060400160405280600581526020017f576174657200000000000000000000000000000000000000000000000000000081525081526020016040518060400160405280600781526020017f5073796368696300000000000000000000000000000000000000000000000000815250815260200161019a81526020016000151581526020016040518060c00160405280605f63ffffffff168152602001604b63ffffffff168152602001606e63ffffffff168152602001606463ffffffff168152602001605063ffffffff168152602001601e63ffffffff168152508152509080600181540180825580915050906001820390600052602060002090600702016000909192909190915060008201518160000190805190602001906200e7669291906201d9fe565b506020820151816001015560408201518160020190805190602001906200e78f9291906201d9fe565b5060608201518160030190805190602001906200e7ae9291906201d9fe565b506080820151816004015560a08201518160050160006101000a81548160ff02191690831515021790555060c08201518160060160008201518160000160006101000a81548163ffffffff021916908363ffffffff16021790555060208201518160000160046101000a81548163ffffffff021916908363ffffffff16021790555060408201518160000160086101000a81548163ffffffff021916908363ffffffff160217905550606082015181600001600c6101000a81548163ffffffff021916908363ffffffff16021790555060808201518160000160106101000a81548163ffffffff021916908363ffffffff16021790555060a08201518160000160146101000a81548163ffffffff021916908363ffffffff160217905550505050505060036040518060e001604052806040518060400160405280600981526020017f4d61676e656d69746500000000000000000000000000000000000000000000008152508152602001605181526020016040518060400160405280600881526020017f456c65637472696300000000000000000000000000000000000000000000000081525081526020016040518060400160405280600581526020017f537465656c000000000000000000000000000000000000000000000000000000815250815260200161023f81526020016000151581526020016040518060c00160405280601963ffffffff168152602001602363ffffffff168152602001604663ffffffff168152602001605f63ffffffff168152602001603763ffffffff168152602001602d63ffffffff168152508152509080600181540180825580915050906001820390600052602060002090600702016000909192909190915060008201518160000190805190602001906200ea4a9291906201d9fe565b506020820151816001015560408201518160020190805190602001906200ea739291906201d9fe565b5060608201518160030190805190602001906200ea929291906201d9fe565b506080820151816004015560a08201518160050160006101000a81548160ff02191690831515021790555060c08201518160060160008201518160000160006101000a81548163ffffffff021916908363ffffffff16021790555060208201518160000160046101000a81548163ffffffff021916908363ffffffff16021790555060408201518160000160086101000a81548163ffffffff021916908363ffffffff160217905550606082015181600001600c6101000a81548163ffffffff021916908363ffffffff16021790555060808201518160000160106101000a81548163ffffffff021916908363ffffffff16021790555060a08201518160000160146101000a81548163ffffffff021916908363ffffffff160217905550505050505060036040518060e001604052806040518060400160405280600881526020017f4d61676e65746f6e0000000000000000000000000000000000000000000000008152508152602001605281526020016040518060400160405280600881526020017f456c65637472696300000000000000000000000000000000000000000000000081525081526020016040518060400160405280600581526020017f537465656c00000000000000000000000000000000000000000000000000000081525081526020016101b381526020016000151581526020016040518060c00160405280603263ffffffff168152602001603c63ffffffff168152602001605f63ffffffff168152602001607863ffffffff168152602001604663ffffffff168152602001604663ffffffff168152508152509080600181540180825580915050906001820390600052602060002090600702016000909192909190915060008201518160000190805190602001906200ed2e9291906201d9fe565b506020820151816001015560408201518160020190805190602001906200ed579291906201d9fe565b5060608201518160030190805190602001906200ed769291906201d9fe565b506080820151816004015560a08201518160050160006101000a81548160ff02191690831515021790555060c08201518160060160008201518160000160006101000a81548163ffffffff021916908363ffffffff16021790555060208201518160000160046101000a81548163ffffffff021916908363ffffffff16021790555060408201518160000160086101000a81548163ffffffff021916908363ffffffff160217905550606082015181600001600c6101000a81548163ffffffff021916908363ffffffff16021790555060808201518160000160106101000a81548163ffffffff021916908363ffffffff16021790555060a08201518160000160146101000a81548163ffffffff021916908363ffffffff160217905550505050505060036040518060e001604052806040518060400160405280600a81526020017f46617266657463682764000000000000000000000000000000000000000000008152508152602001605381526020016040518060400160405280600681526020017f4e6f726d616c000000000000000000000000000000000000000000000000000081525081526020016040518060400160405280600681526020017f466c79696e670000000000000000000000000000000000000000000000000000815250815260200161022481526020016000151581526020016040518060c00160405280603463ffffffff168152602001604163ffffffff168152602001603763ffffffff168152602001603a63ffffffff168152602001603e63ffffffff168152602001603c63ffffffff168152508152509080600181540180825580915050906001820390600052602060002090600702016000909192909190915060008201518160000190805190602001906200f0129291906201d9fe565b506020820151816001015560408201518160020190805190602001906200f03b9291906201d9fe565b5060608201518160030190805190602001906200f05a9291906201d9fe565b506080820151816004015560a08201518160050160006101000a81548160ff02191690831515021790555060c08201518160060160008201518160000160006101000a81548163ffffffff021916908363ffffffff16021790555060208201518160000160046101000a81548163ffffffff021916908363ffffffff16021790555060408201518160000160086101000a81548163ffffffff021916908363ffffffff160217905550606082015181600001600c6101000a81548163ffffffff021916908363ffffffff16021790555060808201518160000160106101000a81548163ffffffff021916908363ffffffff16021790555060a08201518160000160146101000a81548163ffffffff021916908363ffffffff160217905550505050505060036040518060e001604052806040518060400160405280600581526020017f446f64756f0000000000000000000000000000000000000000000000000000008152508152602001605481526020016040518060400160405280600681526020017f4e6f726d616c000000000000000000000000000000000000000000000000000081525081526020016040518060400160405280600681526020017f466c79696e670000000000000000000000000000000000000000000000000000815250815260200161024e81526020016000151581526020016040518060c00160405280602363ffffffff168152602001605563ffffffff168152602001602d63ffffffff168152602001602363ffffffff168152602001602363ffffffff168152602001604b63ffffffff168152508152509080600181540180825580915050906001820390600052602060002090600702016000909192909190915060008201518160000190805190602001906200f2f69291906201d9fe565b506020820151816001015560408201518160020190805190602001906200f31f9291906201d9fe565b5060608201518160030190805190602001906200f33e9291906201d9fe565b506080820151816004015560a08201518160050160006101000a81548160ff02191690831515021790555060c08201518160060160008201518160000160006101000a81548163ffffffff021916908363ffffffff16021790555060208201518160000160046101000a81548163ffffffff021916908363ffffffff16021790555060408201518160000160086101000a81548163ffffffff021916908363ffffffff160217905550606082015181600001600c6101000a81548163ffffffff021916908363ffffffff16021790555060808201518160000160106101000a81548163ffffffff021916908363ffffffff16021790555060a08201518160000160146101000a81548163ffffffff021916908363ffffffff160217905550505050505060036040518060e001604052806040518060400160405280600681526020017f446f6472696f00000000000000000000000000000000000000000000000000008152508152602001605581526020016040518060400160405280600681526020017f4e6f726d616c000000000000000000000000000000000000000000000000000081525081526020016040518060400160405280600681526020017f466c79696e67000000000000000000000000000000000000000000000000000081525081526020016101b881526020016000151581526020016040518060c00160405280603c63ffffffff168152602001606e63ffffffff168152602001604663ffffffff168152602001603c63ffffffff168152602001603c63ffffffff168152602001606463ffffffff168152508152509080600181540180825580915050906001820390600052602060002090600702016000909192909190915060008201518160000190805190602001906200f5da9291906201d9fe565b506020820151816001015560408201518160020190805190602001906200f6039291906201d9fe565b5060608201518160030190805190602001906200f6229291906201d9fe565b506080820151816004015560a08201518160050160006101000a81548160ff02191690831515021790555060c08201518160060160008201518160000160006101000a81548163ffffffff021916908363ffffffff16021790555060208201518160000160046101000a81548163ffffffff021916908363ffffffff16021790555060408201518160000160086101000a81548163ffffffff021916908363ffffffff160217905550606082015181600001600c6101000a81548163ffffffff021916908363ffffffff16021790555060808201518160000160106101000a81548163ffffffff021916908363ffffffff16021790555060a08201518160000160146101000a81548163ffffffff021916908363ffffffff160217905550505050505060036040518060e001604052806040518060400160405280600481526020017f5365656c000000000000000000000000000000000000000000000000000000008152508152602001605681526020016040518060400160405280600581526020017f576174657200000000000000000000000000000000000000000000000000000081525081526020016040518060400160405280600381526020017f6e616e0000000000000000000000000000000000000000000000000000000000815250815260200161023f81526020016000151581526020016040518060c00160405280604163ffffffff168152602001602d63ffffffff168152602001603763ffffffff168152602001602d63ffffffff168152602001604663ffffffff168152602001602d63ffffffff168152508152509080600181540180825580915050906001820390600052602060002090600702016000909192909190915060008201518160000190805190602001906200f8be9291906201d9fe565b506020820151816001015560408201518160020190805190602001906200f8e79291906201d9fe565b5060608201518160030190805190602001906200f9069291906201d9fe565b506080820151816004015560a08201518160050160006101000a81548160ff02191690831515021790555060c08201518160060160008201518160000160006101000a81548163ffffffff021916908363ffffffff16021790555060208201518160000160046101000a81548163ffffffff021916908363ffffffff16021790555060408201518160000160086101000a81548163ffffffff021916908363ffffffff160217905550606082015181600001600c6101000a81548163ffffffff021916908363ffffffff16021790555060808201518160000160106101000a81548163ffffffff021916908363ffffffff16021790555060a08201518160000160146101000a81548163ffffffff021916908363ffffffff160217905550505050505060036040518060e001604052806040518060400160405280600781526020017f446577676f6e67000000000000000000000000000000000000000000000000008152508152602001605781526020016040518060400160405280600581526020017f576174657200000000000000000000000000000000000000000000000000000081525081526020016040518060400160405280600381526020017f496365000000000000000000000000000000000000000000000000000000000081525081526020016101a981526020016000151581526020016040518060c00160405280605a63ffffffff168152602001604663ffffffff168152602001605063ffffffff168152602001604663ffffffff168152602001605f63ffffffff168152602001604663ffffffff168152508152509080600181540180825580915050906001820390600052602060002090600702016000909192909190915060008201518160000190805190602001906200fba29291906201d9fe565b506020820151816001015560408201518160020190805190602001906200fbcb9291906201d9fe565b5060608201518160030190805190602001906200fbea9291906201d9fe565b506080820151816004015560a08201518160050160006101000a81548160ff02191690831515021790555060c08201518160060160008201518160000160006101000a81548163ffffffff021916908363ffffffff16021790555060208201518160000160046101000a81548163ffffffff021916908363ffffffff16021790555060408201518160000160086101000a81548163ffffffff021916908363ffffffff160217905550606082015181600001600c6101000a81548163ffffffff021916908363ffffffff16021790555060808201518160000160106101000a81548163ffffffff021916908363ffffffff16021790555060a08201518160000160146101000a81548163ffffffff021916908363ffffffff160217905550505050505060036040518060e001604052806040518060400160405280600681526020017f4772696d657200000000000000000000000000000000000000000000000000008152508152602001605881526020016040518060400160405280600681526020017f506f69736f6e000000000000000000000000000000000000000000000000000081525081526020016040518060400160405280600381526020017f6e616e0000000000000000000000000000000000000000000000000000000000815250815260200161023f81526020016000151581526020016040518060c00160405280605063ffffffff168152602001605063ffffffff168152602001603263ffffffff168152602001602863ffffffff168152602001603263ffffffff168152602001601963ffffffff168152508152509080600181540180825580915050906001820390600052602060002090600702016000909192909190915060008201518160000190805190602001906200fe869291906201d9fe565b506020820151816001015560408201518160020190805190602001906200feaf9291906201d9fe565b5060608201518160030190805190602001906200fece9291906201d9fe565b506080820151816004015560a08201518160050160006101000a81548160ff02191690831515021790555060c08201518160060160008201518160000160006101000a81548163ffffffff021916908363ffffffff16021790555060208201518160000160046101000a81548163ffffffff021916908363ffffffff16021790555060408201518160000160086101000a81548163ffffffff021916908363ffffffff160217905550606082015181600001600c6101000a81548163ffffffff021916908363ffffffff16021790555060808201518160000160106101000a81548163ffffffff021916908363ffffffff16021790555060a08201518160000160146101000a81548163ffffffff021916908363ffffffff160217905550505050505060036040518060e001604052806040518060400160405280600381526020017f4d756b00000000000000000000000000000000000000000000000000000000008152508152602001605981526020016040518060400160405280600681526020017f506f69736f6e000000000000000000000000000000000000000000000000000081525081526020016040518060400160405280600381526020017f6e616e0000000000000000000000000000000000000000000000000000000000815250815260200161019081526020016000151581526020016040518060c00160405280606963ffffffff168152602001606963ffffffff168152602001604b63ffffffff168152602001604163ffffffff168152602001606463ffffffff168152602001603263ffffffff168152508152509080600181540180825580915050906001820390600052602060002090600702016000909192909190915060008201518160000190805190602001906201016a9291906201d9fe565b50602082015181600101556040820151816002019080519060200190620101939291906201d9fe565b506060820151816003019080519060200190620101b29291906201d9fe565b506080820151816004015560a08201518160050160006101000a81548160ff02191690831515021790555060c08201518160060160008201518160000160006101000a81548163ffffffff021916908363ffffffff16021790555060208201518160000160046101000a81548163ffffffff021916908363ffffffff16021790555060408201518160000160086101000a81548163ffffffff021916908363ffffffff160217905550606082015181600001600c6101000a81548163ffffffff021916908363ffffffff16021790555060808201518160000160106101000a81548163ffffffff021916908363ffffffff16021790555060a08201518160000160146101000a81548163ffffffff021916908363ffffffff160217905550505050505060036040518060e001604052806040518060400160405280600881526020017f5368656c6c6465720000000000000000000000000000000000000000000000008152508152602001605a81526020016040518060400160405280600581526020017f576174657200000000000000000000000000000000000000000000000000000081525081526020016040518060400160405280600381526020017f6e616e0000000000000000000000000000000000000000000000000000000000815250815260200161025381526020016000151581526020016040518060c00160405280601e63ffffffff168152602001604163ffffffff168152602001606463ffffffff168152602001602d63ffffffff168152602001601963ffffffff168152602001602863ffffffff168152508152509080600181540180825580915050906001820390600052602060002090600702016000909192909190915060008201518160000190805190602001906201044e9291906201d9fe565b50602082015181600101556040820151816002019080519060200190620104779291906201d9fe565b506060820151816003019080519060200190620104969291906201d9fe565b506080820151816004015560a08201518160050160006101000a81548160ff02191690831515021790555060c08201518160060160008201518160000160006101000a81548163ffffffff021916908363ffffffff16021790555060208201518160000160046101000a81548163ffffffff021916908363ffffffff16021790555060408201518160000160086101000a81548163ffffffff021916908363ffffffff160217905550606082015181600001600c6101000a81548163ffffffff021916908363ffffffff16021790555060808201518160000160106101000a81548163ffffffff021916908363ffffffff16021790555060a08201518160000160146101000a81548163ffffffff021916908363ffffffff160217905550505050505060036040518060e001604052806040518060400160405280600881526020017f436c6f79737465720000000000000000000000000000000000000000000000008152508152602001605b81526020016040518060400160405280600581526020017f576174657200000000000000000000000000000000000000000000000000000081525081526020016040518060400160405280600381526020017f4963650000000000000000000000000000000000000000000000000000000000815250815260200161017781526020016000151581526020016040518060c00160405280603263ffffffff168152602001605f63ffffffff16815260200160b463ffffffff168152602001605563ffffffff168152602001602d63ffffffff168152602001604663ffffffff16815250815250908060018154018082558091505090600182039060005260206000209060070201600090919290919091506000820151816000019080519060200190620107329291906201d9fe565b506020820151816001015560408201518160020190805190602001906201075b9291906201d9fe565b5060608201518160030190805190602001906201077a9291906201d9fe565b506080820151816004015560a08201518160050160006101000a81548160ff02191690831515021790555060c08201518160060160008201518160000160006101000a81548163ffffffff021916908363ffffffff16021790555060208201518160000160046101000a81548163ffffffff021916908363ffffffff16021790555060408201518160000160086101000a81548163ffffffff021916908363ffffffff160217905550606082015181600001600c6101000a81548163ffffffff021916908363ffffffff16021790555060808201518160000160106101000a81548163ffffffff021916908363ffffffff16021790555060a08201518160000160146101000a81548163ffffffff021916908363ffffffff160217905550505050505060036040518060e001604052806040518060400160405280600681526020017f476173746c7900000000000000000000000000000000000000000000000000008152508152602001605c81526020016040518060400160405280600581526020017f47686f737400000000000000000000000000000000000000000000000000000081525081526020016040518060400160405280600681526020017f506f69736f6e0000000000000000000000000000000000000000000000000000815250815260200161024e81526020016000151581526020016040518060c00160405280601e63ffffffff168152602001602363ffffffff168152602001601e63ffffffff168152602001606463ffffffff168152602001602363ffffffff168152602001605063ffffffff1681525081525090806001815401808255809150509060018203906000526020600020906007020160009091929091909150600082015181600001908051906020019062010a169291906201d9fe565b5060208201518160010155604082015181600201908051906020019062010a3f9291906201d9fe565b50606082015181600301908051906020019062010a5e9291906201d9fe565b506080820151816004015560a08201518160050160006101000a81548160ff02191690831515021790555060c08201518160060160008201518160000160006101000a81548163ffffffff021916908363ffffffff16021790555060208201518160000160046101000a81548163ffffffff021916908363ffffffff16021790555060408201518160000160086101000a81548163ffffffff021916908363ffffffff160217905550606082015181600001600c6101000a81548163ffffffff021916908363ffffffff16021790555060808201518160000160106101000a81548163ffffffff021916908363ffffffff16021790555060a08201518160000160146101000a81548163ffffffff021916908363ffffffff160217905550505050505060036040518060e001604052806040518060400160405280600781526020017f4861756e746572000000000000000000000000000000000000000000000000008152508152602001605d81526020016040518060400160405280600581526020017f47686f737400000000000000000000000000000000000000000000000000000081525081526020016040518060400160405280600681526020017f506f69736f6e000000000000000000000000000000000000000000000000000081525081526020016101ef81526020016000151581526020016040518060c00160405280602d63ffffffff168152602001603263ffffffff168152602001602d63ffffffff168152602001607363ffffffff168152602001603763ffffffff168152602001605f63ffffffff1681525081525090806001815401808255809150509060018203906000526020600020906007020160009091929091909150600082015181600001908051906020019062010cfa9291906201d9fe565b5060208201518160010155604082015181600201908051906020019062010d239291906201d9fe565b50606082015181600301908051906020019062010d429291906201d9fe565b506080820151816004015560a08201518160050160006101000a81548160ff02191690831515021790555060c08201518160060160008201518160000160006101000a81548163ffffffff021916908363ffffffff16021790555060208201518160000160046101000a81548163ffffffff021916908363ffffffff16021790555060408201518160000160086101000a81548163ffffffff021916908363ffffffff160217905550606082015181600001600c6101000a81548163ffffffff021916908363ffffffff16021790555060808201518160000160106101000a81548163ffffffff021916908363ffffffff16021790555060a08201518160000160146101000a81548163ffffffff021916908363ffffffff160217905550505050505060036040518060e001604052806040518060400160405280600681526020017f47656e67617200000000000000000000000000000000000000000000000000008152508152602001605e81526020016040518060400160405280600581526020017f47686f737400000000000000000000000000000000000000000000000000000081525081526020016040518060400160405280600681526020017f506f69736f6e0000000000000000000000000000000000000000000000000000815250815260200161019081526020016000151581526020016040518060c00160405280603c63ffffffff168152602001604163ffffffff168152602001603c63ffffffff168152602001608263ffffffff168152602001604b63ffffffff168152602001606e63ffffffff1681525081525090806001815401808255809150509060018203906000526020600020906007020160009091929091909150600082015181600001908051906020019062010fde9291906201d9fe565b50602082015181600101556040820151816002019080519060200190620110079291906201d9fe565b506060820151816003019080519060200190620110269291906201d9fe565b506080820151816004015560a08201518160050160006101000a81548160ff02191690831515021790555060c08201518160060160008201518160000160006101000a81548163ffffffff021916908363ffffffff16021790555060208201518160000160046101000a81548163ffffffff021916908363ffffffff16021790555060408201518160000160086101000a81548163ffffffff021916908363ffffffff160217905550606082015181600001600c6101000a81548163ffffffff021916908363ffffffff16021790555060808201518160000160106101000a81548163ffffffff021916908363ffffffff16021790555060a08201518160000160146101000a81548163ffffffff021916908363ffffffff160217905550505050505060036040518060e001604052806040518060400160405280600481526020017f4f6e6978000000000000000000000000000000000000000000000000000000008152508152602001605f81526020016040518060400160405280600481526020017f526f636b0000000000000000000000000000000000000000000000000000000081525081526020016040518060400160405280600681526020017f47726f756e640000000000000000000000000000000000000000000000000000815250815260200161020381526020016000151581526020016040518060c00160405280602363ffffffff168152602001602d63ffffffff16815260200160a063ffffffff168152602001601e63ffffffff168152602001602d63ffffffff168152602001604663ffffffff16815250815250908060018154018082558091505090600182039060005260206000209060070201600090919290919091506000820151816000019080519060200190620112c29291906201d9fe565b50602082015181600101556040820151816002019080519060200190620112eb9291906201d9fe565b5060608201518160030190805190602001906201130a9291906201d9fe565b506080820151816004015560a08201518160050160006101000a81548160ff02191690831515021790555060c08201518160060160008201518160000160006101000a81548163ffffffff021916908363ffffffff16021790555060208201518160000160046101000a81548163ffffffff021916908363ffffffff16021790555060408201518160000160086101000a81548163ffffffff021916908363ffffffff160217905550606082015181600001600c6101000a81548163ffffffff021916908363ffffffff16021790555060808201518160000160106101000a81548163ffffffff021916908363ffffffff16021790555060a08201518160000160146101000a81548163ffffffff021916908363ffffffff160217905550505050505060036040518060e001604052806040518060400160405280600781526020017f44726f777a6565000000000000000000000000000000000000000000000000008152508152602001606081526020016040518060400160405280600781526020017f507379636869630000000000000000000000000000000000000000000000000081525081526020016040518060400160405280600381526020017f6e616e0000000000000000000000000000000000000000000000000000000000815250815260200161023c81526020016000151581526020016040518060c00160405280603c63ffffffff168152602001603063ffffffff168152602001602d63ffffffff168152602001602b63ffffffff168152602001605a63ffffffff168152602001602a63ffffffff16815250815250908060018154018082558091505090600182039060005260206000209060070201600090919290919091506000820151816000019080519060200190620115a69291906201d9fe565b50602082015181600101556040820151816002019080519060200190620115cf9291906201d9fe565b506060820151816003019080519060200190620115ee9291906201d9fe565b506080820151816004015560a08201518160050160006101000a81548160ff02191690831515021790555060c08201518160060160008201518160000160006101000a81548163ffffffff021916908363ffffffff16021790555060208201518160000160046101000a81548163ffffffff021916908363ffffffff16021790555060408201518160000160086101000a81548163ffffffff021916908363ffffffff160217905550606082015181600001600c6101000a81548163ffffffff021916908363ffffffff16021790555060808201518160000160106101000a81548163ffffffff021916908363ffffffff16021790555060a08201518160000160146101000a81548163ffffffff021916908363ffffffff160217905550505050505060036040518060e001604052806040518060400160405280600581526020017f4879706e6f0000000000000000000000000000000000000000000000000000008152508152602001606181526020016040518060400160405280600781526020017f507379636869630000000000000000000000000000000000000000000000000081525081526020016040518060400160405280600381526020017f6e616e000000000000000000000000000000000000000000000000000000000081525081526020016101a181526020016000151581526020016040518060c00160405280605563ffffffff168152602001604963ffffffff168152602001604663ffffffff168152602001604963ffffffff168152602001607363ffffffff168152602001604363ffffffff168152508152509080600181540180825580915050906001820390600052602060002090600702016000909192909190915060008201518160000190805190602001906201188a9291906201d9fe565b50602082015181600101556040820151816002019080519060200190620118b39291906201d9fe565b506060820151816003019080519060200190620118d29291906201d9fe565b506080820151816004015560a08201518160050160006101000a81548160ff02191690831515021790555060c08201518160060160008201518160000160006101000a81548163ffffffff021916908363ffffffff16021790555060208201518160000160046101000a81548163ffffffff021916908363ffffffff16021790555060408201518160000160086101000a81548163ffffffff021916908363ffffffff160217905550606082015181600001600c6101000a81548163ffffffff021916908363ffffffff16021790555060808201518160000160106101000a81548163ffffffff021916908363ffffffff16021790555060a08201518160000160146101000a81548163ffffffff021916908363ffffffff160217905550505050505060036040518060e001604052806040518060400160405280600681526020017f4b726162627900000000000000000000000000000000000000000000000000008152508152602001606281526020016040518060400160405280600581526020017f576174657200000000000000000000000000000000000000000000000000000081525081526020016040518060400160405280600381526020017f6e616e0000000000000000000000000000000000000000000000000000000000815250815260200161023f81526020016000151581526020016040518060c00160405280601e63ffffffff168152602001606963ffffffff168152602001605a63ffffffff168152602001601963ffffffff168152602001601963ffffffff168152602001603263ffffffff1681525081525090806001815401808255809150509060018203906000526020600020906007020160009091929091909150600082015181600001908051906020019062011b6e9291906201d9fe565b5060208201518160010155604082015181600201908051906020019062011b979291906201d9fe565b50606082015181600301908051906020019062011bb69291906201d9fe565b506080820151816004015560a08201518160050160006101000a81548160ff02191690831515021790555060c08201518160060160008201518160000160006101000a81548163ffffffff021916908363ffffffff16021790555060208201518160000160046101000a81548163ffffffff021916908363ffffffff16021790555060408201518160000160086101000a81548163ffffffff021916908363ffffffff160217905550606082015181600001600c6101000a81548163ffffffff021916908363ffffffff16021790555060808201518160000160106101000a81548163ffffffff021916908363ffffffff16021790555060a08201518160000160146101000a81548163ffffffff021916908363ffffffff160217905550505050505060036040518060e001604052806040518060400160405280600781526020017f4b696e676c6572000000000000000000000000000000000000000000000000008152508152602001606381526020016040518060400160405280600581526020017f576174657200000000000000000000000000000000000000000000000000000081525081526020016040518060400160405280600381526020017f6e616e000000000000000000000000000000000000000000000000000000000081525081526020016101a981526020016000151581526020016040518060c00160405280603763ffffffff168152602001608263ffffffff168152602001607363ffffffff168152602001603263ffffffff168152602001603263ffffffff168152602001604b63ffffffff1681525081525090806001815401808255809150509060018203906000526020600020906007020160009091929091909150600082015181600001908051906020019062011e529291906201d9fe565b5060208201518160010155604082015181600201908051906020019062011e7b9291906201d9fe565b50606082015181600301908051906020019062011e9a9291906201d9fe565b506080820151816004015560a08201518160050160006101000a81548160ff02191690831515021790555060c08201518160060160008201518160000160006101000a81548163ffffffff021916908363ffffffff16021790555060208201518160000160046101000a81548163ffffffff021916908363ffffffff16021790555060408201518160000160086101000a81548163ffffffff021916908363ffffffff160217905550606082015181600001600c6101000a81548163ffffffff021916908363ffffffff16021790555060808201518160000160106101000a81548163ffffffff021916908363ffffffff16021790555060a08201518160000160146101000a81548163ffffffff021916908363ffffffff160217905550505050505060036040518060e001604052806040518060400160405280600781526020017f566f6c746f7262000000000000000000000000000000000000000000000000008152508152602001606481526020016040518060400160405280600881526020017f456c65637472696300000000000000000000000000000000000000000000000081525081526020016040518060400160405280600381526020017f6e616e0000000000000000000000000000000000000000000000000000000000815250815260200161023a81526020016000151581526020016040518060c00160405280602863ffffffff168152602001601e63ffffffff168152602001603263ffffffff168152602001603763ffffffff168152602001603763ffffffff168152602001606463ffffffff16815250815250908060018154018082558091505090600182039060005260206000209060070201600090919290919091506000820151816000019080519060200190620121369291906201d9fe565b506020820151816001015560408201518160020190805190602001906201215f9291906201d9fe565b5060608201518160030190805190602001906201217e9291906201d9fe565b506080820151816004015560a08201518160050160006101000a81548160ff02191690831515021790555060c08201518160060160008201518160000160006101000a81548163ffffffff021916908363ffffffff16021790555060208201518160000160046101000a81548163ffffffff021916908363ffffffff16021790555060408201518160000160086101000a81548163ffffffff021916908363ffffffff160217905550606082015181600001600c6101000a81548163ffffffff021916908363ffffffff16021790555060808201518160000160106101000a81548163ffffffff021916908363ffffffff16021790555060a08201518160000160146101000a81548163ffffffff021916908363ffffffff160217905550505050505060036040518060e001604052806040518060400160405280600981526020017f456c656374726f646500000000000000000000000000000000000000000000008152508152602001606581526020016040518060400160405280600881526020017f456c65637472696300000000000000000000000000000000000000000000000081525081526020016040518060400160405280600381526020017f6e616e000000000000000000000000000000000000000000000000000000000081525081526020016101a481526020016000151581526020016040518060c00160405280603c63ffffffff168152602001603263ffffffff168152602001604663ffffffff168152602001605063ffffffff168152602001605063ffffffff168152602001608c63ffffffff168152508152509080600181540180825580915050906001820390600052602060002090600702016000909192909190915060008201518160000190805190602001906201241a9291906201d9fe565b50602082015181600101556040820151816002019080519060200190620124439291906201d9fe565b506060820151816003019080519060200190620124629291906201d9fe565b506080820151816004015560a08201518160050160006101000a81548160ff02191690831515021790555060c08201518160060160008201518160000160006101000a81548163ffffffff021916908363ffffffff16021790555060208201518160000160046101000a81548163ffffffff021916908363ffffffff16021790555060408201518160000160086101000a81548163ffffffff021916908363ffffffff160217905550606082015181600001600c6101000a81548163ffffffff021916908363ffffffff16021790555060808201518160000160106101000a81548163ffffffff021916908363ffffffff16021790555060a08201518160000160146101000a81548163ffffffff021916908363ffffffff160217905550505050505060036040518060e001604052806040518060400160405280600981526020017f45786567676375746500000000000000000000000000000000000000000000008152508152602001606681526020016040518060400160405280600581526020017f477261737300000000000000000000000000000000000000000000000000000081525081526020016040518060400160405280600781526020017f5073796368696300000000000000000000000000000000000000000000000000815250815260200161023f81526020016000151581526020016040518060c00160405280603c63ffffffff168152602001602863ffffffff168152602001605063ffffffff168152602001603c63ffffffff168152602001602d63ffffffff168152602001602863ffffffff16815250815250908060018154018082558091505090600182039060005260206000209060070201600090919290919091506000820151816000019080519060200190620126fe9291906201d9fe565b50602082015181600101556040820151816002019080519060200190620127279291906201d9fe565b506060820151816003019080519060200190620127469291906201d9fe565b506080820151816004015560a08201518160050160006101000a81548160ff02191690831515021790555060c08201518160060160008201518160000160006101000a81548163ffffffff021916908363ffffffff16021790555060208201518160000160046101000a81548163ffffffff021916908363ffffffff16021790555060408201518160000160086101000a81548163ffffffff021916908363ffffffff160217905550606082015181600001600c6101000a81548163ffffffff021916908363ffffffff16021790555060808201518160000160106101000a81548163ffffffff021916908363ffffffff16021790555060a08201518160000160146101000a81548163ffffffff021916908363ffffffff160217905550505050505060036040518060e001604052806040518060400160405280600981526020017f457865676775746f7200000000000000000000000000000000000000000000008152508152602001606781526020016040518060400160405280600581526020017f477261737300000000000000000000000000000000000000000000000000000081525081526020016040518060400160405280600781526020017f5073796368696300000000000000000000000000000000000000000000000000815250815260200161017c81526020016000151581526020016040518060c00160405280605f63ffffffff168152602001605f63ffffffff168152602001605563ffffffff168152602001607d63ffffffff168152602001604163ffffffff168152602001603763ffffffff16815250815250908060018154018082558091505090600182039060005260206000209060070201600090919290919091506000820151816000019080519060200190620129e29291906201d9fe565b5060208201518160010155604082015181600201908051906020019062012a0b9291906201d9fe565b50606082015181600301908051906020019062012a2a9291906201d9fe565b506080820151816004015560a08201518160050160006101000a81548160ff02191690831515021790555060c08201518160060160008201518160000160006101000a81548163ffffffff021916908363ffffffff16021790555060208201518160000160046101000a81548163ffffffff021916908363ffffffff16021790555060408201518160000160086101000a81548163ffffffff021916908363ffffffff160217905550606082015181600001600c6101000a81548163ffffffff021916908363ffffffff16021790555060808201518160000160106101000a81548163ffffffff021916908363ffffffff16021790555060a08201518160000160146101000a81548163ffffffff021916908363ffffffff160217905550505050505060036040518060e001604052806040518060400160405280600681526020017f4375626f6e6500000000000000000000000000000000000000000000000000008152508152602001606881526020016040518060400160405280600681526020017f47726f756e64000000000000000000000000000000000000000000000000000081525081526020016040518060400160405280600381526020017f6e616e0000000000000000000000000000000000000000000000000000000000815250815260200161024481526020016000151581526020016040518060c00160405280603263ffffffff168152602001603263ffffffff168152602001605f63ffffffff168152602001602863ffffffff168152602001603263ffffffff168152602001602363ffffffff1681525081525090806001815401808255809150509060018203906000526020600020906007020160009091929091909150600082015181600001908051906020019062012cc69291906201d9fe565b5060208201518160010155604082015181600201908051906020019062012cef9291906201d9fe565b50606082015181600301908051906020019062012d0e9291906201d9fe565b506080820151816004015560a08201518160050160006101000a81548160ff02191690831515021790555060c08201518160060160008201518160000160006101000a81548163ffffffff021916908363ffffffff16021790555060208201518160000160046101000a81548163ffffffff021916908363ffffffff16021790555060408201518160000160086101000a81548163ffffffff021916908363ffffffff160217905550606082015181600001600c6101000a81548163ffffffff021916908363ffffffff16021790555060808201518160000160106101000a81548163ffffffff021916908363ffffffff16021790555060a08201518160000160146101000a81548163ffffffff021916908363ffffffff160217905550505050505060036040518060e001604052806040518060400160405280600781526020017f4d61726f77616b000000000000000000000000000000000000000000000000008152508152602001606981526020016040518060400160405280600681526020017f47726f756e64000000000000000000000000000000000000000000000000000081525081526020016040518060400160405280600381526020017f6e616e000000000000000000000000000000000000000000000000000000000081525081526020016101db81526020016000151581526020016040518060c00160405280603c63ffffffff168152602001605063ffffffff168152602001606e63ffffffff168152602001603263ffffffff168152602001605063ffffffff168152602001602d63ffffffff1681525081525090806001815401808255809150509060018203906000526020600020906007020160009091929091909150600082015181600001908051906020019062012faa9291906201d9fe565b5060208201518160010155604082015181600201908051906020019062012fd39291906201d9fe565b50606082015181600301908051906020019062012ff29291906201d9fe565b506080820151816004015560a08201518160050160006101000a81548160ff02191690831515021790555060c08201518160060160008201518160000160006101000a81548163ffffffff021916908363ffffffff16021790555060208201518160000160046101000a81548163ffffffff021916908363ffffffff16021790555060408201518160000160086101000a81548163ffffffff021916908363ffffffff160217905550606082015181600001600c6101000a81548163ffffffff021916908363ffffffff16021790555060808201518160000160106101000a81548163ffffffff021916908363ffffffff16021790555060a08201518160000160146101000a81548163ffffffff021916908363ffffffff160217905550505050505060036040518060e001604052806040518060400160405280600981526020017f4869746d6f6e6c656500000000000000000000000000000000000000000000008152508152602001606a81526020016040518060400160405280600881526020017f4669676874696e6700000000000000000000000000000000000000000000000081525081526020016040518060400160405280600381526020017f6e616e000000000000000000000000000000000000000000000000000000000081525081526020016101bd81526020016000151581526020016040518060c00160405280603263ffffffff168152602001607863ffffffff168152602001603563ffffffff168152602001602363ffffffff168152602001606e63ffffffff168152602001605763ffffffff168152508152509080600181540180825580915050906001820390600052602060002090600702016000909192909190915060008201518160000190805190602001906201328e9291906201d9fe565b50602082015181600101556040820151816002019080519060200190620132b79291906201d9fe565b506060820151816003019080519060200190620132d69291906201d9fe565b506080820151816004015560a08201518160050160006101000a81548160ff02191690831515021790555060c08201518160060160008201518160000160006101000a81548163ffffffff021916908363ffffffff16021790555060208201518160000160046101000a81548163ffffffff021916908363ffffffff16021790555060408201518160000160086101000a81548163ffffffff021916908363ffffffff160217905550606082015181600001600c6101000a81548163ffffffff021916908363ffffffff16021790555060808201518160000160106101000a81548163ffffffff021916908363ffffffff16021790555060a08201518160000160146101000a81548163ffffffff021916908363ffffffff160217905550505050505060036040518060e001604052806040518060400160405280600a81526020017f4869746d6f6e6368616e000000000000000000000000000000000000000000008152508152602001606b81526020016040518060400160405280600881526020017f4669676874696e6700000000000000000000000000000000000000000000000081525081526020016040518060400160405280600381526020017f6e616e000000000000000000000000000000000000000000000000000000000081525081526020016101bd81526020016000151581526020016040518060c00160405280603263ffffffff168152602001606963ffffffff168152602001604f63ffffffff168152602001602363ffffffff168152602001606e63ffffffff168152602001604c63ffffffff16815250815250908060018154018082558091505090600182039060005260206000209060070201600090919290919091506000820151816000019080519060200190620135729291906201d9fe565b506020820151816001015560408201518160020190805190602001906201359b9291906201d9fe565b506060820151816003019080519060200190620135ba9291906201d9fe565b506080820151816004015560a08201518160050160006101000a81548160ff02191690831515021790555060c08201518160060160008201518160000160006101000a81548163ffffffff021916908363ffffffff16021790555060208201518160000160046101000a81548163ffffffff021916908363ffffffff16021790555060408201518160000160086101000a81548163ffffffff021916908363ffffffff160217905550606082015181600001600c6101000a81548163ffffffff021916908363ffffffff16021790555060808201518160000160106101000a81548163ffffffff021916908363ffffffff16021790555060a08201518160000160146101000a81548163ffffffff021916908363ffffffff160217905550505050505060036040518060e001604052806040518060400160405280600981526020017f4c69636b6974756e6700000000000000000000000000000000000000000000008152508152602001606c81526020016040518060400160405280600681526020017f4e6f726d616c000000000000000000000000000000000000000000000000000081525081526020016040518060400160405280600381526020017f6e616e0000000000000000000000000000000000000000000000000000000000815250815260200161020381526020016000151581526020016040518060c00160405280605a63ffffffff168152602001603763ffffffff168152602001604b63ffffffff168152602001603c63ffffffff168152602001604b63ffffffff168152602001601e63ffffffff16815250815250908060018154018082558091505090600182039060005260206000209060070201600090919290919091506000820151816000019080519060200190620138569291906201d9fe565b506020820151816001015560408201518160020190805190602001906201387f9291906201d9fe565b5060608201518160030190805190602001906201389e9291906201d9fe565b506080820151816004015560a08201518160050160006101000a81548160ff02191690831515021790555060c08201518160060160008201518160000160006101000a81548163ffffffff021916908363ffffffff16021790555060208201518160000160046101000a81548163ffffffff021916908363ffffffff16021790555060408201518160000160086101000a81548163ffffffff021916908363ffffffff160217905550606082015181600001600c6101000a81548163ffffffff021916908363ffffffff16021790555060808201518160000160106101000a81548163ffffffff021916908363ffffffff16021790555060a08201518160000160146101000a81548163ffffffff021916908363ffffffff160217905550505050505060036040518060e001604052806040518060400160405280600781526020017f4b6f6666696e67000000000000000000000000000000000000000000000000008152508152602001606d81526020016040518060400160405280600681526020017f506f69736f6e000000000000000000000000000000000000000000000000000081525081526020016040518060400160405280600381526020017f6e616e0000000000000000000000000000000000000000000000000000000000815250815260200161023081526020016000151581526020016040518060c00160405280602863ffffffff168152602001604163ffffffff168152602001605f63ffffffff168152602001603c63ffffffff168152602001602d63ffffffff168152602001602363ffffffff1681525081525090806001815401808255809150509060018203906000526020600020906007020160009091929091909150600082015181600001908051906020019062013b3a9291906201d9fe565b5060208201518160010155604082015181600201908051906020019062013b639291906201d9fe565b50606082015181600301908051906020019062013b829291906201d9fe565b506080820151816004015560a08201518160050160006101000a81548160ff02191690831515021790555060c08201518160060160008201518160000160006101000a81548163ffffffff021916908363ffffffff16021790555060208201518160000160046101000a81548163ffffffff021916908363ffffffff16021790555060408201518160000160086101000a81548163ffffffff021916908363ffffffff160217905550606082015181600001600c6101000a81548163ffffffff021916908363ffffffff16021790555060808201518160000160106101000a81548163ffffffff021916908363ffffffff16021790555060a08201518160000160146101000a81548163ffffffff021916908363ffffffff160217905550505050505060036040518060e001604052806040518060400160405280600781526020017f5765657a696e67000000000000000000000000000000000000000000000000008152508152602001606e81526020016040518060400160405280600681526020017f506f69736f6e000000000000000000000000000000000000000000000000000081525081526020016040518060400160405280600381526020017f6e616e0000000000000000000000000000000000000000000000000000000000815250815260200161019a81526020016000151581526020016040518060c00160405280604163ffffffff168152602001605a63ffffffff168152602001607863ffffffff168152602001605563ffffffff168152602001604663ffffffff168152602001603c63ffffffff1681525081525090806001815401808255809150509060018203906000526020600020906007020160009091929091909150600082015181600001908051906020019062013e1e9291906201d9fe565b5060208201518160010155604082015181600201908051906020019062013e479291906201d9fe565b50606082015181600301908051906020019062013e669291906201d9fe565b506080820151816004015560a08201518160050160006101000a81548160ff02191690831515021790555060c08201518160060160008201518160000160006101000a81548163ffffffff021916908363ffffffff16021790555060208201518160000160046101000a81548163ffffffff021916908363ffffffff16021790555060408201518160000160086101000a81548163ffffffff021916908363ffffffff160217905550606082015181600001600c6101000a81548163ffffffff021916908363ffffffff16021790555060808201518160000160106101000a81548163ffffffff021916908363ffffffff16021790555060a08201518160000160146101000a81548163ffffffff021916908363ffffffff160217905550505050505060036040518060e001604052806040518060400160405280600781526020017f526879686f726e000000000000000000000000000000000000000000000000008152508152602001606f81526020016040518060400160405280600681526020017f47726f756e64000000000000000000000000000000000000000000000000000081525081526020016040518060400160405280600481526020017f526f636b00000000000000000000000000000000000000000000000000000000815250815260200161022b81526020016000151581526020016040518060c00160405280605063ffffffff168152602001605563ffffffff168152602001605f63ffffffff168152602001601e63ffffffff168152602001601e63ffffffff168152602001601963ffffffff16815250815250908060018154018082558091505090600182039060005260206000209060070201600090919290919091506000820151816000019080519060200190620141029291906201d9fe565b506020820151816001015560408201518160020190805190602001906201412b9291906201d9fe565b5060608201518160030190805190602001906201414a9291906201d9fe565b506080820151816004015560a08201518160050160006101000a81548160ff02191690831515021790555060c08201518160060160008201518160000160006101000a81548163ffffffff021916908363ffffffff16021790555060208201518160000160046101000a81548163ffffffff021916908363ffffffff16021790555060408201518160000160086101000a81548163ffffffff021916908363ffffffff160217905550606082015181600001600c6101000a81548163ffffffff021916908363ffffffff16021790555060808201518160000160106101000a81548163ffffffff021916908363ffffffff16021790555060a08201518160000160146101000a81548163ffffffff021916908363ffffffff160217905550505050505060036040518060e001604052806040518060400160405280600681526020017f526879646f6e00000000000000000000000000000000000000000000000000008152508152602001607081526020016040518060400160405280600681526020017f47726f756e64000000000000000000000000000000000000000000000000000081525081526020016040518060400160405280600481526020017f526f636b00000000000000000000000000000000000000000000000000000000815250815260200161019f81526020016000151581526020016040518060c00160405280606963ffffffff168152602001608263ffffffff168152602001607863ffffffff168152602001602d63ffffffff168152602001602d63ffffffff168152602001602863ffffffff16815250815250908060018154018082558091505090600182039060005260206000209060070201600090919290919091506000820151816000019080519060200190620143e69291906201d9fe565b506020820151816001015560408201518160020190805190602001906201440f9291906201d9fe565b5060608201518160030190805190602001906201442e9291906201d9fe565b506080820151816004015560a08201518160050160006101000a81548160ff02191690831515021790555060c08201518160060160008201518160000160006101000a81548163ffffffff021916908363ffffffff16021790555060208201518160000160046101000a81548163ffffffff021916908363ffffffff16021790555060408201518160000160086101000a81548163ffffffff021916908363ffffffff160217905550606082015181600001600c6101000a81548163ffffffff021916908363ffffffff16021790555060808201518160000160106101000a81548163ffffffff021916908363ffffffff16021790555060a08201518160000160146101000a81548163ffffffff021916908363ffffffff160217905550505050505060036040518060e001604052806040518060400160405280600781526020017f4368616e736579000000000000000000000000000000000000000000000000008152508152602001607181526020016040518060400160405280600681526020017f4e6f726d616c000000000000000000000000000000000000000000000000000081525081526020016040518060400160405280600381526020017f6e616e000000000000000000000000000000000000000000000000000000000081525081526020016101c281526020016000151581526020016040518060c0016040528060fa63ffffffff168152602001600563ffffffff168152602001600563ffffffff168152602001602363ffffffff168152602001606963ffffffff168152602001603263ffffffff16815250815250908060018154018082558091505090600182039060005260206000209060070201600090919290919091506000820151816000019080519060200190620146ca9291906201d9fe565b50602082015181600101556040820151816002019080519060200190620146f39291906201d9fe565b506060820151816003019080519060200190620147129291906201d9fe565b506080820151816004015560a08201518160050160006101000a81548160ff02191690831515021790555060c08201518160060160008201518160000160006101000a81548163ffffffff021916908363ffffffff16021790555060208201518160000160046101000a81548163ffffffff021916908363ffffffff16021790555060408201518160000160086101000a81548163ffffffff021916908363ffffffff160217905550606082015181600001600c6101000a81548163ffffffff021916908363ffffffff16021790555060808201518160000160106101000a81548163ffffffff021916908363ffffffff16021790555060a08201518160000160146101000a81548163ffffffff021916908363ffffffff160217905550505050505060036040518060e001604052806040518060400160405280600781526020017f54616e67656c61000000000000000000000000000000000000000000000000008152508152602001607281526020016040518060400160405280600581526020017f477261737300000000000000000000000000000000000000000000000000000081525081526020016040518060400160405280600381526020017f6e616e000000000000000000000000000000000000000000000000000000000081525081526020016101d181526020016000151581526020016040518060c00160405280604163ffffffff168152602001603763ffffffff168152602001607363ffffffff168152602001606463ffffffff168152602001602863ffffffff168152602001603c63ffffffff16815250815250908060018154018082558091505090600182039060005260206000209060070201600090919290919091506000820151816000019080519060200190620149ae9291906201d9fe565b50602082015181600101556040820151816002019080519060200190620149d79291906201d9fe565b506060820151816003019080519060200190620149f69291906201d9fe565b506080820151816004015560a08201518160050160006101000a81548160ff02191690831515021790555060c08201518160060160008201518160000160006101000a81548163ffffffff021916908363ffffffff16021790555060208201518160000160046101000a81548163ffffffff021916908363ffffffff16021790555060408201518160000160086101000a81548163ffffffff021916908363ffffffff160217905550606082015181600001600c6101000a81548163ffffffff021916908363ffffffff16021790555060808201518160000160106101000a81548163ffffffff021916908363ffffffff16021790555060a08201518160000160146101000a81548163ffffffff021916908363ffffffff160217905550505050505060036040518060e001604052806040518060400160405280600a81526020017f4b616e6761736b68616e000000000000000000000000000000000000000000008152508152602001607381526020016040518060400160405280600681526020017f4e6f726d616c000000000000000000000000000000000000000000000000000081525081526020016040518060400160405280600381526020017f6e616e0000000000000000000000000000000000000000000000000000000000815250815260200161019a81526020016000151581526020016040518060c00160405280606963ffffffff168152602001605f63ffffffff168152602001605063ffffffff168152602001602863ffffffff168152602001605063ffffffff168152602001605a63ffffffff1681525081525090806001815401808255809150509060018203906000526020600020906007020160009091929091909150600082015181600001908051906020019062014c929291906201d9fe565b5060208201518160010155604082015181600201908051906020019062014cbb9291906201d9fe565b50606082015181600301908051906020019062014cda9291906201d9fe565b506080820151816004015560a08201518160050160006101000a81548160ff02191690831515021790555060c08201518160060160008201518160000160006101000a81548163ffffffff021916908363ffffffff16021790555060208201518160000160046101000a81548163ffffffff021916908363ffffffff16021790555060408201518160000160086101000a81548163ffffffff021916908363ffffffff160217905550606082015181600001600c6101000a81548163ffffffff021916908363ffffffff16021790555060808201518160000160106101000a81548163ffffffff021916908363ffffffff16021790555060a08201518160000160146101000a81548163ffffffff021916908363ffffffff160217905550505050505060036040518060e001604052806040518060400160405280600681526020017f486f7273656100000000000000000000000000000000000000000000000000008152508152602001607481526020016040518060400160405280600581526020017f576174657200000000000000000000000000000000000000000000000000000081525081526020016040518060400160405280600381526020017f6e616e0000000000000000000000000000000000000000000000000000000000815250815260200161025d81526020016000151581526020016040518060c00160405280601e63ffffffff168152602001602863ffffffff168152602001604663ffffffff168152602001604663ffffffff168152602001601963ffffffff168152602001603c63ffffffff1681525081525090806001815401808255809150509060018203906000526020600020906007020160009091929091909150600082015181600001908051906020019062014f769291906201d9fe565b5060208201518160010155604082015181600201908051906020019062014f9f9291906201d9fe565b50606082015181600301908051906020019062014fbe9291906201d9fe565b506080820151816004015560a08201518160050160006101000a81548160ff02191690831515021790555060c08201518160060160008201518160000160006101000a81548163ffffffff021916908363ffffffff16021790555060208201518160000160046101000a81548163ffffffff021916908363ffffffff16021790555060408201518160000160086101000a81548163ffffffff021916908363ffffffff160217905550606082015181600001600c6101000a81548163ffffffff021916908363ffffffff16021790555060808201518160000160106101000a81548163ffffffff021916908363ffffffff16021790555060a08201518160000160146101000a81548163ffffffff021916908363ffffffff160217905550505050505060036040518060e001604052806040518060400160405280600681526020017f53656164726100000000000000000000000000000000000000000000000000008152508152602001607581526020016040518060400160405280600581526020017f576174657200000000000000000000000000000000000000000000000000000081525081526020016040518060400160405280600381526020017f6e616e000000000000000000000000000000000000000000000000000000000081525081526020016101cc81526020016000151581526020016040518060c00160405280603763ffffffff168152602001604163ffffffff168152602001605f63ffffffff168152602001605f63ffffffff168152602001602d63ffffffff168152602001605563ffffffff168152508152509080600181540180825580915050906001820390600052602060002090600702016000909192909190915060008201518160000190805190602001906201525a9291906201d9fe565b50602082015181600101556040820151816002019080519060200190620152839291906201d9fe565b506060820151816003019080519060200190620152a29291906201d9fe565b506080820151816004015560a08201518160050160006101000a81548160ff02191690831515021790555060c08201518160060160008201518160000160006101000a81548163ffffffff021916908363ffffffff16021790555060208201518160000160046101000a81548163ffffffff021916908363ffffffff16021790555060408201518160000160086101000a81548163ffffffff021916908363ffffffff160217905550606082015181600001600c6101000a81548163ffffffff021916908363ffffffff16021790555060808201518160000160106101000a81548163ffffffff021916908363ffffffff16021790555060a08201518160000160146101000a81548163ffffffff021916908363ffffffff160217905550505050505060036040518060e001604052806040518060400160405280600781526020017f476f6c6465656e000000000000000000000000000000000000000000000000008152508152602001607681526020016040518060400160405280600581526020017f576174657200000000000000000000000000000000000000000000000000000081525081526020016040518060400160405280600381526020017f6e616e0000000000000000000000000000000000000000000000000000000000815250815260200161024481526020016000151581526020016040518060c00160405280602d63ffffffff168152602001604363ffffffff168152602001603c63ffffffff168152602001602363ffffffff168152602001603263ffffffff168152602001603f63ffffffff168152508152509080600181540180825580915050906001820390600052602060002090600702016000909192909190915060008201518160000190805190602001906201553e9291906201d9fe565b50602082015181600101556040820151816002019080519060200190620155679291906201d9fe565b506060820151816003019080519060200190620155869291906201d9fe565b506080820151816004015560a08201518160050160006101000a81548160ff02191690831515021790555060c08201518160060160008201518160000160006101000a81548163ffffffff021916908363ffffffff16021790555060208201518160000160046101000a81548163ffffffff021916908363ffffffff16021790555060408201518160000160086101000a81548163ffffffff021916908363ffffffff160217905550606082015181600001600c6101000a81548163ffffffff021916908363ffffffff16021790555060808201518160000160106101000a81548163ffffffff021916908363ffffffff16021790555060a08201518160000160146101000a81548163ffffffff021916908363ffffffff160217905550505050505060036040518060e001604052806040518060400160405280600781526020017f5365616b696e67000000000000000000000000000000000000000000000000008152508152602001607781526020016040518060400160405280600581526020017f576174657200000000000000000000000000000000000000000000000000000081525081526020016040518060400160405280600381526020017f6e616e000000000000000000000000000000000000000000000000000000000081525081526020016101c281526020016000151581526020016040518060c00160405280605063ffffffff168152602001605c63ffffffff168152602001604163ffffffff168152602001604163ffffffff168152602001605063ffffffff168152602001604463ffffffff16815250815250908060018154018082558091505090600182039060005260206000209060070201600090919290919091506000820151816000019080519060200190620158229291906201d9fe565b506020820151816001015560408201518160020190805190602001906201584b9291906201d9fe565b5060608201518160030190805190602001906201586a9291906201d9fe565b506080820151816004015560a08201518160050160006101000a81548160ff02191690831515021790555060c08201518160060160008201518160000160006101000a81548163ffffffff021916908363ffffffff16021790555060208201518160000160046101000a81548163ffffffff021916908363ffffffff16021790555060408201518160000160086101000a81548163ffffffff021916908363ffffffff160217905550606082015181600001600c6101000a81548163ffffffff021916908363ffffffff16021790555060808201518160000160106101000a81548163ffffffff021916908363ffffffff16021790555060a08201518160000160146101000a81548163ffffffff021916908363ffffffff160217905550505050505060036040518060e001604052806040518060400160405280600681526020017f53746172797500000000000000000000000000000000000000000000000000008152508152602001607881526020016040518060400160405280600581526020017f576174657200000000000000000000000000000000000000000000000000000081525081526020016040518060400160405280600381526020017f6e616e0000000000000000000000000000000000000000000000000000000000815250815260200161023081526020016000151581526020016040518060c00160405280601e63ffffffff168152602001602d63ffffffff168152602001603763ffffffff168152602001604663ffffffff168152602001603763ffffffff168152602001605563ffffffff1681525081525090806001815401808255809150509060018203906000526020600020906007020160009091929091909150600082015181600001908051906020019062015b069291906201d9fe565b5060208201518160010155604082015181600201908051906020019062015b2f9291906201d9fe565b50606082015181600301908051906020019062015b4e9291906201d9fe565b506080820151816004015560a08201518160050160006101000a81548160ff02191690831515021790555060c08201518160060160008201518160000160006101000a81548163ffffffff021916908363ffffffff16021790555060208201518160000160046101000a81548163ffffffff021916908363ffffffff16021790555060408201518160000160086101000a81548163ffffffff021916908363ffffffff160217905550606082015181600001600c6101000a81548163ffffffff021916908363ffffffff16021790555060808201518160000160106101000a81548163ffffffff021916908363ffffffff16021790555060a08201518160000160146101000a81548163ffffffff021916908363ffffffff160217905550505050505060036040518060e001604052806040518060400160405280600781526020017f537461726d6965000000000000000000000000000000000000000000000000008152508152602001607981526020016040518060400160405280600581526020017f576174657200000000000000000000000000000000000000000000000000000081525081526020016040518060400160405280600781526020017f5073796368696300000000000000000000000000000000000000000000000000815250815260200161017c81526020016000151581526020016040518060c00160405280603c63ffffffff168152602001604b63ffffffff168152602001605563ffffffff168152602001606463ffffffff168152602001605563ffffffff168152602001607363ffffffff1681525081525090806001815401808255809150509060018203906000526020600020906007020160009091929091909150600082015181600001908051906020019062015dea9291906201d9fe565b5060208201518160010155604082015181600201908051906020019062015e139291906201d9fe565b50606082015181600301908051906020019062015e329291906201d9fe565b506080820151816004015560a08201518160050160006101000a81548160ff02191690831515021790555060c08201518160060160008201518160000160006101000a81548163ffffffff021916908363ffffffff16021790555060208201518160000160046101000a81548163ffffffff021916908363ffffffff16021790555060408201518160000160086101000a81548163ffffffff021916908363ffffffff160217905550606082015181600001600c6101000a81548163ffffffff021916908363ffffffff16021790555060808201518160000160106101000a81548163ffffffff021916908363ffffffff16021790555060a08201518160000160146101000a81548163ffffffff021916908363ffffffff160217905550505050505060036040518060e001604052806040518060400160405280600881526020017f4d722e204d696d650000000000000000000000000000000000000000000000008152508152602001607a81526020016040518060400160405280600781526020017f507379636869630000000000000000000000000000000000000000000000000081525081526020016040518060400160405280600581526020017f466169727900000000000000000000000000000000000000000000000000000081525081526020016101b881526020016000151581526020016040518060c00160405280602863ffffffff168152602001602d63ffffffff168152602001604163ffffffff168152602001606463ffffffff168152602001607863ffffffff168152602001605a63ffffffff16815250815250908060018154018082558091505090600182039060005260206000209060070201600090919290919091506000820151816000019080519060200190620160ce9291906201d9fe565b50602082015181600101556040820151816002019080519060200190620160f79291906201d9fe565b506060820151816003019080519060200190620161169291906201d9fe565b506080820151816004015560a08201518160050160006101000a81548160ff02191690831515021790555060c08201518160060160008201518160000160006101000a81548163ffffffff021916908363ffffffff16021790555060208201518160000160046101000a81548163ffffffff021916908363ffffffff16021790555060408201518160000160086101000a81548163ffffffff021916908363ffffffff160217905550606082015181600001600c6101000a81548163ffffffff021916908363ffffffff16021790555060808201518160000160106101000a81548163ffffffff021916908363ffffffff16021790555060a08201518160000160146101000a81548163ffffffff021916908363ffffffff160217905550505050505060036040518060e001604052806040518060400160405280600781526020017f53637974686572000000000000000000000000000000000000000000000000008152508152602001607b81526020016040518060400160405280600381526020017f427567000000000000000000000000000000000000000000000000000000000081525081526020016040518060400160405280600681526020017f466c79696e670000000000000000000000000000000000000000000000000000815250815260200161019081526020016000151581526020016040518060c00160405280604663ffffffff168152602001606e63ffffffff168152602001605063ffffffff168152602001603763ffffffff168152602001605063ffffffff168152602001606963ffffffff16815250815250908060018154018082558091505090600182039060005260206000209060070201600090919290919091506000820151816000019080519060200190620163b29291906201d9fe565b50602082015181600101556040820151816002019080519060200190620163db9291906201d9fe565b506060820151816003019080519060200190620163fa9291906201d9fe565b506080820151816004015560a08201518160050160006101000a81548160ff02191690831515021790555060c08201518160060160008201518160000160006101000a81548163ffffffff021916908363ffffffff16021790555060208201518160000160046101000a81548163ffffffff021916908363ffffffff16021790555060408201518160000160086101000a81548163ffffffff021916908363ffffffff160217905550606082015181600001600c6101000a81548163ffffffff021916908363ffffffff16021790555060808201518160000160106101000a81548163ffffffff021916908363ffffffff16021790555060a08201518160000160146101000a81548163ffffffff021916908363ffffffff160217905550505050505060036040518060e001604052806040518060400160405280600481526020017f4a796e78000000000000000000000000000000000000000000000000000000008152508152602001607c81526020016040518060400160405280600381526020017f496365000000000000000000000000000000000000000000000000000000000081525081526020016040518060400160405280600781526020017f507379636869630000000000000000000000000000000000000000000000000081525081526020016101bd81526020016000151581526020016040518060c00160405280604163ffffffff168152602001603263ffffffff168152602001602363ffffffff168152602001607363ffffffff168152602001605f63ffffffff168152602001605f63ffffffff16815250815250908060018154018082558091505090600182039060005260206000209060070201600090919290919091506000820151816000019080519060200190620166969291906201d9fe565b50602082015181600101556040820151816002019080519060200190620166bf9291906201d9fe565b506060820151816003019080519060200190620166de9291906201d9fe565b506080820151816004015560a08201518160050160006101000a81548160ff02191690831515021790555060c08201518160060160008201518160000160006101000a81548163ffffffff021916908363ffffffff16021790555060208201518160000160046101000a81548163ffffffff021916908363ffffffff16021790555060408201518160000160086101000a81548163ffffffff021916908363ffffffff160217905550606082015181600001600c6101000a81548163ffffffff021916908363ffffffff16021790555060808201518160000160106101000a81548163ffffffff021916908363ffffffff16021790555060a08201518160000160146101000a81548163ffffffff021916908363ffffffff160217905550505050505060036040518060e001604052806040518060400160405280600a81526020017f456c6563746162757a7a000000000000000000000000000000000000000000008152508152602001607d81526020016040518060400160405280600881526020017f456c65637472696300000000000000000000000000000000000000000000000081525081526020016040518060400160405280600381526020017f6e616e0000000000000000000000000000000000000000000000000000000000815250815260200161019a81526020016000151581526020016040518060c00160405280604163ffffffff168152602001605363ffffffff168152602001603963ffffffff168152602001605f63ffffffff168152602001605563ffffffff168152602001606963ffffffff168152508152509080600181540180825580915050906001820390600052602060002090600702016000909192909190915060008201518160000190805190602001906201697a9291906201d9fe565b50602082015181600101556040820151816002019080519060200190620169a39291906201d9fe565b506060820151816003019080519060200190620169c29291906201d9fe565b506080820151816004015560a08201518160050160006101000a81548160ff02191690831515021790555060c08201518160060160008201518160000160006101000a81548163ffffffff021916908363ffffffff16021790555060208201518160000160046101000a81548163ffffffff021916908363ffffffff16021790555060408201518160000160086101000a81548163ffffffff021916908363ffffffff160217905550606082015181600001600c6101000a81548163ffffffff021916908363ffffffff16021790555060808201518160000160106101000a81548163ffffffff021916908363ffffffff16021790555060a08201518160000160146101000a81548163ffffffff021916908363ffffffff160217905550505050505060036040518060e001604052806040518060400160405280600681526020017f4d61676d617200000000000000000000000000000000000000000000000000008152508152602001607e81526020016040518060400160405280600481526020017f466972650000000000000000000000000000000000000000000000000000000081525081526020016040518060400160405280600381526020017f6e616e0000000000000000000000000000000000000000000000000000000000815250815260200161019581526020016000151581526020016040518060c00160405280604163ffffffff168152602001605f63ffffffff168152602001603963ffffffff168152602001606463ffffffff168152602001605563ffffffff168152602001605d63ffffffff1681525081525090806001815401808255809150509060018203906000526020600020906007020160009091929091909150600082015181600001908051906020019062016c5e9291906201d9fe565b5060208201518160010155604082015181600201908051906020019062016c879291906201d9fe565b50606082015181600301908051906020019062016ca69291906201d9fe565b506080820151816004015560a08201518160050160006101000a81548160ff02191690831515021790555060c08201518160060160008201518160000160006101000a81548163ffffffff021916908363ffffffff16021790555060208201518160000160046101000a81548163ffffffff021916908363ffffffff16021790555060408201518160000160086101000a81548163ffffffff021916908363ffffffff160217905550606082015181600001600c6101000a81548163ffffffff021916908363ffffffff16021790555060808201518160000160106101000a81548163ffffffff021916908363ffffffff16021790555060a08201518160000160146101000a81548163ffffffff021916908363ffffffff160217905550505050505060036040518060e001604052806040518060400160405280600681526020017f50696e73697200000000000000000000000000000000000000000000000000008152508152602001607f81526020016040518060400160405280600381526020017f427567000000000000000000000000000000000000000000000000000000000081525081526020016040518060400160405280600381526020017f6e616e0000000000000000000000000000000000000000000000000000000000815250815260200161019081526020016000151581526020016040518060c00160405280604163ffffffff168152602001607d63ffffffff168152602001606463ffffffff168152602001603763ffffffff168152602001604663ffffffff168152602001605563ffffffff1681525081525090806001815401808255809150509060018203906000526020600020906007020160009091929091909150600082015181600001908051906020019062016f429291906201d9fe565b5060208201518160010155604082015181600201908051906020019062016f6b9291906201d9fe565b50606082015181600301908051906020019062016f8a9291906201d9fe565b506080820151816004015560a08201518160050160006101000a81548160ff02191690831515021790555060c08201518160060160008201518160000160006101000a81548163ffffffff021916908363ffffffff16021790555060208201518160000160046101000a81548163ffffffff021916908363ffffffff16021790555060408201518160000160086101000a81548163ffffffff021916908363ffffffff160217905550606082015181600001600c6101000a81548163ffffffff021916908363ffffffff16021790555060808201518160000160106101000a81548163ffffffff021916908363ffffffff16021790555060a08201518160000160146101000a81548163ffffffff021916908363ffffffff160217905550505050505060036040518060e001604052806040518060400160405280600681526020017f546175726f7300000000000000000000000000000000000000000000000000008152508152602001608081526020016040518060400160405280600681526020017f4e6f726d616c000000000000000000000000000000000000000000000000000081525081526020016040518060400160405280600381526020017f6e616e0000000000000000000000000000000000000000000000000000000000815250815260200161019a81526020016000151581526020016040518060c00160405280604b63ffffffff168152602001606463ffffffff168152602001605f63ffffffff168152602001602863ffffffff168152602001604663ffffffff168152602001606e63ffffffff16815250815250908060018154018082558091505090600182039060005260206000209060070201600090919290919091506000820151816000019080519060200190620172269291906201d9fe565b506020820151816001015560408201518160020190805190602001906201724f9291906201d9fe565b5060608201518160030190805190602001906201726e9291906201d9fe565b506080820151816004015560a08201518160050160006101000a81548160ff02191690831515021790555060c08201518160060160008201518160000160006101000a81548163ffffffff021916908363ffffffff16021790555060208201518160000160046101000a81548163ffffffff021916908363ffffffff16021790555060408201518160000160086101000a81548163ffffffff021916908363ffffffff160217905550606082015181600001600c6101000a81548163ffffffff021916908363ffffffff16021790555060808201518160000160106101000a81548163ffffffff021916908363ffffffff16021790555060a08201518160000160146101000a81548163ffffffff021916908363ffffffff160217905550505050505060036040518060e001604052806040518060400160405280600881526020017f4d6167696b6172700000000000000000000000000000000000000000000000008152508152602001608181526020016040518060400160405280600581526020017f576174657200000000000000000000000000000000000000000000000000000081525081526020016040518060400160405280600381526020017f6e616e000000000000000000000000000000000000000000000000000000000081525081526020016102bc81526020016000151581526020016040518060c00160405280601463ffffffff168152602001600a63ffffffff168152602001603763ffffffff168152602001600f63ffffffff168152602001601463ffffffff168152602001605063ffffffff168152508152509080600181540180825580915050906001820390600052602060002090600702016000909192909190915060008201518160000190805190602001906201750a9291906201d9fe565b50602082015181600101556040820151816002019080519060200190620175339291906201d9fe565b506060820151816003019080519060200190620175529291906201d9fe565b506080820151816004015560a08201518160050160006101000a81548160ff02191690831515021790555060c08201518160060160008201518160000160006101000a81548163ffffffff021916908363ffffffff16021790555060208201518160000160046101000a81548163ffffffff021916908363ffffffff16021790555060408201518160000160086101000a81548163ffffffff021916908363ffffffff160217905550606082015181600001600c6101000a81548163ffffffff021916908363ffffffff16021790555060808201518160000160106101000a81548163ffffffff021916908363ffffffff16021790555060a08201518160000160146101000a81548163ffffffff021916908363ffffffff160217905550505050505060036040518060e001604052806040518060400160405280600881526020017f4779617261646f730000000000000000000000000000000000000000000000008152508152602001608281526020016040518060400160405280600581526020017f576174657200000000000000000000000000000000000000000000000000000081525081526020016040518060400160405280600681526020017f466c79696e670000000000000000000000000000000000000000000000000000815250815260200161016881526020016000151581526020016040518060c00160405280605f63ffffffff168152602001607d63ffffffff168152602001604f63ffffffff168152602001603c63ffffffff168152602001606463ffffffff168152602001605163ffffffff16815250815250908060018154018082558091505090600182039060005260206000209060070201600090919290919091506000820151816000019080519060200190620177ee9291906201d9fe565b50602082015181600101556040820151816002019080519060200190620178179291906201d9fe565b506060820151816003019080519060200190620178369291906201d9fe565b506080820151816004015560a08201518160050160006101000a81548160ff02191690831515021790555060c08201518160060160008201518160000160006101000a81548163ffffffff021916908363ffffffff16021790555060208201518160000160046101000a81548163ffffffff021916908363ffffffff16021790555060408201518160000160086101000a81548163ffffffff021916908363ffffffff160217905550606082015181600001600c6101000a81548163ffffffff021916908363ffffffff16021790555060808201518160000160106101000a81548163ffffffff021916908363ffffffff16021790555060a08201518160000160146101000a81548163ffffffff021916908363ffffffff160217905550505050505060036040518060e001604052806040518060400160405280600681526020017f4c617072617300000000000000000000000000000000000000000000000000008152508152602001608381526020016040518060400160405280600581526020017f576174657200000000000000000000000000000000000000000000000000000081525081526020016040518060400160405280600381526020017f4963650000000000000000000000000000000000000000000000000000000000815250815260200161016d81526020016000151581526020016040518060c00160405280608263ffffffff168152602001605563ffffffff168152602001605063ffffffff168152602001605563ffffffff168152602001605f63ffffffff168152602001603c63ffffffff1681525081525090806001815401808255809150509060018203906000526020600020906007020160009091929091909150600082015181600001908051906020019062017ad29291906201d9fe565b5060208201518160010155604082015181600201908051906020019062017afb9291906201d9fe565b50606082015181600301908051906020019062017b1a9291906201d9fe565b506080820151816004015560a08201518160050160006101000a81548160ff02191690831515021790555060c08201518160060160008201518160000160006101000a81548163ffffffff021916908363ffffffff16021790555060208201518160000160046101000a81548163ffffffff021916908363ffffffff16021790555060408201518160000160086101000a81548163ffffffff021916908363ffffffff160217905550606082015181600001600c6101000a81548163ffffffff021916908363ffffffff16021790555060808201518160000160106101000a81548163ffffffff021916908363ffffffff16021790555060a08201518160000160146101000a81548163ffffffff021916908363ffffffff160217905550505050505060036040518060e001604052806040518060400160405280600581526020017f446974746f0000000000000000000000000000000000000000000000000000008152508152602001608481526020016040518060400160405280600681526020017f4e6f726d616c000000000000000000000000000000000000000000000000000081525081526020016040518060400160405280600381526020017f6e616e0000000000000000000000000000000000000000000000000000000000815250815260200161026481526020016000151581526020016040518060c00160405280603063ffffffff168152602001603063ffffffff168152602001603063ffffffff168152602001603063ffffffff168152602001603063ffffffff168152602001603063ffffffff1681525081525090806001815401808255809150509060018203906000526020600020906007020160009091929091909150600082015181600001908051906020019062017db69291906201d9fe565b5060208201518160010155604082015181600201908051906020019062017ddf9291906201d9fe565b50606082015181600301908051906020019062017dfe9291906201d9fe565b506080820151816004015560a08201518160050160006101000a81548160ff02191690831515021790555060c08201518160060160008201518160000160006101000a81548163ffffffff021916908363ffffffff16021790555060208201518160000160046101000a81548163ffffffff021916908363ffffffff16021790555060408201518160000160086101000a81548163ffffffff021916908363ffffffff160217905550606082015181600001600c6101000a81548163ffffffff021916908363ffffffff16021790555060808201518160000160106101000a81548163ffffffff021916908363ffffffff16021790555060a08201518160000160146101000a81548163ffffffff021916908363ffffffff160217905550505050505060036040518060e001604052806040518060400160405280600581526020017f45657665650000000000000000000000000000000000000000000000000000008152508152602001608581526020016040518060400160405280600681526020017f4e6f726d616c000000000000000000000000000000000000000000000000000081525081526020016040518060400160405280600381526020017f6e616e0000000000000000000000000000000000000000000000000000000000815250815260200161023f81526020016000151581526020016040518060c00160405280603763ffffffff168152602001603763ffffffff168152602001603263ffffffff168152602001602d63ffffffff168152602001604163ffffffff168152602001603763ffffffff168152508152509080600181540180825580915050906001820390600052602060002090600702016000909192909190915060008201518160000190805190602001906201809a9291906201d9fe565b50602082015181600101556040820151816002019080519060200190620180c39291906201d9fe565b506060820151816003019080519060200190620180e29291906201d9fe565b506080820151816004015560a08201518160050160006101000a81548160ff02191690831515021790555060c08201518160060160008201518160000160006101000a81548163ffffffff021916908363ffffffff16021790555060208201518160000160046101000a81548163ffffffff021916908363ffffffff16021790555060408201518160000160086101000a81548163ffffffff021916908363ffffffff160217905550606082015181600001600c6101000a81548163ffffffff021916908363ffffffff16021790555060808201518160000160106101000a81548163ffffffff021916908363ffffffff16021790555060a08201518160000160146101000a81548163ffffffff021916908363ffffffff160217905550505050505060036040518060e001604052806040518060400160405280600881526020017f5661706f72656f6e0000000000000000000000000000000000000000000000008152508152602001608681526020016040518060400160405280600581526020017f576174657200000000000000000000000000000000000000000000000000000081525081526020016040518060400160405280600381526020017f6e616e0000000000000000000000000000000000000000000000000000000000815250815260200161017781526020016000151581526020016040518060c00160405280608263ffffffff168152602001604163ffffffff168152602001603c63ffffffff168152602001606e63ffffffff168152602001605f63ffffffff168152602001604163ffffffff168152508152509080600181540180825580915050906001820390600052602060002090600702016000909192909190915060008201518160000190805190602001906201837e9291906201d9fe565b50602082015181600101556040820151816002019080519060200190620183a79291906201d9fe565b506060820151816003019080519060200190620183c69291906201d9fe565b506080820151816004015560a08201518160050160006101000a81548160ff02191690831515021790555060c08201518160060160008201518160000160006101000a81548163ffffffff021916908363ffffffff16021790555060208201518160000160046101000a81548163ffffffff021916908363ffffffff16021790555060408201518160000160086101000a81548163ffffffff021916908363ffffffff160217905550606082015181600001600c6101000a81548163ffffffff021916908363ffffffff16021790555060808201518160000160106101000a81548163ffffffff021916908363ffffffff16021790555060a08201518160000160146101000a81548163ffffffff021916908363ffffffff160217905550505050505060036040518060e001604052806040518060400160405280600781526020017f4a6f6c74656f6e000000000000000000000000000000000000000000000000008152508152602001608781526020016040518060400160405280600881526020017f456c65637472696300000000000000000000000000000000000000000000000081525081526020016040518060400160405280600381526020017f6e616e0000000000000000000000000000000000000000000000000000000000815250815260200161017781526020016000151581526020016040518060c00160405280604163ffffffff168152602001604163ffffffff168152602001603c63ffffffff168152602001606e63ffffffff168152602001605f63ffffffff168152602001608263ffffffff16815250815250908060018154018082558091505090600182039060005260206000209060070201600090919290919091506000820151816000019080519060200190620186629291906201d9fe565b506020820151816001015560408201518160020190805190602001906201868b9291906201d9fe565b506060820151816003019080519060200190620186aa9291906201d9fe565b506080820151816004015560a08201518160050160006101000a81548160ff02191690831515021790555060c08201518160060160008201518160000160006101000a81548163ffffffff021916908363ffffffff16021790555060208201518160000160046101000a81548163ffffffff021916908363ffffffff16021790555060408201518160000160086101000a81548163ffffffff021916908363ffffffff160217905550606082015181600001600c6101000a81548163ffffffff021916908363ffffffff16021790555060808201518160000160106101000a81548163ffffffff021916908363ffffffff16021790555060a08201518160000160146101000a81548163ffffffff021916908363ffffffff160217905550505050505060036040518060e001604052806040518060400160405280600781526020017f466c6172656f6e000000000000000000000000000000000000000000000000008152508152602001608881526020016040518060400160405280600481526020017f466972650000000000000000000000000000000000000000000000000000000081525081526020016040518060400160405280600381526020017f6e616e0000000000000000000000000000000000000000000000000000000000815250815260200161017781526020016000151581526020016040518060c00160405280604163ffffffff168152602001608263ffffffff168152602001603c63ffffffff168152602001605f63ffffffff168152602001606e63ffffffff168152602001604163ffffffff16815250815250908060018154018082558091505090600182039060005260206000209060070201600090919290919091506000820151816000019080519060200190620189469291906201d9fe565b506020820151816001015560408201518160020190805190602001906201896f9291906201d9fe565b5060608201518160030190805190602001906201898e9291906201d9fe565b506080820151816004015560a08201518160050160006101000a81548160ff02191690831515021790555060c08201518160060160008201518160000160006101000a81548163ffffffff021916908363ffffffff16021790555060208201518160000160046101000a81548163ffffffff021916908363ffffffff16021790555060408201518160000160086101000a81548163ffffffff021916908363ffffffff160217905550606082015181600001600c6101000a81548163ffffffff021916908363ffffffff16021790555060808201518160000160106101000a81548163ffffffff021916908363ffffffff16021790555060a08201518160000160146101000a81548163ffffffff021916908363ffffffff160217905550505050505060036040518060e001604052806040518060400160405280600781526020017f506f7279676f6e000000000000000000000000000000000000000000000000008152508152602001608981526020016040518060400160405280600681526020017f4e6f726d616c000000000000000000000000000000000000000000000000000081525081526020016040518060400160405280600381526020017f6e616e000000000000000000000000000000000000000000000000000000000081525081526020016101f981526020016000151581526020016040518060c00160405280604163ffffffff168152602001603c63ffffffff168152602001604663ffffffff168152602001605563ffffffff168152602001604b63ffffffff168152602001602863ffffffff1681525081525090806001815401808255809150509060018203906000526020600020906007020160009091929091909150600082015181600001908051906020019062018c2a9291906201d9fe565b5060208201518160010155604082015181600201908051906020019062018c539291906201d9fe565b50606082015181600301908051906020019062018c729291906201d9fe565b506080820151816004015560a08201518160050160006101000a81548160ff02191690831515021790555060c08201518160060160008201518160000160006101000a81548163ffffffff021916908363ffffffff16021790555060208201518160000160046101000a81548163ffffffff021916908363ffffffff16021790555060408201518160000160086101000a81548163ffffffff021916908363ffffffff160217905550606082015181600001600c6101000a81548163ffffffff021916908363ffffffff16021790555060808201518160000160106101000a81548163ffffffff021916908363ffffffff16021790555060a08201518160000160146101000a81548163ffffffff021916908363ffffffff160217905550505050505060036040518060e001604052806040518060400160405280600781526020017f4f6d616e797465000000000000000000000000000000000000000000000000008152508152602001608a81526020016040518060400160405280600481526020017f526f636b0000000000000000000000000000000000000000000000000000000081525081526020016040518060400160405280600581526020017f5761746572000000000000000000000000000000000000000000000000000000815250815260200161022181526020016000151581526020016040518060c00160405280602363ffffffff168152602001602863ffffffff168152602001606463ffffffff168152602001605a63ffffffff168152602001603763ffffffff168152602001602363ffffffff1681525081525090806001815401808255809150509060018203906000526020600020906007020160009091929091909150600082015181600001908051906020019062018f0e9291906201d9fe565b5060208201518160010155604082015181600201908051906020019062018f379291906201d9fe565b50606082015181600301908051906020019062018f569291906201d9fe565b506080820151816004015560a08201518160050160006101000a81548160ff02191690831515021790555060c08201518160060160008201518160000160006101000a81548163ffffffff021916908363ffffffff16021790555060208201518160000160046101000a81548163ffffffff021916908363ffffffff16021790555060408201518160000160086101000a81548163ffffffff021916908363ffffffff160217905550606082015181600001600c6101000a81548163ffffffff021916908363ffffffff16021790555060808201518160000160106101000a81548163ffffffff021916908363ffffffff16021790555060a08201518160000160146101000a81548163ffffffff021916908363ffffffff160217905550505050505060036040518060e001604052806040518060400160405280600781526020017f4f6d6173746172000000000000000000000000000000000000000000000000008152508152602001608b81526020016040518060400160405280600481526020017f526f636b0000000000000000000000000000000000000000000000000000000081525081526020016040518060400160405280600581526020017f5761746572000000000000000000000000000000000000000000000000000000815250815260200161019581526020016000151581526020016040518060c00160405280604663ffffffff168152602001603c63ffffffff168152602001607d63ffffffff168152602001607363ffffffff168152602001604663ffffffff168152602001603763ffffffff16815250815250908060018154018082558091505090600182039060005260206000209060070201600090919290919091506000820151816000019080519060200190620191f29291906201d9fe565b506020820151816001015560408201518160020190805190602001906201921b9291906201d9fe565b5060608201518160030190805190602001906201923a9291906201d9fe565b506080820151816004015560a08201518160050160006101000a81548160ff02191690831515021790555060c08201518160060160008201518160000160006101000a81548163ffffffff021916908363ffffffff16021790555060208201518160000160046101000a81548163ffffffff021916908363ffffffff16021790555060408201518160000160086101000a81548163ffffffff021916908363ffffffff160217905550606082015181600001600c6101000a81548163ffffffff021916908363ffffffff16021790555060808201518160000160106101000a81548163ffffffff021916908363ffffffff16021790555060a08201518160000160146101000a81548163ffffffff021916908363ffffffff160217905550505050505060036040518060e001604052806040518060400160405280600681526020017f4b616275746f00000000000000000000000000000000000000000000000000008152508152602001608c81526020016040518060400160405280600481526020017f526f636b0000000000000000000000000000000000000000000000000000000081525081526020016040518060400160405280600581526020017f5761746572000000000000000000000000000000000000000000000000000000815250815260200161022181526020016000151581526020016040518060c00160405280601e63ffffffff168152602001605063ffffffff168152602001605a63ffffffff168152602001603763ffffffff168152602001602d63ffffffff168152602001603763ffffffff16815250815250908060018154018082558091505090600182039060005260206000209060070201600090919290919091506000820151816000019080519060200190620194d69291906201d9fe565b50602082015181600101556040820151816002019080519060200190620194ff9291906201d9fe565b5060608201518160030190805190602001906201951e9291906201d9fe565b506080820151816004015560a08201518160050160006101000a81548160ff02191690831515021790555060c08201518160060160008201518160000160006101000a81548163ffffffff021916908363ffffffff16021790555060208201518160000160046101000a81548163ffffffff021916908363ffffffff16021790555060408201518160000160086101000a81548163ffffffff021916908363ffffffff160217905550606082015181600001600c6101000a81548163ffffffff021916908363ffffffff16021790555060808201518160000160106101000a81548163ffffffff021916908363ffffffff16021790555060a08201518160000160146101000a81548163ffffffff021916908363ffffffff160217905550505050505060036040518060e001604052806040518060400160405280600881526020017f4b616275746f70730000000000000000000000000000000000000000000000008152508152602001608d81526020016040518060400160405280600481526020017f526f636b0000000000000000000000000000000000000000000000000000000081525081526020016040518060400160405280600581526020017f5761746572000000000000000000000000000000000000000000000000000000815250815260200161019581526020016000151581526020016040518060c00160405280603c63ffffffff168152602001607363ffffffff168152602001606963ffffffff168152602001604163ffffffff168152602001604663ffffffff168152602001605063ffffffff16815250815250908060018154018082558091505090600182039060005260206000209060070201600090919290919091506000820151816000019080519060200190620197ba9291906201d9fe565b50602082015181600101556040820151816002019080519060200190620197e39291906201d9fe565b506060820151816003019080519060200190620198029291906201d9fe565b506080820151816004015560a08201518160050160006101000a81548160ff02191690831515021790555060c08201518160060160008201518160000160006101000a81548163ffffffff021916908363ffffffff16021790555060208201518160000160046101000a81548163ffffffff021916908363ffffffff16021790555060408201518160000160086101000a81548163ffffffff021916908363ffffffff160217905550606082015181600001600c6101000a81548163ffffffff021916908363ffffffff16021790555060808201518160000160106101000a81548163ffffffff021916908363ffffffff16021790555060a08201518160000160146101000a81548163ffffffff021916908363ffffffff160217905550505050505060036040518060e001604052806040518060400160405280600a81526020017f4165726f64616374796c000000000000000000000000000000000000000000008152508152602001608e81526020016040518060400160405280600481526020017f526f636b0000000000000000000000000000000000000000000000000000000081525081526020016040518060400160405280600681526020017f466c79696e670000000000000000000000000000000000000000000000000000815250815260200161018181526020016000151581526020016040518060c00160405280605063ffffffff168152602001606963ffffffff168152602001604163ffffffff168152602001603c63ffffffff168152602001604b63ffffffff168152602001608263ffffffff1681525081525090806001815401808255809150509060018203906000526020600020906007020160009091929091909150600082015181600001908051906020019062019a9e9291906201d9fe565b5060208201518160010155604082015181600201908051906020019062019ac79291906201d9fe565b50606082015181600301908051906020019062019ae69291906201d9fe565b506080820151816004015560a08201518160050160006101000a81548160ff02191690831515021790555060c08201518160060160008201518160000160006101000a81548163ffffffff021916908363ffffffff16021790555060208201518160000160046101000a81548163ffffffff021916908363ffffffff16021790555060408201518160000160086101000a81548163ffffffff021916908363ffffffff160217905550606082015181600001600c6101000a81548163ffffffff021916908363ffffffff16021790555060808201518160000160106101000a81548163ffffffff021916908363ffffffff16021790555060a08201518160000160146101000a81548163ffffffff021916908363ffffffff160217905550505050505060036040518060e001604052806040518060400160405280600781526020017f536e6f726c6178000000000000000000000000000000000000000000000000008152508152602001608f81526020016040518060400160405280600681526020017f4e6f726d616c000000000000000000000000000000000000000000000000000081525081526020016040518060400160405280600381526020017f6e616e0000000000000000000000000000000000000000000000000000000000815250815260200161016881526020016000151581526020016040518060c0016040528060a063ffffffff168152602001606e63ffffffff168152602001604163ffffffff168152602001604163ffffffff168152602001606e63ffffffff168152602001601e63ffffffff1681525081525090806001815401808255809150509060018203906000526020600020906007020160009091929091909150600082015181600001908051906020019062019d829291906201d9fe565b5060208201518160010155604082015181600201908051906020019062019dab9291906201d9fe565b50606082015181600301908051906020019062019dca9291906201d9fe565b506080820151816004015560a08201518160050160006101000a81548160ff02191690831515021790555060c08201518160060160008201518160000160006101000a81548163ffffffff021916908363ffffffff16021790555060208201518160000160046101000a81548163ffffffff021916908363ffffffff16021790555060408201518160000160086101000a81548163ffffffff021916908363ffffffff160217905550606082015181600001600c6101000a81548163ffffffff021916908363ffffffff16021790555060808201518160000160106101000a81548163ffffffff021916908363ffffffff16021790555060a08201518160000160146101000a81548163ffffffff021916908363ffffffff160217905550505050505060036040518060e001604052806040518060400160405280600881526020017f4172746963756e6f0000000000000000000000000000000000000000000000008152508152602001609081526020016040518060400160405280600381526020017f496365000000000000000000000000000000000000000000000000000000000081525081526020016040518060400160405280600681526020017f466c79696e670000000000000000000000000000000000000000000000000000815250815260200161014081526020016001151581526020016040518060c00160405280605a63ffffffff168152602001605563ffffffff168152602001606463ffffffff168152602001605f63ffffffff168152602001607d63ffffffff168152602001605563ffffffff168152508152509080600181540180825580915050906001820390600052602060002090600702016000909192909190915060008201518160000190805190602001906201a0669291906201d9fe565b506020820151816001015560408201518160020190805190602001906201a08f9291906201d9fe565b5060608201518160030190805190602001906201a0ae9291906201d9fe565b506080820151816004015560a08201518160050160006101000a81548160ff02191690831515021790555060c08201518160060160008201518160000160006101000a81548163ffffffff021916908363ffffffff16021790555060208201518160000160046101000a81548163ffffffff021916908363ffffffff16021790555060408201518160000160086101000a81548163ffffffff021916908363ffffffff160217905550606082015181600001600c6101000a81548163ffffffff021916908363ffffffff16021790555060808201518160000160106101000a81548163ffffffff021916908363ffffffff16021790555060a08201518160000160146101000a81548163ffffffff021916908363ffffffff160217905550505050505060036040518060e001604052806040518060400160405280600681526020017f5a6170646f7300000000000000000000000000000000000000000000000000008152508152602001609181526020016040518060400160405280600881526020017f456c65637472696300000000000000000000000000000000000000000000000081525081526020016040518060400160405280600681526020017f466c79696e670000000000000000000000000000000000000000000000000000815250815260200161014081526020016001151581526020016040518060c00160405280605a63ffffffff168152602001605a63ffffffff168152602001605563ffffffff168152602001607d63ffffffff168152602001605a63ffffffff168152602001606463ffffffff168152508152509080600181540180825580915050906001820390600052602060002090600702016000909192909190915060008201518160000190805190602001906201a34a9291906201d9fe565b506020820151816001015560408201518160020190805190602001906201a3739291906201d9fe565b5060608201518160030190805190602001906201a3929291906201d9fe565b506080820151816004015560a08201518160050160006101000a81548160ff02191690831515021790555060c08201518160060160008201518160000160006101000a81548163ffffffff021916908363ffffffff16021790555060208201518160000160046101000a81548163ffffffff021916908363ffffffff16021790555060408201518160000160086101000a81548163ffffffff021916908363ffffffff160217905550606082015181600001600c6101000a81548163ffffffff021916908363ffffffff16021790555060808201518160000160106101000a81548163ffffffff021916908363ffffffff16021790555060a08201518160000160146101000a81548163ffffffff021916908363ffffffff160217905550505050505060036040518060e001604052806040518060400160405280600781526020017f4d6f6c74726573000000000000000000000000000000000000000000000000008152508152602001609281526020016040518060400160405280600481526020017f466972650000000000000000000000000000000000000000000000000000000081525081526020016040518060400160405280600681526020017f466c79696e670000000000000000000000000000000000000000000000000000815250815260200161014081526020016001151581526020016040518060c00160405280605a63ffffffff168152602001606463ffffffff168152602001605a63ffffffff168152602001607d63ffffffff168152602001605563ffffffff168152602001605a63ffffffff168152508152509080600181540180825580915050906001820390600052602060002090600702016000909192909190915060008201518160000190805190602001906201a62e9291906201d9fe565b506020820151816001015560408201518160020190805190602001906201a6579291906201d9fe565b5060608201518160030190805190602001906201a6769291906201d9fe565b506080820151816004015560a08201518160050160006101000a81548160ff02191690831515021790555060c08201518160060160008201518160000160006101000a81548163ffffffff021916908363ffffffff16021790555060208201518160000160046101000a81548163ffffffff021916908363ffffffff16021790555060408201518160000160086101000a81548163ffffffff021916908363ffffffff160217905550606082015181600001600c6101000a81548163ffffffff021916908363ffffffff16021790555060808201518160000160106101000a81548163ffffffff021916908363ffffffff16021790555060a08201518160000160146101000a81548163ffffffff021916908363ffffffff160217905550505050505060036040518060e001604052806040518060400160405280600781526020017f44726174696e69000000000000000000000000000000000000000000000000008152508152602001609381526020016040518060400160405280600681526020017f447261676f6e000000000000000000000000000000000000000000000000000081525081526020016040518060400160405280600381526020017f6e616e0000000000000000000000000000000000000000000000000000000000815250815260200161025881526020016000151581526020016040518060c00160405280602963ffffffff168152602001604063ffffffff168152602001602d63ffffffff168152602001603263ffffffff168152602001603263ffffffff168152602001603263ffffffff168152508152509080600181540180825580915050906001820390600052602060002090600702016000909192909190915060008201518160000190805190602001906201a9129291906201d9fe565b506020820151816001015560408201518160020190805190602001906201a93b9291906201d9fe565b5060608201518160030190805190602001906201a95a9291906201d9fe565b506080820151816004015560a08201518160050160006101000a81548160ff02191690831515021790555060c08201518160060160008201518160000160006101000a81548163ffffffff021916908363ffffffff16021790555060208201518160000160046101000a81548163ffffffff021916908363ffffffff16021790555060408201518160000160086101000a81548163ffffffff021916908363ffffffff160217905550606082015181600001600c6101000a81548163ffffffff021916908363ffffffff16021790555060808201518160000160106101000a81548163ffffffff021916908363ffffffff16021790555060a08201518160000160146101000a81548163ffffffff021916908363ffffffff160217905550505050505060036040518060e001604052806040518060400160405280600981526020017f447261676f6e61697200000000000000000000000000000000000000000000008152508152602001609481526020016040518060400160405280600681526020017f447261676f6e000000000000000000000000000000000000000000000000000081525081526020016040518060400160405280600381526020017f6e616e000000000000000000000000000000000000000000000000000000000081525081526020016101e081526020016000151581526020016040518060c00160405280603d63ffffffff168152602001605463ffffffff168152602001604163ffffffff168152602001604663ffffffff168152602001604663ffffffff168152602001604663ffffffff168152508152509080600181540180825580915050906001820390600052602060002090600702016000909192909190915060008201518160000190805190602001906201abf69291906201d9fe565b506020820151816001015560408201518160020190805190602001906201ac1f9291906201d9fe565b5060608201518160030190805190602001906201ac3e9291906201d9fe565b506080820151816004015560a08201518160050160006101000a81548160ff02191690831515021790555060c08201518160060160008201518160000160006101000a81548163ffffffff021916908363ffffffff16021790555060208201518160000160046101000a81548163ffffffff021916908363ffffffff16021790555060408201518160000160086101000a81548163ffffffff021916908363ffffffff160217905550606082015181600001600c6101000a81548163ffffffff021916908363ffffffff16021790555060808201518160000160106101000a81548163ffffffff021916908363ffffffff16021790555060a08201518160000160146101000a81548163ffffffff021916908363ffffffff160217905550505050505060036040518060e001604052806040518060400160405280600981526020017f447261676f6e69746500000000000000000000000000000000000000000000008152508152602001609581526020016040518060400160405280600681526020017f447261676f6e000000000000000000000000000000000000000000000000000081525081526020016040518060400160405280600681526020017f466c79696e670000000000000000000000000000000000000000000000000000815250815260200161012c81526020016000151581526020016040518060c00160405280605b63ffffffff168152602001608663ffffffff168152602001605f63ffffffff168152602001606463ffffffff168152602001606463ffffffff168152602001605063ffffffff168152508152509080600181540180825580915050906001820390600052602060002090600702016000909192909190915060008201518160000190805190602001906201aeda9291906201d9fe565b506020820151816001015560408201518160020190805190602001906201af039291906201d9fe565b5060608201518160030190805190602001906201af229291906201d9fe565b506080820151816004015560a08201518160050160006101000a81548160ff02191690831515021790555060c08201518160060160008201518160000160006101000a81548163ffffffff021916908363ffffffff16021790555060208201518160000160046101000a81548163ffffffff021916908363ffffffff16021790555060408201518160000160086101000a81548163ffffffff021916908363ffffffff160217905550606082015181600001600c6101000a81548163ffffffff021916908363ffffffff16021790555060808201518160000160106101000a81548163ffffffff021916908363ffffffff16021790555060a08201518160000160146101000a81548163ffffffff021916908363ffffffff160217905550505050505060036040518060e001604052806040518060400160405280600681526020017f4d657774776f00000000000000000000000000000000000000000000000000008152508152602001609681526020016040518060400160405280600781526020017f507379636869630000000000000000000000000000000000000000000000000081525081526020016040518060400160405280600381526020017f6e616e0000000000000000000000000000000000000000000000000000000000815250815260200160dc81526020016001151581526020016040518060c00160405280606a63ffffffff168152602001606e63ffffffff168152602001605a63ffffffff168152602001609a63ffffffff168152602001605a63ffffffff168152602001608263ffffffff168152508152509080600181540180825580915050906001820390600052602060002090600702016000909192909190915060008201518160000190805190602001906201b1bd9291906201d9fe565b506020820151816001015560408201518160020190805190602001906201b1e69291906201d9fe565b5060608201518160030190805190602001906201b2059291906201d9fe565b506080820151816004015560a08201518160050160006101000a81548160ff02191690831515021790555060c08201518160060160008201518160000160006101000a81548163ffffffff021916908363ffffffff16021790555060208201518160000160046101000a81548163ffffffff021916908363ffffffff16021790555060408201518160000160086101000a81548163ffffffff021916908363ffffffff160217905550606082015181600001600c6101000a81548163ffffffff021916908363ffffffff16021790555060808201518160000160106101000a81548163ffffffff021916908363ffffffff16021790555060a08201518160000160146101000a81548163ffffffff021916908363ffffffff160217905550505050505060036040518060e001604052806040518060400160405280600381526020017f4d657700000000000000000000000000000000000000000000000000000000008152508152602001609781526020016040518060400160405280600781526020017f507379636869630000000000000000000000000000000000000000000000000081525081526020016040518060400160405280600381526020017f6e616e0000000000000000000000000000000000000000000000000000000000815250815260200161012c81526020016000151581526020016040518060c00160405280606463ffffffff168152602001606463ffffffff168152602001606463ffffffff168152602001606463ffffffff168152602001606463ffffffff168152602001606463ffffffff168152508152509080600181540180825580915050906001820390600052602060002090600702016000909192909190915060008201518160000190805190602001906201b4a19291906201d9fe565b506020820151816001015560408201518160020190805190602001906201b4ca9291906201d9fe565b5060608201518160030190805190602001906201b4e99291906201d9fe565b506080820151816004015560a08201518160050160006101000a81548160ff02191690831515021790555060c08201518160060160008201518160000160006101000a81548163ffffffff021916908363ffffffff16021790555060208201518160000160046101000a81548163ffffffff021916908363ffffffff16021790555060408201518160000160086101000a81548163ffffffff021916908363ffffffff160217905550606082015181600001600c6101000a81548163ffffffff021916908363ffffffff16021790555060808201518160000160106101000a81548163ffffffff021916908363ffffffff16021790555060a08201518160000160146101000a81548163ffffffff021916908363ffffffff1602179055505050505050565b600260016000600181526020019081526020016000208190555060036001600060028152602001908152602001600020819055506005600160006004815260200190815260200160002081905550600660016000600581526020019081526020016000208190555060086001600060078152602001908152602001600020819055506009600160006008815260200190815260200160002081905550600b60016000600a815260200190815260200160002081905550600c60016000600b815260200190815260200160002081905550600e60016000600d815260200190815260200160002081905550600f60016000600e81526020019081526020016000208190555060116001600060108152602001908152602001600020819055506012600160006011815260200190815260200160002081905550601460016000601381526020019081526020016000208190555060166001600060158152602001908152602001600020819055506018600160006017815260200190815260200160002081905550601a600160006019815260200190815260200160002081905550601c60016000601b815260200190815260200160002081905550601e60016000601d815260200190815260200160002081905550601f60016000601e81526020019081526020016000208190555060216001600060208152602001908152602001600020819055506022600160006021815260200190815260200160002081905550602460016000602381526020019081526020016000208190555060266001600060258152602001908152602001600020819055506028600160006027815260200190815260200160002081905550602a600160006029815260200190815260200160002081905550602c60016000602b815260200190815260200160002081905550602d60016000602c815260200190815260200160002081905550602f60016000602e81526020019081526020016000208190555060316001600060308152602001908152602001600020819055506033600160006032815260200190815260200160002081905550603560016000603481526020019081526020016000208190555060376001600060368152602001908152602001600020819055506039600160006038815260200190815260200160002081905550603b60016000603a815260200190815260200160002081905550603d60016000603c815260200190815260200160002081905550603e60016000603d815260200190815260200160002081905550604060016000603f815260200190815260200160002081905550604160016000604081526020019081526020016000208190555060436001600060428152602001908152602001600020819055506044600160006043815260200190815260200160002081905550604660016000604581526020019081526020016000208190555060476001600060468152602001908152602001600020819055506049600160006048815260200190815260200160002081905550604b60016000604a815260200190815260200160002081905550604c60016000604b815260200190815260200160002081905550604e60016000604d815260200190815260200160002081905550605060016000604f8152602001908152602001600020819055506052600160006051815260200190815260200160002081905550605560016000605481526020019081526020016000208190555060576001600060568152602001908152602001600020819055506059600160006058815260200190815260200160002081905550605b60016000605a815260200190815260200160002081905550605d60016000605c815260200190815260200160002081905550605e60016000605d81526020019081526020016000208190555060616001600060608152602001908152602001600020819055506063600160006062815260200190815260200160002081905550606560016000606481526020019081526020016000208190555060676001600060668152602001908152602001600020819055506069600160006068815260200190815260200160002081905550606e60016000606d815260200190815260200160002081905550607060016000606f81526020019081526020016000208190555060756001600060748152602001908152602001600020819055506077600160006076815260200190815260200160002081905550607960016000607881526020019081526020016000208190555060826001600060818152602001908152602001600020819055506086600160006085815260200190815260200160002081905550608b60016000608a815260200190815260200160002081905550608d60016000608c81526020019081526020016000208190555060946001600060938152602001908152602001600020819055506095600160006094815260200190815260200160002081905550565b600160026000600181526020019081526020016000208190555060016002600060028152602001908152602001600020819055506001600260006003815260200190815260200160002081905550600460026000600481526020019081526020016000208190555060046002600060058152602001908152602001600020819055506004600260006006815260200190815260200160002081905550600760026000600781526020019081526020016000208190555060076002600060088152602001908152602001600020819055506007600260006009815260200190815260200160002081905550600a60026000600a815260200190815260200160002081905550600a60026000600b815260200190815260200160002081905550600a60026000600c815260200190815260200160002081905550600d60026000600d815260200190815260200160002081905550600d60026000600e815260200190815260200160002081905550600d60026000600f8152602001908152602001600020819055506010600260006010815260200190815260200160002081905550601060026000601181526020019081526020016000208190555060106002600060128152602001908152602001600020819055506013600260006013815260200190815260200160002081905550601360026000601481526020019081526020016000208190555060156002600060158152602001908152602001600020819055506015600260006016815260200190815260200160002081905550601760026000601781526020019081526020016000208190555060176002600060188152602001908152602001600020819055506019600260006019815260200190815260200160002081905550601960026000601a815260200190815260200160002081905550601b60026000601b815260200190815260200160002081905550601b60026000601c815260200190815260200160002081905550601d60026000601d815260200190815260200160002081905550601d60026000601e815260200190815260200160002081905550601d60026000601f8152602001908152602001600020819055506020600260006020815260200190815260200160002081905550602060026000602181526020019081526020016000208190555060206002600060228152602001908152602001600020819055506023600260006023815260200190815260200160002081905550602360026000602481526020019081526020016000208190555060256002600060258152602001908152602001600020819055506025600260006026815260200190815260200160002081905550602760026000602781526020019081526020016000208190555060276002600060288152602001908152602001600020819055506029600260006029815260200190815260200160002081905550602960026000602a815260200190815260200160002081905550602b60026000602b815260200190815260200160002081905550602b60026000602c815260200190815260200160002081905550602b60026000602d815260200190815260200160002081905550602e60026000602e815260200190815260200160002081905550602e60026000602f8152602001908152602001600020819055506030600260006030815260200190815260200160002081905550603060026000603181526020019081526020016000208190555060326002600060328152602001908152602001600020819055506032600260006033815260200190815260200160002081905550603460026000603481526020019081526020016000208190555060346002600060358152602001908152602001600020819055506036600260006036815260200190815260200160002081905550603660026000603781526020019081526020016000208190555060386002600060388152602001908152602001600020819055506038600260006039815260200190815260200160002081905550603a60026000603a815260200190815260200160002081905550603a60026000603b815260200190815260200160002081905550603c60026000603c815260200190815260200160002081905550603c60026000603d815260200190815260200160002081905550603c60026000603e815260200190815260200160002081905550603f60026000603f815260200190815260200160002081905550603f600260006040815260200190815260200160002081905550603f60026000604181526020019081526020016000208190555060426002600060428152602001908152602001600020819055506042600260006043815260200190815260200160002081905550604260026000604481526020019081526020016000208190555060456002600060458152602001908152602001600020819055506045600260006046815260200190815260200160002081905550604560026000604781526020019081526020016000208190555060486002600060488152602001908152602001600020819055506048600260006049815260200190815260200160002081905550604a60026000604a815260200190815260200160002081905550604a60026000604b815260200190815260200160002081905550604a60026000604c815260200190815260200160002081905550604d60026000604d815260200190815260200160002081905550604d60026000604e815260200190815260200160002081905550604f60026000604f815260200190815260200160002081905550604f600260006050815260200190815260200160002081905550605160026000605181526020019081526020016000208190555060516002600060528152602001908152602001600020819055506053600260006053815260200190815260200160002081905550605460026000605481526020019081526020016000208190555060546002600060558152602001908152602001600020819055506056600260006056815260200190815260200160002081905550605660026000605781526020019081526020016000208190555060586002600060588152602001908152602001600020819055506058600260006059815260200190815260200160002081905550605a60026000605a815260200190815260200160002081905550605a60026000605b815260200190815260200160002081905550605c60026000605c815260200190815260200160002081905550605c60026000605d815260200190815260200160002081905550605c60026000605e815260200190815260200160002081905550605f60026000605f8152602001908152602001600020819055506060600260006060815260200190815260200160002081905550606060026000606181526020019081526020016000208190555060626002600060628152602001908152602001600020819055506062600260006063815260200190815260200160002081905550606460026000606481526020019081526020016000208190555060646002600060658152602001908152602001600020819055506066600260006066815260200190815260200160002081905550606660026000606781526020019081526020016000208190555060686002600060688152602001908152602001600020819055506068600260006069815260200190815260200160002081905550606a60026000606a815260200190815260200160002081905550606b60026000606b815260200190815260200160002081905550606c60026000606c815260200190815260200160002081905550606d60026000606d815260200190815260200160002081905550606d60026000606e815260200190815260200160002081905550606f60026000606f815260200190815260200160002081905550606f600260006070815260200190815260200160002081905550607160026000607181526020019081526020016000208190555060726002600060728152602001908152602001600020819055506073600260006073815260200190815260200160002081905550607460026000607481526020019081526020016000208190555060746002600060758152602001908152602001600020819055506076600260006076815260200190815260200160002081905550607660026000607781526020019081526020016000208190555060786002600060788152602001908152602001600020819055506078600260006079815260200190815260200160002081905550607a60026000607a815260200190815260200160002081905550607b60026000607b815260200190815260200160002081905550607c60026000607c815260200190815260200160002081905550607d60026000607d815260200190815260200160002081905550607e60026000607e815260200190815260200160002081905550607f60026000607f8152602001908152602001600020819055506080600260006080815260200190815260200160002081905550608160026000608181526020019081526020016000208190555060816002600060828152602001908152602001600020819055506083600260006083815260200190815260200160002081905550608460026000608481526020019081526020016000208190555060856002600060858152602001908152602001600020819055506085600260006086815260200190815260200160002081905550608760026000608781526020019081526020016000208190555060886002600060888152602001908152602001600020819055506089600260006089815260200190815260200160002081905550608a60026000608a815260200190815260200160002081905550608a60026000608b815260200190815260200160002081905550608c60026000608c815260200190815260200160002081905550608c60026000608d815260200190815260200160002081905550608e60026000608e815260200190815260200160002081905550608f60026000608f81526020019081526020016000208190555060906002600060908152602001908152602001600020819055506091600260006091815260200190815260200160002081905550609260026000609281526020019081526020016000208190555060936002600060938152602001908152602001600020819055506093600260006094815260200190815260200160002081905550609360026000609581526020019081526020016000208190555060966002600060968152602001908152602001600020819055506097600260006097815260200190815260200160002081905550565b600080600a60003373ffffffffffffffffffffffffffffffffffffffff1673ffffffffffffffffffffffffffffffffffffffff16815260200190815260200160002054146201ccd257600080fd5b60008214806201cce25750600382145b806201ccee5750600682145b6201ccf857600080fd5b60006201cd14846201cd3e640100000000026401000000009004565b90506201cd358482600080876201cdda640100000000026401000000009004565b91505092915050565b600080826040516020018082805190602001908083835b602083106201cd7a57805182526020820191506020810190506020830392506201cd55565b6001836020036101000a0380198251168184511680821785525050505050509050019150506040516020818303038152906040528051906020012060019004905060004443019050600554818301816201cdd057fe5b0692505050919050565b6000606060066040519080825280602002602001820160405280156201ce0f5781602001602082028038833980820191505090505b5090506000869050600080600090505b60068110156201ce7d57600a83816201ce3457fe5b069150818482815181106201ce4557fe5b602002602001019063ffffffff16908163ffffffff1681525050600a828403816201ce6c57fe5b04925080806001019150506201ce1f565b506201ce886201da85565b600386815481106201ce9657fe5b90600052602060002090600702016040518060e0016040529081600082018054600181600116156101000203166002900480601f0160208091040260200160405190810160405280929190818152602001828054600181600116156101000203166002900480156201cf4c5780601f106201cf20576101008083540402835291602001916201cf4c565b820191906000526020600020905b8154815290600101906020018083116201cf2e57829003601f168201915b5050505050815260200160018201548152602001600282018054600181600116156101000203166002900480601f0160208091040260200160405190810160405280929190818152602001828054600181600116156101000203166002900480156201cffc5780601f106201cfd0576101008083540402835291602001916201cffc565b820191906000526020600020905b8154815290600101906020018083116201cfde57829003601f168201915b50505050508152602001600382018054600181600116156101000203166002900480601f0160208091040260200160405190810160405280929190818152602001828054600181600116156101000203166002900480156201d0a25780601f106201d076576101008083540402835291602001916201d0a2565b820191906000526020600020905b8154815290600101906020018083116201d08457829003601f168201915b50505050508152602001600482015481526020016005820160009054906101000a900460ff16151515158152602001600682016040518060c00160405290816000820160009054906101000a900463ffffffff1663ffffffff1663ffffffff1681526020016000820160049054906101000a900463ffffffff1663ffffffff1663ffffffff1681526020016000820160089054906101000a900463ffffffff1663ffffffff1663ffffffff16815260200160008201600c9054906101000a900463ffffffff1663ffffffff1663ffffffff1681526020016000820160109054906101000a900463ffffffff1663ffffffff1663ffffffff1681526020016000820160149054906101000a900463ffffffff1663ffffffff1663ffffffff16815250508152505090506201d210846000815181106201d1dc57fe5b60200260200101518260c001516000015163ffffffff166201d91a6401000000000262002c4b179091906401000000009004565b8160c001516000019063ffffffff16908163ffffffff16815250506201d271846001815181106201d23d57fe5b60200260200101518260c001516020015163ffffffff166201d91a6401000000000262002c4b179091906401000000009004565b8160c001516020019063ffffffff16908163ffffffff16815250506201d2d2846002815181106201d29e57fe5b60200260200101518260c001516040015163ffffffff166201d91a6401000000000262002c4b179091906401000000009004565b8160c001516040019063ffffffff16908163ffffffff16815250506201d333846003815181106201d2ff57fe5b60200260200101518260c001516060015163ffffffff166201d91a6401000000000262002c4b179091906401000000009004565b8160c001516060019063ffffffff16908163ffffffff16815250506201d394846004815181106201d36057fe5b60200260200101518260c001516080015163ffffffff166201d91a6401000000000262002c4b179091906401000000009004565b8160c001516080019063ffffffff16908163ffffffff16815250506201d3f5846005815181106201d3c157fe5b60200260200101518260c0015160a0015163ffffffff166201d91a6401000000000262002c4b179091906401000000009004565b8160c0015160a0019063ffffffff16908163ffffffff16815250506201d41a6201dacc565b604051806101e001604052808c8152602001836000015181526020018360400151815260200183606001518152602001600163ffffffff168152602001600063ffffffff168152602001600063ffffffff1681526020016201d48b8d6201d943640100000000026401000000009004565b151581526020018b81526020018a815260200189815260200160008152602001836020015181526020018360a00151151581526020018360c001518152509050600060016008839080600181540180825580915050906001820390600052602060002090600c02016000909192909190915060008201518160000190805190602001906201d51b9291906201d9fe565b5060208201518160010190805190602001906201d53a9291906201d9fe565b5060408201518160020190805190602001906201d5599291906201d9fe565b5060608201518160030190805190602001906201d5789291906201d9fe565b5060808201518160040160006101000a81548163ffffffff021916908363ffffffff16021790555060a08201518160040160046101000a81548163ffffffff021916908363ffffffff16021790555060c08201518160040160086101000a81548163ffffffff021916908363ffffffff16021790555060e082015181600401600c6101000a81548160ff021916908315150217905550610100820151816005015561012082015181600601556101408201518160070155610160820151816008015561018082015181600901556101a082015181600a0160006101000a81548160ff0219169083151502179055506101c082015181600b0160008201518160000160006101000a81548163ffffffff021916908363ffffffff16021790555060208201518160000160046101000a81548163ffffffff021916908363ffffffff16021790555060408201518160000160086101000a81548163ffffffff021916908363ffffffff160217905550606082015181600001600c6101000a81548163ffffffff021916908363ffffffff16021790555060808201518160000160106101000a81548163ffffffff021916908363ffffffff16021790555060a08201518160000160146101000a81548163ffffffff021916908363ffffffff16021790555050505050039050336009600083815260200190815260200160002060006101000a81548173ffffffffffffffffffffffffffffffffffffffff021916908373ffffffffffffffffffffffffffffffffffffffff1602179055506201d8166001600a60003373ffffffffffffffffffffffffffffffffffffffff1673ffffffffffffffffffffffffffffffffffffffff168152602001908152602001600020546201d9e16401000000000262002e22179091906401000000009004565b600a60003373ffffffffffffffffffffffffffffffffffffffff1673ffffffffffffffffffffffffffffffffffffffff168152602001908152602001600020819055507fb2ddd0094c7d8b02387161898cbaa1bbcb4cee4731fdeceb76548071724adcd2818d8d6040518084815260200180602001838152602001828103825284818151815260200191508051906020019080838360005b838110156201d8cb5780820151818401526020810190506201d8ae565b50505050905090810190601f1680156201d8f95780820380516001836020036101000a031916815260200191505b5094505050505060405180910390a180965050505050505095945050505050565b60008082840190508363ffffffff168163ffffffff1610156201d93957fe5b8091505092915050565b600080826040516020018082805190602001908083835b602083106201d97f57805182526020820191506020810190506020830392506201d95a565b6001836020036101000a038019825116818451168082178552505050505050905001915050604051602081830303815290604052805190602001206001900490506000444301905060006002828401816201d9d657fe5b061492505050919050565b6000808284019050838110156201d9f457fe5b8091505092915050565b828054600181600116156101000203166002900490600052602060002090601f016020900481019282601f106201da4157805160ff19168380011785556201da72565b828001600101855582156201da72579182015b828111156201da715782518255916020019190600101906201da54565b5b5090506201da8191906201db60565b5090565b6040518060e0016040528060608152602001600081526020016060815260200160608152602001600081526020016000151581526020016201dac66201db88565b81525090565b604051806101e0016040528060608152602001606081526020016060815260200160608152602001600063ffffffff168152602001600063ffffffff168152602001600063ffffffff16815260200160001515815260200160008152602001600081526020016000815260200160008152602001600081526020016000151581526020016201db5a6201db88565b81525090565b6201db8591905b808211156201db815760008160009055506001016201db67565b5090565b90565b6040518060c00160405280600063ffffffff168152602001600063ffffffff168152602001600063ffffffff168152602001600063ffffffff168152602001600063ffffffff168152602001600063ffffffff1681525090565b61405a806201dbf26000396000f3fe608060405260043610610216576000357c01000000000000000000000000000000000000000000000000000000009004806387f1fbf31161012a578063c37fc8a8116100bd578063d3e6f49f1161008c578063d3e6f49f14610f2e578063f114572714610f81578063f119f56714610f9f578063f2fde38b14611093578063f976b12d146110e457610216565b8063c37fc8a814610d7e578063c39cbef114610da9578063c8e0d77414610e39578063ccf670f814610ef357610216565b8063a11ed157116100f9578063a11ed15714610baf578063b7c6825914610bea578063ba8064c014610c3d578063bdfb526914610c9857610216565b806387f1fbf314610a6e57806388c2a0bf14610ada5780638da5cb5b14610b295780638f32d59b14610b8057610216565b806346d22c70116101ad5780636dd25f6a1161017c5780636dd25f6a146107595780637004fb84146107d4578063715018a61461080c57806372f4295814610823578063835d75ab146108d757610216565b806346d22c70146106005780634d33fbe71461065d57806351067f00146107035780636ae0fbde1461072e57610216565b80632d90c7a7116101e95780632d90c7a7146105145780632f7467b3146105435780633ccfd60b146105be57806342945e48146105d557610216565b80630ce90ec21461021b5780630dc2f10a146102495780631940a9361461046657806325540917146104b9575b600080fd5b6102476004803603602081101561023157600080fd5b8101908080359060200190929190505050611137565b005b34801561025557600080fd5b506102826004803603602081101561026c57600080fd5b81019080803590602001909291905050506114e9565b60405180806020018060200180602001806020018863ffffffff1663ffffffff1681526020018781526020018615151515815260200185810385528c818151815260200191508051906020019080838360005b838110156102f05780820151818401526020810190506102d5565b50505050905090810190601f16801561031d5780820380516001836020036101000a031916815260200191505b5085810384528b818151815260200191508051906020019080838360005b8381101561035657808201518184015260208101905061033b565b50505050905090810190601f1680156103835780820380516001836020036101000a031916815260200191505b5085810383528a818151815260200191508051906020019080838360005b838110156103bc5780820151818401526020810190506103a1565b50505050905090810190601f1680156103e95780820380516001836020036101000a031916815260200191505b50858103825289818151815260200191508051906020019080838360005b83811015610422578082015181840152602081019050610407565b50505050905090810190601f16801561044f5780820380516001836020036101000a031916815260200191505b509b50505050505050505050505060405180910390f35b34801561047257600080fd5b5061049f6004803603602081101561048957600080fd5b81019080803590602001909291905050506117d8565b604051808215151515815260200191505060405180910390f35b3480156104c557600080fd5b506104f2600480360360208110156104dc57600080fd5b8101908080359060200190929190505050611813565b604051808263ffffffff1663ffffffff16815260200191505060405180910390f35b34801561052057600080fd5b50610529611850565b604051808215151515815260200191505060405180910390f35b34801561054f57600080fd5b5061057c6004803603602081101561056657600080fd5b8101908080359060200190929190505050611899565b604051808273ffffffffffffffffffffffffffffffffffffffff1673ffffffffffffffffffffffffffffffffffffffff16815260200191505060405180910390f35b3480156105ca57600080fd5b506105d36118cc565b005b3480156105e157600080fd5b506105ea61199f565b6040518082815260200191505060405180910390f35b34801561060c57600080fd5b506106436004803603604081101561062357600080fd5b8101908080359060200190929190803590602001909291905050506119ac565b604051808215151515815260200191505060405180910390f35b34801561066957600080fd5b506106ac6004803603602081101561068057600080fd5b81019080803573ffffffffffffffffffffffffffffffffffffffff169060200190929190505050611a4f565b6040518080602001828103825283818151815260200191508051906020019060200280838360005b838110156106ef5780820151818401526020810190506106d4565b505050509050019250505060405180910390f35b34801561070f57600080fd5b50610718611b8a565b6040518082815260200191505060405180910390f35b34801561073a57600080fd5b50610743611bd1565b6040518082815260200191505060405180910390f35b34801561076557600080fd5b506107926004803603602081101561077c57600080fd5b8101908080359060200190929190505050611bd7565b604051808663ffffffff1663ffffffff168152602001851515151581526020018481526020018381526020018281526020019550505050505060405180910390f35b61080a600480360360408110156107ea57600080fd5b810190808035906020019092919080359060200190929190505050611c47565b005b34801561081857600080fd5b50610821611c77565b005b34801561082f57600080fd5b5061085c6004803603602081101561084657600080fd5b8101908080359060200190929190505050611d47565b6040518080602001828103825283818151815260200191508051906020019080838360005b8381101561089c578082015181840152602081019050610881565b50505050905090810190601f1680156108c95780820380516001836020036101000a031916815260200191505b509250505060405180910390f35b3480156108e357600080fd5b50610910600480360360208110156108fa57600080fd5b8101908080359060200190929190505050611e0a565b6040518080602001806020018060200185151515158152602001848103845288818151815260200191508051906020019080838360005b83811015610962578082015181840152602081019050610947565b50505050905090810190601f16801561098f5780820380516001836020036101000a031916815260200191505b50848103835287818151815260200191508051906020019080838360005b838110156109c85780820151818401526020810190506109ad565b50505050905090810190601f1680156109f55780820380516001836020036101000a031916815260200191505b50848103825286818151815260200191508051906020019080838360005b83811015610a2e578082015181840152602081019050610a13565b50505050905090810190601f168015610a5b5780820380516001836020036101000a031916815260200191505b5097505050505050505060405180910390f35b348015610a7a57600080fd5b50610a83612034565b6040518080602001828103825283818151815260200191508051906020019060200280838360005b83811015610ac6578082015181840152602081019050610aab565b505050509050019250505060405180910390f35b348015610ae657600080fd5b50610b1360048036036020811015610afd57600080fd5b810190808035906020019092919050505061216d565b6040518082815260200191505060405180910390f35b348015610b3557600080fd5b50610b3e612221565b604051808273ffffffffffffffffffffffffffffffffffffffff1673ffffffffffffffffffffffffffffffffffffffff16815260200191505060405180910390f35b348015610b8c57600080fd5b50610b9561224a565b604051808215151515815260200191505060405180910390f35b348015610bbb57600080fd5b50610be860048036036020811015610bd257600080fd5b81019080803590602001909291905050506122a1565b005b348015610bf657600080fd5b50610c2360048036036020811015610c0d57600080fd5b81019080803590602001909291905050506122bc565b604051808215151515815260200191505060405180910390f35b348015610c4957600080fd5b50610c7660048036036020811015610c6057600080fd5b81019080803590602001909291905050506122ed565b604051808263ffffffff1663ffffffff16815260200191505060405180910390f35b348015610ca457600080fd5b50610d6860048036036040811015610cbb57600080fd5b8101908080359060200190640100000000811115610cd857600080fd5b820183602082011115610cea57600080fd5b80359060200191846001830284011164010000000083111715610d0c57600080fd5b91908080601f016020809104026020016040519081016040528093929190818152602001838380828437600081840152601f19601f820116905080830192505050505050509192919290803590602001909291905050506123c5565b6040518082815260200191505060405180910390f35b348015610d8a57600080fd5b50610d93612459565b6040518082815260200191505060405180910390f35b348015610db557600080fd5b50610e3760048036036040811015610dcc57600080fd5b810190808035906020019092919080359060200190640100000000811115610df357600080fd5b820183602082011115610e0557600080fd5b80359060200191846001830284011164010000000083111715610e2757600080fd5b90919293919293905050506124a0565b005b348015610e4557600080fd5b50610e7260048036036020811015610e5c57600080fd5b8101908080359060200190929190505050612519565b604051808763ffffffff1663ffffffff1681526020018663ffffffff1663ffffffff1681526020018563ffffffff1663ffffffff1681526020018463ffffffff1663ffffffff1681526020018363ffffffff1663ffffffff1681526020018263ffffffff1663ffffffff168152602001965050505050505060405180910390f35b348015610eff57600080fd5b50610f2c60048036036020811015610f1657600080fd5b81019080803590602001909291905050506125d8565b005b348015610f3a57600080fd5b50610f6760048036036020811015610f5157600080fd5b81019080803590602001909291905050506125f3565b604051808215151515815260200191505060405180910390f35b610f89612634565b6040518082815260200191505060405180910390f35b348015610fab57600080fd5b50610fd860048036036020811015610fc257600080fd5b810190808035906020019092919050505061271c565b60405180806020018681526020018563ffffffff1663ffffffff1681526020018463ffffffff1663ffffffff1681526020018363ffffffff1663ffffffff168152602001828103825287818151815260200191508051906020019080838360005b83811015611054578082015181840152602081019050611039565b50505050905090810190601f1680156110815780820380516001836020036101000a031916815260200191505b50965050505050505060405180910390f35b34801561109f57600080fd5b506110e2600480360360208110156110b657600080fd5b81019080803573ffffffffffffffffffffffffffffffffffffffff169060200190929190505050612bc5565b005b3480156110f057600080fd5b5061111d6004803603602081101561110757600080fd5b8101908080359060200190929190505050612be2565b604051808215151515815260200191505060405180910390f35b806009600082815260200190815260200160002060009054906101000a900473ffffffffffffffffffffffffffffffffffffffff1673ffffffffffffffffffffffffffffffffffffffff163373ffffffffffffffffffffffffffffffffffffffff16146111a357600080fd5b600c5434146111b157600080fd5b34600d60003073ffffffffffffffffffffffffffffffffffffffff1673ffffffffffffffffffffffffffffffffffffffff1681526020019081526020016000206000828254019250508190555060006008838154811061120d57fe5b90600052602060002090600c0201905061126560016008858154811061122f57fe5b90600052602060002090600c020160040160009054906101000a900463ffffffff1663ffffffff16612c4b90919063ffffffff16565b8160040160006101000a81548163ffffffff021916908363ffffffff1602179055506112b8600582600b0160000160009054906101000a900463ffffffff1663ffffffff16612c4b90919063ffffffff16565b81600b0160000160006101000a81548163ffffffff021916908363ffffffff16021790555061130e600282600b0160000160049054906101000a900463ffffffff1663ffffffff16612c4b90919063ffffffff16565b81600b0160000160046101000a81548163ffffffff021916908363ffffffff160217905550611364600282600b0160000160089054906101000a900463ffffffff1663ffffffff16612c4b90919063ffffffff16565b81600b0160000160086101000a81548163ffffffff021916908363ffffffff1602179055506113ba600182600b01600001600c9054906101000a900463ffffffff1663ffffffff16612c4b90919063ffffffff16565b81600b01600001600c6101000a81548163ffffffff021916908363ffffffff160217905550611410600182600b0160000160109054906101000a900463ffffffff1663ffffffff16612c4b90919063ffffffff16565b81600b0160000160106101000a81548163ffffffff021916908363ffffffff160217905550611466600282600b0160000160149054906101000a900463ffffffff1663ffffffff16612c4b90919063ffffffff16565b81600b0160000160146101000a81548163ffffffff021916908363ffffffff1602179055507f3d81d1ad835628fb7aaf501fe84126e79b4f4b0ca7664653bec4a6e968d27715838260040160009054906101000a900463ffffffff16604051808381526020018263ffffffff1681526020019250505060405180910390a1505050565b6060806060806000806000806008898154811061150257fe5b90600052602060002090600c02019050806000018160010182600201836003018460040160009054906101000a900463ffffffff16856009015486600a0160009054906101000a900460ff16868054600181600116156101000203166002900480601f0160208091040260200160405190810160405280929190818152602001828054600181600116156101000203166002900480156115e35780601f106115b8576101008083540402835291602001916115e3565b820191906000526020600020905b8154815290600101906020018083116115c657829003601f168201915b50505050509650858054600181600116156101000203166002900480601f01602080910402602001604051908101604052809291908181526020018280546001816001161561010002031660029004801561167f5780601f106116545761010080835404028352916020019161167f565b820191906000526020600020905b81548152906001019060200180831161166257829003601f168201915b50505050509550848054600181600116156101000203166002900480601f01602080910402602001604051908101604052809291908181526020018280546001816001161561010002031660029004801561171b5780601f106116f05761010080835404028352916020019161171b565b820191906000526020600020905b8154815290600101906020018083116116fe57829003601f168201915b50505050509450838054600181600116156101000203166002900480601f0160208091040260200160405190810160405280929190818152602001828054600181600116156101000203166002900480156117b75780601f1061178c576101008083540402835291602001916117b7565b820191906000526020600020905b81548152906001019060200180831161179a57829003601f168201915b50505050509350975097509750975097509750975050919395979092949650565b600081600081116117e857600080fd5b6000600884815481106117f757fe5b90600052602060002090600c0201600801541415915050919050565b6000806008838154811061182357fe5b90600052602060002090600c020190508060040160049054906101000a900463ffffffff16915050919050565b600080600a60003373ffffffffffffffffffffffffffffffffffffffff1673ffffffffffffffffffffffffffffffffffffffff1681526020019081526020016000205414905090565b60096020528060005260406000206000915054906101000a900473ffffffffffffffffffffffffffffffffffffffff1681565b6000600d60003373ffffffffffffffffffffffffffffffffffffffff1673ffffffffffffffffffffffffffffffffffffffff1681526020019081526020016000205490506000600d60003373ffffffffffffffffffffffffffffffffffffffff1673ffffffffffffffffffffffffffffffffffffffff168152602001908152602001600020819055503373ffffffffffffffffffffffffffffffffffffffff166108fc829081150290604051600060405180830381858888f1935050505015801561199b573d6000803e3d6000fd5b5050565b6000600880549050905090565b60008083116119ba57600080fd5b600082116119c757600080fd5b6000600884815481106119d657fe5b90600052602060002090600c020190506000600884815481106119f557fe5b90600052602060002090600c02019050611a1182868387612c73565b8015611a235750611a228585612d40565b5b8015611a345750611a33856125f3565b5b8015611a455750611a44846125f3565b5b9250505092915050565b606080600a60008473ffffffffffffffffffffffffffffffffffffffff1673ffffffffffffffffffffffffffffffffffffffff16815260200190815260200160002054604051908082528060200260200182016040528015611ac05781602001602082028038833980820191505090505b509050600080905060008090505b600880549050811015611b7f578473ffffffffffffffffffffffffffffffffffffffff166009600083815260200190815260200160002060009054906101000a900473ffffffffffffffffffffffffffffffffffffffff1673ffffffffffffffffffffffffffffffffffffffff161415611b725780838381518110611b4f57fe5b602002602001018181525050611b6f600183612e2290919063ffffffff16565b91505b8080600101915050611ace565b508192505050919050565b6000600a60003373ffffffffffffffffffffffffffffffffffffffff1673ffffffffffffffffffffffffffffffffffffffff16815260200190815260200160002054905090565b600b5481565b60008060008060008060088781548110611bed57fe5b90600052602060002090600c020190508060040160089054906101000a900463ffffffff1681600401600c9054906101000a900460ff16826006015483600701548460080154955095509550955095505091939590929450565b600b54341015611c5657600080fd5b611c6082826119ac565b611c6957600080fd5b611c738282612e3e565b5050565b611c7f61224a565b611c8857600080fd5b600073ffffffffffffffffffffffffffffffffffffffff166000809054906101000a900473ffffffffffffffffffffffffffffffffffffffff1673ffffffffffffffffffffffffffffffffffffffff167f8be0079c531659141344cd1fd0a4f28419497f9722a3daafe3b4186f6b6457e060405160405180910390a360008060006101000a81548173ffffffffffffffffffffffffffffffffffffffff021916908373ffffffffffffffffffffffffffffffffffffffff160217905550565b606060036001830381548110611d5957fe5b90600052602060002090600702016000018054600181600116156101000203166002900480601f016020809104026020016040519081016040528092919081815260200182805460018160011615610100020316600290048015611dfe5780601f10611dd357610100808354040283529160200191611dfe565b820191906000526020600020905b815481529060010190602001808311611de157829003601f168201915b50505050509050919050565b606080606060008060036001870381548110611e2257fe5b906000526020600020906007020190508060000181600201826003018360050160009054906101000a900460ff16838054600181600116156101000203166002900480601f016020809104026020016040519081016040528092919081815260200182805460018160011615610100020316600290048015611ee55780601f10611eba57610100808354040283529160200191611ee5565b820191906000526020600020905b815481529060010190602001808311611ec857829003601f168201915b50505050509350828054600181600116156101000203166002900480601f016020809104026020016040519081016040528092919081815260200182805460018160011615610100020316600290048015611f815780601f10611f5657610100808354040283529160200191611f81565b820191906000526020600020905b815481529060010190602001808311611f6457829003601f168201915b50505050509250818054600181600116156101000203166002900480601f01602080910402602001604051908101604052809291908181526020018280546001816001161561010002031660029004801561201d5780601f10611ff25761010080835404028352916020019161201d565b820191906000526020600020905b81548152906001019060200180831161200057829003601f168201915b505050505091509450945094509450509193509193565b606080600a60003373ffffffffffffffffffffffffffffffffffffffff1673ffffffffffffffffffffffffffffffffffffffff168152602001908152602001600020546040519080825280602002602001820160405280156120a55781602001602082028038833980820191505090505b509050600080905060008090505b600880549050811015612164573373ffffffffffffffffffffffffffffffffffffffff166009600083815260200190815260200160002060009054906101000a900473ffffffffffffffffffffffffffffffffffffffff1673ffffffffffffffffffffffffffffffffffffffff161415612157578083838151811061213457fe5b602002602001018181525050612154600183612e2290919063ffffffff16565b91505b80806001019150506120b3565b50819250505090565b6000816000811161217d57600080fd5b612186836117d8565b61218f57600080fd5b60006008848154811061219e57fe5b90600052602060002090600c020190506121b781612ee7565b6121c057600080fd5b600081600801549050600061220b6040518060400160405280600681526020017f6e6f4e616d6500000000000000000000000000000000000000000000000000008152508388612f0e565b9050826008016000905580945050505050919050565b60008060009054906101000a900473ffffffffffffffffffffffffffffffffffffffff16905090565b60008060009054906101000a900473ffffffffffffffffffffffffffffffffffffffff1673ffffffffffffffffffffffffffffffffffffffff163373ffffffffffffffffffffffffffffffffffffffff1614905090565b6122a961224a565b6122b257600080fd5b80600b8190555050565b600080600883815481106122cc57fe5b90600052602060002090600c020190506122e581612ee7565b915050919050565b6000816009600082815260200190815260200160002060009054906101000a900473ffffffffffffffffffffffffffffffffffffffff1673ffffffffffffffffffffffffffffffffffffffff163373ffffffffffffffffffffffffffffffffffffffff161461235b57600080fd5b612364836117d8565b61236d57600080fd5b60006008848154811061237c57fe5b90600052602060002090600c0201905061239581612ee7565b156123a45760009250506123bf565b438160040160089054906101000a900463ffffffff16039250505b50919050565b600080600a60003373ffffffffffffffffffffffffffffffffffffffff1673ffffffffffffffffffffffffffffffffffffffff168152602001908152602001600020541461241257600080fd5b60008214806124215750600382145b8061242c5750600682145b61243557600080fd5b600061244084612f79565b9050612450848260008087613012565b91505092915050565b6000600d60003373ffffffffffffffffffffffffffffffffffffffff1673ffffffffffffffffffffffffffffffffffffffff16815260200190815260200160002054905090565b60028381600882815481106124b157fe5b90600052602060002090600c020160040160009054906101000a900463ffffffff1663ffffffff1610156124e457600080fd5b8383600887815481106124f357fe5b90600052602060002090600c02016001019190612511929190613d48565b505050505050565b60008060008060008060006008888154811061253157fe5b90600052602060002090600c0201600b0190508060000160009054906101000a900463ffffffff168160000160049054906101000a900463ffffffff168260000160089054906101000a900463ffffffff1683600001600c9054906101000a900463ffffffff168460000160109054906101000a900463ffffffff168560000160149054906101000a900463ffffffff169650965096509650965096505091939550919395565b6125e061224a565b6125e957600080fd5b80600c8190555050565b6000816000811161260357600080fd5b60006008848154811061261257fe5b90600052602060002090600c0201905061262b81613aa9565b92505050919050565b60006714d1120d7b16000034146126b3576040517f08c379a00000000000000000000000000000000000000000000000000000000081526004018080602001828103825260168152602001807f61207061636b20636f73747320312e352065746865720000000000000000000081525060200191505060405180910390fd5b6714d1120d7b160000600d60006126c8612221565b73ffffffffffffffffffffffffffffffffffffffff1673ffffffffffffffffffffffffffffffffffffffff16815260200190815260200160002060008282540192505081905550612717613aca565b905090565b6060600080600080856009600082815260200190815260200160002060009054906101000a900473ffffffffffffffffffffffffffffffffffffffff1673ffffffffffffffffffffffffffffffffffffffff163373ffffffffffffffffffffffffffffffffffffffff161461279057600080fd5b61279987612be2565b6127a257600080fd5b6000600888815481106127b157fe5b90600052602060002090600c020190506127f2600c82600b0160000160009054906101000a900463ffffffff1663ffffffff16612c4b90919063ffffffff16565b81600b0160000160006101000a81548163ffffffff021916908363ffffffff160217905550612848600682600b0160000160049054906101000a900463ffffffff1663ffffffff16612c4b90919063ffffffff16565b81600b0160000160046101000a81548163ffffffff021916908363ffffffff16021790555061289e600682600b0160000160089054906101000a900463ffffffff1663ffffffff16612c4b90919063ffffffff16565b81600b0160000160086101000a81548163ffffffff021916908363ffffffff1602179055506128f4600682600b01600001600c9054906101000a900463ffffffff1663ffffffff16612c4b90919063ffffffff16565b81600b01600001600c6101000a81548163ffffffff021916908363ffffffff16021790555061294a600682600b0160000160109054906101000a900463ffffffff1663ffffffff16612c4b90919063ffffffff16565b81600b0160000160106101000a81548163ffffffff021916908363ffffffff1602179055506129a0600682600b0160000160149054906101000a900463ffffffff1663ffffffff16612c4b90919063ffffffff16565b81600b0160000160146101000a81548163ffffffff021916908363ffffffff160217905550600060016000836009015481526020019081526020016000205490506000600360018303815481106129f357fe5b9060005260206000209060070201905081816001015414612a1357600080fd5b80600001836001019080546001816001161561010002031660029004612a3a929190613dc8565b5081836009018190555080600201836002019080546001816001161561010002031660029004612a6b929190613dc8565b5080600301836003019080546001816001161561010002031660029004612a93929190613dc8565b508060050160009054906101000a900460ff1683600a0160006101000a81548160ff02191690831515021790555082600101836009015484600b0160000160009054906101000a900463ffffffff1685600b0160000160049054906101000a900463ffffffff1686600b0160000160089054906101000a900463ffffffff16848054600181600116156101000203166002900480601f016020809104026020016040519081016040528092919081815260200182805460018160011615610100020316600290048015612ba75780601f10612b7c57610100808354040283529160200191612ba7565b820191906000526020600020905b815481529060010190602001808311612b8a57829003601f168201915b50505050509450985098509850985098505050505091939590929450565b612bcd61224a565b612bd657600080fd5b612bdf81613b8b565b50565b60008060088381548110612bf257fe5b90600052602060002090600c020190506000816009015490506000600160008381526020019081526020016000205414158015612c42575080600160008381526020019081526020016000205414155b92505050919050565b60008082840190508363ffffffff168163ffffffff161015612c6957fe5b8091505092915050565b600081841415612c865760009050612d38565b84600401600c9054906101000a900460ff1680612cb2575082600401600c9054906101000a900460ff16155b15612cc05760009050612d38565b8185600601541480612cd55750838360070154145b15612ce35760009050612d38565b600085600701541480612cfa575060008360070154145b15612d085760019050612d38565b826006015485600601541480612d25575082600701548560070154145b15612d335760009050612d38565b600190505b949350505050565b60006009600084815260200190815260200160002060009054906101000a900473ffffffffffffffffffffffffffffffffffffffff1673ffffffffffffffffffffffffffffffffffffffff163373ffffffffffffffffffffffffffffffffffffffff1614612dad57600080fd5b6009600083815260200190815260200160002060009054906101000a900473ffffffffffffffffffffffffffffffffffffffff1673ffffffffffffffffffffffffffffffffffffffff163373ffffffffffffffffffffffffffffffffffffffff1614612e1857600080fd5b6001905092915050565b600080828401905083811015612e3457fe5b8091505092915050565b600060088381548110612e4d57fe5b90600052602060002090600c02019050818160080181905550612e6f81613c83565b7f6b4808987a5cecdf67d54ca5dc20664fafca80ef7195097800c12549245ab20d338484604051808473ffffffffffffffffffffffffffffffffffffffff1673ffffffffffffffffffffffffffffffffffffffff168152602001838152602001828152602001935050505060405180910390a1505050565b6000438260040160089054906101000a900463ffffffff1663ffffffff1611159050919050565b60008060088381548110612f1e57fe5b90600052602060002090600c020190506000816009015490506000600160026000848152602001908152602001600020540390506000612f5d88612f79565b9050612f6c8882898986613012565b9450505050509392505050565b600080826040516020018082805190602001908083835b60208310612fb35780518252602082019150602081019050602083039250612f90565b6001836020036101000a03801982511681845116808217855250505050505090500191505060405160208183030381529060405280519060200120600190049050600044430190506005548183018161300857fe5b0692505050919050565b6000606060066040519080825280602002602001820160405280156130465781602001602082028038833980820191505090505b5090506000869050600080600090505b60068110156130af57600a838161306957fe5b0691508184828151811061307957fe5b602002602001019063ffffffff16908163ffffffff1681525050600a8284038161309f57fe5b0492508080600101915050613056565b506130b8613e4f565b600386815481106130c557fe5b90600052602060002090600702016040518060e0016040529081600082018054600181600116156101000203166002900480601f0160208091040260200160405190810160405280929190818152602001828054600181600116156101000203166002900480156131775780601f1061314c57610100808354040283529160200191613177565b820191906000526020600020905b81548152906001019060200180831161315a57829003601f168201915b5050505050815260200160018201548152602001600282018054600181600116156101000203166002900480601f0160208091040260200160405190810160405280929190818152602001828054600181600116156101000203166002900480156132235780601f106131f857610100808354040283529160200191613223565b820191906000526020600020905b81548152906001019060200180831161320657829003601f168201915b50505050508152602001600382018054600181600116156101000203166002900480601f0160208091040260200160405190810160405280929190818152602001828054600181600116156101000203166002900480156132c55780601f1061329a576101008083540402835291602001916132c5565b820191906000526020600020905b8154815290600101906020018083116132a857829003601f168201915b50505050508152602001600482015481526020016005820160009054906101000a900460ff16151515158152602001600682016040518060c00160405290816000820160009054906101000a900463ffffffff1663ffffffff1663ffffffff1681526020016000820160049054906101000a900463ffffffff1663ffffffff1663ffffffff1681526020016000820160089054906101000a900463ffffffff1663ffffffff1663ffffffff16815260200160008201600c9054906101000a900463ffffffff1663ffffffff1663ffffffff1681526020016000820160109054906101000a900463ffffffff1663ffffffff1663ffffffff1681526020016000820160149054906101000a900463ffffffff1663ffffffff1663ffffffff1681525050815250509050613422846000815181106133fd57fe5b60200260200101518260c001516000015163ffffffff16612c4b90919063ffffffff16565b8160c001516000019063ffffffff16908163ffffffff16815250506134728460018151811061344d57fe5b60200260200101518260c001516020015163ffffffff16612c4b90919063ffffffff16565b8160c001516020019063ffffffff16908163ffffffff16815250506134c28460028151811061349d57fe5b60200260200101518260c001516040015163ffffffff16612c4b90919063ffffffff16565b8160c001516040019063ffffffff16908163ffffffff1681525050613512846003815181106134ed57fe5b60200260200101518260c001516060015163ffffffff16612c4b90919063ffffffff16565b8160c001516060019063ffffffff16908163ffffffff16815250506135628460048151811061353d57fe5b60200260200101518260c001516080015163ffffffff16612c4b90919063ffffffff16565b8160c001516080019063ffffffff16908163ffffffff16815250506135b28460058151811061358d57fe5b60200260200101518260c0015160a0015163ffffffff16612c4b90919063ffffffff16565b8160c0015160a0019063ffffffff16908163ffffffff16815250506135d5613e94565b604051806101e001604052808c8152602001836000015181526020018360400151815260200183606001518152602001600163ffffffff168152602001600063ffffffff168152602001600063ffffffff1681526020016136358d613cad565b151581526020018b81526020018a815260200189815260200160008152602001836020015181526020018360a00151151581526020018360c001518152509050600060016008839080600181540180825580915050906001820390600052602060002090600c02016000909192909190915060008201518160000190805190602001906136c3929190613f26565b5060208201518160010190805190602001906136e0929190613f26565b5060408201518160020190805190602001906136fd929190613f26565b50606082015181600301908051906020019061371a929190613f26565b5060808201518160040160006101000a81548163ffffffff021916908363ffffffff16021790555060a08201518160040160046101000a81548163ffffffff021916908363ffffffff16021790555060c08201518160040160086101000a81548163ffffffff021916908363ffffffff16021790555060e082015181600401600c6101000a81548160ff021916908315150217905550610100820151816005015561012082015181600601556101408201518160070155610160820151816008015561018082015181600901556101a082015181600a0160006101000a81548160ff0219169083151502179055506101c082015181600b0160008201518160000160006101000a81548163ffffffff021916908363ffffffff16021790555060208201518160000160046101000a81548163ffffffff021916908363ffffffff16021790555060408201518160000160086101000a81548163ffffffff021916908363ffffffff160217905550606082015181600001600c6101000a81548163ffffffff021916908363ffffffff16021790555060808201518160000160106101000a81548163ffffffff021916908363ffffffff16021790555060a08201518160000160146101000a81548163ffffffff021916908363ffffffff16021790555050505050039050336009600083815260200190815260200160002060006101000a81548173ffffffffffffffffffffffffffffffffffffffff021916908373ffffffffffffffffffffffffffffffffffffffff1602179055506139a86001600a60003373ffffffffffffffffffffffffffffffffffffffff1673ffffffffffffffffffffffffffffffffffffffff16815260200190815260200160002054612e2290919063ffffffff16565b600a60003373ffffffffffffffffffffffffffffffffffffffff1673ffffffffffffffffffffffffffffffffffffffff168152602001908152602001600020819055507fb2ddd0094c7d8b02387161898cbaa1bbcb4cee4731fdeceb76548071724adcd2818d8d6040518084815260200180602001838152602001828103825284818151815260200191508051906020019080838360005b83811015613a5b578082015181840152602081019050613a40565b50505050905090810190601f168015613a885780820380516001836020036101000a031916815260200191505b5094505050505060405180910390a180965050505050505095945050505050565b6000808260080154148015613ac35750613ac282612ee7565b5b9050919050565b600080600a6003805490500344430181613ae057fe5b0690506000600160026000848152602001908152602001600020540390506000613b3e6040518060400160405280600681526020017f4e6f4e616d650000000000000000000000000000000000000000000000000000815250612f79565b9050613b836040518060400160405280600681526020017f4e6f4e616d6500000000000000000000000000000000000000000000000000008152508260008086613012565b935050505090565b600073ffffffffffffffffffffffffffffffffffffffff168173ffffffffffffffffffffffffffffffffffffffff161415613bc557600080fd5b8073ffffffffffffffffffffffffffffffffffffffff166000809054906101000a900473ffffffffffffffffffffffffffffffffffffffff1673ffffffffffffffffffffffffffffffffffffffff167f8be0079c531659141344cd1fd0a4f28419497f9722a3daafe3b4186f6b6457e060405160405180910390a3806000806101000a81548173ffffffffffffffffffffffffffffffffffffffff021916908373ffffffffffffffffffffffffffffffffffffffff16021790555050565b60075443018160040160086101000a81548163ffffffff021916908363ffffffff16021790555050565b600080826040516020018082805190602001908083835b60208310613ce75780518252602082019150602081019050602083039250613cc4565b6001836020036101000a03801982511681845116808217855250505050505090500191505060405160208183030381529060405280519060200120600190049050600044430190506000600282840181613d3d57fe5b061492505050919050565b828054600181600116156101000203166002900490600052602060002090601f016020900481019282601f10613d8957803560ff1916838001178555613db7565b82800160010185558215613db7579182015b82811115613db6578235825591602001919060010190613d9b565b5b509050613dc49190613fa6565b5090565b828054600181600116156101000203166002900490600052602060002090601f016020900481019282601f10613e015780548555613e3e565b82800160010185558215613e3e57600052602060002091601f016020900482015b82811115613e3d578254825591600101919060010190613e22565b5b509050613e4b9190613fa6565b5090565b6040518060e001604052806060815260200160008152602001606081526020016060815260200160008152602001600015158152602001613e8e613fcb565b81525090565b604051806101e0016040528060608152602001606081526020016060815260200160608152602001600063ffffffff168152602001600063ffffffff168152602001600063ffffffff1681526020016000151581526020016000815260200160008152602001600081526020016000815260200160008152602001600015158152602001613f20613fcb565b81525090565b828054600181600116156101000203166002900490600052602060002090601f016020900481019282601f10613f6757805160ff1916838001178555613f95565b82800160010185558215613f95579182015b82811115613f94578251825591602001919060010190613f79565b5b509050613fa29190613fa6565b5090565b613fc891905b80821115613fc4576000816000905550600101613fac565b5090565b90565b6040518060c00160405280600063ffffffff168152602001600063ffffffff168152602001600063ffffffff168152602001600063ffffffff168152602001600063ffffffff168152602001600063ffffffff168152509056fea265627a7a72315820eba404070946e43a2c9208428fdbd6203e356f62e12b74e36d34eaca462ce81264736f6c63430005100032",
  "source": "pragma solidity >=0.5.0 <0.6.0;\n\nimport \"./PokemonCardBreeding.sol\";\n\ncontract PokemonCardHelper is PokemonCardBreeding {\n\tuint levelUpFee = 0.001 ether;\n\tmapping (address => uint) pendingWithdrawals;\n\n\tevent PokemonLevelUp(uint _pokemonId, uint newLevel);\n\tevent PokemonEvolve(uint _pokemonId);\n\n\tmodifier aboveLevel(uint _level, uint _pokemonId) {\n\t\trequire(pokemons[_pokemonId].level >= _level);\n\t\t_;\n\t}\n\n\tfunction setLevelUpFee(uint _fee) external onlyOwner {\n\t\tlevelUpFee = _fee;\n\t}\n\n\tfunction levelUp(uint _pokemonId) external payable ownerOfPokemon(_pokemonId) {\n\t\trequire(msg.value == levelUpFee);\n\t\tpendingWithdrawals[address(this)] += msg.value;\n\t\tPokemon storage pokemon = pokemons[_pokemonId];\n\t\tpokemon.level = pokemons[_pokemonId].level.add(1);\n\n\t\tpokemon.baseStats.hp = pokemon.baseStats.hp.add(5);\n\t\tpokemon.baseStats.attack = pokemon.baseStats.attack.add(2);\n\t\tpokemon.baseStats.defense = pokemon.baseStats.defense.add(2);\n\t\tpokemon.baseStats.specialAttack = pokemon.baseStats.specialAttack.add(1);\n\t\tpokemon.baseStats.specialDefense = pokemon.baseStats.specialDefense.add(1);\n\t\tpokemon.baseStats.speed = pokemon.baseStats.speed.add(2);\n\n\t\temit PokemonLevelUp(_pokemonId, pokemon.level);\n\t}\n\n\tfunction changeName(uint _pokemonId, string calldata _newName) external aboveLevel(2, _pokemonId) {\n\t\tpokemons[_pokemonId].name = _newName;\n\t}\n\n\tfunction evolve(uint _pokemonId) external ownerOfPokemon(_pokemonId) returns(string memory, uint, uint32, uint32, uint32) {\n\t\trequire(isEvovalble(_pokemonId));\n\t\tPokemon storage pokemon = pokemons[_pokemonId];\n\n\t\tpokemon.baseStats.hp = pokemon.baseStats.hp.add(12);\n\t\tpokemon.baseStats.attack = pokemon.baseStats.attack.add(6);\n\t\tpokemon.baseStats.defense = pokemon.baseStats.defense.add(6);\n\t\tpokemon.baseStats.specialAttack = pokemon.baseStats.specialAttack.add(6);\n\t\tpokemon.baseStats.specialDefense = pokemon.baseStats.specialDefense.add(6);\n\t\tpokemon.baseStats.speed = pokemon.baseStats.speed.add(6);\n\n\t\tuint newPokemonNumber = evolution[pokemon.pokemonNumber];\n\t\tBasePokemon storage basePokemon = basePokemons[newPokemonNumber-1];\n\n\t\trequire(basePokemon.number == newPokemonNumber);\n\t\tpokemon.name = basePokemon.name;\n\t\tpokemon.pokemonNumber = newPokemonNumber;\n\t\tpokemon.type1 = basePokemon.type1;\n\t\tpokemon.type2 = basePokemon.type2;\n\t\tpokemon.legendary = basePokemon.legendary;\n\t\treturn (pokemon.name, pokemon.pokemonNumber, pokemon.baseStats.hp, pokemon.baseStats.attack, pokemon.baseStats.defense);\n\n\t}\n\n\tfunction getPokemonCardsByOwner(address _owner) external view returns (uint[] memory) {\n\t\tuint[] memory result = new uint[](ownerPokemonCount[_owner]);\n\t\tuint counter = 0;\n\t\tfor (uint i = 0; i < pokemons.length; i++) {\n\t\t\tif (pokemonToOwner[i] == _owner) {\n\t\t\t\tresult[counter] = i;\n\t\t\t\tcounter = counter.add(1);\n\t\t\t}\n\t\t}\n\t\treturn result;\n\t}\n\n\tfunction isEvovalble(uint _pokemonId) public view returns(bool) {\n\t\tPokemon storage pokemon = pokemons[_pokemonId];\n\t\tuint pokemonNumber = pokemon.pokemonNumber;\n\t\treturn evolution[pokemonNumber] != 0 && evolution[pokemonNumber] != pokemonNumber;\n\t}\n\n\tfunction buyStarterPack() external payable returns(uint) {\n\t\trequire(msg.value == 1.5 ether, \"a pack costs 1.5 ether\");\n\t\tpendingWithdrawals[owner()] += 1.5 ether;\n\t\treturn createRandomPokemon();\n\t}\n\n    /**\n\tTransfer the accumulated ETH by player. The balance is reset to 0 after withdraw.\n    **/\n    function withdraw() public {\n        uint256 amount = pendingWithdrawals[msg.sender];\n        pendingWithdrawals[msg.sender] = 0;\n        msg.sender.transfer(amount);\n    }\n\n    /**\n    Return the amount the user can withdrawl.\n    **/\n    function getPendingWithdrawals() public view returns(uint) {\n    \treturn pendingWithdrawals[msg.sender];\n    }\n}",
  "sourcePath": "/Users/ztq/Dropbox/Computer Science/CO467/crypto-pokemons/contracts/PokemonCardHelper.sol",
  "compiler": {
    "name": "solc",
    "version": "0.5.16+commit.9c3226ce.Emscripten.clang"
  },
  "schemaVersion": "3.0.23",
  "updatedAt": "2020-02-12T16:40:39.670Z",
  "devdoc": {
    "methods": {
      "isOwner()": {
        "return": "true if `msg.sender` is the owner of the contract."
      },
      "owner()": {
        "return": "the address of the owner."
      },
      "renounceOwnership()": {
        "details": "Allows the current owner to relinquish control of the contract."
      },
      "transferOwnership(address)": {
        "details": "Allows the current owner to transfer control of the contract to a newOwner.",
        "params": {
          "newOwner": "The address to transfer ownership to."
        }
      }
    }
  },
  "userdoc": {
    "methods": {
      "getPendingWithdrawals()": {
        "notice": "Return the amount the user can withdrawl.*"
      },
      "renounceOwnership()": {
        "notice": "Renouncing to ownership will leave the contract without an owner. It will not be possible to call the functions with the `onlyOwner` modifier anymore."
      },
      "withdraw()": {
        "notice": "Transfer the accumulated ETH by player. The balance is reset to 0 after withdraw.*"
      }
    }
  }
}