{
  "contractName": "PokemonCardBreeding",
  "abi": [
    {
      "anonymous": false,
      "inputs": [
        {
          "indexed": false,
          "internalType": "uint256",
          "name": "pokemonId",
          "type": "uint256"
        },
        {
          "indexed": false,
          "internalType": "string",
          "name": "name",
          "type": "string"
        },
        {
          "indexed": false,
          "internalType": "uint256",
          "name": "dna",
          "type": "uint256"
        }
      ],
      "name": "NewPokemon",
      "type": "event"
    },
    {
      "anonymous": false,
      "inputs": [
        {
          "indexed": true,
          "internalType": "address",
          "name": "previousOwner",
          "type": "address"
        },
        {
          "indexed": true,
          "internalType": "address",
          "name": "newOwner",
          "type": "address"
        }
      ],
      "name": "OwnershipTransferred",
      "type": "event"
    },
    {
      "anonymous": false,
      "inputs": [
        {
          "indexed": false,
          "internalType": "address",
          "name": "owner",
          "type": "address"
        },
        {
          "indexed": false,
          "internalType": "uint256",
          "name": "motherId",
          "type": "uint256"
        },
        {
          "indexed": false,
          "internalType": "uint256",
          "name": "fatherId",
          "type": "uint256"
        }
      ],
      "name": "Pregnant",
      "type": "event"
    },
    {
      "constant": true,
      "inputs": [],
      "name": "birthFee",
      "outputs": [
        {
          "internalType": "uint256",
          "name": "",
          "type": "uint256"
        }
      ],
      "payable": false,
      "stateMutability": "view",
      "type": "function"
    },
    {
      "constant": false,
      "inputs": [
        {
          "internalType": "string",
          "name": "_nickname",
          "type": "string"
        },
        {
          "internalType": "uint256",
          "name": "_pokemonNumber",
          "type": "uint256"
        }
      ],
      "name": "createStarterPokemon",
      "outputs": [
        {
          "internalType": "uint256",
          "name": "",
          "type": "uint256"
        }
      ],
      "payable": false,
      "stateMutability": "nonpayable",
      "type": "function"
    },
    {
      "constant": true,
      "inputs": [
        {
          "internalType": "uint256",
          "name": "pokemonNumber",
          "type": "uint256"
        }
      ],
      "name": "getBasicPokemonInfo",
      "outputs": [
        {
          "internalType": "string",
          "name": "",
          "type": "string"
        },
        {
          "internalType": "string",
          "name": "",
          "type": "string"
        },
        {
          "internalType": "string",
          "name": "",
          "type": "string"
        },
        {
          "internalType": "bool",
          "name": "",
          "type": "bool"
        }
      ],
      "payable": false,
      "stateMutability": "view",
      "type": "function"
    },
    {
      "constant": true,
      "inputs": [
        {
          "internalType": "uint256",
          "name": "_pokemonId",
          "type": "uint256"
        }
      ],
      "name": "getPokemonBattleDetails",
      "outputs": [
        {
          "internalType": "uint32",
          "name": "",
          "type": "uint32"
        }
      ],
      "payable": false,
      "stateMutability": "view",
      "type": "function"
    },
    {
      "constant": true,
      "inputs": [
        {
          "internalType": "uint256",
          "name": "_pokemonId",
          "type": "uint256"
        }
      ],
      "name": "getPokemonBreedingDetails",
      "outputs": [
        {
          "internalType": "uint32",
          "name": "",
          "type": "uint32"
        },
        {
          "internalType": "bool",
          "name": "",
          "type": "bool"
        },
        {
          "internalType": "uint256",
          "name": "",
          "type": "uint256"
        },
        {
          "internalType": "uint256",
          "name": "",
          "type": "uint256"
        },
        {
          "internalType": "uint256",
          "name": "",
          "type": "uint256"
        }
      ],
      "payable": false,
      "stateMutability": "view",
      "type": "function"
    },
    {
      "constant": true,
      "inputs": [],
      "name": "getPokemonCardsByOwner",
      "outputs": [
        {
          "internalType": "uint256[]",
          "name": "",
          "type": "uint256[]"
        }
      ],
      "payable": false,
      "stateMutability": "view",
      "type": "function"
    },
    {
      "constant": true,
      "inputs": [
        {
          "internalType": "uint256",
          "name": "_pokemonId",
          "type": "uint256"
        }
      ],
      "name": "getPokemonInfo",
      "outputs": [
        {
          "internalType": "string",
          "name": "",
          "type": "string"
        },
        {
          "internalType": "string",
          "name": "",
          "type": "string"
        },
        {
          "internalType": "string",
          "name": "",
          "type": "string"
        },
        {
          "internalType": "string",
          "name": "",
          "type": "string"
        },
        {
          "internalType": "uint32",
          "name": "",
          "type": "uint32"
        },
        {
          "internalType": "uint256",
          "name": "",
          "type": "uint256"
        },
        {
          "internalType": "bool",
          "name": "",
          "type": "bool"
        }
      ],
      "payable": false,
      "stateMutability": "view",
      "type": "function"
    },
    {
      "constant": true,
      "inputs": [
        {
          "internalType": "uint256",
          "name": "pokemonNumber",
          "type": "uint256"
        }
      ],
      "name": "getPokemonName",
      "outputs": [
        {
          "internalType": "string",
          "name": "",
          "type": "string"
        }
      ],
      "payable": false,
      "stateMutability": "view",
      "type": "function"
    },
    {
      "constant": true,
      "inputs": [
        {
          "internalType": "uint256",
          "name": "_pokemonId",
          "type": "uint256"
        }
      ],
      "name": "getPokemonStats",
      "outputs": [
        {
          "internalType": "uint32",
          "name": "",
          "type": "uint32"
        },
        {
          "internalType": "uint32",
          "name": "",
          "type": "uint32"
        },
        {
          "internalType": "uint32",
          "name": "",
          "type": "uint32"
        },
        {
          "internalType": "uint32",
          "name": "",
          "type": "uint32"
        },
        {
          "internalType": "uint32",
          "name": "",
          "type": "uint32"
        },
        {
          "internalType": "uint32",
          "name": "",
          "type": "uint32"
        }
      ],
      "payable": false,
      "stateMutability": "view",
      "type": "function"
    },
    {
      "constant": true,
      "inputs": [],
      "name": "isNewTrainer",
      "outputs": [
        {
          "internalType": "bool",
          "name": "",
          "type": "bool"
        }
      ],
      "payable": false,
      "stateMutability": "view",
      "type": "function"
    },
    {
      "constant": true,
      "inputs": [],
      "name": "isOwner",
      "outputs": [
        {
          "internalType": "bool",
          "name": "",
          "type": "bool"
        }
      ],
      "payable": false,
      "stateMutability": "view",
      "type": "function"
    },
    {
      "constant": true,
      "inputs": [],
      "name": "owner",
      "outputs": [
        {
          "internalType": "address",
          "name": "",
          "type": "address"
        }
      ],
      "payable": false,
      "stateMutability": "view",
      "type": "function"
    },
    {
      "constant": true,
      "inputs": [
        {
          "internalType": "uint256",
          "name": "",
          "type": "uint256"
        }
      ],
      "name": "pokemonToOwner",
      "outputs": [
        {
          "internalType": "address",
          "name": "",
          "type": "address"
        }
      ],
      "payable": false,
      "stateMutability": "view",
      "type": "function"
    },
    {
      "constant": false,
      "inputs": [],
      "name": "renounceOwnership",
      "outputs": [],
      "payable": false,
      "stateMutability": "nonpayable",
      "type": "function"
    },
    {
      "constant": true,
      "inputs": [],
      "name": "returnNumberOfPokemons",
      "outputs": [
        {
          "internalType": "uint256",
          "name": "",
          "type": "uint256"
        }
      ],
      "payable": false,
      "stateMutability": "view",
      "type": "function"
    },
    {
      "constant": true,
      "inputs": [],
      "name": "returnTotalNumberOfPokemons",
      "outputs": [
        {
          "internalType": "uint256",
          "name": "",
          "type": "uint256"
        }
      ],
      "payable": false,
      "stateMutability": "view",
      "type": "function"
    },
    {
      "constant": false,
      "inputs": [
        {
          "internalType": "address",
          "name": "newOwner",
          "type": "address"
        }
      ],
      "name": "transferOwnership",
      "outputs": [],
      "payable": false,
      "stateMutability": "nonpayable",
      "type": "function"
    },
    {
      "constant": true,
      "inputs": [
        {
          "internalType": "uint256",
          "name": "_pokemonId",
          "type": "uint256"
        }
      ],
      "name": "isReadyToBreed",
      "outputs": [
        {
          "internalType": "bool",
          "name": "",
          "type": "bool"
        }
      ],
      "payable": false,
      "stateMutability": "view",
      "type": "function"
    },
    {
      "constant": true,
      "inputs": [
        {
          "internalType": "uint256",
          "name": "_pokemonId",
          "type": "uint256"
        }
      ],
      "name": "isPregnant",
      "outputs": [
        {
          "internalType": "bool",
          "name": "",
          "type": "bool"
        }
      ],
      "payable": false,
      "stateMutability": "view",
      "type": "function"
    },
    {
      "constant": true,
      "inputs": [
        {
          "internalType": "uint256",
          "name": "_motherId",
          "type": "uint256"
        },
        {
          "internalType": "uint256",
          "name": "_fatherId",
          "type": "uint256"
        }
      ],
      "name": "canBreedWith",
      "outputs": [
        {
          "internalType": "bool",
          "name": "",
          "type": "bool"
        }
      ],
      "payable": false,
      "stateMutability": "view",
      "type": "function"
    },
    {
      "constant": false,
      "inputs": [
        {
          "internalType": "uint256",
          "name": "_motherId",
          "type": "uint256"
        }
      ],
      "name": "giveBirth",
      "outputs": [],
      "payable": false,
      "stateMutability": "nonpayable",
      "type": "function"
    },
    {
      "constant": false,
      "inputs": [
        {
          "internalType": "uint256",
          "name": "fee",
          "type": "uint256"
        }
      ],
      "name": "setBirthFee",
      "outputs": [],
      "payable": false,
      "stateMutability": "nonpayable",
      "type": "function"
    },
    {
      "constant": false,
      "inputs": [
        {
          "internalType": "uint256",
          "name": "_motherId",
          "type": "uint256"
        },
        {
          "internalType": "uint256",
          "name": "_fatherId",
          "type": "uint256"
        }
      ],
      "name": "breedWith",
      "outputs": [],
      "payable": true,
      "stateMutability": "payable",
      "type": "function"
    }
  ],
  "bytecode": "0x60806040526010600455600454600a0a60055562015180600655620d2f006007556605543df729c000600b55336000806101000a81548173ffffffffffffffffffffffffffffffffffffffff021916908373ffffffffffffffffffffffffffffffffffffffff1602179055506000809054906101000a900473ffffffffffffffffffffffffffffffffffffffff1673ffffffffffffffffffffffffffffffffffffffff16600073ffffffffffffffffffffffffffffffffffffffff167f8be0079c531659141344cd1fd0a4f28419497f9722a3daafe3b4186f6b6457e060405160405180910390a3620001006200018a640100000000026401000000009004565b6200011962001e74640100000000026401000000009004565b6200013262002592640100000000026401000000009004565b620001836040518060400160405280600781526020017f496e697469616c000000000000000000000000000000000000000000000000008152506000620034ea640100000000026401000000009004565b506200443a565b60036040518060e001604052806040518060400160405280600981526020017f42756c62617361757200000000000000000000000000000000000000000000008152508152602001600181526020016040518060400160405280600581526020017f477261737300000000000000000000000000000000000000000000000000000081525081526020016040518060400160405280600681526020017f506f69736f6e0000000000000000000000000000000000000000000000000000815250815260200161024681526020016000151581526020016040518060c00160405280602d63ffffffff168152602001603163ffffffff168152602001603163ffffffff168152602001604163ffffffff168152602001604163ffffffff168152602001602d63ffffffff168152508152509080600181540180825580915050906001820390600052602060002090600702016000909192909190915060008201518160000190805190602001906200030392919062004256565b506020820151816001015560408201518160020190805190602001906200032c92919062004256565b5060608201518160030190805190602001906200034b92919062004256565b506080820151816004015560a08201518160050160006101000a81548160ff02191690831515021790555060c08201518160060160008201518160000160006101000a81548163ffffffff021916908363ffffffff16021790555060208201518160000160046101000a81548163ffffffff021916908363ffffffff16021790555060408201518160000160086101000a81548163ffffffff021916908363ffffffff160217905550606082015181600001600c6101000a81548163ffffffff021916908363ffffffff16021790555060808201518160000160106101000a81548163ffffffff021916908363ffffffff16021790555060a08201518160000160146101000a81548163ffffffff021916908363ffffffff160217905550505050505060036040518060e001604052806040518060400160405280600781526020017f49767973617572000000000000000000000000000000000000000000000000008152508152602001600281526020016040518060400160405280600581526020017f477261737300000000000000000000000000000000000000000000000000000081525081526020016040518060400160405280600681526020017f506f69736f6e000000000000000000000000000000000000000000000000000081525081526020016101ef81526020016000151581526020016040518060c00160405280603c63ffffffff168152602001603e63ffffffff168152602001603f63ffffffff168152602001605063ffffffff168152602001605063ffffffff168152602001603c63ffffffff16815250815250908060018154018082558091505090600182039060005260206000209060070201600090919290919091506000820151816000019080519060200190620005e792919062004256565b506020820151816001015560408201518160020190805190602001906200061092919062004256565b5060608201518160030190805190602001906200062f92919062004256565b506080820151816004015560a08201518160050160006101000a81548160ff02191690831515021790555060c08201518160060160008201518160000160006101000a81548163ffffffff021916908363ffffffff16021790555060208201518160000160046101000a81548163ffffffff021916908363ffffffff16021790555060408201518160000160086101000a81548163ffffffff021916908363ffffffff160217905550606082015181600001600c6101000a81548163ffffffff021916908363ffffffff16021790555060808201518160000160106101000a81548163ffffffff021916908363ffffffff16021790555060a08201518160000160146101000a81548163ffffffff021916908363ffffffff160217905550505050505060036040518060e001604052806040518060400160405280600881526020017f56656e75736175720000000000000000000000000000000000000000000000008152508152602001600381526020016040518060400160405280600581526020017f477261737300000000000000000000000000000000000000000000000000000081525081526020016040518060400160405280600681526020017f506f69736f6e0000000000000000000000000000000000000000000000000000815250815260200161017781526020016000151581526020016040518060c00160405280605063ffffffff168152602001605263ffffffff168152602001605363ffffffff168152602001606463ffffffff168152602001606463ffffffff168152602001605063ffffffff16815250815250908060018154018082558091505090600182039060005260206000209060070201600090919290919091506000820151816000019080519060200190620008cb92919062004256565b50602082015181600101556040820151816002019080519060200190620008f492919062004256565b5060608201518160030190805190602001906200091392919062004256565b506080820151816004015560a08201518160050160006101000a81548160ff02191690831515021790555060c08201518160060160008201518160000160006101000a81548163ffffffff021916908363ffffffff16021790555060208201518160000160046101000a81548163ffffffff021916908363ffffffff16021790555060408201518160000160086101000a81548163ffffffff021916908363ffffffff160217905550606082015181600001600c6101000a81548163ffffffff021916908363ffffffff16021790555060808201518160000160106101000a81548163ffffffff021916908363ffffffff16021790555060a08201518160000160146101000a81548163ffffffff021916908363ffffffff160217905550505050505060036040518060e001604052806040518060400160405280600a81526020017f436861726d616e646572000000000000000000000000000000000000000000008152508152602001600481526020016040518060400160405280600481526020017f466972650000000000000000000000000000000000000000000000000000000081525081526020016040518060400160405280600381526020017f6e616e0000000000000000000000000000000000000000000000000000000000815250815260200161024f81526020016000151581526020016040518060c00160405280602763ffffffff168152602001603463ffffffff168152602001602b63ffffffff168152602001603c63ffffffff168152602001603263ffffffff168152602001604163ffffffff1681525081525090806001815401808255809150509060018203906000526020600020906007020160009091929091909150600082015181600001908051906020019062000baf92919062004256565b5060208201518160010155604082015181600201908051906020019062000bd892919062004256565b50606082015181600301908051906020019062000bf792919062004256565b506080820151816004015560a08201518160050160006101000a81548160ff02191690831515021790555060c08201518160060160008201518160000160006101000a81548163ffffffff021916908363ffffffff16021790555060208201518160000160046101000a81548163ffffffff021916908363ffffffff16021790555060408201518160000160086101000a81548163ffffffff021916908363ffffffff160217905550606082015181600001600c6101000a81548163ffffffff021916908363ffffffff16021790555060808201518160000160106101000a81548163ffffffff021916908363ffffffff16021790555060a08201518160000160146101000a81548163ffffffff021916908363ffffffff160217905550505050505060036040518060e001604052806040518060400160405280600a81526020017f436861726d656c656f6e000000000000000000000000000000000000000000008152508152602001600581526020016040518060400160405280600481526020017f466972650000000000000000000000000000000000000000000000000000000081525081526020016040518060400160405280600381526020017f6e616e000000000000000000000000000000000000000000000000000000000081525081526020016101ef81526020016000151581526020016040518060c00160405280603a63ffffffff168152602001604063ffffffff168152602001603a63ffffffff168152602001605063ffffffff168152602001604163ffffffff168152602001605063ffffffff1681525081525090806001815401808255809150509060018203906000526020600020906007020160009091929091909150600082015181600001908051906020019062000e9392919062004256565b5060208201518160010155604082015181600201908051906020019062000ebc92919062004256565b50606082015181600301908051906020019062000edb92919062004256565b506080820151816004015560a08201518160050160006101000a81548160ff02191690831515021790555060c08201518160060160008201518160000160006101000a81548163ffffffff021916908363ffffffff16021790555060208201518160000160046101000a81548163ffffffff021916908363ffffffff16021790555060408201518160000160086101000a81548163ffffffff021916908363ffffffff160217905550606082015181600001600c6101000a81548163ffffffff021916908363ffffffff16021790555060808201518160000160106101000a81548163ffffffff021916908363ffffffff16021790555060a08201518160000160146101000a81548163ffffffff021916908363ffffffff160217905550505050505060036040518060e001604052806040518060400160405280600981526020017f43686172697a61726400000000000000000000000000000000000000000000008152508152602001600681526020016040518060400160405280600481526020017f466972650000000000000000000000000000000000000000000000000000000081525081526020016040518060400160405280600681526020017f466c79696e670000000000000000000000000000000000000000000000000000815250815260200161016e81526020016000151581526020016040518060c00160405280604e63ffffffff168152602001605463ffffffff168152602001604e63ffffffff168152602001606d63ffffffff168152602001605563ffffffff168152602001606463ffffffff168152508152509080600181540180825580915050906001820390600052602060002090600702016000909192909190915060008201518160000190805190602001906200117792919062004256565b50602082015181600101556040820151816002019080519060200190620011a092919062004256565b506060820151816003019080519060200190620011bf92919062004256565b506080820151816004015560a08201518160050160006101000a81548160ff02191690831515021790555060c08201518160060160008201518160000160006101000a81548163ffffffff021916908363ffffffff16021790555060208201518160000160046101000a81548163ffffffff021916908363ffffffff16021790555060408201518160000160086101000a81548163ffffffff021916908363ffffffff160217905550606082015181600001600c6101000a81548163ffffffff021916908363ffffffff16021790555060808201518160000160106101000a81548163ffffffff021916908363ffffffff16021790555060a08201518160000160146101000a81548163ffffffff021916908363ffffffff160217905550505050505060036040518060e001604052806040518060400160405280600881526020017f5371756972746c650000000000000000000000000000000000000000000000008152508152602001600781526020016040518060400160405280600581526020017f576174657200000000000000000000000000000000000000000000000000000081525081526020016040518060400160405280600381526020017f6e616e0000000000000000000000000000000000000000000000000000000000815250815260200161024a81526020016000151581526020016040518060c00160405280602c63ffffffff168152602001603063ffffffff168152602001604163ffffffff168152602001603263ffffffff168152602001604063ffffffff168152602001602b63ffffffff168152508152509080600181540180825580915050906001820390600052602060002090600702016000909192909190915060008201518160000190805190602001906200145b92919062004256565b506020820151816001015560408201518160020190805190602001906200148492919062004256565b506060820151816003019080519060200190620014a392919062004256565b506080820151816004015560a08201518160050160006101000a81548160ff02191690831515021790555060c08201518160060160008201518160000160006101000a81548163ffffffff021916908363ffffffff16021790555060208201518160000160046101000a81548163ffffffff021916908363ffffffff16021790555060408201518160000160086101000a81548163ffffffff021916908363ffffffff160217905550606082015181600001600c6101000a81548163ffffffff021916908363ffffffff16021790555060808201518160000160106101000a81548163ffffffff021916908363ffffffff16021790555060a08201518160000160146101000a81548163ffffffff021916908363ffffffff160217905550505050505060036040518060e001604052806040518060400160405280600981526020017f576172746f72746c6500000000000000000000000000000000000000000000008152508152602001600881526020016040518060400160405280600581526020017f576174657200000000000000000000000000000000000000000000000000000081525081526020016040518060400160405280600381526020017f6e616e000000000000000000000000000000000000000000000000000000000081525081526020016101ef81526020016000151581526020016040518060c00160405280603b63ffffffff168152602001603f63ffffffff168152602001605063ffffffff168152602001604163ffffffff168152602001605063ffffffff168152602001603a63ffffffff168152508152509080600181540180825580915050906001820390600052602060002090600702016000909192909190915060008201518160000190805190602001906200173f92919062004256565b506020820151816001015560408201518160020190805190602001906200176892919062004256565b5060608201518160030190805190602001906200178792919062004256565b506080820151816004015560a08201518160050160006101000a81548160ff02191690831515021790555060c08201518160060160008201518160000160006101000a81548163ffffffff021916908363ffffffff16021790555060208201518160000160046101000a81548163ffffffff021916908363ffffffff16021790555060408201518160000160086101000a81548163ffffffff021916908363ffffffff160217905550606082015181600001600c6101000a81548163ffffffff021916908363ffffffff16021790555060808201518160000160106101000a81548163ffffffff021916908363ffffffff16021790555060a08201518160000160146101000a81548163ffffffff021916908363ffffffff160217905550505050505060036040518060e001604052806040518060400160405280600981526020017f426c6173746f69736500000000000000000000000000000000000000000000008152508152602001600981526020016040518060400160405280600581526020017f576174657200000000000000000000000000000000000000000000000000000081525081526020016040518060400160405280600381526020017f6e616e0000000000000000000000000000000000000000000000000000000000815250815260200161017281526020016000151581526020016040518060c00160405280604f63ffffffff168152602001605363ffffffff168152602001606463ffffffff168152602001605563ffffffff168152602001606963ffffffff168152602001604e63ffffffff1681525081525090806001815401808255809150509060018203906000526020600020906007020160009091929091909150600082015181600001908051906020019062001a2392919062004256565b5060208201518160010155604082015181600201908051906020019062001a4c92919062004256565b50606082015181600301908051906020019062001a6b92919062004256565b506080820151816004015560a08201518160050160006101000a81548160ff02191690831515021790555060c08201518160060160008201518160000160006101000a81548163ffffffff021916908363ffffffff16021790555060208201518160000160046101000a81548163ffffffff021916908363ffffffff16021790555060408201518160000160086101000a81548163ffffffff021916908363ffffffff160217905550606082015181600001600c6101000a81548163ffffffff021916908363ffffffff16021790555060808201518160000160106101000a81548163ffffffff021916908363ffffffff16021790555060a08201518160000160146101000a81548163ffffffff021916908363ffffffff160217905550505050505060036040518060e001604052806040518060400160405280600881526020017f43617465727069650000000000000000000000000000000000000000000000008152508152602001600a81526020016040518060400160405280600381526020017f427567000000000000000000000000000000000000000000000000000000000081525081526020016040518060400160405280600381526020017f6e616e000000000000000000000000000000000000000000000000000000000081525081526020016102c181526020016000151581526020016040518060c00160405280602d63ffffffff168152602001601e63ffffffff168152602001602363ffffffff168152602001601463ffffffff168152602001601463ffffffff168152602001602d63ffffffff1681525081525090806001815401808255809150509060018203906000526020600020906007020160009091929091909150600082015181600001908051906020019062001d0792919062004256565b5060208201518160010155604082015181600201908051906020019062001d3092919062004256565b50606082015181600301908051906020019062001d4f92919062004256565b506080820151816004015560a08201518160050160006101000a81548160ff02191690831515021790555060c08201518160060160008201518160000160006101000a81548163ffffffff021916908363ffffffff16021790555060208201518160000160046101000a81548163ffffffff021916908363ffffffff16021790555060408201518160000160086101000a81548163ffffffff021916908363ffffffff160217905550606082015181600001600c6101000a81548163ffffffff021916908363ffffffff16021790555060808201518160000160106101000a81548163ffffffff021916908363ffffffff16021790555060a08201518160000160146101000a81548163ffffffff021916908363ffffffff1602179055505050505050565b600260016000600181526020019081526020016000208190555060036001600060028152602001908152602001600020819055506005600160006004815260200190815260200160002081905550600660016000600581526020019081526020016000208190555060086001600060078152602001908152602001600020819055506009600160006008815260200190815260200160002081905550600b60016000600a815260200190815260200160002081905550600c60016000600b815260200190815260200160002081905550600e60016000600d815260200190815260200160002081905550600f60016000600e81526020019081526020016000208190555060116001600060108152602001908152602001600020819055506012600160006011815260200190815260200160002081905550601460016000601381526020019081526020016000208190555060166001600060158152602001908152602001600020819055506018600160006017815260200190815260200160002081905550601a600160006019815260200190815260200160002081905550601c60016000601b815260200190815260200160002081905550601e60016000601d815260200190815260200160002081905550601f60016000601e81526020019081526020016000208190555060216001600060208152602001908152602001600020819055506022600160006021815260200190815260200160002081905550602460016000602381526020019081526020016000208190555060266001600060258152602001908152602001600020819055506028600160006027815260200190815260200160002081905550602a600160006029815260200190815260200160002081905550602c60016000602b815260200190815260200160002081905550602d60016000602c815260200190815260200160002081905550602f60016000602e81526020019081526020016000208190555060316001600060308152602001908152602001600020819055506033600160006032815260200190815260200160002081905550603560016000603481526020019081526020016000208190555060376001600060368152602001908152602001600020819055506039600160006038815260200190815260200160002081905550603b60016000603a815260200190815260200160002081905550603d60016000603c815260200190815260200160002081905550603e60016000603d815260200190815260200160002081905550604060016000603f815260200190815260200160002081905550604160016000604081526020019081526020016000208190555060436001600060428152602001908152602001600020819055506044600160006043815260200190815260200160002081905550604660016000604581526020019081526020016000208190555060476001600060468152602001908152602001600020819055506049600160006048815260200190815260200160002081905550604b60016000604a815260200190815260200160002081905550604c60016000604b815260200190815260200160002081905550604e60016000604d815260200190815260200160002081905550605060016000604f8152602001908152602001600020819055506052600160006051815260200190815260200160002081905550605560016000605481526020019081526020016000208190555060576001600060568152602001908152602001600020819055506059600160006058815260200190815260200160002081905550605b60016000605a815260200190815260200160002081905550605d60016000605c815260200190815260200160002081905550605e60016000605d81526020019081526020016000208190555060616001600060608152602001908152602001600020819055506063600160006062815260200190815260200160002081905550606560016000606481526020019081526020016000208190555060676001600060668152602001908152602001600020819055506069600160006068815260200190815260200160002081905550606e60016000606d815260200190815260200160002081905550607060016000606f81526020019081526020016000208190555060756001600060748152602001908152602001600020819055506077600160006076815260200190815260200160002081905550607960016000607881526020019081526020016000208190555060826001600060818152602001908152602001600020819055506086600160006085815260200190815260200160002081905550608b60016000608a815260200190815260200160002081905550608d60016000608c81526020019081526020016000208190555060946001600060938152602001908152602001600020819055506095600160006094815260200190815260200160002081905550565b600160026000600181526020019081526020016000208190555060016002600060028152602001908152602001600020819055506001600260006003815260200190815260200160002081905550600460026000600481526020019081526020016000208190555060046002600060058152602001908152602001600020819055506004600260006006815260200190815260200160002081905550600760026000600781526020019081526020016000208190555060076002600060088152602001908152602001600020819055506007600260006009815260200190815260200160002081905550600a60026000600a815260200190815260200160002081905550600a60026000600b815260200190815260200160002081905550600a60026000600c815260200190815260200160002081905550600d60026000600d815260200190815260200160002081905550600d60026000600e815260200190815260200160002081905550600d60026000600f8152602001908152602001600020819055506010600260006010815260200190815260200160002081905550601060026000601181526020019081526020016000208190555060106002600060128152602001908152602001600020819055506013600260006013815260200190815260200160002081905550601360026000601481526020019081526020016000208190555060156002600060158152602001908152602001600020819055506015600260006016815260200190815260200160002081905550601760026000601781526020019081526020016000208190555060176002600060188152602001908152602001600020819055506019600260006019815260200190815260200160002081905550601960026000601a815260200190815260200160002081905550601b60026000601b815260200190815260200160002081905550601b60026000601c815260200190815260200160002081905550601d60026000601d815260200190815260200160002081905550601d60026000601e815260200190815260200160002081905550601d60026000601f8152602001908152602001600020819055506020600260006020815260200190815260200160002081905550602060026000602181526020019081526020016000208190555060206002600060228152602001908152602001600020819055506023600260006023815260200190815260200160002081905550602360026000602481526020019081526020016000208190555060256002600060258152602001908152602001600020819055506025600260006026815260200190815260200160002081905550602760026000602781526020019081526020016000208190555060276002600060288152602001908152602001600020819055506029600260006029815260200190815260200160002081905550602960026000602a815260200190815260200160002081905550602b60026000602b815260200190815260200160002081905550602b60026000602c815260200190815260200160002081905550602b60026000602d815260200190815260200160002081905550602e60026000602e815260200190815260200160002081905550602e60026000602f8152602001908152602001600020819055506030600260006030815260200190815260200160002081905550603060026000603181526020019081526020016000208190555060326002600060328152602001908152602001600020819055506032600260006033815260200190815260200160002081905550603460026000603481526020019081526020016000208190555060346002600060358152602001908152602001600020819055506036600260006036815260200190815260200160002081905550603660026000603781526020019081526020016000208190555060386002600060388152602001908152602001600020819055506038600260006039815260200190815260200160002081905550603a60026000603a815260200190815260200160002081905550603a60026000603b815260200190815260200160002081905550603c60026000603c815260200190815260200160002081905550603c60026000603d815260200190815260200160002081905550603c60026000603e815260200190815260200160002081905550603f60026000603f815260200190815260200160002081905550603f600260006040815260200190815260200160002081905550603f60026000604181526020019081526020016000208190555060426002600060428152602001908152602001600020819055506042600260006043815260200190815260200160002081905550604260026000604481526020019081526020016000208190555060456002600060458152602001908152602001600020819055506045600260006046815260200190815260200160002081905550604560026000604781526020019081526020016000208190555060486002600060488152602001908152602001600020819055506048600260006049815260200190815260200160002081905550604a60026000604a815260200190815260200160002081905550604a60026000604b815260200190815260200160002081905550604a60026000604c815260200190815260200160002081905550604d60026000604d815260200190815260200160002081905550604d60026000604e815260200190815260200160002081905550604f60026000604f815260200190815260200160002081905550604f600260006050815260200190815260200160002081905550605160026000605181526020019081526020016000208190555060516002600060528152602001908152602001600020819055506053600260006053815260200190815260200160002081905550605460026000605481526020019081526020016000208190555060546002600060558152602001908152602001600020819055506056600260006056815260200190815260200160002081905550605660026000605781526020019081526020016000208190555060586002600060588152602001908152602001600020819055506058600260006059815260200190815260200160002081905550605a60026000605a815260200190815260200160002081905550605a60026000605b815260200190815260200160002081905550605c60026000605c815260200190815260200160002081905550605c60026000605d815260200190815260200160002081905550605c60026000605e815260200190815260200160002081905550605f60026000605f8152602001908152602001600020819055506060600260006060815260200190815260200160002081905550606060026000606181526020019081526020016000208190555060626002600060628152602001908152602001600020819055506062600260006063815260200190815260200160002081905550606460026000606481526020019081526020016000208190555060646002600060658152602001908152602001600020819055506066600260006066815260200190815260200160002081905550606660026000606781526020019081526020016000208190555060686002600060688152602001908152602001600020819055506068600260006069815260200190815260200160002081905550606a60026000606a815260200190815260200160002081905550606b60026000606b815260200190815260200160002081905550606c60026000606c815260200190815260200160002081905550606d60026000606d815260200190815260200160002081905550606d60026000606e815260200190815260200160002081905550606f60026000606f815260200190815260200160002081905550606f600260006070815260200190815260200160002081905550607160026000607181526020019081526020016000208190555060726002600060728152602001908152602001600020819055506073600260006073815260200190815260200160002081905550607460026000607481526020019081526020016000208190555060746002600060758152602001908152602001600020819055506076600260006076815260200190815260200160002081905550607660026000607781526020019081526020016000208190555060786002600060788152602001908152602001600020819055506078600260006079815260200190815260200160002081905550607a60026000607a815260200190815260200160002081905550607b60026000607b815260200190815260200160002081905550607c60026000607c815260200190815260200160002081905550607d60026000607d815260200190815260200160002081905550607e60026000607e815260200190815260200160002081905550607f60026000607f8152602001908152602001600020819055506080600260006080815260200190815260200160002081905550608160026000608181526020019081526020016000208190555060816002600060828152602001908152602001600020819055506083600260006083815260200190815260200160002081905550608460026000608481526020019081526020016000208190555060856002600060858152602001908152602001600020819055506085600260006086815260200190815260200160002081905550608760026000608781526020019081526020016000208190555060886002600060888152602001908152602001600020819055506089600260006089815260200190815260200160002081905550608a60026000608a815260200190815260200160002081905550608a60026000608b815260200190815260200160002081905550608c60026000608c815260200190815260200160002081905550608c60026000608d815260200190815260200160002081905550608e60026000608e815260200190815260200160002081905550608f60026000608f81526020019081526020016000208190555060906002600060908152602001908152602001600020819055506091600260006091815260200190815260200160002081905550609260026000609281526020019081526020016000208190555060936002600060938152602001908152602001600020819055506093600260006094815260200190815260200160002081905550609360026000609581526020019081526020016000208190555060966002600060968152602001908152602001600020819055506097600260006097815260200190815260200160002081905550565b600080600a60003373ffffffffffffffffffffffffffffffffffffffff1673ffffffffffffffffffffffffffffffffffffffff16815260200190815260200160002054146200353857600080fd5b6000821480620035485750600382145b80620035545750600682145b6200355e57600080fd5b60006200357a84620035a4640100000000026401000000009004565b90506200359b84826000808762003636640100000000026401000000009004565b91505092915050565b600080826040516020018082805190602001908083835b60208310620035e05780518252602082019150602081019050602083039250620035bb565b6001836020036101000a0380198251168184511680821785525050505050509050019150506040516020818303038152906040528051906020012060019004905060055481816200362d57fe5b06915050919050565b6000606060066040519080825280602002602001820160405280156200366b5781602001602082028038833980820191505090505b5090506000869050600080600090505b6006811015620036d957600a83816200369057fe5b06915081848281518110620036a157fe5b602002602001019063ffffffff16908163ffffffff1681525050600a82840381620036c857fe5b04925080806001019150506200367b565b50620036e4620042dd565b60038681548110620036f257fe5b90600052602060002090600702016040518060e0016040529081600082018054600181600116156101000203166002900480601f016020809104026020016040519081016040528092919081815260200182805460018160011615610100020316600290048015620037a85780601f106200377c57610100808354040283529160200191620037a8565b820191906000526020600020905b8154815290600101906020018083116200378a57829003601f168201915b5050505050815260200160018201548152602001600282018054600181600116156101000203166002900480601f016020809104026020016040519081016040528092919081815260200182805460018160011615610100020316600290048015620038585780601f106200382c5761010080835404028352916020019162003858565b820191906000526020600020905b8154815290600101906020018083116200383a57829003601f168201915b50505050508152602001600382018054600181600116156101000203166002900480601f016020809104026020016040519081016040528092919081815260200182805460018160011615610100020316600290048015620038fe5780601f10620038d257610100808354040283529160200191620038fe565b820191906000526020600020905b815481529060010190602001808311620038e057829003601f168201915b50505050508152602001600482015481526020016005820160009054906101000a900460ff16151515158152602001600682016040518060c00160405290816000820160009054906101000a900463ffffffff1663ffffffff1663ffffffff1681526020016000820160049054906101000a900463ffffffff1663ffffffff1663ffffffff1681526020016000820160089054906101000a900463ffffffff1663ffffffff1663ffffffff16815260200160008201600c9054906101000a900463ffffffff1663ffffffff1663ffffffff1681526020016000820160109054906101000a900463ffffffff1663ffffffff1663ffffffff1681526020016000820160149054906101000a900463ffffffff1663ffffffff1663ffffffff168152505081525050905062003a6c8460008151811062003a3857fe5b60200260200101518260c001516000015163ffffffff166200417c6401000000000262002973179091906401000000009004565b8160c001516000019063ffffffff16908163ffffffff168152505062003acd8460018151811062003a9957fe5b60200260200101518260c001516020015163ffffffff166200417c6401000000000262002973179091906401000000009004565b8160c001516020019063ffffffff16908163ffffffff168152505062003b2e8460028151811062003afa57fe5b60200260200101518260c001516040015163ffffffff166200417c6401000000000262002973179091906401000000009004565b8160c001516040019063ffffffff16908163ffffffff168152505062003b8f8460038151811062003b5b57fe5b60200260200101518260c001516060015163ffffffff166200417c6401000000000262002973179091906401000000009004565b8160c001516060019063ffffffff16908163ffffffff168152505062003bf08460048151811062003bbc57fe5b60200260200101518260c001516080015163ffffffff166200417c6401000000000262002973179091906401000000009004565b8160c001516080019063ffffffff16908163ffffffff168152505062003c518460058151811062003c1d57fe5b60200260200101518260c0015160a0015163ffffffff166200417c6401000000000262002973179091906401000000009004565b8160c0015160a0019063ffffffff16908163ffffffff168152505062003c7662004324565b604051806101e001604052808c8152602001836000015181526020018360400151815260200183606001518152602001600163ffffffff168152602001600654420163ffffffff168152602001600754420163ffffffff16815260200162003ced8d620041a5640100000000026401000000009004565b151581526020018b81526020018a815260200189815260200160008152602001836020015181526020018360a00151151581526020018360c001518152509050600060016008839080600181540180825580915050906001820390600052602060002090600c020160009091929091909150600082015181600001908051906020019062003d7d92919062004256565b50602082015181600101908051906020019062003d9c92919062004256565b50604082015181600201908051906020019062003dbb92919062004256565b50606082015181600301908051906020019062003dda92919062004256565b5060808201518160040160006101000a81548163ffffffff021916908363ffffffff16021790555060a08201518160040160046101000a81548163ffffffff021916908363ffffffff16021790555060c08201518160040160086101000a81548163ffffffff021916908363ffffffff16021790555060e082015181600401600c6101000a81548160ff021916908315150217905550610100820151816005015561012082015181600601556101408201518160070155610160820151816008015561018082015181600901556101a082015181600a0160006101000a81548160ff0219169083151502179055506101c082015181600b0160008201518160000160006101000a81548163ffffffff021916908363ffffffff16021790555060208201518160000160046101000a81548163ffffffff021916908363ffffffff16021790555060408201518160000160086101000a81548163ffffffff021916908363ffffffff160217905550606082015181600001600c6101000a81548163ffffffff021916908363ffffffff16021790555060808201518160000160106101000a81548163ffffffff021916908363ffffffff16021790555060a08201518160000160146101000a81548163ffffffff021916908363ffffffff16021790555050505050039050336009600083815260200190815260200160002060006101000a81548173ffffffffffffffffffffffffffffffffffffffff021916908373ffffffffffffffffffffffffffffffffffffffff160217905550620040786001600a60003373ffffffffffffffffffffffffffffffffffffffff1673ffffffffffffffffffffffffffffffffffffffff16815260200190815260200160002054620042396401000000000262001c5d179091906401000000009004565b600a60003373ffffffffffffffffffffffffffffffffffffffff1673ffffffffffffffffffffffffffffffffffffffff168152602001908152602001600020819055507fb2ddd0094c7d8b02387161898cbaa1bbcb4cee4731fdeceb76548071724adcd2818d8d6040518084815260200180602001838152602001828103825284818151815260200191508051906020019080838360005b838110156200412d57808201518184015260208101905062004110565b50505050905090810190601f1680156200415b5780820380516001836020036101000a031916815260200191505b5094505050505060405180910390a180965050505050505095945050505050565b60008082840190508363ffffffff168163ffffffff1610156200419b57fe5b8091505092915050565b600080826040516020018082805190602001908083835b60208310620041e15780518252602082019150602081019050602083039250620041bc565b6001836020036101000a038019825116818451168082178552505050505050905001915050604051602081830303815290604052805190602001206001900490506000600282816200422f57fe5b0614915050919050565b6000808284019050838110156200424c57fe5b8091505092915050565b828054600181600116156101000203166002900490600052602060002090601f016020900481019282601f106200429957805160ff1916838001178555620042ca565b82800160010185558215620042ca579182015b82811115620042c9578251825591602001919060010190620042ac565b5b509050620042d99190620043b8565b5090565b6040518060e0016040528060608152602001600081526020016060815260200160608152602001600081526020016000151581526020016200431e620043e0565b81525090565b604051806101e0016040528060608152602001606081526020016060815260200160608152602001600063ffffffff168152602001600063ffffffff168152602001600063ffffffff1681526020016000151581526020016000815260200160008152602001600081526020016000815260200160008152602001600015158152602001620043b2620043e0565b81525090565b620043dd91905b80821115620043d9576000816000905550600101620043bf565b5090565b90565b6040518060c00160405280600063ffffffff168152602001600063ffffffff168152602001600063ffffffff168152602001600063ffffffff168152602001600063ffffffff168152602001600063ffffffff1681525090565b612c37806200444a6000396000f3fe60806040526004361061015d576000357c010000000000000000000000000000000000000000000000000000000090048063715018a6116100d35780638f32d59b1161008c5780638f32d59b146109c8578063a11ed157146109f7578063bdfb526914610a32578063c8e0d77414610b18578063d3e6f49f14610bd2578063f2fde38b14610c255761015d565b8063715018a61461066857806372f429581461067f578063835d75ab1461073357806387f1fbf3146108ca57806388c2a0bf146109365780638da5cb5b146109715761015d565b806342945e481161012557806342945e48146104d757806346d22c701461050257806351067f001461055f5780636ae0fbde1461058a5780636dd25f6a146105b55780637004fb84146106305761015d565b80630dc2f10a146101625780631940a9361461037f57806325540917146103d25780632d90c7a71461042d5780632f7467b31461045c575b600080fd5b34801561016e57600080fd5b5061019b6004803603602081101561018557600080fd5b8101908080359060200190929190505050610c76565b60405180806020018060200180602001806020018863ffffffff1663ffffffff1681526020018781526020018615151515815260200185810385528c818151815260200191508051906020019080838360005b838110156102095780820151818401526020810190506101ee565b50505050905090810190601f1680156102365780820380516001836020036101000a031916815260200191505b5085810384528b818151815260200191508051906020019080838360005b8381101561026f578082015181840152602081019050610254565b50505050905090810190601f16801561029c5780820380516001836020036101000a031916815260200191505b5085810383528a818151815260200191508051906020019080838360005b838110156102d55780820151818401526020810190506102ba565b50505050905090810190601f1680156103025780820380516001836020036101000a031916815260200191505b50858103825289818151815260200191508051906020019080838360005b8381101561033b578082015181840152602081019050610320565b50505050905090810190601f1680156103685780820380516001836020036101000a031916815260200191505b509b50505050505050505050505060405180910390f35b34801561038b57600080fd5b506103b8600480360360208110156103a257600080fd5b8101908080359060200190929190505050610f65565b604051808215151515815260200191505060405180910390f35b3480156103de57600080fd5b5061040b600480360360208110156103f557600080fd5b8101908080359060200190929190505050610fa0565b604051808263ffffffff1663ffffffff16815260200191505060405180910390f35b34801561043957600080fd5b50610442610fdd565b604051808215151515815260200191505060405180910390f35b34801561046857600080fd5b506104956004803603602081101561047f57600080fd5b8101908080359060200190929190505050611026565b604051808273ffffffffffffffffffffffffffffffffffffffff1673ffffffffffffffffffffffffffffffffffffffff16815260200191505060405180910390f35b3480156104e357600080fd5b506104ec611059565b6040518082815260200191505060405180910390f35b34801561050e57600080fd5b506105456004803603604081101561052557600080fd5b810190808035906020019092919080359060200190929190505050611066565b604051808215151515815260200191505060405180910390f35b34801561056b57600080fd5b50610574611109565b6040518082815260200191505060405180910390f35b34801561059657600080fd5b5061059f611150565b6040518082815260200191505060405180910390f35b3480156105c157600080fd5b506105ee600480360360208110156105d857600080fd5b8101908080359060200190929190505050611156565b604051808663ffffffff1663ffffffff168152602001851515151581526020018481526020018381526020018281526020019550505050505060405180910390f35b6106666004803603604081101561064657600080fd5b8101908080359060200190929190803590602001909291905050506111c6565b005b34801561067457600080fd5b5061067d6111f6565b005b34801561068b57600080fd5b506106b8600480360360208110156106a257600080fd5b81019080803590602001909291905050506112c6565b6040518080602001828103825283818151815260200191508051906020019080838360005b838110156106f85780820151818401526020810190506106dd565b50505050905090810190601f1680156107255780820380516001836020036101000a031916815260200191505b509250505060405180910390f35b34801561073f57600080fd5b5061076c6004803603602081101561075657600080fd5b8101908080359060200190929190505050611389565b6040518080602001806020018060200185151515158152602001848103845288818151815260200191508051906020019080838360005b838110156107be5780820151818401526020810190506107a3565b50505050905090810190601f1680156107eb5780820380516001836020036101000a031916815260200191505b50848103835287818151815260200191508051906020019080838360005b83811015610824578082015181840152602081019050610809565b50505050905090810190601f1680156108515780820380516001836020036101000a031916815260200191505b50848103825286818151815260200191508051906020019080838360005b8381101561088a57808201518184015260208101905061086f565b50505050905090810190601f1680156108b75780820380516001836020036101000a031916815260200191505b5097505050505050505060405180910390f35b3480156108d657600080fd5b506108df6115b3565b6040518080602001828103825283818151815260200191508051906020019060200280838360005b83811015610922578082015181840152602081019050610907565b505050509050019250505060405180910390f35b34801561094257600080fd5b5061096f6004803603602081101561095957600080fd5b81019080803590602001909291905050506116ec565b005b34801561097d57600080fd5b50610986611794565b604051808273ffffffffffffffffffffffffffffffffffffffff1673ffffffffffffffffffffffffffffffffffffffff16815260200191505060405180910390f35b3480156109d457600080fd5b506109dd6117bd565b604051808215151515815260200191505060405180910390f35b348015610a0357600080fd5b50610a3060048036036020811015610a1a57600080fd5b8101908080359060200190929190505050611814565b005b348015610a3e57600080fd5b50610b0260048036036040811015610a5557600080fd5b8101908080359060200190640100000000811115610a7257600080fd5b820183602082011115610a8457600080fd5b80359060200191846001830284011164010000000083111715610aa657600080fd5b91908080601f016020809104026020016040519081016040528093929190818152602001838380828437600081840152601f19601f8201169050808301925050505050505091929192908035906020019092919050505061182f565b6040518082815260200191505060405180910390f35b348015610b2457600080fd5b50610b5160048036036020811015610b3b57600080fd5b81019080803590602001909291905050506118c3565b604051808763ffffffff1663ffffffff1681526020018663ffffffff1663ffffffff1681526020018563ffffffff1663ffffffff1681526020018463ffffffff1663ffffffff1681526020018363ffffffff1663ffffffff1681526020018263ffffffff1663ffffffff168152602001965050505050505060405180910390f35b348015610bde57600080fd5b50610c0b60048036036020811015610bf557600080fd5b8101908080359060200190929190505050611982565b604051808215151515815260200191505060405180910390f35b348015610c3157600080fd5b50610c7460048036036020811015610c4857600080fd5b81019080803573ffffffffffffffffffffffffffffffffffffffff1690602001909291905050506119c3565b005b60608060608060008060008060088981548110610c8f57fe5b90600052602060002090600c02019050806000018160010182600201836003018460040160009054906101000a900463ffffffff16856009015486600a0160009054906101000a900460ff16868054600181600116156101000203166002900480601f016020809104026020016040519081016040528092919081815260200182805460018160011615610100020316600290048015610d705780601f10610d4557610100808354040283529160200191610d70565b820191906000526020600020905b815481529060010190602001808311610d5357829003601f168201915b50505050509650858054600181600116156101000203166002900480601f016020809104026020016040519081016040528092919081815260200182805460018160011615610100020316600290048015610e0c5780601f10610de157610100808354040283529160200191610e0c565b820191906000526020600020905b815481529060010190602001808311610def57829003601f168201915b50505050509550848054600181600116156101000203166002900480601f016020809104026020016040519081016040528092919081815260200182805460018160011615610100020316600290048015610ea85780601f10610e7d57610100808354040283529160200191610ea8565b820191906000526020600020905b815481529060010190602001808311610e8b57829003601f168201915b50505050509450838054600181600116156101000203166002900480601f016020809104026020016040519081016040528092919081815260200182805460018160011615610100020316600290048015610f445780601f10610f1957610100808354040283529160200191610f44565b820191906000526020600020905b815481529060010190602001808311610f2757829003601f168201915b50505050509350975097509750975097509750975050919395979092949650565b60008160008111610f7557600080fd5b600060088481548110610f8457fe5b90600052602060002090600c0201600801541415915050919050565b60008060088381548110610fb057fe5b90600052602060002090600c020190508060040160049054906101000a900463ffffffff16915050919050565b600080600a60003373ffffffffffffffffffffffffffffffffffffffff1673ffffffffffffffffffffffffffffffffffffffff1681526020019081526020016000205414905090565b60096020528060005260406000206000915054906101000a900473ffffffffffffffffffffffffffffffffffffffff1681565b6000600880549050905090565b600080831161107457600080fd5b6000821161108157600080fd5b60006008848154811061109057fe5b90600052602060002090600c020190506000600884815481106110af57fe5b90600052602060002090600c020190506110cb828683876119e0565b80156110dd57506110dc8585611aad565b5b80156110ee57506110ed85611982565b5b80156110ff57506110fe84611982565b5b9250505092915050565b6000600a60003373ffffffffffffffffffffffffffffffffffffffff1673ffffffffffffffffffffffffffffffffffffffff16815260200190815260200160002054905090565b600b5481565b6000806000806000806008878154811061116c57fe5b90600052602060002090600c020190508060040160089054906101000a900463ffffffff1681600401600c9054906101000a900460ff16826006015483600701548460080154955095509550955095505091939590929450565b600b543410156111d557600080fd5b6111df8282611066565b6111e857600080fd5b6111f28282611b8b565b5050565b6111fe6117bd565b61120757600080fd5b600073ffffffffffffffffffffffffffffffffffffffff166000809054906101000a900473ffffffffffffffffffffffffffffffffffffffff1673ffffffffffffffffffffffffffffffffffffffff167f8be0079c531659141344cd1fd0a4f28419497f9722a3daafe3b4186f6b6457e060405160405180910390a360008060006101000a81548173ffffffffffffffffffffffffffffffffffffffff021916908373ffffffffffffffffffffffffffffffffffffffff160217905550565b6060600360018303815481106112d857fe5b90600052602060002090600702016000018054600181600116156101000203166002900480601f01602080910402602001604051908101604052809291908181526020018280546001816001161561010002031660029004801561137d5780601f106113525761010080835404028352916020019161137d565b820191906000526020600020905b81548152906001019060200180831161136057829003601f168201915b50505050509050919050565b6060806060600080600360018703815481106113a157fe5b906000526020600020906007020190508060000181600201826003018360050160009054906101000a900460ff16838054600181600116156101000203166002900480601f0160208091040260200160405190810160405280929190818152602001828054600181600116156101000203166002900480156114645780601f1061143957610100808354040283529160200191611464565b820191906000526020600020905b81548152906001019060200180831161144757829003601f168201915b50505050509350828054600181600116156101000203166002900480601f0160208091040260200160405190810160405280929190818152602001828054600181600116156101000203166002900480156115005780601f106114d557610100808354040283529160200191611500565b820191906000526020600020905b8154815290600101906020018083116114e357829003601f168201915b50505050509250818054600181600116156101000203166002900480601f01602080910402602001604051908101604052809291908181526020018280546001816001161561010002031660029004801561159c5780601f106115715761010080835404028352916020019161159c565b820191906000526020600020905b81548152906001019060200180831161157f57829003601f168201915b505050505091509450945094509450509193509193565b606080600a60003373ffffffffffffffffffffffffffffffffffffffff1673ffffffffffffffffffffffffffffffffffffffff168152602001908152602001600020546040519080825280602002602001820160405280156116245781602001602082028038833980820191505090505b509050600080905060008090505b6008805490508110156116e3573373ffffffffffffffffffffffffffffffffffffffff166009600083815260200190815260200160002060009054906101000a900473ffffffffffffffffffffffffffffffffffffffff1673ffffffffffffffffffffffffffffffffffffffff1614156116d657808383815181106116b357fe5b6020026020010181815250506116d3600183611c5d90919063ffffffff16565b91505b8080600101915050611632565b50819250505090565b80600081116116fa57600080fd5b61170382610f65565b61170c57600080fd5b60006008838154811061171b57fe5b90600052602060002090600c0201905061173481611c79565b61173d57600080fd5b6000816008015490506117866040518060400160405280600681526020017f6e6f4e616d6500000000000000000000000000000000000000000000000000008152508286611ca0565b816008016000905550505050565b60008060009054906101000a900473ffffffffffffffffffffffffffffffffffffffff16905090565b60008060009054906101000a900473ffffffffffffffffffffffffffffffffffffffff1673ffffffffffffffffffffffffffffffffffffffff163373ffffffffffffffffffffffffffffffffffffffff1614905090565b61181c6117bd565b61182557600080fd5b80600b8190555050565b600080600a60003373ffffffffffffffffffffffffffffffffffffffff1673ffffffffffffffffffffffffffffffffffffffff168152602001908152602001600020541461187c57600080fd5b600082148061188b5750600382145b806118965750600682145b61189f57600080fd5b60006118aa84611d04565b90506118ba848260008087611d93565b91505092915050565b6000806000806000806000600888815481106118db57fe5b90600052602060002090600c0201600b0190508060000160009054906101000a900463ffffffff168160000160049054906101000a900463ffffffff168260000160089054906101000a900463ffffffff1683600001600c9054906101000a900463ffffffff168460000160109054906101000a900463ffffffff168560000160149054906101000a900463ffffffff169650965096509650965096505091939550919395565b6000816000811161199257600080fd5b6000600884815481106119a157fe5b90600052602060002090600c020190506119ba81612830565b92505050919050565b6119cb6117bd565b6119d457600080fd5b6119dd81612851565b50565b6000818414156119f35760009050611aa5565b84600401600c9054906101000a900460ff161580611a1f575082600401600c9054906101000a900460ff165b15611a2d5760009050611aa5565b8185600601541480611a425750838360070154145b15611a505760009050611aa5565b600085600701541480611a67575060008360070154145b15611a755760019050611aa5565b826006015485600601541480611a92575082600701548560070154145b15611aa05760009050611aa5565b600190505b949350505050565b60006009600084815260200190815260200160002060009054906101000a900473ffffffffffffffffffffffffffffffffffffffff1673ffffffffffffffffffffffffffffffffffffffff163373ffffffffffffffffffffffffffffffffffffffff1614611b1a57600080fd5b6009600083815260200190815260200160002060009054906101000a900473ffffffffffffffffffffffffffffffffffffffff1673ffffffffffffffffffffffffffffffffffffffff163373ffffffffffffffffffffffffffffffffffffffff1614611b8557600080fd5b92915050565b600060088281548110611b9a57fe5b90600052602060002090600c02019050600060088481548110611bb957fe5b90600052602060002090600c02019050828160080181905550611bdb82612949565b611be481612949565b7f6b4808987a5cecdf67d54ca5dc20664fafca80ef7195097800c12549245ab20d338585604051808473ffffffffffffffffffffffffffffffffffffffff1673ffffffffffffffffffffffffffffffffffffffff168152602001838152602001828152602001935050505060405180910390a150505050565b600080828401905083811015611c6f57fe5b8091505092915050565b6000428260040160089054906101000a900463ffffffff1663ffffffff1611159050919050565b600060088281548110611caf57fe5b90600052602060002090600c020190506000816009015490506000600260008381526020019081526020016000205490506000611ceb87611d04565b9050611cfa8782888886611d93565b5050505050505050565b600080826040516020018082805190602001908083835b60208310611d3e5780518252602082019150602081019050602083039250611d1b565b6001836020036101000a038019825116818451168082178552505050505050905001915050604051602081830303815290604052805190602001206001900490506005548181611d8a57fe5b06915050919050565b600060606006604051908082528060200260200182016040528015611dc75781602001602082028038833980820191505090505b5090506000869050600080600090505b6006811015611e3057600a8381611dea57fe5b06915081848281518110611dfa57fe5b602002602001019063ffffffff16908163ffffffff1681525050600a82840381611e2057fe5b0492508080600101915050611dd7565b50611e39612a2c565b60038681548110611e4657fe5b90600052602060002090600702016040518060e0016040529081600082018054600181600116156101000203166002900480601f016020809104026020016040519081016040528092919081815260200182805460018160011615610100020316600290048015611ef85780601f10611ecd57610100808354040283529160200191611ef8565b820191906000526020600020905b815481529060010190602001808311611edb57829003601f168201915b5050505050815260200160018201548152602001600282018054600181600116156101000203166002900480601f016020809104026020016040519081016040528092919081815260200182805460018160011615610100020316600290048015611fa45780601f10611f7957610100808354040283529160200191611fa4565b820191906000526020600020905b815481529060010190602001808311611f8757829003601f168201915b50505050508152602001600382018054600181600116156101000203166002900480601f0160208091040260200160405190810160405280929190818152602001828054600181600116156101000203166002900480156120465780601f1061201b57610100808354040283529160200191612046565b820191906000526020600020905b81548152906001019060200180831161202957829003601f168201915b50505050508152602001600482015481526020016005820160009054906101000a900460ff16151515158152602001600682016040518060c00160405290816000820160009054906101000a900463ffffffff1663ffffffff1663ffffffff1681526020016000820160049054906101000a900463ffffffff1663ffffffff1663ffffffff1681526020016000820160089054906101000a900463ffffffff1663ffffffff1663ffffffff16815260200160008201600c9054906101000a900463ffffffff1663ffffffff1663ffffffff1681526020016000820160109054906101000a900463ffffffff1663ffffffff1663ffffffff1681526020016000820160149054906101000a900463ffffffff1663ffffffff1663ffffffff16815250508152505090506121a38460008151811061217e57fe5b60200260200101518260c001516000015163ffffffff1661297390919063ffffffff16565b8160c001516000019063ffffffff16908163ffffffff16815250506121f3846001815181106121ce57fe5b60200260200101518260c001516020015163ffffffff1661297390919063ffffffff16565b8160c001516020019063ffffffff16908163ffffffff16815250506122438460028151811061221e57fe5b60200260200101518260c001516040015163ffffffff1661297390919063ffffffff16565b8160c001516040019063ffffffff16908163ffffffff16815250506122938460038151811061226e57fe5b60200260200101518260c001516060015163ffffffff1661297390919063ffffffff16565b8160c001516060019063ffffffff16908163ffffffff16815250506122e3846004815181106122be57fe5b60200260200101518260c001516080015163ffffffff1661297390919063ffffffff16565b8160c001516080019063ffffffff16908163ffffffff16815250506123338460058151811061230e57fe5b60200260200101518260c0015160a0015163ffffffff1661297390919063ffffffff16565b8160c0015160a0019063ffffffff16908163ffffffff1681525050612356612a71565b604051806101e001604052808c8152602001836000015181526020018360400151815260200183606001518152602001600163ffffffff168152602001600654420163ffffffff168152602001600754420163ffffffff1681526020016123bc8d61299b565b151581526020018b81526020018a815260200189815260200160008152602001836020015181526020018360a00151151581526020018360c001518152509050600060016008839080600181540180825580915050906001820390600052602060002090600c020160009091929091909150600082015181600001908051906020019061244a929190612b03565b506020820151816001019080519060200190612467929190612b03565b506040820151816002019080519060200190612484929190612b03565b5060608201518160030190805190602001906124a1929190612b03565b5060808201518160040160006101000a81548163ffffffff021916908363ffffffff16021790555060a08201518160040160046101000a81548163ffffffff021916908363ffffffff16021790555060c08201518160040160086101000a81548163ffffffff021916908363ffffffff16021790555060e082015181600401600c6101000a81548160ff021916908315150217905550610100820151816005015561012082015181600601556101408201518160070155610160820151816008015561018082015181600901556101a082015181600a0160006101000a81548160ff0219169083151502179055506101c082015181600b0160008201518160000160006101000a81548163ffffffff021916908363ffffffff16021790555060208201518160000160046101000a81548163ffffffff021916908363ffffffff16021790555060408201518160000160086101000a81548163ffffffff021916908363ffffffff160217905550606082015181600001600c6101000a81548163ffffffff021916908363ffffffff16021790555060808201518160000160106101000a81548163ffffffff021916908363ffffffff16021790555060a08201518160000160146101000a81548163ffffffff021916908363ffffffff16021790555050505050039050336009600083815260200190815260200160002060006101000a81548173ffffffffffffffffffffffffffffffffffffffff021916908373ffffffffffffffffffffffffffffffffffffffff16021790555061272f6001600a60003373ffffffffffffffffffffffffffffffffffffffff1673ffffffffffffffffffffffffffffffffffffffff16815260200190815260200160002054611c5d90919063ffffffff16565b600a60003373ffffffffffffffffffffffffffffffffffffffff1673ffffffffffffffffffffffffffffffffffffffff168152602001908152602001600020819055507fb2ddd0094c7d8b02387161898cbaa1bbcb4cee4731fdeceb76548071724adcd2818d8d6040518084815260200180602001838152602001828103825284818151815260200191508051906020019080838360005b838110156127e25780820151818401526020810190506127c7565b50505050905090810190601f16801561280f5780820380516001836020036101000a031916815260200191505b5094505050505060405180910390a180965050505050505095945050505050565b600080826008015414801561284a575061284982611c79565b5b9050919050565b600073ffffffffffffffffffffffffffffffffffffffff168173ffffffffffffffffffffffffffffffffffffffff16141561288b57600080fd5b8073ffffffffffffffffffffffffffffffffffffffff166000809054906101000a900473ffffffffffffffffffffffffffffffffffffffff1673ffffffffffffffffffffffffffffffffffffffff167f8be0079c531659141344cd1fd0a4f28419497f9722a3daafe3b4186f6b6457e060405160405180910390a3806000806101000a81548173ffffffffffffffffffffffffffffffffffffffff021916908373ffffffffffffffffffffffffffffffffffffffff16021790555050565b60075442018160040160086101000a81548163ffffffff021916908363ffffffff16021790555050565b60008082840190508363ffffffff168163ffffffff16101561299157fe5b8091505092915050565b600080826040516020018082805190602001908083835b602083106129d557805182526020820191506020810190506020830392506129b2565b6001836020036101000a03801982511681845116808217855250505050505090500191505060405160208183030381529060405280519060200120600190049050600060028281612a2257fe5b0614915050919050565b6040518060e001604052806060815260200160008152602001606081526020016060815260200160008152602001600015158152602001612a6b612b83565b81525090565b604051806101e0016040528060608152602001606081526020016060815260200160608152602001600063ffffffff168152602001600063ffffffff168152602001600063ffffffff1681526020016000151581526020016000815260200160008152602001600081526020016000815260200160008152602001600015158152602001612afd612b83565b81525090565b828054600181600116156101000203166002900490600052602060002090601f016020900481019282601f10612b4457805160ff1916838001178555612b72565b82800160010185558215612b72579182015b82811115612b71578251825591602001919060010190612b56565b5b509050612b7f9190612bdd565b5090565b6040518060c00160405280600063ffffffff168152602001600063ffffffff168152602001600063ffffffff168152602001600063ffffffff168152602001600063ffffffff168152602001600063ffffffff1681525090565b612bff91905b80821115612bfb576000816000905550600101612be3565b5090565b9056fea265627a7a7231582099f756ae474fc28cd7d64bdae459d60640a3ce9d0ab170372e3555a87739524864736f6c63430005100032",
  "source": "pragma solidity >=0.5.0 <0.6.0;\n\nimport \"./PokemonCardFactory.sol\";\n\ncontract PokemonCardBreeding is PokemonCardFactory {\n\n\tevent Pregnant(address owner, uint motherId, uint fatherId);\n\tuint public birthFee = 1.5 finney;\n\n\tmodifier positiveId(uint _pokemonId) {\n\t\trequire(_pokemonId > 0);\n\t\t_;\n\t}\n\n\tfunction isReadyToBreed(uint _pokemonId) public view positiveId(_pokemonId) returns (bool) {\n\t\tPokemon storage pokemon = pokemons[_pokemonId];\n\t\treturn _canBreed(pokemon);\n\t}\n\n\tfunction isPregnant(uint _pokemonId) public view positiveId(_pokemonId) returns (bool) {\n\t\treturn pokemons[_pokemonId].breedingWithId != 0;\n\t}\n\n\tfunction canBreedWith(uint _motherId, uint _fatherId) public view returns (bool) {\n\t\trequire(_motherId > 0);\n\t\trequire(_fatherId > 0);\n\t\tPokemon storage mother = pokemons[_motherId];\n\t\tPokemon storage father = pokemons[_fatherId];\n\t\treturn _isValidMatingPair(mother, _motherId, father, _fatherId) && \n\t\t\t_isBreedingPermitted(_motherId, _fatherId) &&\n\t\t\tisReadyToBreed(_motherId) &&\n\t\t\tisReadyToBreed(_fatherId);\n\t}\n\n\tfunction _isBreedingPermitted(uint _motherId, uint _fatherId) internal view returns (bool) {\n\t\trequire(msg.sender == pokemonToOwner[_motherId]);\n\t\trequire(msg.sender == pokemonToOwner[_fatherId]);\n\t}\n\n\tfunction _isValidMatingPair(Pokemon storage _mother, uint _motherId, \n\t\tPokemon storage _father, uint _fatherId) private view returns (bool) {\n\t\t// Can not breed with itself\n\t\tif (_motherId == _fatherId) {\n\t\t\treturn false;\n\t\t}\n\n\t\t// Check gender of parents\n\t\tif (!_mother.gender || _father.gender) {\n\t\t\treturn false;\n\t\t}\n\n\t\t// Can not breed with its parent\n\t\tif (_mother.fatherId == _fatherId || _father.motherId == _motherId) {\n\t\t\treturn false;\n\t\t}\n\n\t\t// Skip if parent is generation 0\n\t\tif (_mother.motherId == 0 || _father.motherId == 0) {\n\t\t\treturn true;\n\t\t}\n\n\t\tif (_mother.fatherId == _father.fatherId || _mother.motherId == _father.motherId) {\n\t\t\treturn false;\n\t\t}\n\n\t\treturn true;\n\t}\n\n\tfunction _isReadyToGiveBirth(Pokemon storage _pokemon) internal view returns (bool) {\n\t\treturn (_pokemon.breedingReadyTime <= now);\n\t}\n\n\tfunction giveBirth(uint _motherId) external positiveId(_motherId) {\n\t\t// make sure pokemon is pregnant and ready to give birth\n\t\trequire(isPregnant(_motherId));\n\t\tPokemon storage mother = pokemons[_motherId];\n\t\trequire(_isReadyToGiveBirth(mother));\n\n\t\tuint _fatherId = mother.breedingWithId;\n\t\t_breedPokemon(\"noName\", _fatherId, _motherId);\n\t\tdelete mother.breedingWithId;\n    }\n\n\tfunction _triggerBreedingCooldown(Pokemon storage _pokemon) internal {\n\t\t_pokemon.breedingReadyTime = uint32(now + breedingCooldownTime);\n\t}\n\n\tfunction _breedWith(uint _motherId, uint _fatherId) internal {\n\t\tPokemon storage father = pokemons[_fatherId];\n\t\tPokemon storage mother = pokemons[_motherId];\n\t\tmother.breedingWithId = _fatherId;\n\t\t_triggerBreedingCooldown(father);\n\t\t_triggerBreedingCooldown(mother);\n\t\temit Pregnant(msg.sender, _motherId, _fatherId);\n\t}\n\n\tfunction setBirthFee(uint fee) external onlyOwner {\n\t\tbirthFee = fee;\n\t}\n\n\tfunction _canBreed(Pokemon storage _pokemon) internal view returns (bool) {\n\t\treturn (_pokemon.breedingWithId == 0) && _isReadyToGiveBirth(_pokemon);\n\t}\n\n\tfunction breedWith(uint _motherId, uint _fatherId) external payable {\n\t\t// Checks for payment\n\t\trequire(msg.value >= birthFee);\n\n\t\trequire(canBreedWith(_motherId, _fatherId));\n\n\t\t_breedWith(_motherId, _fatherId);\n\t}\n}",
  "sourcePath": "/Users/ztq/Dropbox/Computer Science/CO467/crypto-pokemons/contracts/PokemonCardBreeding.sol",
  "compiler": {
    "name": "solc",
    "version": "0.5.16+commit.9c3226ce.Emscripten.clang"
  },
  "schemaVersion": "3.0.23",
  "updatedAt": "2020-02-10T03:28:59.236Z",
  "devdoc": {
    "methods": {
      "isOwner()": {
        "return": "true if `msg.sender` is the owner of the contract."
      },
      "owner()": {
        "return": "the address of the owner."
      },
      "renounceOwnership()": {
        "details": "Allows the current owner to relinquish control of the contract."
      },
      "transferOwnership(address)": {
        "details": "Allows the current owner to transfer control of the contract to a newOwner.",
        "params": {
          "newOwner": "The address to transfer ownership to."
        }
      }
    }
  },
  "userdoc": {
    "methods": {
      "renounceOwnership()": {
        "notice": "Renouncing to ownership will leave the contract without an owner. It will not be possible to call the functions with the `onlyOwner` modifier anymore."
      }
    }
  }
}