{
  "contractName": "PokemonCardFactory",
  "abi": [
    {
      "inputs": [],
      "payable": false,
      "stateMutability": "nonpayable",
      "type": "constructor"
    },
    {
      "anonymous": false,
      "inputs": [
        {
          "indexed": false,
          "internalType": "uint256",
          "name": "pokemonId",
          "type": "uint256"
        },
        {
          "indexed": false,
          "internalType": "string",
          "name": "name",
          "type": "string"
        },
        {
          "indexed": false,
          "internalType": "uint256",
          "name": "dna",
          "type": "uint256"
        }
      ],
      "name": "NewPokemon",
      "type": "event"
    },
    {
      "anonymous": false,
      "inputs": [
        {
          "indexed": true,
          "internalType": "address",
          "name": "previousOwner",
          "type": "address"
        },
        {
          "indexed": true,
          "internalType": "address",
          "name": "newOwner",
          "type": "address"
        }
      ],
      "name": "OwnershipTransferred",
      "type": "event"
    },
    {
      "constant": true,
      "inputs": [
        {
          "internalType": "uint256",
          "name": "pokemonNumber",
          "type": "uint256"
        }
      ],
      "name": "getBasicPokemonInfo",
      "outputs": [
        {
          "internalType": "string",
          "name": "",
          "type": "string"
        },
        {
          "internalType": "string",
          "name": "",
          "type": "string"
        },
        {
          "internalType": "string",
          "name": "",
          "type": "string"
        },
        {
          "internalType": "bool",
          "name": "",
          "type": "bool"
        }
      ],
      "payable": false,
      "stateMutability": "view",
      "type": "function"
    },
    {
      "constant": true,
      "inputs": [
        {
          "internalType": "uint256",
          "name": "pokemonNumber",
          "type": "uint256"
        }
      ],
      "name": "getPokemonName",
      "outputs": [
        {
          "internalType": "string",
          "name": "",
          "type": "string"
        }
      ],
      "payable": false,
      "stateMutability": "view",
      "type": "function"
    },
    {
      "constant": true,
      "inputs": [],
      "name": "isOwner",
      "outputs": [
        {
          "internalType": "bool",
          "name": "",
          "type": "bool"
        }
      ],
      "payable": false,
      "stateMutability": "view",
      "type": "function"
    },
    {
      "constant": true,
      "inputs": [],
      "name": "owner",
      "outputs": [
        {
          "internalType": "address",
          "name": "",
          "type": "address"
        }
      ],
      "payable": false,
      "stateMutability": "view",
      "type": "function"
    },
    {
      "constant": true,
      "inputs": [
        {
          "internalType": "uint256",
          "name": "",
          "type": "uint256"
        }
      ],
      "name": "pokemonToOwner",
      "outputs": [
        {
          "internalType": "address payable",
          "name": "",
          "type": "address"
        }
      ],
      "payable": false,
      "stateMutability": "view",
      "type": "function"
    },
    {
      "constant": false,
      "inputs": [],
      "name": "renounceOwnership",
      "outputs": [],
      "payable": false,
      "stateMutability": "nonpayable",
      "type": "function"
    },
    {
      "constant": false,
      "inputs": [
        {
          "internalType": "address",
          "name": "newOwner",
          "type": "address"
        }
      ],
      "name": "transferOwnership",
      "outputs": [],
      "payable": false,
      "stateMutability": "nonpayable",
      "type": "function"
    },
    {
      "constant": false,
      "inputs": [
        {
          "internalType": "string",
          "name": "_nickname",
          "type": "string"
        },
        {
          "internalType": "uint256",
          "name": "_pokemonNumber",
          "type": "uint256"
        }
      ],
      "name": "createStarterPokemon",
      "outputs": [
        {
          "internalType": "uint256",
          "name": "",
          "type": "uint256"
        }
      ],
      "payable": false,
      "stateMutability": "nonpayable",
      "type": "function"
    },
    {
      "constant": true,
      "inputs": [],
      "name": "isNewTrainer",
      "outputs": [
        {
          "internalType": "bool",
          "name": "",
          "type": "bool"
        }
      ],
      "payable": false,
      "stateMutability": "view",
      "type": "function"
    },
    {
      "constant": true,
      "inputs": [],
      "name": "returnNumberOfPokemons",
      "outputs": [
        {
          "internalType": "uint256",
          "name": "",
          "type": "uint256"
        }
      ],
      "payable": false,
      "stateMutability": "view",
      "type": "function"
    },
    {
      "constant": true,
      "inputs": [],
      "name": "returnTotalNumberOfPokemons",
      "outputs": [
        {
          "internalType": "uint256",
          "name": "",
          "type": "uint256"
        }
      ],
      "payable": false,
      "stateMutability": "view",
      "type": "function"
    },
    {
      "constant": true,
      "inputs": [],
      "name": "getPokemonCardsByOwner",
      "outputs": [
        {
          "internalType": "uint256[]",
          "name": "",
          "type": "uint256[]"
        }
      ],
      "payable": false,
      "stateMutability": "view",
      "type": "function"
    },
    {
      "constant": true,
      "inputs": [
        {
          "internalType": "uint256",
          "name": "_pokemonId",
          "type": "uint256"
        }
      ],
      "name": "getPokemonInfo",
      "outputs": [
        {
          "internalType": "string",
          "name": "",
          "type": "string"
        },
        {
          "internalType": "string",
          "name": "",
          "type": "string"
        },
        {
          "internalType": "string",
          "name": "",
          "type": "string"
        },
        {
          "internalType": "string",
          "name": "",
          "type": "string"
        },
        {
          "internalType": "uint32",
          "name": "",
          "type": "uint32"
        },
        {
          "internalType": "uint256",
          "name": "",
          "type": "uint256"
        },
        {
          "internalType": "bool",
          "name": "",
          "type": "bool"
        }
      ],
      "payable": false,
      "stateMutability": "view",
      "type": "function"
    },
    {
      "constant": true,
      "inputs": [
        {
          "internalType": "uint256",
          "name": "_pokemonId",
          "type": "uint256"
        }
      ],
      "name": "getPokemonBreedingDetails",
      "outputs": [
        {
          "internalType": "uint32",
          "name": "",
          "type": "uint32"
        },
        {
          "internalType": "bool",
          "name": "",
          "type": "bool"
        },
        {
          "internalType": "uint256",
          "name": "",
          "type": "uint256"
        },
        {
          "internalType": "uint256",
          "name": "",
          "type": "uint256"
        },
        {
          "internalType": "uint256",
          "name": "",
          "type": "uint256"
        }
      ],
      "payable": false,
      "stateMutability": "view",
      "type": "function"
    },
    {
      "constant": true,
      "inputs": [
        {
          "internalType": "uint256",
          "name": "_pokemonId",
          "type": "uint256"
        }
      ],
      "name": "getPokemonBattleDetails",
      "outputs": [
        {
          "internalType": "uint32",
          "name": "",
          "type": "uint32"
        }
      ],
      "payable": false,
      "stateMutability": "view",
      "type": "function"
    },
    {
      "constant": true,
      "inputs": [
        {
          "internalType": "uint256",
          "name": "_pokemonId",
          "type": "uint256"
        }
      ],
      "name": "getPokemonStats",
      "outputs": [
        {
          "internalType": "uint32",
          "name": "",
          "type": "uint32"
        },
        {
          "internalType": "uint32",
          "name": "",
          "type": "uint32"
        },
        {
          "internalType": "uint32",
          "name": "",
          "type": "uint32"
        },
        {
          "internalType": "uint32",
          "name": "",
          "type": "uint32"
        },
        {
          "internalType": "uint32",
          "name": "",
          "type": "uint32"
        },
        {
          "internalType": "uint32",
          "name": "",
          "type": "uint32"
        }
      ],
      "payable": false,
      "stateMutability": "view",
      "type": "function"
    }
  ],
  "bytecode": "0x60806040526010600455600454600a0a6005556005600655600560075560006008553480156200002e57600080fd5b50336000806101000a81548173ffffffffffffffffffffffffffffffffffffffff021916908373ffffffffffffffffffffffffffffffffffffffff1602179055506000809054906101000a900473ffffffffffffffffffffffffffffffffffffffff1673ffffffffffffffffffffffffffffffffffffffff16600073ffffffffffffffffffffffffffffffffffffffff167f8be0079c531659141344cd1fd0a4f28419497f9722a3daafe3b4186f6b6457e060405160405180910390a3620001046200018e640100000000026401000000009004565b6200011d6201b60b640100000000026401000000009004565b620001366201bd29640100000000026401000000009004565b620001876040518060400160405280600781526020017f496e697469616c0000000000000000000000000000000000000000000000000081525060006201cc81640100000000026401000000009004565b506201dbdf565b60036040518060e001604052806040518060400160405280600981526020017f42756c62617361757200000000000000000000000000000000000000000000008152508152602001600181526020016040518060400160405280600581526020017f477261737300000000000000000000000000000000000000000000000000000081525081526020016040518060400160405280600681526020017f506f69736f6e0000000000000000000000000000000000000000000000000000815250815260200161024681526020016000151581526020016040518060c00160405280602d63ffffffff168152602001603163ffffffff168152602001603163ffffffff168152602001604163ffffffff168152602001604163ffffffff168152602001602d63ffffffff16815250815250908060018154018082558091505090600182039060005260206000209060070201600090919290919091506000820151816000019080519060200190620003079291906201d9fb565b50602082015181600101556040820151816002019080519060200190620003309291906201d9fb565b5060608201518160030190805190602001906200034f9291906201d9fb565b506080820151816004015560a08201518160050160006101000a81548160ff02191690831515021790555060c08201518160060160008201518160000160006101000a81548163ffffffff021916908363ffffffff16021790555060208201518160000160046101000a81548163ffffffff021916908363ffffffff16021790555060408201518160000160086101000a81548163ffffffff021916908363ffffffff160217905550606082015181600001600c6101000a81548163ffffffff021916908363ffffffff16021790555060808201518160000160106101000a81548163ffffffff021916908363ffffffff16021790555060a08201518160000160146101000a81548163ffffffff021916908363ffffffff160217905550505050505060036040518060e001604052806040518060400160405280600781526020017f49767973617572000000000000000000000000000000000000000000000000008152508152602001600281526020016040518060400160405280600581526020017f477261737300000000000000000000000000000000000000000000000000000081525081526020016040518060400160405280600681526020017f506f69736f6e000000000000000000000000000000000000000000000000000081525081526020016101ef81526020016000151581526020016040518060c00160405280603c63ffffffff168152602001603e63ffffffff168152602001603f63ffffffff168152602001605063ffffffff168152602001605063ffffffff168152602001603c63ffffffff16815250815250908060018154018082558091505090600182039060005260206000209060070201600090919290919091506000820151816000019080519060200190620005eb9291906201d9fb565b50602082015181600101556040820151816002019080519060200190620006149291906201d9fb565b506060820151816003019080519060200190620006339291906201d9fb565b506080820151816004015560a08201518160050160006101000a81548160ff02191690831515021790555060c08201518160060160008201518160000160006101000a81548163ffffffff021916908363ffffffff16021790555060208201518160000160046101000a81548163ffffffff021916908363ffffffff16021790555060408201518160000160086101000a81548163ffffffff021916908363ffffffff160217905550606082015181600001600c6101000a81548163ffffffff021916908363ffffffff16021790555060808201518160000160106101000a81548163ffffffff021916908363ffffffff16021790555060a08201518160000160146101000a81548163ffffffff021916908363ffffffff160217905550505050505060036040518060e001604052806040518060400160405280600881526020017f56656e75736175720000000000000000000000000000000000000000000000008152508152602001600381526020016040518060400160405280600581526020017f477261737300000000000000000000000000000000000000000000000000000081525081526020016040518060400160405280600681526020017f506f69736f6e0000000000000000000000000000000000000000000000000000815250815260200161017781526020016000151581526020016040518060c00160405280605063ffffffff168152602001605263ffffffff168152602001605363ffffffff168152602001606463ffffffff168152602001606463ffffffff168152602001605063ffffffff16815250815250908060018154018082558091505090600182039060005260206000209060070201600090919290919091506000820151816000019080519060200190620008cf9291906201d9fb565b50602082015181600101556040820151816002019080519060200190620008f89291906201d9fb565b506060820151816003019080519060200190620009179291906201d9fb565b506080820151816004015560a08201518160050160006101000a81548160ff02191690831515021790555060c08201518160060160008201518160000160006101000a81548163ffffffff021916908363ffffffff16021790555060208201518160000160046101000a81548163ffffffff021916908363ffffffff16021790555060408201518160000160086101000a81548163ffffffff021916908363ffffffff160217905550606082015181600001600c6101000a81548163ffffffff021916908363ffffffff16021790555060808201518160000160106101000a81548163ffffffff021916908363ffffffff16021790555060a08201518160000160146101000a81548163ffffffff021916908363ffffffff160217905550505050505060036040518060e001604052806040518060400160405280600a81526020017f436861726d616e646572000000000000000000000000000000000000000000008152508152602001600481526020016040518060400160405280600481526020017f466972650000000000000000000000000000000000000000000000000000000081525081526020016040518060400160405280600381526020017f6e616e0000000000000000000000000000000000000000000000000000000000815250815260200161024f81526020016000151581526020016040518060c00160405280602763ffffffff168152602001603463ffffffff168152602001602b63ffffffff168152602001603c63ffffffff168152602001603263ffffffff168152602001604163ffffffff1681525081525090806001815401808255809150509060018203906000526020600020906007020160009091929091909150600082015181600001908051906020019062000bb39291906201d9fb565b5060208201518160010155604082015181600201908051906020019062000bdc9291906201d9fb565b50606082015181600301908051906020019062000bfb9291906201d9fb565b506080820151816004015560a08201518160050160006101000a81548160ff02191690831515021790555060c08201518160060160008201518160000160006101000a81548163ffffffff021916908363ffffffff16021790555060208201518160000160046101000a81548163ffffffff021916908363ffffffff16021790555060408201518160000160086101000a81548163ffffffff021916908363ffffffff160217905550606082015181600001600c6101000a81548163ffffffff021916908363ffffffff16021790555060808201518160000160106101000a81548163ffffffff021916908363ffffffff16021790555060a08201518160000160146101000a81548163ffffffff021916908363ffffffff160217905550505050505060036040518060e001604052806040518060400160405280600a81526020017f436861726d656c656f6e000000000000000000000000000000000000000000008152508152602001600581526020016040518060400160405280600481526020017f466972650000000000000000000000000000000000000000000000000000000081525081526020016040518060400160405280600381526020017f6e616e000000000000000000000000000000000000000000000000000000000081525081526020016101ef81526020016000151581526020016040518060c00160405280603a63ffffffff168152602001604063ffffffff168152602001603a63ffffffff168152602001605063ffffffff168152602001604163ffffffff168152602001605063ffffffff1681525081525090806001815401808255809150509060018203906000526020600020906007020160009091929091909150600082015181600001908051906020019062000e979291906201d9fb565b5060208201518160010155604082015181600201908051906020019062000ec09291906201d9fb565b50606082015181600301908051906020019062000edf9291906201d9fb565b506080820151816004015560a08201518160050160006101000a81548160ff02191690831515021790555060c08201518160060160008201518160000160006101000a81548163ffffffff021916908363ffffffff16021790555060208201518160000160046101000a81548163ffffffff021916908363ffffffff16021790555060408201518160000160086101000a81548163ffffffff021916908363ffffffff160217905550606082015181600001600c6101000a81548163ffffffff021916908363ffffffff16021790555060808201518160000160106101000a81548163ffffffff021916908363ffffffff16021790555060a08201518160000160146101000a81548163ffffffff021916908363ffffffff160217905550505050505060036040518060e001604052806040518060400160405280600981526020017f43686172697a61726400000000000000000000000000000000000000000000008152508152602001600681526020016040518060400160405280600481526020017f466972650000000000000000000000000000000000000000000000000000000081525081526020016040518060400160405280600681526020017f466c79696e670000000000000000000000000000000000000000000000000000815250815260200161016e81526020016000151581526020016040518060c00160405280604e63ffffffff168152602001605463ffffffff168152602001604e63ffffffff168152602001606d63ffffffff168152602001605563ffffffff168152602001606463ffffffff168152508152509080600181540180825580915050906001820390600052602060002090600702016000909192909190915060008201518160000190805190602001906200117b9291906201d9fb565b50602082015181600101556040820151816002019080519060200190620011a49291906201d9fb565b506060820151816003019080519060200190620011c39291906201d9fb565b506080820151816004015560a08201518160050160006101000a81548160ff02191690831515021790555060c08201518160060160008201518160000160006101000a81548163ffffffff021916908363ffffffff16021790555060208201518160000160046101000a81548163ffffffff021916908363ffffffff16021790555060408201518160000160086101000a81548163ffffffff021916908363ffffffff160217905550606082015181600001600c6101000a81548163ffffffff021916908363ffffffff16021790555060808201518160000160106101000a81548163ffffffff021916908363ffffffff16021790555060a08201518160000160146101000a81548163ffffffff021916908363ffffffff160217905550505050505060036040518060e001604052806040518060400160405280600881526020017f5371756972746c650000000000000000000000000000000000000000000000008152508152602001600781526020016040518060400160405280600581526020017f576174657200000000000000000000000000000000000000000000000000000081525081526020016040518060400160405280600381526020017f6e616e0000000000000000000000000000000000000000000000000000000000815250815260200161024a81526020016000151581526020016040518060c00160405280602c63ffffffff168152602001603063ffffffff168152602001604163ffffffff168152602001603263ffffffff168152602001604063ffffffff168152602001602b63ffffffff168152508152509080600181540180825580915050906001820390600052602060002090600702016000909192909190915060008201518160000190805190602001906200145f9291906201d9fb565b50602082015181600101556040820151816002019080519060200190620014889291906201d9fb565b506060820151816003019080519060200190620014a79291906201d9fb565b506080820151816004015560a08201518160050160006101000a81548160ff02191690831515021790555060c08201518160060160008201518160000160006101000a81548163ffffffff021916908363ffffffff16021790555060208201518160000160046101000a81548163ffffffff021916908363ffffffff16021790555060408201518160000160086101000a81548163ffffffff021916908363ffffffff160217905550606082015181600001600c6101000a81548163ffffffff021916908363ffffffff16021790555060808201518160000160106101000a81548163ffffffff021916908363ffffffff16021790555060a08201518160000160146101000a81548163ffffffff021916908363ffffffff160217905550505050505060036040518060e001604052806040518060400160405280600981526020017f576172746f72746c6500000000000000000000000000000000000000000000008152508152602001600881526020016040518060400160405280600581526020017f576174657200000000000000000000000000000000000000000000000000000081525081526020016040518060400160405280600381526020017f6e616e000000000000000000000000000000000000000000000000000000000081525081526020016101ef81526020016000151581526020016040518060c00160405280603b63ffffffff168152602001603f63ffffffff168152602001605063ffffffff168152602001604163ffffffff168152602001605063ffffffff168152602001603a63ffffffff16815250815250908060018154018082558091505090600182039060005260206000209060070201600090919290919091506000820151816000019080519060200190620017439291906201d9fb565b506020820151816001015560408201518160020190805190602001906200176c9291906201d9fb565b5060608201518160030190805190602001906200178b9291906201d9fb565b506080820151816004015560a08201518160050160006101000a81548160ff02191690831515021790555060c08201518160060160008201518160000160006101000a81548163ffffffff021916908363ffffffff16021790555060208201518160000160046101000a81548163ffffffff021916908363ffffffff16021790555060408201518160000160086101000a81548163ffffffff021916908363ffffffff160217905550606082015181600001600c6101000a81548163ffffffff021916908363ffffffff16021790555060808201518160000160106101000a81548163ffffffff021916908363ffffffff16021790555060a08201518160000160146101000a81548163ffffffff021916908363ffffffff160217905550505050505060036040518060e001604052806040518060400160405280600981526020017f426c6173746f69736500000000000000000000000000000000000000000000008152508152602001600981526020016040518060400160405280600581526020017f576174657200000000000000000000000000000000000000000000000000000081525081526020016040518060400160405280600381526020017f6e616e0000000000000000000000000000000000000000000000000000000000815250815260200161017281526020016000151581526020016040518060c00160405280604f63ffffffff168152602001605363ffffffff168152602001606463ffffffff168152602001605563ffffffff168152602001606963ffffffff168152602001604e63ffffffff1681525081525090806001815401808255809150509060018203906000526020600020906007020160009091929091909150600082015181600001908051906020019062001a279291906201d9fb565b5060208201518160010155604082015181600201908051906020019062001a509291906201d9fb565b50606082015181600301908051906020019062001a6f9291906201d9fb565b506080820151816004015560a08201518160050160006101000a81548160ff02191690831515021790555060c08201518160060160008201518160000160006101000a81548163ffffffff021916908363ffffffff16021790555060208201518160000160046101000a81548163ffffffff021916908363ffffffff16021790555060408201518160000160086101000a81548163ffffffff021916908363ffffffff160217905550606082015181600001600c6101000a81548163ffffffff021916908363ffffffff16021790555060808201518160000160106101000a81548163ffffffff021916908363ffffffff16021790555060a08201518160000160146101000a81548163ffffffff021916908363ffffffff160217905550505050505060036040518060e001604052806040518060400160405280600881526020017f43617465727069650000000000000000000000000000000000000000000000008152508152602001600a81526020016040518060400160405280600381526020017f427567000000000000000000000000000000000000000000000000000000000081525081526020016040518060400160405280600381526020017f6e616e000000000000000000000000000000000000000000000000000000000081525081526020016102c181526020016000151581526020016040518060c00160405280602d63ffffffff168152602001601e63ffffffff168152602001602363ffffffff168152602001601463ffffffff168152602001601463ffffffff168152602001602d63ffffffff1681525081525090806001815401808255809150509060018203906000526020600020906007020160009091929091909150600082015181600001908051906020019062001d0b9291906201d9fb565b5060208201518160010155604082015181600201908051906020019062001d349291906201d9fb565b50606082015181600301908051906020019062001d539291906201d9fb565b506080820151816004015560a08201518160050160006101000a81548160ff02191690831515021790555060c08201518160060160008201518160000160006101000a81548163ffffffff021916908363ffffffff16021790555060208201518160000160046101000a81548163ffffffff021916908363ffffffff16021790555060408201518160000160086101000a81548163ffffffff021916908363ffffffff160217905550606082015181600001600c6101000a81548163ffffffff021916908363ffffffff16021790555060808201518160000160106101000a81548163ffffffff021916908363ffffffff16021790555060a08201518160000160146101000a81548163ffffffff021916908363ffffffff160217905550505050505060036040518060e001604052806040518060400160405280600781526020017f4d657461706f64000000000000000000000000000000000000000000000000008152508152602001600b81526020016040518060400160405280600381526020017f427567000000000000000000000000000000000000000000000000000000000081525081526020016040518060400160405280600381526020017f6e616e000000000000000000000000000000000000000000000000000000000081525081526020016102b781526020016000151581526020016040518060c00160405280603263ffffffff168152602001601463ffffffff168152602001603763ffffffff168152602001601963ffffffff168152602001601963ffffffff168152602001601e63ffffffff1681525081525090806001815401808255809150509060018203906000526020600020906007020160009091929091909150600082015181600001908051906020019062001fef9291906201d9fb565b50602082015181600101556040820151816002019080519060200190620020189291906201d9fb565b506060820151816003019080519060200190620020379291906201d9fb565b506080820151816004015560a08201518160050160006101000a81548160ff02191690831515021790555060c08201518160060160008201518160000160006101000a81548163ffffffff021916908363ffffffff16021790555060208201518160000160046101000a81548163ffffffff021916908363ffffffff16021790555060408201518160000160086101000a81548163ffffffff021916908363ffffffff160217905550606082015181600001600c6101000a81548163ffffffff021916908363ffffffff16021790555060808201518160000160106101000a81548163ffffffff021916908363ffffffff16021790555060a08201518160000160146101000a81548163ffffffff021916908363ffffffff160217905550505050505060036040518060e001604052806040518060400160405280600a81526020017f42757474657266726565000000000000000000000000000000000000000000008152508152602001600c81526020016040518060400160405280600381526020017f427567000000000000000000000000000000000000000000000000000000000081525081526020016040518060400160405280600681526020017f466c79696e67000000000000000000000000000000000000000000000000000081525081526020016101f981526020016000151581526020016040518060c00160405280603c63ffffffff168152602001602d63ffffffff168152602001603263ffffffff168152602001605a63ffffffff168152602001605063ffffffff168152602001604663ffffffff16815250815250908060018154018082558091505090600182039060005260206000209060070201600090919290919091506000820151816000019080519060200190620022d39291906201d9fb565b50602082015181600101556040820151816002019080519060200190620022fc9291906201d9fb565b5060608201518160030190805190602001906200231b9291906201d9fb565b506080820151816004015560a08201518160050160006101000a81548160ff02191690831515021790555060c08201518160060160008201518160000160006101000a81548163ffffffff021916908363ffffffff16021790555060208201518160000160046101000a81548163ffffffff021916908363ffffffff16021790555060408201518160000160086101000a81548163ffffffff021916908363ffffffff160217905550606082015181600001600c6101000a81548163ffffffff021916908363ffffffff16021790555060808201518160000160106101000a81548163ffffffff021916908363ffffffff16021790555060a08201518160000160146101000a81548163ffffffff021916908363ffffffff160217905550505050505060036040518060e001604052806040518060400160405280600681526020017f576565646c6500000000000000000000000000000000000000000000000000008152508152602001600d81526020016040518060400160405280600381526020017f427567000000000000000000000000000000000000000000000000000000000081525081526020016040518060400160405280600681526020017f506f69736f6e000000000000000000000000000000000000000000000000000081525081526020016102c181526020016000151581526020016040518060c00160405280602863ffffffff168152602001602363ffffffff168152602001601e63ffffffff168152602001601463ffffffff168152602001601463ffffffff168152602001603263ffffffff16815250815250908060018154018082558091505090600182039060005260206000209060070201600090919290919091506000820151816000019080519060200190620025b79291906201d9fb565b50602082015181600101556040820151816002019080519060200190620025e09291906201d9fb565b506060820151816003019080519060200190620025ff9291906201d9fb565b506080820151816004015560a08201518160050160006101000a81548160ff02191690831515021790555060c08201518160060160008201518160000160006101000a81548163ffffffff021916908363ffffffff16021790555060208201518160000160046101000a81548163ffffffff021916908363ffffffff16021790555060408201518160000160086101000a81548163ffffffff021916908363ffffffff160217905550606082015181600001600c6101000a81548163ffffffff021916908363ffffffff16021790555060808201518160000160106101000a81548163ffffffff021916908363ffffffff16021790555060a08201518160000160146101000a81548163ffffffff021916908363ffffffff160217905550505050505060036040518060e001604052806040518060400160405280600681526020017f4b616b756e6100000000000000000000000000000000000000000000000000008152508152602001600e81526020016040518060400160405280600381526020017f427567000000000000000000000000000000000000000000000000000000000081525081526020016040518060400160405280600681526020017f506f69736f6e000000000000000000000000000000000000000000000000000081525081526020016102b781526020016000151581526020016040518060c00160405280602d63ffffffff168152602001601963ffffffff168152602001603263ffffffff168152602001601963ffffffff168152602001601963ffffffff168152602001602363ffffffff168152508152509080600181540180825580915050906001820390600052602060002090600702016000909192909190915060008201518160000190805190602001906200289b9291906201d9fb565b50602082015181600101556040820151816002019080519060200190620028c49291906201d9fb565b506060820151816003019080519060200190620028e39291906201d9fb565b506080820151816004015560a08201518160050160006101000a81548160ff02191690831515021790555060c08201518160060160008201518160000160006101000a81548163ffffffff021916908363ffffffff16021790555060208201518160000160046101000a81548163ffffffff021916908363ffffffff16021790555060408201518160000160086101000a81548163ffffffff021916908363ffffffff160217905550606082015181600001600c6101000a81548163ffffffff021916908363ffffffff16021790555060808201518160000160106101000a81548163ffffffff021916908363ffffffff16021790555060a08201518160000160146101000a81548163ffffffff021916908363ffffffff160217905550505050505060036040518060e001604052806040518060400160405280600881526020017f4265656472696c6c0000000000000000000000000000000000000000000000008152508152602001600f81526020016040518060400160405280600381526020017f427567000000000000000000000000000000000000000000000000000000000081525081526020016040518060400160405280600681526020017f506f69736f6e000000000000000000000000000000000000000000000000000081525081526020016101f981526020016000151581526020016040518060c00160405280604163ffffffff168152602001605a63ffffffff168152602001602863ffffffff168152602001602d63ffffffff168152602001605063ffffffff168152602001604b63ffffffff1681525081525090806001815401808255809150509060018203906000526020600020906007020160009091929091909150600082015181600001908051906020019062002b7f9291906201d9fb565b5060208201518160010155604082015181600201908051906020019062002ba89291906201d9fb565b50606082015181600301908051906020019062002bc79291906201d9fb565b506080820151816004015560a08201518160050160006101000a81548160ff02191690831515021790555060c08201518160060160008201518160000160006101000a81548163ffffffff021916908363ffffffff16021790555060208201518160000160046101000a81548163ffffffff021916908363ffffffff16021790555060408201518160000160086101000a81548163ffffffff021916908363ffffffff160217905550606082015181600001600c6101000a81548163ffffffff021916908363ffffffff16021790555060808201518160000160106101000a81548163ffffffff021916908363ffffffff16021790555060a08201518160000160146101000a81548163ffffffff021916908363ffffffff160217905550505050505060036040518060e001604052806040518060400160405280600681526020017f50696467657900000000000000000000000000000000000000000000000000008152508152602001601081526020016040518060400160405280600681526020017f4e6f726d616c000000000000000000000000000000000000000000000000000081525081526020016040518060400160405280600681526020017f466c79696e670000000000000000000000000000000000000000000000000000815250815260200161028981526020016000151581526020016040518060c00160405280602863ffffffff168152602001602d63ffffffff168152602001602863ffffffff168152602001602363ffffffff168152602001602363ffffffff168152602001603863ffffffff1681525081525090806001815401808255809150509060018203906000526020600020906007020160009091929091909150600082015181600001908051906020019062002e639291906201d9fb565b5060208201518160010155604082015181600201908051906020019062002e8c9291906201d9fb565b50606082015181600301908051906020019062002eab9291906201d9fb565b506080820151816004015560a08201518160050160006101000a81548160ff02191690831515021790555060c08201518160060160008201518160000160006101000a81548163ffffffff021916908363ffffffff16021790555060208201518160000160046101000a81548163ffffffff021916908363ffffffff16021790555060408201518160000160086101000a81548163ffffffff021916908363ffffffff160217905550606082015181600001600c6101000a81548163ffffffff021916908363ffffffff16021790555060808201518160000160106101000a81548163ffffffff021916908363ffffffff16021790555060a08201518160000160146101000a81548163ffffffff021916908363ffffffff160217905550505050505060036040518060e001604052806040518060400160405280600981526020017f50696467656f74746f00000000000000000000000000000000000000000000008152508152602001601181526020016040518060400160405280600681526020017f4e6f726d616c000000000000000000000000000000000000000000000000000081525081526020016040518060400160405280600681526020017f466c79696e670000000000000000000000000000000000000000000000000000815250815260200161022781526020016000151581526020016040518060c00160405280603f63ffffffff168152602001603c63ffffffff168152602001603763ffffffff168152602001603263ffffffff168152602001603263ffffffff168152602001604763ffffffff16815250815250908060018154018082558091505090600182039060005260206000209060070201600090919290919091506000820151816000019080519060200190620031479291906201d9fb565b50602082015181600101556040820151816002019080519060200190620031709291906201d9fb565b5060608201518160030190805190602001906200318f9291906201d9fb565b506080820151816004015560a08201518160050160006101000a81548160ff02191690831515021790555060c08201518160060160008201518160000160006101000a81548163ffffffff021916908363ffffffff16021790555060208201518160000160046101000a81548163ffffffff021916908363ffffffff16021790555060408201518160000160086101000a81548163ffffffff021916908363ffffffff160217905550606082015181600001600c6101000a81548163ffffffff021916908363ffffffff16021790555060808201518160000160106101000a81548163ffffffff021916908363ffffffff16021790555060a08201518160000160146101000a81548163ffffffff021916908363ffffffff160217905550505050505060036040518060e001604052806040518060400160405280600781526020017f50696467656f74000000000000000000000000000000000000000000000000008152508152602001601281526020016040518060400160405280600681526020017f4e6f726d616c000000000000000000000000000000000000000000000000000081525081526020016040518060400160405280600681526020017f466c79696e67000000000000000000000000000000000000000000000000000081525081526020016101a581526020016000151581526020016040518060c00160405280605363ffffffff168152602001605063ffffffff168152602001604b63ffffffff168152602001604663ffffffff168152602001604663ffffffff168152602001606563ffffffff168152508152509080600181540180825580915050906001820390600052602060002090600702016000909192909190915060008201518160000190805190602001906200342b9291906201d9fb565b50602082015181600101556040820151816002019080519060200190620034549291906201d9fb565b506060820151816003019080519060200190620034739291906201d9fb565b506080820151816004015560a08201518160050160006101000a81548160ff02191690831515021790555060c08201518160060160008201518160000160006101000a81548163ffffffff021916908363ffffffff16021790555060208201518160000160046101000a81548163ffffffff021916908363ffffffff16021790555060408201518160000160086101000a81548163ffffffff021916908363ffffffff160217905550606082015181600001600c6101000a81548163ffffffff021916908363ffffffff16021790555060808201518160000160106101000a81548163ffffffff021916908363ffffffff16021790555060a08201518160000160146101000a81548163ffffffff021916908363ffffffff160217905550505050505060036040518060e001604052806040518060400160405280600781526020017f52617474617461000000000000000000000000000000000000000000000000008152508152602001601381526020016040518060400160405280600681526020017f4e6f726d616c000000000000000000000000000000000000000000000000000081525081526020016040518060400160405280600381526020017f6e616e0000000000000000000000000000000000000000000000000000000000815250815260200161028781526020016000151581526020016040518060c00160405280601e63ffffffff168152602001603863ffffffff168152602001602363ffffffff168152602001601963ffffffff168152602001602363ffffffff168152602001604863ffffffff168152508152509080600181540180825580915050906001820390600052602060002090600702016000909192909190915060008201518160000190805190602001906200370f9291906201d9fb565b50602082015181600101556040820151816002019080519060200190620037389291906201d9fb565b506060820151816003019080519060200190620037579291906201d9fb565b506080820151816004015560a08201518160050160006101000a81548160ff02191690831515021790555060c08201518160060160008201518160000160006101000a81548163ffffffff021916908363ffffffff16021790555060208201518160000160046101000a81548163ffffffff021916908363ffffffff16021790555060408201518160000160086101000a81548163ffffffff021916908363ffffffff160217905550606082015181600001600c6101000a81548163ffffffff021916908363ffffffff16021790555060808201518160000160106101000a81548163ffffffff021916908363ffffffff16021790555060a08201518160000160146101000a81548163ffffffff021916908363ffffffff160217905550505050505060036040518060e001604052806040518060400160405280600881526020017f52617469636174650000000000000000000000000000000000000000000000008152508152602001601481526020016040518060400160405280600681526020017f4e6f726d616c000000000000000000000000000000000000000000000000000081525081526020016040518060400160405280600381526020017f6e616e000000000000000000000000000000000000000000000000000000000081525081526020016101e781526020016000151581526020016040518060c00160405280603763ffffffff168152602001605163ffffffff168152602001603c63ffffffff168152602001603263ffffffff168152602001604663ffffffff168152602001606163ffffffff16815250815250908060018154018082558091505090600182039060005260206000209060070201600090919290919091506000820151816000019080519060200190620039f39291906201d9fb565b5060208201518160010155604082015181600201908051906020019062003a1c9291906201d9fb565b50606082015181600301908051906020019062003a3b9291906201d9fb565b506080820151816004015560a08201518160050160006101000a81548160ff02191690831515021790555060c08201518160060160008201518160000160006101000a81548163ffffffff021916908363ffffffff16021790555060208201518160000160046101000a81548163ffffffff021916908363ffffffff16021790555060408201518160000160086101000a81548163ffffffff021916908363ffffffff160217905550606082015181600001600c6101000a81548163ffffffff021916908363ffffffff16021790555060808201518160000160106101000a81548163ffffffff021916908363ffffffff16021790555060a08201518160000160146101000a81548163ffffffff021916908363ffffffff160217905550505050505060036040518060e001604052806040518060400160405280600781526020017f53706561726f77000000000000000000000000000000000000000000000000008152508152602001601581526020016040518060400160405280600681526020017f4e6f726d616c000000000000000000000000000000000000000000000000000081525081526020016040518060400160405280600681526020017f466c79696e670000000000000000000000000000000000000000000000000000815250815260200161027e81526020016000151581526020016040518060c00160405280602863ffffffff168152602001603c63ffffffff168152602001601e63ffffffff168152602001601f63ffffffff168152602001601f63ffffffff168152602001604663ffffffff1681525081525090806001815401808255809150509060018203906000526020600020906007020160009091929091909150600082015181600001908051906020019062003cd79291906201d9fb565b5060208201518160010155604082015181600201908051906020019062003d009291906201d9fb565b50606082015181600301908051906020019062003d1f9291906201d9fb565b506080820151816004015560a08201518160050160006101000a81548160ff02191690831515021790555060c08201518160060160008201518160000160006101000a81548163ffffffff021916908363ffffffff16021790555060208201518160000160046101000a81548163ffffffff021916908363ffffffff16021790555060408201518160000160086101000a81548163ffffffff021916908363ffffffff160217905550606082015181600001600c6101000a81548163ffffffff021916908363ffffffff16021790555060808201518160000160106101000a81548163ffffffff021916908363ffffffff16021790555060a08201518160000160146101000a81548163ffffffff021916908363ffffffff160217905550505050505060036040518060e001604052806040518060400160405280600681526020017f466561726f7700000000000000000000000000000000000000000000000000008152508152602001601681526020016040518060400160405280600681526020017f4e6f726d616c000000000000000000000000000000000000000000000000000081525081526020016040518060400160405280600681526020017f466c79696e67000000000000000000000000000000000000000000000000000081525081526020016101ca81526020016000151581526020016040518060c00160405280604163ffffffff168152602001605a63ffffffff168152602001604163ffffffff168152602001603d63ffffffff168152602001603d63ffffffff168152602001606463ffffffff1681525081525090806001815401808255809150509060018203906000526020600020906007020160009091929091909150600082015181600001908051906020019062003fbb9291906201d9fb565b5060208201518160010155604082015181600201908051906020019062003fe49291906201d9fb565b506060820151816003019080519060200190620040039291906201d9fb565b506080820151816004015560a08201518160050160006101000a81548160ff02191690831515021790555060c08201518160060160008201518160000160006101000a81548163ffffffff021916908363ffffffff16021790555060208201518160000160046101000a81548163ffffffff021916908363ffffffff16021790555060408201518160000160086101000a81548163ffffffff021916908363ffffffff160217905550606082015181600001600c6101000a81548163ffffffff021916908363ffffffff16021790555060808201518160000160106101000a81548163ffffffff021916908363ffffffff16021790555060a08201518160000160146101000a81548163ffffffff021916908363ffffffff160217905550505050505060036040518060e001604052806040518060400160405280600581526020017f456b616e730000000000000000000000000000000000000000000000000000008152508152602001601781526020016040518060400160405280600681526020017f506f69736f6e000000000000000000000000000000000000000000000000000081525081526020016040518060400160405280600381526020017f6e616e0000000000000000000000000000000000000000000000000000000000815250815260200161026481526020016000151581526020016040518060c00160405280602363ffffffff168152602001603c63ffffffff168152602001602c63ffffffff168152602001602863ffffffff168152602001603663ffffffff168152602001603763ffffffff168152508152509080600181540180825580915050906001820390600052602060002090600702016000909192909190915060008201518160000190805190602001906200429f9291906201d9fb565b50602082015181600101556040820151816002019080519060200190620042c89291906201d9fb565b506060820151816003019080519060200190620042e79291906201d9fb565b506080820151816004015560a08201518160050160006101000a81548160ff02191690831515021790555060c08201518160060160008201518160000160006101000a81548163ffffffff021916908363ffffffff16021790555060208201518160000160046101000a81548163ffffffff021916908363ffffffff16021790555060408201518160000160086101000a81548163ffffffff021916908363ffffffff160217905550606082015181600001600c6101000a81548163ffffffff021916908363ffffffff16021790555060808201518160000160106101000a81548163ffffffff021916908363ffffffff16021790555060a08201518160000160146101000a81548163ffffffff021916908363ffffffff160217905550505050505060036040518060e001604052806040518060400160405280600581526020017f4172626f6b0000000000000000000000000000000000000000000000000000008152508152602001601881526020016040518060400160405280600681526020017f506f69736f6e000000000000000000000000000000000000000000000000000081525081526020016040518060400160405280600381526020017f6e616e000000000000000000000000000000000000000000000000000000000081525081526020016101ce81526020016000151581526020016040518060c00160405280603c63ffffffff168152602001605563ffffffff168152602001604563ffffffff168152602001604163ffffffff168152602001604f63ffffffff168152602001605063ffffffff16815250815250908060018154018082558091505090600182039060005260206000209060070201600090919290919091506000820151816000019080519060200190620045839291906201d9fb565b50602082015181600101556040820151816002019080519060200190620045ac9291906201d9fb565b506060820151816003019080519060200190620045cb9291906201d9fb565b506080820151816004015560a08201518160050160006101000a81548160ff02191690831515021790555060c08201518160060160008201518160000160006101000a81548163ffffffff021916908363ffffffff16021790555060208201518160000160046101000a81548163ffffffff021916908363ffffffff16021790555060408201518160000160086101000a81548163ffffffff021916908363ffffffff160217905550606082015181600001600c6101000a81548163ffffffff021916908363ffffffff16021790555060808201518160000160106101000a81548163ffffffff021916908363ffffffff16021790555060a08201518160000160146101000a81548163ffffffff021916908363ffffffff160217905550505050505060036040518060e001604052806040518060400160405280600781526020017f50696b61636875000000000000000000000000000000000000000000000000008152508152602001601981526020016040518060400160405280600881526020017f456c65637472696300000000000000000000000000000000000000000000000081525081526020016040518060400160405280600381526020017f6e616e0000000000000000000000000000000000000000000000000000000000815250815260200161024481526020016000151581526020016040518060c00160405280602363ffffffff168152602001603763ffffffff168152602001602863ffffffff168152602001603263ffffffff168152602001603263ffffffff168152602001605a63ffffffff16815250815250908060018154018082558091505090600182039060005260206000209060070201600090919290919091506000820151816000019080519060200190620048679291906201d9fb565b50602082015181600101556040820151816002019080519060200190620048909291906201d9fb565b506060820151816003019080519060200190620048af9291906201d9fb565b506080820151816004015560a08201518160050160006101000a81548160ff02191690831515021790555060c08201518160060160008201518160000160006101000a81548163ffffffff021916908363ffffffff16021790555060208201518160000160046101000a81548163ffffffff021916908363ffffffff16021790555060408201518160000160086101000a81548163ffffffff021916908363ffffffff160217905550606082015181600001600c6101000a81548163ffffffff021916908363ffffffff16021790555060808201518160000160106101000a81548163ffffffff021916908363ffffffff16021790555060a08201518160000160146101000a81548163ffffffff021916908363ffffffff160217905550505050505060036040518060e001604052806040518060400160405280600681526020017f52616963687500000000000000000000000000000000000000000000000000008152508152602001601a81526020016040518060400160405280600881526020017f456c65637472696300000000000000000000000000000000000000000000000081525081526020016040518060400160405280600381526020017f6e616e0000000000000000000000000000000000000000000000000000000000815250815260200161019f81526020016000151581526020016040518060c00160405280603c63ffffffff168152602001605a63ffffffff168152602001603763ffffffff168152602001605a63ffffffff168152602001605063ffffffff168152602001606e63ffffffff1681525081525090806001815401808255809150509060018203906000526020600020906007020160009091929091909150600082015181600001908051906020019062004b4b9291906201d9fb565b5060208201518160010155604082015181600201908051906020019062004b749291906201d9fb565b50606082015181600301908051906020019062004b939291906201d9fb565b506080820151816004015560a08201518160050160006101000a81548160ff02191690831515021790555060c08201518160060160008201518160000160006101000a81548163ffffffff021916908363ffffffff16021790555060208201518160000160046101000a81548163ffffffff021916908363ffffffff16021790555060408201518160000160086101000a81548163ffffffff021916908363ffffffff160217905550606082015181600001600c6101000a81548163ffffffff021916908363ffffffff16021790555060808201518160000160106101000a81548163ffffffff021916908363ffffffff16021790555060a08201518160000160146101000a81548163ffffffff021916908363ffffffff160217905550505050505060036040518060e001604052806040518060400160405280600981526020017f53616e64736872657700000000000000000000000000000000000000000000008152508152602001601b81526020016040518060400160405280600681526020017f47726f756e64000000000000000000000000000000000000000000000000000081525081526020016040518060400160405280600381526020017f6e616e0000000000000000000000000000000000000000000000000000000000815250815260200161025881526020016000151581526020016040518060c00160405280603263ffffffff168152602001604b63ffffffff168152602001605563ffffffff168152602001601463ffffffff168152602001601e63ffffffff168152602001602863ffffffff1681525081525090806001815401808255809150509060018203906000526020600020906007020160009091929091909150600082015181600001908051906020019062004e2f9291906201d9fb565b5060208201518160010155604082015181600201908051906020019062004e589291906201d9fb565b50606082015181600301908051906020019062004e779291906201d9fb565b506080820151816004015560a08201518160050160006101000a81548160ff02191690831515021790555060c08201518160060160008201518160000160006101000a81548163ffffffff021916908363ffffffff16021790555060208201518160000160046101000a81548163ffffffff021916908363ffffffff16021790555060408201518160000160086101000a81548163ffffffff021916908363ffffffff160217905550606082015181600001600c6101000a81548163ffffffff021916908363ffffffff16021790555060808201518160000160106101000a81548163ffffffff021916908363ffffffff16021790555060a08201518160000160146101000a81548163ffffffff021916908363ffffffff160217905550505050505060036040518060e001604052806040518060400160405280600981526020017f53616e64736c61736800000000000000000000000000000000000000000000008152508152602001601c81526020016040518060400160405280600681526020017f47726f756e64000000000000000000000000000000000000000000000000000081525081526020016040518060400160405280600381526020017f6e616e000000000000000000000000000000000000000000000000000000000081525081526020016101c281526020016000151581526020016040518060c00160405280604b63ffffffff168152602001606463ffffffff168152602001606e63ffffffff168152602001602d63ffffffff168152602001603763ffffffff168152602001604163ffffffff16815250815250908060018154018082558091505090600182039060005260206000209060070201600090919290919091506000820151816000019080519060200190620051139291906201d9fb565b506020820151816001015560408201518160020190805190602001906200513c9291906201d9fb565b5060608201518160030190805190602001906200515b9291906201d9fb565b506080820151816004015560a08201518160050160006101000a81548160ff02191690831515021790555060c08201518160060160008201518160000160006101000a81548163ffffffff021916908363ffffffff16021790555060208201518160000160046101000a81548163ffffffff021916908363ffffffff16021790555060408201518160000160086101000a81548163ffffffff021916908363ffffffff160217905550606082015181600001600c6101000a81548163ffffffff021916908363ffffffff16021790555060808201518160000160106101000a81548163ffffffff021916908363ffffffff16021790555060a08201518160000160146101000a81548163ffffffff021916908363ffffffff160217905550505050505060036040518060e001604052806040518060400160405280600a81526020017f4e69646f72616ee29980000000000000000000000000000000000000000000008152508152602001601d81526020016040518060400160405280600681526020017f506f69736f6e000000000000000000000000000000000000000000000000000081525081526020016040518060400160405280600381526020017f6e616e0000000000000000000000000000000000000000000000000000000000815250815260200161027181526020016000151581526020016040518060c00160405280603763ffffffff168152602001602f63ffffffff168152602001603463ffffffff168152602001602863ffffffff168152602001602863ffffffff168152602001602963ffffffff16815250815250908060018154018082558091505090600182039060005260206000209060070201600090919290919091506000820151816000019080519060200190620053f79291906201d9fb565b50602082015181600101556040820151816002019080519060200190620054209291906201d9fb565b5060608201518160030190805190602001906200543f9291906201d9fb565b506080820151816004015560a08201518160050160006101000a81548160ff02191690831515021790555060c08201518160060160008201518160000160006101000a81548163ffffffff021916908363ffffffff16021790555060208201518160000160046101000a81548163ffffffff021916908363ffffffff16021790555060408201518160000160086101000a81548163ffffffff021916908363ffffffff160217905550606082015181600001600c6101000a81548163ffffffff021916908363ffffffff16021790555060808201518160000160106101000a81548163ffffffff021916908363ffffffff16021790555060a08201518160000160146101000a81548163ffffffff021916908363ffffffff160217905550505050505060036040518060e001604052806040518060400160405280600881526020017f4e69646f72696e610000000000000000000000000000000000000000000000008152508152602001601e81526020016040518060400160405280600681526020017f506f69736f6e000000000000000000000000000000000000000000000000000081525081526020016040518060400160405280600381526020017f6e616e0000000000000000000000000000000000000000000000000000000000815250815260200161021781526020016000151581526020016040518060c00160405280604663ffffffff168152602001603e63ffffffff168152602001604363ffffffff168152602001603763ffffffff168152602001603763ffffffff168152602001603863ffffffff16815250815250908060018154018082558091505090600182039060005260206000209060070201600090919290919091506000820151816000019080519060200190620056db9291906201d9fb565b50602082015181600101556040820151816002019080519060200190620057049291906201d9fb565b506060820151816003019080519060200190620057239291906201d9fb565b506080820151816004015560a08201518160050160006101000a81548160ff02191690831515021790555060c08201518160060160008201518160000160006101000a81548163ffffffff021916908363ffffffff16021790555060208201518160000160046101000a81548163ffffffff021916908363ffffffff16021790555060408201518160000160086101000a81548163ffffffff021916908363ffffffff160217905550606082015181600001600c6101000a81548163ffffffff021916908363ffffffff16021790555060808201518160000160106101000a81548163ffffffff021916908363ffffffff16021790555060a08201518160000160146101000a81548163ffffffff021916908363ffffffff160217905550505050505060036040518060e001604052806040518060400160405280600981526020017f4e69646f717565656e00000000000000000000000000000000000000000000008152508152602001601f81526020016040518060400160405280600681526020017f506f69736f6e000000000000000000000000000000000000000000000000000081525081526020016040518060400160405280600681526020017f47726f756e640000000000000000000000000000000000000000000000000000815250815260200161018b81526020016000151581526020016040518060c00160405280605a63ffffffff168152602001605c63ffffffff168152602001605763ffffffff168152602001604b63ffffffff168152602001605563ffffffff168152602001604c63ffffffff16815250815250908060018154018082558091505090600182039060005260206000209060070201600090919290919091506000820151816000019080519060200190620059bf9291906201d9fb565b50602082015181600101556040820151816002019080519060200190620059e89291906201d9fb565b50606082015181600301908051906020019062005a079291906201d9fb565b506080820151816004015560a08201518160050160006101000a81548160ff02191690831515021790555060c08201518160060160008201518160000160006101000a81548163ffffffff021916908363ffffffff16021790555060208201518160000160046101000a81548163ffffffff021916908363ffffffff16021790555060408201518160000160086101000a81548163ffffffff021916908363ffffffff160217905550606082015181600001600c6101000a81548163ffffffff021916908363ffffffff16021790555060808201518160000160106101000a81548163ffffffff021916908363ffffffff16021790555060a08201518160000160146101000a81548163ffffffff021916908363ffffffff160217905550505050505060036040518060e001604052806040518060400160405280600a81526020017f4e69646f72616ee29982000000000000000000000000000000000000000000008152508152602001602081526020016040518060400160405280600681526020017f506f69736f6e000000000000000000000000000000000000000000000000000081525081526020016040518060400160405280600381526020017f6e616e0000000000000000000000000000000000000000000000000000000000815250815260200161027381526020016000151581526020016040518060c00160405280602e63ffffffff168152602001603963ffffffff168152602001602863ffffffff168152602001602863ffffffff168152602001602863ffffffff168152602001603263ffffffff1681525081525090806001815401808255809150509060018203906000526020600020906007020160009091929091909150600082015181600001908051906020019062005ca39291906201d9fb565b5060208201518160010155604082015181600201908051906020019062005ccc9291906201d9fb565b50606082015181600301908051906020019062005ceb9291906201d9fb565b506080820151816004015560a08201518160050160006101000a81548160ff02191690831515021790555060c08201518160060160008201518160000160006101000a81548163ffffffff021916908363ffffffff16021790555060208201518160000160046101000a81548163ffffffff021916908363ffffffff16021790555060408201518160000160086101000a81548163ffffffff021916908363ffffffff160217905550606082015181600001600c6101000a81548163ffffffff021916908363ffffffff16021790555060808201518160000160106101000a81548163ffffffff021916908363ffffffff16021790555060a08201518160000160146101000a81548163ffffffff021916908363ffffffff160217905550505050505060036040518060e001604052806040518060400160405280600881526020017f4e69646f72696e6f0000000000000000000000000000000000000000000000008152508152602001602181526020016040518060400160405280600681526020017f506f69736f6e000000000000000000000000000000000000000000000000000081525081526020016040518060400160405280600381526020017f6e616e0000000000000000000000000000000000000000000000000000000000815250815260200161021781526020016000151581526020016040518060c00160405280603d63ffffffff168152602001604863ffffffff168152602001603963ffffffff168152602001603763ffffffff168152602001603763ffffffff168152602001604163ffffffff1681525081525090806001815401808255809150509060018203906000526020600020906007020160009091929091909150600082015181600001908051906020019062005f879291906201d9fb565b5060208201518160010155604082015181600201908051906020019062005fb09291906201d9fb565b50606082015181600301908051906020019062005fcf9291906201d9fb565b506080820151816004015560a08201518160050160006101000a81548160ff02191690831515021790555060c08201518160060160008201518160000160006101000a81548163ffffffff021916908363ffffffff16021790555060208201518160000160046101000a81548163ffffffff021916908363ffffffff16021790555060408201518160000160086101000a81548163ffffffff021916908363ffffffff160217905550606082015181600001600c6101000a81548163ffffffff021916908363ffffffff16021790555060808201518160000160106101000a81548163ffffffff021916908363ffffffff16021790555060a08201518160000160146101000a81548163ffffffff021916908363ffffffff160217905550505050505060036040518060e001604052806040518060400160405280600881526020017f4e69646f6b696e670000000000000000000000000000000000000000000000008152508152602001602281526020016040518060400160405280600681526020017f506f69736f6e000000000000000000000000000000000000000000000000000081525081526020016040518060400160405280600681526020017f47726f756e640000000000000000000000000000000000000000000000000000815250815260200161018b81526020016000151581526020016040518060c00160405280605163ffffffff168152602001606663ffffffff168152602001604d63ffffffff168152602001605563ffffffff168152602001604b63ffffffff168152602001605563ffffffff168152508152509080600181540180825580915050906001820390600052602060002090600702016000909192909190915060008201518160000190805190602001906200626b9291906201d9fb565b50602082015181600101556040820151816002019080519060200190620062949291906201d9fb565b506060820151816003019080519060200190620062b39291906201d9fb565b506080820151816004015560a08201518160050160006101000a81548160ff02191690831515021790555060c08201518160060160008201518160000160006101000a81548163ffffffff021916908363ffffffff16021790555060208201518160000160046101000a81548163ffffffff021916908363ffffffff16021790555060408201518160000160086101000a81548163ffffffff021916908363ffffffff160217905550606082015181600001600c6101000a81548163ffffffff021916908363ffffffff16021790555060808201518160000160106101000a81548163ffffffff021916908363ffffffff16021790555060a08201518160000160146101000a81548163ffffffff021916908363ffffffff160217905550505050505060036040518060e001604052806040518060400160405280600881526020017f436c6566616972790000000000000000000000000000000000000000000000008152508152602001602381526020016040518060400160405280600581526020017f466169727900000000000000000000000000000000000000000000000000000081525081526020016040518060400160405280600381526020017f6e616e0000000000000000000000000000000000000000000000000000000000815250815260200161024181526020016000151581526020016040518060c00160405280604663ffffffff168152602001602d63ffffffff168152602001603063ffffffff168152602001603c63ffffffff168152602001604163ffffffff168152602001602363ffffffff168152508152509080600181540180825580915050906001820390600052602060002090600702016000909192909190915060008201518160000190805190602001906200654f9291906201d9fb565b50602082015181600101556040820151816002019080519060200190620065789291906201d9fb565b506060820151816003019080519060200190620065979291906201d9fb565b506080820151816004015560a08201518160050160006101000a81548160ff02191690831515021790555060c08201518160060160008201518160000160006101000a81548163ffffffff021916908363ffffffff16021790555060208201518160000160046101000a81548163ffffffff021916908363ffffffff16021790555060408201518160000160086101000a81548163ffffffff021916908363ffffffff160217905550606082015181600001600c6101000a81548163ffffffff021916908363ffffffff16021790555060808201518160000160106101000a81548163ffffffff021916908363ffffffff16021790555060a08201518160000160146101000a81548163ffffffff021916908363ffffffff160217905550505050505060036040518060e001604052806040518060400160405280600881526020017f436c656661626c650000000000000000000000000000000000000000000000008152508152602001602481526020016040518060400160405280600581526020017f466169727900000000000000000000000000000000000000000000000000000081525081526020016040518060400160405280600381526020017f6e616e000000000000000000000000000000000000000000000000000000000081525081526020016101a181526020016000151581526020016040518060c00160405280605f63ffffffff168152602001604663ffffffff168152602001604963ffffffff168152602001605f63ffffffff168152602001605a63ffffffff168152602001603c63ffffffff16815250815250908060018154018082558091505090600182039060005260206000209060070201600090919290919091506000820151816000019080519060200190620068339291906201d9fb565b506020820151816001015560408201518160020190805190602001906200685c9291906201d9fb565b5060608201518160030190805190602001906200687b9291906201d9fb565b506080820151816004015560a08201518160050160006101000a81548160ff02191690831515021790555060c08201518160060160008201518160000160006101000a81548163ffffffff021916908363ffffffff16021790555060208201518160000160046101000a81548163ffffffff021916908363ffffffff16021790555060408201518160000160086101000a81548163ffffffff021916908363ffffffff160217905550606082015181600001600c6101000a81548163ffffffff021916908363ffffffff16021790555060808201518160000160106101000a81548163ffffffff021916908363ffffffff16021790555060a08201518160000160146101000a81548163ffffffff021916908363ffffffff160217905550505050505060036040518060e001604052806040518060400160405280600681526020017f56756c70697800000000000000000000000000000000000000000000000000008152508152602001602581526020016040518060400160405280600481526020017f466972650000000000000000000000000000000000000000000000000000000081525081526020016040518060400160405280600381526020017f6e616e0000000000000000000000000000000000000000000000000000000000815250815260200161025981526020016000151581526020016040518060c00160405280602663ffffffff168152602001602963ffffffff168152602001602863ffffffff168152602001603263ffffffff168152602001604163ffffffff168152602001604163ffffffff1681525081525090806001815401808255809150509060018203906000526020600020906007020160009091929091909150600082015181600001908051906020019062006b179291906201d9fb565b5060208201518160010155604082015181600201908051906020019062006b409291906201d9fb565b50606082015181600301908051906020019062006b5f9291906201d9fb565b506080820151816004015560a08201518160050160006101000a81548160ff02191690831515021790555060c08201518160060160008201518160000160006101000a81548163ffffffff021916908363ffffffff16021790555060208201518160000160046101000a81548163ffffffff021916908363ffffffff16021790555060408201518160000160086101000a81548163ffffffff021916908363ffffffff160217905550606082015181600001600c6101000a81548163ffffffff021916908363ffffffff16021790555060808201518160000160106101000a81548163ffffffff021916908363ffffffff16021790555060a08201518160000160146101000a81548163ffffffff021916908363ffffffff160217905550505050505060036040518060e001604052806040518060400160405280600981526020017f4e696e6574616c657300000000000000000000000000000000000000000000008152508152602001602681526020016040518060400160405280600481526020017f466972650000000000000000000000000000000000000000000000000000000081525081526020016040518060400160405280600381526020017f6e616e0000000000000000000000000000000000000000000000000000000000815250815260200161018b81526020016000151581526020016040518060c00160405280604963ffffffff168152602001604c63ffffffff168152602001604b63ffffffff168152602001605163ffffffff168152602001606463ffffffff168152602001606463ffffffff1681525081525090806001815401808255809150509060018203906000526020600020906007020160009091929091909150600082015181600001908051906020019062006dfb9291906201d9fb565b5060208201518160010155604082015181600201908051906020019062006e249291906201d9fb565b50606082015181600301908051906020019062006e439291906201d9fb565b506080820151816004015560a08201518160050160006101000a81548160ff02191690831515021790555060c08201518160060160008201518160000160006101000a81548163ffffffff021916908363ffffffff16021790555060208201518160000160046101000a81548163ffffffff021916908363ffffffff16021790555060408201518160000160086101000a81548163ffffffff021916908363ffffffff160217905550606082015181600001600c6101000a81548163ffffffff021916908363ffffffff16021790555060808201518160000160106101000a81548163ffffffff021916908363ffffffff16021790555060a08201518160000160146101000a81548163ffffffff021916908363ffffffff160217905550505050505060036040518060e001604052806040518060400160405280600a81526020017f4a6967676c7970756666000000000000000000000000000000000000000000008152508152602001602781526020016040518060400160405280600681526020017f4e6f726d616c000000000000000000000000000000000000000000000000000081525081526020016040518060400160405280600581526020017f4661697279000000000000000000000000000000000000000000000000000000815250815260200161027681526020016000151581526020016040518060c00160405280607363ffffffff168152602001602d63ffffffff168152602001601463ffffffff168152602001602d63ffffffff168152602001601963ffffffff168152602001601463ffffffff16815250815250908060018154018082558091505090600182039060005260206000209060070201600090919290919091506000820151816000019080519060200190620070df9291906201d9fb565b50602082015181600101556040820151816002019080519060200190620071089291906201d9fb565b506060820151816003019080519060200190620071279291906201d9fb565b506080820151816004015560a08201518160050160006101000a81548160ff02191690831515021790555060c08201518160060160008201518160000160006101000a81548163ffffffff021916908363ffffffff16021790555060208201518160000160046101000a81548163ffffffff021916908363ffffffff16021790555060408201518160000160086101000a81548163ffffffff021916908363ffffffff160217905550606082015181600001600c6101000a81548163ffffffff021916908363ffffffff16021790555060808201518160000160106101000a81548163ffffffff021916908363ffffffff16021790555060a08201518160000160146101000a81548163ffffffff021916908363ffffffff160217905550505050505060036040518060e001604052806040518060400160405280600a81526020017f576967676c7974756666000000000000000000000000000000000000000000008152508152602001602881526020016040518060400160405280600681526020017f4e6f726d616c000000000000000000000000000000000000000000000000000081525081526020016040518060400160405280600581526020017f466169727900000000000000000000000000000000000000000000000000000081525081526020016101d181526020016000151581526020016040518060c00160405280608c63ffffffff168152602001604663ffffffff168152602001602d63ffffffff168152602001605563ffffffff168152602001603263ffffffff168152602001602d63ffffffff16815250815250908060018154018082558091505090600182039060005260206000209060070201600090919290919091506000820151816000019080519060200190620073c39291906201d9fb565b50602082015181600101556040820151816002019080519060200190620073ec9291906201d9fb565b5060608201518160030190805190602001906200740b9291906201d9fb565b506080820151816004015560a08201518160050160006101000a81548160ff02191690831515021790555060c08201518160060160008201518160000160006101000a81548163ffffffff021916908363ffffffff16021790555060208201518160000160046101000a81548163ffffffff021916908363ffffffff16021790555060408201518160000160086101000a81548163ffffffff021916908363ffffffff160217905550606082015181600001600c6101000a81548163ffffffff021916908363ffffffff16021790555060808201518160000160106101000a81548163ffffffff021916908363ffffffff16021790555060a08201518160000160146101000a81548163ffffffff021916908363ffffffff160217905550505050505060036040518060e001604052806040518060400160405280600581526020017f5a756261740000000000000000000000000000000000000000000000000000008152508152602001602981526020016040518060400160405280600681526020017f506f69736f6e000000000000000000000000000000000000000000000000000081525081526020016040518060400160405280600681526020017f466c79696e670000000000000000000000000000000000000000000000000000815250815260200161028f81526020016000151581526020016040518060c00160405280602863ffffffff168152602001602d63ffffffff168152602001602363ffffffff168152602001601e63ffffffff168152602001602863ffffffff168152602001603763ffffffff16815250815250908060018154018082558091505090600182039060005260206000209060070201600090919290919091506000820151816000019080519060200190620076a79291906201d9fb565b50602082015181600101556040820151816002019080519060200190620076d09291906201d9fb565b506060820151816003019080519060200190620076ef9291906201d9fb565b506080820151816004015560a08201518160050160006101000a81548160ff02191690831515021790555060c08201518160060160008201518160000160006101000a81548163ffffffff021916908363ffffffff16021790555060208201518160000160046101000a81548163ffffffff021916908363ffffffff16021790555060408201518160000160086101000a81548163ffffffff021916908363ffffffff160217905550606082015181600001600c6101000a81548163ffffffff021916908363ffffffff16021790555060808201518160000160106101000a81548163ffffffff021916908363ffffffff16021790555060a08201518160000160146101000a81548163ffffffff021916908363ffffffff160217905550505050505060036040518060e001604052806040518060400160405280600681526020017f476f6c62617400000000000000000000000000000000000000000000000000008152508152602001602a81526020016040518060400160405280600681526020017f506f69736f6e000000000000000000000000000000000000000000000000000081525081526020016040518060400160405280600681526020017f466c79696e67000000000000000000000000000000000000000000000000000081525081526020016101bd81526020016000151581526020016040518060c00160405280604b63ffffffff168152602001605063ffffffff168152602001604663ffffffff168152602001604163ffffffff168152602001604b63ffffffff168152602001605a63ffffffff168152508152509080600181540180825580915050906001820390600052602060002090600702016000909192909190915060008201518160000190805190602001906200798b9291906201d9fb565b50602082015181600101556040820151816002019080519060200190620079b49291906201d9fb565b506060820151816003019080519060200190620079d39291906201d9fb565b506080820151816004015560a08201518160050160006101000a81548160ff02191690831515021790555060c08201518160060160008201518160000160006101000a81548163ffffffff021916908363ffffffff16021790555060208201518160000160046101000a81548163ffffffff021916908363ffffffff16021790555060408201518160000160086101000a81548163ffffffff021916908363ffffffff160217905550606082015181600001600c6101000a81548163ffffffff021916908363ffffffff16021790555060808201518160000160106101000a81548163ffffffff021916908363ffffffff16021790555060a08201518160000160146101000a81548163ffffffff021916908363ffffffff160217905550505050505060036040518060e001604052806040518060400160405280600681526020017f4f646469736800000000000000000000000000000000000000000000000000008152508152602001602b81526020016040518060400160405280600581526020017f477261737300000000000000000000000000000000000000000000000000000081525081526020016040518060400160405280600681526020017f506f69736f6e0000000000000000000000000000000000000000000000000000815250815260200161024481526020016000151581526020016040518060c00160405280602d63ffffffff168152602001603263ffffffff168152602001603763ffffffff168152602001604b63ffffffff168152602001604163ffffffff168152602001601e63ffffffff1681525081525090806001815401808255809150509060018203906000526020600020906007020160009091929091909150600082015181600001908051906020019062007c6f9291906201d9fb565b5060208201518160010155604082015181600201908051906020019062007c989291906201d9fb565b50606082015181600301908051906020019062007cb79291906201d9fb565b506080820151816004015560a08201518160050160006101000a81548160ff02191690831515021790555060c08201518160060160008201518160000160006101000a81548163ffffffff021916908363ffffffff16021790555060208201518160000160046101000a81548163ffffffff021916908363ffffffff16021790555060408201518160000160086101000a81548163ffffffff021916908363ffffffff160217905550606082015181600001600c6101000a81548163ffffffff021916908363ffffffff16021790555060808201518160000160106101000a81548163ffffffff021916908363ffffffff16021790555060a08201518160000160146101000a81548163ffffffff021916908363ffffffff160217905550505050505060036040518060e001604052806040518060400160405280600581526020017f476c6f6f6d0000000000000000000000000000000000000000000000000000008152508152602001602c81526020016040518060400160405280600581526020017f477261737300000000000000000000000000000000000000000000000000000081525081526020016040518060400160405280600681526020017f506f69736f6e000000000000000000000000000000000000000000000000000081525081526020016101f981526020016000151581526020016040518060c00160405280603c63ffffffff168152602001604163ffffffff168152602001604663ffffffff168152602001605563ffffffff168152602001604b63ffffffff168152602001602863ffffffff1681525081525090806001815401808255809150509060018203906000526020600020906007020160009091929091909150600082015181600001908051906020019062007f539291906201d9fb565b5060208201518160010155604082015181600201908051906020019062007f7c9291906201d9fb565b50606082015181600301908051906020019062007f9b9291906201d9fb565b506080820151816004015560a08201518160050160006101000a81548160ff02191690831515021790555060c08201518160060160008201518160000160006101000a81548163ffffffff021916908363ffffffff16021790555060208201518160000160046101000a81548163ffffffff021916908363ffffffff16021790555060408201518160000160086101000a81548163ffffffff021916908363ffffffff160217905550606082015181600001600c6101000a81548163ffffffff021916908363ffffffff16021790555060808201518160000160106101000a81548163ffffffff021916908363ffffffff16021790555060a08201518160000160146101000a81548163ffffffff021916908363ffffffff160217905550505050505060036040518060e001604052806040518060400160405280600981526020017f56696c65706c756d6500000000000000000000000000000000000000000000008152508152602001602d81526020016040518060400160405280600581526020017f477261737300000000000000000000000000000000000000000000000000000081525081526020016040518060400160405280600681526020017f506f69736f6e0000000000000000000000000000000000000000000000000000815250815260200161019a81526020016000151581526020016040518060c00160405280604b63ffffffff168152602001605063ffffffff168152602001605563ffffffff168152602001606e63ffffffff168152602001605a63ffffffff168152602001603263ffffffff16815250815250908060018154018082558091505090600182039060005260206000209060070201600090919290919091506000820151816000019080519060200190620082379291906201d9fb565b50602082015181600101556040820151816002019080519060200190620082609291906201d9fb565b5060608201518160030190805190602001906200827f9291906201d9fb565b506080820151816004015560a08201518160050160006101000a81548160ff02191690831515021790555060c08201518160060160008201518160000160006101000a81548163ffffffff021916908363ffffffff16021790555060208201518160000160046101000a81548163ffffffff021916908363ffffffff16021790555060408201518160000160086101000a81548163ffffffff021916908363ffffffff160217905550606082015181600001600c6101000a81548163ffffffff021916908363ffffffff16021790555060808201518160000160106101000a81548163ffffffff021916908363ffffffff16021790555060a08201518160000160146101000a81548163ffffffff021916908363ffffffff160217905550505050505060036040518060e001604052806040518060400160405280600581526020017f50617261730000000000000000000000000000000000000000000000000000008152508152602001602e81526020016040518060400160405280600381526020017f427567000000000000000000000000000000000000000000000000000000000081525081526020016040518060400160405280600581526020017f4772617373000000000000000000000000000000000000000000000000000000815250815260200161026781526020016000151581526020016040518060c00160405280602363ffffffff168152602001604663ffffffff168152602001603763ffffffff168152602001602d63ffffffff168152602001603763ffffffff168152602001601963ffffffff168152508152509080600181540180825580915050906001820390600052602060002090600702016000909192909190915060008201518160000190805190602001906200851b9291906201d9fb565b50602082015181600101556040820151816002019080519060200190620085449291906201d9fb565b506060820151816003019080519060200190620085639291906201d9fb565b506080820151816004015560a08201518160050160006101000a81548160ff02191690831515021790555060c08201518160060160008201518160000160006101000a81548163ffffffff021916908363ffffffff16021790555060208201518160000160046101000a81548163ffffffff021916908363ffffffff16021790555060408201518160000160086101000a81548163ffffffff021916908363ffffffff160217905550606082015181600001600c6101000a81548163ffffffff021916908363ffffffff16021790555060808201518160000160106101000a81548163ffffffff021916908363ffffffff16021790555060a08201518160000160146101000a81548163ffffffff021916908363ffffffff160217905550505050505060036040518060e001604052806040518060400160405280600881526020017f50617261736563740000000000000000000000000000000000000000000000008152508152602001602f81526020016040518060400160405280600381526020017f427567000000000000000000000000000000000000000000000000000000000081525081526020016040518060400160405280600581526020017f477261737300000000000000000000000000000000000000000000000000000081525081526020016101ef81526020016000151581526020016040518060c00160405280603c63ffffffff168152602001605f63ffffffff168152602001605063ffffffff168152602001603c63ffffffff168152602001605063ffffffff168152602001601e63ffffffff16815250815250908060018154018082558091505090600182039060005260206000209060070201600090919290919091506000820151816000019080519060200190620087ff9291906201d9fb565b50602082015181600101556040820151816002019080519060200190620088289291906201d9fb565b506060820151816003019080519060200190620088479291906201d9fb565b506080820151816004015560a08201518160050160006101000a81548160ff02191690831515021790555060c08201518160060160008201518160000160006101000a81548163ffffffff021916908363ffffffff16021790555060208201518160000160046101000a81548163ffffffff021916908363ffffffff16021790555060408201518160000160086101000a81548163ffffffff021916908363ffffffff160217905550606082015181600001600c6101000a81548163ffffffff021916908363ffffffff16021790555060808201518160000160106101000a81548163ffffffff021916908363ffffffff16021790555060a08201518160000160146101000a81548163ffffffff021916908363ffffffff160217905550505050505060036040518060e001604052806040518060400160405280600781526020017f56656e6f6e6174000000000000000000000000000000000000000000000000008152508152602001603081526020016040518060400160405280600381526020017f427567000000000000000000000000000000000000000000000000000000000081525081526020016040518060400160405280600681526020017f506f69736f6e0000000000000000000000000000000000000000000000000000815250815260200161025381526020016000151581526020016040518060c00160405280603c63ffffffff168152602001603763ffffffff168152602001603263ffffffff168152602001602863ffffffff168152602001603763ffffffff168152602001602d63ffffffff1681525081525090806001815401808255809150509060018203906000526020600020906007020160009091929091909150600082015181600001908051906020019062008ae39291906201d9fb565b5060208201518160010155604082015181600201908051906020019062008b0c9291906201d9fb565b50606082015181600301908051906020019062008b2b9291906201d9fb565b506080820151816004015560a08201518160050160006101000a81548160ff02191690831515021790555060c08201518160060160008201518160000160006101000a81548163ffffffff021916908363ffffffff16021790555060208201518160000160046101000a81548163ffffffff021916908363ffffffff16021790555060408201518160000160086101000a81548163ffffffff021916908363ffffffff160217905550606082015181600001600c6101000a81548163ffffffff021916908363ffffffff16021790555060808201518160000160106101000a81548163ffffffff021916908363ffffffff16021790555060a08201518160000160146101000a81548163ffffffff021916908363ffffffff160217905550505050505060036040518060e001604052806040518060400160405280600881526020017f56656e6f6d6f74680000000000000000000000000000000000000000000000008152508152602001603181526020016040518060400160405280600381526020017f427567000000000000000000000000000000000000000000000000000000000081525081526020016040518060400160405280600681526020017f506f69736f6e000000000000000000000000000000000000000000000000000081525081526020016101c281526020016000151581526020016040518060c00160405280604663ffffffff168152602001604163ffffffff168152602001603c63ffffffff168152602001605a63ffffffff168152602001604b63ffffffff168152602001605a63ffffffff1681525081525090806001815401808255809150509060018203906000526020600020906007020160009091929091909150600082015181600001908051906020019062008dc79291906201d9fb565b5060208201518160010155604082015181600201908051906020019062008df09291906201d9fb565b50606082015181600301908051906020019062008e0f9291906201d9fb565b506080820151816004015560a08201518160050160006101000a81548160ff02191690831515021790555060c08201518160060160008201518160000160006101000a81548163ffffffff021916908363ffffffff16021790555060208201518160000160046101000a81548163ffffffff021916908363ffffffff16021790555060408201518160000160086101000a81548163ffffffff021916908363ffffffff160217905550606082015181600001600c6101000a81548163ffffffff021916908363ffffffff16021790555060808201518160000160106101000a81548163ffffffff021916908363ffffffff16021790555060a08201518160000160146101000a81548163ffffffff021916908363ffffffff160217905550505050505060036040518060e001604052806040518060400160405280600781526020017f4469676c657474000000000000000000000000000000000000000000000000008152508152602001603281526020016040518060400160405280600681526020017f47726f756e64000000000000000000000000000000000000000000000000000081525081526020016040518060400160405280600381526020017f6e616e0000000000000000000000000000000000000000000000000000000000815250815260200161027b81526020016000151581526020016040518060c00160405280600a63ffffffff168152602001603763ffffffff168152602001601963ffffffff168152602001602363ffffffff168152602001602d63ffffffff168152602001605f63ffffffff16815250815250908060018154018082558091505090600182039060005260206000209060070201600090919290919091506000820151816000019080519060200190620090ab9291906201d9fb565b50602082015181600101556040820151816002019080519060200190620090d49291906201d9fb565b506060820151816003019080519060200190620090f39291906201d9fb565b506080820151816004015560a08201518160050160006101000a81548160ff02191690831515021790555060c08201518160060160008201518160000160006101000a81548163ffffffff021916908363ffffffff16021790555060208201518160000160046101000a81548163ffffffff021916908363ffffffff16021790555060408201518160000160086101000a81548163ffffffff021916908363ffffffff160217905550606082015181600001600c6101000a81548163ffffffff021916908363ffffffff16021790555060808201518160000160106101000a81548163ffffffff021916908363ffffffff16021790555060a08201518160000160146101000a81548163ffffffff021916908363ffffffff160217905550505050505060036040518060e001604052806040518060400160405280600781526020017f4475677472696f000000000000000000000000000000000000000000000000008152508152602001603381526020016040518060400160405280600681526020017f47726f756e64000000000000000000000000000000000000000000000000000081525081526020016040518060400160405280600381526020017f6e616e000000000000000000000000000000000000000000000000000000000081525081526020016101ef81526020016000151581526020016040518060c00160405280602363ffffffff168152602001605063ffffffff168152602001603263ffffffff168152602001603263ffffffff168152602001604663ffffffff168152602001607863ffffffff168152508152509080600181540180825580915050906001820390600052602060002090600702016000909192909190915060008201518160000190805190602001906200938f9291906201d9fb565b50602082015181600101556040820151816002019080519060200190620093b89291906201d9fb565b506060820151816003019080519060200190620093d79291906201d9fb565b506080820151816004015560a08201518160050160006101000a81548160ff02191690831515021790555060c08201518160060160008201518160000160006101000a81548163ffffffff021916908363ffffffff16021790555060208201518160000160046101000a81548163ffffffff021916908363ffffffff16021790555060408201518160000160086101000a81548163ffffffff021916908363ffffffff160217905550606082015181600001600c6101000a81548163ffffffff021916908363ffffffff16021790555060808201518160000160106101000a81548163ffffffff021916908363ffffffff16021790555060a08201518160000160146101000a81548163ffffffff021916908363ffffffff160217905550505050505060036040518060e001604052806040518060400160405280600681526020017f4d656f77746800000000000000000000000000000000000000000000000000008152508152602001603481526020016040518060400160405280600681526020017f4e6f726d616c000000000000000000000000000000000000000000000000000081525081526020016040518060400160405280600381526020017f6e616e0000000000000000000000000000000000000000000000000000000000815250815260200161026281526020016000151581526020016040518060c00160405280602863ffffffff168152602001602d63ffffffff168152602001602363ffffffff168152602001602863ffffffff168152602001602863ffffffff168152602001605a63ffffffff16815250815250908060018154018082558091505090600182039060005260206000209060070201600090919290919091506000820151816000019080519060200190620096739291906201d9fb565b506020820151816001015560408201518160020190805190602001906200969c9291906201d9fb565b506060820151816003019080519060200190620096bb9291906201d9fb565b506080820151816004015560a08201518160050160006101000a81548160ff02191690831515021790555060c08201518160060160008201518160000160006101000a81548163ffffffff021916908363ffffffff16021790555060208201518160000160046101000a81548163ffffffff021916908363ffffffff16021790555060408201518160000160086101000a81548163ffffffff021916908363ffffffff160217905550606082015181600001600c6101000a81548163ffffffff021916908363ffffffff16021790555060808201518160000160106101000a81548163ffffffff021916908363ffffffff16021790555060a08201518160000160146101000a81548163ffffffff021916908363ffffffff160217905550505050505060036040518060e001604052806040518060400160405280600781526020017f5065727369616e000000000000000000000000000000000000000000000000008152508152602001603581526020016040518060400160405280600681526020017f4e6f726d616c000000000000000000000000000000000000000000000000000081525081526020016040518060400160405280600381526020017f6e616e000000000000000000000000000000000000000000000000000000000081525081526020016101cc81526020016000151581526020016040518060c00160405280604163ffffffff168152602001604663ffffffff168152602001603c63ffffffff168152602001604163ffffffff168152602001604163ffffffff168152602001607363ffffffff16815250815250908060018154018082558091505090600182039060005260206000209060070201600090919290919091506000820151816000019080519060200190620099579291906201d9fb565b50602082015181600101556040820151816002019080519060200190620099809291906201d9fb565b5060608201518160030190805190602001906200999f9291906201d9fb565b506080820151816004015560a08201518160050160006101000a81548160ff02191690831515021790555060c08201518160060160008201518160000160006101000a81548163ffffffff021916908363ffffffff16021790555060208201518160000160046101000a81548163ffffffff021916908363ffffffff16021790555060408201518160000160086101000a81548163ffffffff021916908363ffffffff160217905550606082015181600001600c6101000a81548163ffffffff021916908363ffffffff16021790555060808201518160000160106101000a81548163ffffffff021916908363ffffffff16021790555060a08201518160000160146101000a81548163ffffffff021916908363ffffffff160217905550505050505060036040518060e001604052806040518060400160405280600781526020017f5073796475636b000000000000000000000000000000000000000000000000008152508152602001603681526020016040518060400160405280600581526020017f576174657200000000000000000000000000000000000000000000000000000081525081526020016040518060400160405280600381526020017f6e616e0000000000000000000000000000000000000000000000000000000000815250815260200161024481526020016000151581526020016040518060c00160405280603263ffffffff168152602001603463ffffffff168152602001603063ffffffff168152602001604163ffffffff168152602001603263ffffffff168152602001603763ffffffff1681525081525090806001815401808255809150509060018203906000526020600020906007020160009091929091909150600082015181600001908051906020019062009c3b9291906201d9fb565b5060208201518160010155604082015181600201908051906020019062009c649291906201d9fb565b50606082015181600301908051906020019062009c839291906201d9fb565b506080820151816004015560a08201518160050160006101000a81548160ff02191690831515021790555060c08201518160060160008201518160000160006101000a81548163ffffffff021916908363ffffffff16021790555060208201518160000160046101000a81548163ffffffff021916908363ffffffff16021790555060408201518160000160086101000a81548163ffffffff021916908363ffffffff160217905550606082015181600001600c6101000a81548163ffffffff021916908363ffffffff16021790555060808201518160000160106101000a81548163ffffffff021916908363ffffffff16021790555060a08201518160000160146101000a81548163ffffffff021916908363ffffffff160217905550505050505060036040518060e001604052806040518060400160405280600781526020017f476f6c6475636b000000000000000000000000000000000000000000000000008152508152602001603781526020016040518060400160405280600581526020017f576174657200000000000000000000000000000000000000000000000000000081525081526020016040518060400160405280600381526020017f6e616e0000000000000000000000000000000000000000000000000000000000815250815260200161019081526020016000151581526020016040518060c00160405280605063ffffffff168152602001605263ffffffff168152602001604e63ffffffff168152602001605f63ffffffff168152602001605063ffffffff168152602001605563ffffffff1681525081525090806001815401808255809150509060018203906000526020600020906007020160009091929091909150600082015181600001908051906020019062009f1f9291906201d9fb565b5060208201518160010155604082015181600201908051906020019062009f489291906201d9fb565b50606082015181600301908051906020019062009f679291906201d9fb565b506080820151816004015560a08201518160050160006101000a81548160ff02191690831515021790555060c08201518160060160008201518160000160006101000a81548163ffffffff021916908363ffffffff16021790555060208201518160000160046101000a81548163ffffffff021916908363ffffffff16021790555060408201518160000160086101000a81548163ffffffff021916908363ffffffff160217905550606082015181600001600c6101000a81548163ffffffff021916908363ffffffff16021790555060808201518160000160106101000a81548163ffffffff021916908363ffffffff16021790555060a08201518160000160146101000a81548163ffffffff021916908363ffffffff160217905550505050505060036040518060e001604052806040518060400160405280600681526020017f4d616e6b657900000000000000000000000000000000000000000000000000008152508152602001603881526020016040518060400160405280600881526020017f4669676874696e6700000000000000000000000000000000000000000000000081525081526020016040518060400160405280600381526020017f6e616e0000000000000000000000000000000000000000000000000000000000815250815260200161025381526020016000151581526020016040518060c00160405280602863ffffffff168152602001605063ffffffff168152602001602363ffffffff168152602001602363ffffffff168152602001602d63ffffffff168152602001604663ffffffff168152508152509080600181540180825580915050906001820390600052602060002090600702016000909192909190915060008201518160000190805190602001906200a2039291906201d9fb565b506020820151816001015560408201518160020190805190602001906200a22c9291906201d9fb565b5060608201518160030190805190602001906200a24b9291906201d9fb565b506080820151816004015560a08201518160050160006101000a81548160ff02191690831515021790555060c08201518160060160008201518160000160006101000a81548163ffffffff021916908363ffffffff16021790555060208201518160000160046101000a81548163ffffffff021916908363ffffffff16021790555060408201518160000160086101000a81548163ffffffff021916908363ffffffff160217905550606082015181600001600c6101000a81548163ffffffff021916908363ffffffff16021790555060808201518160000160106101000a81548163ffffffff021916908363ffffffff16021790555060a08201518160000160146101000a81548163ffffffff021916908363ffffffff160217905550505050505060036040518060e001604052806040518060400160405280600881526020017f5072696d656170650000000000000000000000000000000000000000000000008152508152602001603981526020016040518060400160405280600881526020017f4669676874696e6700000000000000000000000000000000000000000000000081525081526020016040518060400160405280600381526020017f6e616e000000000000000000000000000000000000000000000000000000000081525081526020016101bd81526020016000151581526020016040518060c00160405280604163ffffffff168152602001606963ffffffff168152602001603c63ffffffff168152602001603c63ffffffff168152602001604663ffffffff168152602001605f63ffffffff168152508152509080600181540180825580915050906001820390600052602060002090600702016000909192909190915060008201518160000190805190602001906200a4e79291906201d9fb565b506020820151816001015560408201518160020190805190602001906200a5109291906201d9fb565b5060608201518160030190805190602001906200a52f9291906201d9fb565b506080820151816004015560a08201518160050160006101000a81548160ff02191690831515021790555060c08201518160060160008201518160000160006101000a81548163ffffffff021916908363ffffffff16021790555060208201518160000160046101000a81548163ffffffff021916908363ffffffff16021790555060408201518160000160086101000a81548163ffffffff021916908363ffffffff160217905550606082015181600001600c6101000a81548163ffffffff021916908363ffffffff16021790555060808201518160000160106101000a81548163ffffffff021916908363ffffffff16021790555060a08201518160000160146101000a81548163ffffffff021916908363ffffffff160217905550505050505060036040518060e001604052806040518060400160405280600981526020017f47726f776c6974686500000000000000000000000000000000000000000000008152508152602001603a81526020016040518060400160405280600481526020017f466972650000000000000000000000000000000000000000000000000000000081525081526020016040518060400160405280600381526020017f6e616e0000000000000000000000000000000000000000000000000000000000815250815260200161022681526020016000151581526020016040518060c00160405280603763ffffffff168152602001604663ffffffff168152602001602d63ffffffff168152602001604663ffffffff168152602001603263ffffffff168152602001603c63ffffffff168152508152509080600181540180825580915050906001820390600052602060002090600702016000909192909190915060008201518160000190805190602001906200a7cb9291906201d9fb565b506020820151816001015560408201518160020190805190602001906200a7f49291906201d9fb565b5060608201518160030190805190602001906200a8139291906201d9fb565b506080820151816004015560a08201518160050160006101000a81548160ff02191690831515021790555060c08201518160060160008201518160000160006101000a81548163ffffffff021916908363ffffffff16021790555060208201518160000160046101000a81548163ffffffff021916908363ffffffff16021790555060408201518160000160086101000a81548163ffffffff021916908363ffffffff160217905550606082015181600001600c6101000a81548163ffffffff021916908363ffffffff16021790555060808201518160000160106101000a81548163ffffffff021916908363ffffffff16021790555060a08201518160000160146101000a81548163ffffffff021916908363ffffffff160217905550505050505060036040518060e001604052806040518060400160405280600881526020017f417263616e696e650000000000000000000000000000000000000000000000008152508152602001603b81526020016040518060400160405280600481526020017f466972650000000000000000000000000000000000000000000000000000000081525081526020016040518060400160405280600381526020017f6e616e0000000000000000000000000000000000000000000000000000000000815250815260200161015981526020016000151581526020016040518060c00160405280605a63ffffffff168152602001606e63ffffffff168152602001605063ffffffff168152602001606463ffffffff168152602001605063ffffffff168152602001605f63ffffffff168152508152509080600181540180825580915050906001820390600052602060002090600702016000909192909190915060008201518160000190805190602001906200aaaf9291906201d9fb565b506020820151816001015560408201518160020190805190602001906200aad89291906201d9fb565b5060608201518160030190805190602001906200aaf79291906201d9fb565b506080820151816004015560a08201518160050160006101000a81548160ff02191690831515021790555060c08201518160060160008201518160000160006101000a81548163ffffffff021916908363ffffffff16021790555060208201518160000160046101000a81548163ffffffff021916908363ffffffff16021790555060408201518160000160086101000a81548163ffffffff021916908363ffffffff160217905550606082015181600001600c6101000a81548163ffffffff021916908363ffffffff16021790555060808201518160000160106101000a81548163ffffffff021916908363ffffffff16021790555060a08201518160000160146101000a81548163ffffffff021916908363ffffffff160217905550505050505060036040518060e001604052806040518060400160405280600781526020017f506f6c69776167000000000000000000000000000000000000000000000000008152508152602001603c81526020016040518060400160405280600581526020017f576174657200000000000000000000000000000000000000000000000000000081525081526020016040518060400160405280600381526020017f6e616e0000000000000000000000000000000000000000000000000000000000815250815260200161025881526020016000151581526020016040518060c00160405280602863ffffffff168152602001603263ffffffff168152602001602863ffffffff168152602001602863ffffffff168152602001602863ffffffff168152602001605a63ffffffff168152508152509080600181540180825580915050906001820390600052602060002090600702016000909192909190915060008201518160000190805190602001906200ad939291906201d9fb565b506020820151816001015560408201518160020190805190602001906200adbc9291906201d9fb565b5060608201518160030190805190602001906200addb9291906201d9fb565b506080820151816004015560a08201518160050160006101000a81548160ff02191690831515021790555060c08201518160060160008201518160000160006101000a81548163ffffffff021916908363ffffffff16021790555060208201518160000160046101000a81548163ffffffff021916908363ffffffff16021790555060408201518160000160086101000a81548163ffffffff021916908363ffffffff160217905550606082015181600001600c6101000a81548163ffffffff021916908363ffffffff16021790555060808201518160000160106101000a81548163ffffffff021916908363ffffffff16021790555060a08201518160000160146101000a81548163ffffffff021916908363ffffffff160217905550505050505060036040518060e001604052806040518060400160405280600981526020017f506f6c69776869726c00000000000000000000000000000000000000000000008152508152602001603d81526020016040518060400160405280600581526020017f576174657200000000000000000000000000000000000000000000000000000081525081526020016040518060400160405280600381526020017f6e616e0000000000000000000000000000000000000000000000000000000000815250815260200161020381526020016000151581526020016040518060c00160405280604163ffffffff168152602001604163ffffffff168152602001604163ffffffff168152602001603263ffffffff168152602001603263ffffffff168152602001605a63ffffffff168152508152509080600181540180825580915050906001820390600052602060002090600702016000909192909190915060008201518160000190805190602001906200b0779291906201d9fb565b506020820151816001015560408201518160020190805190602001906200b0a09291906201d9fb565b5060608201518160030190805190602001906200b0bf9291906201d9fb565b506080820151816004015560a08201518160050160006101000a81548160ff02191690831515021790555060c08201518160060160008201518160000160006101000a81548163ffffffff021916908363ffffffff16021790555060208201518160000160046101000a81548163ffffffff021916908363ffffffff16021790555060408201518160000160086101000a81548163ffffffff021916908363ffffffff160217905550606082015181600001600c6101000a81548163ffffffff021916908363ffffffff16021790555060808201518160000160106101000a81548163ffffffff021916908363ffffffff16021790555060a08201518160000160146101000a81548163ffffffff021916908363ffffffff160217905550505050505060036040518060e001604052806040518060400160405280600981526020017f506f6c69777261746800000000000000000000000000000000000000000000008152508152602001603e81526020016040518060400160405280600581526020017f576174657200000000000000000000000000000000000000000000000000000081525081526020016040518060400160405280600881526020017f4669676874696e67000000000000000000000000000000000000000000000000815250815260200161018681526020016000151581526020016040518060c00160405280605a63ffffffff168152602001605f63ffffffff168152602001605f63ffffffff168152602001604663ffffffff168152602001605a63ffffffff168152602001604663ffffffff168152508152509080600181540180825580915050906001820390600052602060002090600702016000909192909190915060008201518160000190805190602001906200b35b9291906201d9fb565b506020820151816001015560408201518160020190805190602001906200b3849291906201d9fb565b5060608201518160030190805190602001906200b3a39291906201d9fb565b506080820151816004015560a08201518160050160006101000a81548160ff02191690831515021790555060c08201518160060160008201518160000160006101000a81548163ffffffff021916908363ffffffff16021790555060208201518160000160046101000a81548163ffffffff021916908363ffffffff16021790555060408201518160000160086101000a81548163ffffffff021916908363ffffffff160217905550606082015181600001600c6101000a81548163ffffffff021916908363ffffffff16021790555060808201518160000160106101000a81548163ffffffff021916908363ffffffff16021790555060a08201518160000160146101000a81548163ffffffff021916908363ffffffff160217905550505050505060036040518060e001604052806040518060400160405280600481526020017f41627261000000000000000000000000000000000000000000000000000000008152508152602001603f81526020016040518060400160405280600781526020017f507379636869630000000000000000000000000000000000000000000000000081525081526020016040518060400160405280600381526020017f6e616e0000000000000000000000000000000000000000000000000000000000815250815260200161024e81526020016000151581526020016040518060c00160405280601963ffffffff168152602001601463ffffffff168152602001600f63ffffffff168152602001606963ffffffff168152602001603763ffffffff168152602001605a63ffffffff168152508152509080600181540180825580915050906001820390600052602060002090600702016000909192909190915060008201518160000190805190602001906200b63f9291906201d9fb565b506020820151816001015560408201518160020190805190602001906200b6689291906201d9fb565b5060608201518160030190805190602001906200b6879291906201d9fb565b506080820151816004015560a08201518160050160006101000a81548160ff02191690831515021790555060c08201518160060160008201518160000160006101000a81548163ffffffff021916908363ffffffff16021790555060208201518160000160046101000a81548163ffffffff021916908363ffffffff16021790555060408201518160000160086101000a81548163ffffffff021916908363ffffffff160217905550606082015181600001600c6101000a81548163ffffffff021916908363ffffffff16021790555060808201518160000160106101000a81548163ffffffff021916908363ffffffff16021790555060a08201518160000160146101000a81548163ffffffff021916908363ffffffff160217905550505050505060036040518060e001604052806040518060400160405280600781526020017f4b616461627261000000000000000000000000000000000000000000000000008152508152602001604081526020016040518060400160405280600781526020017f507379636869630000000000000000000000000000000000000000000000000081525081526020016040518060400160405280600381526020017f6e616e000000000000000000000000000000000000000000000000000000000081525081526020016101f481526020016000151581526020016040518060c00160405280602863ffffffff168152602001602363ffffffff168152602001601e63ffffffff168152602001607863ffffffff168152602001604663ffffffff168152602001606963ffffffff168152508152509080600181540180825580915050906001820390600052602060002090600702016000909192909190915060008201518160000190805190602001906200b9239291906201d9fb565b506020820151816001015560408201518160020190805190602001906200b94c9291906201d9fb565b5060608201518160030190805190602001906200b96b9291906201d9fb565b506080820151816004015560a08201518160050160006101000a81548160ff02191690831515021790555060c08201518160060160008201518160000160006101000a81548163ffffffff021916908363ffffffff16021790555060208201518160000160046101000a81548163ffffffff021916908363ffffffff16021790555060408201518160000160086101000a81548163ffffffff021916908363ffffffff160217905550606082015181600001600c6101000a81548163ffffffff021916908363ffffffff16021790555060808201518160000160106101000a81548163ffffffff021916908363ffffffff16021790555060a08201518160000160146101000a81548163ffffffff021916908363ffffffff160217905550505050505060036040518060e001604052806040518060400160405280600881526020017f416c616b617a616d0000000000000000000000000000000000000000000000008152508152602001604181526020016040518060400160405280600781526020017f507379636869630000000000000000000000000000000000000000000000000081525081526020016040518060400160405280600381526020017f6e616e0000000000000000000000000000000000000000000000000000000000815250815260200161019081526020016000151581526020016040518060c00160405280603763ffffffff168152602001603263ffffffff168152602001602d63ffffffff168152602001608763ffffffff168152602001605f63ffffffff168152602001607863ffffffff168152508152509080600181540180825580915050906001820390600052602060002090600702016000909192909190915060008201518160000190805190602001906200bc079291906201d9fb565b506020820151816001015560408201518160020190805190602001906200bc309291906201d9fb565b5060608201518160030190805190602001906200bc4f9291906201d9fb565b506080820151816004015560a08201518160050160006101000a81548160ff02191690831515021790555060c08201518160060160008201518160000160006101000a81548163ffffffff021916908363ffffffff16021790555060208201518160000160046101000a81548163ffffffff021916908363ffffffff16021790555060408201518160000160086101000a81548163ffffffff021916908363ffffffff160217905550606082015181600001600c6101000a81548163ffffffff021916908363ffffffff16021790555060808201518160000160106101000a81548163ffffffff021916908363ffffffff16021790555060a08201518160000160146101000a81548163ffffffff021916908363ffffffff160217905550505050505060036040518060e001604052806040518060400160405280600681526020017f4d6163686f7000000000000000000000000000000000000000000000000000008152508152602001604281526020016040518060400160405280600881526020017f4669676874696e6700000000000000000000000000000000000000000000000081525081526020016040518060400160405280600381526020017f6e616e0000000000000000000000000000000000000000000000000000000000815250815260200161025381526020016000151581526020016040518060c00160405280604663ffffffff168152602001605063ffffffff168152602001603263ffffffff168152602001602363ffffffff168152602001602363ffffffff168152602001602363ffffffff168152508152509080600181540180825580915050906001820390600052602060002090600702016000909192909190915060008201518160000190805190602001906200beeb9291906201d9fb565b506020820151816001015560408201518160020190805190602001906200bf149291906201d9fb565b5060608201518160030190805190602001906200bf339291906201d9fb565b506080820151816004015560a08201518160050160006101000a81548160ff02191690831515021790555060c08201518160060160008201518160000160006101000a81548163ffffffff021916908363ffffffff16021790555060208201518160000160046101000a81548163ffffffff021916908363ffffffff16021790555060408201518160000160086101000a81548163ffffffff021916908363ffffffff160217905550606082015181600001600c6101000a81548163ffffffff021916908363ffffffff16021790555060808201518160000160106101000a81548163ffffffff021916908363ffffffff16021790555060a08201518160000160146101000a81548163ffffffff021916908363ffffffff160217905550505050505060036040518060e001604052806040518060400160405280600781526020017f4d6163686f6b65000000000000000000000000000000000000000000000000008152508152602001604381526020016040518060400160405280600881526020017f4669676874696e6700000000000000000000000000000000000000000000000081525081526020016040518060400160405280600381526020017f6e616e000000000000000000000000000000000000000000000000000000000081525081526020016101ef81526020016000151581526020016040518060c00160405280605063ffffffff168152602001606463ffffffff168152602001604663ffffffff168152602001603263ffffffff168152602001603c63ffffffff168152602001602d63ffffffff168152508152509080600181540180825580915050906001820390600052602060002090600702016000909192909190915060008201518160000190805190602001906200c1cf9291906201d9fb565b506020820151816001015560408201518160020190805190602001906200c1f89291906201d9fb565b5060608201518160030190805190602001906200c2179291906201d9fb565b506080820151816004015560a08201518160050160006101000a81548160ff02191690831515021790555060c08201518160060160008201518160000160006101000a81548163ffffffff021916908363ffffffff16021790555060208201518160000160046101000a81548163ffffffff021916908363ffffffff16021790555060408201518160000160086101000a81548163ffffffff021916908363ffffffff160217905550606082015181600001600c6101000a81548163ffffffff021916908363ffffffff16021790555060808201518160000160106101000a81548163ffffffff021916908363ffffffff16021790555060a08201518160000160146101000a81548163ffffffff021916908363ffffffff160217905550505050505060036040518060e001604052806040518060400160405280600781526020017f4d616368616d70000000000000000000000000000000000000000000000000008152508152602001604481526020016040518060400160405280600881526020017f4669676874696e6700000000000000000000000000000000000000000000000081525081526020016040518060400160405280600381526020017f6e616e0000000000000000000000000000000000000000000000000000000000815250815260200161018b81526020016000151581526020016040518060c00160405280605a63ffffffff168152602001608263ffffffff168152602001605063ffffffff168152602001604163ffffffff168152602001605563ffffffff168152602001603763ffffffff168152508152509080600181540180825580915050906001820390600052602060002090600702016000909192909190915060008201518160000190805190602001906200c4b39291906201d9fb565b506020820151816001015560408201518160020190805190602001906200c4dc9291906201d9fb565b5060608201518160030190805190602001906200c4fb9291906201d9fb565b506080820151816004015560a08201518160050160006101000a81548160ff02191690831515021790555060c08201518160060160008201518160000160006101000a81548163ffffffff021916908363ffffffff16021790555060208201518160000160046101000a81548163ffffffff021916908363ffffffff16021790555060408201518160000160086101000a81548163ffffffff021916908363ffffffff160217905550606082015181600001600c6101000a81548163ffffffff021916908363ffffffff16021790555060808201518160000160106101000a81548163ffffffff021916908363ffffffff16021790555060a08201518160000160146101000a81548163ffffffff021916908363ffffffff160217905550505050505060036040518060e001604052806040518060400160405280600a81526020017f42656c6c7370726f7574000000000000000000000000000000000000000000008152508152602001604581526020016040518060400160405280600581526020017f477261737300000000000000000000000000000000000000000000000000000081525081526020016040518060400160405280600681526020017f506f69736f6e0000000000000000000000000000000000000000000000000000815250815260200161025881526020016000151581526020016040518060c00160405280603263ffffffff168152602001604b63ffffffff168152602001602363ffffffff168152602001604663ffffffff168152602001601e63ffffffff168152602001602863ffffffff168152508152509080600181540180825580915050906001820390600052602060002090600702016000909192909190915060008201518160000190805190602001906200c7979291906201d9fb565b506020820151816001015560408201518160020190805190602001906200c7c09291906201d9fb565b5060608201518160030190805190602001906200c7df9291906201d9fb565b506080820151816004015560a08201518160050160006101000a81548160ff02191690831515021790555060c08201518160060160008201518160000160006101000a81548163ffffffff021916908363ffffffff16021790555060208201518160000160046101000a81548163ffffffff021916908363ffffffff16021790555060408201518160000160086101000a81548163ffffffff021916908363ffffffff160217905550606082015181600001600c6101000a81548163ffffffff021916908363ffffffff16021790555060808201518160000160106101000a81548163ffffffff021916908363ffffffff16021790555060a08201518160000160146101000a81548163ffffffff021916908363ffffffff160217905550505050505060036040518060e001604052806040518060400160405280600a81526020017f57656570696e62656c6c000000000000000000000000000000000000000000008152508152602001604681526020016040518060400160405280600581526020017f477261737300000000000000000000000000000000000000000000000000000081525081526020016040518060400160405280600681526020017f506f69736f6e000000000000000000000000000000000000000000000000000081525081526020016101fe81526020016000151581526020016040518060c00160405280604163ffffffff168152602001605a63ffffffff168152602001603263ffffffff168152602001605563ffffffff168152602001602d63ffffffff168152602001603763ffffffff168152508152509080600181540180825580915050906001820390600052602060002090600702016000909192909190915060008201518160000190805190602001906200ca7b9291906201d9fb565b506020820151816001015560408201518160020190805190602001906200caa49291906201d9fb565b5060608201518160030190805190602001906200cac39291906201d9fb565b506080820151816004015560a08201518160050160006101000a81548160ff02191690831515021790555060c08201518160060160008201518160000160006101000a81548163ffffffff021916908363ffffffff16021790555060208201518160000160046101000a81548163ffffffff021916908363ffffffff16021790555060408201518160000160086101000a81548163ffffffff021916908363ffffffff160217905550606082015181600001600c6101000a81548163ffffffff021916908363ffffffff16021790555060808201518160000160106101000a81548163ffffffff021916908363ffffffff16021790555060a08201518160000160146101000a81548163ffffffff021916908363ffffffff160217905550505050505060036040518060e001604052806040518060400160405280600a81526020017f5669637472656562656c000000000000000000000000000000000000000000008152508152602001604781526020016040518060400160405280600581526020017f477261737300000000000000000000000000000000000000000000000000000081525081526020016040518060400160405280600681526020017f506f69736f6e0000000000000000000000000000000000000000000000000000815250815260200161019a81526020016000151581526020016040518060c00160405280605063ffffffff168152602001606963ffffffff168152602001604163ffffffff168152602001606463ffffffff168152602001604663ffffffff168152602001604663ffffffff168152508152509080600181540180825580915050906001820390600052602060002090600702016000909192909190915060008201518160000190805190602001906200cd5f9291906201d9fb565b506020820151816001015560408201518160020190805190602001906200cd889291906201d9fb565b5060608201518160030190805190602001906200cda79291906201d9fb565b506080820151816004015560a08201518160050160006101000a81548160ff02191690831515021790555060c08201518160060160008201518160000160006101000a81548163ffffffff021916908363ffffffff16021790555060208201518160000160046101000a81548163ffffffff021916908363ffffffff16021790555060408201518160000160086101000a81548163ffffffff021916908363ffffffff160217905550606082015181600001600c6101000a81548163ffffffff021916908363ffffffff16021790555060808201518160000160106101000a81548163ffffffff021916908363ffffffff16021790555060a08201518160000160146101000a81548163ffffffff021916908363ffffffff160217905550505050505060036040518060e001604052806040518060400160405280600981526020017f54656e7461636f6f6c00000000000000000000000000000000000000000000008152508152602001604881526020016040518060400160405280600581526020017f576174657200000000000000000000000000000000000000000000000000000081525081526020016040518060400160405280600681526020017f506f69736f6e0000000000000000000000000000000000000000000000000000815250815260200161023581526020016000151581526020016040518060c00160405280602863ffffffff168152602001602863ffffffff168152602001602363ffffffff168152602001603263ffffffff168152602001606463ffffffff168152602001604663ffffffff168152508152509080600181540180825580915050906001820390600052602060002090600702016000909192909190915060008201518160000190805190602001906200d0439291906201d9fb565b506020820151816001015560408201518160020190805190602001906200d06c9291906201d9fb565b5060608201518160030190805190602001906200d08b9291906201d9fb565b506080820151816004015560a08201518160050160006101000a81548160ff02191690831515021790555060c08201518160060160008201518160000160006101000a81548163ffffffff021916908363ffffffff16021790555060208201518160000160046101000a81548163ffffffff021916908363ffffffff16021790555060408201518160000160086101000a81548163ffffffff021916908363ffffffff160217905550606082015181600001600c6101000a81548163ffffffff021916908363ffffffff16021790555060808201518160000160106101000a81548163ffffffff021916908363ffffffff16021790555060a08201518160000160146101000a81548163ffffffff021916908363ffffffff160217905550505050505060036040518060e001604052806040518060400160405280600a81526020017f54656e7461637275656c000000000000000000000000000000000000000000008152508152602001604981526020016040518060400160405280600581526020017f576174657200000000000000000000000000000000000000000000000000000081525081526020016040518060400160405280600681526020017f506f69736f6e0000000000000000000000000000000000000000000000000000815250815260200161018181526020016000151581526020016040518060c00160405280605063ffffffff168152602001604663ffffffff168152602001604163ffffffff168152602001605063ffffffff168152602001607863ffffffff168152602001606463ffffffff168152508152509080600181540180825580915050906001820390600052602060002090600702016000909192909190915060008201518160000190805190602001906200d3279291906201d9fb565b506020820151816001015560408201518160020190805190602001906200d3509291906201d9fb565b5060608201518160030190805190602001906200d36f9291906201d9fb565b506080820151816004015560a08201518160050160006101000a81548160ff02191690831515021790555060c08201518160060160008201518160000160006101000a81548163ffffffff021916908363ffffffff16021790555060208201518160000160046101000a81548163ffffffff021916908363ffffffff16021790555060408201518160000160086101000a81548163ffffffff021916908363ffffffff160217905550606082015181600001600c6101000a81548163ffffffff021916908363ffffffff16021790555060808201518160000160106101000a81548163ffffffff021916908363ffffffff16021790555060a08201518160000160146101000a81548163ffffffff021916908363ffffffff160217905550505050505060036040518060e001604052806040518060400160405280600781526020017f47656f64756465000000000000000000000000000000000000000000000000008152508152602001604a81526020016040518060400160405280600481526020017f526f636b0000000000000000000000000000000000000000000000000000000081525081526020016040518060400160405280600681526020017f47726f756e640000000000000000000000000000000000000000000000000000815250815260200161025881526020016000151581526020016040518060c00160405280602863ffffffff168152602001605063ffffffff168152602001606463ffffffff168152602001601e63ffffffff168152602001601e63ffffffff168152602001601463ffffffff168152508152509080600181540180825580915050906001820390600052602060002090600702016000909192909190915060008201518160000190805190602001906200d60b9291906201d9fb565b506020820151816001015560408201518160020190805190602001906200d6349291906201d9fb565b5060608201518160030190805190602001906200d6539291906201d9fb565b506080820151816004015560a08201518160050160006101000a81548160ff02191690831515021790555060c08201518160060160008201518160000160006101000a81548163ffffffff021916908363ffffffff16021790555060208201518160000160046101000a81548163ffffffff021916908363ffffffff16021790555060408201518160000160086101000a81548163ffffffff021916908363ffffffff160217905550606082015181600001600c6101000a81548163ffffffff021916908363ffffffff16021790555060808201518160000160106101000a81548163ffffffff021916908363ffffffff16021790555060a08201518160000160146101000a81548163ffffffff021916908363ffffffff160217905550505050505060036040518060e001604052806040518060400160405280600881526020017f47726176656c65720000000000000000000000000000000000000000000000008152508152602001604b81526020016040518060400160405280600481526020017f526f636b0000000000000000000000000000000000000000000000000000000081525081526020016040518060400160405280600681526020017f47726f756e64000000000000000000000000000000000000000000000000000081525081526020016101fe81526020016000151581526020016040518060c00160405280603763ffffffff168152602001605f63ffffffff168152602001607363ffffffff168152602001602d63ffffffff168152602001602d63ffffffff168152602001602363ffffffff168152508152509080600181540180825580915050906001820390600052602060002090600702016000909192909190915060008201518160000190805190602001906200d8ef9291906201d9fb565b506020820151816001015560408201518160020190805190602001906200d9189291906201d9fb565b5060608201518160030190805190602001906200d9379291906201d9fb565b506080820151816004015560a08201518160050160006101000a81548160ff02191690831515021790555060c08201518160060160008201518160000160006101000a81548163ffffffff021916908363ffffffff16021790555060208201518160000160046101000a81548163ffffffff021916908363ffffffff16021790555060408201518160000160086101000a81548163ffffffff021916908363ffffffff160217905550606082015181600001600c6101000a81548163ffffffff021916908363ffffffff16021790555060808201518160000160106101000a81548163ffffffff021916908363ffffffff16021790555060a08201518160000160146101000a81548163ffffffff021916908363ffffffff160217905550505050505060036040518060e001604052806040518060400160405280600581526020017f476f6c656d0000000000000000000000000000000000000000000000000000008152508152602001604c81526020016040518060400160405280600481526020017f526f636b0000000000000000000000000000000000000000000000000000000081525081526020016040518060400160405280600681526020017f47726f756e640000000000000000000000000000000000000000000000000000815250815260200161019581526020016000151581526020016040518060c00160405280605063ffffffff168152602001607863ffffffff168152602001608263ffffffff168152602001603763ffffffff168152602001604163ffffffff168152602001602d63ffffffff168152508152509080600181540180825580915050906001820390600052602060002090600702016000909192909190915060008201518160000190805190602001906200dbd39291906201d9fb565b506020820151816001015560408201518160020190805190602001906200dbfc9291906201d9fb565b5060608201518160030190805190602001906200dc1b9291906201d9fb565b506080820151816004015560a08201518160050160006101000a81548160ff02191690831515021790555060c08201518160060160008201518160000160006101000a81548163ffffffff021916908363ffffffff16021790555060208201518160000160046101000a81548163ffffffff021916908363ffffffff16021790555060408201518160000160086101000a81548163ffffffff021916908363ffffffff160217905550606082015181600001600c6101000a81548163ffffffff021916908363ffffffff16021790555060808201518160000160106101000a81548163ffffffff021916908363ffffffff16021790555060a08201518160000160146101000a81548163ffffffff021916908363ffffffff160217905550505050505060036040518060e001604052806040518060400160405280600681526020017f506f6e79746100000000000000000000000000000000000000000000000000008152508152602001604d81526020016040518060400160405280600481526020017f466972650000000000000000000000000000000000000000000000000000000081525081526020016040518060400160405280600381526020017f6e616e000000000000000000000000000000000000000000000000000000000081525081526020016101ea81526020016000151581526020016040518060c00160405280603263ffffffff168152602001605563ffffffff168152602001603763ffffffff168152602001604163ffffffff168152602001604163ffffffff168152602001605a63ffffffff168152508152509080600181540180825580915050906001820390600052602060002090600702016000909192909190915060008201518160000190805190602001906200deb79291906201d9fb565b506020820151816001015560408201518160020190805190602001906200dee09291906201d9fb565b5060608201518160030190805190602001906200deff9291906201d9fb565b506080820151816004015560a08201518160050160006101000a81548160ff02191690831515021790555060c08201518160060160008201518160000160006101000a81548163ffffffff021916908363ffffffff16021790555060208201518160000160046101000a81548163ffffffff021916908363ffffffff16021790555060408201518160000160086101000a81548163ffffffff021916908363ffffffff160217905550606082015181600001600c6101000a81548163ffffffff021916908363ffffffff16021790555060808201518160000160106101000a81548163ffffffff021916908363ffffffff16021790555060a08201518160000160146101000a81548163ffffffff021916908363ffffffff160217905550505050505060036040518060e001604052806040518060400160405280600881526020017f52617069646173680000000000000000000000000000000000000000000000008152508152602001604e81526020016040518060400160405280600481526020017f466972650000000000000000000000000000000000000000000000000000000081525081526020016040518060400160405280600381526020017f6e616e0000000000000000000000000000000000000000000000000000000000815250815260200161019081526020016000151581526020016040518060c00160405280604163ffffffff168152602001606463ffffffff168152602001604663ffffffff168152602001605063ffffffff168152602001605063ffffffff168152602001606963ffffffff168152508152509080600181540180825580915050906001820390600052602060002090600702016000909192909190915060008201518160000190805190602001906200e19b9291906201d9fb565b506020820151816001015560408201518160020190805190602001906200e1c49291906201d9fb565b5060608201518160030190805190602001906200e1e39291906201d9fb565b506080820151816004015560a08201518160050160006101000a81548160ff02191690831515021790555060c08201518160060160008201518160000160006101000a81548163ffffffff021916908363ffffffff16021790555060208201518160000160046101000a81548163ffffffff021916908363ffffffff16021790555060408201518160000160086101000a81548163ffffffff021916908363ffffffff160217905550606082015181600001600c6101000a81548163ffffffff021916908363ffffffff16021790555060808201518160000160106101000a81548163ffffffff021916908363ffffffff16021790555060a08201518160000160146101000a81548163ffffffff021916908363ffffffff160217905550505050505060036040518060e001604052806040518060400160405280600881526020017f536c6f77706f6b650000000000000000000000000000000000000000000000008152508152602001604f81526020016040518060400160405280600581526020017f576174657200000000000000000000000000000000000000000000000000000081525081526020016040518060400160405280600781526020017f5073796368696300000000000000000000000000000000000000000000000000815250815260200161024981526020016000151581526020016040518060c00160405280605a63ffffffff168152602001604163ffffffff168152602001604163ffffffff168152602001602863ffffffff168152602001602863ffffffff168152602001600f63ffffffff168152508152509080600181540180825580915050906001820390600052602060002090600702016000909192909190915060008201518160000190805190602001906200e47f9291906201d9fb565b506020820151816001015560408201518160020190805190602001906200e4a89291906201d9fb565b5060608201518160030190805190602001906200e4c79291906201d9fb565b506080820151816004015560a08201518160050160006101000a81548160ff02191690831515021790555060c08201518160060160008201518160000160006101000a81548163ffffffff021916908363ffffffff16021790555060208201518160000160046101000a81548163ffffffff021916908363ffffffff16021790555060408201518160000160086101000a81548163ffffffff021916908363ffffffff160217905550606082015181600001600c6101000a81548163ffffffff021916908363ffffffff16021790555060808201518160000160106101000a81548163ffffffff021916908363ffffffff16021790555060a08201518160000160146101000a81548163ffffffff021916908363ffffffff160217905550505050505060036040518060e001604052806040518060400160405280600781526020017f536c6f7762726f000000000000000000000000000000000000000000000000008152508152602001605081526020016040518060400160405280600581526020017f576174657200000000000000000000000000000000000000000000000000000081525081526020016040518060400160405280600781526020017f5073796368696300000000000000000000000000000000000000000000000000815250815260200161019a81526020016000151581526020016040518060c00160405280605f63ffffffff168152602001604b63ffffffff168152602001606e63ffffffff168152602001606463ffffffff168152602001605063ffffffff168152602001601e63ffffffff168152508152509080600181540180825580915050906001820390600052602060002090600702016000909192909190915060008201518160000190805190602001906200e7639291906201d9fb565b506020820151816001015560408201518160020190805190602001906200e78c9291906201d9fb565b5060608201518160030190805190602001906200e7ab9291906201d9fb565b506080820151816004015560a08201518160050160006101000a81548160ff02191690831515021790555060c08201518160060160008201518160000160006101000a81548163ffffffff021916908363ffffffff16021790555060208201518160000160046101000a81548163ffffffff021916908363ffffffff16021790555060408201518160000160086101000a81548163ffffffff021916908363ffffffff160217905550606082015181600001600c6101000a81548163ffffffff021916908363ffffffff16021790555060808201518160000160106101000a81548163ffffffff021916908363ffffffff16021790555060a08201518160000160146101000a81548163ffffffff021916908363ffffffff160217905550505050505060036040518060e001604052806040518060400160405280600981526020017f4d61676e656d69746500000000000000000000000000000000000000000000008152508152602001605181526020016040518060400160405280600881526020017f456c65637472696300000000000000000000000000000000000000000000000081525081526020016040518060400160405280600581526020017f537465656c000000000000000000000000000000000000000000000000000000815250815260200161023f81526020016000151581526020016040518060c00160405280601963ffffffff168152602001602363ffffffff168152602001604663ffffffff168152602001605f63ffffffff168152602001603763ffffffff168152602001602d63ffffffff168152508152509080600181540180825580915050906001820390600052602060002090600702016000909192909190915060008201518160000190805190602001906200ea479291906201d9fb565b506020820151816001015560408201518160020190805190602001906200ea709291906201d9fb565b5060608201518160030190805190602001906200ea8f9291906201d9fb565b506080820151816004015560a08201518160050160006101000a81548160ff02191690831515021790555060c08201518160060160008201518160000160006101000a81548163ffffffff021916908363ffffffff16021790555060208201518160000160046101000a81548163ffffffff021916908363ffffffff16021790555060408201518160000160086101000a81548163ffffffff021916908363ffffffff160217905550606082015181600001600c6101000a81548163ffffffff021916908363ffffffff16021790555060808201518160000160106101000a81548163ffffffff021916908363ffffffff16021790555060a08201518160000160146101000a81548163ffffffff021916908363ffffffff160217905550505050505060036040518060e001604052806040518060400160405280600881526020017f4d61676e65746f6e0000000000000000000000000000000000000000000000008152508152602001605281526020016040518060400160405280600881526020017f456c65637472696300000000000000000000000000000000000000000000000081525081526020016040518060400160405280600581526020017f537465656c00000000000000000000000000000000000000000000000000000081525081526020016101b381526020016000151581526020016040518060c00160405280603263ffffffff168152602001603c63ffffffff168152602001605f63ffffffff168152602001607863ffffffff168152602001604663ffffffff168152602001604663ffffffff168152508152509080600181540180825580915050906001820390600052602060002090600702016000909192909190915060008201518160000190805190602001906200ed2b9291906201d9fb565b506020820151816001015560408201518160020190805190602001906200ed549291906201d9fb565b5060608201518160030190805190602001906200ed739291906201d9fb565b506080820151816004015560a08201518160050160006101000a81548160ff02191690831515021790555060c08201518160060160008201518160000160006101000a81548163ffffffff021916908363ffffffff16021790555060208201518160000160046101000a81548163ffffffff021916908363ffffffff16021790555060408201518160000160086101000a81548163ffffffff021916908363ffffffff160217905550606082015181600001600c6101000a81548163ffffffff021916908363ffffffff16021790555060808201518160000160106101000a81548163ffffffff021916908363ffffffff16021790555060a08201518160000160146101000a81548163ffffffff021916908363ffffffff160217905550505050505060036040518060e001604052806040518060400160405280600a81526020017f46617266657463682764000000000000000000000000000000000000000000008152508152602001605381526020016040518060400160405280600681526020017f4e6f726d616c000000000000000000000000000000000000000000000000000081525081526020016040518060400160405280600681526020017f466c79696e670000000000000000000000000000000000000000000000000000815250815260200161022481526020016000151581526020016040518060c00160405280603463ffffffff168152602001604163ffffffff168152602001603763ffffffff168152602001603a63ffffffff168152602001603e63ffffffff168152602001603c63ffffffff168152508152509080600181540180825580915050906001820390600052602060002090600702016000909192909190915060008201518160000190805190602001906200f00f9291906201d9fb565b506020820151816001015560408201518160020190805190602001906200f0389291906201d9fb565b5060608201518160030190805190602001906200f0579291906201d9fb565b506080820151816004015560a08201518160050160006101000a81548160ff02191690831515021790555060c08201518160060160008201518160000160006101000a81548163ffffffff021916908363ffffffff16021790555060208201518160000160046101000a81548163ffffffff021916908363ffffffff16021790555060408201518160000160086101000a81548163ffffffff021916908363ffffffff160217905550606082015181600001600c6101000a81548163ffffffff021916908363ffffffff16021790555060808201518160000160106101000a81548163ffffffff021916908363ffffffff16021790555060a08201518160000160146101000a81548163ffffffff021916908363ffffffff160217905550505050505060036040518060e001604052806040518060400160405280600581526020017f446f64756f0000000000000000000000000000000000000000000000000000008152508152602001605481526020016040518060400160405280600681526020017f4e6f726d616c000000000000000000000000000000000000000000000000000081525081526020016040518060400160405280600681526020017f466c79696e670000000000000000000000000000000000000000000000000000815250815260200161024e81526020016000151581526020016040518060c00160405280602363ffffffff168152602001605563ffffffff168152602001602d63ffffffff168152602001602363ffffffff168152602001602363ffffffff168152602001604b63ffffffff168152508152509080600181540180825580915050906001820390600052602060002090600702016000909192909190915060008201518160000190805190602001906200f2f39291906201d9fb565b506020820151816001015560408201518160020190805190602001906200f31c9291906201d9fb565b5060608201518160030190805190602001906200f33b9291906201d9fb565b506080820151816004015560a08201518160050160006101000a81548160ff02191690831515021790555060c08201518160060160008201518160000160006101000a81548163ffffffff021916908363ffffffff16021790555060208201518160000160046101000a81548163ffffffff021916908363ffffffff16021790555060408201518160000160086101000a81548163ffffffff021916908363ffffffff160217905550606082015181600001600c6101000a81548163ffffffff021916908363ffffffff16021790555060808201518160000160106101000a81548163ffffffff021916908363ffffffff16021790555060a08201518160000160146101000a81548163ffffffff021916908363ffffffff160217905550505050505060036040518060e001604052806040518060400160405280600681526020017f446f6472696f00000000000000000000000000000000000000000000000000008152508152602001605581526020016040518060400160405280600681526020017f4e6f726d616c000000000000000000000000000000000000000000000000000081525081526020016040518060400160405280600681526020017f466c79696e67000000000000000000000000000000000000000000000000000081525081526020016101b881526020016000151581526020016040518060c00160405280603c63ffffffff168152602001606e63ffffffff168152602001604663ffffffff168152602001603c63ffffffff168152602001603c63ffffffff168152602001606463ffffffff168152508152509080600181540180825580915050906001820390600052602060002090600702016000909192909190915060008201518160000190805190602001906200f5d79291906201d9fb565b506020820151816001015560408201518160020190805190602001906200f6009291906201d9fb565b5060608201518160030190805190602001906200f61f9291906201d9fb565b506080820151816004015560a08201518160050160006101000a81548160ff02191690831515021790555060c08201518160060160008201518160000160006101000a81548163ffffffff021916908363ffffffff16021790555060208201518160000160046101000a81548163ffffffff021916908363ffffffff16021790555060408201518160000160086101000a81548163ffffffff021916908363ffffffff160217905550606082015181600001600c6101000a81548163ffffffff021916908363ffffffff16021790555060808201518160000160106101000a81548163ffffffff021916908363ffffffff16021790555060a08201518160000160146101000a81548163ffffffff021916908363ffffffff160217905550505050505060036040518060e001604052806040518060400160405280600481526020017f5365656c000000000000000000000000000000000000000000000000000000008152508152602001605681526020016040518060400160405280600581526020017f576174657200000000000000000000000000000000000000000000000000000081525081526020016040518060400160405280600381526020017f6e616e0000000000000000000000000000000000000000000000000000000000815250815260200161023f81526020016000151581526020016040518060c00160405280604163ffffffff168152602001602d63ffffffff168152602001603763ffffffff168152602001602d63ffffffff168152602001604663ffffffff168152602001602d63ffffffff168152508152509080600181540180825580915050906001820390600052602060002090600702016000909192909190915060008201518160000190805190602001906200f8bb9291906201d9fb565b506020820151816001015560408201518160020190805190602001906200f8e49291906201d9fb565b5060608201518160030190805190602001906200f9039291906201d9fb565b506080820151816004015560a08201518160050160006101000a81548160ff02191690831515021790555060c08201518160060160008201518160000160006101000a81548163ffffffff021916908363ffffffff16021790555060208201518160000160046101000a81548163ffffffff021916908363ffffffff16021790555060408201518160000160086101000a81548163ffffffff021916908363ffffffff160217905550606082015181600001600c6101000a81548163ffffffff021916908363ffffffff16021790555060808201518160000160106101000a81548163ffffffff021916908363ffffffff16021790555060a08201518160000160146101000a81548163ffffffff021916908363ffffffff160217905550505050505060036040518060e001604052806040518060400160405280600781526020017f446577676f6e67000000000000000000000000000000000000000000000000008152508152602001605781526020016040518060400160405280600581526020017f576174657200000000000000000000000000000000000000000000000000000081525081526020016040518060400160405280600381526020017f496365000000000000000000000000000000000000000000000000000000000081525081526020016101a981526020016000151581526020016040518060c00160405280605a63ffffffff168152602001604663ffffffff168152602001605063ffffffff168152602001604663ffffffff168152602001605f63ffffffff168152602001604663ffffffff168152508152509080600181540180825580915050906001820390600052602060002090600702016000909192909190915060008201518160000190805190602001906200fb9f9291906201d9fb565b506020820151816001015560408201518160020190805190602001906200fbc89291906201d9fb565b5060608201518160030190805190602001906200fbe79291906201d9fb565b506080820151816004015560a08201518160050160006101000a81548160ff02191690831515021790555060c08201518160060160008201518160000160006101000a81548163ffffffff021916908363ffffffff16021790555060208201518160000160046101000a81548163ffffffff021916908363ffffffff16021790555060408201518160000160086101000a81548163ffffffff021916908363ffffffff160217905550606082015181600001600c6101000a81548163ffffffff021916908363ffffffff16021790555060808201518160000160106101000a81548163ffffffff021916908363ffffffff16021790555060a08201518160000160146101000a81548163ffffffff021916908363ffffffff160217905550505050505060036040518060e001604052806040518060400160405280600681526020017f4772696d657200000000000000000000000000000000000000000000000000008152508152602001605881526020016040518060400160405280600681526020017f506f69736f6e000000000000000000000000000000000000000000000000000081525081526020016040518060400160405280600381526020017f6e616e0000000000000000000000000000000000000000000000000000000000815250815260200161023f81526020016000151581526020016040518060c00160405280605063ffffffff168152602001605063ffffffff168152602001603263ffffffff168152602001602863ffffffff168152602001603263ffffffff168152602001601963ffffffff168152508152509080600181540180825580915050906001820390600052602060002090600702016000909192909190915060008201518160000190805190602001906200fe839291906201d9fb565b506020820151816001015560408201518160020190805190602001906200feac9291906201d9fb565b5060608201518160030190805190602001906200fecb9291906201d9fb565b506080820151816004015560a08201518160050160006101000a81548160ff02191690831515021790555060c08201518160060160008201518160000160006101000a81548163ffffffff021916908363ffffffff16021790555060208201518160000160046101000a81548163ffffffff021916908363ffffffff16021790555060408201518160000160086101000a81548163ffffffff021916908363ffffffff160217905550606082015181600001600c6101000a81548163ffffffff021916908363ffffffff16021790555060808201518160000160106101000a81548163ffffffff021916908363ffffffff16021790555060a08201518160000160146101000a81548163ffffffff021916908363ffffffff160217905550505050505060036040518060e001604052806040518060400160405280600381526020017f4d756b00000000000000000000000000000000000000000000000000000000008152508152602001605981526020016040518060400160405280600681526020017f506f69736f6e000000000000000000000000000000000000000000000000000081525081526020016040518060400160405280600381526020017f6e616e0000000000000000000000000000000000000000000000000000000000815250815260200161019081526020016000151581526020016040518060c00160405280606963ffffffff168152602001606963ffffffff168152602001604b63ffffffff168152602001604163ffffffff168152602001606463ffffffff168152602001603263ffffffff16815250815250908060018154018082558091505090600182039060005260206000209060070201600090919290919091506000820151816000019080519060200190620101679291906201d9fb565b50602082015181600101556040820151816002019080519060200190620101909291906201d9fb565b506060820151816003019080519060200190620101af9291906201d9fb565b506080820151816004015560a08201518160050160006101000a81548160ff02191690831515021790555060c08201518160060160008201518160000160006101000a81548163ffffffff021916908363ffffffff16021790555060208201518160000160046101000a81548163ffffffff021916908363ffffffff16021790555060408201518160000160086101000a81548163ffffffff021916908363ffffffff160217905550606082015181600001600c6101000a81548163ffffffff021916908363ffffffff16021790555060808201518160000160106101000a81548163ffffffff021916908363ffffffff16021790555060a08201518160000160146101000a81548163ffffffff021916908363ffffffff160217905550505050505060036040518060e001604052806040518060400160405280600881526020017f5368656c6c6465720000000000000000000000000000000000000000000000008152508152602001605a81526020016040518060400160405280600581526020017f576174657200000000000000000000000000000000000000000000000000000081525081526020016040518060400160405280600381526020017f6e616e0000000000000000000000000000000000000000000000000000000000815250815260200161025381526020016000151581526020016040518060c00160405280601e63ffffffff168152602001604163ffffffff168152602001606463ffffffff168152602001602d63ffffffff168152602001601963ffffffff168152602001602863ffffffff168152508152509080600181540180825580915050906001820390600052602060002090600702016000909192909190915060008201518160000190805190602001906201044b9291906201d9fb565b50602082015181600101556040820151816002019080519060200190620104749291906201d9fb565b506060820151816003019080519060200190620104939291906201d9fb565b506080820151816004015560a08201518160050160006101000a81548160ff02191690831515021790555060c08201518160060160008201518160000160006101000a81548163ffffffff021916908363ffffffff16021790555060208201518160000160046101000a81548163ffffffff021916908363ffffffff16021790555060408201518160000160086101000a81548163ffffffff021916908363ffffffff160217905550606082015181600001600c6101000a81548163ffffffff021916908363ffffffff16021790555060808201518160000160106101000a81548163ffffffff021916908363ffffffff16021790555060a08201518160000160146101000a81548163ffffffff021916908363ffffffff160217905550505050505060036040518060e001604052806040518060400160405280600881526020017f436c6f79737465720000000000000000000000000000000000000000000000008152508152602001605b81526020016040518060400160405280600581526020017f576174657200000000000000000000000000000000000000000000000000000081525081526020016040518060400160405280600381526020017f4963650000000000000000000000000000000000000000000000000000000000815250815260200161017781526020016000151581526020016040518060c00160405280603263ffffffff168152602001605f63ffffffff16815260200160b463ffffffff168152602001605563ffffffff168152602001602d63ffffffff168152602001604663ffffffff168152508152509080600181540180825580915050906001820390600052602060002090600702016000909192909190915060008201518160000190805190602001906201072f9291906201d9fb565b50602082015181600101556040820151816002019080519060200190620107589291906201d9fb565b506060820151816003019080519060200190620107779291906201d9fb565b506080820151816004015560a08201518160050160006101000a81548160ff02191690831515021790555060c08201518160060160008201518160000160006101000a81548163ffffffff021916908363ffffffff16021790555060208201518160000160046101000a81548163ffffffff021916908363ffffffff16021790555060408201518160000160086101000a81548163ffffffff021916908363ffffffff160217905550606082015181600001600c6101000a81548163ffffffff021916908363ffffffff16021790555060808201518160000160106101000a81548163ffffffff021916908363ffffffff16021790555060a08201518160000160146101000a81548163ffffffff021916908363ffffffff160217905550505050505060036040518060e001604052806040518060400160405280600681526020017f476173746c7900000000000000000000000000000000000000000000000000008152508152602001605c81526020016040518060400160405280600581526020017f47686f737400000000000000000000000000000000000000000000000000000081525081526020016040518060400160405280600681526020017f506f69736f6e0000000000000000000000000000000000000000000000000000815250815260200161024e81526020016000151581526020016040518060c00160405280601e63ffffffff168152602001602363ffffffff168152602001601e63ffffffff168152602001606463ffffffff168152602001602363ffffffff168152602001605063ffffffff1681525081525090806001815401808255809150509060018203906000526020600020906007020160009091929091909150600082015181600001908051906020019062010a139291906201d9fb565b5060208201518160010155604082015181600201908051906020019062010a3c9291906201d9fb565b50606082015181600301908051906020019062010a5b9291906201d9fb565b506080820151816004015560a08201518160050160006101000a81548160ff02191690831515021790555060c08201518160060160008201518160000160006101000a81548163ffffffff021916908363ffffffff16021790555060208201518160000160046101000a81548163ffffffff021916908363ffffffff16021790555060408201518160000160086101000a81548163ffffffff021916908363ffffffff160217905550606082015181600001600c6101000a81548163ffffffff021916908363ffffffff16021790555060808201518160000160106101000a81548163ffffffff021916908363ffffffff16021790555060a08201518160000160146101000a81548163ffffffff021916908363ffffffff160217905550505050505060036040518060e001604052806040518060400160405280600781526020017f4861756e746572000000000000000000000000000000000000000000000000008152508152602001605d81526020016040518060400160405280600581526020017f47686f737400000000000000000000000000000000000000000000000000000081525081526020016040518060400160405280600681526020017f506f69736f6e000000000000000000000000000000000000000000000000000081525081526020016101ef81526020016000151581526020016040518060c00160405280602d63ffffffff168152602001603263ffffffff168152602001602d63ffffffff168152602001607363ffffffff168152602001603763ffffffff168152602001605f63ffffffff1681525081525090806001815401808255809150509060018203906000526020600020906007020160009091929091909150600082015181600001908051906020019062010cf79291906201d9fb565b5060208201518160010155604082015181600201908051906020019062010d209291906201d9fb565b50606082015181600301908051906020019062010d3f9291906201d9fb565b506080820151816004015560a08201518160050160006101000a81548160ff02191690831515021790555060c08201518160060160008201518160000160006101000a81548163ffffffff021916908363ffffffff16021790555060208201518160000160046101000a81548163ffffffff021916908363ffffffff16021790555060408201518160000160086101000a81548163ffffffff021916908363ffffffff160217905550606082015181600001600c6101000a81548163ffffffff021916908363ffffffff16021790555060808201518160000160106101000a81548163ffffffff021916908363ffffffff16021790555060a08201518160000160146101000a81548163ffffffff021916908363ffffffff160217905550505050505060036040518060e001604052806040518060400160405280600681526020017f47656e67617200000000000000000000000000000000000000000000000000008152508152602001605e81526020016040518060400160405280600581526020017f47686f737400000000000000000000000000000000000000000000000000000081525081526020016040518060400160405280600681526020017f506f69736f6e0000000000000000000000000000000000000000000000000000815250815260200161019081526020016000151581526020016040518060c00160405280603c63ffffffff168152602001604163ffffffff168152602001603c63ffffffff168152602001608263ffffffff168152602001604b63ffffffff168152602001606e63ffffffff1681525081525090806001815401808255809150509060018203906000526020600020906007020160009091929091909150600082015181600001908051906020019062010fdb9291906201d9fb565b50602082015181600101556040820151816002019080519060200190620110049291906201d9fb565b506060820151816003019080519060200190620110239291906201d9fb565b506080820151816004015560a08201518160050160006101000a81548160ff02191690831515021790555060c08201518160060160008201518160000160006101000a81548163ffffffff021916908363ffffffff16021790555060208201518160000160046101000a81548163ffffffff021916908363ffffffff16021790555060408201518160000160086101000a81548163ffffffff021916908363ffffffff160217905550606082015181600001600c6101000a81548163ffffffff021916908363ffffffff16021790555060808201518160000160106101000a81548163ffffffff021916908363ffffffff16021790555060a08201518160000160146101000a81548163ffffffff021916908363ffffffff160217905550505050505060036040518060e001604052806040518060400160405280600481526020017f4f6e6978000000000000000000000000000000000000000000000000000000008152508152602001605f81526020016040518060400160405280600481526020017f526f636b0000000000000000000000000000000000000000000000000000000081525081526020016040518060400160405280600681526020017f47726f756e640000000000000000000000000000000000000000000000000000815250815260200161020381526020016000151581526020016040518060c00160405280602363ffffffff168152602001602d63ffffffff16815260200160a063ffffffff168152602001601e63ffffffff168152602001602d63ffffffff168152602001604663ffffffff16815250815250908060018154018082558091505090600182039060005260206000209060070201600090919290919091506000820151816000019080519060200190620112bf9291906201d9fb565b50602082015181600101556040820151816002019080519060200190620112e89291906201d9fb565b506060820151816003019080519060200190620113079291906201d9fb565b506080820151816004015560a08201518160050160006101000a81548160ff02191690831515021790555060c08201518160060160008201518160000160006101000a81548163ffffffff021916908363ffffffff16021790555060208201518160000160046101000a81548163ffffffff021916908363ffffffff16021790555060408201518160000160086101000a81548163ffffffff021916908363ffffffff160217905550606082015181600001600c6101000a81548163ffffffff021916908363ffffffff16021790555060808201518160000160106101000a81548163ffffffff021916908363ffffffff16021790555060a08201518160000160146101000a81548163ffffffff021916908363ffffffff160217905550505050505060036040518060e001604052806040518060400160405280600781526020017f44726f777a6565000000000000000000000000000000000000000000000000008152508152602001606081526020016040518060400160405280600781526020017f507379636869630000000000000000000000000000000000000000000000000081525081526020016040518060400160405280600381526020017f6e616e0000000000000000000000000000000000000000000000000000000000815250815260200161023c81526020016000151581526020016040518060c00160405280603c63ffffffff168152602001603063ffffffff168152602001602d63ffffffff168152602001602b63ffffffff168152602001605a63ffffffff168152602001602a63ffffffff16815250815250908060018154018082558091505090600182039060005260206000209060070201600090919290919091506000820151816000019080519060200190620115a39291906201d9fb565b50602082015181600101556040820151816002019080519060200190620115cc9291906201d9fb565b506060820151816003019080519060200190620115eb9291906201d9fb565b506080820151816004015560a08201518160050160006101000a81548160ff02191690831515021790555060c08201518160060160008201518160000160006101000a81548163ffffffff021916908363ffffffff16021790555060208201518160000160046101000a81548163ffffffff021916908363ffffffff16021790555060408201518160000160086101000a81548163ffffffff021916908363ffffffff160217905550606082015181600001600c6101000a81548163ffffffff021916908363ffffffff16021790555060808201518160000160106101000a81548163ffffffff021916908363ffffffff16021790555060a08201518160000160146101000a81548163ffffffff021916908363ffffffff160217905550505050505060036040518060e001604052806040518060400160405280600581526020017f4879706e6f0000000000000000000000000000000000000000000000000000008152508152602001606181526020016040518060400160405280600781526020017f507379636869630000000000000000000000000000000000000000000000000081525081526020016040518060400160405280600381526020017f6e616e000000000000000000000000000000000000000000000000000000000081525081526020016101a181526020016000151581526020016040518060c00160405280605563ffffffff168152602001604963ffffffff168152602001604663ffffffff168152602001604963ffffffff168152602001607363ffffffff168152602001604363ffffffff16815250815250908060018154018082558091505090600182039060005260206000209060070201600090919290919091506000820151816000019080519060200190620118879291906201d9fb565b50602082015181600101556040820151816002019080519060200190620118b09291906201d9fb565b506060820151816003019080519060200190620118cf9291906201d9fb565b506080820151816004015560a08201518160050160006101000a81548160ff02191690831515021790555060c08201518160060160008201518160000160006101000a81548163ffffffff021916908363ffffffff16021790555060208201518160000160046101000a81548163ffffffff021916908363ffffffff16021790555060408201518160000160086101000a81548163ffffffff021916908363ffffffff160217905550606082015181600001600c6101000a81548163ffffffff021916908363ffffffff16021790555060808201518160000160106101000a81548163ffffffff021916908363ffffffff16021790555060a08201518160000160146101000a81548163ffffffff021916908363ffffffff160217905550505050505060036040518060e001604052806040518060400160405280600681526020017f4b726162627900000000000000000000000000000000000000000000000000008152508152602001606281526020016040518060400160405280600581526020017f576174657200000000000000000000000000000000000000000000000000000081525081526020016040518060400160405280600381526020017f6e616e0000000000000000000000000000000000000000000000000000000000815250815260200161023f81526020016000151581526020016040518060c00160405280601e63ffffffff168152602001606963ffffffff168152602001605a63ffffffff168152602001601963ffffffff168152602001601963ffffffff168152602001603263ffffffff1681525081525090806001815401808255809150509060018203906000526020600020906007020160009091929091909150600082015181600001908051906020019062011b6b9291906201d9fb565b5060208201518160010155604082015181600201908051906020019062011b949291906201d9fb565b50606082015181600301908051906020019062011bb39291906201d9fb565b506080820151816004015560a08201518160050160006101000a81548160ff02191690831515021790555060c08201518160060160008201518160000160006101000a81548163ffffffff021916908363ffffffff16021790555060208201518160000160046101000a81548163ffffffff021916908363ffffffff16021790555060408201518160000160086101000a81548163ffffffff021916908363ffffffff160217905550606082015181600001600c6101000a81548163ffffffff021916908363ffffffff16021790555060808201518160000160106101000a81548163ffffffff021916908363ffffffff16021790555060a08201518160000160146101000a81548163ffffffff021916908363ffffffff160217905550505050505060036040518060e001604052806040518060400160405280600781526020017f4b696e676c6572000000000000000000000000000000000000000000000000008152508152602001606381526020016040518060400160405280600581526020017f576174657200000000000000000000000000000000000000000000000000000081525081526020016040518060400160405280600381526020017f6e616e000000000000000000000000000000000000000000000000000000000081525081526020016101a981526020016000151581526020016040518060c00160405280603763ffffffff168152602001608263ffffffff168152602001607363ffffffff168152602001603263ffffffff168152602001603263ffffffff168152602001604b63ffffffff1681525081525090806001815401808255809150509060018203906000526020600020906007020160009091929091909150600082015181600001908051906020019062011e4f9291906201d9fb565b5060208201518160010155604082015181600201908051906020019062011e789291906201d9fb565b50606082015181600301908051906020019062011e979291906201d9fb565b506080820151816004015560a08201518160050160006101000a81548160ff02191690831515021790555060c08201518160060160008201518160000160006101000a81548163ffffffff021916908363ffffffff16021790555060208201518160000160046101000a81548163ffffffff021916908363ffffffff16021790555060408201518160000160086101000a81548163ffffffff021916908363ffffffff160217905550606082015181600001600c6101000a81548163ffffffff021916908363ffffffff16021790555060808201518160000160106101000a81548163ffffffff021916908363ffffffff16021790555060a08201518160000160146101000a81548163ffffffff021916908363ffffffff160217905550505050505060036040518060e001604052806040518060400160405280600781526020017f566f6c746f7262000000000000000000000000000000000000000000000000008152508152602001606481526020016040518060400160405280600881526020017f456c65637472696300000000000000000000000000000000000000000000000081525081526020016040518060400160405280600381526020017f6e616e0000000000000000000000000000000000000000000000000000000000815250815260200161023a81526020016000151581526020016040518060c00160405280602863ffffffff168152602001601e63ffffffff168152602001603263ffffffff168152602001603763ffffffff168152602001603763ffffffff168152602001606463ffffffff16815250815250908060018154018082558091505090600182039060005260206000209060070201600090919290919091506000820151816000019080519060200190620121339291906201d9fb565b506020820151816001015560408201518160020190805190602001906201215c9291906201d9fb565b5060608201518160030190805190602001906201217b9291906201d9fb565b506080820151816004015560a08201518160050160006101000a81548160ff02191690831515021790555060c08201518160060160008201518160000160006101000a81548163ffffffff021916908363ffffffff16021790555060208201518160000160046101000a81548163ffffffff021916908363ffffffff16021790555060408201518160000160086101000a81548163ffffffff021916908363ffffffff160217905550606082015181600001600c6101000a81548163ffffffff021916908363ffffffff16021790555060808201518160000160106101000a81548163ffffffff021916908363ffffffff16021790555060a08201518160000160146101000a81548163ffffffff021916908363ffffffff160217905550505050505060036040518060e001604052806040518060400160405280600981526020017f456c656374726f646500000000000000000000000000000000000000000000008152508152602001606581526020016040518060400160405280600881526020017f456c65637472696300000000000000000000000000000000000000000000000081525081526020016040518060400160405280600381526020017f6e616e000000000000000000000000000000000000000000000000000000000081525081526020016101a481526020016000151581526020016040518060c00160405280603c63ffffffff168152602001603263ffffffff168152602001604663ffffffff168152602001605063ffffffff168152602001605063ffffffff168152602001608c63ffffffff16815250815250908060018154018082558091505090600182039060005260206000209060070201600090919290919091506000820151816000019080519060200190620124179291906201d9fb565b50602082015181600101556040820151816002019080519060200190620124409291906201d9fb565b5060608201518160030190805190602001906201245f9291906201d9fb565b506080820151816004015560a08201518160050160006101000a81548160ff02191690831515021790555060c08201518160060160008201518160000160006101000a81548163ffffffff021916908363ffffffff16021790555060208201518160000160046101000a81548163ffffffff021916908363ffffffff16021790555060408201518160000160086101000a81548163ffffffff021916908363ffffffff160217905550606082015181600001600c6101000a81548163ffffffff021916908363ffffffff16021790555060808201518160000160106101000a81548163ffffffff021916908363ffffffff16021790555060a08201518160000160146101000a81548163ffffffff021916908363ffffffff160217905550505050505060036040518060e001604052806040518060400160405280600981526020017f45786567676375746500000000000000000000000000000000000000000000008152508152602001606681526020016040518060400160405280600581526020017f477261737300000000000000000000000000000000000000000000000000000081525081526020016040518060400160405280600781526020017f5073796368696300000000000000000000000000000000000000000000000000815250815260200161023f81526020016000151581526020016040518060c00160405280603c63ffffffff168152602001602863ffffffff168152602001605063ffffffff168152602001603c63ffffffff168152602001602d63ffffffff168152602001602863ffffffff16815250815250908060018154018082558091505090600182039060005260206000209060070201600090919290919091506000820151816000019080519060200190620126fb9291906201d9fb565b50602082015181600101556040820151816002019080519060200190620127249291906201d9fb565b506060820151816003019080519060200190620127439291906201d9fb565b506080820151816004015560a08201518160050160006101000a81548160ff02191690831515021790555060c08201518160060160008201518160000160006101000a81548163ffffffff021916908363ffffffff16021790555060208201518160000160046101000a81548163ffffffff021916908363ffffffff16021790555060408201518160000160086101000a81548163ffffffff021916908363ffffffff160217905550606082015181600001600c6101000a81548163ffffffff021916908363ffffffff16021790555060808201518160000160106101000a81548163ffffffff021916908363ffffffff16021790555060a08201518160000160146101000a81548163ffffffff021916908363ffffffff160217905550505050505060036040518060e001604052806040518060400160405280600981526020017f457865676775746f7200000000000000000000000000000000000000000000008152508152602001606781526020016040518060400160405280600581526020017f477261737300000000000000000000000000000000000000000000000000000081525081526020016040518060400160405280600781526020017f5073796368696300000000000000000000000000000000000000000000000000815250815260200161017c81526020016000151581526020016040518060c00160405280605f63ffffffff168152602001605f63ffffffff168152602001605563ffffffff168152602001607d63ffffffff168152602001604163ffffffff168152602001603763ffffffff16815250815250908060018154018082558091505090600182039060005260206000209060070201600090919290919091506000820151816000019080519060200190620129df9291906201d9fb565b5060208201518160010155604082015181600201908051906020019062012a089291906201d9fb565b50606082015181600301908051906020019062012a279291906201d9fb565b506080820151816004015560a08201518160050160006101000a81548160ff02191690831515021790555060c08201518160060160008201518160000160006101000a81548163ffffffff021916908363ffffffff16021790555060208201518160000160046101000a81548163ffffffff021916908363ffffffff16021790555060408201518160000160086101000a81548163ffffffff021916908363ffffffff160217905550606082015181600001600c6101000a81548163ffffffff021916908363ffffffff16021790555060808201518160000160106101000a81548163ffffffff021916908363ffffffff16021790555060a08201518160000160146101000a81548163ffffffff021916908363ffffffff160217905550505050505060036040518060e001604052806040518060400160405280600681526020017f4375626f6e6500000000000000000000000000000000000000000000000000008152508152602001606881526020016040518060400160405280600681526020017f47726f756e64000000000000000000000000000000000000000000000000000081525081526020016040518060400160405280600381526020017f6e616e0000000000000000000000000000000000000000000000000000000000815250815260200161024481526020016000151581526020016040518060c00160405280603263ffffffff168152602001603263ffffffff168152602001605f63ffffffff168152602001602863ffffffff168152602001603263ffffffff168152602001602363ffffffff1681525081525090806001815401808255809150509060018203906000526020600020906007020160009091929091909150600082015181600001908051906020019062012cc39291906201d9fb565b5060208201518160010155604082015181600201908051906020019062012cec9291906201d9fb565b50606082015181600301908051906020019062012d0b9291906201d9fb565b506080820151816004015560a08201518160050160006101000a81548160ff02191690831515021790555060c08201518160060160008201518160000160006101000a81548163ffffffff021916908363ffffffff16021790555060208201518160000160046101000a81548163ffffffff021916908363ffffffff16021790555060408201518160000160086101000a81548163ffffffff021916908363ffffffff160217905550606082015181600001600c6101000a81548163ffffffff021916908363ffffffff16021790555060808201518160000160106101000a81548163ffffffff021916908363ffffffff16021790555060a08201518160000160146101000a81548163ffffffff021916908363ffffffff160217905550505050505060036040518060e001604052806040518060400160405280600781526020017f4d61726f77616b000000000000000000000000000000000000000000000000008152508152602001606981526020016040518060400160405280600681526020017f47726f756e64000000000000000000000000000000000000000000000000000081525081526020016040518060400160405280600381526020017f6e616e000000000000000000000000000000000000000000000000000000000081525081526020016101db81526020016000151581526020016040518060c00160405280603c63ffffffff168152602001605063ffffffff168152602001606e63ffffffff168152602001603263ffffffff168152602001605063ffffffff168152602001602d63ffffffff1681525081525090806001815401808255809150509060018203906000526020600020906007020160009091929091909150600082015181600001908051906020019062012fa79291906201d9fb565b5060208201518160010155604082015181600201908051906020019062012fd09291906201d9fb565b50606082015181600301908051906020019062012fef9291906201d9fb565b506080820151816004015560a08201518160050160006101000a81548160ff02191690831515021790555060c08201518160060160008201518160000160006101000a81548163ffffffff021916908363ffffffff16021790555060208201518160000160046101000a81548163ffffffff021916908363ffffffff16021790555060408201518160000160086101000a81548163ffffffff021916908363ffffffff160217905550606082015181600001600c6101000a81548163ffffffff021916908363ffffffff16021790555060808201518160000160106101000a81548163ffffffff021916908363ffffffff16021790555060a08201518160000160146101000a81548163ffffffff021916908363ffffffff160217905550505050505060036040518060e001604052806040518060400160405280600981526020017f4869746d6f6e6c656500000000000000000000000000000000000000000000008152508152602001606a81526020016040518060400160405280600881526020017f4669676874696e6700000000000000000000000000000000000000000000000081525081526020016040518060400160405280600381526020017f6e616e000000000000000000000000000000000000000000000000000000000081525081526020016101bd81526020016000151581526020016040518060c00160405280603263ffffffff168152602001607863ffffffff168152602001603563ffffffff168152602001602363ffffffff168152602001606e63ffffffff168152602001605763ffffffff168152508152509080600181540180825580915050906001820390600052602060002090600702016000909192909190915060008201518160000190805190602001906201328b9291906201d9fb565b50602082015181600101556040820151816002019080519060200190620132b49291906201d9fb565b506060820151816003019080519060200190620132d39291906201d9fb565b506080820151816004015560a08201518160050160006101000a81548160ff02191690831515021790555060c08201518160060160008201518160000160006101000a81548163ffffffff021916908363ffffffff16021790555060208201518160000160046101000a81548163ffffffff021916908363ffffffff16021790555060408201518160000160086101000a81548163ffffffff021916908363ffffffff160217905550606082015181600001600c6101000a81548163ffffffff021916908363ffffffff16021790555060808201518160000160106101000a81548163ffffffff021916908363ffffffff16021790555060a08201518160000160146101000a81548163ffffffff021916908363ffffffff160217905550505050505060036040518060e001604052806040518060400160405280600a81526020017f4869746d6f6e6368616e000000000000000000000000000000000000000000008152508152602001606b81526020016040518060400160405280600881526020017f4669676874696e6700000000000000000000000000000000000000000000000081525081526020016040518060400160405280600381526020017f6e616e000000000000000000000000000000000000000000000000000000000081525081526020016101bd81526020016000151581526020016040518060c00160405280603263ffffffff168152602001606963ffffffff168152602001604f63ffffffff168152602001602363ffffffff168152602001606e63ffffffff168152602001604c63ffffffff168152508152509080600181540180825580915050906001820390600052602060002090600702016000909192909190915060008201518160000190805190602001906201356f9291906201d9fb565b50602082015181600101556040820151816002019080519060200190620135989291906201d9fb565b506060820151816003019080519060200190620135b79291906201d9fb565b506080820151816004015560a08201518160050160006101000a81548160ff02191690831515021790555060c08201518160060160008201518160000160006101000a81548163ffffffff021916908363ffffffff16021790555060208201518160000160046101000a81548163ffffffff021916908363ffffffff16021790555060408201518160000160086101000a81548163ffffffff021916908363ffffffff160217905550606082015181600001600c6101000a81548163ffffffff021916908363ffffffff16021790555060808201518160000160106101000a81548163ffffffff021916908363ffffffff16021790555060a08201518160000160146101000a81548163ffffffff021916908363ffffffff160217905550505050505060036040518060e001604052806040518060400160405280600981526020017f4c69636b6974756e6700000000000000000000000000000000000000000000008152508152602001606c81526020016040518060400160405280600681526020017f4e6f726d616c000000000000000000000000000000000000000000000000000081525081526020016040518060400160405280600381526020017f6e616e0000000000000000000000000000000000000000000000000000000000815250815260200161020381526020016000151581526020016040518060c00160405280605a63ffffffff168152602001603763ffffffff168152602001604b63ffffffff168152602001603c63ffffffff168152602001604b63ffffffff168152602001601e63ffffffff16815250815250908060018154018082558091505090600182039060005260206000209060070201600090919290919091506000820151816000019080519060200190620138539291906201d9fb565b506020820151816001015560408201518160020190805190602001906201387c9291906201d9fb565b5060608201518160030190805190602001906201389b9291906201d9fb565b506080820151816004015560a08201518160050160006101000a81548160ff02191690831515021790555060c08201518160060160008201518160000160006101000a81548163ffffffff021916908363ffffffff16021790555060208201518160000160046101000a81548163ffffffff021916908363ffffffff16021790555060408201518160000160086101000a81548163ffffffff021916908363ffffffff160217905550606082015181600001600c6101000a81548163ffffffff021916908363ffffffff16021790555060808201518160000160106101000a81548163ffffffff021916908363ffffffff16021790555060a08201518160000160146101000a81548163ffffffff021916908363ffffffff160217905550505050505060036040518060e001604052806040518060400160405280600781526020017f4b6f6666696e67000000000000000000000000000000000000000000000000008152508152602001606d81526020016040518060400160405280600681526020017f506f69736f6e000000000000000000000000000000000000000000000000000081525081526020016040518060400160405280600381526020017f6e616e0000000000000000000000000000000000000000000000000000000000815250815260200161023081526020016000151581526020016040518060c00160405280602863ffffffff168152602001604163ffffffff168152602001605f63ffffffff168152602001603c63ffffffff168152602001602d63ffffffff168152602001602363ffffffff1681525081525090806001815401808255809150509060018203906000526020600020906007020160009091929091909150600082015181600001908051906020019062013b379291906201d9fb565b5060208201518160010155604082015181600201908051906020019062013b609291906201d9fb565b50606082015181600301908051906020019062013b7f9291906201d9fb565b506080820151816004015560a08201518160050160006101000a81548160ff02191690831515021790555060c08201518160060160008201518160000160006101000a81548163ffffffff021916908363ffffffff16021790555060208201518160000160046101000a81548163ffffffff021916908363ffffffff16021790555060408201518160000160086101000a81548163ffffffff021916908363ffffffff160217905550606082015181600001600c6101000a81548163ffffffff021916908363ffffffff16021790555060808201518160000160106101000a81548163ffffffff021916908363ffffffff16021790555060a08201518160000160146101000a81548163ffffffff021916908363ffffffff160217905550505050505060036040518060e001604052806040518060400160405280600781526020017f5765657a696e67000000000000000000000000000000000000000000000000008152508152602001606e81526020016040518060400160405280600681526020017f506f69736f6e000000000000000000000000000000000000000000000000000081525081526020016040518060400160405280600381526020017f6e616e0000000000000000000000000000000000000000000000000000000000815250815260200161019a81526020016000151581526020016040518060c00160405280604163ffffffff168152602001605a63ffffffff168152602001607863ffffffff168152602001605563ffffffff168152602001604663ffffffff168152602001603c63ffffffff1681525081525090806001815401808255809150509060018203906000526020600020906007020160009091929091909150600082015181600001908051906020019062013e1b9291906201d9fb565b5060208201518160010155604082015181600201908051906020019062013e449291906201d9fb565b50606082015181600301908051906020019062013e639291906201d9fb565b506080820151816004015560a08201518160050160006101000a81548160ff02191690831515021790555060c08201518160060160008201518160000160006101000a81548163ffffffff021916908363ffffffff16021790555060208201518160000160046101000a81548163ffffffff021916908363ffffffff16021790555060408201518160000160086101000a81548163ffffffff021916908363ffffffff160217905550606082015181600001600c6101000a81548163ffffffff021916908363ffffffff16021790555060808201518160000160106101000a81548163ffffffff021916908363ffffffff16021790555060a08201518160000160146101000a81548163ffffffff021916908363ffffffff160217905550505050505060036040518060e001604052806040518060400160405280600781526020017f526879686f726e000000000000000000000000000000000000000000000000008152508152602001606f81526020016040518060400160405280600681526020017f47726f756e64000000000000000000000000000000000000000000000000000081525081526020016040518060400160405280600481526020017f526f636b00000000000000000000000000000000000000000000000000000000815250815260200161022b81526020016000151581526020016040518060c00160405280605063ffffffff168152602001605563ffffffff168152602001605f63ffffffff168152602001601e63ffffffff168152602001601e63ffffffff168152602001601963ffffffff16815250815250908060018154018082558091505090600182039060005260206000209060070201600090919290919091506000820151816000019080519060200190620140ff9291906201d9fb565b50602082015181600101556040820151816002019080519060200190620141289291906201d9fb565b506060820151816003019080519060200190620141479291906201d9fb565b506080820151816004015560a08201518160050160006101000a81548160ff02191690831515021790555060c08201518160060160008201518160000160006101000a81548163ffffffff021916908363ffffffff16021790555060208201518160000160046101000a81548163ffffffff021916908363ffffffff16021790555060408201518160000160086101000a81548163ffffffff021916908363ffffffff160217905550606082015181600001600c6101000a81548163ffffffff021916908363ffffffff16021790555060808201518160000160106101000a81548163ffffffff021916908363ffffffff16021790555060a08201518160000160146101000a81548163ffffffff021916908363ffffffff160217905550505050505060036040518060e001604052806040518060400160405280600681526020017f526879646f6e00000000000000000000000000000000000000000000000000008152508152602001607081526020016040518060400160405280600681526020017f47726f756e64000000000000000000000000000000000000000000000000000081525081526020016040518060400160405280600481526020017f526f636b00000000000000000000000000000000000000000000000000000000815250815260200161019f81526020016000151581526020016040518060c00160405280606963ffffffff168152602001608263ffffffff168152602001607863ffffffff168152602001602d63ffffffff168152602001602d63ffffffff168152602001602863ffffffff16815250815250908060018154018082558091505090600182039060005260206000209060070201600090919290919091506000820151816000019080519060200190620143e39291906201d9fb565b506020820151816001015560408201518160020190805190602001906201440c9291906201d9fb565b5060608201518160030190805190602001906201442b9291906201d9fb565b506080820151816004015560a08201518160050160006101000a81548160ff02191690831515021790555060c08201518160060160008201518160000160006101000a81548163ffffffff021916908363ffffffff16021790555060208201518160000160046101000a81548163ffffffff021916908363ffffffff16021790555060408201518160000160086101000a81548163ffffffff021916908363ffffffff160217905550606082015181600001600c6101000a81548163ffffffff021916908363ffffffff16021790555060808201518160000160106101000a81548163ffffffff021916908363ffffffff16021790555060a08201518160000160146101000a81548163ffffffff021916908363ffffffff160217905550505050505060036040518060e001604052806040518060400160405280600781526020017f4368616e736579000000000000000000000000000000000000000000000000008152508152602001607181526020016040518060400160405280600681526020017f4e6f726d616c000000000000000000000000000000000000000000000000000081525081526020016040518060400160405280600381526020017f6e616e000000000000000000000000000000000000000000000000000000000081525081526020016101c281526020016000151581526020016040518060c0016040528060fa63ffffffff168152602001600563ffffffff168152602001600563ffffffff168152602001602363ffffffff168152602001606963ffffffff168152602001603263ffffffff16815250815250908060018154018082558091505090600182039060005260206000209060070201600090919290919091506000820151816000019080519060200190620146c79291906201d9fb565b50602082015181600101556040820151816002019080519060200190620146f09291906201d9fb565b5060608201518160030190805190602001906201470f9291906201d9fb565b506080820151816004015560a08201518160050160006101000a81548160ff02191690831515021790555060c08201518160060160008201518160000160006101000a81548163ffffffff021916908363ffffffff16021790555060208201518160000160046101000a81548163ffffffff021916908363ffffffff16021790555060408201518160000160086101000a81548163ffffffff021916908363ffffffff160217905550606082015181600001600c6101000a81548163ffffffff021916908363ffffffff16021790555060808201518160000160106101000a81548163ffffffff021916908363ffffffff16021790555060a08201518160000160146101000a81548163ffffffff021916908363ffffffff160217905550505050505060036040518060e001604052806040518060400160405280600781526020017f54616e67656c61000000000000000000000000000000000000000000000000008152508152602001607281526020016040518060400160405280600581526020017f477261737300000000000000000000000000000000000000000000000000000081525081526020016040518060400160405280600381526020017f6e616e000000000000000000000000000000000000000000000000000000000081525081526020016101d181526020016000151581526020016040518060c00160405280604163ffffffff168152602001603763ffffffff168152602001607363ffffffff168152602001606463ffffffff168152602001602863ffffffff168152602001603c63ffffffff16815250815250908060018154018082558091505090600182039060005260206000209060070201600090919290919091506000820151816000019080519060200190620149ab9291906201d9fb565b50602082015181600101556040820151816002019080519060200190620149d49291906201d9fb565b506060820151816003019080519060200190620149f39291906201d9fb565b506080820151816004015560a08201518160050160006101000a81548160ff02191690831515021790555060c08201518160060160008201518160000160006101000a81548163ffffffff021916908363ffffffff16021790555060208201518160000160046101000a81548163ffffffff021916908363ffffffff16021790555060408201518160000160086101000a81548163ffffffff021916908363ffffffff160217905550606082015181600001600c6101000a81548163ffffffff021916908363ffffffff16021790555060808201518160000160106101000a81548163ffffffff021916908363ffffffff16021790555060a08201518160000160146101000a81548163ffffffff021916908363ffffffff160217905550505050505060036040518060e001604052806040518060400160405280600a81526020017f4b616e6761736b68616e000000000000000000000000000000000000000000008152508152602001607381526020016040518060400160405280600681526020017f4e6f726d616c000000000000000000000000000000000000000000000000000081525081526020016040518060400160405280600381526020017f6e616e0000000000000000000000000000000000000000000000000000000000815250815260200161019a81526020016000151581526020016040518060c00160405280606963ffffffff168152602001605f63ffffffff168152602001605063ffffffff168152602001602863ffffffff168152602001605063ffffffff168152602001605a63ffffffff1681525081525090806001815401808255809150509060018203906000526020600020906007020160009091929091909150600082015181600001908051906020019062014c8f9291906201d9fb565b5060208201518160010155604082015181600201908051906020019062014cb89291906201d9fb565b50606082015181600301908051906020019062014cd79291906201d9fb565b506080820151816004015560a08201518160050160006101000a81548160ff02191690831515021790555060c08201518160060160008201518160000160006101000a81548163ffffffff021916908363ffffffff16021790555060208201518160000160046101000a81548163ffffffff021916908363ffffffff16021790555060408201518160000160086101000a81548163ffffffff021916908363ffffffff160217905550606082015181600001600c6101000a81548163ffffffff021916908363ffffffff16021790555060808201518160000160106101000a81548163ffffffff021916908363ffffffff16021790555060a08201518160000160146101000a81548163ffffffff021916908363ffffffff160217905550505050505060036040518060e001604052806040518060400160405280600681526020017f486f7273656100000000000000000000000000000000000000000000000000008152508152602001607481526020016040518060400160405280600581526020017f576174657200000000000000000000000000000000000000000000000000000081525081526020016040518060400160405280600381526020017f6e616e0000000000000000000000000000000000000000000000000000000000815250815260200161025d81526020016000151581526020016040518060c00160405280601e63ffffffff168152602001602863ffffffff168152602001604663ffffffff168152602001604663ffffffff168152602001601963ffffffff168152602001603c63ffffffff1681525081525090806001815401808255809150509060018203906000526020600020906007020160009091929091909150600082015181600001908051906020019062014f739291906201d9fb565b5060208201518160010155604082015181600201908051906020019062014f9c9291906201d9fb565b50606082015181600301908051906020019062014fbb9291906201d9fb565b506080820151816004015560a08201518160050160006101000a81548160ff02191690831515021790555060c08201518160060160008201518160000160006101000a81548163ffffffff021916908363ffffffff16021790555060208201518160000160046101000a81548163ffffffff021916908363ffffffff16021790555060408201518160000160086101000a81548163ffffffff021916908363ffffffff160217905550606082015181600001600c6101000a81548163ffffffff021916908363ffffffff16021790555060808201518160000160106101000a81548163ffffffff021916908363ffffffff16021790555060a08201518160000160146101000a81548163ffffffff021916908363ffffffff160217905550505050505060036040518060e001604052806040518060400160405280600681526020017f53656164726100000000000000000000000000000000000000000000000000008152508152602001607581526020016040518060400160405280600581526020017f576174657200000000000000000000000000000000000000000000000000000081525081526020016040518060400160405280600381526020017f6e616e000000000000000000000000000000000000000000000000000000000081525081526020016101cc81526020016000151581526020016040518060c00160405280603763ffffffff168152602001604163ffffffff168152602001605f63ffffffff168152602001605f63ffffffff168152602001602d63ffffffff168152602001605563ffffffff16815250815250908060018154018082558091505090600182039060005260206000209060070201600090919290919091506000820151816000019080519060200190620152579291906201d9fb565b50602082015181600101556040820151816002019080519060200190620152809291906201d9fb565b5060608201518160030190805190602001906201529f9291906201d9fb565b506080820151816004015560a08201518160050160006101000a81548160ff02191690831515021790555060c08201518160060160008201518160000160006101000a81548163ffffffff021916908363ffffffff16021790555060208201518160000160046101000a81548163ffffffff021916908363ffffffff16021790555060408201518160000160086101000a81548163ffffffff021916908363ffffffff160217905550606082015181600001600c6101000a81548163ffffffff021916908363ffffffff16021790555060808201518160000160106101000a81548163ffffffff021916908363ffffffff16021790555060a08201518160000160146101000a81548163ffffffff021916908363ffffffff160217905550505050505060036040518060e001604052806040518060400160405280600781526020017f476f6c6465656e000000000000000000000000000000000000000000000000008152508152602001607681526020016040518060400160405280600581526020017f576174657200000000000000000000000000000000000000000000000000000081525081526020016040518060400160405280600381526020017f6e616e0000000000000000000000000000000000000000000000000000000000815250815260200161024481526020016000151581526020016040518060c00160405280602d63ffffffff168152602001604363ffffffff168152602001603c63ffffffff168152602001602363ffffffff168152602001603263ffffffff168152602001603f63ffffffff168152508152509080600181540180825580915050906001820390600052602060002090600702016000909192909190915060008201518160000190805190602001906201553b9291906201d9fb565b50602082015181600101556040820151816002019080519060200190620155649291906201d9fb565b506060820151816003019080519060200190620155839291906201d9fb565b506080820151816004015560a08201518160050160006101000a81548160ff02191690831515021790555060c08201518160060160008201518160000160006101000a81548163ffffffff021916908363ffffffff16021790555060208201518160000160046101000a81548163ffffffff021916908363ffffffff16021790555060408201518160000160086101000a81548163ffffffff021916908363ffffffff160217905550606082015181600001600c6101000a81548163ffffffff021916908363ffffffff16021790555060808201518160000160106101000a81548163ffffffff021916908363ffffffff16021790555060a08201518160000160146101000a81548163ffffffff021916908363ffffffff160217905550505050505060036040518060e001604052806040518060400160405280600781526020017f5365616b696e67000000000000000000000000000000000000000000000000008152508152602001607781526020016040518060400160405280600581526020017f576174657200000000000000000000000000000000000000000000000000000081525081526020016040518060400160405280600381526020017f6e616e000000000000000000000000000000000000000000000000000000000081525081526020016101c281526020016000151581526020016040518060c00160405280605063ffffffff168152602001605c63ffffffff168152602001604163ffffffff168152602001604163ffffffff168152602001605063ffffffff168152602001604463ffffffff168152508152509080600181540180825580915050906001820390600052602060002090600702016000909192909190915060008201518160000190805190602001906201581f9291906201d9fb565b50602082015181600101556040820151816002019080519060200190620158489291906201d9fb565b506060820151816003019080519060200190620158679291906201d9fb565b506080820151816004015560a08201518160050160006101000a81548160ff02191690831515021790555060c08201518160060160008201518160000160006101000a81548163ffffffff021916908363ffffffff16021790555060208201518160000160046101000a81548163ffffffff021916908363ffffffff16021790555060408201518160000160086101000a81548163ffffffff021916908363ffffffff160217905550606082015181600001600c6101000a81548163ffffffff021916908363ffffffff16021790555060808201518160000160106101000a81548163ffffffff021916908363ffffffff16021790555060a08201518160000160146101000a81548163ffffffff021916908363ffffffff160217905550505050505060036040518060e001604052806040518060400160405280600681526020017f53746172797500000000000000000000000000000000000000000000000000008152508152602001607881526020016040518060400160405280600581526020017f576174657200000000000000000000000000000000000000000000000000000081525081526020016040518060400160405280600381526020017f6e616e0000000000000000000000000000000000000000000000000000000000815250815260200161023081526020016000151581526020016040518060c00160405280601e63ffffffff168152602001602d63ffffffff168152602001603763ffffffff168152602001604663ffffffff168152602001603763ffffffff168152602001605563ffffffff1681525081525090806001815401808255809150509060018203906000526020600020906007020160009091929091909150600082015181600001908051906020019062015b039291906201d9fb565b5060208201518160010155604082015181600201908051906020019062015b2c9291906201d9fb565b50606082015181600301908051906020019062015b4b9291906201d9fb565b506080820151816004015560a08201518160050160006101000a81548160ff02191690831515021790555060c08201518160060160008201518160000160006101000a81548163ffffffff021916908363ffffffff16021790555060208201518160000160046101000a81548163ffffffff021916908363ffffffff16021790555060408201518160000160086101000a81548163ffffffff021916908363ffffffff160217905550606082015181600001600c6101000a81548163ffffffff021916908363ffffffff16021790555060808201518160000160106101000a81548163ffffffff021916908363ffffffff16021790555060a08201518160000160146101000a81548163ffffffff021916908363ffffffff160217905550505050505060036040518060e001604052806040518060400160405280600781526020017f537461726d6965000000000000000000000000000000000000000000000000008152508152602001607981526020016040518060400160405280600581526020017f576174657200000000000000000000000000000000000000000000000000000081525081526020016040518060400160405280600781526020017f5073796368696300000000000000000000000000000000000000000000000000815250815260200161017c81526020016000151581526020016040518060c00160405280603c63ffffffff168152602001604b63ffffffff168152602001605563ffffffff168152602001606463ffffffff168152602001605563ffffffff168152602001607363ffffffff1681525081525090806001815401808255809150509060018203906000526020600020906007020160009091929091909150600082015181600001908051906020019062015de79291906201d9fb565b5060208201518160010155604082015181600201908051906020019062015e109291906201d9fb565b50606082015181600301908051906020019062015e2f9291906201d9fb565b506080820151816004015560a08201518160050160006101000a81548160ff02191690831515021790555060c08201518160060160008201518160000160006101000a81548163ffffffff021916908363ffffffff16021790555060208201518160000160046101000a81548163ffffffff021916908363ffffffff16021790555060408201518160000160086101000a81548163ffffffff021916908363ffffffff160217905550606082015181600001600c6101000a81548163ffffffff021916908363ffffffff16021790555060808201518160000160106101000a81548163ffffffff021916908363ffffffff16021790555060a08201518160000160146101000a81548163ffffffff021916908363ffffffff160217905550505050505060036040518060e001604052806040518060400160405280600881526020017f4d722e204d696d650000000000000000000000000000000000000000000000008152508152602001607a81526020016040518060400160405280600781526020017f507379636869630000000000000000000000000000000000000000000000000081525081526020016040518060400160405280600581526020017f466169727900000000000000000000000000000000000000000000000000000081525081526020016101b881526020016000151581526020016040518060c00160405280602863ffffffff168152602001602d63ffffffff168152602001604163ffffffff168152602001606463ffffffff168152602001607863ffffffff168152602001605a63ffffffff16815250815250908060018154018082558091505090600182039060005260206000209060070201600090919290919091506000820151816000019080519060200190620160cb9291906201d9fb565b50602082015181600101556040820151816002019080519060200190620160f49291906201d9fb565b506060820151816003019080519060200190620161139291906201d9fb565b506080820151816004015560a08201518160050160006101000a81548160ff02191690831515021790555060c08201518160060160008201518160000160006101000a81548163ffffffff021916908363ffffffff16021790555060208201518160000160046101000a81548163ffffffff021916908363ffffffff16021790555060408201518160000160086101000a81548163ffffffff021916908363ffffffff160217905550606082015181600001600c6101000a81548163ffffffff021916908363ffffffff16021790555060808201518160000160106101000a81548163ffffffff021916908363ffffffff16021790555060a08201518160000160146101000a81548163ffffffff021916908363ffffffff160217905550505050505060036040518060e001604052806040518060400160405280600781526020017f53637974686572000000000000000000000000000000000000000000000000008152508152602001607b81526020016040518060400160405280600381526020017f427567000000000000000000000000000000000000000000000000000000000081525081526020016040518060400160405280600681526020017f466c79696e670000000000000000000000000000000000000000000000000000815250815260200161019081526020016000151581526020016040518060c00160405280604663ffffffff168152602001606e63ffffffff168152602001605063ffffffff168152602001603763ffffffff168152602001605063ffffffff168152602001606963ffffffff16815250815250908060018154018082558091505090600182039060005260206000209060070201600090919290919091506000820151816000019080519060200190620163af9291906201d9fb565b50602082015181600101556040820151816002019080519060200190620163d89291906201d9fb565b506060820151816003019080519060200190620163f79291906201d9fb565b506080820151816004015560a08201518160050160006101000a81548160ff02191690831515021790555060c08201518160060160008201518160000160006101000a81548163ffffffff021916908363ffffffff16021790555060208201518160000160046101000a81548163ffffffff021916908363ffffffff16021790555060408201518160000160086101000a81548163ffffffff021916908363ffffffff160217905550606082015181600001600c6101000a81548163ffffffff021916908363ffffffff16021790555060808201518160000160106101000a81548163ffffffff021916908363ffffffff16021790555060a08201518160000160146101000a81548163ffffffff021916908363ffffffff160217905550505050505060036040518060e001604052806040518060400160405280600481526020017f4a796e78000000000000000000000000000000000000000000000000000000008152508152602001607c81526020016040518060400160405280600381526020017f496365000000000000000000000000000000000000000000000000000000000081525081526020016040518060400160405280600781526020017f507379636869630000000000000000000000000000000000000000000000000081525081526020016101bd81526020016000151581526020016040518060c00160405280604163ffffffff168152602001603263ffffffff168152602001602363ffffffff168152602001607363ffffffff168152602001605f63ffffffff168152602001605f63ffffffff16815250815250908060018154018082558091505090600182039060005260206000209060070201600090919290919091506000820151816000019080519060200190620166939291906201d9fb565b50602082015181600101556040820151816002019080519060200190620166bc9291906201d9fb565b506060820151816003019080519060200190620166db9291906201d9fb565b506080820151816004015560a08201518160050160006101000a81548160ff02191690831515021790555060c08201518160060160008201518160000160006101000a81548163ffffffff021916908363ffffffff16021790555060208201518160000160046101000a81548163ffffffff021916908363ffffffff16021790555060408201518160000160086101000a81548163ffffffff021916908363ffffffff160217905550606082015181600001600c6101000a81548163ffffffff021916908363ffffffff16021790555060808201518160000160106101000a81548163ffffffff021916908363ffffffff16021790555060a08201518160000160146101000a81548163ffffffff021916908363ffffffff160217905550505050505060036040518060e001604052806040518060400160405280600a81526020017f456c6563746162757a7a000000000000000000000000000000000000000000008152508152602001607d81526020016040518060400160405280600881526020017f456c65637472696300000000000000000000000000000000000000000000000081525081526020016040518060400160405280600381526020017f6e616e0000000000000000000000000000000000000000000000000000000000815250815260200161019a81526020016000151581526020016040518060c00160405280604163ffffffff168152602001605363ffffffff168152602001603963ffffffff168152602001605f63ffffffff168152602001605563ffffffff168152602001606963ffffffff16815250815250908060018154018082558091505090600182039060005260206000209060070201600090919290919091506000820151816000019080519060200190620169779291906201d9fb565b50602082015181600101556040820151816002019080519060200190620169a09291906201d9fb565b506060820151816003019080519060200190620169bf9291906201d9fb565b506080820151816004015560a08201518160050160006101000a81548160ff02191690831515021790555060c08201518160060160008201518160000160006101000a81548163ffffffff021916908363ffffffff16021790555060208201518160000160046101000a81548163ffffffff021916908363ffffffff16021790555060408201518160000160086101000a81548163ffffffff021916908363ffffffff160217905550606082015181600001600c6101000a81548163ffffffff021916908363ffffffff16021790555060808201518160000160106101000a81548163ffffffff021916908363ffffffff16021790555060a08201518160000160146101000a81548163ffffffff021916908363ffffffff160217905550505050505060036040518060e001604052806040518060400160405280600681526020017f4d61676d617200000000000000000000000000000000000000000000000000008152508152602001607e81526020016040518060400160405280600481526020017f466972650000000000000000000000000000000000000000000000000000000081525081526020016040518060400160405280600381526020017f6e616e0000000000000000000000000000000000000000000000000000000000815250815260200161019581526020016000151581526020016040518060c00160405280604163ffffffff168152602001605f63ffffffff168152602001603963ffffffff168152602001606463ffffffff168152602001605563ffffffff168152602001605d63ffffffff1681525081525090806001815401808255809150509060018203906000526020600020906007020160009091929091909150600082015181600001908051906020019062016c5b9291906201d9fb565b5060208201518160010155604082015181600201908051906020019062016c849291906201d9fb565b50606082015181600301908051906020019062016ca39291906201d9fb565b506080820151816004015560a08201518160050160006101000a81548160ff02191690831515021790555060c08201518160060160008201518160000160006101000a81548163ffffffff021916908363ffffffff16021790555060208201518160000160046101000a81548163ffffffff021916908363ffffffff16021790555060408201518160000160086101000a81548163ffffffff021916908363ffffffff160217905550606082015181600001600c6101000a81548163ffffffff021916908363ffffffff16021790555060808201518160000160106101000a81548163ffffffff021916908363ffffffff16021790555060a08201518160000160146101000a81548163ffffffff021916908363ffffffff160217905550505050505060036040518060e001604052806040518060400160405280600681526020017f50696e73697200000000000000000000000000000000000000000000000000008152508152602001607f81526020016040518060400160405280600381526020017f427567000000000000000000000000000000000000000000000000000000000081525081526020016040518060400160405280600381526020017f6e616e0000000000000000000000000000000000000000000000000000000000815250815260200161019081526020016000151581526020016040518060c00160405280604163ffffffff168152602001607d63ffffffff168152602001606463ffffffff168152602001603763ffffffff168152602001604663ffffffff168152602001605563ffffffff1681525081525090806001815401808255809150509060018203906000526020600020906007020160009091929091909150600082015181600001908051906020019062016f3f9291906201d9fb565b5060208201518160010155604082015181600201908051906020019062016f689291906201d9fb565b50606082015181600301908051906020019062016f879291906201d9fb565b506080820151816004015560a08201518160050160006101000a81548160ff02191690831515021790555060c08201518160060160008201518160000160006101000a81548163ffffffff021916908363ffffffff16021790555060208201518160000160046101000a81548163ffffffff021916908363ffffffff16021790555060408201518160000160086101000a81548163ffffffff021916908363ffffffff160217905550606082015181600001600c6101000a81548163ffffffff021916908363ffffffff16021790555060808201518160000160106101000a81548163ffffffff021916908363ffffffff16021790555060a08201518160000160146101000a81548163ffffffff021916908363ffffffff160217905550505050505060036040518060e001604052806040518060400160405280600681526020017f546175726f7300000000000000000000000000000000000000000000000000008152508152602001608081526020016040518060400160405280600681526020017f4e6f726d616c000000000000000000000000000000000000000000000000000081525081526020016040518060400160405280600381526020017f6e616e0000000000000000000000000000000000000000000000000000000000815250815260200161019a81526020016000151581526020016040518060c00160405280604b63ffffffff168152602001606463ffffffff168152602001605f63ffffffff168152602001602863ffffffff168152602001604663ffffffff168152602001606e63ffffffff16815250815250908060018154018082558091505090600182039060005260206000209060070201600090919290919091506000820151816000019080519060200190620172239291906201d9fb565b506020820151816001015560408201518160020190805190602001906201724c9291906201d9fb565b5060608201518160030190805190602001906201726b9291906201d9fb565b506080820151816004015560a08201518160050160006101000a81548160ff02191690831515021790555060c08201518160060160008201518160000160006101000a81548163ffffffff021916908363ffffffff16021790555060208201518160000160046101000a81548163ffffffff021916908363ffffffff16021790555060408201518160000160086101000a81548163ffffffff021916908363ffffffff160217905550606082015181600001600c6101000a81548163ffffffff021916908363ffffffff16021790555060808201518160000160106101000a81548163ffffffff021916908363ffffffff16021790555060a08201518160000160146101000a81548163ffffffff021916908363ffffffff160217905550505050505060036040518060e001604052806040518060400160405280600881526020017f4d6167696b6172700000000000000000000000000000000000000000000000008152508152602001608181526020016040518060400160405280600581526020017f576174657200000000000000000000000000000000000000000000000000000081525081526020016040518060400160405280600381526020017f6e616e000000000000000000000000000000000000000000000000000000000081525081526020016102bc81526020016000151581526020016040518060c00160405280601463ffffffff168152602001600a63ffffffff168152602001603763ffffffff168152602001600f63ffffffff168152602001601463ffffffff168152602001605063ffffffff16815250815250908060018154018082558091505090600182039060005260206000209060070201600090919290919091506000820151816000019080519060200190620175079291906201d9fb565b50602082015181600101556040820151816002019080519060200190620175309291906201d9fb565b5060608201518160030190805190602001906201754f9291906201d9fb565b506080820151816004015560a08201518160050160006101000a81548160ff02191690831515021790555060c08201518160060160008201518160000160006101000a81548163ffffffff021916908363ffffffff16021790555060208201518160000160046101000a81548163ffffffff021916908363ffffffff16021790555060408201518160000160086101000a81548163ffffffff021916908363ffffffff160217905550606082015181600001600c6101000a81548163ffffffff021916908363ffffffff16021790555060808201518160000160106101000a81548163ffffffff021916908363ffffffff16021790555060a08201518160000160146101000a81548163ffffffff021916908363ffffffff160217905550505050505060036040518060e001604052806040518060400160405280600881526020017f4779617261646f730000000000000000000000000000000000000000000000008152508152602001608281526020016040518060400160405280600581526020017f576174657200000000000000000000000000000000000000000000000000000081525081526020016040518060400160405280600681526020017f466c79696e670000000000000000000000000000000000000000000000000000815250815260200161016881526020016000151581526020016040518060c00160405280605f63ffffffff168152602001607d63ffffffff168152602001604f63ffffffff168152602001603c63ffffffff168152602001606463ffffffff168152602001605163ffffffff16815250815250908060018154018082558091505090600182039060005260206000209060070201600090919290919091506000820151816000019080519060200190620177eb9291906201d9fb565b50602082015181600101556040820151816002019080519060200190620178149291906201d9fb565b506060820151816003019080519060200190620178339291906201d9fb565b506080820151816004015560a08201518160050160006101000a81548160ff02191690831515021790555060c08201518160060160008201518160000160006101000a81548163ffffffff021916908363ffffffff16021790555060208201518160000160046101000a81548163ffffffff021916908363ffffffff16021790555060408201518160000160086101000a81548163ffffffff021916908363ffffffff160217905550606082015181600001600c6101000a81548163ffffffff021916908363ffffffff16021790555060808201518160000160106101000a81548163ffffffff021916908363ffffffff16021790555060a08201518160000160146101000a81548163ffffffff021916908363ffffffff160217905550505050505060036040518060e001604052806040518060400160405280600681526020017f4c617072617300000000000000000000000000000000000000000000000000008152508152602001608381526020016040518060400160405280600581526020017f576174657200000000000000000000000000000000000000000000000000000081525081526020016040518060400160405280600381526020017f4963650000000000000000000000000000000000000000000000000000000000815250815260200161016d81526020016000151581526020016040518060c00160405280608263ffffffff168152602001605563ffffffff168152602001605063ffffffff168152602001605563ffffffff168152602001605f63ffffffff168152602001603c63ffffffff1681525081525090806001815401808255809150509060018203906000526020600020906007020160009091929091909150600082015181600001908051906020019062017acf9291906201d9fb565b5060208201518160010155604082015181600201908051906020019062017af89291906201d9fb565b50606082015181600301908051906020019062017b179291906201d9fb565b506080820151816004015560a08201518160050160006101000a81548160ff02191690831515021790555060c08201518160060160008201518160000160006101000a81548163ffffffff021916908363ffffffff16021790555060208201518160000160046101000a81548163ffffffff021916908363ffffffff16021790555060408201518160000160086101000a81548163ffffffff021916908363ffffffff160217905550606082015181600001600c6101000a81548163ffffffff021916908363ffffffff16021790555060808201518160000160106101000a81548163ffffffff021916908363ffffffff16021790555060a08201518160000160146101000a81548163ffffffff021916908363ffffffff160217905550505050505060036040518060e001604052806040518060400160405280600581526020017f446974746f0000000000000000000000000000000000000000000000000000008152508152602001608481526020016040518060400160405280600681526020017f4e6f726d616c000000000000000000000000000000000000000000000000000081525081526020016040518060400160405280600381526020017f6e616e0000000000000000000000000000000000000000000000000000000000815250815260200161026481526020016000151581526020016040518060c00160405280603063ffffffff168152602001603063ffffffff168152602001603063ffffffff168152602001603063ffffffff168152602001603063ffffffff168152602001603063ffffffff1681525081525090806001815401808255809150509060018203906000526020600020906007020160009091929091909150600082015181600001908051906020019062017db39291906201d9fb565b5060208201518160010155604082015181600201908051906020019062017ddc9291906201d9fb565b50606082015181600301908051906020019062017dfb9291906201d9fb565b506080820151816004015560a08201518160050160006101000a81548160ff02191690831515021790555060c08201518160060160008201518160000160006101000a81548163ffffffff021916908363ffffffff16021790555060208201518160000160046101000a81548163ffffffff021916908363ffffffff16021790555060408201518160000160086101000a81548163ffffffff021916908363ffffffff160217905550606082015181600001600c6101000a81548163ffffffff021916908363ffffffff16021790555060808201518160000160106101000a81548163ffffffff021916908363ffffffff16021790555060a08201518160000160146101000a81548163ffffffff021916908363ffffffff160217905550505050505060036040518060e001604052806040518060400160405280600581526020017f45657665650000000000000000000000000000000000000000000000000000008152508152602001608581526020016040518060400160405280600681526020017f4e6f726d616c000000000000000000000000000000000000000000000000000081525081526020016040518060400160405280600381526020017f6e616e0000000000000000000000000000000000000000000000000000000000815250815260200161023f81526020016000151581526020016040518060c00160405280603763ffffffff168152602001603763ffffffff168152602001603263ffffffff168152602001602d63ffffffff168152602001604163ffffffff168152602001603763ffffffff16815250815250908060018154018082558091505090600182039060005260206000209060070201600090919290919091506000820151816000019080519060200190620180979291906201d9fb565b50602082015181600101556040820151816002019080519060200190620180c09291906201d9fb565b506060820151816003019080519060200190620180df9291906201d9fb565b506080820151816004015560a08201518160050160006101000a81548160ff02191690831515021790555060c08201518160060160008201518160000160006101000a81548163ffffffff021916908363ffffffff16021790555060208201518160000160046101000a81548163ffffffff021916908363ffffffff16021790555060408201518160000160086101000a81548163ffffffff021916908363ffffffff160217905550606082015181600001600c6101000a81548163ffffffff021916908363ffffffff16021790555060808201518160000160106101000a81548163ffffffff021916908363ffffffff16021790555060a08201518160000160146101000a81548163ffffffff021916908363ffffffff160217905550505050505060036040518060e001604052806040518060400160405280600881526020017f5661706f72656f6e0000000000000000000000000000000000000000000000008152508152602001608681526020016040518060400160405280600581526020017f576174657200000000000000000000000000000000000000000000000000000081525081526020016040518060400160405280600381526020017f6e616e0000000000000000000000000000000000000000000000000000000000815250815260200161017781526020016000151581526020016040518060c00160405280608263ffffffff168152602001604163ffffffff168152602001603c63ffffffff168152602001606e63ffffffff168152602001605f63ffffffff168152602001604163ffffffff168152508152509080600181540180825580915050906001820390600052602060002090600702016000909192909190915060008201518160000190805190602001906201837b9291906201d9fb565b50602082015181600101556040820151816002019080519060200190620183a49291906201d9fb565b506060820151816003019080519060200190620183c39291906201d9fb565b506080820151816004015560a08201518160050160006101000a81548160ff02191690831515021790555060c08201518160060160008201518160000160006101000a81548163ffffffff021916908363ffffffff16021790555060208201518160000160046101000a81548163ffffffff021916908363ffffffff16021790555060408201518160000160086101000a81548163ffffffff021916908363ffffffff160217905550606082015181600001600c6101000a81548163ffffffff021916908363ffffffff16021790555060808201518160000160106101000a81548163ffffffff021916908363ffffffff16021790555060a08201518160000160146101000a81548163ffffffff021916908363ffffffff160217905550505050505060036040518060e001604052806040518060400160405280600781526020017f4a6f6c74656f6e000000000000000000000000000000000000000000000000008152508152602001608781526020016040518060400160405280600881526020017f456c65637472696300000000000000000000000000000000000000000000000081525081526020016040518060400160405280600381526020017f6e616e0000000000000000000000000000000000000000000000000000000000815250815260200161017781526020016000151581526020016040518060c00160405280604163ffffffff168152602001604163ffffffff168152602001603c63ffffffff168152602001606e63ffffffff168152602001605f63ffffffff168152602001608263ffffffff168152508152509080600181540180825580915050906001820390600052602060002090600702016000909192909190915060008201518160000190805190602001906201865f9291906201d9fb565b50602082015181600101556040820151816002019080519060200190620186889291906201d9fb565b506060820151816003019080519060200190620186a79291906201d9fb565b506080820151816004015560a08201518160050160006101000a81548160ff02191690831515021790555060c08201518160060160008201518160000160006101000a81548163ffffffff021916908363ffffffff16021790555060208201518160000160046101000a81548163ffffffff021916908363ffffffff16021790555060408201518160000160086101000a81548163ffffffff021916908363ffffffff160217905550606082015181600001600c6101000a81548163ffffffff021916908363ffffffff16021790555060808201518160000160106101000a81548163ffffffff021916908363ffffffff16021790555060a08201518160000160146101000a81548163ffffffff021916908363ffffffff160217905550505050505060036040518060e001604052806040518060400160405280600781526020017f466c6172656f6e000000000000000000000000000000000000000000000000008152508152602001608881526020016040518060400160405280600481526020017f466972650000000000000000000000000000000000000000000000000000000081525081526020016040518060400160405280600381526020017f6e616e0000000000000000000000000000000000000000000000000000000000815250815260200161017781526020016000151581526020016040518060c00160405280604163ffffffff168152602001608263ffffffff168152602001603c63ffffffff168152602001605f63ffffffff168152602001606e63ffffffff168152602001604163ffffffff16815250815250908060018154018082558091505090600182039060005260206000209060070201600090919290919091506000820151816000019080519060200190620189439291906201d9fb565b506020820151816001015560408201518160020190805190602001906201896c9291906201d9fb565b5060608201518160030190805190602001906201898b9291906201d9fb565b506080820151816004015560a08201518160050160006101000a81548160ff02191690831515021790555060c08201518160060160008201518160000160006101000a81548163ffffffff021916908363ffffffff16021790555060208201518160000160046101000a81548163ffffffff021916908363ffffffff16021790555060408201518160000160086101000a81548163ffffffff021916908363ffffffff160217905550606082015181600001600c6101000a81548163ffffffff021916908363ffffffff16021790555060808201518160000160106101000a81548163ffffffff021916908363ffffffff16021790555060a08201518160000160146101000a81548163ffffffff021916908363ffffffff160217905550505050505060036040518060e001604052806040518060400160405280600781526020017f506f7279676f6e000000000000000000000000000000000000000000000000008152508152602001608981526020016040518060400160405280600681526020017f4e6f726d616c000000000000000000000000000000000000000000000000000081525081526020016040518060400160405280600381526020017f6e616e000000000000000000000000000000000000000000000000000000000081525081526020016101f981526020016000151581526020016040518060c00160405280604163ffffffff168152602001603c63ffffffff168152602001604663ffffffff168152602001605563ffffffff168152602001604b63ffffffff168152602001602863ffffffff1681525081525090806001815401808255809150509060018203906000526020600020906007020160009091929091909150600082015181600001908051906020019062018c279291906201d9fb565b5060208201518160010155604082015181600201908051906020019062018c509291906201d9fb565b50606082015181600301908051906020019062018c6f9291906201d9fb565b506080820151816004015560a08201518160050160006101000a81548160ff02191690831515021790555060c08201518160060160008201518160000160006101000a81548163ffffffff021916908363ffffffff16021790555060208201518160000160046101000a81548163ffffffff021916908363ffffffff16021790555060408201518160000160086101000a81548163ffffffff021916908363ffffffff160217905550606082015181600001600c6101000a81548163ffffffff021916908363ffffffff16021790555060808201518160000160106101000a81548163ffffffff021916908363ffffffff16021790555060a08201518160000160146101000a81548163ffffffff021916908363ffffffff160217905550505050505060036040518060e001604052806040518060400160405280600781526020017f4f6d616e797465000000000000000000000000000000000000000000000000008152508152602001608a81526020016040518060400160405280600481526020017f526f636b0000000000000000000000000000000000000000000000000000000081525081526020016040518060400160405280600581526020017f5761746572000000000000000000000000000000000000000000000000000000815250815260200161022181526020016000151581526020016040518060c00160405280602363ffffffff168152602001602863ffffffff168152602001606463ffffffff168152602001605a63ffffffff168152602001603763ffffffff168152602001602363ffffffff1681525081525090806001815401808255809150509060018203906000526020600020906007020160009091929091909150600082015181600001908051906020019062018f0b9291906201d9fb565b5060208201518160010155604082015181600201908051906020019062018f349291906201d9fb565b50606082015181600301908051906020019062018f539291906201d9fb565b506080820151816004015560a08201518160050160006101000a81548160ff02191690831515021790555060c08201518160060160008201518160000160006101000a81548163ffffffff021916908363ffffffff16021790555060208201518160000160046101000a81548163ffffffff021916908363ffffffff16021790555060408201518160000160086101000a81548163ffffffff021916908363ffffffff160217905550606082015181600001600c6101000a81548163ffffffff021916908363ffffffff16021790555060808201518160000160106101000a81548163ffffffff021916908363ffffffff16021790555060a08201518160000160146101000a81548163ffffffff021916908363ffffffff160217905550505050505060036040518060e001604052806040518060400160405280600781526020017f4f6d6173746172000000000000000000000000000000000000000000000000008152508152602001608b81526020016040518060400160405280600481526020017f526f636b0000000000000000000000000000000000000000000000000000000081525081526020016040518060400160405280600581526020017f5761746572000000000000000000000000000000000000000000000000000000815250815260200161019581526020016000151581526020016040518060c00160405280604663ffffffff168152602001603c63ffffffff168152602001607d63ffffffff168152602001607363ffffffff168152602001604663ffffffff168152602001603763ffffffff16815250815250908060018154018082558091505090600182039060005260206000209060070201600090919290919091506000820151816000019080519060200190620191ef9291906201d9fb565b50602082015181600101556040820151816002019080519060200190620192189291906201d9fb565b506060820151816003019080519060200190620192379291906201d9fb565b506080820151816004015560a08201518160050160006101000a81548160ff02191690831515021790555060c08201518160060160008201518160000160006101000a81548163ffffffff021916908363ffffffff16021790555060208201518160000160046101000a81548163ffffffff021916908363ffffffff16021790555060408201518160000160086101000a81548163ffffffff021916908363ffffffff160217905550606082015181600001600c6101000a81548163ffffffff021916908363ffffffff16021790555060808201518160000160106101000a81548163ffffffff021916908363ffffffff16021790555060a08201518160000160146101000a81548163ffffffff021916908363ffffffff160217905550505050505060036040518060e001604052806040518060400160405280600681526020017f4b616275746f00000000000000000000000000000000000000000000000000008152508152602001608c81526020016040518060400160405280600481526020017f526f636b0000000000000000000000000000000000000000000000000000000081525081526020016040518060400160405280600581526020017f5761746572000000000000000000000000000000000000000000000000000000815250815260200161022181526020016000151581526020016040518060c00160405280601e63ffffffff168152602001605063ffffffff168152602001605a63ffffffff168152602001603763ffffffff168152602001602d63ffffffff168152602001603763ffffffff16815250815250908060018154018082558091505090600182039060005260206000209060070201600090919290919091506000820151816000019080519060200190620194d39291906201d9fb565b50602082015181600101556040820151816002019080519060200190620194fc9291906201d9fb565b5060608201518160030190805190602001906201951b9291906201d9fb565b506080820151816004015560a08201518160050160006101000a81548160ff02191690831515021790555060c08201518160060160008201518160000160006101000a81548163ffffffff021916908363ffffffff16021790555060208201518160000160046101000a81548163ffffffff021916908363ffffffff16021790555060408201518160000160086101000a81548163ffffffff021916908363ffffffff160217905550606082015181600001600c6101000a81548163ffffffff021916908363ffffffff16021790555060808201518160000160106101000a81548163ffffffff021916908363ffffffff16021790555060a08201518160000160146101000a81548163ffffffff021916908363ffffffff160217905550505050505060036040518060e001604052806040518060400160405280600881526020017f4b616275746f70730000000000000000000000000000000000000000000000008152508152602001608d81526020016040518060400160405280600481526020017f526f636b0000000000000000000000000000000000000000000000000000000081525081526020016040518060400160405280600581526020017f5761746572000000000000000000000000000000000000000000000000000000815250815260200161019581526020016000151581526020016040518060c00160405280603c63ffffffff168152602001607363ffffffff168152602001606963ffffffff168152602001604163ffffffff168152602001604663ffffffff168152602001605063ffffffff16815250815250908060018154018082558091505090600182039060005260206000209060070201600090919290919091506000820151816000019080519060200190620197b79291906201d9fb565b50602082015181600101556040820151816002019080519060200190620197e09291906201d9fb565b506060820151816003019080519060200190620197ff9291906201d9fb565b506080820151816004015560a08201518160050160006101000a81548160ff02191690831515021790555060c08201518160060160008201518160000160006101000a81548163ffffffff021916908363ffffffff16021790555060208201518160000160046101000a81548163ffffffff021916908363ffffffff16021790555060408201518160000160086101000a81548163ffffffff021916908363ffffffff160217905550606082015181600001600c6101000a81548163ffffffff021916908363ffffffff16021790555060808201518160000160106101000a81548163ffffffff021916908363ffffffff16021790555060a08201518160000160146101000a81548163ffffffff021916908363ffffffff160217905550505050505060036040518060e001604052806040518060400160405280600a81526020017f4165726f64616374796c000000000000000000000000000000000000000000008152508152602001608e81526020016040518060400160405280600481526020017f526f636b0000000000000000000000000000000000000000000000000000000081525081526020016040518060400160405280600681526020017f466c79696e670000000000000000000000000000000000000000000000000000815250815260200161018181526020016000151581526020016040518060c00160405280605063ffffffff168152602001606963ffffffff168152602001604163ffffffff168152602001603c63ffffffff168152602001604b63ffffffff168152602001608263ffffffff1681525081525090806001815401808255809150509060018203906000526020600020906007020160009091929091909150600082015181600001908051906020019062019a9b9291906201d9fb565b5060208201518160010155604082015181600201908051906020019062019ac49291906201d9fb565b50606082015181600301908051906020019062019ae39291906201d9fb565b506080820151816004015560a08201518160050160006101000a81548160ff02191690831515021790555060c08201518160060160008201518160000160006101000a81548163ffffffff021916908363ffffffff16021790555060208201518160000160046101000a81548163ffffffff021916908363ffffffff16021790555060408201518160000160086101000a81548163ffffffff021916908363ffffffff160217905550606082015181600001600c6101000a81548163ffffffff021916908363ffffffff16021790555060808201518160000160106101000a81548163ffffffff021916908363ffffffff16021790555060a08201518160000160146101000a81548163ffffffff021916908363ffffffff160217905550505050505060036040518060e001604052806040518060400160405280600781526020017f536e6f726c6178000000000000000000000000000000000000000000000000008152508152602001608f81526020016040518060400160405280600681526020017f4e6f726d616c000000000000000000000000000000000000000000000000000081525081526020016040518060400160405280600381526020017f6e616e0000000000000000000000000000000000000000000000000000000000815250815260200161016881526020016000151581526020016040518060c0016040528060a063ffffffff168152602001606e63ffffffff168152602001604163ffffffff168152602001604163ffffffff168152602001606e63ffffffff168152602001601e63ffffffff1681525081525090806001815401808255809150509060018203906000526020600020906007020160009091929091909150600082015181600001908051906020019062019d7f9291906201d9fb565b5060208201518160010155604082015181600201908051906020019062019da89291906201d9fb565b50606082015181600301908051906020019062019dc79291906201d9fb565b506080820151816004015560a08201518160050160006101000a81548160ff02191690831515021790555060c08201518160060160008201518160000160006101000a81548163ffffffff021916908363ffffffff16021790555060208201518160000160046101000a81548163ffffffff021916908363ffffffff16021790555060408201518160000160086101000a81548163ffffffff021916908363ffffffff160217905550606082015181600001600c6101000a81548163ffffffff021916908363ffffffff16021790555060808201518160000160106101000a81548163ffffffff021916908363ffffffff16021790555060a08201518160000160146101000a81548163ffffffff021916908363ffffffff160217905550505050505060036040518060e001604052806040518060400160405280600881526020017f4172746963756e6f0000000000000000000000000000000000000000000000008152508152602001609081526020016040518060400160405280600381526020017f496365000000000000000000000000000000000000000000000000000000000081525081526020016040518060400160405280600681526020017f466c79696e670000000000000000000000000000000000000000000000000000815250815260200161014081526020016001151581526020016040518060c00160405280605a63ffffffff168152602001605563ffffffff168152602001606463ffffffff168152602001605f63ffffffff168152602001607d63ffffffff168152602001605563ffffffff168152508152509080600181540180825580915050906001820390600052602060002090600702016000909192909190915060008201518160000190805190602001906201a0639291906201d9fb565b506020820151816001015560408201518160020190805190602001906201a08c9291906201d9fb565b5060608201518160030190805190602001906201a0ab9291906201d9fb565b506080820151816004015560a08201518160050160006101000a81548160ff02191690831515021790555060c08201518160060160008201518160000160006101000a81548163ffffffff021916908363ffffffff16021790555060208201518160000160046101000a81548163ffffffff021916908363ffffffff16021790555060408201518160000160086101000a81548163ffffffff021916908363ffffffff160217905550606082015181600001600c6101000a81548163ffffffff021916908363ffffffff16021790555060808201518160000160106101000a81548163ffffffff021916908363ffffffff16021790555060a08201518160000160146101000a81548163ffffffff021916908363ffffffff160217905550505050505060036040518060e001604052806040518060400160405280600681526020017f5a6170646f7300000000000000000000000000000000000000000000000000008152508152602001609181526020016040518060400160405280600881526020017f456c65637472696300000000000000000000000000000000000000000000000081525081526020016040518060400160405280600681526020017f466c79696e670000000000000000000000000000000000000000000000000000815250815260200161014081526020016001151581526020016040518060c00160405280605a63ffffffff168152602001605a63ffffffff168152602001605563ffffffff168152602001607d63ffffffff168152602001605a63ffffffff168152602001606463ffffffff168152508152509080600181540180825580915050906001820390600052602060002090600702016000909192909190915060008201518160000190805190602001906201a3479291906201d9fb565b506020820151816001015560408201518160020190805190602001906201a3709291906201d9fb565b5060608201518160030190805190602001906201a38f9291906201d9fb565b506080820151816004015560a08201518160050160006101000a81548160ff02191690831515021790555060c08201518160060160008201518160000160006101000a81548163ffffffff021916908363ffffffff16021790555060208201518160000160046101000a81548163ffffffff021916908363ffffffff16021790555060408201518160000160086101000a81548163ffffffff021916908363ffffffff160217905550606082015181600001600c6101000a81548163ffffffff021916908363ffffffff16021790555060808201518160000160106101000a81548163ffffffff021916908363ffffffff16021790555060a08201518160000160146101000a81548163ffffffff021916908363ffffffff160217905550505050505060036040518060e001604052806040518060400160405280600781526020017f4d6f6c74726573000000000000000000000000000000000000000000000000008152508152602001609281526020016040518060400160405280600481526020017f466972650000000000000000000000000000000000000000000000000000000081525081526020016040518060400160405280600681526020017f466c79696e670000000000000000000000000000000000000000000000000000815250815260200161014081526020016001151581526020016040518060c00160405280605a63ffffffff168152602001606463ffffffff168152602001605a63ffffffff168152602001607d63ffffffff168152602001605563ffffffff168152602001605a63ffffffff168152508152509080600181540180825580915050906001820390600052602060002090600702016000909192909190915060008201518160000190805190602001906201a62b9291906201d9fb565b506020820151816001015560408201518160020190805190602001906201a6549291906201d9fb565b5060608201518160030190805190602001906201a6739291906201d9fb565b506080820151816004015560a08201518160050160006101000a81548160ff02191690831515021790555060c08201518160060160008201518160000160006101000a81548163ffffffff021916908363ffffffff16021790555060208201518160000160046101000a81548163ffffffff021916908363ffffffff16021790555060408201518160000160086101000a81548163ffffffff021916908363ffffffff160217905550606082015181600001600c6101000a81548163ffffffff021916908363ffffffff16021790555060808201518160000160106101000a81548163ffffffff021916908363ffffffff16021790555060a08201518160000160146101000a81548163ffffffff021916908363ffffffff160217905550505050505060036040518060e001604052806040518060400160405280600781526020017f44726174696e69000000000000000000000000000000000000000000000000008152508152602001609381526020016040518060400160405280600681526020017f447261676f6e000000000000000000000000000000000000000000000000000081525081526020016040518060400160405280600381526020017f6e616e0000000000000000000000000000000000000000000000000000000000815250815260200161025881526020016000151581526020016040518060c00160405280602963ffffffff168152602001604063ffffffff168152602001602d63ffffffff168152602001603263ffffffff168152602001603263ffffffff168152602001603263ffffffff168152508152509080600181540180825580915050906001820390600052602060002090600702016000909192909190915060008201518160000190805190602001906201a90f9291906201d9fb565b506020820151816001015560408201518160020190805190602001906201a9389291906201d9fb565b5060608201518160030190805190602001906201a9579291906201d9fb565b506080820151816004015560a08201518160050160006101000a81548160ff02191690831515021790555060c08201518160060160008201518160000160006101000a81548163ffffffff021916908363ffffffff16021790555060208201518160000160046101000a81548163ffffffff021916908363ffffffff16021790555060408201518160000160086101000a81548163ffffffff021916908363ffffffff160217905550606082015181600001600c6101000a81548163ffffffff021916908363ffffffff16021790555060808201518160000160106101000a81548163ffffffff021916908363ffffffff16021790555060a08201518160000160146101000a81548163ffffffff021916908363ffffffff160217905550505050505060036040518060e001604052806040518060400160405280600981526020017f447261676f6e61697200000000000000000000000000000000000000000000008152508152602001609481526020016040518060400160405280600681526020017f447261676f6e000000000000000000000000000000000000000000000000000081525081526020016040518060400160405280600381526020017f6e616e000000000000000000000000000000000000000000000000000000000081525081526020016101e081526020016000151581526020016040518060c00160405280603d63ffffffff168152602001605463ffffffff168152602001604163ffffffff168152602001604663ffffffff168152602001604663ffffffff168152602001604663ffffffff168152508152509080600181540180825580915050906001820390600052602060002090600702016000909192909190915060008201518160000190805190602001906201abf39291906201d9fb565b506020820151816001015560408201518160020190805190602001906201ac1c9291906201d9fb565b5060608201518160030190805190602001906201ac3b9291906201d9fb565b506080820151816004015560a08201518160050160006101000a81548160ff02191690831515021790555060c08201518160060160008201518160000160006101000a81548163ffffffff021916908363ffffffff16021790555060208201518160000160046101000a81548163ffffffff021916908363ffffffff16021790555060408201518160000160086101000a81548163ffffffff021916908363ffffffff160217905550606082015181600001600c6101000a81548163ffffffff021916908363ffffffff16021790555060808201518160000160106101000a81548163ffffffff021916908363ffffffff16021790555060a08201518160000160146101000a81548163ffffffff021916908363ffffffff160217905550505050505060036040518060e001604052806040518060400160405280600981526020017f447261676f6e69746500000000000000000000000000000000000000000000008152508152602001609581526020016040518060400160405280600681526020017f447261676f6e000000000000000000000000000000000000000000000000000081525081526020016040518060400160405280600681526020017f466c79696e670000000000000000000000000000000000000000000000000000815250815260200161012c81526020016000151581526020016040518060c00160405280605b63ffffffff168152602001608663ffffffff168152602001605f63ffffffff168152602001606463ffffffff168152602001606463ffffffff168152602001605063ffffffff168152508152509080600181540180825580915050906001820390600052602060002090600702016000909192909190915060008201518160000190805190602001906201aed79291906201d9fb565b506020820151816001015560408201518160020190805190602001906201af009291906201d9fb565b5060608201518160030190805190602001906201af1f9291906201d9fb565b506080820151816004015560a08201518160050160006101000a81548160ff02191690831515021790555060c08201518160060160008201518160000160006101000a81548163ffffffff021916908363ffffffff16021790555060208201518160000160046101000a81548163ffffffff021916908363ffffffff16021790555060408201518160000160086101000a81548163ffffffff021916908363ffffffff160217905550606082015181600001600c6101000a81548163ffffffff021916908363ffffffff16021790555060808201518160000160106101000a81548163ffffffff021916908363ffffffff16021790555060a08201518160000160146101000a81548163ffffffff021916908363ffffffff160217905550505050505060036040518060e001604052806040518060400160405280600681526020017f4d657774776f00000000000000000000000000000000000000000000000000008152508152602001609681526020016040518060400160405280600781526020017f507379636869630000000000000000000000000000000000000000000000000081525081526020016040518060400160405280600381526020017f6e616e0000000000000000000000000000000000000000000000000000000000815250815260200160dc81526020016001151581526020016040518060c00160405280606a63ffffffff168152602001606e63ffffffff168152602001605a63ffffffff168152602001609a63ffffffff168152602001605a63ffffffff168152602001608263ffffffff168152508152509080600181540180825580915050906001820390600052602060002090600702016000909192909190915060008201518160000190805190602001906201b1ba9291906201d9fb565b506020820151816001015560408201518160020190805190602001906201b1e39291906201d9fb565b5060608201518160030190805190602001906201b2029291906201d9fb565b506080820151816004015560a08201518160050160006101000a81548160ff02191690831515021790555060c08201518160060160008201518160000160006101000a81548163ffffffff021916908363ffffffff16021790555060208201518160000160046101000a81548163ffffffff021916908363ffffffff16021790555060408201518160000160086101000a81548163ffffffff021916908363ffffffff160217905550606082015181600001600c6101000a81548163ffffffff021916908363ffffffff16021790555060808201518160000160106101000a81548163ffffffff021916908363ffffffff16021790555060a08201518160000160146101000a81548163ffffffff021916908363ffffffff160217905550505050505060036040518060e001604052806040518060400160405280600381526020017f4d657700000000000000000000000000000000000000000000000000000000008152508152602001609781526020016040518060400160405280600781526020017f507379636869630000000000000000000000000000000000000000000000000081525081526020016040518060400160405280600381526020017f6e616e0000000000000000000000000000000000000000000000000000000000815250815260200161012c81526020016000151581526020016040518060c00160405280606463ffffffff168152602001606463ffffffff168152602001606463ffffffff168152602001606463ffffffff168152602001606463ffffffff168152602001606463ffffffff168152508152509080600181540180825580915050906001820390600052602060002090600702016000909192909190915060008201518160000190805190602001906201b49e9291906201d9fb565b506020820151816001015560408201518160020190805190602001906201b4c79291906201d9fb565b5060608201518160030190805190602001906201b4e69291906201d9fb565b506080820151816004015560a08201518160050160006101000a81548160ff02191690831515021790555060c08201518160060160008201518160000160006101000a81548163ffffffff021916908363ffffffff16021790555060208201518160000160046101000a81548163ffffffff021916908363ffffffff16021790555060408201518160000160086101000a81548163ffffffff021916908363ffffffff160217905550606082015181600001600c6101000a81548163ffffffff021916908363ffffffff16021790555060808201518160000160106101000a81548163ffffffff021916908363ffffffff16021790555060a08201518160000160146101000a81548163ffffffff021916908363ffffffff1602179055505050505050565b600260016000600181526020019081526020016000208190555060036001600060028152602001908152602001600020819055506005600160006004815260200190815260200160002081905550600660016000600581526020019081526020016000208190555060086001600060078152602001908152602001600020819055506009600160006008815260200190815260200160002081905550600b60016000600a815260200190815260200160002081905550600c60016000600b815260200190815260200160002081905550600e60016000600d815260200190815260200160002081905550600f60016000600e81526020019081526020016000208190555060116001600060108152602001908152602001600020819055506012600160006011815260200190815260200160002081905550601460016000601381526020019081526020016000208190555060166001600060158152602001908152602001600020819055506018600160006017815260200190815260200160002081905550601a600160006019815260200190815260200160002081905550601c60016000601b815260200190815260200160002081905550601e60016000601d815260200190815260200160002081905550601f60016000601e81526020019081526020016000208190555060216001600060208152602001908152602001600020819055506022600160006021815260200190815260200160002081905550602460016000602381526020019081526020016000208190555060266001600060258152602001908152602001600020819055506028600160006027815260200190815260200160002081905550602a600160006029815260200190815260200160002081905550602c60016000602b815260200190815260200160002081905550602d60016000602c815260200190815260200160002081905550602f60016000602e81526020019081526020016000208190555060316001600060308152602001908152602001600020819055506033600160006032815260200190815260200160002081905550603560016000603481526020019081526020016000208190555060376001600060368152602001908152602001600020819055506039600160006038815260200190815260200160002081905550603b60016000603a815260200190815260200160002081905550603d60016000603c815260200190815260200160002081905550603e60016000603d815260200190815260200160002081905550604060016000603f815260200190815260200160002081905550604160016000604081526020019081526020016000208190555060436001600060428152602001908152602001600020819055506044600160006043815260200190815260200160002081905550604660016000604581526020019081526020016000208190555060476001600060468152602001908152602001600020819055506049600160006048815260200190815260200160002081905550604b60016000604a815260200190815260200160002081905550604c60016000604b815260200190815260200160002081905550604e60016000604d815260200190815260200160002081905550605060016000604f8152602001908152602001600020819055506052600160006051815260200190815260200160002081905550605560016000605481526020019081526020016000208190555060576001600060568152602001908152602001600020819055506059600160006058815260200190815260200160002081905550605b60016000605a815260200190815260200160002081905550605d60016000605c815260200190815260200160002081905550605e60016000605d81526020019081526020016000208190555060616001600060608152602001908152602001600020819055506063600160006062815260200190815260200160002081905550606560016000606481526020019081526020016000208190555060676001600060668152602001908152602001600020819055506069600160006068815260200190815260200160002081905550606e60016000606d815260200190815260200160002081905550607060016000606f81526020019081526020016000208190555060756001600060748152602001908152602001600020819055506077600160006076815260200190815260200160002081905550607960016000607881526020019081526020016000208190555060826001600060818152602001908152602001600020819055506086600160006085815260200190815260200160002081905550608b60016000608a815260200190815260200160002081905550608d60016000608c81526020019081526020016000208190555060946001600060938152602001908152602001600020819055506095600160006094815260200190815260200160002081905550565b600160026000600181526020019081526020016000208190555060016002600060028152602001908152602001600020819055506001600260006003815260200190815260200160002081905550600460026000600481526020019081526020016000208190555060046002600060058152602001908152602001600020819055506004600260006006815260200190815260200160002081905550600760026000600781526020019081526020016000208190555060076002600060088152602001908152602001600020819055506007600260006009815260200190815260200160002081905550600a60026000600a815260200190815260200160002081905550600a60026000600b815260200190815260200160002081905550600a60026000600c815260200190815260200160002081905550600d60026000600d815260200190815260200160002081905550600d60026000600e815260200190815260200160002081905550600d60026000600f8152602001908152602001600020819055506010600260006010815260200190815260200160002081905550601060026000601181526020019081526020016000208190555060106002600060128152602001908152602001600020819055506013600260006013815260200190815260200160002081905550601360026000601481526020019081526020016000208190555060156002600060158152602001908152602001600020819055506015600260006016815260200190815260200160002081905550601760026000601781526020019081526020016000208190555060176002600060188152602001908152602001600020819055506019600260006019815260200190815260200160002081905550601960026000601a815260200190815260200160002081905550601b60026000601b815260200190815260200160002081905550601b60026000601c815260200190815260200160002081905550601d60026000601d815260200190815260200160002081905550601d60026000601e815260200190815260200160002081905550601d60026000601f8152602001908152602001600020819055506020600260006020815260200190815260200160002081905550602060026000602181526020019081526020016000208190555060206002600060228152602001908152602001600020819055506023600260006023815260200190815260200160002081905550602360026000602481526020019081526020016000208190555060256002600060258152602001908152602001600020819055506025600260006026815260200190815260200160002081905550602760026000602781526020019081526020016000208190555060276002600060288152602001908152602001600020819055506029600260006029815260200190815260200160002081905550602960026000602a815260200190815260200160002081905550602b60026000602b815260200190815260200160002081905550602b60026000602c815260200190815260200160002081905550602b60026000602d815260200190815260200160002081905550602e60026000602e815260200190815260200160002081905550602e60026000602f8152602001908152602001600020819055506030600260006030815260200190815260200160002081905550603060026000603181526020019081526020016000208190555060326002600060328152602001908152602001600020819055506032600260006033815260200190815260200160002081905550603460026000603481526020019081526020016000208190555060346002600060358152602001908152602001600020819055506036600260006036815260200190815260200160002081905550603660026000603781526020019081526020016000208190555060386002600060388152602001908152602001600020819055506038600260006039815260200190815260200160002081905550603a60026000603a815260200190815260200160002081905550603a60026000603b815260200190815260200160002081905550603c60026000603c815260200190815260200160002081905550603c60026000603d815260200190815260200160002081905550603c60026000603e815260200190815260200160002081905550603f60026000603f815260200190815260200160002081905550603f600260006040815260200190815260200160002081905550603f60026000604181526020019081526020016000208190555060426002600060428152602001908152602001600020819055506042600260006043815260200190815260200160002081905550604260026000604481526020019081526020016000208190555060456002600060458152602001908152602001600020819055506045600260006046815260200190815260200160002081905550604560026000604781526020019081526020016000208190555060486002600060488152602001908152602001600020819055506048600260006049815260200190815260200160002081905550604a60026000604a815260200190815260200160002081905550604a60026000604b815260200190815260200160002081905550604a60026000604c815260200190815260200160002081905550604d60026000604d815260200190815260200160002081905550604d60026000604e815260200190815260200160002081905550604f60026000604f815260200190815260200160002081905550604f600260006050815260200190815260200160002081905550605160026000605181526020019081526020016000208190555060516002600060528152602001908152602001600020819055506053600260006053815260200190815260200160002081905550605460026000605481526020019081526020016000208190555060546002600060558152602001908152602001600020819055506056600260006056815260200190815260200160002081905550605660026000605781526020019081526020016000208190555060586002600060588152602001908152602001600020819055506058600260006059815260200190815260200160002081905550605a60026000605a815260200190815260200160002081905550605a60026000605b815260200190815260200160002081905550605c60026000605c815260200190815260200160002081905550605c60026000605d815260200190815260200160002081905550605c60026000605e815260200190815260200160002081905550605f60026000605f8152602001908152602001600020819055506060600260006060815260200190815260200160002081905550606060026000606181526020019081526020016000208190555060626002600060628152602001908152602001600020819055506062600260006063815260200190815260200160002081905550606460026000606481526020019081526020016000208190555060646002600060658152602001908152602001600020819055506066600260006066815260200190815260200160002081905550606660026000606781526020019081526020016000208190555060686002600060688152602001908152602001600020819055506068600260006069815260200190815260200160002081905550606a60026000606a815260200190815260200160002081905550606b60026000606b815260200190815260200160002081905550606c60026000606c815260200190815260200160002081905550606d60026000606d815260200190815260200160002081905550606d60026000606e815260200190815260200160002081905550606f60026000606f815260200190815260200160002081905550606f600260006070815260200190815260200160002081905550607160026000607181526020019081526020016000208190555060726002600060728152602001908152602001600020819055506073600260006073815260200190815260200160002081905550607460026000607481526020019081526020016000208190555060746002600060758152602001908152602001600020819055506076600260006076815260200190815260200160002081905550607660026000607781526020019081526020016000208190555060786002600060788152602001908152602001600020819055506078600260006079815260200190815260200160002081905550607a60026000607a815260200190815260200160002081905550607b60026000607b815260200190815260200160002081905550607c60026000607c815260200190815260200160002081905550607d60026000607d815260200190815260200160002081905550607e60026000607e815260200190815260200160002081905550607f60026000607f8152602001908152602001600020819055506080600260006080815260200190815260200160002081905550608160026000608181526020019081526020016000208190555060816002600060828152602001908152602001600020819055506083600260006083815260200190815260200160002081905550608460026000608481526020019081526020016000208190555060856002600060858152602001908152602001600020819055506085600260006086815260200190815260200160002081905550608760026000608781526020019081526020016000208190555060886002600060888152602001908152602001600020819055506089600260006089815260200190815260200160002081905550608a60026000608a815260200190815260200160002081905550608a60026000608b815260200190815260200160002081905550608c60026000608c815260200190815260200160002081905550608c60026000608d815260200190815260200160002081905550608e60026000608e815260200190815260200160002081905550608f60026000608f81526020019081526020016000208190555060906002600060908152602001908152602001600020819055506091600260006091815260200190815260200160002081905550609260026000609281526020019081526020016000208190555060936002600060938152602001908152602001600020819055506093600260006094815260200190815260200160002081905550609360026000609581526020019081526020016000208190555060966002600060968152602001908152602001600020819055506097600260006097815260200190815260200160002081905550565b600080600b60003373ffffffffffffffffffffffffffffffffffffffff1673ffffffffffffffffffffffffffffffffffffffff16815260200190815260200160002054146201cccf57600080fd5b60008214806201ccdf5750600382145b806201cceb5750600682145b6201ccf557600080fd5b60006201cd11846201cd3b640100000000026401000000009004565b90506201cd328482600080876201cdd7640100000000026401000000009004565b91505092915050565b600080826040516020018082805190602001908083835b602083106201cd7757805182526020820191506020810190506020830392506201cd52565b6001836020036101000a0380198251168184511680821785525050505050509050019150506040516020818303038152906040528051906020012060019004905060004443019050600554818301816201cdcd57fe5b0692505050919050565b6000606060066040519080825280602002602001820160405280156201ce0c5781602001602082028038833980820191505090505b5090506000869050600080600090505b60068110156201ce7a57600a83816201ce3157fe5b069150818482815181106201ce4257fe5b602002602001019063ffffffff16908163ffffffff1681525050600a828403816201ce6957fe5b04925080806001019150506201ce1c565b506201ce856201da82565b600386815481106201ce9357fe5b90600052602060002090600702016040518060e0016040529081600082018054600181600116156101000203166002900480601f0160208091040260200160405190810160405280929190818152602001828054600181600116156101000203166002900480156201cf495780601f106201cf1d576101008083540402835291602001916201cf49565b820191906000526020600020905b8154815290600101906020018083116201cf2b57829003601f168201915b5050505050815260200160018201548152602001600282018054600181600116156101000203166002900480601f0160208091040260200160405190810160405280929190818152602001828054600181600116156101000203166002900480156201cff95780601f106201cfcd576101008083540402835291602001916201cff9565b820191906000526020600020905b8154815290600101906020018083116201cfdb57829003601f168201915b50505050508152602001600382018054600181600116156101000203166002900480601f0160208091040260200160405190810160405280929190818152602001828054600181600116156101000203166002900480156201d09f5780601f106201d073576101008083540402835291602001916201d09f565b820191906000526020600020905b8154815290600101906020018083116201d08157829003601f168201915b50505050508152602001600482015481526020016005820160009054906101000a900460ff16151515158152602001600682016040518060c00160405290816000820160009054906101000a900463ffffffff1663ffffffff1663ffffffff1681526020016000820160049054906101000a900463ffffffff1663ffffffff1663ffffffff1681526020016000820160089054906101000a900463ffffffff1663ffffffff1663ffffffff16815260200160008201600c9054906101000a900463ffffffff1663ffffffff1663ffffffff1681526020016000820160109054906101000a900463ffffffff1663ffffffff1663ffffffff1681526020016000820160149054906101000a900463ffffffff1663ffffffff1663ffffffff16815250508152505090506201d20d846000815181106201d1d957fe5b60200260200101518260c001516000015163ffffffff166201d9176401000000000262002120179091906401000000009004565b8160c001516000019063ffffffff16908163ffffffff16815250506201d26e846001815181106201d23a57fe5b60200260200101518260c001516020015163ffffffff166201d9176401000000000262002120179091906401000000009004565b8160c001516020019063ffffffff16908163ffffffff16815250506201d2cf846002815181106201d29b57fe5b60200260200101518260c001516040015163ffffffff166201d9176401000000000262002120179091906401000000009004565b8160c001516040019063ffffffff16908163ffffffff16815250506201d330846003815181106201d2fc57fe5b60200260200101518260c001516060015163ffffffff166201d9176401000000000262002120179091906401000000009004565b8160c001516060019063ffffffff16908163ffffffff16815250506201d391846004815181106201d35d57fe5b60200260200101518260c001516080015163ffffffff166201d9176401000000000262002120179091906401000000009004565b8160c001516080019063ffffffff16908163ffffffff16815250506201d3f2846005815181106201d3be57fe5b60200260200101518260c0015160a0015163ffffffff166201d9176401000000000262002120179091906401000000009004565b8160c0015160a0019063ffffffff16908163ffffffff16815250506201d4176201dac9565b604051806101e001604052808c8152602001836000015181526020018360400151815260200183606001518152602001600163ffffffff168152602001600063ffffffff168152602001600063ffffffff1681526020016201d4888d6201d940640100000000026401000000009004565b151581526020018b81526020018a815260200189815260200160008152602001836020015181526020018360a00151151581526020018360c001518152509050600060016009839080600181540180825580915050906001820390600052602060002090600c02016000909192909190915060008201518160000190805190602001906201d5189291906201d9fb565b5060208201518160010190805190602001906201d5379291906201d9fb565b5060408201518160020190805190602001906201d5569291906201d9fb565b5060608201518160030190805190602001906201d5759291906201d9fb565b5060808201518160040160006101000a81548163ffffffff021916908363ffffffff16021790555060a08201518160040160046101000a81548163ffffffff021916908363ffffffff16021790555060c08201518160040160086101000a81548163ffffffff021916908363ffffffff16021790555060e082015181600401600c6101000a81548160ff021916908315150217905550610100820151816005015561012082015181600601556101408201518160070155610160820151816008015561018082015181600901556101a082015181600a0160006101000a81548160ff0219169083151502179055506101c082015181600b0160008201518160000160006101000a81548163ffffffff021916908363ffffffff16021790555060208201518160000160046101000a81548163ffffffff021916908363ffffffff16021790555060408201518160000160086101000a81548163ffffffff021916908363ffffffff160217905550606082015181600001600c6101000a81548163ffffffff021916908363ffffffff16021790555060808201518160000160106101000a81548163ffffffff021916908363ffffffff16021790555060a08201518160000160146101000a81548163ffffffff021916908363ffffffff1602179055505050505003905033600a600083815260200190815260200160002060006101000a81548173ffffffffffffffffffffffffffffffffffffffff021916908373ffffffffffffffffffffffffffffffffffffffff1602179055506201d8136001600b60003373ffffffffffffffffffffffffffffffffffffffff1673ffffffffffffffffffffffffffffffffffffffff168152602001908152602001600020546201d9de64010000000002620014dc179091906401000000009004565b600b60003373ffffffffffffffffffffffffffffffffffffffff1673ffffffffffffffffffffffffffffffffffffffff168152602001908152602001600020819055507fb2ddd0094c7d8b02387161898cbaa1bbcb4cee4731fdeceb76548071724adcd2818d8d6040518084815260200180602001838152602001828103825284818151815260200191508051906020019080838360005b838110156201d8c85780820151818401526020810190506201d8ab565b50505050905090810190601f1680156201d8f65780820380516001836020036101000a031916815260200191505b5094505050505060405180910390a180965050505050505095945050505050565b60008082840190508363ffffffff168163ffffffff1610156201d93657fe5b8091505092915050565b600080826040516020018082805190602001908083835b602083106201d97c57805182526020820191506020810190506020830392506201d957565b6001836020036101000a038019825116818451168082178552505050505050905001915050604051602081830303815290604052805190602001206001900490506000444301905060006002828401816201d9d357fe5b061492505050919050565b6000808284019050838110156201d9f157fe5b8091505092915050565b828054600181600116156101000203166002900490600052602060002090601f016020900481019282601f106201da3e57805160ff19168380011785556201da6f565b828001600101855582156201da6f579182015b828111156201da6e5782518255916020019190600101906201da51565b5b5090506201da7e91906201db5d565b5090565b6040518060e0016040528060608152602001600081526020016060815260200160608152602001600081526020016000151581526020016201dac36201db85565b81525090565b604051806101e0016040528060608152602001606081526020016060815260200160608152602001600063ffffffff168152602001600063ffffffff168152602001600063ffffffff16815260200160001515815260200160008152602001600081526020016000815260200160008152602001600081526020016000151581526020016201db576201db85565b81525090565b6201db8291905b808211156201db7e5760008160009055506001016201db64565b5090565b90565b6040518060c00160405280600063ffffffff168152602001600063ffffffff168152602001600063ffffffff168152602001600063ffffffff168152602001600063ffffffff168152602001600063ffffffff1681525090565b6123ee806201dbef6000396000f3fe608060405234801561001057600080fd5b506004361061011d576000357c01000000000000000000000000000000000000000000000000000000009004806372f42958116100b45780638f32d59b116100835780638f32d59b1461079e578063bdfb5269146107c0578063c8e0d77414610899578063f2fde38b146109465761011d565b806372f42958146104c4578063835d75ab1461056b57806387f1fbf3146106f55780638da5cb5b146107545761011d565b806342945e48116100f057806342945e481461041057806351067f001461042e5780636dd25f6a1461044c578063715018a6146104ba5761011d565b80630dc2f10a1461012257806325540917146103325780632d90c7a7146103805780632f7467b3146103a2575b600080fd5b61014e6004803603602081101561013857600080fd5b810190808035906020019092919050505061098a565b60405180806020018060200180602001806020018863ffffffff1663ffffffff1681526020018781526020018615151515815260200185810385528c818151815260200191508051906020019080838360005b838110156101bc5780820151818401526020810190506101a1565b50505050905090810190601f1680156101e95780820380516001836020036101000a031916815260200191505b5085810384528b818151815260200191508051906020019080838360005b83811015610222578082015181840152602081019050610207565b50505050905090810190601f16801561024f5780820380516001836020036101000a031916815260200191505b5085810383528a818151815260200191508051906020019080838360005b8381101561028857808201518184015260208101905061026d565b50505050905090810190601f1680156102b55780820380516001836020036101000a031916815260200191505b50858103825289818151815260200191508051906020019080838360005b838110156102ee5780820151818401526020810190506102d3565b50505050905090810190601f16801561031b5780820380516001836020036101000a031916815260200191505b509b50505050505050505050505060405180910390f35b61035e6004803603602081101561034857600080fd5b8101908080359060200190929190505050610c79565b604051808263ffffffff1663ffffffff16815260200191505060405180910390f35b610388610cb6565b604051808215151515815260200191505060405180910390f35b6103ce600480360360208110156103b857600080fd5b8101908080359060200190929190505050610cff565b604051808273ffffffffffffffffffffffffffffffffffffffff1673ffffffffffffffffffffffffffffffffffffffff16815260200191505060405180910390f35b610418610d32565b6040518082815260200191505060405180910390f35b610436610d3f565b6040518082815260200191505060405180910390f35b6104786004803603602081101561046257600080fd5b8101908080359060200190929190505050610d86565b604051808663ffffffff1663ffffffff168152602001851515151581526020018481526020018381526020018281526020019550505050505060405180910390f35b6104c2610df6565b005b6104f0600480360360208110156104da57600080fd5b8101908080359060200190929190505050610ec6565b6040518080602001828103825283818151815260200191508051906020019080838360005b83811015610530578082015181840152602081019050610515565b50505050905090810190601f16801561055d5780820380516001836020036101000a031916815260200191505b509250505060405180910390f35b6105976004803603602081101561058157600080fd5b8101908080359060200190929190505050610f89565b6040518080602001806020018060200185151515158152602001848103845288818151815260200191508051906020019080838360005b838110156105e95780820151818401526020810190506105ce565b50505050905090810190601f1680156106165780820380516001836020036101000a031916815260200191505b50848103835287818151815260200191508051906020019080838360005b8381101561064f578082015181840152602081019050610634565b50505050905090810190601f16801561067c5780820380516001836020036101000a031916815260200191505b50848103825286818151815260200191508051906020019080838360005b838110156106b557808201518184015260208101905061069a565b50505050905090810190601f1680156106e25780820380516001836020036101000a031916815260200191505b5097505050505050505060405180910390f35b6106fd6111b3565b6040518080602001828103825283818151815260200191508051906020019060200280838360005b83811015610740578082015181840152602081019050610725565b505050509050019250505060405180910390f35b61075c6112ec565b604051808273ffffffffffffffffffffffffffffffffffffffff1673ffffffffffffffffffffffffffffffffffffffff16815260200191505060405180910390f35b6107a6611315565b604051808215151515815260200191505060405180910390f35b610883600480360360408110156107d657600080fd5b81019080803590602001906401000000008111156107f357600080fd5b82018360208201111561080557600080fd5b8035906020019184600183028401116401000000008311171561082757600080fd5b91908080601f016020809104026020016040519081016040528093929190818152602001838380828437600081840152601f19601f8201169050808301925050505050505091929192908035906020019092919050505061136c565b6040518082815260200191505060405180910390f35b6108c5600480360360208110156108af57600080fd5b8101908080359060200190929190505050611400565b604051808763ffffffff1663ffffffff1681526020018663ffffffff1663ffffffff1681526020018563ffffffff1663ffffffff1681526020018463ffffffff1663ffffffff1681526020018363ffffffff1663ffffffff1681526020018263ffffffff1663ffffffff168152602001965050505050505060405180910390f35b6109886004803603602081101561095c57600080fd5b81019080803573ffffffffffffffffffffffffffffffffffffffff1690602001909291905050506114bf565b005b606080606080600080600080600989815481106109a357fe5b90600052602060002090600c02019050806000018160010182600201836003018460040160009054906101000a900463ffffffff16856009015486600a0160009054906101000a900460ff16868054600181600116156101000203166002900480601f016020809104026020016040519081016040528092919081815260200182805460018160011615610100020316600290048015610a845780601f10610a5957610100808354040283529160200191610a84565b820191906000526020600020905b815481529060010190602001808311610a6757829003601f168201915b50505050509650858054600181600116156101000203166002900480601f016020809104026020016040519081016040528092919081815260200182805460018160011615610100020316600290048015610b205780601f10610af557610100808354040283529160200191610b20565b820191906000526020600020905b815481529060010190602001808311610b0357829003601f168201915b50505050509550848054600181600116156101000203166002900480601f016020809104026020016040519081016040528092919081815260200182805460018160011615610100020316600290048015610bbc5780601f10610b9157610100808354040283529160200191610bbc565b820191906000526020600020905b815481529060010190602001808311610b9f57829003601f168201915b50505050509450838054600181600116156101000203166002900480601f016020809104026020016040519081016040528092919081815260200182805460018160011615610100020316600290048015610c585780601f10610c2d57610100808354040283529160200191610c58565b820191906000526020600020905b815481529060010190602001808311610c3b57829003601f168201915b50505050509350975097509750975097509750975050919395979092949650565b60008060098381548110610c8957fe5b90600052602060002090600c020190508060040160049054906101000a900463ffffffff16915050919050565b600080600b60003373ffffffffffffffffffffffffffffffffffffffff1673ffffffffffffffffffffffffffffffffffffffff1681526020019081526020016000205414905090565b600a6020528060005260406000206000915054906101000a900473ffffffffffffffffffffffffffffffffffffffff1681565b6000600980549050905090565b6000600b60003373ffffffffffffffffffffffffffffffffffffffff1673ffffffffffffffffffffffffffffffffffffffff16815260200190815260200160002054905090565b60008060008060008060098781548110610d9c57fe5b90600052602060002090600c020190508060040160089054906101000a900463ffffffff1681600401600c9054906101000a900460ff16826006015483600701548460080154955095509550955095505091939590929450565b610dfe611315565b610e0757600080fd5b600073ffffffffffffffffffffffffffffffffffffffff166000809054906101000a900473ffffffffffffffffffffffffffffffffffffffff1673ffffffffffffffffffffffffffffffffffffffff167f8be0079c531659141344cd1fd0a4f28419497f9722a3daafe3b4186f6b6457e060405160405180910390a360008060006101000a81548173ffffffffffffffffffffffffffffffffffffffff021916908373ffffffffffffffffffffffffffffffffffffffff160217905550565b606060036001830381548110610ed857fe5b90600052602060002090600702016000018054600181600116156101000203166002900480601f016020809104026020016040519081016040528092919081815260200182805460018160011615610100020316600290048015610f7d5780601f10610f5257610100808354040283529160200191610f7d565b820191906000526020600020905b815481529060010190602001808311610f6057829003601f168201915b50505050509050919050565b606080606060008060036001870381548110610fa157fe5b906000526020600020906007020190508060000181600201826003018360050160009054906101000a900460ff16838054600181600116156101000203166002900480601f0160208091040260200160405190810160405280929190818152602001828054600181600116156101000203166002900480156110645780601f1061103957610100808354040283529160200191611064565b820191906000526020600020905b81548152906001019060200180831161104757829003601f168201915b50505050509350828054600181600116156101000203166002900480601f0160208091040260200160405190810160405280929190818152602001828054600181600116156101000203166002900480156111005780601f106110d557610100808354040283529160200191611100565b820191906000526020600020905b8154815290600101906020018083116110e357829003601f168201915b50505050509250818054600181600116156101000203166002900480601f01602080910402602001604051908101604052809291908181526020018280546001816001161561010002031660029004801561119c5780601f106111715761010080835404028352916020019161119c565b820191906000526020600020905b81548152906001019060200180831161117f57829003601f168201915b505050505091509450945094509450509193509193565b606080600b60003373ffffffffffffffffffffffffffffffffffffffff1673ffffffffffffffffffffffffffffffffffffffff168152602001908152602001600020546040519080825280602002602001820160405280156112245781602001602082028038833980820191505090505b509050600080905060008090505b6009805490508110156112e3573373ffffffffffffffffffffffffffffffffffffffff16600a600083815260200190815260200160002060009054906101000a900473ffffffffffffffffffffffffffffffffffffffff1673ffffffffffffffffffffffffffffffffffffffff1614156112d657808383815181106112b357fe5b6020026020010181815250506112d36001836114dc90919063ffffffff16565b91505b8080600101915050611232565b50819250505090565b60008060009054906101000a900473ffffffffffffffffffffffffffffffffffffffff16905090565b60008060009054906101000a900473ffffffffffffffffffffffffffffffffffffffff1673ffffffffffffffffffffffffffffffffffffffff163373ffffffffffffffffffffffffffffffffffffffff1614905090565b600080600b60003373ffffffffffffffffffffffffffffffffffffffff1673ffffffffffffffffffffffffffffffffffffffff16815260200190815260200160002054146113b957600080fd5b60008214806113c85750600382145b806113d35750600682145b6113dc57600080fd5b60006113e7846114f8565b90506113f7848260008087611591565b91505092915050565b60008060008060008060006009888154811061141857fe5b90600052602060002090600c0201600b0190508060000160009054906101000a900463ffffffff168160000160049054906101000a900463ffffffff168260000160089054906101000a900463ffffffff1683600001600c9054906101000a900463ffffffff168460000160109054906101000a900463ffffffff168560000160149054906101000a900463ffffffff169650965096509650965096505091939550919395565b6114c7611315565b6114d057600080fd5b6114d981612028565b50565b6000808284019050838110156114ee57fe5b8091505092915050565b600080826040516020018082805190602001908083835b60208310611532578051825260208201915060208101905060208303925061150f565b6001836020036101000a03801982511681845116808217855250505050505090500191505060405160208183030381529060405280519060200120600190049050600044430190506005548183018161158757fe5b0692505050919050565b6000606060066040519080825280602002602001820160405280156115c55781602001602082028038833980820191505090505b5090506000869050600080600090505b600681101561162e57600a83816115e857fe5b069150818482815181106115f857fe5b602002602001019063ffffffff16908163ffffffff1681525050600a8284038161161e57fe5b04925080806001019150506115d5565b506116376121e3565b6003868154811061164457fe5b90600052602060002090600702016040518060e0016040529081600082018054600181600116156101000203166002900480601f0160208091040260200160405190810160405280929190818152602001828054600181600116156101000203166002900480156116f65780601f106116cb576101008083540402835291602001916116f6565b820191906000526020600020905b8154815290600101906020018083116116d957829003601f168201915b5050505050815260200160018201548152602001600282018054600181600116156101000203166002900480601f0160208091040260200160405190810160405280929190818152602001828054600181600116156101000203166002900480156117a25780601f10611777576101008083540402835291602001916117a2565b820191906000526020600020905b81548152906001019060200180831161178557829003601f168201915b50505050508152602001600382018054600181600116156101000203166002900480601f0160208091040260200160405190810160405280929190818152602001828054600181600116156101000203166002900480156118445780601f1061181957610100808354040283529160200191611844565b820191906000526020600020905b81548152906001019060200180831161182757829003601f168201915b50505050508152602001600482015481526020016005820160009054906101000a900460ff16151515158152602001600682016040518060c00160405290816000820160009054906101000a900463ffffffff1663ffffffff1663ffffffff1681526020016000820160049054906101000a900463ffffffff1663ffffffff1663ffffffff1681526020016000820160089054906101000a900463ffffffff1663ffffffff1663ffffffff16815260200160008201600c9054906101000a900463ffffffff1663ffffffff1663ffffffff1681526020016000820160109054906101000a900463ffffffff1663ffffffff1663ffffffff1681526020016000820160149054906101000a900463ffffffff1663ffffffff1663ffffffff16815250508152505090506119a18460008151811061197c57fe5b60200260200101518260c001516000015163ffffffff1661212090919063ffffffff16565b8160c001516000019063ffffffff16908163ffffffff16815250506119f1846001815181106119cc57fe5b60200260200101518260c001516020015163ffffffff1661212090919063ffffffff16565b8160c001516020019063ffffffff16908163ffffffff1681525050611a4184600281518110611a1c57fe5b60200260200101518260c001516040015163ffffffff1661212090919063ffffffff16565b8160c001516040019063ffffffff16908163ffffffff1681525050611a9184600381518110611a6c57fe5b60200260200101518260c001516060015163ffffffff1661212090919063ffffffff16565b8160c001516060019063ffffffff16908163ffffffff1681525050611ae184600481518110611abc57fe5b60200260200101518260c001516080015163ffffffff1661212090919063ffffffff16565b8160c001516080019063ffffffff16908163ffffffff1681525050611b3184600581518110611b0c57fe5b60200260200101518260c0015160a0015163ffffffff1661212090919063ffffffff16565b8160c0015160a0019063ffffffff16908163ffffffff1681525050611b54612228565b604051806101e001604052808c8152602001836000015181526020018360400151815260200183606001518152602001600163ffffffff168152602001600063ffffffff168152602001600063ffffffff168152602001611bb48d612148565b151581526020018b81526020018a815260200189815260200160008152602001836020015181526020018360a00151151581526020018360c001518152509050600060016009839080600181540180825580915050906001820390600052602060002090600c0201600090919290919091506000820151816000019080519060200190611c429291906122ba565b506020820151816001019080519060200190611c5f9291906122ba565b506040820151816002019080519060200190611c7c9291906122ba565b506060820151816003019080519060200190611c999291906122ba565b5060808201518160040160006101000a81548163ffffffff021916908363ffffffff16021790555060a08201518160040160046101000a81548163ffffffff021916908363ffffffff16021790555060c08201518160040160086101000a81548163ffffffff021916908363ffffffff16021790555060e082015181600401600c6101000a81548160ff021916908315150217905550610100820151816005015561012082015181600601556101408201518160070155610160820151816008015561018082015181600901556101a082015181600a0160006101000a81548160ff0219169083151502179055506101c082015181600b0160008201518160000160006101000a81548163ffffffff021916908363ffffffff16021790555060208201518160000160046101000a81548163ffffffff021916908363ffffffff16021790555060408201518160000160086101000a81548163ffffffff021916908363ffffffff160217905550606082015181600001600c6101000a81548163ffffffff021916908363ffffffff16021790555060808201518160000160106101000a81548163ffffffff021916908363ffffffff16021790555060a08201518160000160146101000a81548163ffffffff021916908363ffffffff1602179055505050505003905033600a600083815260200190815260200160002060006101000a81548173ffffffffffffffffffffffffffffffffffffffff021916908373ffffffffffffffffffffffffffffffffffffffff160217905550611f276001600b60003373ffffffffffffffffffffffffffffffffffffffff1673ffffffffffffffffffffffffffffffffffffffff168152602001908152602001600020546114dc90919063ffffffff16565b600b60003373ffffffffffffffffffffffffffffffffffffffff1673ffffffffffffffffffffffffffffffffffffffff168152602001908152602001600020819055507fb2ddd0094c7d8b02387161898cbaa1bbcb4cee4731fdeceb76548071724adcd2818d8d6040518084815260200180602001838152602001828103825284818151815260200191508051906020019080838360005b83811015611fda578082015181840152602081019050611fbf565b50505050905090810190601f1680156120075780820380516001836020036101000a031916815260200191505b5094505050505060405180910390a180965050505050505095945050505050565b600073ffffffffffffffffffffffffffffffffffffffff168173ffffffffffffffffffffffffffffffffffffffff16141561206257600080fd5b8073ffffffffffffffffffffffffffffffffffffffff166000809054906101000a900473ffffffffffffffffffffffffffffffffffffffff1673ffffffffffffffffffffffffffffffffffffffff167f8be0079c531659141344cd1fd0a4f28419497f9722a3daafe3b4186f6b6457e060405160405180910390a3806000806101000a81548173ffffffffffffffffffffffffffffffffffffffff021916908373ffffffffffffffffffffffffffffffffffffffff16021790555050565b60008082840190508363ffffffff168163ffffffff16101561213e57fe5b8091505092915050565b600080826040516020018082805190602001908083835b60208310612182578051825260208201915060208101905060208303925061215f565b6001836020036101000a038019825116818451168082178552505050505050905001915050604051602081830303815290604052805190602001206001900490506000444301905060006002828401816121d857fe5b061492505050919050565b6040518060e00160405280606081526020016000815260200160608152602001606081526020016000815260200160001515815260200161222261233a565b81525090565b604051806101e0016040528060608152602001606081526020016060815260200160608152602001600063ffffffff168152602001600063ffffffff168152602001600063ffffffff16815260200160001515815260200160008152602001600081526020016000815260200160008152602001600081526020016000151581526020016122b461233a565b81525090565b828054600181600116156101000203166002900490600052602060002090601f016020900481019282601f106122fb57805160ff1916838001178555612329565b82800160010185558215612329579182015b8281111561232857825182559160200191906001019061230d565b5b5090506123369190612394565b5090565b6040518060c00160405280600063ffffffff168152602001600063ffffffff168152602001600063ffffffff168152602001600063ffffffff168152602001600063ffffffff168152602001600063ffffffff1681525090565b6123b691905b808211156123b257600081600090555060010161239a565b5090565b9056fea265627a7a72315820b652b0334073657d796284bad4a1edf788383eb766b1d3bcf7a22f127d906a0564736f6c63430005100032",
  "source": "pragma solidity >=0.5.0 <0.6.0;\n\nimport \"./SafeMath.sol\";\nimport \"./Base.sol\";\n\ncontract PokemonCardFactory is Base {\n\tusing SafeMath for uint256;\n\tusing SafeMath32 for uint32;\n\tusing SafeMath16 for uint16;\n\n\tevent NewPokemon(uint pokemonId, string name, uint dna);\n\n\tuint dnaDigits = 16;\n\tuint dnaModulus = 10 ** dnaDigits;\n\tuint battleCooldownTime = 5;\n\tuint breedingCooldownTime = 5;\n\tuint randNonce = 0;\n\n\tstruct Pokemon {\n\t\tstring nickname;\n\t\tstring name;\n\t\tstring type1;\n\t\tstring type2;\n\t\tuint32 level;\n\t\tuint32 battleReadyTime;\n\t\tuint32 breedingReadyTime;\n\t\tbool gender;\n\t\tuint dna;\n\t\tuint fatherId;\n\t\tuint motherId;\n\t\tuint breedingWithId;\n\t\tuint pokemonNumber;\n\t\tbool legendary;\n\t\tBaseStats baseStats;\n\t}\n\n\tPokemon[] pokemons;\n\n\tmapping (uint => address payable) public pokemonToOwner;\n\tmapping (address => uint) ownerPokemonCount;\n\n\tconstructor() public {\n\t\tcreateStarterPokemon(\"Initial\", 0);\n\t}\n\n\tfunction _generateRandomGender(string memory _str) private view returns (bool) {\n\t\tuint rand = uint(keccak256(abi.encodePacked(_str)));\n\t\tuint secureRand = uint(block.number + block.difficulty);\n\t\treturn ((rand + secureRand) % 2 == 0);\n\t}\n\n\tfunction _generateRandomDna(string memory _str) private view returns (uint) {\n\t\tuint rand = uint(keccak256(abi.encodePacked(_str)));\n\t\tuint secureRand = uint(block.number + block.difficulty);\n\t\treturn (rand + secureRand) % dnaModulus;\n\t}\n\n\tfunction _createPokemon(string memory _name, uint _dna, uint _fatherId, uint _motherId, uint _pokemonNumber) internal returns (uint) {\n\t\tuint32[] memory variant = new uint32[](6);\n\t\tuint clone = _dna;\n\t\tuint temp;\n\t\tfor (uint index = 0; index < 6; index++) {\n\t\t\ttemp = clone % 10;\n\t\t\tvariant[index] = uint32(temp);\n\t\t\tclone = (clone - temp) / 10;\n\t\t}\n\n\t\tBasePokemon memory basePokemon = basePokemons[_pokemonNumber];\n\t\tbasePokemon.stats.hp = basePokemon.stats.hp.add(variant[0]);\n\t\tbasePokemon.stats.attack = basePokemon.stats.attack.add(variant[1]);\n\t\tbasePokemon.stats.defense = basePokemon.stats.defense.add(variant[2]);\n\t\tbasePokemon.stats.specialAttack = basePokemon.stats.specialAttack.add(variant[3]);\n\t\tbasePokemon.stats.specialDefense = basePokemon.stats.specialDefense.add(variant[4]);\n\t\tbasePokemon.stats.speed = basePokemon.stats.speed.add(variant[5]);\n\n\t\tPokemon memory _pokemon = Pokemon({\n\t\t\tnickname: _name,\n\t\t\tname: basePokemon.name,\n\t\t\ttype1: basePokemon.type1,\n\t\t\ttype2: basePokemon.type2,\n\t\t\tpokemonNumber: basePokemon.number,\n\t\t\tlegendary: basePokemon.legendary,\n\t\t\tlevel: 1,\n\t\t\tbattleReadyTime: 0,\n\t\t\tbreedingReadyTime: 0,\n\t\t\tgender: _generateRandomGender(_name),\n\t\t\tdna: _dna,\n\t\t\tfatherId: _fatherId,\n\t\t\tmotherId: _motherId,\n\t\t\tbreedingWithId: 0,\n\t\t\tbaseStats: basePokemon.stats\n\t\t\t});\n\n\t\tuint id = pokemons.push(_pokemon) - 1;\n\t\tpokemonToOwner[id] = msg.sender;\n\t\townerPokemonCount[msg.sender] = ownerPokemonCount[msg.sender].add(1);\n\t\temit NewPokemon(id, _name, _dna);\n\t\treturn id;\n\t}\n\n\tfunction createStarterPokemon(string memory _nickname, uint _pokemonNumber) public returns (uint){\n\t\trequire(ownerPokemonCount[msg.sender] == 0);\n\t\trequire(_pokemonNumber == 0 || _pokemonNumber == 3 || _pokemonNumber == 6);\n\t\tuint randDna = _generateRandomDna(_nickname);\n\t\treturn _createPokemon(_nickname, randDna, 0, 0, _pokemonNumber);\n\t}\n\n\tfunction _breedPokemon(string memory _nickname, uint _fatherId, uint _motherId) internal returns (uint){\n\t\tPokemon storage _mother = pokemons[_motherId];\n\t\tuint _pokemonNumber = _mother.pokemonNumber;\n\t\tuint _originPokemonNumber = origin[_pokemonNumber]-1;\n\t\tuint randDna = _generateRandomDna(_nickname);\n\t\treturn _createPokemon(_nickname, randDna, _fatherId, _motherId, _originPokemonNumber);\n\t}\n\n\tmodifier ownerOfPokemon(uint _pokemonId) {\n\t\trequire(msg.sender == pokemonToOwner[_pokemonId]);\n\t\t_;\n\t}\n\n\tfunction isNewTrainer() public view returns (bool) {\n\t\treturn (ownerPokemonCount[msg.sender] == 0);\n\t}\n\n\tfunction returnNumberOfPokemons() external view returns (uint) {\n\t\treturn ownerPokemonCount[msg.sender];\n\t}\n\n\tfunction returnTotalNumberOfPokemons() external view returns (uint) {\n\t\treturn pokemons.length;\n\t}\n\n\tfunction getPokemonCardsByOwner() external view returns (uint[] memory) {\n\t\tuint[] memory result = new uint[](ownerPokemonCount[msg.sender]);\n\t\tuint counter = 0;\n\t\tfor (uint i = 0; i < pokemons.length; i++) {\n\t\t\tif (pokemonToOwner[i] == msg.sender) {\n\t\t\t\tresult[counter] = i;\n\t\t\t\tcounter = counter.add(1);\n\t\t\t}\n\t\t}\n\t\treturn result;\n\t}\n\n\tfunction getPokemonInfo(uint _pokemonId) external view returns (\n\t\tstring memory,\n\t\tstring memory,\n\t\tstring memory,\n\t\tstring memory,\n\t\tuint32,\n\t\tuint,\n\t\tbool\n\t\t) {\n\n\t\tPokemon storage _pokemon = pokemons[_pokemonId];\n\n\t\treturn (_pokemon.nickname, _pokemon.name, _pokemon.type1, _pokemon.type2, _pokemon.level,\n\t\t \t_pokemon.pokemonNumber, _pokemon.legendary);\n\t}\n\n\tfunction getPokemonBreedingDetails(uint _pokemonId) external view returns (\n\t\tuint32,\n\t\tbool,\n\t\tuint,\n\t\tuint,\n\t\tuint\n\t\t) {\n\t\tPokemon storage _pokemon = pokemons[_pokemonId];\n\n\t\treturn (_pokemon.breedingReadyTime, _pokemon.gender, _pokemon.fatherId, _pokemon.motherId, _pokemon.breedingWithId);\n\t}\n\n\tfunction getPokemonBattleDetails(uint _pokemonId) external view returns (uint32) {\n\t\tPokemon storage _pokemon = pokemons[_pokemonId];\n\t\treturn _pokemon.battleReadyTime;\n\t}\n\n\tfunction getPokemonStats(uint _pokemonId) external view returns (\n\t\tuint32,\n\t\tuint32,\n\t\tuint32,\n\t\tuint32,\n\t\tuint32,\n\t\tuint32\n\t\t) {\n\t\tBaseStats storage stats = pokemons[_pokemonId].baseStats;\n\n\t\treturn (stats.hp, stats.attack, stats.defense, stats.specialAttack, stats.specialDefense, stats.speed);\n\t}\n\n\tfunction createRandomPokemon() internal returns(uint) {\n\t\t// Avoid creating legendary pokemon. Don't want to make the game too easy :)\n\t\tuint _pokemonNumber = (block.number + block.difficulty) % (basePokemons.length - 10);\n\t\tuint _originPokemonNumber = origin[_pokemonNumber] - 1;\n\t\tuint randDna = _generateRandomDna(\"NoName\");\n\t\treturn _createPokemon(\"NoName\", randDna, 0, 0, _originPokemonNumber);\n\t}\n\n\tfunction createRarerRandomPokemon() internal returns(uint) {\n\t\t// Avoid creating legendary pokemon. Don't want to make the game too easy :)\n\t\tuint _pokemonNumber = basePokemons.length - 1 - (block.number + block.difficulty) % 10;\n\t\tuint _originPokemonNumber = origin[_pokemonNumber] - 1;\n\t\tuint randDna = _generateRandomDna(\"NoName\");\n\t\treturn _createPokemon(\"NoName\", randDna, 0, 0, _originPokemonNumber);\n\t}\n\n}",
  "sourcePath": "/Users/ztq/Dropbox/Computer Science/CO467/crypto-pokemons/contracts/PokemonCardFactory.sol",
  "compiler": {
    "name": "solc",
    "version": "0.5.16+commit.9c3226ce.Emscripten.clang"
  },
  "schemaVersion": "3.0.23",
  "updatedAt": "2020-02-13T15:02:22.334Z",
  "devdoc": {
    "methods": {
      "isOwner()": {
        "return": "true if `msg.sender` is the owner of the contract."
      },
      "owner()": {
        "return": "the address of the owner."
      },
      "renounceOwnership()": {
        "details": "Allows the current owner to relinquish control of the contract."
      },
      "transferOwnership(address)": {
        "details": "Allows the current owner to transfer control of the contract to a newOwner.",
        "params": {
          "newOwner": "The address to transfer ownership to."
        }
      }
    }
  },
  "userdoc": {
    "methods": {
      "renounceOwnership()": {
        "notice": "Renouncing to ownership will leave the contract without an owner. It will not be possible to call the functions with the `onlyOwner` modifier anymore."
      }
    }
  }
}